{"abi":[{"inputs":[{"internalType":"uint256","name":"_fundTokenPrice","type":"uint256"}],"stateMutability":"payable","type":"constructor"},{"anonymous":false,"inputs":[{"indexed":true,"internalType":"address","name":"buyer","type":"address"},{"indexed":false,"internalType":"uint256","name":"fundTokenPrice","type":"uint256"},{"indexed":false,"internalType":"uint256","name":"fundTokensBought","type":"uint256"}],"name":"FundTokensBought","type":"event"},{"anonymous":false,"inputs":[{"indexed":false,"internalType":"address","name":"fundAddress","type":"address"},{"indexed":false,"internalType":"string","name":"name","type":"string"},{"indexed":true,"internalType":"address","name":"creator","type":"address"},{"indexed":false,"internalType":"uint256","name":"createdAt","type":"uint256"}],"name":"NewFund","type":"event"},{"anonymous":false,"inputs":[{"indexed":false,"internalType":"uint256","name":"fundTokenPrice","type":"uint256"}],"name":"NewFundTokenPrice","type":"event"},{"anonymous":false,"inputs":[{"indexed":true,"internalType":"address","name":"previousOwner","type":"address"},{"indexed":true,"internalType":"address","name":"newOwner","type":"address"}],"name":"OwnershipTransferred","type":"event"},{"inputs":[],"name":"balance","outputs":[{"internalType":"uint256","name":"","type":"uint256"}],"stateMutability":"view","type":"function"},{"inputs":[{"internalType":"uint256","name":"_fundTokens","type":"uint256"}],"name":"buyFundTokens","outputs":[],"stateMutability":"payable","type":"function"},{"inputs":[{"internalType":"uint256","name":"_newFundTokenPrice","type":"uint256"}],"name":"changeFundTokenPrice","outputs":[],"stateMutability":"nonpayable","type":"function"},{"inputs":[{"internalType":"string","name":"_name","type":"string"},{"internalType":"address[]","name":"_managers","type":"address[]"},{"internalType":"bool","name":"_managersCanBeAddedOrRemoved","type":"bool"},{"internalType":"bool","name":"_managersCanTransferMoneyWithoutARequest","type":"bool"},{"internalType":"bool","name":"_requestsCanBeCreated","type":"bool"},{"internalType":"bool","name":"_onlyManagersCanCreateARequest","type":"bool"},{"internalType":"bool","name":"_onlyContributorsCanApproveARequest","type":"bool"},{"internalType":"uint256","name":"_minimumContributionPercentageRequired","type":"uint256"},{"internalType":"uint256","name":"_minimumApprovalsPercentageRequired","type":"uint256"}],"name":"createFund","outputs":[],"stateMutability":"nonpayable","type":"function"},{"inputs":[],"name":"createFundPrice","outputs":[{"internalType":"uint256","name":"","type":"uint256"}],"stateMutability":"view","type":"function"},{"inputs":[{"internalType":"uint256","name":"","type":"uint256"}],"name":"deployedFunds","outputs":[{"internalType":"contract Fund","name":"","type":"address"}],"stateMutability":"view","type":"function"},{"inputs":[],"name":"earnedMoney","outputs":[{"internalType":"uint256","name":"","type":"uint256"}],"stateMutability":"view","type":"function"},{"inputs":[],"name":"fundToken","outputs":[{"internalType":"contract FundToken","name":"","type":"address"}],"stateMutability":"view","type":"function"},{"inputs":[],"name":"fundTokenPrice","outputs":[{"internalType":"uint256","name":"","type":"uint256"}],"stateMutability":"view","type":"function"},{"inputs":[],"name":"getDeployedFunds","outputs":[{"internalType":"contract Fund[]","name":"","type":"address[]"}],"stateMutability":"view","type":"function"},{"inputs":[],"name":"getDeployedFundsCount","outputs":[{"internalType":"uint256","name":"","type":"uint256"}],"stateMutability":"view","type":"function"},{"inputs":[],"name":"owner","outputs":[{"internalType":"address","name":"","type":"address"}],"stateMutability":"view","type":"function"},{"inputs":[],"name":"renounceOwnership","outputs":[],"stateMutability":"nonpayable","type":"function"},{"inputs":[{"internalType":"address","name":"newOwner","type":"address"}],"name":"transferOwnership","outputs":[],"stateMutability":"nonpayable","type":"function"},{"inputs":[],"name":"withdrawMoney","outputs":[],"stateMutability":"nonpayable","type":"function"}],"devdoc":{"kind":"dev","methods":{"owner()":{"details":"Returns the address of the current owner."},"renounceOwnership()":{"details":"Leaves the contract without owner. It will not be possible to call `onlyOwner` functions anymore. Can only be called by the current owner. NOTE: Renouncing ownership will leave the contract without an owner, thereby removing any functionality that is only available to the owner."},"transferOwnership(address)":{"details":"Transfers ownership of the contract to a new account (`newOwner`). Can only be called by the current owner."}},"version":1},"evm":{"assembly":"    /* \"FundFactory.sol\":414:3771  contract FundFactory is Ownable {... */\n  mstore(0x40, 0xa0)\n    /* \"FundFactory.sol\":1026:1150  constructor(uint256 _fundTokenPrice) payable {... */\n  mload(0x40)\n  sub(codesize, bytecodeSize)\n  dup1\n  bytecodeSize\n  dup4\n  codecopy\n  dup2\n  dup2\n  add\n  0x40\n  mstore\n  dup2\n  add\n  swap1\n  tag_1\n  swap2\n  swap1\n  tag_2\n  jump\t// in\ntag_1:\n    /* \"@openzeppelin/contracts/access/Ownable.sol\":936:968   */\n  tag_6\n    /* \"@openzeppelin/contracts/access/Ownable.sol\":955:967   */\n  tag_7\n    /* \"@openzeppelin/contracts/access/Ownable.sol\":955:965   */\n  shl(0x20, tag_8)\n    /* \"@openzeppelin/contracts/access/Ownable.sol\":955:967   */\n  0x20\n  shr\n  jump\t// in\ntag_7:\n    /* \"@openzeppelin/contracts/access/Ownable.sol\":936:954   */\n  shl(0x20, tag_9)\n    /* \"@openzeppelin/contracts/access/Ownable.sol\":936:968   */\n  0x20\n  shr\n  jump\t// in\ntag_6:\n    /* \"FundFactory.sol\":1090:1105  new FundToken() */\n  mload(0x40)\n  tag_11\n  swap1\n  tag_12\n  jump\t// in\ntag_11:\n  mload(0x40)\n  dup1\n  swap2\n  sub\n  swap1\n  0x00\n  create\n  dup1\n  iszero\n  dup1\n  iszero\n  tag_13\n  jumpi\n  returndatasize\n  0x00\n  dup1\n  returndatacopy\n  revert(0x00, returndatasize)\ntag_13:\n  pop\n    /* \"FundFactory.sol\":1078:1105  fundToken = new FundToken() */\n  0xffffffffffffffffffffffffffffffffffffffff\n  and\n  0x80\n  dup2\n  0xffffffffffffffffffffffffffffffffffffffff\n  and\n  dup2\n  mstore\n  pop\n  pop\n    /* \"FundFactory.sol\":1129:1144  _fundTokenPrice */\n  dup1\n    /* \"FundFactory.sol\":1112:1126  fundTokenPrice */\n  0x02\n    /* \"FundFactory.sol\":1112:1144  fundTokenPrice = _fundTokenPrice */\n  dup2\n  swap1\n  sstore\n  pop\n    /* \"FundFactory.sol\":1026:1150  constructor(uint256 _fundTokenPrice) payable {... */\n  pop\n    /* \"FundFactory.sol\":414:3771  contract FundFactory is Ownable {... */\n  jump(tag_14)\n    /* \"@openzeppelin/contracts/utils/Context.sol\":640:736   */\ntag_8:\n    /* \"@openzeppelin/contracts/utils/Context.sol\":693:700   */\n  0x00\n    /* \"@openzeppelin/contracts/utils/Context.sol\":719:729   */\n  caller\n    /* \"@openzeppelin/contracts/utils/Context.sol\":712:729   */\n  swap1\n  pop\n    /* \"@openzeppelin/contracts/utils/Context.sol\":640:736   */\n  swap1\n  jump\t// out\n    /* \"@openzeppelin/contracts/access/Ownable.sol\":2433:2620   */\ntag_9:\n    /* \"@openzeppelin/contracts/access/Ownable.sol\":2506:2522   */\n  0x00\n    /* \"@openzeppelin/contracts/access/Ownable.sol\":2525:2531   */\n  dup1\n  0x00\n  swap1\n  sload\n  swap1\n  0x0100\n  exp\n  swap1\n  div\n  0xffffffffffffffffffffffffffffffffffffffff\n  and\n    /* \"@openzeppelin/contracts/access/Ownable.sol\":2506:2531   */\n  swap1\n  pop\n    /* \"@openzeppelin/contracts/access/Ownable.sol\":2550:2558   */\n  dup2\n    /* \"@openzeppelin/contracts/access/Ownable.sol\":2541:2547   */\n  0x00\n  dup1\n    /* \"@openzeppelin/contracts/access/Ownable.sol\":2541:2558   */\n  0x0100\n  exp\n  dup2\n  sload\n  dup2\n  0xffffffffffffffffffffffffffffffffffffffff\n  mul\n  not\n  and\n  swap1\n  dup4\n  0xffffffffffffffffffffffffffffffffffffffff\n  and\n  mul\n  or\n  swap1\n  sstore\n  pop\n    /* \"@openzeppelin/contracts/access/Ownable.sol\":2604:2612   */\n  dup2\n    /* \"@openzeppelin/contracts/access/Ownable.sol\":2573:2613   */\n  0xffffffffffffffffffffffffffffffffffffffff\n  and\n    /* \"@openzeppelin/contracts/access/Ownable.sol\":2594:2602   */\n  dup2\n    /* \"@openzeppelin/contracts/access/Ownable.sol\":2573:2613   */\n  0xffffffffffffffffffffffffffffffffffffffff\n  and\n  0x8be0079c531659141344cd1fd0a4f28419497f9722a3daafe3b4186f6b6457e0\n  mload(0x40)\n  mload(0x40)\n  dup1\n  swap2\n  sub\n  swap1\n  log3\n    /* \"@openzeppelin/contracts/access/Ownable.sol\":2496:2620   */\n  pop\n    /* \"@openzeppelin/contracts/access/Ownable.sol\":2433:2620   */\n  pop\n  jump\t// out\n    /* \"FundFactory.sol\":414:3771  contract FundFactory is Ownable {... */\ntag_12:\n  dataSize(sub_1)\n  dup1\n  dataOffset(sub_1)\n  dup4\n  codecopy\n  add\n  swap1\n  jump\t// out\n    /* \"#utility.yul\":88:205   */\ntag_18:\n    /* \"#utility.yul\":197:198   */\n  0x00\n    /* \"#utility.yul\":194:195   */\n  dup1\n    /* \"#utility.yul\":187:199   */\n  revert\n    /* \"#utility.yul\":334:411   */\ntag_20:\n    /* \"#utility.yul\":371:378   */\n  0x00\n    /* \"#utility.yul\":400:405   */\n  dup2\n    /* \"#utility.yul\":389:405   */\n  swap1\n  pop\n    /* \"#utility.yul\":334:411   */\n  swap2\n  swap1\n  pop\n  jump\t// out\n    /* \"#utility.yul\":417:539   */\ntag_21:\n    /* \"#utility.yul\":490:514   */\n  tag_29\n    /* \"#utility.yul\":508:513   */\n  dup2\n    /* \"#utility.yul\":490:514   */\n  tag_20\n  jump\t// in\ntag_29:\n    /* \"#utility.yul\":483:488   */\n  dup2\n    /* \"#utility.yul\":480:515   */\n  eq\n    /* \"#utility.yul\":470:533   */\n  tag_30\n  jumpi\n    /* \"#utility.yul\":529:530   */\n  0x00\n    /* \"#utility.yul\":526:527   */\n  dup1\n    /* \"#utility.yul\":519:531   */\n  revert\n    /* \"#utility.yul\":470:533   */\ntag_30:\n    /* \"#utility.yul\":417:539   */\n  pop\n  jump\t// out\n    /* \"#utility.yul\":545:688   */\ntag_22:\n    /* \"#utility.yul\":602:607   */\n  0x00\n    /* \"#utility.yul\":633:639   */\n  dup2\n    /* \"#utility.yul\":627:640   */\n  mload\n    /* \"#utility.yul\":618:640   */\n  swap1\n  pop\n    /* \"#utility.yul\":649:682   */\n  tag_32\n    /* \"#utility.yul\":676:681   */\n  dup2\n    /* \"#utility.yul\":649:682   */\n  tag_21\n  jump\t// in\ntag_32:\n    /* \"#utility.yul\":545:688   */\n  swap3\n  swap2\n  pop\n  pop\n  jump\t// out\n    /* \"#utility.yul\":694:1045   */\ntag_2:\n    /* \"#utility.yul\":764:770   */\n  0x00\n    /* \"#utility.yul\":813:815   */\n  0x20\n    /* \"#utility.yul\":801:810   */\n  dup3\n    /* \"#utility.yul\":792:799   */\n  dup5\n    /* \"#utility.yul\":788:811   */\n  sub\n    /* \"#utility.yul\":784:816   */\n  slt\n    /* \"#utility.yul\":781:900   */\n  iszero\n  tag_34\n  jumpi\n    /* \"#utility.yul\":819:898   */\n  tag_35\n  tag_18\n  jump\t// in\ntag_35:\n    /* \"#utility.yul\":781:900   */\ntag_34:\n    /* \"#utility.yul\":939:940   */\n  0x00\n    /* \"#utility.yul\":964:1028   */\n  tag_36\n    /* \"#utility.yul\":1020:1027   */\n  dup5\n    /* \"#utility.yul\":1011:1017   */\n  dup3\n    /* \"#utility.yul\":1000:1009   */\n  dup6\n    /* \"#utility.yul\":996:1018   */\n  add\n    /* \"#utility.yul\":964:1028   */\n  tag_22\n  jump\t// in\ntag_36:\n    /* \"#utility.yul\":954:1028   */\n  swap2\n  pop\n    /* \"#utility.yul\":910:1038   */\n  pop\n    /* \"#utility.yul\":694:1045   */\n  swap3\n  swap2\n  pop\n  pop\n  jump\t// out\n    /* \"FundFactory.sol\":414:3771  contract FundFactory is Ownable {... */\ntag_14:\n  mload(0x80)\n  codecopy(0x00, dataOffset(sub_0), dataSize(sub_0))\n  0x00\n  assignImmutable(\"0x789bcdf275fa270780a52ae3b79bb1ce0fda7e0aaad87b57b74bb99ac290714a\")\n  return(0x00, dataSize(sub_0))\nstop\n\nsub_0: assembly {\n        /* \"FundFactory.sol\":414:3771  contract FundFactory is Ownable {... */\n      mstore(0x40, 0x80)\n      jumpi(tag_1, lt(calldatasize, 0x04))\n      shr(0xe0, calldataload(0x00))\n      dup1\n      0x8da5cb5b\n      gt\n      tag_17\n      jumpi\n      dup1\n      0xcfb35b3b\n      gt\n      tag_18\n      jumpi\n      dup1\n      0xcfb35b3b\n      eq\n      tag_13\n      jumpi\n      dup1\n      0xe1a3db15\n      eq\n      tag_14\n      jumpi\n      dup1\n      0xf2fde38b\n      eq\n      tag_15\n      jumpi\n      dup1\n      0xfd62a55f\n      eq\n      tag_16\n      jumpi\n      jump(tag_1)\n    tag_18:\n      dup1\n      0x8da5cb5b\n      eq\n      tag_9\n      jumpi\n      dup1\n      0x9a068bd6\n      eq\n      tag_10\n      jumpi\n      dup1\n      0xac446002\n      eq\n      tag_11\n      jumpi\n      dup1\n      0xb69ef8a8\n      eq\n      tag_12\n      jumpi\n      jump(tag_1)\n    tag_17:\n      dup1\n      0x54d8a5bd\n      gt\n      tag_19\n      jumpi\n      dup1\n      0x54d8a5bd\n      eq\n      tag_5\n      jumpi\n      dup1\n      0x57800736\n      eq\n      tag_6\n      jumpi\n      dup1\n      0x64705d8b\n      eq\n      tag_7\n      jumpi\n      dup1\n      0x715018a6\n      eq\n      tag_8\n      jumpi\n      jump(tag_1)\n    tag_19:\n      dup1\n      0x027d3f35\n      eq\n      tag_2\n      jumpi\n      dup1\n      0x2dabb8ac\n      eq\n      tag_3\n      jumpi\n      dup1\n      0x50adcdb7\n      eq\n      tag_4\n      jumpi\n    tag_1:\n      0x00\n      dup1\n      revert\n        /* \"FundFactory.sol\":601:644  uint256 public constant createFundPrice = 1 */\n    tag_2:\n      callvalue\n      dup1\n      iszero\n      tag_20\n      jumpi\n      0x00\n      dup1\n      revert\n    tag_20:\n      pop\n      tag_21\n      tag_22\n      jump\t// in\n    tag_21:\n      mload(0x40)\n      tag_23\n      swap2\n      swap1\n      tag_24\n      jump\t// in\n    tag_23:\n      mload(0x40)\n      dup1\n      swap2\n      sub\n      swap1\n      return\n        /* \"FundFactory.sol\":474:500  uint256 public earnedMoney */\n    tag_3:\n      callvalue\n      dup1\n      iszero\n      tag_25\n      jumpi\n      0x00\n      dup1\n      revert\n    tag_25:\n      pop\n      tag_26\n      tag_27\n      jump\t// in\n    tag_26:\n      mload(0x40)\n      tag_28\n      swap2\n      swap1\n      tag_24\n      jump\t// in\n    tag_28:\n      mload(0x40)\n      dup1\n      swap2\n      sub\n      swap1\n      return\n        /* \"FundFactory.sol\":507:543  FundToken public immutable fundToken */\n    tag_4:\n      callvalue\n      dup1\n      iszero\n      tag_29\n      jumpi\n      0x00\n      dup1\n      revert\n    tag_29:\n      pop\n      tag_30\n      tag_31\n      jump\t// in\n    tag_30:\n      mload(0x40)\n      tag_32\n      swap2\n      swap1\n      tag_33\n      jump\t// in\n    tag_32:\n      mload(0x40)\n      dup1\n      swap2\n      sub\n      swap1\n      return\n        /* \"FundFactory.sol\":3671:3768  function getDeployedFunds() public view returns (Fund[] memory) {... */\n    tag_5:\n      callvalue\n      dup1\n      iszero\n      tag_34\n      jumpi\n      0x00\n      dup1\n      revert\n    tag_34:\n      pop\n      tag_35\n      tag_36\n      jump\t// in\n    tag_35:\n      mload(0x40)\n      tag_37\n      swap2\n      swap1\n      tag_38\n      jump\t// in\n    tag_37:\n      mload(0x40)\n      dup1\n      swap2\n      sub\n      swap1\n      return\n        /* \"FundFactory.sol\":548:577  uint256 public fundTokenPrice */\n    tag_6:\n      callvalue\n      dup1\n      iszero\n      tag_39\n      jumpi\n      0x00\n      dup1\n      revert\n    tag_39:\n      pop\n      tag_40\n      tag_41\n      jump\t// in\n    tag_40:\n      mload(0x40)\n      tag_42\n      swap2\n      swap1\n      tag_24\n      jump\t// in\n    tag_42:\n      mload(0x40)\n      dup1\n      swap2\n      sub\n      swap1\n      return\n        /* \"FundFactory.sol\":2040:3556  function createFund(... */\n    tag_7:\n      callvalue\n      dup1\n      iszero\n      tag_43\n      jumpi\n      0x00\n      dup1\n      revert\n    tag_43:\n      pop\n      tag_44\n      0x04\n      dup1\n      calldatasize\n      sub\n      dup2\n      add\n      swap1\n      tag_45\n      swap2\n      swap1\n      tag_46\n      jump\t// in\n    tag_45:\n      tag_47\n      jump\t// in\n    tag_44:\n      stop\n        /* \"@openzeppelin/contracts/access/Ownable.sol\":1831:1932   */\n    tag_8:\n      callvalue\n      dup1\n      iszero\n      tag_48\n      jumpi\n      0x00\n      dup1\n      revert\n    tag_48:\n      pop\n      tag_49\n      tag_50\n      jump\t// in\n    tag_49:\n      stop\n        /* \"@openzeppelin/contracts/access/Ownable.sol\":1201:1286   */\n    tag_9:\n      callvalue\n      dup1\n      iszero\n      tag_51\n      jumpi\n      0x00\n      dup1\n      revert\n    tag_51:\n      pop\n      tag_52\n      tag_53\n      jump\t// in\n    tag_52:\n      mload(0x40)\n      tag_54\n      swap2\n      swap1\n      tag_55\n      jump\t// in\n    tag_54:\n      mload(0x40)\n      dup1\n      swap2\n      sub\n      swap1\n      return\n        /* \"FundFactory.sol\":723:750  Fund[] public deployedFunds */\n    tag_10:\n      callvalue\n      dup1\n      iszero\n      tag_56\n      jumpi\n      0x00\n      dup1\n      revert\n    tag_56:\n      pop\n      tag_57\n      0x04\n      dup1\n      calldatasize\n      sub\n      dup2\n      add\n      swap1\n      tag_58\n      swap2\n      swap1\n      tag_59\n      jump\t// in\n    tag_58:\n      tag_60\n      jump\t// in\n    tag_57:\n      mload(0x40)\n      tag_61\n      swap2\n      swap1\n      tag_62\n      jump\t// in\n    tag_61:\n      mload(0x40)\n      dup1\n      swap2\n      sub\n      swap1\n      return\n        /* \"FundFactory.sol\":1869:1972  function withdrawMoney() public onlyOwner {... */\n    tag_11:\n      callvalue\n      dup1\n      iszero\n      tag_63\n      jumpi\n      0x00\n      dup1\n      revert\n    tag_63:\n      pop\n      tag_64\n      tag_65\n      jump\t// in\n    tag_64:\n      stop\n        /* \"FundFactory.sol\":1773:1863  function balance() public view returns (uint256) {... */\n    tag_12:\n      callvalue\n      dup1\n      iszero\n      tag_66\n      jumpi\n      0x00\n      dup1\n      revert\n    tag_66:\n      pop\n      tag_67\n      tag_68\n      jump\t// in\n    tag_67:\n      mload(0x40)\n      tag_69\n      swap2\n      swap1\n      tag_24\n      jump\t// in\n    tag_69:\n      mload(0x40)\n      dup1\n      swap2\n      sub\n      swap1\n      return\n        /* \"FundFactory.sol\":1174:1348  function changeFundTokenPrice(uint256 _newFundTokenPrice) public onlyOwner {... */\n    tag_13:\n      callvalue\n      dup1\n      iszero\n      tag_70\n      jumpi\n      0x00\n      dup1\n      revert\n    tag_70:\n      pop\n      tag_71\n      0x04\n      dup1\n      calldatasize\n      sub\n      dup2\n      add\n      swap1\n      tag_72\n      swap2\n      swap1\n      tag_59\n      jump\t// in\n    tag_72:\n      tag_73\n      jump\t// in\n    tag_71:\n      stop\n        /* \"FundFactory.sol\":3562:3665  function getDeployedFundsCount() public view returns (uint256) {... */\n    tag_14:\n      callvalue\n      dup1\n      iszero\n      tag_74\n      jumpi\n      0x00\n      dup1\n      revert\n    tag_74:\n      pop\n      tag_75\n      tag_76\n      jump\t// in\n    tag_75:\n      mload(0x40)\n      tag_77\n      swap2\n      swap1\n      tag_24\n      jump\t// in\n    tag_77:\n      mload(0x40)\n      dup1\n      swap2\n      sub\n      swap1\n      return\n        /* \"@openzeppelin/contracts/access/Ownable.sol\":2081:2279   */\n    tag_15:\n      callvalue\n      dup1\n      iszero\n      tag_78\n      jumpi\n      0x00\n      dup1\n      revert\n    tag_78:\n      pop\n      tag_79\n      0x04\n      dup1\n      calldatasize\n      sub\n      dup2\n      add\n      swap1\n      tag_80\n      swap2\n      swap1\n      tag_81\n      jump\t// in\n    tag_80:\n      tag_82\n      jump\t// in\n    tag_79:\n      stop\n        /* \"FundFactory.sol\":1354:1767  function buyFundTokens(uint256 _fundTokens) public payable {... */\n    tag_16:\n      tag_83\n      0x04\n      dup1\n      calldatasize\n      sub\n      dup2\n      add\n      swap1\n      tag_84\n      swap2\n      swap1\n      tag_59\n      jump\t// in\n    tag_84:\n      tag_85\n      jump\t// in\n    tag_83:\n      stop\n        /* \"FundFactory.sol\":601:644  uint256 public constant createFundPrice = 1 */\n    tag_22:\n        /* \"FundFactory.sol\":643:644  1 */\n      0x01\n        /* \"FundFactory.sol\":601:644  uint256 public constant createFundPrice = 1 */\n      dup2\n      jump\t// out\n        /* \"FundFactory.sol\":474:500  uint256 public earnedMoney */\n    tag_27:\n      sload(0x01)\n      dup2\n      jump\t// out\n        /* \"FundFactory.sol\":507:543  FundToken public immutable fundToken */\n    tag_31:\n      immutable(\"0x789bcdf275fa270780a52ae3b79bb1ce0fda7e0aaad87b57b74bb99ac290714a\")\n      dup2\n      jump\t// out\n        /* \"FundFactory.sol\":3671:3768  function getDeployedFunds() public view returns (Fund[] memory) {... */\n    tag_36:\n        /* \"FundFactory.sol\":3720:3733  Fund[] memory */\n      0x60\n        /* \"FundFactory.sol\":3749:3762  deployedFunds */\n      0x03\n        /* \"FundFactory.sol\":3742:3762  return deployedFunds */\n      dup1\n      sload\n      dup1\n      0x20\n      mul\n      0x20\n      add\n      mload(0x40)\n      swap1\n      dup2\n      add\n      0x40\n      mstore\n      dup1\n      swap3\n      swap2\n      swap1\n      dup2\n      dup2\n      mstore\n      0x20\n      add\n      dup3\n      dup1\n      sload\n      dup1\n      iszero\n      tag_87\n      jumpi\n      0x20\n      mul\n      dup3\n      add\n      swap2\n      swap1\n      0x00\n      mstore\n      keccak256(0x00, 0x20)\n      swap1\n    tag_88:\n      dup2\n      0x00\n      swap1\n      sload\n      swap1\n      0x0100\n      exp\n      swap1\n      div\n      0xffffffffffffffffffffffffffffffffffffffff\n      and\n      0xffffffffffffffffffffffffffffffffffffffff\n      and\n      dup2\n      mstore\n      0x20\n      add\n      swap1\n      0x01\n      add\n      swap1\n      dup1\n      dup4\n      gt\n      tag_88\n      jumpi\n    tag_87:\n      pop\n      pop\n      pop\n      pop\n      pop\n      swap1\n      pop\n        /* \"FundFactory.sol\":3671:3768  function getDeployedFunds() public view returns (Fund[] memory) {... */\n      swap1\n      jump\t// out\n        /* \"FundFactory.sol\":548:577  uint256 public fundTokenPrice */\n    tag_41:\n      sload(0x02)\n      dup2\n      jump\t// out\n        /* \"FundFactory.sol\":2040:3556  function createFund(... */\n    tag_47:\n        /* \"FundFactory.sol\":2486:2487  0 */\n      0x00\n        /* \"FundFactory.sol\":2469:2474  _name */\n      dup10\n        /* \"FundFactory.sol\":2463:2482  bytes(_name).length */\n      mload\n        /* \"FundFactory.sol\":2463:2487  bytes(_name).length != 0 */\n      sub\n        /* \"FundFactory.sol\":2455:2539  require(bytes(_name).length != 0, \"El nombre del fondo no puede estar vac\\xc3\\xado\") */\n      tag_90\n      jumpi\n      mload(0x40)\n      0x08c379a000000000000000000000000000000000000000000000000000000000\n      dup2\n      mstore\n      0x04\n      add\n      tag_91\n      swap1\n      tag_92\n      jump\t// in\n    tag_91:\n      mload(0x40)\n      dup1\n      swap2\n      sub\n      swap1\n      revert\n    tag_90:\n        /* \"FundFactory.sol\":2563:2603  _managersCanTransferMoneyWithoutARequest */\n      dup6\n        /* \"FundFactory.sol\":2563:2627  _managersCanTransferMoneyWithoutARequest && _managers.length > 0 */\n      dup1\n      iszero\n      tag_93\n      jumpi\n      pop\n        /* \"FundFactory.sol\":2626:2627  0 */\n      0x00\n        /* \"FundFactory.sol\":2607:2616  _managers */\n      dup9\n        /* \"FundFactory.sol\":2607:2623  _managers.length */\n      mload\n        /* \"FundFactory.sol\":2607:2627  _managers.length > 0 */\n      gt\n        /* \"FundFactory.sol\":2563:2627  _managersCanTransferMoneyWithoutARequest && _managers.length > 0 */\n    tag_93:\n        /* \"FundFactory.sol\":2562:2725  (_managersCanTransferMoneyWithoutARequest && _managers.length > 0) ||... */\n      dup1\n      tag_94\n      jumpi\n      pop\n        /* \"FundFactory.sol\":2642:2663  _requestsCanBeCreated */\n      dup5\n        /* \"FundFactory.sol\":2642:2724  _requestsCanBeCreated && (!_onlyManagersCanCreateARequest || _managers.length > 0) */\n      dup1\n      iszero\n      tag_95\n      jumpi\n      pop\n        /* \"FundFactory.sol\":2669:2699  _onlyManagersCanCreateARequest */\n      dup4\n        /* \"FundFactory.sol\":2668:2699  !_onlyManagersCanCreateARequest */\n      iszero\n        /* \"FundFactory.sol\":2668:2723  !_onlyManagersCanCreateARequest || _managers.length > 0 */\n      dup1\n      tag_96\n      jumpi\n      pop\n        /* \"FundFactory.sol\":2722:2723  0 */\n      0x00\n        /* \"FundFactory.sol\":2703:2712  _managers */\n      dup9\n        /* \"FundFactory.sol\":2703:2719  _managers.length */\n      mload\n        /* \"FundFactory.sol\":2703:2723  _managers.length > 0 */\n      gt\n        /* \"FundFactory.sol\":2668:2723  !_onlyManagersCanCreateARequest || _managers.length > 0 */\n    tag_96:\n        /* \"FundFactory.sol\":2642:2724  _requestsCanBeCreated && (!_onlyManagersCanCreateARequest || _managers.length > 0) */\n    tag_95:\n        /* \"FundFactory.sol\":2562:2725  (_managersCanTransferMoneyWithoutARequest && _managers.length > 0) ||... */\n    tag_94:\n        /* \"FundFactory.sol\":2546:2800  require(... */\n      tag_97\n      jumpi\n      mload(0x40)\n      0x08c379a000000000000000000000000000000000000000000000000000000000\n      dup2\n      mstore\n      0x04\n      add\n      tag_98\n      swap1\n      tag_99\n      jump\t// in\n    tag_98:\n      mload(0x40)\n      dup1\n      swap2\n      sub\n      swap1\n      revert\n    tag_97:\n        /* \"FundFactory.sol\":2856:2859  101 */\n      0x65\n        /* \"FundFactory.sol\":2815:2853  _minimumContributionPercentageRequired */\n      dup3\n        /* \"FundFactory.sol\":2815:2859  _minimumContributionPercentageRequired < 101 */\n      lt\n        /* \"FundFactory.sol\":2807:2908  require(_minimumContributionPercentageRequired < 101, \"Porcentaje de contribuci\\xc3\\xb3n incorrecto\") */\n      tag_100\n      jumpi\n      mload(0x40)\n      0x08c379a000000000000000000000000000000000000000000000000000000000\n      dup2\n      mstore\n      0x04\n      add\n      tag_101\n      swap1\n      tag_102\n      jump\t// in\n    tag_101:\n      mload(0x40)\n      dup1\n      swap2\n      sub\n      swap1\n      revert\n    tag_100:\n        /* \"FundFactory.sol\":2961:2964  101 */\n      0x65\n        /* \"FundFactory.sol\":2923:2958  _minimumApprovalsPercentageRequired */\n      dup2\n        /* \"FundFactory.sol\":2923:2964  _minimumApprovalsPercentageRequired < 101 */\n      lt\n        /* \"FundFactory.sol\":2915:3006  require(_minimumApprovalsPercentageRequired < 101, \"Porcentaje de aprobaciones incorrecto\") */\n      tag_103\n      jumpi\n      mload(0x40)\n      0x08c379a000000000000000000000000000000000000000000000000000000000\n      dup2\n      mstore\n      0x04\n      add\n      tag_104\n      swap1\n      tag_105\n      jump\t// in\n    tag_104:\n      mload(0x40)\n      dup1\n      swap2\n      sub\n      swap1\n      revert\n    tag_103:\n        /* \"FundFactory.sol\":3015:3024  fundToken */\n      immutable(\"0x789bcdf275fa270780a52ae3b79bb1ce0fda7e0aaad87b57b74bb99ac290714a\")\n        /* \"FundFactory.sol\":3015:3029  fundToken.burn */\n      0xffffffffffffffffffffffffffffffffffffffff\n      and\n      0x9dc29fac\n        /* \"FundFactory.sol\":3030:3040  msg.sender */\n      caller\n        /* \"FundFactory.sol\":643:644  1 */\n      0x01\n        /* \"FundFactory.sol\":3015:3058  fundToken.burn(msg.sender, createFundPrice) */\n      mload(0x40)\n      dup4\n      0xffffffff\n      and\n      0xe0\n      shl\n      dup2\n      mstore\n      0x04\n      add\n      tag_106\n      swap3\n      swap2\n      swap1\n      tag_107\n      jump\t// in\n    tag_106:\n      0x00\n      mload(0x40)\n      dup1\n      dup4\n      sub\n      dup2\n      0x00\n      dup8\n      dup1\n      extcodesize\n      iszero\n      dup1\n      iszero\n      tag_108\n      jumpi\n      0x00\n      dup1\n      revert\n    tag_108:\n      pop\n      gas\n      call\n      iszero\n      dup1\n      iszero\n      tag_110\n      jumpi\n      returndatasize\n      0x00\n      dup1\n      returndatacopy\n      revert(0x00, returndatasize)\n    tag_110:\n      pop\n      pop\n      pop\n      pop\n        /* \"FundFactory.sol\":3067:3080  Fund _newFund */\n      0x00\n        /* \"FundFactory.sol\":3100:3105  _name */\n      dup10\n        /* \"FundFactory.sol\":3114:3124  msg.sender */\n      caller\n        /* \"FundFactory.sol\":3133:3142  _managers */\n      dup11\n        /* \"FundFactory.sol\":3151:3179  _managersCanBeAddedOrRemoved */\n      dup11\n        /* \"FundFactory.sol\":3188:3228  _managersCanTransferMoneyWithoutARequest */\n      dup11\n        /* \"FundFactory.sol\":3237:3258  _requestsCanBeCreated */\n      dup11\n        /* \"FundFactory.sol\":3267:3297  _onlyManagersCanCreateARequest */\n      dup11\n        /* \"FundFactory.sol\":3306:3341  _onlyContributorsCanApproveARequest */\n      dup11\n        /* \"FundFactory.sol\":3350:3388  _minimumContributionPercentageRequired */\n      dup11\n        /* \"FundFactory.sol\":3397:3432  _minimumApprovalsPercentageRequired */\n      dup11\n        /* \"FundFactory.sol\":3083:3439  new Fund(... */\n      mload(0x40)\n      tag_111\n      swap1\n      tag_112\n      jump\t// in\n    tag_111:\n      tag_113\n      swap11\n      swap10\n      swap9\n      swap8\n      swap7\n      swap6\n      swap5\n      swap4\n      swap3\n      swap2\n      swap1\n      tag_114\n      jump\t// in\n    tag_113:\n      mload(0x40)\n      dup1\n      swap2\n      sub\n      swap1\n      0x00\n      create\n      dup1\n      iszero\n      dup1\n      iszero\n      tag_115\n      jumpi\n      returndatasize\n      0x00\n      dup1\n      returndatacopy\n      revert(0x00, returndatasize)\n    tag_115:\n      pop\n        /* \"FundFactory.sol\":3067:3439  Fund _newFund = new Fund(... */\n      swap1\n      pop\n        /* \"FundFactory.sol\":3446:3459  deployedFunds */\n      0x03\n        /* \"FundFactory.sol\":3465:3473  _newFund */\n      dup2\n        /* \"FundFactory.sol\":3446:3474  deployedFunds.push(_newFund) */\n      swap1\n      dup1\n      0x01\n      dup2\n      sload\n      add\n      dup1\n      dup3\n      sstore\n      dup1\n      swap2\n      pop\n      pop\n      0x01\n      swap1\n      sub\n      swap1\n      0x00\n      mstore\n      keccak256(0x00, 0x20)\n      add\n      0x00\n      swap1\n      swap2\n      swap1\n      swap2\n      swap1\n      swap2\n      0x0100\n      exp\n      dup2\n      sload\n      dup2\n      0xffffffffffffffffffffffffffffffffffffffff\n      mul\n      not\n      and\n      swap1\n      dup4\n      0xffffffffffffffffffffffffffffffffffffffff\n      and\n      mul\n      or\n      swap1\n      sstore\n      pop\n        /* \"FundFactory.sol\":3522:3532  msg.sender */\n      caller\n        /* \"FundFactory.sol\":3488:3550  NewFund(address(_newFund), _name, msg.sender, block.timestamp) */\n      0xffffffffffffffffffffffffffffffffffffffff\n      and\n      0x9109803bce680e214bd28bd83c37574dbcfc99a7d71112714d8143e69f2c5069\n        /* \"FundFactory.sol\":3504:3512  _newFund */\n      dup3\n        /* \"FundFactory.sol\":3515:3520  _name */\n      dup13\n        /* \"FundFactory.sol\":3534:3549  block.timestamp */\n      timestamp\n        /* \"FundFactory.sol\":3488:3550  NewFund(address(_newFund), _name, msg.sender, block.timestamp) */\n      mload(0x40)\n      tag_117\n      swap4\n      swap3\n      swap2\n      swap1\n      tag_118\n      jump\t// in\n    tag_117:\n      mload(0x40)\n      dup1\n      swap2\n      sub\n      swap1\n      log2\n        /* \"FundFactory.sol\":2448:3556  {... */\n      pop\n        /* \"FundFactory.sol\":2040:3556  function createFund(... */\n      pop\n      pop\n      pop\n      pop\n      pop\n      pop\n      pop\n      pop\n      pop\n      jump\t// out\n        /* \"@openzeppelin/contracts/access/Ownable.sol\":1831:1932   */\n    tag_50:\n        /* \"@openzeppelin/contracts/access/Ownable.sol\":1094:1107   */\n      tag_120\n        /* \"@openzeppelin/contracts/access/Ownable.sol\":1094:1105   */\n      tag_121\n        /* \"@openzeppelin/contracts/access/Ownable.sol\":1094:1107   */\n      jump\t// in\n    tag_120:\n        /* \"@openzeppelin/contracts/access/Ownable.sol\":1895:1925   */\n      tag_123\n        /* \"@openzeppelin/contracts/access/Ownable.sol\":1922:1923   */\n      0x00\n        /* \"@openzeppelin/contracts/access/Ownable.sol\":1895:1913   */\n      tag_124\n        /* \"@openzeppelin/contracts/access/Ownable.sol\":1895:1925   */\n      jump\t// in\n    tag_123:\n        /* \"@openzeppelin/contracts/access/Ownable.sol\":1831:1932   */\n      jump\t// out\n        /* \"@openzeppelin/contracts/access/Ownable.sol\":1201:1286   */\n    tag_53:\n        /* \"@openzeppelin/contracts/access/Ownable.sol\":1247:1254   */\n      0x00\n        /* \"@openzeppelin/contracts/access/Ownable.sol\":1273:1279   */\n      dup1\n      0x00\n      swap1\n      sload\n      swap1\n      0x0100\n      exp\n      swap1\n      div\n      0xffffffffffffffffffffffffffffffffffffffff\n      and\n        /* \"@openzeppelin/contracts/access/Ownable.sol\":1266:1279   */\n      swap1\n      pop\n        /* \"@openzeppelin/contracts/access/Ownable.sol\":1201:1286   */\n      swap1\n      jump\t// out\n        /* \"FundFactory.sol\":723:750  Fund[] public deployedFunds */\n    tag_60:\n      0x03\n      dup2\n      dup2\n      sload\n      dup2\n      lt\n      tag_126\n      jumpi\n      0x00\n      dup1\n      revert\n    tag_126:\n      swap1\n      0x00\n      mstore\n      keccak256(0x00, 0x20)\n      add\n      0x00\n      swap2\n      pop\n      sload\n      swap1\n      0x0100\n      exp\n      swap1\n      div\n      0xffffffffffffffffffffffffffffffffffffffff\n      and\n      dup2\n      jump\t// out\n        /* \"FundFactory.sol\":1869:1972  function withdrawMoney() public onlyOwner {... */\n    tag_65:\n        /* \"@openzeppelin/contracts/access/Ownable.sol\":1094:1107   */\n      tag_129\n        /* \"@openzeppelin/contracts/access/Ownable.sol\":1094:1105   */\n      tag_121\n        /* \"@openzeppelin/contracts/access/Ownable.sol\":1094:1107   */\n      jump\t// in\n    tag_129:\n        /* \"FundFactory.sol\":1926:1933  owner() */\n      tag_131\n        /* \"FundFactory.sol\":1926:1931  owner */\n      tag_53\n        /* \"FundFactory.sol\":1926:1933  owner() */\n      jump\t// in\n    tag_131:\n        /* \"FundFactory.sol\":1918:1943  payable(owner()).transfer */\n      0xffffffffffffffffffffffffffffffffffffffff\n      and\n        /* \"FundFactory.sol\":1918:1966  payable(owner()).transfer(address(this).balance) */\n      0x08fc\n        /* \"FundFactory.sol\":1944:1965  address(this).balance */\n      selfbalance\n        /* \"FundFactory.sol\":1918:1966  payable(owner()).transfer(address(this).balance) */\n      swap1\n      dup2\n      iszero\n      mul\n      swap1\n      mload(0x40)\n      0x00\n      mload(0x40)\n      dup1\n      dup4\n      sub\n      dup2\n      dup6\n      dup9\n      dup9\n      call\n      swap4\n      pop\n      pop\n      pop\n      pop\n      iszero\n      dup1\n      iszero\n      tag_133\n      jumpi\n      returndatasize\n      0x00\n      dup1\n      returndatacopy\n      revert(0x00, returndatasize)\n    tag_133:\n      pop\n        /* \"FundFactory.sol\":1869:1972  function withdrawMoney() public onlyOwner {... */\n      jump\t// out\n        /* \"FundFactory.sol\":1773:1863  function balance() public view returns (uint256) {... */\n    tag_68:\n        /* \"FundFactory.sol\":1813:1820  uint256 */\n      0x00\n        /* \"FundFactory.sol\":1836:1857  address(this).balance */\n      selfbalance\n        /* \"FundFactory.sol\":1829:1857  return address(this).balance */\n      swap1\n      pop\n        /* \"FundFactory.sol\":1773:1863  function balance() public view returns (uint256) {... */\n      swap1\n      jump\t// out\n        /* \"FundFactory.sol\":1174:1348  function changeFundTokenPrice(uint256 _newFundTokenPrice) public onlyOwner {... */\n    tag_73:\n        /* \"@openzeppelin/contracts/access/Ownable.sol\":1094:1107   */\n      tag_136\n        /* \"@openzeppelin/contracts/access/Ownable.sol\":1094:1105   */\n      tag_121\n        /* \"@openzeppelin/contracts/access/Ownable.sol\":1094:1107   */\n      jump\t// in\n    tag_136:\n        /* \"FundFactory.sol\":1273:1291  _newFundTokenPrice */\n      dup1\n        /* \"FundFactory.sol\":1256:1270  fundTokenPrice */\n      0x02\n        /* \"FundFactory.sol\":1256:1291  fundTokenPrice = _newFundTokenPrice */\n      dup2\n      swap1\n      sstore\n      pop\n        /* \"FundFactory.sol\":1305:1342  NewFundTokenPrice(_newFundTokenPrice) */\n      0x6fa7d30ebcf61d14f9af3a7c1bac55aa0088eb2e6a1f966a94c413305a6ece38\n        /* \"FundFactory.sol\":1323:1341  _newFundTokenPrice */\n      dup2\n        /* \"FundFactory.sol\":1305:1342  NewFundTokenPrice(_newFundTokenPrice) */\n      mload(0x40)\n      tag_138\n      swap2\n      swap1\n      tag_24\n      jump\t// in\n    tag_138:\n      mload(0x40)\n      dup1\n      swap2\n      sub\n      swap1\n      log1\n        /* \"FundFactory.sol\":1174:1348  function changeFundTokenPrice(uint256 _newFundTokenPrice) public onlyOwner {... */\n      pop\n      jump\t// out\n        /* \"FundFactory.sol\":3562:3665  function getDeployedFundsCount() public view returns (uint256) {... */\n    tag_76:\n        /* \"FundFactory.sol\":3616:3623  uint256 */\n      0x00\n        /* \"FundFactory.sol\":3639:3652  deployedFunds */\n      0x03\n        /* \"FundFactory.sol\":3639:3659  deployedFunds.length */\n      dup1\n      sload\n      swap1\n      pop\n        /* \"FundFactory.sol\":3632:3659  return deployedFunds.length */\n      swap1\n      pop\n        /* \"FundFactory.sol\":3562:3665  function getDeployedFundsCount() public view returns (uint256) {... */\n      swap1\n      jump\t// out\n        /* \"@openzeppelin/contracts/access/Ownable.sol\":2081:2279   */\n    tag_82:\n        /* \"@openzeppelin/contracts/access/Ownable.sol\":1094:1107   */\n      tag_141\n        /* \"@openzeppelin/contracts/access/Ownable.sol\":1094:1105   */\n      tag_121\n        /* \"@openzeppelin/contracts/access/Ownable.sol\":1094:1107   */\n      jump\t// in\n    tag_141:\n        /* \"@openzeppelin/contracts/access/Ownable.sol\":2189:2190   */\n      0x00\n        /* \"@openzeppelin/contracts/access/Ownable.sol\":2169:2191   */\n      0xffffffffffffffffffffffffffffffffffffffff\n      and\n        /* \"@openzeppelin/contracts/access/Ownable.sol\":2169:2177   */\n      dup2\n        /* \"@openzeppelin/contracts/access/Ownable.sol\":2169:2191   */\n      0xffffffffffffffffffffffffffffffffffffffff\n      and\n      sub\n        /* \"@openzeppelin/contracts/access/Ownable.sol\":2161:2234   */\n      tag_143\n      jumpi\n      mload(0x40)\n      0x08c379a000000000000000000000000000000000000000000000000000000000\n      dup2\n      mstore\n      0x04\n      add\n      tag_144\n      swap1\n      tag_145\n      jump\t// in\n    tag_144:\n      mload(0x40)\n      dup1\n      swap2\n      sub\n      swap1\n      revert\n    tag_143:\n        /* \"@openzeppelin/contracts/access/Ownable.sol\":2244:2272   */\n      tag_146\n        /* \"@openzeppelin/contracts/access/Ownable.sol\":2263:2271   */\n      dup2\n        /* \"@openzeppelin/contracts/access/Ownable.sol\":2244:2262   */\n      tag_124\n        /* \"@openzeppelin/contracts/access/Ownable.sol\":2244:2272   */\n      jump\t// in\n    tag_146:\n        /* \"@openzeppelin/contracts/access/Ownable.sol\":2081:2279   */\n      pop\n      jump\t// out\n        /* \"FundFactory.sol\":1354:1767  function buyFundTokens(uint256 _fundTokens) public payable {... */\n    tag_85:\n        /* \"FundFactory.sol\":1442:1443  0 */\n      0x00\n        /* \"FundFactory.sol\":1428:1439  _fundTokens */\n      dup2\n        /* \"FundFactory.sol\":1428:1443  _fundTokens > 0 */\n      gt\n        /* \"FundFactory.sol\":1420:1484  require(_fundTokens > 0, \"Se debe comprar al menos 1 FundToken\") */\n      tag_148\n      jumpi\n      mload(0x40)\n      0x08c379a000000000000000000000000000000000000000000000000000000000\n      dup2\n      mstore\n      0x04\n      add\n      tag_149\n      swap1\n      tag_150\n      jump\t// in\n    tag_149:\n      mload(0x40)\n      dup1\n      swap2\n      sub\n      swap1\n      revert\n    tag_148:\n        /* \"FundFactory.sol\":1491:1514  uint256 _fundTokenPrice */\n      0x00\n        /* \"FundFactory.sol\":1517:1531  fundTokenPrice */\n      sload(0x02)\n        /* \"FundFactory.sol\":1491:1531  uint256 _fundTokenPrice = fundTokenPrice */\n      swap1\n      pop\n        /* \"FundFactory.sol\":1573:1588  _fundTokenPrice */\n      dup1\n        /* \"FundFactory.sol\":1559:1570  _fundTokens */\n      dup3\n        /* \"FundFactory.sol\":1559:1588  _fundTokens * _fundTokenPrice */\n      tag_151\n      swap2\n      swap1\n      tag_152\n      jump\t// in\n    tag_151:\n        /* \"FundFactory.sol\":1546:1555  msg.value */\n      callvalue\n        /* \"FundFactory.sol\":1546:1588  msg.value == _fundTokens * _fundTokenPrice */\n      eq\n        /* \"FundFactory.sol\":1538:1610  require(msg.value == _fundTokens * _fundTokenPrice, \"Pago insuficiente\") */\n      tag_153\n      jumpi\n      mload(0x40)\n      0x08c379a000000000000000000000000000000000000000000000000000000000\n      dup2\n      mstore\n      0x04\n      add\n      tag_154\n      swap1\n      tag_155\n      jump\t// in\n    tag_154:\n      mload(0x40)\n      dup1\n      swap2\n      sub\n      swap1\n      revert\n    tag_153:\n        /* \"FundFactory.sol\":1619:1628  fundToken */\n      immutable(\"0x789bcdf275fa270780a52ae3b79bb1ce0fda7e0aaad87b57b74bb99ac290714a\")\n        /* \"FundFactory.sol\":1619:1633  fundToken.mint */\n      0xffffffffffffffffffffffffffffffffffffffff\n      and\n      0x40c10f19\n        /* \"FundFactory.sol\":1634:1644  msg.sender */\n      caller\n        /* \"FundFactory.sol\":1646:1657  _fundTokens */\n      dup5\n        /* \"FundFactory.sol\":1619:1658  fundToken.mint(msg.sender, _fundTokens) */\n      mload(0x40)\n      dup4\n      0xffffffff\n      and\n      0xe0\n      shl\n      dup2\n      mstore\n      0x04\n      add\n      tag_156\n      swap3\n      swap2\n      swap1\n      tag_107\n      jump\t// in\n    tag_156:\n      0x00\n      mload(0x40)\n      dup1\n      dup4\n      sub\n      dup2\n      0x00\n      dup8\n      dup1\n      extcodesize\n      iszero\n      dup1\n      iszero\n      tag_157\n      jumpi\n      0x00\n      dup1\n      revert\n    tag_157:\n      pop\n      gas\n      call\n      iszero\n      dup1\n      iszero\n      tag_159\n      jumpi\n      returndatasize\n      0x00\n      dup1\n      returndatacopy\n      revert(0x00, returndatasize)\n    tag_159:\n      pop\n      pop\n      pop\n      pop\n        /* \"FundFactory.sol\":1680:1689  msg.value */\n      callvalue\n        /* \"FundFactory.sol\":1665:1676  earnedMoney */\n      0x01\n      0x00\n        /* \"FundFactory.sol\":1665:1689  earnedMoney += msg.value */\n      dup3\n      dup3\n      sload\n      tag_160\n      swap2\n      swap1\n      tag_161\n      jump\t// in\n    tag_160:\n      swap3\n      pop\n      pop\n      dup2\n      swap1\n      sstore\n      pop\n        /* \"FundFactory.sol\":1720:1730  msg.sender */\n      caller\n        /* \"FundFactory.sol\":1703:1761  FundTokensBought(msg.sender, _fundTokenPrice, _fundTokens) */\n      0xffffffffffffffffffffffffffffffffffffffff\n      and\n      0x9d3e99ee489ac621f2410b44b7354ab26cb655afbc87f3ec09d88f2b8b3dbf44\n        /* \"FundFactory.sol\":1732:1747  _fundTokenPrice */\n      dup3\n        /* \"FundFactory.sol\":1749:1760  _fundTokens */\n      dup5\n        /* \"FundFactory.sol\":1703:1761  FundTokensBought(msg.sender, _fundTokenPrice, _fundTokens) */\n      mload(0x40)\n      tag_162\n      swap3\n      swap2\n      swap1\n      tag_163\n      jump\t// in\n    tag_162:\n      mload(0x40)\n      dup1\n      swap2\n      sub\n      swap1\n      log2\n        /* \"FundFactory.sol\":1413:1767  {... */\n      pop\n        /* \"FundFactory.sol\":1354:1767  function buyFundTokens(uint256 _fundTokens) public payable {... */\n      pop\n      jump\t// out\n        /* \"@openzeppelin/contracts/access/Ownable.sol\":1359:1489   */\n    tag_121:\n        /* \"@openzeppelin/contracts/access/Ownable.sol\":1433:1445   */\n      tag_165\n        /* \"@openzeppelin/contracts/access/Ownable.sol\":1433:1443   */\n      tag_166\n        /* \"@openzeppelin/contracts/access/Ownable.sol\":1433:1445   */\n      jump\t// in\n    tag_165:\n        /* \"@openzeppelin/contracts/access/Ownable.sol\":1422:1445   */\n      0xffffffffffffffffffffffffffffffffffffffff\n      and\n        /* \"@openzeppelin/contracts/access/Ownable.sol\":1422:1429   */\n      tag_167\n        /* \"@openzeppelin/contracts/access/Ownable.sol\":1422:1427   */\n      tag_53\n        /* \"@openzeppelin/contracts/access/Ownable.sol\":1422:1429   */\n      jump\t// in\n    tag_167:\n        /* \"@openzeppelin/contracts/access/Ownable.sol\":1422:1445   */\n      0xffffffffffffffffffffffffffffffffffffffff\n      and\n      eq\n        /* \"@openzeppelin/contracts/access/Ownable.sol\":1414:1482   */\n      tag_168\n      jumpi\n      mload(0x40)\n      0x08c379a000000000000000000000000000000000000000000000000000000000\n      dup2\n      mstore\n      0x04\n      add\n      tag_169\n      swap1\n      tag_170\n      jump\t// in\n    tag_169:\n      mload(0x40)\n      dup1\n      swap2\n      sub\n      swap1\n      revert\n    tag_168:\n        /* \"@openzeppelin/contracts/access/Ownable.sol\":1359:1489   */\n      jump\t// out\n        /* \"@openzeppelin/contracts/access/Ownable.sol\":2433:2620   */\n    tag_124:\n        /* \"@openzeppelin/contracts/access/Ownable.sol\":2506:2522   */\n      0x00\n        /* \"@openzeppelin/contracts/access/Ownable.sol\":2525:2531   */\n      dup1\n      0x00\n      swap1\n      sload\n      swap1\n      0x0100\n      exp\n      swap1\n      div\n      0xffffffffffffffffffffffffffffffffffffffff\n      and\n        /* \"@openzeppelin/contracts/access/Ownable.sol\":2506:2531   */\n      swap1\n      pop\n        /* \"@openzeppelin/contracts/access/Ownable.sol\":2550:2558   */\n      dup2\n        /* \"@openzeppelin/contracts/access/Ownable.sol\":2541:2547   */\n      0x00\n      dup1\n        /* \"@openzeppelin/contracts/access/Ownable.sol\":2541:2558   */\n      0x0100\n      exp\n      dup2\n      sload\n      dup2\n      0xffffffffffffffffffffffffffffffffffffffff\n      mul\n      not\n      and\n      swap1\n      dup4\n      0xffffffffffffffffffffffffffffffffffffffff\n      and\n      mul\n      or\n      swap1\n      sstore\n      pop\n        /* \"@openzeppelin/contracts/access/Ownable.sol\":2604:2612   */\n      dup2\n        /* \"@openzeppelin/contracts/access/Ownable.sol\":2573:2613   */\n      0xffffffffffffffffffffffffffffffffffffffff\n      and\n        /* \"@openzeppelin/contracts/access/Ownable.sol\":2594:2602   */\n      dup2\n        /* \"@openzeppelin/contracts/access/Ownable.sol\":2573:2613   */\n      0xffffffffffffffffffffffffffffffffffffffff\n      and\n      0x8be0079c531659141344cd1fd0a4f28419497f9722a3daafe3b4186f6b6457e0\n      mload(0x40)\n      mload(0x40)\n      dup1\n      swap2\n      sub\n      swap1\n      log3\n        /* \"@openzeppelin/contracts/access/Ownable.sol\":2496:2620   */\n      pop\n        /* \"@openzeppelin/contracts/access/Ownable.sol\":2433:2620   */\n      pop\n      jump\t// out\n        /* \"@openzeppelin/contracts/utils/Context.sol\":640:736   */\n    tag_166:\n        /* \"@openzeppelin/contracts/utils/Context.sol\":693:700   */\n      0x00\n        /* \"@openzeppelin/contracts/utils/Context.sol\":719:729   */\n      caller\n        /* \"@openzeppelin/contracts/utils/Context.sol\":712:729   */\n      swap1\n      pop\n        /* \"@openzeppelin/contracts/utils/Context.sol\":640:736   */\n      swap1\n      jump\t// out\n    tag_112:\n      dataSize(sub_0)\n      dup1\n      dataOffset(sub_0)\n      dup4\n      codecopy\n      add\n      swap1\n      jump\t// out\n        /* \"#utility.yul\":7:84   */\n    tag_173:\n        /* \"#utility.yul\":44:51   */\n      0x00\n        /* \"#utility.yul\":73:78   */\n      dup2\n        /* \"#utility.yul\":62:78   */\n      swap1\n      pop\n        /* \"#utility.yul\":7:84   */\n      swap2\n      swap1\n      pop\n      jump\t// out\n        /* \"#utility.yul\":90:208   */\n    tag_174:\n        /* \"#utility.yul\":177:201   */\n      tag_247\n        /* \"#utility.yul\":195:200   */\n      dup2\n        /* \"#utility.yul\":177:201   */\n      tag_173\n      jump\t// in\n    tag_247:\n        /* \"#utility.yul\":172:175   */\n      dup3\n        /* \"#utility.yul\":165:202   */\n      mstore\n        /* \"#utility.yul\":90:208   */\n      pop\n      pop\n      jump\t// out\n        /* \"#utility.yul\":214:436   */\n    tag_24:\n        /* \"#utility.yul\":307:311   */\n      0x00\n        /* \"#utility.yul\":345:347   */\n      0x20\n        /* \"#utility.yul\":334:343   */\n      dup3\n        /* \"#utility.yul\":330:348   */\n      add\n        /* \"#utility.yul\":322:348   */\n      swap1\n      pop\n        /* \"#utility.yul\":358:429   */\n      tag_249\n        /* \"#utility.yul\":426:427   */\n      0x00\n        /* \"#utility.yul\":415:424   */\n      dup4\n        /* \"#utility.yul\":411:428   */\n      add\n        /* \"#utility.yul\":402:408   */\n      dup5\n        /* \"#utility.yul\":358:429   */\n      tag_174\n      jump\t// in\n    tag_249:\n        /* \"#utility.yul\":214:436   */\n      swap3\n      swap2\n      pop\n      pop\n      jump\t// out\n        /* \"#utility.yul\":442:568   */\n    tag_175:\n        /* \"#utility.yul\":479:486   */\n      0x00\n        /* \"#utility.yul\":519:561   */\n      0xffffffffffffffffffffffffffffffffffffffff\n        /* \"#utility.yul\":512:517   */\n      dup3\n        /* \"#utility.yul\":508:562   */\n      and\n        /* \"#utility.yul\":497:562   */\n      swap1\n      pop\n        /* \"#utility.yul\":442:568   */\n      swap2\n      swap1\n      pop\n      jump\t// out\n        /* \"#utility.yul\":574:634   */\n    tag_176:\n        /* \"#utility.yul\":602:605   */\n      0x00\n        /* \"#utility.yul\":623:628   */\n      dup2\n        /* \"#utility.yul\":616:628   */\n      swap1\n      pop\n        /* \"#utility.yul\":574:634   */\n      swap2\n      swap1\n      pop\n      jump\t// out\n        /* \"#utility.yul\":640:782   */\n    tag_177:\n        /* \"#utility.yul\":690:699   */\n      0x00\n        /* \"#utility.yul\":723:776   */\n      tag_253\n        /* \"#utility.yul\":741:775   */\n      tag_254\n        /* \"#utility.yul\":750:774   */\n      tag_255\n        /* \"#utility.yul\":768:773   */\n      dup5\n        /* \"#utility.yul\":750:774   */\n      tag_175\n      jump\t// in\n    tag_255:\n        /* \"#utility.yul\":741:775   */\n      tag_176\n      jump\t// in\n    tag_254:\n        /* \"#utility.yul\":723:776   */\n      tag_175\n      jump\t// in\n    tag_253:\n        /* \"#utility.yul\":710:776   */\n      swap1\n      pop\n        /* \"#utility.yul\":640:782   */\n      swap2\n      swap1\n      pop\n      jump\t// out\n        /* \"#utility.yul\":788:914   */\n    tag_178:\n        /* \"#utility.yul\":838:847   */\n      0x00\n        /* \"#utility.yul\":871:908   */\n      tag_257\n        /* \"#utility.yul\":902:907   */\n      dup3\n        /* \"#utility.yul\":871:908   */\n      tag_177\n      jump\t// in\n    tag_257:\n        /* \"#utility.yul\":858:908   */\n      swap1\n      pop\n        /* \"#utility.yul\":788:914   */\n      swap2\n      swap1\n      pop\n      jump\t// out\n        /* \"#utility.yul\":920:1064   */\n    tag_179:\n        /* \"#utility.yul\":988:997   */\n      0x00\n        /* \"#utility.yul\":1021:1058   */\n      tag_259\n        /* \"#utility.yul\":1052:1057   */\n      dup3\n        /* \"#utility.yul\":1021:1058   */\n      tag_178\n      jump\t// in\n    tag_259:\n        /* \"#utility.yul\":1008:1058   */\n      swap1\n      pop\n        /* \"#utility.yul\":920:1064   */\n      swap2\n      swap1\n      pop\n      jump\t// out\n        /* \"#utility.yul\":1070:1237   */\n    tag_180:\n        /* \"#utility.yul\":1175:1230   */\n      tag_261\n        /* \"#utility.yul\":1224:1229   */\n      dup2\n        /* \"#utility.yul\":1175:1230   */\n      tag_179\n      jump\t// in\n    tag_261:\n        /* \"#utility.yul\":1170:1173   */\n      dup3\n        /* \"#utility.yul\":1163:1231   */\n      mstore\n        /* \"#utility.yul\":1070:1237   */\n      pop\n      pop\n      jump\t// out\n        /* \"#utility.yul\":1243:1501   */\n    tag_33:\n        /* \"#utility.yul\":1354:1358   */\n      0x00\n        /* \"#utility.yul\":1392:1394   */\n      0x20\n        /* \"#utility.yul\":1381:1390   */\n      dup3\n        /* \"#utility.yul\":1377:1395   */\n      add\n        /* \"#utility.yul\":1369:1395   */\n      swap1\n      pop\n        /* \"#utility.yul\":1405:1494   */\n      tag_263\n        /* \"#utility.yul\":1491:1492   */\n      0x00\n        /* \"#utility.yul\":1480:1489   */\n      dup4\n        /* \"#utility.yul\":1476:1493   */\n      add\n        /* \"#utility.yul\":1467:1473   */\n      dup5\n        /* \"#utility.yul\":1405:1494   */\n      tag_180\n      jump\t// in\n    tag_263:\n        /* \"#utility.yul\":1243:1501   */\n      swap3\n      swap2\n      pop\n      pop\n      jump\t// out\n        /* \"#utility.yul\":1507:1634   */\n    tag_181:\n        /* \"#utility.yul\":1587:1593   */\n      0x00\n        /* \"#utility.yul\":1621:1626   */\n      dup2\n        /* \"#utility.yul\":1615:1627   */\n      mload\n        /* \"#utility.yul\":1605:1627   */\n      swap1\n      pop\n        /* \"#utility.yul\":1507:1634   */\n      swap2\n      swap1\n      pop\n      jump\t// out\n        /* \"#utility.yul\":1640:1824   */\n    tag_182:\n        /* \"#utility.yul\":1739:1750   */\n      0x00\n        /* \"#utility.yul\":1773:1779   */\n      dup3\n        /* \"#utility.yul\":1768:1771   */\n      dup3\n        /* \"#utility.yul\":1761:1780   */\n      mstore\n        /* \"#utility.yul\":1813:1817   */\n      0x20\n        /* \"#utility.yul\":1808:1811   */\n      dup3\n        /* \"#utility.yul\":1804:1818   */\n      add\n        /* \"#utility.yul\":1789:1818   */\n      swap1\n      pop\n        /* \"#utility.yul\":1640:1824   */\n      swap3\n      swap2\n      pop\n      pop\n      jump\t// out\n        /* \"#utility.yul\":1830:1975   */\n    tag_183:\n        /* \"#utility.yul\":1910:1914   */\n      0x00\n        /* \"#utility.yul\":1933:1936   */\n      dup2\n        /* \"#utility.yul\":1925:1936   */\n      swap1\n      pop\n        /* \"#utility.yul\":1963:1967   */\n      0x20\n        /* \"#utility.yul\":1958:1961   */\n      dup3\n        /* \"#utility.yul\":1954:1968   */\n      add\n        /* \"#utility.yul\":1946:1968   */\n      swap1\n      pop\n        /* \"#utility.yul\":1830:1975   */\n      swap2\n      swap1\n      pop\n      jump\t// out\n        /* \"#utility.yul\":1981:2120   */\n    tag_184:\n        /* \"#utility.yul\":2044:2053   */\n      0x00\n        /* \"#utility.yul\":2077:2114   */\n      tag_268\n        /* \"#utility.yul\":2108:2113   */\n      dup3\n        /* \"#utility.yul\":2077:2114   */\n      tag_178\n      jump\t// in\n    tag_268:\n        /* \"#utility.yul\":2064:2114   */\n      swap1\n      pop\n        /* \"#utility.yul\":1981:2120   */\n      swap2\n      swap1\n      pop\n      jump\t// out\n        /* \"#utility.yul\":2126:2273   */\n    tag_185:\n        /* \"#utility.yul\":2216:2266   */\n      tag_270\n        /* \"#utility.yul\":2260:2265   */\n      dup2\n        /* \"#utility.yul\":2216:2266   */\n      tag_184\n      jump\t// in\n    tag_270:\n        /* \"#utility.yul\":2211:2214   */\n      dup3\n        /* \"#utility.yul\":2204:2267   */\n      mstore\n        /* \"#utility.yul\":2126:2273   */\n      pop\n      pop\n      jump\t// out\n        /* \"#utility.yul\":2279:2484   */\n    tag_186:\n        /* \"#utility.yul\":2361:2371   */\n      0x00\n        /* \"#utility.yul\":2382:2441   */\n      tag_272\n        /* \"#utility.yul\":2437:2440   */\n      dup4\n        /* \"#utility.yul\":2429:2435   */\n      dup4\n        /* \"#utility.yul\":2382:2441   */\n      tag_185\n      jump\t// in\n    tag_272:\n        /* \"#utility.yul\":2473:2477   */\n      0x20\n        /* \"#utility.yul\":2468:2471   */\n      dup4\n        /* \"#utility.yul\":2464:2478   */\n      add\n        /* \"#utility.yul\":2450:2478   */\n      swap1\n      pop\n        /* \"#utility.yul\":2279:2484   */\n      swap3\n      swap2\n      pop\n      pop\n      jump\t// out\n        /* \"#utility.yul\":2490:2616   */\n    tag_187:\n        /* \"#utility.yul\":2573:2577   */\n      0x00\n        /* \"#utility.yul\":2605:2609   */\n      0x20\n        /* \"#utility.yul\":2600:2603   */\n      dup3\n        /* \"#utility.yul\":2596:2610   */\n      add\n        /* \"#utility.yul\":2588:2610   */\n      swap1\n      pop\n        /* \"#utility.yul\":2490:2616   */\n      swap2\n      swap1\n      pop\n      jump\t// out\n        /* \"#utility.yul\":2658:3455   */\n    tag_188:\n        /* \"#utility.yul\":2790:2793   */\n      0x00\n        /* \"#utility.yul\":2819:2886   */\n      tag_275\n        /* \"#utility.yul\":2880:2885   */\n      dup3\n        /* \"#utility.yul\":2819:2886   */\n      tag_181\n      jump\t// in\n    tag_275:\n        /* \"#utility.yul\":2902:2988   */\n      tag_276\n        /* \"#utility.yul\":2981:2987   */\n      dup2\n        /* \"#utility.yul\":2976:2979   */\n      dup6\n        /* \"#utility.yul\":2902:2988   */\n      tag_182\n      jump\t// in\n    tag_276:\n        /* \"#utility.yul\":2895:2988   */\n      swap4\n      pop\n        /* \"#utility.yul\":3012:3081   */\n      tag_277\n        /* \"#utility.yul\":3075:3080   */\n      dup4\n        /* \"#utility.yul\":3012:3081   */\n      tag_183\n      jump\t// in\n    tag_277:\n        /* \"#utility.yul\":3104:3111   */\n      dup1\n        /* \"#utility.yul\":3135:3136   */\n      0x00\n        /* \"#utility.yul\":3120:3430   */\n    tag_278:\n        /* \"#utility.yul\":3145:3151   */\n      dup4\n        /* \"#utility.yul\":3142:3143   */\n      dup2\n        /* \"#utility.yul\":3139:3152   */\n      lt\n        /* \"#utility.yul\":3120:3430   */\n      iszero\n      tag_280\n      jumpi\n        /* \"#utility.yul\":3221:3227   */\n      dup2\n        /* \"#utility.yul\":3215:3228   */\n      mload\n        /* \"#utility.yul\":3248:3324   */\n      tag_281\n        /* \"#utility.yul\":3320:3323   */\n      dup9\n        /* \"#utility.yul\":3305:3318   */\n      dup3\n        /* \"#utility.yul\":3248:3324   */\n      tag_186\n      jump\t// in\n    tag_281:\n        /* \"#utility.yul\":3241:3324   */\n      swap8\n      pop\n        /* \"#utility.yul\":3347:3420   */\n      tag_282\n        /* \"#utility.yul\":3413:3419   */\n      dup4\n        /* \"#utility.yul\":3347:3420   */\n      tag_187\n      jump\t// in\n    tag_282:\n        /* \"#utility.yul\":3337:3420   */\n      swap3\n      pop\n        /* \"#utility.yul\":3180:3430   */\n      pop\n        /* \"#utility.yul\":3167:3168   */\n      0x01\n        /* \"#utility.yul\":3164:3165   */\n      dup2\n        /* \"#utility.yul\":3160:3169   */\n      add\n        /* \"#utility.yul\":3155:3169   */\n      swap1\n      pop\n        /* \"#utility.yul\":3120:3430   */\n      jump(tag_278)\n    tag_280:\n        /* \"#utility.yul\":3124:3138   */\n      pop\n        /* \"#utility.yul\":3446:3449   */\n      dup6\n        /* \"#utility.yul\":3439:3449   */\n      swap4\n      pop\n        /* \"#utility.yul\":2795:3455   */\n      pop\n      pop\n      pop\n        /* \"#utility.yul\":2658:3455   */\n      swap3\n      swap2\n      pop\n      pop\n      jump\t// out\n        /* \"#utility.yul\":3461:3860   */\n    tag_38:\n        /* \"#utility.yul\":3617:3621   */\n      0x00\n        /* \"#utility.yul\":3655:3657   */\n      0x20\n        /* \"#utility.yul\":3644:3653   */\n      dup3\n        /* \"#utility.yul\":3640:3658   */\n      add\n        /* \"#utility.yul\":3632:3658   */\n      swap1\n      pop\n        /* \"#utility.yul\":3704:3713   */\n      dup2\n        /* \"#utility.yul\":3698:3702   */\n      dup2\n        /* \"#utility.yul\":3694:3714   */\n      sub\n        /* \"#utility.yul\":3690:3691   */\n      0x00\n        /* \"#utility.yul\":3679:3688   */\n      dup4\n        /* \"#utility.yul\":3675:3692   */\n      add\n        /* \"#utility.yul\":3668:3715   */\n      mstore\n        /* \"#utility.yul\":3732:3853   */\n      tag_284\n        /* \"#utility.yul\":3848:3852   */\n      dup2\n        /* \"#utility.yul\":3839:3845   */\n      dup5\n        /* \"#utility.yul\":3732:3853   */\n      tag_188\n      jump\t// in\n    tag_284:\n        /* \"#utility.yul\":3724:3853   */\n      swap1\n      pop\n        /* \"#utility.yul\":3461:3860   */\n      swap3\n      swap2\n      pop\n      pop\n      jump\t// out\n        /* \"#utility.yul\":3866:3941   */\n    tag_189:\n        /* \"#utility.yul\":3899:3905   */\n      0x00\n        /* \"#utility.yul\":3932:3934   */\n      0x40\n        /* \"#utility.yul\":3926:3935   */\n      mload\n        /* \"#utility.yul\":3916:3935   */\n      swap1\n      pop\n        /* \"#utility.yul\":3866:3941   */\n      swap1\n      jump\t// out\n        /* \"#utility.yul\":3947:4064   */\n    tag_190:\n        /* \"#utility.yul\":4056:4057   */\n      0x00\n        /* \"#utility.yul\":4053:4054   */\n      dup1\n        /* \"#utility.yul\":4046:4058   */\n      revert\n        /* \"#utility.yul\":4070:4187   */\n    tag_191:\n        /* \"#utility.yul\":4179:4180   */\n      0x00\n        /* \"#utility.yul\":4176:4177   */\n      dup1\n        /* \"#utility.yul\":4169:4181   */\n      revert\n        /* \"#utility.yul\":4193:4310   */\n    tag_192:\n        /* \"#utility.yul\":4302:4303   */\n      0x00\n        /* \"#utility.yul\":4299:4300   */\n      dup1\n        /* \"#utility.yul\":4292:4304   */\n      revert\n        /* \"#utility.yul\":4316:4433   */\n    tag_193:\n        /* \"#utility.yul\":4425:4426   */\n      0x00\n        /* \"#utility.yul\":4422:4423   */\n      dup1\n        /* \"#utility.yul\":4415:4427   */\n      revert\n        /* \"#utility.yul\":4439:4541   */\n    tag_194:\n        /* \"#utility.yul\":4480:4486   */\n      0x00\n        /* \"#utility.yul\":4531:4533   */\n      0x1f\n        /* \"#utility.yul\":4527:4534   */\n      not\n        /* \"#utility.yul\":4522:4524   */\n      0x1f\n        /* \"#utility.yul\":4515:4520   */\n      dup4\n        /* \"#utility.yul\":4511:4525   */\n      add\n        /* \"#utility.yul\":4507:4535   */\n      and\n        /* \"#utility.yul\":4497:4535   */\n      swap1\n      pop\n        /* \"#utility.yul\":4439:4541   */\n      swap2\n      swap1\n      pop\n      jump\t// out\n        /* \"#utility.yul\":4547:4727   */\n    tag_195:\n        /* \"#utility.yul\":4595:4672   */\n      0x4e487b7100000000000000000000000000000000000000000000000000000000\n        /* \"#utility.yul\":4592:4593   */\n      0x00\n        /* \"#utility.yul\":4585:4673   */\n      mstore\n        /* \"#utility.yul\":4692:4696   */\n      0x41\n        /* \"#utility.yul\":4689:4690   */\n      0x04\n        /* \"#utility.yul\":4682:4697   */\n      mstore\n        /* \"#utility.yul\":4716:4720   */\n      0x24\n        /* \"#utility.yul\":4713:4714   */\n      0x00\n        /* \"#utility.yul\":4706:4721   */\n      revert\n        /* \"#utility.yul\":4733:5014   */\n    tag_196:\n        /* \"#utility.yul\":4816:4843   */\n      tag_293\n        /* \"#utility.yul\":4838:4842   */\n      dup3\n        /* \"#utility.yul\":4816:4843   */\n      tag_194\n      jump\t// in\n    tag_293:\n        /* \"#utility.yul\":4808:4814   */\n      dup2\n        /* \"#utility.yul\":4804:4844   */\n      add\n        /* \"#utility.yul\":4946:4952   */\n      dup2\n        /* \"#utility.yul\":4934:4944   */\n      dup2\n        /* \"#utility.yul\":4931:4953   */\n      lt\n        /* \"#utility.yul\":4910:4928   */\n      0xffffffffffffffff\n        /* \"#utility.yul\":4898:4908   */\n      dup3\n        /* \"#utility.yul\":4895:4929   */\n      gt\n        /* \"#utility.yul\":4892:4954   */\n      or\n        /* \"#utility.yul\":4889:4977   */\n      iszero\n      tag_294\n      jumpi\n        /* \"#utility.yul\":4957:4975   */\n      tag_295\n      tag_195\n      jump\t// in\n    tag_295:\n        /* \"#utility.yul\":4889:4977   */\n    tag_294:\n        /* \"#utility.yul\":4997:5007   */\n      dup1\n        /* \"#utility.yul\":4993:4995   */\n      0x40\n        /* \"#utility.yul\":4986:5008   */\n      mstore\n        /* \"#utility.yul\":4776:5014   */\n      pop\n        /* \"#utility.yul\":4733:5014   */\n      pop\n      pop\n      jump\t// out\n        /* \"#utility.yul\":5020:5149   */\n    tag_197:\n        /* \"#utility.yul\":5054:5060   */\n      0x00\n        /* \"#utility.yul\":5081:5101   */\n      tag_297\n      tag_189\n      jump\t// in\n    tag_297:\n        /* \"#utility.yul\":5071:5101   */\n      swap1\n      pop\n        /* \"#utility.yul\":5110:5143   */\n      tag_298\n        /* \"#utility.yul\":5138:5142   */\n      dup3\n        /* \"#utility.yul\":5130:5136   */\n      dup3\n        /* \"#utility.yul\":5110:5143   */\n      tag_196\n      jump\t// in\n    tag_298:\n        /* \"#utility.yul\":5020:5149   */\n      swap2\n      swap1\n      pop\n      jump\t// out\n        /* \"#utility.yul\":5155:5463   */\n    tag_198:\n        /* \"#utility.yul\":5217:5221   */\n      0x00\n        /* \"#utility.yul\":5307:5325   */\n      0xffffffffffffffff\n        /* \"#utility.yul\":5299:5305   */\n      dup3\n        /* \"#utility.yul\":5296:5326   */\n      gt\n        /* \"#utility.yul\":5293:5349   */\n      iszero\n      tag_300\n      jumpi\n        /* \"#utility.yul\":5329:5347   */\n      tag_301\n      tag_195\n      jump\t// in\n    tag_301:\n        /* \"#utility.yul\":5293:5349   */\n    tag_300:\n        /* \"#utility.yul\":5367:5396   */\n      tag_302\n        /* \"#utility.yul\":5389:5395   */\n      dup3\n        /* \"#utility.yul\":5367:5396   */\n      tag_194\n      jump\t// in\n    tag_302:\n        /* \"#utility.yul\":5359:5396   */\n      swap1\n      pop\n        /* \"#utility.yul\":5451:5455   */\n      0x20\n        /* \"#utility.yul\":5445:5449   */\n      dup2\n        /* \"#utility.yul\":5441:5456   */\n      add\n        /* \"#utility.yul\":5433:5456   */\n      swap1\n      pop\n        /* \"#utility.yul\":5155:5463   */\n      swap2\n      swap1\n      pop\n      jump\t// out\n        /* \"#utility.yul\":5469:5615   */\n    tag_199:\n        /* \"#utility.yul\":5566:5572   */\n      dup3\n        /* \"#utility.yul\":5561:5564   */\n      dup2\n        /* \"#utility.yul\":5556:5559   */\n      dup4\n        /* \"#utility.yul\":5543:5573   */\n      calldatacopy\n        /* \"#utility.yul\":5607:5608   */\n      0x00\n        /* \"#utility.yul\":5598:5604   */\n      dup4\n        /* \"#utility.yul\":5593:5596   */\n      dup4\n        /* \"#utility.yul\":5589:5605   */\n      add\n        /* \"#utility.yul\":5582:5609   */\n      mstore\n        /* \"#utility.yul\":5469:5615   */\n      pop\n      pop\n      pop\n      jump\t// out\n        /* \"#utility.yul\":5621:6046   */\n    tag_200:\n        /* \"#utility.yul\":5699:5704   */\n      0x00\n        /* \"#utility.yul\":5724:5790   */\n      tag_305\n        /* \"#utility.yul\":5740:5789   */\n      tag_306\n        /* \"#utility.yul\":5782:5788   */\n      dup5\n        /* \"#utility.yul\":5740:5789   */\n      tag_198\n      jump\t// in\n    tag_306:\n        /* \"#utility.yul\":5724:5790   */\n      tag_197\n      jump\t// in\n    tag_305:\n        /* \"#utility.yul\":5715:5790   */\n      swap1\n      pop\n        /* \"#utility.yul\":5813:5819   */\n      dup3\n        /* \"#utility.yul\":5806:5811   */\n      dup2\n        /* \"#utility.yul\":5799:5820   */\n      mstore\n        /* \"#utility.yul\":5851:5855   */\n      0x20\n        /* \"#utility.yul\":5844:5849   */\n      dup2\n        /* \"#utility.yul\":5840:5856   */\n      add\n        /* \"#utility.yul\":5889:5892   */\n      dup5\n        /* \"#utility.yul\":5880:5886   */\n      dup5\n        /* \"#utility.yul\":5875:5878   */\n      dup5\n        /* \"#utility.yul\":5871:5887   */\n      add\n        /* \"#utility.yul\":5868:5893   */\n      gt\n        /* \"#utility.yul\":5865:5977   */\n      iszero\n      tag_307\n      jumpi\n        /* \"#utility.yul\":5896:5975   */\n      tag_308\n      tag_193\n      jump\t// in\n    tag_308:\n        /* \"#utility.yul\":5865:5977   */\n    tag_307:\n        /* \"#utility.yul\":5986:6040   */\n      tag_309\n        /* \"#utility.yul\":6033:6039   */\n      dup5\n        /* \"#utility.yul\":6028:6031   */\n      dup3\n        /* \"#utility.yul\":6023:6026   */\n      dup6\n        /* \"#utility.yul\":5986:6040   */\n      tag_199\n      jump\t// in\n    tag_309:\n        /* \"#utility.yul\":5705:6046   */\n      pop\n        /* \"#utility.yul\":5621:6046   */\n      swap4\n      swap3\n      pop\n      pop\n      pop\n      jump\t// out\n        /* \"#utility.yul\":6066:6406   */\n    tag_201:\n        /* \"#utility.yul\":6122:6127   */\n      0x00\n        /* \"#utility.yul\":6171:6174   */\n      dup3\n        /* \"#utility.yul\":6164:6168   */\n      0x1f\n        /* \"#utility.yul\":6156:6162   */\n      dup4\n        /* \"#utility.yul\":6152:6169   */\n      add\n        /* \"#utility.yul\":6148:6175   */\n      slt\n        /* \"#utility.yul\":6138:6260   */\n      tag_311\n      jumpi\n        /* \"#utility.yul\":6179:6258   */\n      tag_312\n      tag_192\n      jump\t// in\n    tag_312:\n        /* \"#utility.yul\":6138:6260   */\n    tag_311:\n        /* \"#utility.yul\":6296:6302   */\n      dup2\n        /* \"#utility.yul\":6283:6303   */\n      calldataload\n        /* \"#utility.yul\":6321:6400   */\n      tag_313\n        /* \"#utility.yul\":6396:6399   */\n      dup5\n        /* \"#utility.yul\":6388:6394   */\n      dup3\n        /* \"#utility.yul\":6381:6385   */\n      0x20\n        /* \"#utility.yul\":6373:6379   */\n      dup7\n        /* \"#utility.yul\":6369:6386   */\n      add\n        /* \"#utility.yul\":6321:6400   */\n      tag_200\n      jump\t// in\n    tag_313:\n        /* \"#utility.yul\":6312:6400   */\n      swap2\n      pop\n        /* \"#utility.yul\":6128:6406   */\n      pop\n        /* \"#utility.yul\":6066:6406   */\n      swap3\n      swap2\n      pop\n      pop\n      jump\t// out\n        /* \"#utility.yul\":6412:6723   */\n    tag_202:\n        /* \"#utility.yul\":6489:6493   */\n      0x00\n        /* \"#utility.yul\":6579:6597   */\n      0xffffffffffffffff\n        /* \"#utility.yul\":6571:6577   */\n      dup3\n        /* \"#utility.yul\":6568:6598   */\n      gt\n        /* \"#utility.yul\":6565:6621   */\n      iszero\n      tag_315\n      jumpi\n        /* \"#utility.yul\":6601:6619   */\n      tag_316\n      tag_195\n      jump\t// in\n    tag_316:\n        /* \"#utility.yul\":6565:6621   */\n    tag_315:\n        /* \"#utility.yul\":6651:6655   */\n      0x20\n        /* \"#utility.yul\":6643:6649   */\n      dup3\n        /* \"#utility.yul\":6639:6656   */\n      mul\n        /* \"#utility.yul\":6631:6656   */\n      swap1\n      pop\n        /* \"#utility.yul\":6711:6715   */\n      0x20\n        /* \"#utility.yul\":6705:6709   */\n      dup2\n        /* \"#utility.yul\":6701:6716   */\n      add\n        /* \"#utility.yul\":6693:6716   */\n      swap1\n      pop\n        /* \"#utility.yul\":6412:6723   */\n      swap2\n      swap1\n      pop\n      jump\t// out\n        /* \"#utility.yul\":6729:6846   */\n    tag_203:\n        /* \"#utility.yul\":6838:6839   */\n      0x00\n        /* \"#utility.yul\":6835:6836   */\n      dup1\n        /* \"#utility.yul\":6828:6840   */\n      revert\n        /* \"#utility.yul\":6852:6948   */\n    tag_204:\n        /* \"#utility.yul\":6889:6896   */\n      0x00\n        /* \"#utility.yul\":6918:6942   */\n      tag_319\n        /* \"#utility.yul\":6936:6941   */\n      dup3\n        /* \"#utility.yul\":6918:6942   */\n      tag_175\n      jump\t// in\n    tag_319:\n        /* \"#utility.yul\":6907:6942   */\n      swap1\n      pop\n        /* \"#utility.yul\":6852:6948   */\n      swap2\n      swap1\n      pop\n      jump\t// out\n        /* \"#utility.yul\":6954:7076   */\n    tag_205:\n        /* \"#utility.yul\":7027:7051   */\n      tag_321\n        /* \"#utility.yul\":7045:7050   */\n      dup2\n        /* \"#utility.yul\":7027:7051   */\n      tag_204\n      jump\t// in\n    tag_321:\n        /* \"#utility.yul\":7020:7025   */\n      dup2\n        /* \"#utility.yul\":7017:7052   */\n      eq\n        /* \"#utility.yul\":7007:7070   */\n      tag_322\n      jumpi\n        /* \"#utility.yul\":7066:7067   */\n      0x00\n        /* \"#utility.yul\":7063:7064   */\n      dup1\n        /* \"#utility.yul\":7056:7068   */\n      revert\n        /* \"#utility.yul\":7007:7070   */\n    tag_322:\n        /* \"#utility.yul\":6954:7076   */\n      pop\n      jump\t// out\n        /* \"#utility.yul\":7082:7221   */\n    tag_206:\n        /* \"#utility.yul\":7128:7133   */\n      0x00\n        /* \"#utility.yul\":7166:7172   */\n      dup2\n        /* \"#utility.yul\":7153:7173   */\n      calldataload\n        /* \"#utility.yul\":7144:7173   */\n      swap1\n      pop\n        /* \"#utility.yul\":7182:7215   */\n      tag_324\n        /* \"#utility.yul\":7209:7214   */\n      dup2\n        /* \"#utility.yul\":7182:7215   */\n      tag_205\n      jump\t// in\n    tag_324:\n        /* \"#utility.yul\":7082:7221   */\n      swap3\n      swap2\n      pop\n      pop\n      jump\t// out\n        /* \"#utility.yul\":7244:7954   */\n    tag_207:\n        /* \"#utility.yul\":7340:7345   */\n      0x00\n        /* \"#utility.yul\":7365:7446   */\n      tag_326\n        /* \"#utility.yul\":7381:7445   */\n      tag_327\n        /* \"#utility.yul\":7438:7444   */\n      dup5\n        /* \"#utility.yul\":7381:7445   */\n      tag_202\n      jump\t// in\n    tag_327:\n        /* \"#utility.yul\":7365:7446   */\n      tag_197\n      jump\t// in\n    tag_326:\n        /* \"#utility.yul\":7356:7446   */\n      swap1\n      pop\n        /* \"#utility.yul\":7466:7471   */\n      dup1\n        /* \"#utility.yul\":7495:7501   */\n      dup4\n        /* \"#utility.yul\":7488:7493   */\n      dup3\n        /* \"#utility.yul\":7481:7502   */\n      mstore\n        /* \"#utility.yul\":7529:7533   */\n      0x20\n        /* \"#utility.yul\":7522:7527   */\n      dup3\n        /* \"#utility.yul\":7518:7534   */\n      add\n        /* \"#utility.yul\":7511:7534   */\n      swap1\n      pop\n        /* \"#utility.yul\":7582:7586   */\n      0x20\n        /* \"#utility.yul\":7574:7580   */\n      dup5\n        /* \"#utility.yul\":7570:7587   */\n      mul\n        /* \"#utility.yul\":7562:7568   */\n      dup4\n        /* \"#utility.yul\":7558:7588   */\n      add\n        /* \"#utility.yul\":7611:7614   */\n      dup6\n        /* \"#utility.yul\":7603:7609   */\n      dup2\n        /* \"#utility.yul\":7600:7615   */\n      gt\n        /* \"#utility.yul\":7597:7719   */\n      iszero\n      tag_328\n      jumpi\n        /* \"#utility.yul\":7630:7709   */\n      tag_329\n      tag_203\n      jump\t// in\n    tag_329:\n        /* \"#utility.yul\":7597:7719   */\n    tag_328:\n        /* \"#utility.yul\":7745:7751   */\n      dup4\n        /* \"#utility.yul\":7728:7948   */\n    tag_330:\n        /* \"#utility.yul\":7762:7768   */\n      dup2\n        /* \"#utility.yul\":7757:7760   */\n      dup2\n        /* \"#utility.yul\":7754:7769   */\n      lt\n        /* \"#utility.yul\":7728:7948   */\n      iszero\n      tag_332\n      jumpi\n        /* \"#utility.yul\":7837:7840   */\n      dup1\n        /* \"#utility.yul\":7866:7903   */\n      tag_333\n        /* \"#utility.yul\":7899:7902   */\n      dup9\n        /* \"#utility.yul\":7887:7897   */\n      dup3\n        /* \"#utility.yul\":7866:7903   */\n      tag_206\n      jump\t// in\n    tag_333:\n        /* \"#utility.yul\":7861:7864   */\n      dup5\n        /* \"#utility.yul\":7854:7904   */\n      mstore\n        /* \"#utility.yul\":7933:7937   */\n      0x20\n        /* \"#utility.yul\":7928:7931   */\n      dup5\n        /* \"#utility.yul\":7924:7938   */\n      add\n        /* \"#utility.yul\":7917:7938   */\n      swap4\n      pop\n        /* \"#utility.yul\":7804:7948   */\n      pop\n        /* \"#utility.yul\":7788:7792   */\n      0x20\n        /* \"#utility.yul\":7783:7786   */\n      dup2\n        /* \"#utility.yul\":7779:7793   */\n      add\n        /* \"#utility.yul\":7772:7793   */\n      swap1\n      pop\n        /* \"#utility.yul\":7728:7948   */\n      jump(tag_330)\n    tag_332:\n        /* \"#utility.yul\":7732:7753   */\n      pop\n        /* \"#utility.yul\":7346:7954   */\n      pop\n      pop\n        /* \"#utility.yul\":7244:7954   */\n      swap4\n      swap3\n      pop\n      pop\n      pop\n      jump\t// out\n        /* \"#utility.yul\":7977:8347   */\n    tag_208:\n        /* \"#utility.yul\":8048:8053   */\n      0x00\n        /* \"#utility.yul\":8097:8100   */\n      dup3\n        /* \"#utility.yul\":8090:8094   */\n      0x1f\n        /* \"#utility.yul\":8082:8088   */\n      dup4\n        /* \"#utility.yul\":8078:8095   */\n      add\n        /* \"#utility.yul\":8074:8101   */\n      slt\n        /* \"#utility.yul\":8064:8186   */\n      tag_335\n      jumpi\n        /* \"#utility.yul\":8105:8184   */\n      tag_336\n      tag_192\n      jump\t// in\n    tag_336:\n        /* \"#utility.yul\":8064:8186   */\n    tag_335:\n        /* \"#utility.yul\":8222:8228   */\n      dup2\n        /* \"#utility.yul\":8209:8229   */\n      calldataload\n        /* \"#utility.yul\":8247:8341   */\n      tag_337\n        /* \"#utility.yul\":8337:8340   */\n      dup5\n        /* \"#utility.yul\":8329:8335   */\n      dup3\n        /* \"#utility.yul\":8322:8326   */\n      0x20\n        /* \"#utility.yul\":8314:8320   */\n      dup7\n        /* \"#utility.yul\":8310:8327   */\n      add\n        /* \"#utility.yul\":8247:8341   */\n      tag_207\n      jump\t// in\n    tag_337:\n        /* \"#utility.yul\":8238:8341   */\n      swap2\n      pop\n        /* \"#utility.yul\":8054:8347   */\n      pop\n        /* \"#utility.yul\":7977:8347   */\n      swap3\n      swap2\n      pop\n      pop\n      jump\t// out\n        /* \"#utility.yul\":8353:8443   */\n    tag_209:\n        /* \"#utility.yul\":8387:8394   */\n      0x00\n        /* \"#utility.yul\":8430:8435   */\n      dup2\n        /* \"#utility.yul\":8423:8436   */\n      iszero\n        /* \"#utility.yul\":8416:8437   */\n      iszero\n        /* \"#utility.yul\":8405:8437   */\n      swap1\n      pop\n        /* \"#utility.yul\":8353:8443   */\n      swap2\n      swap1\n      pop\n      jump\t// out\n        /* \"#utility.yul\":8449:8565   */\n    tag_210:\n        /* \"#utility.yul\":8519:8540   */\n      tag_340\n        /* \"#utility.yul\":8534:8539   */\n      dup2\n        /* \"#utility.yul\":8519:8540   */\n      tag_209\n      jump\t// in\n    tag_340:\n        /* \"#utility.yul\":8512:8517   */\n      dup2\n        /* \"#utility.yul\":8509:8541   */\n      eq\n        /* \"#utility.yul\":8499:8559   */\n      tag_341\n      jumpi\n        /* \"#utility.yul\":8555:8556   */\n      0x00\n        /* \"#utility.yul\":8552:8553   */\n      dup1\n        /* \"#utility.yul\":8545:8557   */\n      revert\n        /* \"#utility.yul\":8499:8559   */\n    tag_341:\n        /* \"#utility.yul\":8449:8565   */\n      pop\n      jump\t// out\n        /* \"#utility.yul\":8571:8704   */\n    tag_211:\n        /* \"#utility.yul\":8614:8619   */\n      0x00\n        /* \"#utility.yul\":8652:8658   */\n      dup2\n        /* \"#utility.yul\":8639:8659   */\n      calldataload\n        /* \"#utility.yul\":8630:8659   */\n      swap1\n      pop\n        /* \"#utility.yul\":8668:8698   */\n      tag_343\n        /* \"#utility.yul\":8692:8697   */\n      dup2\n        /* \"#utility.yul\":8668:8698   */\n      tag_210\n      jump\t// in\n    tag_343:\n        /* \"#utility.yul\":8571:8704   */\n      swap3\n      swap2\n      pop\n      pop\n      jump\t// out\n        /* \"#utility.yul\":8710:8832   */\n    tag_212:\n        /* \"#utility.yul\":8783:8807   */\n      tag_345\n        /* \"#utility.yul\":8801:8806   */\n      dup2\n        /* \"#utility.yul\":8783:8807   */\n      tag_173\n      jump\t// in\n    tag_345:\n        /* \"#utility.yul\":8776:8781   */\n      dup2\n        /* \"#utility.yul\":8773:8808   */\n      eq\n        /* \"#utility.yul\":8763:8826   */\n      tag_346\n      jumpi\n        /* \"#utility.yul\":8822:8823   */\n      0x00\n        /* \"#utility.yul\":8819:8820   */\n      dup1\n        /* \"#utility.yul\":8812:8824   */\n      revert\n        /* \"#utility.yul\":8763:8826   */\n    tag_346:\n        /* \"#utility.yul\":8710:8832   */\n      pop\n      jump\t// out\n        /* \"#utility.yul\":8838:8977   */\n    tag_213:\n        /* \"#utility.yul\":8884:8889   */\n      0x00\n        /* \"#utility.yul\":8922:8928   */\n      dup2\n        /* \"#utility.yul\":8909:8929   */\n      calldataload\n        /* \"#utility.yul\":8900:8929   */\n      swap1\n      pop\n        /* \"#utility.yul\":8938:8971   */\n      tag_348\n        /* \"#utility.yul\":8965:8970   */\n      dup2\n        /* \"#utility.yul\":8938:8971   */\n      tag_212\n      jump\t// in\n    tag_348:\n        /* \"#utility.yul\":8838:8977   */\n      swap3\n      swap2\n      pop\n      pop\n      jump\t// out\n        /* \"#utility.yul\":8983:10838   */\n    tag_46:\n        /* \"#utility.yul\":9134:9140   */\n      0x00\n        /* \"#utility.yul\":9142:9148   */\n      dup1\n        /* \"#utility.yul\":9150:9156   */\n      0x00\n        /* \"#utility.yul\":9158:9164   */\n      dup1\n        /* \"#utility.yul\":9166:9172   */\n      0x00\n        /* \"#utility.yul\":9174:9180   */\n      dup1\n        /* \"#utility.yul\":9182:9188   */\n      0x00\n        /* \"#utility.yul\":9190:9196   */\n      dup1\n        /* \"#utility.yul\":9198:9204   */\n      0x00\n        /* \"#utility.yul\":9247:9250   */\n      0x0120\n        /* \"#utility.yul\":9235:9244   */\n      dup11\n        /* \"#utility.yul\":9226:9233   */\n      dup13\n        /* \"#utility.yul\":9222:9245   */\n      sub\n        /* \"#utility.yul\":9218:9251   */\n      slt\n        /* \"#utility.yul\":9215:9335   */\n      iszero\n      tag_350\n      jumpi\n        /* \"#utility.yul\":9254:9333   */\n      tag_351\n      tag_190\n      jump\t// in\n    tag_351:\n        /* \"#utility.yul\":9215:9335   */\n    tag_350:\n        /* \"#utility.yul\":9402:9403   */\n      0x00\n        /* \"#utility.yul\":9391:9400   */\n      dup11\n        /* \"#utility.yul\":9387:9404   */\n      add\n        /* \"#utility.yul\":9374:9405   */\n      calldataload\n        /* \"#utility.yul\":9432:9450   */\n      0xffffffffffffffff\n        /* \"#utility.yul\":9424:9430   */\n      dup2\n        /* \"#utility.yul\":9421:9451   */\n      gt\n        /* \"#utility.yul\":9418:9535   */\n      iszero\n      tag_352\n      jumpi\n        /* \"#utility.yul\":9454:9533   */\n      tag_353\n      tag_191\n      jump\t// in\n    tag_353:\n        /* \"#utility.yul\":9418:9535   */\n    tag_352:\n        /* \"#utility.yul\":9559:9622   */\n      tag_354\n        /* \"#utility.yul\":9614:9621   */\n      dup13\n        /* \"#utility.yul\":9605:9611   */\n      dup3\n        /* \"#utility.yul\":9594:9603   */\n      dup14\n        /* \"#utility.yul\":9590:9612   */\n      add\n        /* \"#utility.yul\":9559:9622   */\n      tag_201\n      jump\t// in\n    tag_354:\n        /* \"#utility.yul\":9549:9622   */\n      swap10\n      pop\n        /* \"#utility.yul\":9345:9632   */\n      pop\n        /* \"#utility.yul\":9699:9701   */\n      0x20\n        /* \"#utility.yul\":9688:9697   */\n      dup11\n        /* \"#utility.yul\":9684:9702   */\n      add\n        /* \"#utility.yul\":9671:9703   */\n      calldataload\n        /* \"#utility.yul\":9730:9748   */\n      0xffffffffffffffff\n        /* \"#utility.yul\":9722:9728   */\n      dup2\n        /* \"#utility.yul\":9719:9749   */\n      gt\n        /* \"#utility.yul\":9716:9833   */\n      iszero\n      tag_355\n      jumpi\n        /* \"#utility.yul\":9752:9831   */\n      tag_356\n      tag_191\n      jump\t// in\n    tag_356:\n        /* \"#utility.yul\":9716:9833   */\n    tag_355:\n        /* \"#utility.yul\":9857:9935   */\n      tag_357\n        /* \"#utility.yul\":9927:9934   */\n      dup13\n        /* \"#utility.yul\":9918:9924   */\n      dup3\n        /* \"#utility.yul\":9907:9916   */\n      dup14\n        /* \"#utility.yul\":9903:9925   */\n      add\n        /* \"#utility.yul\":9857:9935   */\n      tag_208\n      jump\t// in\n    tag_357:\n        /* \"#utility.yul\":9847:9935   */\n      swap9\n      pop\n        /* \"#utility.yul\":9642:9945   */\n      pop\n        /* \"#utility.yul\":9984:9986   */\n      0x40\n        /* \"#utility.yul\":10010:10060   */\n      tag_358\n        /* \"#utility.yul\":10052:10059   */\n      dup13\n        /* \"#utility.yul\":10043:10049   */\n      dup3\n        /* \"#utility.yul\":10032:10041   */\n      dup14\n        /* \"#utility.yul\":10028:10050   */\n      add\n        /* \"#utility.yul\":10010:10060   */\n      tag_211\n      jump\t// in\n    tag_358:\n        /* \"#utility.yul\":10000:10060   */\n      swap8\n      pop\n        /* \"#utility.yul\":9955:10070   */\n      pop\n        /* \"#utility.yul\":10109:10111   */\n      0x60\n        /* \"#utility.yul\":10135:10185   */\n      tag_359\n        /* \"#utility.yul\":10177:10184   */\n      dup13\n        /* \"#utility.yul\":10168:10174   */\n      dup3\n        /* \"#utility.yul\":10157:10166   */\n      dup14\n        /* \"#utility.yul\":10153:10175   */\n      add\n        /* \"#utility.yul\":10135:10185   */\n      tag_211\n      jump\t// in\n    tag_359:\n        /* \"#utility.yul\":10125:10185   */\n      swap7\n      pop\n        /* \"#utility.yul\":10080:10195   */\n      pop\n        /* \"#utility.yul\":10234:10237   */\n      0x80\n        /* \"#utility.yul\":10261:10311   */\n      tag_360\n        /* \"#utility.yul\":10303:10310   */\n      dup13\n        /* \"#utility.yul\":10294:10300   */\n      dup3\n        /* \"#utility.yul\":10283:10292   */\n      dup14\n        /* \"#utility.yul\":10279:10301   */\n      add\n        /* \"#utility.yul\":10261:10311   */\n      tag_211\n      jump\t// in\n    tag_360:\n        /* \"#utility.yul\":10251:10311   */\n      swap6\n      pop\n        /* \"#utility.yul\":10205:10321   */\n      pop\n        /* \"#utility.yul\":10360:10363   */\n      0xa0\n        /* \"#utility.yul\":10387:10437   */\n      tag_361\n        /* \"#utility.yul\":10429:10436   */\n      dup13\n        /* \"#utility.yul\":10420:10426   */\n      dup3\n        /* \"#utility.yul\":10409:10418   */\n      dup14\n        /* \"#utility.yul\":10405:10427   */\n      add\n        /* \"#utility.yul\":10387:10437   */\n      tag_211\n      jump\t// in\n    tag_361:\n        /* \"#utility.yul\":10377:10437   */\n      swap5\n      pop\n        /* \"#utility.yul\":10331:10447   */\n      pop\n        /* \"#utility.yul\":10486:10489   */\n      0xc0\n        /* \"#utility.yul\":10513:10563   */\n      tag_362\n        /* \"#utility.yul\":10555:10562   */\n      dup13\n        /* \"#utility.yul\":10546:10552   */\n      dup3\n        /* \"#utility.yul\":10535:10544   */\n      dup14\n        /* \"#utility.yul\":10531:10553   */\n      add\n        /* \"#utility.yul\":10513:10563   */\n      tag_211\n      jump\t// in\n    tag_362:\n        /* \"#utility.yul\":10503:10563   */\n      swap4\n      pop\n        /* \"#utility.yul\":10457:10573   */\n      pop\n        /* \"#utility.yul\":10612:10615   */\n      0xe0\n        /* \"#utility.yul\":10639:10692   */\n      tag_363\n        /* \"#utility.yul\":10684:10691   */\n      dup13\n        /* \"#utility.yul\":10675:10681   */\n      dup3\n        /* \"#utility.yul\":10664:10673   */\n      dup14\n        /* \"#utility.yul\":10660:10682   */\n      add\n        /* \"#utility.yul\":10639:10692   */\n      tag_213\n      jump\t// in\n    tag_363:\n        /* \"#utility.yul\":10629:10692   */\n      swap3\n      pop\n        /* \"#utility.yul\":10583:10702   */\n      pop\n        /* \"#utility.yul\":10741:10744   */\n      0x0100\n        /* \"#utility.yul\":10768:10821   */\n      tag_364\n        /* \"#utility.yul\":10813:10820   */\n      dup13\n        /* \"#utility.yul\":10804:10810   */\n      dup3\n        /* \"#utility.yul\":10793:10802   */\n      dup14\n        /* \"#utility.yul\":10789:10811   */\n      add\n        /* \"#utility.yul\":10768:10821   */\n      tag_213\n      jump\t// in\n    tag_364:\n        /* \"#utility.yul\":10758:10821   */\n      swap2\n      pop\n        /* \"#utility.yul\":10712:10831   */\n      pop\n        /* \"#utility.yul\":8983:10838   */\n      swap3\n      swap6\n      swap9\n      pop\n      swap3\n      swap6\n      swap9\n      pop\n      swap3\n      swap6\n      swap9\n      jump\t// out\n        /* \"#utility.yul\":10844:10962   */\n    tag_214:\n        /* \"#utility.yul\":10931:10955   */\n      tag_366\n        /* \"#utility.yul\":10949:10954   */\n      dup2\n        /* \"#utility.yul\":10931:10955   */\n      tag_204\n      jump\t// in\n    tag_366:\n        /* \"#utility.yul\":10926:10929   */\n      dup3\n        /* \"#utility.yul\":10919:10956   */\n      mstore\n        /* \"#utility.yul\":10844:10962   */\n      pop\n      pop\n      jump\t// out\n        /* \"#utility.yul\":10968:11190   */\n    tag_55:\n        /* \"#utility.yul\":11061:11065   */\n      0x00\n        /* \"#utility.yul\":11099:11101   */\n      0x20\n        /* \"#utility.yul\":11088:11097   */\n      dup3\n        /* \"#utility.yul\":11084:11102   */\n      add\n        /* \"#utility.yul\":11076:11102   */\n      swap1\n      pop\n        /* \"#utility.yul\":11112:11183   */\n      tag_368\n        /* \"#utility.yul\":11180:11181   */\n      0x00\n        /* \"#utility.yul\":11169:11178   */\n      dup4\n        /* \"#utility.yul\":11165:11182   */\n      add\n        /* \"#utility.yul\":11156:11162   */\n      dup5\n        /* \"#utility.yul\":11112:11183   */\n      tag_214\n      jump\t// in\n    tag_368:\n        /* \"#utility.yul\":10968:11190   */\n      swap3\n      swap2\n      pop\n      pop\n      jump\t// out\n        /* \"#utility.yul\":11196:11525   */\n    tag_59:\n        /* \"#utility.yul\":11255:11261   */\n      0x00\n        /* \"#utility.yul\":11304:11306   */\n      0x20\n        /* \"#utility.yul\":11292:11301   */\n      dup3\n        /* \"#utility.yul\":11283:11290   */\n      dup5\n        /* \"#utility.yul\":11279:11302   */\n      sub\n        /* \"#utility.yul\":11275:11307   */\n      slt\n        /* \"#utility.yul\":11272:11391   */\n      iszero\n      tag_370\n      jumpi\n        /* \"#utility.yul\":11310:11389   */\n      tag_371\n      tag_190\n      jump\t// in\n    tag_371:\n        /* \"#utility.yul\":11272:11391   */\n    tag_370:\n        /* \"#utility.yul\":11430:11431   */\n      0x00\n        /* \"#utility.yul\":11455:11508   */\n      tag_372\n        /* \"#utility.yul\":11500:11507   */\n      dup5\n        /* \"#utility.yul\":11491:11497   */\n      dup3\n        /* \"#utility.yul\":11480:11489   */\n      dup6\n        /* \"#utility.yul\":11476:11498   */\n      add\n        /* \"#utility.yul\":11455:11508   */\n      tag_213\n      jump\t// in\n    tag_372:\n        /* \"#utility.yul\":11445:11508   */\n      swap2\n      pop\n        /* \"#utility.yul\":11401:11518   */\n      pop\n        /* \"#utility.yul\":11196:11525   */\n      swap3\n      swap2\n      pop\n      pop\n      jump\t// out\n        /* \"#utility.yul\":11531:11688   */\n    tag_215:\n        /* \"#utility.yul\":11631:11681   */\n      tag_374\n        /* \"#utility.yul\":11675:11680   */\n      dup2\n        /* \"#utility.yul\":11631:11681   */\n      tag_184\n      jump\t// in\n    tag_374:\n        /* \"#utility.yul\":11626:11629   */\n      dup3\n        /* \"#utility.yul\":11619:11682   */\n      mstore\n        /* \"#utility.yul\":11531:11688   */\n      pop\n      pop\n      jump\t// out\n        /* \"#utility.yul\":11694:11942   */\n    tag_62:\n        /* \"#utility.yul\":11800:11804   */\n      0x00\n        /* \"#utility.yul\":11838:11840   */\n      0x20\n        /* \"#utility.yul\":11827:11836   */\n      dup3\n        /* \"#utility.yul\":11823:11841   */\n      add\n        /* \"#utility.yul\":11815:11841   */\n      swap1\n      pop\n        /* \"#utility.yul\":11851:11935   */\n      tag_376\n        /* \"#utility.yul\":11932:11933   */\n      0x00\n        /* \"#utility.yul\":11921:11930   */\n      dup4\n        /* \"#utility.yul\":11917:11934   */\n      add\n        /* \"#utility.yul\":11908:11914   */\n      dup5\n        /* \"#utility.yul\":11851:11935   */\n      tag_215\n      jump\t// in\n    tag_376:\n        /* \"#utility.yul\":11694:11942   */\n      swap3\n      swap2\n      pop\n      pop\n      jump\t// out\n        /* \"#utility.yul\":11948:12277   */\n    tag_81:\n        /* \"#utility.yul\":12007:12013   */\n      0x00\n        /* \"#utility.yul\":12056:12058   */\n      0x20\n        /* \"#utility.yul\":12044:12053   */\n      dup3\n        /* \"#utility.yul\":12035:12042   */\n      dup5\n        /* \"#utility.yul\":12031:12054   */\n      sub\n        /* \"#utility.yul\":12027:12059   */\n      slt\n        /* \"#utility.yul\":12024:12143   */\n      iszero\n      tag_378\n      jumpi\n        /* \"#utility.yul\":12062:12141   */\n      tag_379\n      tag_190\n      jump\t// in\n    tag_379:\n        /* \"#utility.yul\":12024:12143   */\n    tag_378:\n        /* \"#utility.yul\":12182:12183   */\n      0x00\n        /* \"#utility.yul\":12207:12260   */\n      tag_380\n        /* \"#utility.yul\":12252:12259   */\n      dup5\n        /* \"#utility.yul\":12243:12249   */\n      dup3\n        /* \"#utility.yul\":12232:12241   */\n      dup6\n        /* \"#utility.yul\":12228:12250   */\n      add\n        /* \"#utility.yul\":12207:12260   */\n      tag_206\n      jump\t// in\n    tag_380:\n        /* \"#utility.yul\":12197:12260   */\n      swap2\n      pop\n        /* \"#utility.yul\":12153:12270   */\n      pop\n        /* \"#utility.yul\":11948:12277   */\n      swap3\n      swap2\n      pop\n      pop\n      jump\t// out\n        /* \"#utility.yul\":12283:12452   */\n    tag_216:\n        /* \"#utility.yul\":12367:12378   */\n      0x00\n        /* \"#utility.yul\":12401:12407   */\n      dup3\n        /* \"#utility.yul\":12396:12399   */\n      dup3\n        /* \"#utility.yul\":12389:12408   */\n      mstore\n        /* \"#utility.yul\":12441:12445   */\n      0x20\n        /* \"#utility.yul\":12436:12439   */\n      dup3\n        /* \"#utility.yul\":12432:12446   */\n      add\n        /* \"#utility.yul\":12417:12446   */\n      swap1\n      pop\n        /* \"#utility.yul\":12283:12452   */\n      swap3\n      swap2\n      pop\n      pop\n      jump\t// out\n        /* \"#utility.yul\":12458:12741   */\n    tag_217:\n        /* \"#utility.yul\":12598:12632   */\n      0x456c206e6f6d6272652064656c20666f6e646f206e6f20707565646520657374\n        /* \"#utility.yul\":12594:12595   */\n      0x00\n        /* \"#utility.yul\":12586:12592   */\n      dup3\n        /* \"#utility.yul\":12582:12596   */\n      add\n        /* \"#utility.yul\":12575:12633   */\n      mstore\n        /* \"#utility.yul\":12667:12733   */\n      0x617220766163c3ad6f0000000000000000000000000000000000000000000000\n        /* \"#utility.yul\":12662:12664   */\n      0x20\n        /* \"#utility.yul\":12654:12660   */\n      dup3\n        /* \"#utility.yul\":12650:12665   */\n      add\n        /* \"#utility.yul\":12643:12734   */\n      mstore\n        /* \"#utility.yul\":12458:12741   */\n      pop\n      jump\t// out\n        /* \"#utility.yul\":12747:13113   */\n    tag_218:\n        /* \"#utility.yul\":12889:12892   */\n      0x00\n        /* \"#utility.yul\":12910:12977   */\n      tag_384\n        /* \"#utility.yul\":12974:12976   */\n      0x29\n        /* \"#utility.yul\":12969:12972   */\n      dup4\n        /* \"#utility.yul\":12910:12977   */\n      tag_216\n      jump\t// in\n    tag_384:\n        /* \"#utility.yul\":12903:12977   */\n      swap2\n      pop\n        /* \"#utility.yul\":12986:13079   */\n      tag_385\n        /* \"#utility.yul\":13075:13078   */\n      dup3\n        /* \"#utility.yul\":12986:13079   */\n      tag_217\n      jump\t// in\n    tag_385:\n        /* \"#utility.yul\":13104:13106   */\n      0x40\n        /* \"#utility.yul\":13099:13102   */\n      dup3\n        /* \"#utility.yul\":13095:13107   */\n      add\n        /* \"#utility.yul\":13088:13107   */\n      swap1\n      pop\n        /* \"#utility.yul\":12747:13113   */\n      swap2\n      swap1\n      pop\n      jump\t// out\n        /* \"#utility.yul\":13119:13538   */\n    tag_92:\n        /* \"#utility.yul\":13285:13289   */\n      0x00\n        /* \"#utility.yul\":13323:13325   */\n      0x20\n        /* \"#utility.yul\":13312:13321   */\n      dup3\n        /* \"#utility.yul\":13308:13326   */\n      add\n        /* \"#utility.yul\":13300:13326   */\n      swap1\n      pop\n        /* \"#utility.yul\":13372:13381   */\n      dup2\n        /* \"#utility.yul\":13366:13370   */\n      dup2\n        /* \"#utility.yul\":13362:13382   */\n      sub\n        /* \"#utility.yul\":13358:13359   */\n      0x00\n        /* \"#utility.yul\":13347:13356   */\n      dup4\n        /* \"#utility.yul\":13343:13360   */\n      add\n        /* \"#utility.yul\":13336:13383   */\n      mstore\n        /* \"#utility.yul\":13400:13531   */\n      tag_387\n        /* \"#utility.yul\":13526:13530   */\n      dup2\n        /* \"#utility.yul\":13400:13531   */\n      tag_218\n      jump\t// in\n    tag_387:\n        /* \"#utility.yul\":13392:13531   */\n      swap1\n      pop\n        /* \"#utility.yul\":13119:13538   */\n      swap2\n      swap1\n      pop\n      jump\t// out\n        /* \"#utility.yul\":13544:13814   */\n    tag_219:\n        /* \"#utility.yul\":13684:13750   */\n      0x4e6f2068616272c3ad61206d616e657261206465207265746972617220656c20\n        /* \"#utility.yul\":13680:13681   */\n      0x00\n        /* \"#utility.yul\":13672:13678   */\n      dup3\n        /* \"#utility.yul\":13668:13682   */\n      add\n        /* \"#utility.yul\":13661:13751   */\n      mstore\n        /* \"#utility.yul\":13785:13806   */\n      0x64696e65726f2064656c20636f6e747261746f00000000000000000000000000\n        /* \"#utility.yul\":13780:13782   */\n      0x20\n        /* \"#utility.yul\":13772:13778   */\n      dup3\n        /* \"#utility.yul\":13768:13783   */\n      add\n        /* \"#utility.yul\":13761:13807   */\n      mstore\n        /* \"#utility.yul\":13544:13814   */\n      pop\n      jump\t// out\n        /* \"#utility.yul\":13820:14186   */\n    tag_220:\n        /* \"#utility.yul\":13962:13965   */\n      0x00\n        /* \"#utility.yul\":13983:14050   */\n      tag_390\n        /* \"#utility.yul\":14047:14049   */\n      0x33\n        /* \"#utility.yul\":14042:14045   */\n      dup4\n        /* \"#utility.yul\":13983:14050   */\n      tag_216\n      jump\t// in\n    tag_390:\n        /* \"#utility.yul\":13976:14050   */\n      swap2\n      pop\n        /* \"#utility.yul\":14059:14152   */\n      tag_391\n        /* \"#utility.yul\":14148:14151   */\n      dup3\n        /* \"#utility.yul\":14059:14152   */\n      tag_219\n      jump\t// in\n    tag_391:\n        /* \"#utility.yul\":14177:14179   */\n      0x40\n        /* \"#utility.yul\":14172:14175   */\n      dup3\n        /* \"#utility.yul\":14168:14180   */\n      add\n        /* \"#utility.yul\":14161:14180   */\n      swap1\n      pop\n        /* \"#utility.yul\":13820:14186   */\n      swap2\n      swap1\n      pop\n      jump\t// out\n        /* \"#utility.yul\":14192:14611   */\n    tag_99:\n        /* \"#utility.yul\":14358:14362   */\n      0x00\n        /* \"#utility.yul\":14396:14398   */\n      0x20\n        /* \"#utility.yul\":14385:14394   */\n      dup3\n        /* \"#utility.yul\":14381:14399   */\n      add\n        /* \"#utility.yul\":14373:14399   */\n      swap1\n      pop\n        /* \"#utility.yul\":14445:14454   */\n      dup2\n        /* \"#utility.yul\":14439:14443   */\n      dup2\n        /* \"#utility.yul\":14435:14455   */\n      sub\n        /* \"#utility.yul\":14431:14432   */\n      0x00\n        /* \"#utility.yul\":14420:14429   */\n      dup4\n        /* \"#utility.yul\":14416:14433   */\n      add\n        /* \"#utility.yul\":14409:14456   */\n      mstore\n        /* \"#utility.yul\":14473:14604   */\n      tag_393\n        /* \"#utility.yul\":14599:14603   */\n      dup2\n        /* \"#utility.yul\":14473:14604   */\n      tag_220\n      jump\t// in\n    tag_393:\n        /* \"#utility.yul\":14465:14604   */\n      swap1\n      pop\n        /* \"#utility.yul\":14192:14611   */\n      swap2\n      swap1\n      pop\n      jump\t// out\n        /* \"#utility.yul\":14617:14874   */\n    tag_221:\n        /* \"#utility.yul\":14757:14823   */\n      0x506f7263656e74616a6520646520636f6e74726962756369c3b36e20696e636f\n        /* \"#utility.yul\":14753:14754   */\n      0x00\n        /* \"#utility.yul\":14745:14751   */\n      dup3\n        /* \"#utility.yul\":14741:14755   */\n      add\n        /* \"#utility.yul\":14734:14824   */\n      mstore\n        /* \"#utility.yul\":14858:14866   */\n      0x72726563746f0000000000000000000000000000000000000000000000000000\n        /* \"#utility.yul\":14853:14855   */\n      0x20\n        /* \"#utility.yul\":14845:14851   */\n      dup3\n        /* \"#utility.yul\":14841:14856   */\n      add\n        /* \"#utility.yul\":14834:14867   */\n      mstore\n        /* \"#utility.yul\":14617:14874   */\n      pop\n      jump\t// out\n        /* \"#utility.yul\":14880:15246   */\n    tag_222:\n        /* \"#utility.yul\":15022:15025   */\n      0x00\n        /* \"#utility.yul\":15043:15110   */\n      tag_396\n        /* \"#utility.yul\":15107:15109   */\n      0x26\n        /* \"#utility.yul\":15102:15105   */\n      dup4\n        /* \"#utility.yul\":15043:15110   */\n      tag_216\n      jump\t// in\n    tag_396:\n        /* \"#utility.yul\":15036:15110   */\n      swap2\n      pop\n        /* \"#utility.yul\":15119:15212   */\n      tag_397\n        /* \"#utility.yul\":15208:15211   */\n      dup3\n        /* \"#utility.yul\":15119:15212   */\n      tag_221\n      jump\t// in\n    tag_397:\n        /* \"#utility.yul\":15237:15239   */\n      0x40\n        /* \"#utility.yul\":15232:15235   */\n      dup3\n        /* \"#utility.yul\":15228:15240   */\n      add\n        /* \"#utility.yul\":15221:15240   */\n      swap1\n      pop\n        /* \"#utility.yul\":14880:15246   */\n      swap2\n      swap1\n      pop\n      jump\t// out\n        /* \"#utility.yul\":15252:15671   */\n    tag_102:\n        /* \"#utility.yul\":15418:15422   */\n      0x00\n        /* \"#utility.yul\":15456:15458   */\n      0x20\n        /* \"#utility.yul\":15445:15454   */\n      dup3\n        /* \"#utility.yul\":15441:15459   */\n      add\n        /* \"#utility.yul\":15433:15459   */\n      swap1\n      pop\n        /* \"#utility.yul\":15505:15514   */\n      dup2\n        /* \"#utility.yul\":15499:15503   */\n      dup2\n        /* \"#utility.yul\":15495:15515   */\n      sub\n        /* \"#utility.yul\":15491:15492   */\n      0x00\n        /* \"#utility.yul\":15480:15489   */\n      dup4\n        /* \"#utility.yul\":15476:15493   */\n      add\n        /* \"#utility.yul\":15469:15516   */\n      mstore\n        /* \"#utility.yul\":15533:15664   */\n      tag_399\n        /* \"#utility.yul\":15659:15663   */\n      dup2\n        /* \"#utility.yul\":15533:15664   */\n      tag_222\n      jump\t// in\n    tag_399:\n        /* \"#utility.yul\":15525:15664   */\n      swap1\n      pop\n        /* \"#utility.yul\":15252:15671   */\n      swap2\n      swap1\n      pop\n      jump\t// out\n        /* \"#utility.yul\":15677:15901   */\n    tag_223:\n        /* \"#utility.yul\":15817:15851   */\n      0x506f7263656e74616a65206465206170726f626163696f6e657320696e636f72\n        /* \"#utility.yul\":15813:15814   */\n      0x00\n        /* \"#utility.yul\":15805:15811   */\n      dup3\n        /* \"#utility.yul\":15801:15815   */\n      add\n        /* \"#utility.yul\":15794:15852   */\n      mstore\n        /* \"#utility.yul\":15886:15893   */\n      0x726563746f000000000000000000000000000000000000000000000000000000\n        /* \"#utility.yul\":15881:15883   */\n      0x20\n        /* \"#utility.yul\":15873:15879   */\n      dup3\n        /* \"#utility.yul\":15869:15884   */\n      add\n        /* \"#utility.yul\":15862:15894   */\n      mstore\n        /* \"#utility.yul\":15677:15901   */\n      pop\n      jump\t// out\n        /* \"#utility.yul\":15907:16273   */\n    tag_224:\n        /* \"#utility.yul\":16049:16052   */\n      0x00\n        /* \"#utility.yul\":16070:16137   */\n      tag_402\n        /* \"#utility.yul\":16134:16136   */\n      0x25\n        /* \"#utility.yul\":16129:16132   */\n      dup4\n        /* \"#utility.yul\":16070:16137   */\n      tag_216\n      jump\t// in\n    tag_402:\n        /* \"#utility.yul\":16063:16137   */\n      swap2\n      pop\n        /* \"#utility.yul\":16146:16239   */\n      tag_403\n        /* \"#utility.yul\":16235:16238   */\n      dup3\n        /* \"#utility.yul\":16146:16239   */\n      tag_223\n      jump\t// in\n    tag_403:\n        /* \"#utility.yul\":16264:16266   */\n      0x40\n        /* \"#utility.yul\":16259:16262   */\n      dup3\n        /* \"#utility.yul\":16255:16267   */\n      add\n        /* \"#utility.yul\":16248:16267   */\n      swap1\n      pop\n        /* \"#utility.yul\":15907:16273   */\n      swap2\n      swap1\n      pop\n      jump\t// out\n        /* \"#utility.yul\":16279:16698   */\n    tag_105:\n        /* \"#utility.yul\":16445:16449   */\n      0x00\n        /* \"#utility.yul\":16483:16485   */\n      0x20\n        /* \"#utility.yul\":16472:16481   */\n      dup3\n        /* \"#utility.yul\":16468:16486   */\n      add\n        /* \"#utility.yul\":16460:16486   */\n      swap1\n      pop\n        /* \"#utility.yul\":16532:16541   */\n      dup2\n        /* \"#utility.yul\":16526:16530   */\n      dup2\n        /* \"#utility.yul\":16522:16542   */\n      sub\n        /* \"#utility.yul\":16518:16519   */\n      0x00\n        /* \"#utility.yul\":16507:16516   */\n      dup4\n        /* \"#utility.yul\":16503:16520   */\n      add\n        /* \"#utility.yul\":16496:16543   */\n      mstore\n        /* \"#utility.yul\":16560:16691   */\n      tag_405\n        /* \"#utility.yul\":16686:16690   */\n      dup2\n        /* \"#utility.yul\":16560:16691   */\n      tag_224\n      jump\t// in\n    tag_405:\n        /* \"#utility.yul\":16552:16691   */\n      swap1\n      pop\n        /* \"#utility.yul\":16279:16698   */\n      swap2\n      swap1\n      pop\n      jump\t// out\n        /* \"#utility.yul\":16704:17036   */\n    tag_107:\n        /* \"#utility.yul\":16825:16829   */\n      0x00\n        /* \"#utility.yul\":16863:16865   */\n      0x40\n        /* \"#utility.yul\":16852:16861   */\n      dup3\n        /* \"#utility.yul\":16848:16866   */\n      add\n        /* \"#utility.yul\":16840:16866   */\n      swap1\n      pop\n        /* \"#utility.yul\":16876:16947   */\n      tag_407\n        /* \"#utility.yul\":16944:16945   */\n      0x00\n        /* \"#utility.yul\":16933:16942   */\n      dup4\n        /* \"#utility.yul\":16929:16946   */\n      add\n        /* \"#utility.yul\":16920:16926   */\n      dup6\n        /* \"#utility.yul\":16876:16947   */\n      tag_214\n      jump\t// in\n    tag_407:\n        /* \"#utility.yul\":16957:17029   */\n      tag_408\n        /* \"#utility.yul\":17025:17027   */\n      0x20\n        /* \"#utility.yul\":17014:17023   */\n      dup4\n        /* \"#utility.yul\":17010:17028   */\n      add\n        /* \"#utility.yul\":17001:17007   */\n      dup5\n        /* \"#utility.yul\":16957:17029   */\n      tag_174\n      jump\t// in\n    tag_408:\n        /* \"#utility.yul\":16704:17036   */\n      swap4\n      swap3\n      pop\n      pop\n      pop\n      jump\t// out\n        /* \"#utility.yul\":17042:17141   */\n    tag_225:\n        /* \"#utility.yul\":17094:17100   */\n      0x00\n        /* \"#utility.yul\":17128:17133   */\n      dup2\n        /* \"#utility.yul\":17122:17134   */\n      mload\n        /* \"#utility.yul\":17112:17134   */\n      swap1\n      pop\n        /* \"#utility.yul\":17042:17141   */\n      swap2\n      swap1\n      pop\n      jump\t// out\n        /* \"#utility.yul\":17147:17393   */\n    tag_226:\n        /* \"#utility.yul\":17228:17229   */\n      0x00\n        /* \"#utility.yul\":17238:17351   */\n    tag_411:\n        /* \"#utility.yul\":17252:17258   */\n      dup4\n        /* \"#utility.yul\":17249:17250   */\n      dup2\n        /* \"#utility.yul\":17246:17259   */\n      lt\n        /* \"#utility.yul\":17238:17351   */\n      iszero\n      tag_413\n      jumpi\n        /* \"#utility.yul\":17337:17338   */\n      dup1\n        /* \"#utility.yul\":17332:17335   */\n      dup3\n        /* \"#utility.yul\":17328:17339   */\n      add\n        /* \"#utility.yul\":17322:17340   */\n      mload\n        /* \"#utility.yul\":17318:17319   */\n      dup2\n        /* \"#utility.yul\":17313:17316   */\n      dup5\n        /* \"#utility.yul\":17309:17320   */\n      add\n        /* \"#utility.yul\":17302:17341   */\n      mstore\n        /* \"#utility.yul\":17274:17276   */\n      0x20\n        /* \"#utility.yul\":17271:17272   */\n      dup2\n        /* \"#utility.yul\":17267:17277   */\n      add\n        /* \"#utility.yul\":17262:17277   */\n      swap1\n      pop\n        /* \"#utility.yul\":17238:17351   */\n      jump(tag_411)\n    tag_413:\n        /* \"#utility.yul\":17385:17386   */\n      0x00\n        /* \"#utility.yul\":17376:17382   */\n      dup5\n        /* \"#utility.yul\":17371:17374   */\n      dup5\n        /* \"#utility.yul\":17367:17383   */\n      add\n        /* \"#utility.yul\":17360:17387   */\n      mstore\n        /* \"#utility.yul\":17209:17393   */\n      pop\n        /* \"#utility.yul\":17147:17393   */\n      pop\n      pop\n      pop\n      jump\t// out\n        /* \"#utility.yul\":17399:17776   */\n    tag_227:\n        /* \"#utility.yul\":17487:17490   */\n      0x00\n        /* \"#utility.yul\":17515:17554   */\n      tag_415\n        /* \"#utility.yul\":17548:17553   */\n      dup3\n        /* \"#utility.yul\":17515:17554   */\n      tag_225\n      jump\t// in\n    tag_415:\n        /* \"#utility.yul\":17570:17641   */\n      tag_416\n        /* \"#utility.yul\":17634:17640   */\n      dup2\n        /* \"#utility.yul\":17629:17632   */\n      dup6\n        /* \"#utility.yul\":17570:17641   */\n      tag_216\n      jump\t// in\n    tag_416:\n        /* \"#utility.yul\":17563:17641   */\n      swap4\n      pop\n        /* \"#utility.yul\":17650:17715   */\n      tag_417\n        /* \"#utility.yul\":17708:17714   */\n      dup2\n        /* \"#utility.yul\":17703:17706   */\n      dup6\n        /* \"#utility.yul\":17696:17700   */\n      0x20\n        /* \"#utility.yul\":17689:17694   */\n      dup7\n        /* \"#utility.yul\":17685:17701   */\n      add\n        /* \"#utility.yul\":17650:17715   */\n      tag_226\n      jump\t// in\n    tag_417:\n        /* \"#utility.yul\":17740:17769   */\n      tag_418\n        /* \"#utility.yul\":17762:17768   */\n      dup2\n        /* \"#utility.yul\":17740:17769   */\n      tag_194\n      jump\t// in\n    tag_418:\n        /* \"#utility.yul\":17735:17738   */\n      dup5\n        /* \"#utility.yul\":17731:17770   */\n      add\n        /* \"#utility.yul\":17724:17770   */\n      swap2\n      pop\n        /* \"#utility.yul\":17491:17776   */\n      pop\n        /* \"#utility.yul\":17399:17776   */\n      swap3\n      swap2\n      pop\n      pop\n      jump\t// out\n        /* \"#utility.yul\":17782:17896   */\n    tag_228:\n        /* \"#utility.yul\":17849:17855   */\n      0x00\n        /* \"#utility.yul\":17883:17888   */\n      dup2\n        /* \"#utility.yul\":17877:17889   */\n      mload\n        /* \"#utility.yul\":17867:17889   */\n      swap1\n      pop\n        /* \"#utility.yul\":17782:17896   */\n      swap2\n      swap1\n      pop\n      jump\t// out\n        /* \"#utility.yul\":17902:18034   */\n    tag_229:\n        /* \"#utility.yul\":17969:17973   */\n      0x00\n        /* \"#utility.yul\":17992:17995   */\n      dup2\n        /* \"#utility.yul\":17984:17995   */\n      swap1\n      pop\n        /* \"#utility.yul\":18022:18026   */\n      0x20\n        /* \"#utility.yul\":18017:18020   */\n      dup3\n        /* \"#utility.yul\":18013:18027   */\n      add\n        /* \"#utility.yul\":18005:18027   */\n      swap1\n      pop\n        /* \"#utility.yul\":17902:18034   */\n      swap2\n      swap1\n      pop\n      jump\t// out\n        /* \"#utility.yul\":18040:18148   */\n    tag_230:\n        /* \"#utility.yul\":18117:18141   */\n      tag_422\n        /* \"#utility.yul\":18135:18140   */\n      dup2\n        /* \"#utility.yul\":18117:18141   */\n      tag_204\n      jump\t// in\n    tag_422:\n        /* \"#utility.yul\":18112:18115   */\n      dup3\n        /* \"#utility.yul\":18105:18142   */\n      mstore\n        /* \"#utility.yul\":18040:18148   */\n      pop\n      pop\n      jump\t// out\n        /* \"#utility.yul\":18154:18333   */\n    tag_231:\n        /* \"#utility.yul\":18223:18233   */\n      0x00\n        /* \"#utility.yul\":18244:18290   */\n      tag_424\n        /* \"#utility.yul\":18286:18289   */\n      dup4\n        /* \"#utility.yul\":18278:18284   */\n      dup4\n        /* \"#utility.yul\":18244:18290   */\n      tag_230\n      jump\t// in\n    tag_424:\n        /* \"#utility.yul\":18322:18326   */\n      0x20\n        /* \"#utility.yul\":18317:18320   */\n      dup4\n        /* \"#utility.yul\":18313:18327   */\n      add\n        /* \"#utility.yul\":18299:18327   */\n      swap1\n      pop\n        /* \"#utility.yul\":18154:18333   */\n      swap3\n      swap2\n      pop\n      pop\n      jump\t// out\n        /* \"#utility.yul\":18339:18452   */\n    tag_232:\n        /* \"#utility.yul\":18409:18413   */\n      0x00\n        /* \"#utility.yul\":18441:18445   */\n      0x20\n        /* \"#utility.yul\":18436:18439   */\n      dup3\n        /* \"#utility.yul\":18432:18446   */\n      add\n        /* \"#utility.yul\":18424:18446   */\n      swap1\n      pop\n        /* \"#utility.yul\":18339:18452   */\n      swap2\n      swap1\n      pop\n      jump\t// out\n        /* \"#utility.yul\":18488:19220   */\n    tag_233:\n        /* \"#utility.yul\":18607:18610   */\n      0x00\n        /* \"#utility.yul\":18636:18690   */\n      tag_427\n        /* \"#utility.yul\":18684:18689   */\n      dup3\n        /* \"#utility.yul\":18636:18690   */\n      tag_228\n      jump\t// in\n    tag_427:\n        /* \"#utility.yul\":18706:18792   */\n      tag_428\n        /* \"#utility.yul\":18785:18791   */\n      dup2\n        /* \"#utility.yul\":18780:18783   */\n      dup6\n        /* \"#utility.yul\":18706:18792   */\n      tag_182\n      jump\t// in\n    tag_428:\n        /* \"#utility.yul\":18699:18792   */\n      swap4\n      pop\n        /* \"#utility.yul\":18816:18872   */\n      tag_429\n        /* \"#utility.yul\":18866:18871   */\n      dup4\n        /* \"#utility.yul\":18816:18872   */\n      tag_229\n      jump\t// in\n    tag_429:\n        /* \"#utility.yul\":18895:18902   */\n      dup1\n        /* \"#utility.yul\":18926:18927   */\n      0x00\n        /* \"#utility.yul\":18911:19195   */\n    tag_430:\n        /* \"#utility.yul\":18936:18942   */\n      dup4\n        /* \"#utility.yul\":18933:18934   */\n      dup2\n        /* \"#utility.yul\":18930:18943   */\n      lt\n        /* \"#utility.yul\":18911:19195   */\n      iszero\n      tag_432\n      jumpi\n        /* \"#utility.yul\":19012:19018   */\n      dup2\n        /* \"#utility.yul\":19006:19019   */\n      mload\n        /* \"#utility.yul\":19039:19102   */\n      tag_433\n        /* \"#utility.yul\":19098:19101   */\n      dup9\n        /* \"#utility.yul\":19083:19096   */\n      dup3\n        /* \"#utility.yul\":19039:19102   */\n      tag_231\n      jump\t// in\n    tag_433:\n        /* \"#utility.yul\":19032:19102   */\n      swap8\n      pop\n        /* \"#utility.yul\":19125:19185   */\n      tag_434\n        /* \"#utility.yul\":19178:19184   */\n      dup4\n        /* \"#utility.yul\":19125:19185   */\n      tag_232\n      jump\t// in\n    tag_434:\n        /* \"#utility.yul\":19115:19185   */\n      swap3\n      pop\n        /* \"#utility.yul\":18971:19195   */\n      pop\n        /* \"#utility.yul\":18958:18959   */\n      0x01\n        /* \"#utility.yul\":18955:18956   */\n      dup2\n        /* \"#utility.yul\":18951:18960   */\n      add\n        /* \"#utility.yul\":18946:18960   */\n      swap1\n      pop\n        /* \"#utility.yul\":18911:19195   */\n      jump(tag_430)\n    tag_432:\n        /* \"#utility.yul\":18915:18929   */\n      pop\n        /* \"#utility.yul\":19211:19214   */\n      dup6\n        /* \"#utility.yul\":19204:19214   */\n      swap4\n      pop\n        /* \"#utility.yul\":18612:19220   */\n      pop\n      pop\n      pop\n        /* \"#utility.yul\":18488:19220   */\n      swap3\n      swap2\n      pop\n      pop\n      jump\t// out\n        /* \"#utility.yul\":19226:19335   */\n    tag_234:\n        /* \"#utility.yul\":19307:19328   */\n      tag_436\n        /* \"#utility.yul\":19322:19327   */\n      dup2\n        /* \"#utility.yul\":19307:19328   */\n      tag_209\n      jump\t// in\n    tag_436:\n        /* \"#utility.yul\":19302:19305   */\n      dup3\n        /* \"#utility.yul\":19295:19329   */\n      mstore\n        /* \"#utility.yul\":19226:19335   */\n      pop\n      pop\n      jump\t// out\n        /* \"#utility.yul\":19341:20742   */\n    tag_114:\n        /* \"#utility.yul\":19726:19730   */\n      0x00\n        /* \"#utility.yul\":19764:19767   */\n      0x0140\n        /* \"#utility.yul\":19753:19762   */\n      dup3\n        /* \"#utility.yul\":19749:19768   */\n      add\n        /* \"#utility.yul\":19741:19768   */\n      swap1\n      pop\n        /* \"#utility.yul\":19814:19823   */\n      dup2\n        /* \"#utility.yul\":19808:19812   */\n      dup2\n        /* \"#utility.yul\":19804:19824   */\n      sub\n        /* \"#utility.yul\":19800:19801   */\n      0x00\n        /* \"#utility.yul\":19789:19798   */\n      dup4\n        /* \"#utility.yul\":19785:19802   */\n      add\n        /* \"#utility.yul\":19778:19825   */\n      mstore\n        /* \"#utility.yul\":19842:19920   */\n      tag_438\n        /* \"#utility.yul\":19915:19919   */\n      dup2\n        /* \"#utility.yul\":19906:19912   */\n      dup14\n        /* \"#utility.yul\":19842:19920   */\n      tag_227\n      jump\t// in\n    tag_438:\n        /* \"#utility.yul\":19834:19920   */\n      swap1\n      pop\n        /* \"#utility.yul\":19930:20002   */\n      tag_439\n        /* \"#utility.yul\":19998:20000   */\n      0x20\n        /* \"#utility.yul\":19987:19996   */\n      dup4\n        /* \"#utility.yul\":19983:20001   */\n      add\n        /* \"#utility.yul\":19974:19980   */\n      dup13\n        /* \"#utility.yul\":19930:20002   */\n      tag_214\n      jump\t// in\n    tag_439:\n        /* \"#utility.yul\":20049:20058   */\n      dup2\n        /* \"#utility.yul\":20043:20047   */\n      dup2\n        /* \"#utility.yul\":20039:20059   */\n      sub\n        /* \"#utility.yul\":20034:20036   */\n      0x40\n        /* \"#utility.yul\":20023:20032   */\n      dup4\n        /* \"#utility.yul\":20019:20037   */\n      add\n        /* \"#utility.yul\":20012:20060   */\n      mstore\n        /* \"#utility.yul\":20077:20185   */\n      tag_440\n        /* \"#utility.yul\":20180:20184   */\n      dup2\n        /* \"#utility.yul\":20171:20177   */\n      dup12\n        /* \"#utility.yul\":20077:20185   */\n      tag_233\n      jump\t// in\n    tag_440:\n        /* \"#utility.yul\":20069:20185   */\n      swap1\n      pop\n        /* \"#utility.yul\":20195:20261   */\n      tag_441\n        /* \"#utility.yul\":20257:20259   */\n      0x60\n        /* \"#utility.yul\":20246:20255   */\n      dup4\n        /* \"#utility.yul\":20242:20260   */\n      add\n        /* \"#utility.yul\":20233:20239   */\n      dup11\n        /* \"#utility.yul\":20195:20261   */\n      tag_234\n      jump\t// in\n    tag_441:\n        /* \"#utility.yul\":20271:20338   */\n      tag_442\n        /* \"#utility.yul\":20333:20336   */\n      0x80\n        /* \"#utility.yul\":20322:20331   */\n      dup4\n        /* \"#utility.yul\":20318:20337   */\n      add\n        /* \"#utility.yul\":20309:20315   */\n      dup10\n        /* \"#utility.yul\":20271:20338   */\n      tag_234\n      jump\t// in\n    tag_442:\n        /* \"#utility.yul\":20348:20415   */\n      tag_443\n        /* \"#utility.yul\":20410:20413   */\n      0xa0\n        /* \"#utility.yul\":20399:20408   */\n      dup4\n        /* \"#utility.yul\":20395:20414   */\n      add\n        /* \"#utility.yul\":20386:20392   */\n      dup9\n        /* \"#utility.yul\":20348:20415   */\n      tag_234\n      jump\t// in\n    tag_443:\n        /* \"#utility.yul\":20425:20492   */\n      tag_444\n        /* \"#utility.yul\":20487:20490   */\n      0xc0\n        /* \"#utility.yul\":20476:20485   */\n      dup4\n        /* \"#utility.yul\":20472:20491   */\n      add\n        /* \"#utility.yul\":20463:20469   */\n      dup8\n        /* \"#utility.yul\":20425:20492   */\n      tag_234\n      jump\t// in\n    tag_444:\n        /* \"#utility.yul\":20502:20569   */\n      tag_445\n        /* \"#utility.yul\":20564:20567   */\n      0xe0\n        /* \"#utility.yul\":20553:20562   */\n      dup4\n        /* \"#utility.yul\":20549:20568   */\n      add\n        /* \"#utility.yul\":20540:20546   */\n      dup7\n        /* \"#utility.yul\":20502:20569   */\n      tag_234\n      jump\t// in\n    tag_445:\n        /* \"#utility.yul\":20579:20652   */\n      tag_446\n        /* \"#utility.yul\":20647:20650   */\n      0x0100\n        /* \"#utility.yul\":20636:20645   */\n      dup4\n        /* \"#utility.yul\":20632:20651   */\n      add\n        /* \"#utility.yul\":20623:20629   */\n      dup6\n        /* \"#utility.yul\":20579:20652   */\n      tag_174\n      jump\t// in\n    tag_446:\n        /* \"#utility.yul\":20662:20735   */\n      tag_447\n        /* \"#utility.yul\":20730:20733   */\n      0x0120\n        /* \"#utility.yul\":20719:20728   */\n      dup4\n        /* \"#utility.yul\":20715:20734   */\n      add\n        /* \"#utility.yul\":20706:20712   */\n      dup5\n        /* \"#utility.yul\":20662:20735   */\n      tag_174\n      jump\t// in\n    tag_447:\n        /* \"#utility.yul\":19341:20742   */\n      swap12\n      swap11\n      pop\n      pop\n      pop\n      pop\n      pop\n      pop\n      pop\n      pop\n      pop\n      pop\n      pop\n      jump\t// out\n        /* \"#utility.yul\":20748:21281   */\n    tag_118:\n        /* \"#utility.yul\":20917:20921   */\n      0x00\n        /* \"#utility.yul\":20955:20957   */\n      0x60\n        /* \"#utility.yul\":20944:20953   */\n      dup3\n        /* \"#utility.yul\":20940:20958   */\n      add\n        /* \"#utility.yul\":20932:20958   */\n      swap1\n      pop\n        /* \"#utility.yul\":20968:21039   */\n      tag_449\n        /* \"#utility.yul\":21036:21037   */\n      0x00\n        /* \"#utility.yul\":21025:21034   */\n      dup4\n        /* \"#utility.yul\":21021:21038   */\n      add\n        /* \"#utility.yul\":21012:21018   */\n      dup7\n        /* \"#utility.yul\":20968:21039   */\n      tag_214\n      jump\t// in\n    tag_449:\n        /* \"#utility.yul\":21086:21095   */\n      dup2\n        /* \"#utility.yul\":21080:21084   */\n      dup2\n        /* \"#utility.yul\":21076:21096   */\n      sub\n        /* \"#utility.yul\":21071:21073   */\n      0x20\n        /* \"#utility.yul\":21060:21069   */\n      dup4\n        /* \"#utility.yul\":21056:21074   */\n      add\n        /* \"#utility.yul\":21049:21097   */\n      mstore\n        /* \"#utility.yul\":21114:21192   */\n      tag_450\n        /* \"#utility.yul\":21187:21191   */\n      dup2\n        /* \"#utility.yul\":21178:21184   */\n      dup6\n        /* \"#utility.yul\":21114:21192   */\n      tag_227\n      jump\t// in\n    tag_450:\n        /* \"#utility.yul\":21106:21192   */\n      swap1\n      pop\n        /* \"#utility.yul\":21202:21274   */\n      tag_451\n        /* \"#utility.yul\":21270:21272   */\n      0x40\n        /* \"#utility.yul\":21259:21268   */\n      dup4\n        /* \"#utility.yul\":21255:21273   */\n      add\n        /* \"#utility.yul\":21246:21252   */\n      dup5\n        /* \"#utility.yul\":21202:21274   */\n      tag_174\n      jump\t// in\n    tag_451:\n        /* \"#utility.yul\":20748:21281   */\n      swap5\n      swap4\n      pop\n      pop\n      pop\n      pop\n      jump\t// out\n        /* \"#utility.yul\":21287:21512   */\n    tag_235:\n        /* \"#utility.yul\":21427:21461   */\n      0x4f776e61626c653a206e6577206f776e657220697320746865207a65726f2061\n        /* \"#utility.yul\":21423:21424   */\n      0x00\n        /* \"#utility.yul\":21415:21421   */\n      dup3\n        /* \"#utility.yul\":21411:21425   */\n      add\n        /* \"#utility.yul\":21404:21462   */\n      mstore\n        /* \"#utility.yul\":21496:21504   */\n      0x6464726573730000000000000000000000000000000000000000000000000000\n        /* \"#utility.yul\":21491:21493   */\n      0x20\n        /* \"#utility.yul\":21483:21489   */\n      dup3\n        /* \"#utility.yul\":21479:21494   */\n      add\n        /* \"#utility.yul\":21472:21505   */\n      mstore\n        /* \"#utility.yul\":21287:21512   */\n      pop\n      jump\t// out\n        /* \"#utility.yul\":21518:21884   */\n    tag_236:\n        /* \"#utility.yul\":21660:21663   */\n      0x00\n        /* \"#utility.yul\":21681:21748   */\n      tag_454\n        /* \"#utility.yul\":21745:21747   */\n      0x26\n        /* \"#utility.yul\":21740:21743   */\n      dup4\n        /* \"#utility.yul\":21681:21748   */\n      tag_216\n      jump\t// in\n    tag_454:\n        /* \"#utility.yul\":21674:21748   */\n      swap2\n      pop\n        /* \"#utility.yul\":21757:21850   */\n      tag_455\n        /* \"#utility.yul\":21846:21849   */\n      dup3\n        /* \"#utility.yul\":21757:21850   */\n      tag_235\n      jump\t// in\n    tag_455:\n        /* \"#utility.yul\":21875:21877   */\n      0x40\n        /* \"#utility.yul\":21870:21873   */\n      dup3\n        /* \"#utility.yul\":21866:21878   */\n      add\n        /* \"#utility.yul\":21859:21878   */\n      swap1\n      pop\n        /* \"#utility.yul\":21518:21884   */\n      swap2\n      swap1\n      pop\n      jump\t// out\n        /* \"#utility.yul\":21890:22309   */\n    tag_145:\n        /* \"#utility.yul\":22056:22060   */\n      0x00\n        /* \"#utility.yul\":22094:22096   */\n      0x20\n        /* \"#utility.yul\":22083:22092   */\n      dup3\n        /* \"#utility.yul\":22079:22097   */\n      add\n        /* \"#utility.yul\":22071:22097   */\n      swap1\n      pop\n        /* \"#utility.yul\":22143:22152   */\n      dup2\n        /* \"#utility.yul\":22137:22141   */\n      dup2\n        /* \"#utility.yul\":22133:22153   */\n      sub\n        /* \"#utility.yul\":22129:22130   */\n      0x00\n        /* \"#utility.yul\":22118:22127   */\n      dup4\n        /* \"#utility.yul\":22114:22131   */\n      add\n        /* \"#utility.yul\":22107:22154   */\n      mstore\n        /* \"#utility.yul\":22171:22302   */\n      tag_457\n        /* \"#utility.yul\":22297:22301   */\n      dup2\n        /* \"#utility.yul\":22171:22302   */\n      tag_236\n      jump\t// in\n    tag_457:\n        /* \"#utility.yul\":22163:22302   */\n      swap1\n      pop\n        /* \"#utility.yul\":21890:22309   */\n      swap2\n      swap1\n      pop\n      jump\t// out\n        /* \"#utility.yul\":22315:22538   */\n    tag_237:\n        /* \"#utility.yul\":22455:22489   */\n      0x5365206465626520636f6d7072617220616c206d656e6f7320312046756e6454\n        /* \"#utility.yul\":22451:22452   */\n      0x00\n        /* \"#utility.yul\":22443:22449   */\n      dup3\n        /* \"#utility.yul\":22439:22453   */\n      add\n        /* \"#utility.yul\":22432:22490   */\n      mstore\n        /* \"#utility.yul\":22524:22530   */\n      0x6f6b656e00000000000000000000000000000000000000000000000000000000\n        /* \"#utility.yul\":22519:22521   */\n      0x20\n        /* \"#utility.yul\":22511:22517   */\n      dup3\n        /* \"#utility.yul\":22507:22522   */\n      add\n        /* \"#utility.yul\":22500:22531   */\n      mstore\n        /* \"#utility.yul\":22315:22538   */\n      pop\n      jump\t// out\n        /* \"#utility.yul\":22544:22910   */\n    tag_238:\n        /* \"#utility.yul\":22686:22689   */\n      0x00\n        /* \"#utility.yul\":22707:22774   */\n      tag_460\n        /* \"#utility.yul\":22771:22773   */\n      0x24\n        /* \"#utility.yul\":22766:22769   */\n      dup4\n        /* \"#utility.yul\":22707:22774   */\n      tag_216\n      jump\t// in\n    tag_460:\n        /* \"#utility.yul\":22700:22774   */\n      swap2\n      pop\n        /* \"#utility.yul\":22783:22876   */\n      tag_461\n        /* \"#utility.yul\":22872:22875   */\n      dup3\n        /* \"#utility.yul\":22783:22876   */\n      tag_237\n      jump\t// in\n    tag_461:\n        /* \"#utility.yul\":22901:22903   */\n      0x40\n        /* \"#utility.yul\":22896:22899   */\n      dup3\n        /* \"#utility.yul\":22892:22904   */\n      add\n        /* \"#utility.yul\":22885:22904   */\n      swap1\n      pop\n        /* \"#utility.yul\":22544:22910   */\n      swap2\n      swap1\n      pop\n      jump\t// out\n        /* \"#utility.yul\":22916:23335   */\n    tag_150:\n        /* \"#utility.yul\":23082:23086   */\n      0x00\n        /* \"#utility.yul\":23120:23122   */\n      0x20\n        /* \"#utility.yul\":23109:23118   */\n      dup3\n        /* \"#utility.yul\":23105:23123   */\n      add\n        /* \"#utility.yul\":23097:23123   */\n      swap1\n      pop\n        /* \"#utility.yul\":23169:23178   */\n      dup2\n        /* \"#utility.yul\":23163:23167   */\n      dup2\n        /* \"#utility.yul\":23159:23179   */\n      sub\n        /* \"#utility.yul\":23155:23156   */\n      0x00\n        /* \"#utility.yul\":23144:23153   */\n      dup4\n        /* \"#utility.yul\":23140:23157   */\n      add\n        /* \"#utility.yul\":23133:23180   */\n      mstore\n        /* \"#utility.yul\":23197:23328   */\n      tag_463\n        /* \"#utility.yul\":23323:23327   */\n      dup2\n        /* \"#utility.yul\":23197:23328   */\n      tag_238\n      jump\t// in\n    tag_463:\n        /* \"#utility.yul\":23189:23328   */\n      swap1\n      pop\n        /* \"#utility.yul\":22916:23335   */\n      swap2\n      swap1\n      pop\n      jump\t// out\n        /* \"#utility.yul\":23341:23521   */\n    tag_239:\n        /* \"#utility.yul\":23389:23466   */\n      0x4e487b7100000000000000000000000000000000000000000000000000000000\n        /* \"#utility.yul\":23386:23387   */\n      0x00\n        /* \"#utility.yul\":23379:23467   */\n      mstore\n        /* \"#utility.yul\":23486:23490   */\n      0x11\n        /* \"#utility.yul\":23483:23484   */\n      0x04\n        /* \"#utility.yul\":23476:23491   */\n      mstore\n        /* \"#utility.yul\":23510:23514   */\n      0x24\n        /* \"#utility.yul\":23507:23508   */\n      0x00\n        /* \"#utility.yul\":23500:23515   */\n      revert\n        /* \"#utility.yul\":23527:23875   */\n    tag_152:\n        /* \"#utility.yul\":23567:23574   */\n      0x00\n        /* \"#utility.yul\":23590:23610   */\n      tag_466\n        /* \"#utility.yul\":23608:23609   */\n      dup3\n        /* \"#utility.yul\":23590:23610   */\n      tag_173\n      jump\t// in\n    tag_466:\n        /* \"#utility.yul\":23585:23610   */\n      swap2\n      pop\n        /* \"#utility.yul\":23624:23644   */\n      tag_467\n        /* \"#utility.yul\":23642:23643   */\n      dup4\n        /* \"#utility.yul\":23624:23644   */\n      tag_173\n      jump\t// in\n    tag_467:\n        /* \"#utility.yul\":23619:23644   */\n      swap3\n      pop\n        /* \"#utility.yul\":23812:23813   */\n      dup2\n        /* \"#utility.yul\":23744:23810   */\n      0xffffffffffffffffffffffffffffffffffffffffffffffffffffffffffffffff\n        /* \"#utility.yul\":23740:23814   */\n      div\n        /* \"#utility.yul\":23737:23738   */\n      dup4\n        /* \"#utility.yul\":23734:23815   */\n      gt\n        /* \"#utility.yul\":23729:23730   */\n      dup3\n        /* \"#utility.yul\":23722:23731   */\n      iszero\n        /* \"#utility.yul\":23715:23732   */\n      iszero\n        /* \"#utility.yul\":23711:23816   */\n      and\n        /* \"#utility.yul\":23708:23839   */\n      iszero\n      tag_468\n      jumpi\n        /* \"#utility.yul\":23819:23837   */\n      tag_469\n      tag_239\n      jump\t// in\n    tag_469:\n        /* \"#utility.yul\":23708:23839   */\n    tag_468:\n        /* \"#utility.yul\":23867:23868   */\n      dup3\n        /* \"#utility.yul\":23864:23865   */\n      dup3\n        /* \"#utility.yul\":23860:23869   */\n      mul\n        /* \"#utility.yul\":23849:23869   */\n      swap1\n      pop\n        /* \"#utility.yul\":23527:23875   */\n      swap3\n      swap2\n      pop\n      pop\n      jump\t// out\n        /* \"#utility.yul\":23881:24048   */\n    tag_240:\n        /* \"#utility.yul\":24021:24040   */\n      0x5061676f20696e737566696369656e7465000000000000000000000000000000\n        /* \"#utility.yul\":24017:24018   */\n      0x00\n        /* \"#utility.yul\":24009:24015   */\n      dup3\n        /* \"#utility.yul\":24005:24019   */\n      add\n        /* \"#utility.yul\":23998:24041   */\n      mstore\n        /* \"#utility.yul\":23881:24048   */\n      pop\n      jump\t// out\n        /* \"#utility.yul\":24054:24420   */\n    tag_241:\n        /* \"#utility.yul\":24196:24199   */\n      0x00\n        /* \"#utility.yul\":24217:24284   */\n      tag_472\n        /* \"#utility.yul\":24281:24283   */\n      0x11\n        /* \"#utility.yul\":24276:24279   */\n      dup4\n        /* \"#utility.yul\":24217:24284   */\n      tag_216\n      jump\t// in\n    tag_472:\n        /* \"#utility.yul\":24210:24284   */\n      swap2\n      pop\n        /* \"#utility.yul\":24293:24386   */\n      tag_473\n        /* \"#utility.yul\":24382:24385   */\n      dup3\n        /* \"#utility.yul\":24293:24386   */\n      tag_240\n      jump\t// in\n    tag_473:\n        /* \"#utility.yul\":24411:24413   */\n      0x20\n        /* \"#utility.yul\":24406:24409   */\n      dup3\n        /* \"#utility.yul\":24402:24414   */\n      add\n        /* \"#utility.yul\":24395:24414   */\n      swap1\n      pop\n        /* \"#utility.yul\":24054:24420   */\n      swap2\n      swap1\n      pop\n      jump\t// out\n        /* \"#utility.yul\":24426:24845   */\n    tag_155:\n        /* \"#utility.yul\":24592:24596   */\n      0x00\n        /* \"#utility.yul\":24630:24632   */\n      0x20\n        /* \"#utility.yul\":24619:24628   */\n      dup3\n        /* \"#utility.yul\":24615:24633   */\n      add\n        /* \"#utility.yul\":24607:24633   */\n      swap1\n      pop\n        /* \"#utility.yul\":24679:24688   */\n      dup2\n        /* \"#utility.yul\":24673:24677   */\n      dup2\n        /* \"#utility.yul\":24669:24689   */\n      sub\n        /* \"#utility.yul\":24665:24666   */\n      0x00\n        /* \"#utility.yul\":24654:24663   */\n      dup4\n        /* \"#utility.yul\":24650:24667   */\n      add\n        /* \"#utility.yul\":24643:24690   */\n      mstore\n        /* \"#utility.yul\":24707:24838   */\n      tag_475\n        /* \"#utility.yul\":24833:24837   */\n      dup2\n        /* \"#utility.yul\":24707:24838   */\n      tag_241\n      jump\t// in\n    tag_475:\n        /* \"#utility.yul\":24699:24838   */\n      swap1\n      pop\n        /* \"#utility.yul\":24426:24845   */\n      swap2\n      swap1\n      pop\n      jump\t// out\n        /* \"#utility.yul\":24851:25042   */\n    tag_161:\n        /* \"#utility.yul\":24891:24894   */\n      0x00\n        /* \"#utility.yul\":24910:24930   */\n      tag_477\n        /* \"#utility.yul\":24928:24929   */\n      dup3\n        /* \"#utility.yul\":24910:24930   */\n      tag_173\n      jump\t// in\n    tag_477:\n        /* \"#utility.yul\":24905:24930   */\n      swap2\n      pop\n        /* \"#utility.yul\":24944:24964   */\n      tag_478\n        /* \"#utility.yul\":24962:24963   */\n      dup4\n        /* \"#utility.yul\":24944:24964   */\n      tag_173\n      jump\t// in\n    tag_478:\n        /* \"#utility.yul\":24939:24964   */\n      swap3\n      pop\n        /* \"#utility.yul\":24987:24988   */\n      dup3\n        /* \"#utility.yul\":24984:24985   */\n      dup3\n        /* \"#utility.yul\":24980:24989   */\n      add\n        /* \"#utility.yul\":24973:24989   */\n      swap1\n      pop\n        /* \"#utility.yul\":25008:25011   */\n      dup1\n        /* \"#utility.yul\":25005:25006   */\n      dup3\n        /* \"#utility.yul\":25002:25012   */\n      gt\n        /* \"#utility.yul\":24999:25035   */\n      iszero\n      tag_479\n      jumpi\n        /* \"#utility.yul\":25015:25033   */\n      tag_480\n      tag_239\n      jump\t// in\n    tag_480:\n        /* \"#utility.yul\":24999:25035   */\n    tag_479:\n        /* \"#utility.yul\":24851:25042   */\n      swap3\n      swap2\n      pop\n      pop\n      jump\t// out\n        /* \"#utility.yul\":25048:25380   */\n    tag_163:\n        /* \"#utility.yul\":25169:25173   */\n      0x00\n        /* \"#utility.yul\":25207:25209   */\n      0x40\n        /* \"#utility.yul\":25196:25205   */\n      dup3\n        /* \"#utility.yul\":25192:25210   */\n      add\n        /* \"#utility.yul\":25184:25210   */\n      swap1\n      pop\n        /* \"#utility.yul\":25220:25291   */\n      tag_482\n        /* \"#utility.yul\":25288:25289   */\n      0x00\n        /* \"#utility.yul\":25277:25286   */\n      dup4\n        /* \"#utility.yul\":25273:25290   */\n      add\n        /* \"#utility.yul\":25264:25270   */\n      dup6\n        /* \"#utility.yul\":25220:25291   */\n      tag_174\n      jump\t// in\n    tag_482:\n        /* \"#utility.yul\":25301:25373   */\n      tag_483\n        /* \"#utility.yul\":25369:25371   */\n      0x20\n        /* \"#utility.yul\":25358:25367   */\n      dup4\n        /* \"#utility.yul\":25354:25372   */\n      add\n        /* \"#utility.yul\":25345:25351   */\n      dup5\n        /* \"#utility.yul\":25301:25373   */\n      tag_174\n      jump\t// in\n    tag_483:\n        /* \"#utility.yul\":25048:25380   */\n      swap4\n      swap3\n      pop\n      pop\n      pop\n      jump\t// out\n        /* \"#utility.yul\":25386:25568   */\n    tag_242:\n        /* \"#utility.yul\":25526:25560   */\n      0x4f776e61626c653a2063616c6c6572206973206e6f7420746865206f776e6572\n        /* \"#utility.yul\":25522:25523   */\n      0x00\n        /* \"#utility.yul\":25514:25520   */\n      dup3\n        /* \"#utility.yul\":25510:25524   */\n      add\n        /* \"#utility.yul\":25503:25561   */\n      mstore\n        /* \"#utility.yul\":25386:25568   */\n      pop\n      jump\t// out\n        /* \"#utility.yul\":25574:25940   */\n    tag_243:\n        /* \"#utility.yul\":25716:25719   */\n      0x00\n        /* \"#utility.yul\":25737:25804   */\n      tag_486\n        /* \"#utility.yul\":25801:25803   */\n      0x20\n        /* \"#utility.yul\":25796:25799   */\n      dup4\n        /* \"#utility.yul\":25737:25804   */\n      tag_216\n      jump\t// in\n    tag_486:\n        /* \"#utility.yul\":25730:25804   */\n      swap2\n      pop\n        /* \"#utility.yul\":25813:25906   */\n      tag_487\n        /* \"#utility.yul\":25902:25905   */\n      dup3\n        /* \"#utility.yul\":25813:25906   */\n      tag_242\n      jump\t// in\n    tag_487:\n        /* \"#utility.yul\":25931:25933   */\n      0x20\n        /* \"#utility.yul\":25926:25929   */\n      dup3\n        /* \"#utility.yul\":25922:25934   */\n      add\n        /* \"#utility.yul\":25915:25934   */\n      swap1\n      pop\n        /* \"#utility.yul\":25574:25940   */\n      swap2\n      swap1\n      pop\n      jump\t// out\n        /* \"#utility.yul\":25946:26365   */\n    tag_170:\n        /* \"#utility.yul\":26112:26116   */\n      0x00\n        /* \"#utility.yul\":26150:26152   */\n      0x20\n        /* \"#utility.yul\":26139:26148   */\n      dup3\n        /* \"#utility.yul\":26135:26153   */\n      add\n        /* \"#utility.yul\":26127:26153   */\n      swap1\n      pop\n        /* \"#utility.yul\":26199:26208   */\n      dup2\n        /* \"#utility.yul\":26193:26197   */\n      dup2\n        /* \"#utility.yul\":26189:26209   */\n      sub\n        /* \"#utility.yul\":26185:26186   */\n      0x00\n        /* \"#utility.yul\":26174:26183   */\n      dup4\n        /* \"#utility.yul\":26170:26187   */\n      add\n        /* \"#utility.yul\":26163:26210   */\n      mstore\n        /* \"#utility.yul\":26227:26358   */\n      tag_489\n        /* \"#utility.yul\":26353:26357   */\n      dup2\n        /* \"#utility.yul\":26227:26358   */\n      tag_243\n      jump\t// in\n    tag_489:\n        /* \"#utility.yul\":26219:26358   */\n      swap1\n      pop\n        /* \"#utility.yul\":25946:26365   */\n      swap2\n      swap1\n      pop\n      jump\t// out\n    stop\n\n    sub_0: assembly {\n            /* \"Fund.sol\":280:10886   */\n          mstore(0x40, 0x01a0)\n            /* \"Fund.sol\":770:785   */\n          timestamp\n            /* \"Fund.sol\":733:785   */\n          0xa0\n          swap1\n          dup2\n          mstore\n          pop\n            /* \"Fund.sol\":2269:3425   */\n          callvalue\n          dup1\n          iszero\n          tag_1\n          jumpi\n          0x00\n          dup1\n          revert\n        tag_1:\n          pop\n          mload(0x40)\n          sub(codesize, bytecodeSize)\n          dup1\n          bytecodeSize\n          dup4\n          codecopy\n          dup2\n          dup2\n          add\n          0x40\n          mstore\n          dup2\n          add\n          swap1\n          tag_2\n          swap2\n          swap1\n          tag_3\n          jump\t// in\n        tag_2:\n            /* \"@openzeppelin/contracts/security/ReentrancyGuard.sol\":1701:1702   */\n          0x01\n            /* \"@openzeppelin/contracts/security/ReentrancyGuard.sol\":1806:1813   */\n          0x00\n            /* \"@openzeppelin/contracts/security/ReentrancyGuard.sol\":1806:1828   */\n          dup2\n          swap1\n          sstore\n          pop\n            /* \"Fund.sol\":2699:2704   */\n          dup10\n            /* \"Fund.sol\":2692:2696   */\n          0x01\n            /* \"Fund.sol\":2692:2704   */\n          swap1\n          dup2\n          tag_8\n          swap2\n          swap1\n          tag_9\n          jump\t// in\n        tag_8:\n          pop\n            /* \"Fund.sol\":2721:2729   */\n          dup9\n            /* \"Fund.sol\":2711:2729   */\n          0xffffffffffffffffffffffffffffffffffffffff\n          and\n          0x80\n          dup2\n          0xffffffffffffffffffffffffffffffffffffffff\n          and\n          dup2\n          mstore\n          pop\n          pop\n            /* \"Fund.sol\":2741:2750   */\n          0x00\n            /* \"Fund.sol\":2736:2903   */\n        tag_10:\n            /* \"Fund.sol\":2756:2765   */\n          dup9\n            /* \"Fund.sol\":2756:2772   */\n          mload\n            /* \"Fund.sol\":2752:2753   */\n          dup2\n            /* \"Fund.sol\":2752:2772   */\n          lt\n            /* \"Fund.sol\":2736:2903   */\n          iszero\n          tag_11\n          jumpi\n            /* \"Fund.sol\":2785:2793   */\n          0x02\n            /* \"Fund.sol\":2799:2808   */\n          dup10\n            /* \"Fund.sol\":2809:2810   */\n          dup3\n            /* \"Fund.sol\":2799:2811   */\n          dup2\n          mload\n          dup2\n          lt\n          tag_13\n          jumpi\n          tag_14\n          tag_15\n          jump\t// in\n        tag_14:\n        tag_13:\n          0x20\n          mul\n          0x20\n          add\n          add\n          mload\n            /* \"Fund.sol\":2785:2812   */\n          swap1\n          dup1\n          0x01\n          dup2\n          sload\n          add\n          dup1\n          dup3\n          sstore\n          dup1\n          swap2\n          pop\n          pop\n          0x01\n          swap1\n          sub\n          swap1\n          0x00\n          mstore\n          keccak256(0x00, 0x20)\n          add\n          0x00\n          swap1\n          swap2\n          swap1\n          swap2\n          swap1\n          swap2\n          0x0100\n          exp\n          dup2\n          sload\n          dup2\n          0xffffffffffffffffffffffffffffffffffffffff\n          mul\n          not\n          and\n          swap1\n          dup4\n          0xffffffffffffffffffffffffffffffffffffffff\n          and\n          mul\n          or\n          swap1\n          sstore\n          pop\n            /* \"Fund.sol\":2847:2851   */\n          0x01\n            /* \"Fund.sol\":2821:2830   */\n          0x03\n            /* \"Fund.sol\":2821:2844   */\n          0x00\n            /* \"Fund.sol\":2831:2840   */\n          dup12\n            /* \"Fund.sol\":2841:2842   */\n          dup5\n            /* \"Fund.sol\":2831:2843   */\n          dup2\n          mload\n          dup2\n          lt\n          tag_17\n          jumpi\n          tag_18\n          tag_15\n          jump\t// in\n        tag_18:\n        tag_17:\n          0x20\n          mul\n          0x20\n          add\n          add\n          mload\n            /* \"Fund.sol\":2821:2844   */\n          0xffffffffffffffffffffffffffffffffffffffff\n          and\n          0xffffffffffffffffffffffffffffffffffffffff\n          and\n          dup2\n          mstore\n          0x20\n          add\n          swap1\n          dup2\n          mstore\n          0x20\n          add\n          0x00\n          keccak256\n          0x00\n            /* \"Fund.sol\":2821:2851   */\n          0x0100\n          exp\n          dup2\n          sload\n          dup2\n          0xff\n          mul\n          not\n          and\n          swap1\n          dup4\n          iszero\n          iszero\n          mul\n          or\n          swap1\n          sstore\n          pop\n            /* \"Fund.sol\":2883:2886   */\n          dup1\n          dup1\n          0x01\n          add\n          swap2\n          pop\n          pop\n            /* \"Fund.sol\":2736:2903   */\n          jump(tag_10)\n        tag_11:\n          pop\n            /* \"Fund.sol\":2939:2967   */\n          dup7\n            /* \"Fund.sol\":2909:2967   */\n          iszero\n          iszero\n          0xc0\n          dup2\n          iszero\n          iszero\n          dup2\n          mstore\n          pop\n          pop\n            /* \"Fund.sol\":3016:3056   */\n          dup6\n            /* \"Fund.sol\":2974:3056   */\n          iszero\n          iszero\n          0xe0\n          dup2\n          iszero\n          iszero\n          dup2\n          mstore\n          pop\n          pop\n            /* \"Fund.sol\":3086:3107   */\n          dup5\n            /* \"Fund.sol\":3063:3107   */\n          iszero\n          iszero\n          0x0100\n          dup2\n          iszero\n          iszero\n          dup2\n          mstore\n          pop\n          pop\n            /* \"Fund.sol\":3146:3176   */\n          dup4\n            /* \"Fund.sol\":3114:3176   */\n          iszero\n          iszero\n          0x0120\n          dup2\n          iszero\n          iszero\n          dup2\n          mstore\n          pop\n          pop\n            /* \"Fund.sol\":3220:3255   */\n          dup3\n            /* \"Fund.sol\":3183:3255   */\n          iszero\n          iszero\n          0x0140\n          dup2\n          iszero\n          iszero\n          dup2\n          mstore\n          pop\n          pop\n            /* \"Fund.sol\":3302:3340   */\n          dup2\n            /* \"Fund.sol\":3262:3340   */\n          0x0160\n          dup2\n          dup2\n          mstore\n          pop\n          pop\n            /* \"Fund.sol\":3384:3419   */\n          dup1\n            /* \"Fund.sol\":3347:3419   */\n          0x0180\n          dup2\n          dup2\n          mstore\n          pop\n          pop\n            /* \"Fund.sol\":2269:3425   */\n          pop\n          pop\n          pop\n          pop\n          pop\n          pop\n          pop\n          pop\n          pop\n          pop\n            /* \"Fund.sol\":280:10886   */\n          jump(tag_19)\n            /* \"#utility.yul\":7:82   */\n        tag_20:\n            /* \"#utility.yul\":40:46   */\n          0x00\n            /* \"#utility.yul\":73:75   */\n          0x40\n            /* \"#utility.yul\":67:76   */\n          mload\n            /* \"#utility.yul\":57:76   */\n          swap1\n          pop\n            /* \"#utility.yul\":7:82   */\n          swap1\n          jump\t// out\n            /* \"#utility.yul\":88:205   */\n        tag_21:\n            /* \"#utility.yul\":197:198   */\n          0x00\n            /* \"#utility.yul\":194:195   */\n          dup1\n            /* \"#utility.yul\":187:199   */\n          revert\n            /* \"#utility.yul\":211:328   */\n        tag_22:\n            /* \"#utility.yul\":320:321   */\n          0x00\n            /* \"#utility.yul\":317:318   */\n          dup1\n            /* \"#utility.yul\":310:322   */\n          revert\n            /* \"#utility.yul\":334:451   */\n        tag_23:\n            /* \"#utility.yul\":443:444   */\n          0x00\n            /* \"#utility.yul\":440:441   */\n          dup1\n            /* \"#utility.yul\":433:445   */\n          revert\n            /* \"#utility.yul\":457:574   */\n        tag_24:\n            /* \"#utility.yul\":566:567   */\n          0x00\n            /* \"#utility.yul\":563:564   */\n          dup1\n            /* \"#utility.yul\":556:568   */\n          revert\n            /* \"#utility.yul\":580:682   */\n        tag_25:\n            /* \"#utility.yul\":621:627   */\n          0x00\n            /* \"#utility.yul\":672:674   */\n          0x1f\n            /* \"#utility.yul\":668:675   */\n          not\n            /* \"#utility.yul\":663:665   */\n          0x1f\n            /* \"#utility.yul\":656:661   */\n          dup4\n            /* \"#utility.yul\":652:666   */\n          add\n            /* \"#utility.yul\":648:676   */\n          and\n            /* \"#utility.yul\":638:676   */\n          swap1\n          pop\n            /* \"#utility.yul\":580:682   */\n          swap2\n          swap1\n          pop\n          jump\t// out\n            /* \"#utility.yul\":688:868   */\n        tag_26:\n            /* \"#utility.yul\":736:813   */\n          0x4e487b7100000000000000000000000000000000000000000000000000000000\n            /* \"#utility.yul\":733:734   */\n          0x00\n            /* \"#utility.yul\":726:814   */\n          mstore\n            /* \"#utility.yul\":833:837   */\n          0x41\n            /* \"#utility.yul\":830:831   */\n          0x04\n            /* \"#utility.yul\":823:838   */\n          mstore\n            /* \"#utility.yul\":857:861   */\n          0x24\n            /* \"#utility.yul\":854:855   */\n          0x00\n            /* \"#utility.yul\":847:862   */\n          revert\n            /* \"#utility.yul\":874:1155   */\n        tag_27:\n            /* \"#utility.yul\":957:984   */\n          tag_74\n            /* \"#utility.yul\":979:983   */\n          dup3\n            /* \"#utility.yul\":957:984   */\n          tag_25\n          jump\t// in\n        tag_74:\n            /* \"#utility.yul\":949:955   */\n          dup2\n            /* \"#utility.yul\":945:985   */\n          add\n            /* \"#utility.yul\":1087:1093   */\n          dup2\n            /* \"#utility.yul\":1075:1085   */\n          dup2\n            /* \"#utility.yul\":1072:1094   */\n          lt\n            /* \"#utility.yul\":1051:1069   */\n          0xffffffffffffffff\n            /* \"#utility.yul\":1039:1049   */\n          dup3\n            /* \"#utility.yul\":1036:1070   */\n          gt\n            /* \"#utility.yul\":1033:1095   */\n          or\n            /* \"#utility.yul\":1030:1118   */\n          iszero\n          tag_75\n          jumpi\n            /* \"#utility.yul\":1098:1116   */\n          tag_76\n          tag_26\n          jump\t// in\n        tag_76:\n            /* \"#utility.yul\":1030:1118   */\n        tag_75:\n            /* \"#utility.yul\":1138:1148   */\n          dup1\n            /* \"#utility.yul\":1134:1136   */\n          0x40\n            /* \"#utility.yul\":1127:1149   */\n          mstore\n            /* \"#utility.yul\":917:1155   */\n          pop\n            /* \"#utility.yul\":874:1155   */\n          pop\n          pop\n          jump\t// out\n            /* \"#utility.yul\":1161:1290   */\n        tag_28:\n            /* \"#utility.yul\":1195:1201   */\n          0x00\n            /* \"#utility.yul\":1222:1242   */\n          tag_78\n          tag_20\n          jump\t// in\n        tag_78:\n            /* \"#utility.yul\":1212:1242   */\n          swap1\n          pop\n            /* \"#utility.yul\":1251:1284   */\n          tag_79\n            /* \"#utility.yul\":1279:1283   */\n          dup3\n            /* \"#utility.yul\":1271:1277   */\n          dup3\n            /* \"#utility.yul\":1251:1284   */\n          tag_27\n          jump\t// in\n        tag_79:\n            /* \"#utility.yul\":1161:1290   */\n          swap2\n          swap1\n          pop\n          jump\t// out\n            /* \"#utility.yul\":1296:1604   */\n        tag_29:\n            /* \"#utility.yul\":1358:1362   */\n          0x00\n            /* \"#utility.yul\":1448:1466   */\n          0xffffffffffffffff\n            /* \"#utility.yul\":1440:1446   */\n          dup3\n            /* \"#utility.yul\":1437:1467   */\n          gt\n            /* \"#utility.yul\":1434:1490   */\n          iszero\n          tag_81\n          jumpi\n            /* \"#utility.yul\":1470:1488   */\n          tag_82\n          tag_26\n          jump\t// in\n        tag_82:\n            /* \"#utility.yul\":1434:1490   */\n        tag_81:\n            /* \"#utility.yul\":1508:1537   */\n          tag_83\n            /* \"#utility.yul\":1530:1536   */\n          dup3\n            /* \"#utility.yul\":1508:1537   */\n          tag_25\n          jump\t// in\n        tag_83:\n            /* \"#utility.yul\":1500:1537   */\n          swap1\n          pop\n            /* \"#utility.yul\":1592:1596   */\n          0x20\n            /* \"#utility.yul\":1586:1590   */\n          dup2\n            /* \"#utility.yul\":1582:1597   */\n          add\n            /* \"#utility.yul\":1574:1597   */\n          swap1\n          pop\n            /* \"#utility.yul\":1296:1604   */\n          swap2\n          swap1\n          pop\n          jump\t// out\n            /* \"#utility.yul\":1610:1856   */\n        tag_30:\n            /* \"#utility.yul\":1691:1692   */\n          0x00\n            /* \"#utility.yul\":1701:1814   */\n        tag_85:\n            /* \"#utility.yul\":1715:1721   */\n          dup4\n            /* \"#utility.yul\":1712:1713   */\n          dup2\n            /* \"#utility.yul\":1709:1722   */\n          lt\n            /* \"#utility.yul\":1701:1814   */\n          iszero\n          tag_87\n          jumpi\n            /* \"#utility.yul\":1800:1801   */\n          dup1\n            /* \"#utility.yul\":1795:1798   */\n          dup3\n            /* \"#utility.yul\":1791:1802   */\n          add\n            /* \"#utility.yul\":1785:1803   */\n          mload\n            /* \"#utility.yul\":1781:1782   */\n          dup2\n            /* \"#utility.yul\":1776:1779   */\n          dup5\n            /* \"#utility.yul\":1772:1783   */\n          add\n            /* \"#utility.yul\":1765:1804   */\n          mstore\n            /* \"#utility.yul\":1737:1739   */\n          0x20\n            /* \"#utility.yul\":1734:1735   */\n          dup2\n            /* \"#utility.yul\":1730:1740   */\n          add\n            /* \"#utility.yul\":1725:1740   */\n          swap1\n          pop\n            /* \"#utility.yul\":1701:1814   */\n          jump(tag_85)\n        tag_87:\n            /* \"#utility.yul\":1848:1849   */\n          0x00\n            /* \"#utility.yul\":1839:1845   */\n          dup5\n            /* \"#utility.yul\":1834:1837   */\n          dup5\n            /* \"#utility.yul\":1830:1846   */\n          add\n            /* \"#utility.yul\":1823:1850   */\n          mstore\n            /* \"#utility.yul\":1672:1856   */\n          pop\n            /* \"#utility.yul\":1610:1856   */\n          pop\n          pop\n          pop\n          jump\t// out\n            /* \"#utility.yul\":1862:2296   */\n        tag_31:\n            /* \"#utility.yul\":1951:1956   */\n          0x00\n            /* \"#utility.yul\":1976:2042   */\n          tag_89\n            /* \"#utility.yul\":1992:2041   */\n          tag_90\n            /* \"#utility.yul\":2034:2040   */\n          dup5\n            /* \"#utility.yul\":1992:2041   */\n          tag_29\n          jump\t// in\n        tag_90:\n            /* \"#utility.yul\":1976:2042   */\n          tag_28\n          jump\t// in\n        tag_89:\n            /* \"#utility.yul\":1967:2042   */\n          swap1\n          pop\n            /* \"#utility.yul\":2065:2071   */\n          dup3\n            /* \"#utility.yul\":2058:2063   */\n          dup2\n            /* \"#utility.yul\":2051:2072   */\n          mstore\n            /* \"#utility.yul\":2103:2107   */\n          0x20\n            /* \"#utility.yul\":2096:2101   */\n          dup2\n            /* \"#utility.yul\":2092:2108   */\n          add\n            /* \"#utility.yul\":2141:2144   */\n          dup5\n            /* \"#utility.yul\":2132:2138   */\n          dup5\n            /* \"#utility.yul\":2127:2130   */\n          dup5\n            /* \"#utility.yul\":2123:2139   */\n          add\n            /* \"#utility.yul\":2120:2145   */\n          gt\n            /* \"#utility.yul\":2117:2229   */\n          iszero\n          tag_91\n          jumpi\n            /* \"#utility.yul\":2148:2227   */\n          tag_92\n          tag_24\n          jump\t// in\n        tag_92:\n            /* \"#utility.yul\":2117:2229   */\n        tag_91:\n            /* \"#utility.yul\":2238:2290   */\n          tag_93\n            /* \"#utility.yul\":2283:2289   */\n          dup5\n            /* \"#utility.yul\":2278:2281   */\n          dup3\n            /* \"#utility.yul\":2273:2276   */\n          dup6\n            /* \"#utility.yul\":2238:2290   */\n          tag_30\n          jump\t// in\n        tag_93:\n            /* \"#utility.yul\":1957:2296   */\n          pop\n            /* \"#utility.yul\":1862:2296   */\n          swap4\n          swap3\n          pop\n          pop\n          pop\n          jump\t// out\n            /* \"#utility.yul\":2316:2671   */\n        tag_32:\n            /* \"#utility.yul\":2383:2388   */\n          0x00\n            /* \"#utility.yul\":2432:2435   */\n          dup3\n            /* \"#utility.yul\":2425:2429   */\n          0x1f\n            /* \"#utility.yul\":2417:2423   */\n          dup4\n            /* \"#utility.yul\":2413:2430   */\n          add\n            /* \"#utility.yul\":2409:2436   */\n          slt\n            /* \"#utility.yul\":2399:2521   */\n          tag_95\n          jumpi\n            /* \"#utility.yul\":2440:2519   */\n          tag_96\n          tag_23\n          jump\t// in\n        tag_96:\n            /* \"#utility.yul\":2399:2521   */\n        tag_95:\n            /* \"#utility.yul\":2550:2556   */\n          dup2\n            /* \"#utility.yul\":2544:2557   */\n          mload\n            /* \"#utility.yul\":2575:2665   */\n          tag_97\n            /* \"#utility.yul\":2661:2664   */\n          dup5\n            /* \"#utility.yul\":2653:2659   */\n          dup3\n            /* \"#utility.yul\":2646:2650   */\n          0x20\n            /* \"#utility.yul\":2638:2644   */\n          dup7\n            /* \"#utility.yul\":2634:2651   */\n          add\n            /* \"#utility.yul\":2575:2665   */\n          tag_31\n          jump\t// in\n        tag_97:\n            /* \"#utility.yul\":2566:2665   */\n          swap2\n          pop\n            /* \"#utility.yul\":2389:2671   */\n          pop\n            /* \"#utility.yul\":2316:2671   */\n          swap3\n          swap2\n          pop\n          pop\n          jump\t// out\n            /* \"#utility.yul\":2677:2803   */\n        tag_33:\n            /* \"#utility.yul\":2714:2721   */\n          0x00\n            /* \"#utility.yul\":2754:2796   */\n          0xffffffffffffffffffffffffffffffffffffffff\n            /* \"#utility.yul\":2747:2752   */\n          dup3\n            /* \"#utility.yul\":2743:2797   */\n          and\n            /* \"#utility.yul\":2732:2797   */\n          swap1\n          pop\n            /* \"#utility.yul\":2677:2803   */\n          swap2\n          swap1\n          pop\n          jump\t// out\n            /* \"#utility.yul\":2809:2905   */\n        tag_34:\n            /* \"#utility.yul\":2846:2853   */\n          0x00\n            /* \"#utility.yul\":2875:2899   */\n          tag_100\n            /* \"#utility.yul\":2893:2898   */\n          dup3\n            /* \"#utility.yul\":2875:2899   */\n          tag_33\n          jump\t// in\n        tag_100:\n            /* \"#utility.yul\":2864:2899   */\n          swap1\n          pop\n            /* \"#utility.yul\":2809:2905   */\n          swap2\n          swap1\n          pop\n          jump\t// out\n            /* \"#utility.yul\":2911:3033   */\n        tag_35:\n            /* \"#utility.yul\":2984:3008   */\n          tag_102\n            /* \"#utility.yul\":3002:3007   */\n          dup2\n            /* \"#utility.yul\":2984:3008   */\n          tag_34\n          jump\t// in\n        tag_102:\n            /* \"#utility.yul\":2977:2982   */\n          dup2\n            /* \"#utility.yul\":2974:3009   */\n          eq\n            /* \"#utility.yul\":2964:3027   */\n          tag_103\n          jumpi\n            /* \"#utility.yul\":3023:3024   */\n          0x00\n            /* \"#utility.yul\":3020:3021   */\n          dup1\n            /* \"#utility.yul\":3013:3025   */\n          revert\n            /* \"#utility.yul\":2964:3027   */\n        tag_103:\n            /* \"#utility.yul\":2911:3033   */\n          pop\n          jump\t// out\n            /* \"#utility.yul\":3039:3182   */\n        tag_36:\n            /* \"#utility.yul\":3096:3101   */\n          0x00\n            /* \"#utility.yul\":3127:3133   */\n          dup2\n            /* \"#utility.yul\":3121:3134   */\n          mload\n            /* \"#utility.yul\":3112:3134   */\n          swap1\n          pop\n            /* \"#utility.yul\":3143:3176   */\n          tag_105\n            /* \"#utility.yul\":3170:3175   */\n          dup2\n            /* \"#utility.yul\":3143:3176   */\n          tag_35\n          jump\t// in\n        tag_105:\n            /* \"#utility.yul\":3039:3182   */\n          swap3\n          swap2\n          pop\n          pop\n          jump\t// out\n            /* \"#utility.yul\":3188:3499   */\n        tag_37:\n            /* \"#utility.yul\":3265:3269   */\n          0x00\n            /* \"#utility.yul\":3355:3373   */\n          0xffffffffffffffff\n            /* \"#utility.yul\":3347:3353   */\n          dup3\n            /* \"#utility.yul\":3344:3374   */\n          gt\n            /* \"#utility.yul\":3341:3397   */\n          iszero\n          tag_107\n          jumpi\n            /* \"#utility.yul\":3377:3395   */\n          tag_108\n          tag_26\n          jump\t// in\n        tag_108:\n            /* \"#utility.yul\":3341:3397   */\n        tag_107:\n            /* \"#utility.yul\":3427:3431   */\n          0x20\n            /* \"#utility.yul\":3419:3425   */\n          dup3\n            /* \"#utility.yul\":3415:3432   */\n          mul\n            /* \"#utility.yul\":3407:3432   */\n          swap1\n          pop\n            /* \"#utility.yul\":3487:3491   */\n          0x20\n            /* \"#utility.yul\":3481:3485   */\n          dup2\n            /* \"#utility.yul\":3477:3492   */\n          add\n            /* \"#utility.yul\":3469:3492   */\n          swap1\n          pop\n            /* \"#utility.yul\":3188:3499   */\n          swap2\n          swap1\n          pop\n          jump\t// out\n            /* \"#utility.yul\":3505:3622   */\n        tag_38:\n            /* \"#utility.yul\":3614:3615   */\n          0x00\n            /* \"#utility.yul\":3611:3612   */\n          dup1\n            /* \"#utility.yul\":3604:3616   */\n          revert\n            /* \"#utility.yul\":3645:4377   */\n        tag_39:\n            /* \"#utility.yul\":3752:3757   */\n          0x00\n            /* \"#utility.yul\":3777:3858   */\n          tag_111\n            /* \"#utility.yul\":3793:3857   */\n          tag_112\n            /* \"#utility.yul\":3850:3856   */\n          dup5\n            /* \"#utility.yul\":3793:3857   */\n          tag_37\n          jump\t// in\n        tag_112:\n            /* \"#utility.yul\":3777:3858   */\n          tag_28\n          jump\t// in\n        tag_111:\n            /* \"#utility.yul\":3768:3858   */\n          swap1\n          pop\n            /* \"#utility.yul\":3878:3883   */\n          dup1\n            /* \"#utility.yul\":3907:3913   */\n          dup4\n            /* \"#utility.yul\":3900:3905   */\n          dup3\n            /* \"#utility.yul\":3893:3914   */\n          mstore\n            /* \"#utility.yul\":3941:3945   */\n          0x20\n            /* \"#utility.yul\":3934:3939   */\n          dup3\n            /* \"#utility.yul\":3930:3946   */\n          add\n            /* \"#utility.yul\":3923:3946   */\n          swap1\n          pop\n            /* \"#utility.yul\":3994:3998   */\n          0x20\n            /* \"#utility.yul\":3986:3992   */\n          dup5\n            /* \"#utility.yul\":3982:3999   */\n          mul\n            /* \"#utility.yul\":3974:3980   */\n          dup4\n            /* \"#utility.yul\":3970:4000   */\n          add\n            /* \"#utility.yul\":4023:4026   */\n          dup6\n            /* \"#utility.yul\":4015:4021   */\n          dup2\n            /* \"#utility.yul\":4012:4027   */\n          gt\n            /* \"#utility.yul\":4009:4131   */\n          iszero\n          tag_113\n          jumpi\n            /* \"#utility.yul\":4042:4121   */\n          tag_114\n          tag_38\n          jump\t// in\n        tag_114:\n            /* \"#utility.yul\":4009:4131   */\n        tag_113:\n            /* \"#utility.yul\":4157:4163   */\n          dup4\n            /* \"#utility.yul\":4140:4371   */\n        tag_115:\n            /* \"#utility.yul\":4174:4180   */\n          dup2\n            /* \"#utility.yul\":4169:4172   */\n          dup2\n            /* \"#utility.yul\":4166:4181   */\n          lt\n            /* \"#utility.yul\":4140:4371   */\n          iszero\n          tag_117\n          jumpi\n            /* \"#utility.yul\":4249:4252   */\n          dup1\n            /* \"#utility.yul\":4278:4326   */\n          tag_118\n            /* \"#utility.yul\":4322:4325   */\n          dup9\n            /* \"#utility.yul\":4310:4320   */\n          dup3\n            /* \"#utility.yul\":4278:4326   */\n          tag_36\n          jump\t// in\n        tag_118:\n            /* \"#utility.yul\":4273:4276   */\n          dup5\n            /* \"#utility.yul\":4266:4327   */\n          mstore\n            /* \"#utility.yul\":4356:4360   */\n          0x20\n            /* \"#utility.yul\":4351:4354   */\n          dup5\n            /* \"#utility.yul\":4347:4361   */\n          add\n            /* \"#utility.yul\":4340:4361   */\n          swap4\n          pop\n            /* \"#utility.yul\":4216:4371   */\n          pop\n            /* \"#utility.yul\":4200:4204   */\n          0x20\n            /* \"#utility.yul\":4195:4198   */\n          dup2\n            /* \"#utility.yul\":4191:4205   */\n          add\n            /* \"#utility.yul\":4184:4205   */\n          swap1\n          pop\n            /* \"#utility.yul\":4140:4371   */\n          jump(tag_115)\n        tag_117:\n            /* \"#utility.yul\":4144:4165   */\n          pop\n            /* \"#utility.yul\":3758:4377   */\n          pop\n          pop\n            /* \"#utility.yul\":3645:4377   */\n          swap4\n          swap3\n          pop\n          pop\n          pop\n          jump\t// out\n            /* \"#utility.yul\":4400:4785   */\n        tag_40:\n            /* \"#utility.yul\":4482:4487   */\n          0x00\n            /* \"#utility.yul\":4531:4534   */\n          dup3\n            /* \"#utility.yul\":4524:4528   */\n          0x1f\n            /* \"#utility.yul\":4516:4522   */\n          dup4\n            /* \"#utility.yul\":4512:4529   */\n          add\n            /* \"#utility.yul\":4508:4535   */\n          slt\n            /* \"#utility.yul\":4498:4620   */\n          tag_120\n          jumpi\n            /* \"#utility.yul\":4539:4618   */\n          tag_121\n          tag_23\n          jump\t// in\n        tag_121:\n            /* \"#utility.yul\":4498:4620   */\n        tag_120:\n            /* \"#utility.yul\":4649:4655   */\n          dup2\n            /* \"#utility.yul\":4643:4656   */\n          mload\n            /* \"#utility.yul\":4674:4779   */\n          tag_122\n            /* \"#utility.yul\":4775:4778   */\n          dup5\n            /* \"#utility.yul\":4767:4773   */\n          dup3\n            /* \"#utility.yul\":4760:4764   */\n          0x20\n            /* \"#utility.yul\":4752:4758   */\n          dup7\n            /* \"#utility.yul\":4748:4765   */\n          add\n            /* \"#utility.yul\":4674:4779   */\n          tag_39\n          jump\t// in\n        tag_122:\n            /* \"#utility.yul\":4665:4779   */\n          swap2\n          pop\n            /* \"#utility.yul\":4488:4785   */\n          pop\n            /* \"#utility.yul\":4400:4785   */\n          swap3\n          swap2\n          pop\n          pop\n          jump\t// out\n            /* \"#utility.yul\":4791:4881   */\n        tag_41:\n            /* \"#utility.yul\":4825:4832   */\n          0x00\n            /* \"#utility.yul\":4868:4873   */\n          dup2\n            /* \"#utility.yul\":4861:4874   */\n          iszero\n            /* \"#utility.yul\":4854:4875   */\n          iszero\n            /* \"#utility.yul\":4843:4875   */\n          swap1\n          pop\n            /* \"#utility.yul\":4791:4881   */\n          swap2\n          swap1\n          pop\n          jump\t// out\n            /* \"#utility.yul\":4887:5003   */\n        tag_42:\n            /* \"#utility.yul\":4957:4978   */\n          tag_125\n            /* \"#utility.yul\":4972:4977   */\n          dup2\n            /* \"#utility.yul\":4957:4978   */\n          tag_41\n          jump\t// in\n        tag_125:\n            /* \"#utility.yul\":4950:4955   */\n          dup2\n            /* \"#utility.yul\":4947:4979   */\n          eq\n            /* \"#utility.yul\":4937:4997   */\n          tag_126\n          jumpi\n            /* \"#utility.yul\":4993:4994   */\n          0x00\n            /* \"#utility.yul\":4990:4991   */\n          dup1\n            /* \"#utility.yul\":4983:4995   */\n          revert\n            /* \"#utility.yul\":4937:4997   */\n        tag_126:\n            /* \"#utility.yul\":4887:5003   */\n          pop\n          jump\t// out\n            /* \"#utility.yul\":5009:5146   */\n        tag_43:\n            /* \"#utility.yul\":5063:5068   */\n          0x00\n            /* \"#utility.yul\":5094:5100   */\n          dup2\n            /* \"#utility.yul\":5088:5101   */\n          mload\n            /* \"#utility.yul\":5079:5101   */\n          swap1\n          pop\n            /* \"#utility.yul\":5110:5140   */\n          tag_128\n            /* \"#utility.yul\":5134:5139   */\n          dup2\n            /* \"#utility.yul\":5110:5140   */\n          tag_42\n          jump\t// in\n        tag_128:\n            /* \"#utility.yul\":5009:5146   */\n          swap3\n          swap2\n          pop\n          pop\n          jump\t// out\n            /* \"#utility.yul\":5152:5229   */\n        tag_44:\n            /* \"#utility.yul\":5189:5196   */\n          0x00\n            /* \"#utility.yul\":5218:5223   */\n          dup2\n            /* \"#utility.yul\":5207:5223   */\n          swap1\n          pop\n            /* \"#utility.yul\":5152:5229   */\n          swap2\n          swap1\n          pop\n          jump\t// out\n            /* \"#utility.yul\":5235:5357   */\n        tag_45:\n            /* \"#utility.yul\":5308:5332   */\n          tag_131\n            /* \"#utility.yul\":5326:5331   */\n          dup2\n            /* \"#utility.yul\":5308:5332   */\n          tag_44\n          jump\t// in\n        tag_131:\n            /* \"#utility.yul\":5301:5306   */\n          dup2\n            /* \"#utility.yul\":5298:5333   */\n          eq\n            /* \"#utility.yul\":5288:5351   */\n          tag_132\n          jumpi\n            /* \"#utility.yul\":5347:5348   */\n          0x00\n            /* \"#utility.yul\":5344:5345   */\n          dup1\n            /* \"#utility.yul\":5337:5349   */\n          revert\n            /* \"#utility.yul\":5288:5351   */\n        tag_132:\n            /* \"#utility.yul\":5235:5357   */\n          pop\n          jump\t// out\n            /* \"#utility.yul\":5363:5506   */\n        tag_46:\n            /* \"#utility.yul\":5420:5425   */\n          0x00\n            /* \"#utility.yul\":5451:5457   */\n          dup2\n            /* \"#utility.yul\":5445:5458   */\n          mload\n            /* \"#utility.yul\":5436:5458   */\n          swap1\n          pop\n            /* \"#utility.yul\":5467:5500   */\n          tag_134\n            /* \"#utility.yul\":5494:5499   */\n          dup2\n            /* \"#utility.yul\":5467:5500   */\n          tag_45\n          jump\t// in\n        tag_134:\n            /* \"#utility.yul\":5363:5506   */\n          swap3\n          swap2\n          pop\n          pop\n          jump\t// out\n            /* \"#utility.yul\":5512:7620   */\n        tag_3:\n            /* \"#utility.yul\":5683:5689   */\n          0x00\n            /* \"#utility.yul\":5691:5697   */\n          dup1\n            /* \"#utility.yul\":5699:5705   */\n          0x00\n            /* \"#utility.yul\":5707:5713   */\n          dup1\n            /* \"#utility.yul\":5715:5721   */\n          0x00\n            /* \"#utility.yul\":5723:5729   */\n          dup1\n            /* \"#utility.yul\":5731:5737   */\n          0x00\n            /* \"#utility.yul\":5739:5745   */\n          dup1\n            /* \"#utility.yul\":5747:5753   */\n          0x00\n            /* \"#utility.yul\":5755:5761   */\n          dup1\n            /* \"#utility.yul\":5804:5807   */\n          0x0140\n            /* \"#utility.yul\":5792:5801   */\n          dup12\n            /* \"#utility.yul\":5783:5790   */\n          dup14\n            /* \"#utility.yul\":5779:5802   */\n          sub\n            /* \"#utility.yul\":5775:5808   */\n          slt\n            /* \"#utility.yul\":5772:5892   */\n          iszero\n          tag_136\n          jumpi\n            /* \"#utility.yul\":5811:5890   */\n          tag_137\n          tag_21\n          jump\t// in\n        tag_137:\n            /* \"#utility.yul\":5772:5892   */\n        tag_136:\n            /* \"#utility.yul\":5952:5953   */\n          0x00\n            /* \"#utility.yul\":5941:5950   */\n          dup12\n            /* \"#utility.yul\":5937:5954   */\n          add\n            /* \"#utility.yul\":5931:5955   */\n          mload\n            /* \"#utility.yul\":5982:6000   */\n          0xffffffffffffffff\n            /* \"#utility.yul\":5974:5980   */\n          dup2\n            /* \"#utility.yul\":5971:6001   */\n          gt\n            /* \"#utility.yul\":5968:6085   */\n          iszero\n          tag_138\n          jumpi\n            /* \"#utility.yul\":6004:6083   */\n          tag_139\n          tag_22\n          jump\t// in\n        tag_139:\n            /* \"#utility.yul\":5968:6085   */\n        tag_138:\n            /* \"#utility.yul\":6109:6183   */\n          tag_140\n            /* \"#utility.yul\":6175:6182   */\n          dup14\n            /* \"#utility.yul\":6166:6172   */\n          dup3\n            /* \"#utility.yul\":6155:6164   */\n          dup15\n            /* \"#utility.yul\":6151:6173   */\n          add\n            /* \"#utility.yul\":6109:6183   */\n          tag_32\n          jump\t// in\n        tag_140:\n            /* \"#utility.yul\":6099:6183   */\n          swap11\n          pop\n            /* \"#utility.yul\":5902:6193   */\n          pop\n            /* \"#utility.yul\":6232:6234   */\n          0x20\n            /* \"#utility.yul\":6258:6322   */\n          tag_141\n            /* \"#utility.yul\":6314:6321   */\n          dup14\n            /* \"#utility.yul\":6305:6311   */\n          dup3\n            /* \"#utility.yul\":6294:6303   */\n          dup15\n            /* \"#utility.yul\":6290:6312   */\n          add\n            /* \"#utility.yul\":6258:6322   */\n          tag_36\n          jump\t// in\n        tag_141:\n            /* \"#utility.yul\":6248:6322   */\n          swap10\n          pop\n            /* \"#utility.yul\":6203:6332   */\n          pop\n            /* \"#utility.yul\":6392:6394   */\n          0x40\n            /* \"#utility.yul\":6381:6390   */\n          dup12\n            /* \"#utility.yul\":6377:6395   */\n          add\n            /* \"#utility.yul\":6371:6396   */\n          mload\n            /* \"#utility.yul\":6423:6441   */\n          0xffffffffffffffff\n            /* \"#utility.yul\":6415:6421   */\n          dup2\n            /* \"#utility.yul\":6412:6442   */\n          gt\n            /* \"#utility.yul\":6409:6526   */\n          iszero\n          tag_142\n          jumpi\n            /* \"#utility.yul\":6445:6524   */\n          tag_143\n          tag_22\n          jump\t// in\n        tag_143:\n            /* \"#utility.yul\":6409:6526   */\n        tag_142:\n            /* \"#utility.yul\":6550:6639   */\n          tag_144\n            /* \"#utility.yul\":6631:6638   */\n          dup14\n            /* \"#utility.yul\":6622:6628   */\n          dup3\n            /* \"#utility.yul\":6611:6620   */\n          dup15\n            /* \"#utility.yul\":6607:6629   */\n          add\n            /* \"#utility.yul\":6550:6639   */\n          tag_40\n          jump\t// in\n        tag_144:\n            /* \"#utility.yul\":6540:6639   */\n          swap9\n          pop\n            /* \"#utility.yul\":6342:6649   */\n          pop\n            /* \"#utility.yul\":6688:6690   */\n          0x60\n            /* \"#utility.yul\":6714:6775   */\n          tag_145\n            /* \"#utility.yul\":6767:6774   */\n          dup14\n            /* \"#utility.yul\":6758:6764   */\n          dup3\n            /* \"#utility.yul\":6747:6756   */\n          dup15\n            /* \"#utility.yul\":6743:6765   */\n          add\n            /* \"#utility.yul\":6714:6775   */\n          tag_43\n          jump\t// in\n        tag_145:\n            /* \"#utility.yul\":6704:6775   */\n          swap8\n          pop\n            /* \"#utility.yul\":6659:6785   */\n          pop\n            /* \"#utility.yul\":6824:6827   */\n          0x80\n            /* \"#utility.yul\":6851:6912   */\n          tag_146\n            /* \"#utility.yul\":6904:6911   */\n          dup14\n            /* \"#utility.yul\":6895:6901   */\n          dup3\n            /* \"#utility.yul\":6884:6893   */\n          dup15\n            /* \"#utility.yul\":6880:6902   */\n          add\n            /* \"#utility.yul\":6851:6912   */\n          tag_43\n          jump\t// in\n        tag_146:\n            /* \"#utility.yul\":6841:6912   */\n          swap7\n          pop\n            /* \"#utility.yul\":6795:6922   */\n          pop\n            /* \"#utility.yul\":6961:6964   */\n          0xa0\n            /* \"#utility.yul\":6988:7049   */\n          tag_147\n            /* \"#utility.yul\":7041:7048   */\n          dup14\n            /* \"#utility.yul\":7032:7038   */\n          dup3\n            /* \"#utility.yul\":7021:7030   */\n          dup15\n            /* \"#utility.yul\":7017:7039   */\n          add\n            /* \"#utility.yul\":6988:7049   */\n          tag_43\n          jump\t// in\n        tag_147:\n            /* \"#utility.yul\":6978:7049   */\n          swap6\n          pop\n            /* \"#utility.yul\":6932:7059   */\n          pop\n            /* \"#utility.yul\":7098:7101   */\n          0xc0\n            /* \"#utility.yul\":7125:7186   */\n          tag_148\n            /* \"#utility.yul\":7178:7185   */\n          dup14\n            /* \"#utility.yul\":7169:7175   */\n          dup3\n            /* \"#utility.yul\":7158:7167   */\n          dup15\n            /* \"#utility.yul\":7154:7176   */\n          add\n            /* \"#utility.yul\":7125:7186   */\n          tag_43\n          jump\t// in\n        tag_148:\n            /* \"#utility.yul\":7115:7186   */\n          swap5\n          pop\n            /* \"#utility.yul\":7069:7196   */\n          pop\n            /* \"#utility.yul\":7235:7238   */\n          0xe0\n            /* \"#utility.yul\":7262:7323   */\n          tag_149\n            /* \"#utility.yul\":7315:7322   */\n          dup14\n            /* \"#utility.yul\":7306:7312   */\n          dup3\n            /* \"#utility.yul\":7295:7304   */\n          dup15\n            /* \"#utility.yul\":7291:7313   */\n          add\n            /* \"#utility.yul\":7262:7323   */\n          tag_43\n          jump\t// in\n        tag_149:\n            /* \"#utility.yul\":7252:7323   */\n          swap4\n          pop\n            /* \"#utility.yul\":7206:7333   */\n          pop\n            /* \"#utility.yul\":7372:7375   */\n          0x0100\n            /* \"#utility.yul\":7399:7463   */\n          tag_150\n            /* \"#utility.yul\":7455:7462   */\n          dup14\n            /* \"#utility.yul\":7446:7452   */\n          dup3\n            /* \"#utility.yul\":7435:7444   */\n          dup15\n            /* \"#utility.yul\":7431:7453   */\n          add\n            /* \"#utility.yul\":7399:7463   */\n          tag_46\n          jump\t// in\n        tag_150:\n            /* \"#utility.yul\":7389:7463   */\n          swap3\n          pop\n            /* \"#utility.yul\":7343:7473   */\n          pop\n            /* \"#utility.yul\":7512:7515   */\n          0x0120\n            /* \"#utility.yul\":7539:7603   */\n          tag_151\n            /* \"#utility.yul\":7595:7602   */\n          dup14\n            /* \"#utility.yul\":7586:7592   */\n          dup3\n            /* \"#utility.yul\":7575:7584   */\n          dup15\n            /* \"#utility.yul\":7571:7593   */\n          add\n            /* \"#utility.yul\":7539:7603   */\n          tag_46\n          jump\t// in\n        tag_151:\n            /* \"#utility.yul\":7529:7603   */\n          swap2\n          pop\n            /* \"#utility.yul\":7483:7613   */\n          pop\n            /* \"#utility.yul\":5512:7620   */\n          swap3\n          swap6\n          swap9\n          swap12\n          swap2\n          swap5\n          swap8\n          swap11\n          pop\n          swap3\n          swap6\n          swap9\n          pop\n          jump\t// out\n            /* \"#utility.yul\":7626:7725   */\n        tag_47:\n            /* \"#utility.yul\":7678:7684   */\n          0x00\n            /* \"#utility.yul\":7712:7717   */\n          dup2\n            /* \"#utility.yul\":7706:7718   */\n          mload\n            /* \"#utility.yul\":7696:7718   */\n          swap1\n          pop\n            /* \"#utility.yul\":7626:7725   */\n          swap2\n          swap1\n          pop\n          jump\t// out\n            /* \"#utility.yul\":7731:7911   */\n        tag_48:\n            /* \"#utility.yul\":7779:7856   */\n          0x4e487b7100000000000000000000000000000000000000000000000000000000\n            /* \"#utility.yul\":7776:7777   */\n          0x00\n            /* \"#utility.yul\":7769:7857   */\n          mstore\n            /* \"#utility.yul\":7876:7880   */\n          0x22\n            /* \"#utility.yul\":7873:7874   */\n          0x04\n            /* \"#utility.yul\":7866:7881   */\n          mstore\n            /* \"#utility.yul\":7900:7904   */\n          0x24\n            /* \"#utility.yul\":7897:7898   */\n          0x00\n            /* \"#utility.yul\":7890:7905   */\n          revert\n            /* \"#utility.yul\":7917:8237   */\n        tag_49:\n            /* \"#utility.yul\":7961:7967   */\n          0x00\n            /* \"#utility.yul\":7998:7999   */\n          0x02\n            /* \"#utility.yul\":7992:7996   */\n          dup3\n            /* \"#utility.yul\":7988:8000   */\n          div\n            /* \"#utility.yul\":7978:8000   */\n          swap1\n          pop\n            /* \"#utility.yul\":8045:8046   */\n          0x01\n            /* \"#utility.yul\":8039:8043   */\n          dup3\n            /* \"#utility.yul\":8035:8047   */\n          and\n            /* \"#utility.yul\":8066:8084   */\n          dup1\n            /* \"#utility.yul\":8056:8137   */\n          tag_155\n          jumpi\n            /* \"#utility.yul\":8122:8126   */\n          0x7f\n            /* \"#utility.yul\":8114:8120   */\n          dup3\n            /* \"#utility.yul\":8110:8127   */\n          and\n            /* \"#utility.yul\":8100:8127   */\n          swap2\n          pop\n            /* \"#utility.yul\":8056:8137   */\n        tag_155:\n            /* \"#utility.yul\":8184:8186   */\n          0x20\n            /* \"#utility.yul\":8176:8182   */\n          dup3\n            /* \"#utility.yul\":8173:8187   */\n          lt\n            /* \"#utility.yul\":8153:8171   */\n          dup2\n            /* \"#utility.yul\":8150:8188   */\n          sub\n            /* \"#utility.yul\":8147:8231   */\n          tag_156\n          jumpi\n            /* \"#utility.yul\":8203:8221   */\n          tag_157\n          tag_48\n          jump\t// in\n        tag_157:\n            /* \"#utility.yul\":8147:8231   */\n        tag_156:\n            /* \"#utility.yul\":7968:8237   */\n          pop\n            /* \"#utility.yul\":7917:8237   */\n          swap2\n          swap1\n          pop\n          jump\t// out\n            /* \"#utility.yul\":8243:8384   */\n        tag_50:\n            /* \"#utility.yul\":8292:8296   */\n          0x00\n            /* \"#utility.yul\":8315:8318   */\n          dup2\n            /* \"#utility.yul\":8307:8318   */\n          swap1\n          pop\n            /* \"#utility.yul\":8338:8341   */\n          dup2\n            /* \"#utility.yul\":8335:8336   */\n          0x00\n            /* \"#utility.yul\":8328:8342   */\n          mstore\n            /* \"#utility.yul\":8372:8376   */\n          0x20\n            /* \"#utility.yul\":8369:8370   */\n          0x00\n            /* \"#utility.yul\":8359:8377   */\n          keccak256\n            /* \"#utility.yul\":8351:8377   */\n          swap1\n          pop\n            /* \"#utility.yul\":8243:8384   */\n          swap2\n          swap1\n          pop\n          jump\t// out\n            /* \"#utility.yul\":8390:8483   */\n        tag_51:\n            /* \"#utility.yul\":8427:8433   */\n          0x00\n            /* \"#utility.yul\":8474:8476   */\n          0x20\n            /* \"#utility.yul\":8469:8471   */\n          0x1f\n            /* \"#utility.yul\":8462:8467   */\n          dup4\n            /* \"#utility.yul\":8458:8472   */\n          add\n            /* \"#utility.yul\":8454:8477   */\n          div\n            /* \"#utility.yul\":8444:8477   */\n          swap1\n          pop\n            /* \"#utility.yul\":8390:8483   */\n          swap2\n          swap1\n          pop\n          jump\t// out\n            /* \"#utility.yul\":8489:8596   */\n        tag_52:\n            /* \"#utility.yul\":8533:8541   */\n          0x00\n            /* \"#utility.yul\":8583:8588   */\n          dup3\n            /* \"#utility.yul\":8577:8581   */\n          dup3\n            /* \"#utility.yul\":8573:8589   */\n          shl\n            /* \"#utility.yul\":8552:8589   */\n          swap1\n          pop\n            /* \"#utility.yul\":8489:8596   */\n          swap3\n          swap2\n          pop\n          pop\n          jump\t// out\n            /* \"#utility.yul\":8602:8995   */\n        tag_53:\n            /* \"#utility.yul\":8671:8677   */\n          0x00\n            /* \"#utility.yul\":8721:8722   */\n          0x08\n            /* \"#utility.yul\":8709:8719   */\n          dup4\n            /* \"#utility.yul\":8705:8723   */\n          mul\n            /* \"#utility.yul\":8744:8841   */\n          tag_162\n            /* \"#utility.yul\":8774:8840   */\n          0xffffffffffffffffffffffffffffffffffffffffffffffffffffffffffffffff\n            /* \"#utility.yul\":8763:8772   */\n          dup3\n            /* \"#utility.yul\":8744:8841   */\n          tag_52\n          jump\t// in\n        tag_162:\n            /* \"#utility.yul\":8862:8901   */\n          tag_163\n            /* \"#utility.yul\":8892:8900   */\n          dup7\n            /* \"#utility.yul\":8881:8890   */\n          dup4\n            /* \"#utility.yul\":8862:8901   */\n          tag_52\n          jump\t// in\n        tag_163:\n            /* \"#utility.yul\":8850:8901   */\n          swap6\n          pop\n            /* \"#utility.yul\":8934:8938   */\n          dup1\n            /* \"#utility.yul\":8930:8939   */\n          not\n            /* \"#utility.yul\":8923:8928   */\n          dup5\n            /* \"#utility.yul\":8919:8940   */\n          and\n            /* \"#utility.yul\":8910:8940   */\n          swap4\n          pop\n            /* \"#utility.yul\":8983:8987   */\n          dup1\n            /* \"#utility.yul\":8973:8981   */\n          dup7\n            /* \"#utility.yul\":8969:8988   */\n          and\n            /* \"#utility.yul\":8962:8967   */\n          dup5\n            /* \"#utility.yul\":8959:8989   */\n          or\n            /* \"#utility.yul\":8949:8989   */\n          swap3\n          pop\n            /* \"#utility.yul\":8678:8995   */\n          pop\n          pop\n            /* \"#utility.yul\":8602:8995   */\n          swap4\n          swap3\n          pop\n          pop\n          pop\n          jump\t// out\n            /* \"#utility.yul\":9001:9061   */\n        tag_54:\n            /* \"#utility.yul\":9029:9032   */\n          0x00\n            /* \"#utility.yul\":9050:9055   */\n          dup2\n            /* \"#utility.yul\":9043:9055   */\n          swap1\n          pop\n            /* \"#utility.yul\":9001:9061   */\n          swap2\n          swap1\n          pop\n          jump\t// out\n            /* \"#utility.yul\":9067:9209   */\n        tag_55:\n            /* \"#utility.yul\":9117:9126   */\n          0x00\n            /* \"#utility.yul\":9150:9203   */\n          tag_166\n            /* \"#utility.yul\":9168:9202   */\n          tag_167\n            /* \"#utility.yul\":9177:9201   */\n          tag_168\n            /* \"#utility.yul\":9195:9200   */\n          dup5\n            /* \"#utility.yul\":9177:9201   */\n          tag_44\n          jump\t// in\n        tag_168:\n            /* \"#utility.yul\":9168:9202   */\n          tag_54\n          jump\t// in\n        tag_167:\n            /* \"#utility.yul\":9150:9203   */\n          tag_44\n          jump\t// in\n        tag_166:\n            /* \"#utility.yul\":9137:9203   */\n          swap1\n          pop\n            /* \"#utility.yul\":9067:9209   */\n          swap2\n          swap1\n          pop\n          jump\t// out\n            /* \"#utility.yul\":9215:9290   */\n        tag_56:\n            /* \"#utility.yul\":9258:9261   */\n          0x00\n            /* \"#utility.yul\":9279:9284   */\n          dup2\n            /* \"#utility.yul\":9272:9284   */\n          swap1\n          pop\n            /* \"#utility.yul\":9215:9290   */\n          swap2\n          swap1\n          pop\n          jump\t// out\n            /* \"#utility.yul\":9296:9565   */\n        tag_57:\n            /* \"#utility.yul\":9406:9445   */\n          tag_171\n            /* \"#utility.yul\":9437:9444   */\n          dup4\n            /* \"#utility.yul\":9406:9445   */\n          tag_55\n          jump\t// in\n        tag_171:\n            /* \"#utility.yul\":9467:9558   */\n          tag_172\n            /* \"#utility.yul\":9516:9557   */\n          tag_173\n            /* \"#utility.yul\":9540:9556   */\n          dup3\n            /* \"#utility.yul\":9516:9557   */\n          tag_56\n          jump\t// in\n        tag_173:\n            /* \"#utility.yul\":9508:9514   */\n          dup5\n            /* \"#utility.yul\":9501:9505   */\n          dup5\n            /* \"#utility.yul\":9495:9506   */\n          sload\n            /* \"#utility.yul\":9467:9558   */\n          tag_53\n          jump\t// in\n        tag_172:\n            /* \"#utility.yul\":9461:9465   */\n          dup3\n            /* \"#utility.yul\":9454:9559   */\n          sstore\n            /* \"#utility.yul\":9372:9565   */\n          pop\n            /* \"#utility.yul\":9296:9565   */\n          pop\n          pop\n          pop\n          jump\t// out\n            /* \"#utility.yul\":9571:9644   */\n        tag_58:\n            /* \"#utility.yul\":9616:9619   */\n          0x00\n            /* \"#utility.yul\":9571:9644   */\n          swap1\n          jump\t// out\n            /* \"#utility.yul\":9650:9839   */\n        tag_59:\n            /* \"#utility.yul\":9727:9759   */\n          tag_176\n          tag_58\n          jump\t// in\n        tag_176:\n            /* \"#utility.yul\":9768:9833   */\n          tag_177\n            /* \"#utility.yul\":9826:9832   */\n          dup2\n            /* \"#utility.yul\":9818:9824   */\n          dup5\n            /* \"#utility.yul\":9812:9816   */\n          dup5\n            /* \"#utility.yul\":9768:9833   */\n          tag_57\n          jump\t// in\n        tag_177:\n            /* \"#utility.yul\":9703:9839   */\n          pop\n            /* \"#utility.yul\":9650:9839   */\n          pop\n          pop\n          jump\t// out\n            /* \"#utility.yul\":9845:10031   */\n        tag_60:\n            /* \"#utility.yul\":9905:10025   */\n        tag_179:\n            /* \"#utility.yul\":9922:9925   */\n          dup2\n            /* \"#utility.yul\":9915:9920   */\n          dup2\n            /* \"#utility.yul\":9912:9926   */\n          lt\n            /* \"#utility.yul\":9905:10025   */\n          iszero\n          tag_181\n          jumpi\n            /* \"#utility.yul\":9976:10015   */\n          tag_182\n            /* \"#utility.yul\":10013:10014   */\n          0x00\n            /* \"#utility.yul\":10006:10011   */\n          dup3\n            /* \"#utility.yul\":9976:10015   */\n          tag_59\n          jump\t// in\n        tag_182:\n            /* \"#utility.yul\":9949:9950   */\n          0x01\n            /* \"#utility.yul\":9942:9947   */\n          dup2\n            /* \"#utility.yul\":9938:9951   */\n          add\n            /* \"#utility.yul\":9929:9951   */\n          swap1\n          pop\n            /* \"#utility.yul\":9905:10025   */\n          jump(tag_179)\n        tag_181:\n            /* \"#utility.yul\":9845:10031   */\n          pop\n          pop\n          jump\t// out\n            /* \"#utility.yul\":10037:10580   */\n        tag_61:\n            /* \"#utility.yul\":10138:10140   */\n          0x1f\n            /* \"#utility.yul\":10133:10136   */\n          dup3\n            /* \"#utility.yul\":10130:10141   */\n          gt\n            /* \"#utility.yul\":10127:10573   */\n          iszero\n          tag_184\n          jumpi\n            /* \"#utility.yul\":10172:10210   */\n          tag_185\n            /* \"#utility.yul\":10204:10209   */\n          dup2\n            /* \"#utility.yul\":10172:10210   */\n          tag_50\n          jump\t// in\n        tag_185:\n            /* \"#utility.yul\":10256:10285   */\n          tag_186\n            /* \"#utility.yul\":10274:10284   */\n          dup5\n            /* \"#utility.yul\":10256:10285   */\n          tag_51\n          jump\t// in\n        tag_186:\n            /* \"#utility.yul\":10246:10254   */\n          dup2\n            /* \"#utility.yul\":10242:10286   */\n          add\n            /* \"#utility.yul\":10439:10441   */\n          0x20\n            /* \"#utility.yul\":10427:10437   */\n          dup6\n            /* \"#utility.yul\":10424:10442   */\n          lt\n            /* \"#utility.yul\":10421:10470   */\n          iszero\n          tag_187\n          jumpi\n            /* \"#utility.yul\":10460:10468   */\n          dup2\n            /* \"#utility.yul\":10445:10468   */\n          swap1\n          pop\n            /* \"#utility.yul\":10421:10470   */\n        tag_187:\n            /* \"#utility.yul\":10483:10563   */\n          tag_188\n            /* \"#utility.yul\":10539:10561   */\n          tag_189\n            /* \"#utility.yul\":10557:10560   */\n          dup6\n            /* \"#utility.yul\":10539:10561   */\n          tag_51\n          jump\t// in\n        tag_189:\n            /* \"#utility.yul\":10529:10537   */\n          dup4\n            /* \"#utility.yul\":10525:10562   */\n          add\n            /* \"#utility.yul\":10512:10523   */\n          dup3\n            /* \"#utility.yul\":10483:10563   */\n          tag_60\n          jump\t// in\n        tag_188:\n            /* \"#utility.yul\":10142:10573   */\n          pop\n          pop\n            /* \"#utility.yul\":10127:10573   */\n        tag_184:\n            /* \"#utility.yul\":10037:10580   */\n          pop\n          pop\n          pop\n          jump\t// out\n            /* \"#utility.yul\":10586:10703   */\n        tag_62:\n            /* \"#utility.yul\":10640:10648   */\n          0x00\n            /* \"#utility.yul\":10690:10695   */\n          dup3\n            /* \"#utility.yul\":10684:10688   */\n          dup3\n            /* \"#utility.yul\":10680:10696   */\n          shr\n            /* \"#utility.yul\":10659:10696   */\n          swap1\n          pop\n            /* \"#utility.yul\":10586:10703   */\n          swap3\n          swap2\n          pop\n          pop\n          jump\t// out\n            /* \"#utility.yul\":10709:10878   */\n        tag_63:\n            /* \"#utility.yul\":10753:10759   */\n          0x00\n            /* \"#utility.yul\":10786:10837   */\n          tag_192\n            /* \"#utility.yul\":10834:10835   */\n          0x00\n            /* \"#utility.yul\":10830:10836   */\n          not\n            /* \"#utility.yul\":10822:10827   */\n          dup5\n            /* \"#utility.yul\":10819:10820   */\n          0x08\n            /* \"#utility.yul\":10815:10828   */\n          mul\n            /* \"#utility.yul\":10786:10837   */\n          tag_62\n          jump\t// in\n        tag_192:\n            /* \"#utility.yul\":10782:10838   */\n          not\n            /* \"#utility.yul\":10867:10871   */\n          dup1\n            /* \"#utility.yul\":10861:10865   */\n          dup4\n            /* \"#utility.yul\":10857:10872   */\n          and\n            /* \"#utility.yul\":10847:10872   */\n          swap2\n          pop\n            /* \"#utility.yul\":10760:10878   */\n          pop\n            /* \"#utility.yul\":10709:10878   */\n          swap3\n          swap2\n          pop\n          pop\n          jump\t// out\n            /* \"#utility.yul\":10883:11178   */\n        tag_64:\n            /* \"#utility.yul\":10959:10963   */\n          0x00\n            /* \"#utility.yul\":11105:11134   */\n          tag_194\n            /* \"#utility.yul\":11130:11133   */\n          dup4\n            /* \"#utility.yul\":11124:11128   */\n          dup4\n            /* \"#utility.yul\":11105:11134   */\n          tag_63\n          jump\t// in\n        tag_194:\n            /* \"#utility.yul\":11097:11134   */\n          swap2\n          pop\n            /* \"#utility.yul\":11167:11170   */\n          dup3\n            /* \"#utility.yul\":11164:11165   */\n          0x02\n            /* \"#utility.yul\":11160:11171   */\n          mul\n            /* \"#utility.yul\":11154:11158   */\n          dup3\n            /* \"#utility.yul\":11151:11172   */\n          or\n            /* \"#utility.yul\":11143:11172   */\n          swap1\n          pop\n            /* \"#utility.yul\":10883:11178   */\n          swap3\n          swap2\n          pop\n          pop\n          jump\t// out\n            /* \"#utility.yul\":11183:12578   */\n        tag_9:\n            /* \"#utility.yul\":11300:11337   */\n          tag_196\n            /* \"#utility.yul\":11333:11336   */\n          dup3\n            /* \"#utility.yul\":11300:11337   */\n          tag_47\n          jump\t// in\n        tag_196:\n            /* \"#utility.yul\":11402:11420   */\n          0xffffffffffffffff\n            /* \"#utility.yul\":11394:11400   */\n          dup2\n            /* \"#utility.yul\":11391:11421   */\n          gt\n            /* \"#utility.yul\":11388:11444   */\n          iszero\n          tag_197\n          jumpi\n            /* \"#utility.yul\":11424:11442   */\n          tag_198\n          tag_26\n          jump\t// in\n        tag_198:\n            /* \"#utility.yul\":11388:11444   */\n        tag_197:\n            /* \"#utility.yul\":11468:11506   */\n          tag_199\n            /* \"#utility.yul\":11500:11504   */\n          dup3\n            /* \"#utility.yul\":11494:11505   */\n          sload\n            /* \"#utility.yul\":11468:11506   */\n          tag_49\n          jump\t// in\n        tag_199:\n            /* \"#utility.yul\":11553:11620   */\n          tag_200\n            /* \"#utility.yul\":11613:11619   */\n          dup3\n            /* \"#utility.yul\":11605:11611   */\n          dup3\n            /* \"#utility.yul\":11599:11603   */\n          dup6\n            /* \"#utility.yul\":11553:11620   */\n          tag_61\n          jump\t// in\n        tag_200:\n            /* \"#utility.yul\":11647:11648   */\n          0x00\n            /* \"#utility.yul\":11671:11675   */\n          0x20\n            /* \"#utility.yul\":11658:11675   */\n          swap1\n          pop\n            /* \"#utility.yul\":11703:11705   */\n          0x1f\n            /* \"#utility.yul\":11695:11701   */\n          dup4\n            /* \"#utility.yul\":11692:11706   */\n          gt\n            /* \"#utility.yul\":11720:11721   */\n          0x01\n            /* \"#utility.yul\":11715:12333   */\n          dup2\n          eq\n          tag_202\n          jumpi\n            /* \"#utility.yul\":12377:12378   */\n          0x00\n            /* \"#utility.yul\":12394:12400   */\n          dup5\n            /* \"#utility.yul\":12391:12468   */\n          iszero\n          tag_203\n          jumpi\n            /* \"#utility.yul\":12443:12452   */\n          dup3\n            /* \"#utility.yul\":12438:12441   */\n          dup8\n            /* \"#utility.yul\":12434:12453   */\n          add\n            /* \"#utility.yul\":12428:12454   */\n          mload\n            /* \"#utility.yul\":12419:12454   */\n          swap1\n          pop\n            /* \"#utility.yul\":12391:12468   */\n        tag_203:\n            /* \"#utility.yul\":12494:12561   */\n          tag_204\n            /* \"#utility.yul\":12554:12560   */\n          dup6\n            /* \"#utility.yul\":12547:12552   */\n          dup3\n            /* \"#utility.yul\":12494:12561   */\n          tag_64\n          jump\t// in\n        tag_204:\n            /* \"#utility.yul\":12488:12492   */\n          dup7\n            /* \"#utility.yul\":12481:12562   */\n          sstore\n            /* \"#utility.yul\":12350:12572   */\n          pop\n            /* \"#utility.yul\":11685:12572   */\n          jump(tag_201)\n            /* \"#utility.yul\":11715:12333   */\n        tag_202:\n            /* \"#utility.yul\":11767:11771   */\n          0x1f\n            /* \"#utility.yul\":11763:11772   */\n          not\n            /* \"#utility.yul\":11755:11761   */\n          dup5\n            /* \"#utility.yul\":11751:11773   */\n          and\n            /* \"#utility.yul\":11801:11838   */\n          tag_205\n            /* \"#utility.yul\":11833:11837   */\n          dup7\n            /* \"#utility.yul\":11801:11838   */\n          tag_50\n          jump\t// in\n        tag_205:\n            /* \"#utility.yul\":11860:11861   */\n          0x00\n            /* \"#utility.yul\":11874:12082   */\n        tag_206:\n            /* \"#utility.yul\":11888:11895   */\n          dup3\n            /* \"#utility.yul\":11885:11886   */\n          dup2\n            /* \"#utility.yul\":11882:11896   */\n          lt\n            /* \"#utility.yul\":11874:12082   */\n          iszero\n          tag_208\n          jumpi\n            /* \"#utility.yul\":11967:11976   */\n          dup5\n            /* \"#utility.yul\":11962:11965   */\n          dup10\n            /* \"#utility.yul\":11958:11977   */\n          add\n            /* \"#utility.yul\":11952:11978   */\n          mload\n            /* \"#utility.yul\":11944:11950   */\n          dup3\n            /* \"#utility.yul\":11937:11979   */\n          sstore\n            /* \"#utility.yul\":12018:12019   */\n          0x01\n            /* \"#utility.yul\":12010:12016   */\n          dup3\n            /* \"#utility.yul\":12006:12020   */\n          add\n            /* \"#utility.yul\":11996:12020   */\n          swap2\n          pop\n            /* \"#utility.yul\":12065:12067   */\n          0x20\n            /* \"#utility.yul\":12054:12063   */\n          dup6\n            /* \"#utility.yul\":12050:12068   */\n          add\n            /* \"#utility.yul\":12037:12068   */\n          swap5\n          pop\n            /* \"#utility.yul\":11911:11915   */\n          0x20\n            /* \"#utility.yul\":11908:11909   */\n          dup2\n            /* \"#utility.yul\":11904:11916   */\n          add\n            /* \"#utility.yul\":11899:11916   */\n          swap1\n          pop\n            /* \"#utility.yul\":11874:12082   */\n          jump(tag_206)\n        tag_208:\n            /* \"#utility.yul\":12110:12116   */\n          dup7\n            /* \"#utility.yul\":12101:12108   */\n          dup4\n            /* \"#utility.yul\":12098:12117   */\n          lt\n            /* \"#utility.yul\":12095:12274   */\n          iszero\n          tag_209\n          jumpi\n            /* \"#utility.yul\":12168:12177   */\n          dup5\n            /* \"#utility.yul\":12163:12166   */\n          dup10\n            /* \"#utility.yul\":12159:12178   */\n          add\n            /* \"#utility.yul\":12153:12179   */\n          mload\n            /* \"#utility.yul\":12211:12259   */\n          tag_210\n            /* \"#utility.yul\":12253:12257   */\n          0x1f\n            /* \"#utility.yul\":12245:12251   */\n          dup10\n            /* \"#utility.yul\":12241:12258   */\n          and\n            /* \"#utility.yul\":12230:12239   */\n          dup3\n            /* \"#utility.yul\":12211:12259   */\n          tag_63\n          jump\t// in\n        tag_210:\n            /* \"#utility.yul\":12203:12209   */\n          dup4\n            /* \"#utility.yul\":12196:12260   */\n          sstore\n            /* \"#utility.yul\":12118:12274   */\n          pop\n            /* \"#utility.yul\":12095:12274   */\n        tag_209:\n            /* \"#utility.yul\":12320:12321   */\n          0x01\n            /* \"#utility.yul\":12316:12317   */\n          0x02\n            /* \"#utility.yul\":12308:12314   */\n          dup9\n            /* \"#utility.yul\":12304:12318   */\n          mul\n            /* \"#utility.yul\":12300:12322   */\n          add\n            /* \"#utility.yul\":12294:12298   */\n          dup9\n            /* \"#utility.yul\":12287:12323   */\n          sstore\n            /* \"#utility.yul\":11722:12333   */\n          pop\n          pop\n          pop\n            /* \"#utility.yul\":11685:12572   */\n        tag_201:\n          pop\n            /* \"#utility.yul\":11275:12578   */\n          pop\n          pop\n          pop\n            /* \"#utility.yul\":11183:12578   */\n          pop\n          pop\n          jump\t// out\n            /* \"#utility.yul\":12584:12764   */\n        tag_15:\n            /* \"#utility.yul\":12632:12709   */\n          0x4e487b7100000000000000000000000000000000000000000000000000000000\n            /* \"#utility.yul\":12629:12630   */\n          0x00\n            /* \"#utility.yul\":12622:12710   */\n          mstore\n            /* \"#utility.yul\":12729:12733   */\n          0x32\n            /* \"#utility.yul\":12726:12727   */\n          0x04\n            /* \"#utility.yul\":12719:12734   */\n          mstore\n            /* \"#utility.yul\":12753:12757   */\n          0x24\n            /* \"#utility.yul\":12750:12751   */\n          0x00\n            /* \"#utility.yul\":12743:12758   */\n          revert\n            /* \"Fund.sol\":280:10886   */\n        tag_19:\n          mload(0x80)\n          mload(0xa0)\n          mload(0xc0)\n          mload(0xe0)\n          mload(0x0100)\n          mload(0x0120)\n          mload(0x0140)\n          mload(0x0160)\n          mload(0x0180)\n          codecopy(0x00, dataOffset(sub_0), dataSize(sub_0))\n          0x00\n          assignImmutable(\"0x09eb009391dc4eb4edc20fba7d18645bf2c41b671919b5bea53c7994dc980933\")\n          0x00\n          assignImmutable(\"0x43873eeb05f071a7bf324d5f07f06c3052b56a11f42b8a72285610bbfa52aabc\")\n          0x00\n          assignImmutable(\"0xbdb1df70217a0fc8cb4e3e99b55cd6570d97174b517460cc0ed3d1a51a56d2b7\")\n          0x00\n          assignImmutable(\"0x7e73c6705797180140a00ad870c82eb4092a3440c76c03cda76c4c497759837c\")\n          0x00\n          assignImmutable(\"0x0b83f23a4eeb8c3f5f7d5934a2289bcf0186d09a12e1b7f20adf54e4b179db15\")\n          0x00\n          assignImmutable(\"0xad3956a60eedf591a890fcb8158e2c270890b8990b07189fbdcb6016f0cee2b1\")\n          0x00\n          assignImmutable(\"0xabd0c21861b5107cb0dd8303bd3ecb8c5f496d87c4b38229035d6890add563e2\")\n          0x00\n          assignImmutable(\"0xccd68672d6f769e1076a41a883b1b79cd2ffe42afc01c80e02e0f47639ea513e\")\n          0x00\n          assignImmutable(\"0x086599aaa20f128b50e56f5875fa43b38f0a808a0202aedcaa2848408c56ddeb\")\n          return(0x00, dataSize(sub_0))\n        stop\n\n        sub_0: assembly {\n                /* \"Fund.sol\":280:10886   */\n              mstore(0x40, 0x80)\n              jumpi(tag_1, lt(calldatasize, 0x04))\n              shr(0xe0, calldataload(0x00))\n              dup1\n              0x8a20bc37\n              gt\n              tag_35\n              jumpi\n              dup1\n              0xd7bb99ba\n              gt\n              tag_36\n              jumpi\n              dup1\n              0xe557e5dc\n              gt\n              tag_37\n              jumpi\n              dup1\n              0xe557e5dc\n              eq\n              tag_30\n              jumpi\n              dup1\n              0xecbff6e7\n              eq\n              tag_31\n              jumpi\n              dup1\n              0xf3ae2415\n              eq\n              tag_32\n              jumpi\n              dup1\n              0xfa68b631\n              eq\n              tag_33\n              jumpi\n              dup1\n              0xfbfa4b7f\n              eq\n              tag_34\n              jumpi\n              jump(tag_1)\n            tag_37:\n              dup1\n              0xd7bb99ba\n              eq\n              tag_26\n              jumpi\n              dup1\n              0xd7d1bbdb\n              eq\n              tag_27\n              jumpi\n              dup1\n              0xd8247ee7\n              eq\n              tag_28\n              jumpi\n              dup1\n              0xdb2d78b1\n              eq\n              tag_29\n              jumpi\n              jump(tag_1)\n            tag_36:\n              dup1\n              0xaa9cfc50\n              gt\n              tag_38\n              jumpi\n              dup1\n              0xaa9cfc50\n              eq\n              tag_22\n              jumpi\n              dup1\n              0xaf157c19\n              eq\n              tag_23\n              jumpi\n              dup1\n              0xb69ef8a8\n              eq\n              tag_24\n              jumpi\n              dup1\n              0xcf09e0d0\n              eq\n              tag_25\n              jumpi\n              jump(tag_1)\n            tag_38:\n              dup1\n              0x8a20bc37\n              eq\n              tag_18\n              jumpi\n              dup1\n              0x9073fa7e\n              eq\n              tag_19\n              jumpi\n              dup1\n              0xa8d088bb\n              eq\n              tag_20\n              jumpi\n              dup1\n              0xa9059cbb\n              eq\n              tag_21\n              jumpi\n              jump(tag_1)\n            tag_35:\n              dup1\n              0x3d39c260\n              gt\n              tag_39\n              jumpi\n              dup1\n              0x691c7545\n              gt\n              tag_40\n              jumpi\n              dup1\n              0x691c7545\n              eq\n              tag_14\n              jumpi\n              dup1\n              0x7569b3d7\n              eq\n              tag_15\n              jumpi\n              dup1\n              0x8175f2c7\n              eq\n              tag_16\n              jumpi\n              dup1\n              0x81d12c58\n              eq\n              tag_17\n              jumpi\n              jump(tag_1)\n            tag_40:\n              dup1\n              0x3d39c260\n              eq\n              tag_10\n              jumpi\n              dup1\n              0x4051ddac\n              eq\n              tag_11\n              jumpi\n              dup1\n              0x42e94c90\n              eq\n              tag_12\n              jumpi\n              dup1\n              0x6308ae65\n              eq\n              tag_13\n              jumpi\n              jump(tag_1)\n            tag_39:\n              dup1\n              0x1b16bb5c\n              gt\n              tag_41\n              jumpi\n              dup1\n              0x1b16bb5c\n              eq\n              tag_6\n              jumpi\n              dup1\n              0x2dde0013\n              eq\n              tag_7\n              jumpi\n              dup1\n              0x37c08923\n              eq\n              tag_8\n              jumpi\n              dup1\n              0x3cb5d100\n              eq\n              tag_9\n              jumpi\n              jump(tag_1)\n            tag_41:\n              dup1\n              0x02d05d3f\n              eq\n              tag_2\n              jumpi\n              dup1\n              0x03441006\n              eq\n              tag_3\n              jumpi\n              dup1\n              0x06fdde03\n              eq\n              tag_4\n              jumpi\n              dup1\n              0x10718655\n              eq\n              tag_5\n              jumpi\n            tag_1:\n              0x00\n              dup1\n              revert\n                /* \"Fund.sol\":696:728   */\n            tag_2:\n              callvalue\n              dup1\n              iszero\n              tag_42\n              jumpi\n              0x00\n              dup1\n              revert\n            tag_42:\n              pop\n              tag_43\n              tag_44\n              jump\t// in\n            tag_43:\n              mload(0x40)\n              tag_45\n              swap2\n              swap1\n              tag_46\n              jump\t// in\n            tag_45:\n              mload(0x40)\n              dup1\n              swap2\n              sub\n              swap1\n              return\n                /* \"Fund.sol\":7848:9038   */\n            tag_3:\n              callvalue\n              dup1\n              iszero\n              tag_47\n              jumpi\n              0x00\n              dup1\n              revert\n            tag_47:\n              pop\n              tag_48\n              0x04\n              dup1\n              calldatasize\n              sub\n              dup2\n              add\n              swap1\n              tag_49\n              swap2\n              swap1\n              tag_50\n              jump\t// in\n            tag_49:\n              tag_51\n              jump\t// in\n            tag_48:\n              stop\n                /* \"Fund.sol\":673:691   */\n            tag_4:\n              callvalue\n              dup1\n              iszero\n              tag_52\n              jumpi\n              0x00\n              dup1\n              revert\n            tag_52:\n              pop\n              tag_53\n              tag_54\n              jump\t// in\n            tag_53:\n              mload(0x40)\n              tag_55\n              swap2\n              swap1\n              tag_56\n              jump\t// in\n            tag_55:\n              mload(0x40)\n              dup1\n              swap2\n              sub\n              swap1\n              return\n                /* \"Fund.sol\":5048:5130   */\n            tag_5:\n              tag_57\n              0x04\n              dup1\n              calldatasize\n              sub\n              dup2\n              add\n              swap1\n              tag_58\n              swap2\n              swap1\n              tag_59\n              jump\t// in\n            tag_58:\n              tag_60\n              jump\t// in\n            tag_57:\n              stop\n                /* \"Fund.sol\":5795:6553   */\n            tag_6:\n              callvalue\n              dup1\n              iszero\n              tag_61\n              jumpi\n              0x00\n              dup1\n              revert\n            tag_61:\n              pop\n              tag_62\n              0x04\n              dup1\n              calldatasize\n              sub\n              dup2\n              add\n              swap1\n              tag_63\n              swap2\n              swap1\n              tag_64\n              jump\t// in\n            tag_63:\n              tag_65\n              jump\t// in\n            tag_62:\n              stop\n                /* \"Fund.sol\":3456:4046   */\n            tag_7:\n              callvalue\n              dup1\n              iszero\n              tag_66\n              jumpi\n              0x00\n              dup1\n              revert\n            tag_66:\n              pop\n              tag_67\n              0x04\n              dup1\n              calldatasize\n              sub\n              dup2\n              add\n              swap1\n              tag_68\n              swap2\n              swap1\n              tag_69\n              jump\t// in\n            tag_68:\n              tag_70\n              jump\t// in\n            tag_67:\n              stop\n                /* \"Fund.sol\":1059:1092   */\n            tag_8:\n              callvalue\n              dup1\n              iszero\n              tag_71\n              jumpi\n              0x00\n              dup1\n              revert\n            tag_71:\n              pop\n              tag_72\n              tag_73\n              jump\t// in\n            tag_72:\n              mload(0x40)\n              tag_74\n              swap2\n              swap1\n              tag_75\n              jump\t// in\n            tag_74:\n              mload(0x40)\n              dup1\n              swap2\n              sub\n              swap1\n              return\n                /* \"Fund.sol\":972:1001   */\n            tag_9:\n              callvalue\n              dup1\n              iszero\n              tag_76\n              jumpi\n              0x00\n              dup1\n              revert\n            tag_76:\n              pop\n              tag_77\n              0x04\n              dup1\n              calldatasize\n              sub\n              dup2\n              add\n              swap1\n              tag_78\n              swap2\n              swap1\n              tag_50\n              jump\t// in\n            tag_78:\n              tag_79\n              jump\t// in\n            tag_77:\n              mload(0x40)\n              tag_80\n              swap2\n              swap1\n              tag_46\n              jump\t// in\n            tag_80:\n              mload(0x40)\n              dup1\n              swap2\n              sub\n              swap1\n              return\n                /* \"Fund.sol\":814:839   */\n            tag_10:\n              callvalue\n              dup1\n              iszero\n              tag_81\n              jumpi\n              0x00\n              dup1\n              revert\n            tag_81:\n              pop\n              tag_82\n              0x04\n              dup1\n              calldatasize\n              sub\n              dup2\n              add\n              swap1\n              tag_83\n              swap2\n              swap1\n              tag_50\n              jump\t// in\n            tag_83:\n              tag_84\n              jump\t// in\n            tag_82:\n              mload(0x40)\n              tag_85\n              swap2\n              swap1\n              tag_46\n              jump\t// in\n            tag_85:\n              mload(0x40)\n              dup1\n              swap2\n              sub\n              swap1\n              return\n                /* \"Fund.sol\":9044:9337   */\n            tag_11:\n              callvalue\n              dup1\n              iszero\n              tag_86\n              jumpi\n              0x00\n              dup1\n              revert\n            tag_86:\n              pop\n              tag_87\n              tag_88\n              jump\t// in\n            tag_87:\n              mload(0x40)\n              tag_89\n              swap6\n              swap5\n              swap4\n              swap3\n              swap2\n              swap1\n              tag_90\n              jump\t// in\n            tag_89:\n              mload(0x40)\n              dup1\n              swap2\n              sub\n              swap1\n              return\n                /* \"Fund.sol\":1006:1054   */\n            tag_12:\n              callvalue\n              dup1\n              iszero\n              tag_91\n              jumpi\n              0x00\n              dup1\n              revert\n            tag_91:\n              pop\n              tag_92\n              0x04\n              dup1\n              calldatasize\n              sub\n              dup2\n              add\n              swap1\n              tag_93\n              swap2\n              swap1\n              tag_59\n              jump\t// in\n            tag_93:\n              tag_94\n              jump\t// in\n            tag_92:\n              mload(0x40)\n              tag_95\n              swap2\n              swap1\n              tag_75\n              jump\t// in\n            tag_95:\n              mload(0x40)\n              dup1\n              swap2\n              sub\n              swap1\n              return\n                /* \"Fund.sol\":4777:4867   */\n            tag_13:\n              callvalue\n              dup1\n              iszero\n              tag_96\n              jumpi\n              0x00\n              dup1\n              revert\n            tag_96:\n              pop\n              tag_97\n              tag_98\n              jump\t// in\n            tag_97:\n              mload(0x40)\n              tag_99\n              swap2\n              swap1\n              tag_75\n              jump\t// in\n            tag_99:\n              mload(0x40)\n              dup1\n              swap2\n              sub\n              swap1\n              return\n                /* \"Fund.sol\":1383:1445   */\n            tag_14:\n              callvalue\n              dup1\n              iszero\n              tag_100\n              jumpi\n              0x00\n              dup1\n              revert\n            tag_100:\n              pop\n              tag_101\n              tag_102\n              jump\t// in\n            tag_101:\n              mload(0x40)\n              tag_103\n              swap2\n              swap1\n              tag_75\n              jump\t// in\n            tag_103:\n              mload(0x40)\n              dup1\n              swap2\n              sub\n              swap1\n              return\n                /* \"Fund.sol\":5136:5234   */\n            tag_15:\n              callvalue\n              dup1\n              iszero\n              tag_104\n              jumpi\n              0x00\n              dup1\n              revert\n            tag_104:\n              pop\n              tag_105\n              tag_106\n              jump\t// in\n            tag_105:\n              mload(0x40)\n              tag_107\n              swap2\n              swap1\n              tag_75\n              jump\t// in\n            tag_107:\n              mload(0x40)\n              dup1\n              swap2\n              sub\n              swap1\n              return\n                /* \"Fund.sol\":1121:1182   */\n            tag_16:\n              callvalue\n              dup1\n              iszero\n              tag_108\n              jumpi\n              0x00\n              dup1\n              revert\n            tag_108:\n              pop\n              tag_109\n              tag_110\n              jump\t// in\n            tag_109:\n              mload(0x40)\n              tag_111\n              swap2\n              swap1\n              tag_112\n              jump\t// in\n            tag_111:\n              mload(0x40)\n              dup1\n              swap2\n              sub\n              swap1\n              return\n                /* \"Fund.sol\":1189:1214   */\n            tag_17:\n              callvalue\n              dup1\n              iszero\n              tag_113\n              jumpi\n              0x00\n              dup1\n              revert\n            tag_113:\n              pop\n              tag_114\n              0x04\n              dup1\n              calldatasize\n              sub\n              dup2\n              add\n              swap1\n              tag_115\n              swap2\n              swap1\n              tag_50\n              jump\t// in\n            tag_115:\n              tag_116\n              jump\t// in\n            tag_114:\n              mload(0x40)\n              tag_117\n              swap8\n              swap7\n              swap6\n              swap5\n              swap4\n              swap3\n              swap2\n              swap1\n              tag_118\n              jump\t// in\n            tag_117:\n              mload(0x40)\n              dup1\n              swap2\n              sub\n              swap1\n              return\n                /* \"Fund.sol\":1266:1317   */\n            tag_18:\n              callvalue\n              dup1\n              iszero\n              tag_119\n              jumpi\n              0x00\n              dup1\n              revert\n            tag_119:\n              pop\n              tag_120\n              tag_121\n              jump\t// in\n            tag_120:\n              mload(0x40)\n              tag_122\n              swap2\n              swap1\n              tag_112\n              jump\t// in\n            tag_122:\n              mload(0x40)\n              dup1\n              swap2\n              sub\n              swap1\n              return\n                /* \"Fund.sol\":7695:7842   */\n            tag_19:\n              callvalue\n              dup1\n              iszero\n              tag_123\n              jumpi\n              0x00\n              dup1\n              revert\n            tag_123:\n              pop\n              tag_124\n              0x04\n              dup1\n              calldatasize\n              sub\n              dup2\n              add\n              swap1\n              tag_125\n              swap2\n              swap1\n              tag_126\n              jump\t// in\n            tag_125:\n              tag_127\n              jump\t// in\n            tag_124:\n              mload(0x40)\n              tag_128\n              swap2\n              swap1\n              tag_112\n              jump\t// in\n            tag_128:\n              mload(0x40)\n              dup1\n              swap2\n              sub\n              swap1\n              return\n                /* \"Fund.sol\":4873:4963   */\n            tag_20:\n              callvalue\n              dup1\n              iszero\n              tag_129\n              jumpi\n              0x00\n              dup1\n              revert\n            tag_129:\n              pop\n              tag_130\n              tag_131\n              jump\t// in\n            tag_130:\n              mload(0x40)\n              tag_132\n              swap2\n              swap1\n              tag_133\n              jump\t// in\n            tag_132:\n              mload(0x40)\n              dup1\n              swap2\n              sub\n              swap1\n              return\n                /* \"Fund.sol\":5440:5789   */\n            tag_21:\n              callvalue\n              dup1\n              iszero\n              tag_134\n              jumpi\n              0x00\n              dup1\n              revert\n            tag_134:\n              pop\n              tag_135\n              0x04\n              dup1\n              calldatasize\n              sub\n              dup2\n              add\n              swap1\n              tag_136\n              swap2\n              swap1\n              tag_137\n              jump\t// in\n            tag_136:\n              tag_138\n              jump\t// in\n            tag_135:\n              stop\n                /* \"Fund.sol\":1219:1261   */\n            tag_22:\n              callvalue\n              dup1\n              iszero\n              tag_139\n              jumpi\n              0x00\n              dup1\n              revert\n            tag_139:\n              pop\n              tag_140\n              tag_141\n              jump\t// in\n            tag_140:\n              mload(0x40)\n              tag_142\n              swap2\n              swap1\n              tag_112\n              jump\t// in\n            tag_142:\n              mload(0x40)\n              dup1\n              swap2\n              sub\n              swap1\n              return\n                /* \"Fund.sol\":5240:5338   */\n            tag_23:\n              callvalue\n              dup1\n              iszero\n              tag_143\n              jumpi\n              0x00\n              dup1\n              revert\n            tag_143:\n              pop\n              tag_144\n              tag_145\n              jump\t// in\n            tag_144:\n              mload(0x40)\n              tag_146\n              swap2\n              swap1\n              tag_133\n              jump\t// in\n            tag_146:\n              mload(0x40)\n              dup1\n              swap2\n              sub\n              swap1\n              return\n                /* \"Fund.sol\":5344:5434   */\n            tag_24:\n              callvalue\n              dup1\n              iszero\n              tag_147\n              jumpi\n              0x00\n              dup1\n              revert\n            tag_147:\n              pop\n              tag_148\n              tag_149\n              jump\t// in\n            tag_148:\n              mload(0x40)\n              tag_150\n              swap2\n              swap1\n              tag_75\n              jump\t// in\n            tag_150:\n              mload(0x40)\n              dup1\n              swap2\n              sub\n              swap1\n              return\n                /* \"Fund.sol\":733:785   */\n            tag_25:\n              callvalue\n              dup1\n              iszero\n              tag_151\n              jumpi\n              0x00\n              dup1\n              revert\n            tag_151:\n              pop\n              tag_152\n              tag_153\n              jump\t// in\n            tag_152:\n              mload(0x40)\n              tag_154\n              swap2\n              swap1\n              tag_75\n              jump\t// in\n            tag_154:\n              mload(0x40)\n              dup1\n              swap2\n              sub\n              swap1\n              return\n                /* \"Fund.sol\":4969:5042   */\n            tag_26:\n              tag_155\n              tag_156\n              jump\t// in\n            tag_155:\n              stop\n                /* \"Fund.sol\":6755:7689   */\n            tag_27:\n              callvalue\n              dup1\n              iszero\n              tag_157\n              jumpi\n              0x00\n              dup1\n              revert\n            tag_157:\n              pop\n              tag_158\n              0x04\n              dup1\n              calldatasize\n              sub\n              dup2\n              add\n              swap1\n              tag_159\n              swap2\n              swap1\n              tag_50\n              jump\t// in\n            tag_159:\n              tag_160\n              jump\t// in\n            tag_158:\n              stop\n                /* \"Fund.sol\":4052:4771   */\n            tag_28:\n              callvalue\n              dup1\n              iszero\n              tag_161\n              jumpi\n              0x00\n              dup1\n              revert\n            tag_161:\n              pop\n              tag_162\n              0x04\n              dup1\n              calldatasize\n              sub\n              dup2\n              add\n              swap1\n              tag_163\n              swap2\n              swap1\n              tag_50\n              jump\t// in\n            tag_163:\n              tag_164\n              jump\t// in\n            tag_162:\n              stop\n                /* \"Fund.sol\":1450:1509   */\n            tag_29:\n              callvalue\n              dup1\n              iszero\n              tag_165\n              jumpi\n              0x00\n              dup1\n              revert\n            tag_165:\n              pop\n              tag_166\n              tag_167\n              jump\t// in\n            tag_166:\n              mload(0x40)\n              tag_168\n              swap2\n              swap1\n              tag_75\n              jump\t// in\n            tag_168:\n              mload(0x40)\n              dup1\n              swap2\n              sub\n              swap1\n              return\n                /* \"Fund.sol\":9343:10489   */\n            tag_30:\n              callvalue\n              dup1\n              iszero\n              tag_169\n              jumpi\n              0x00\n              dup1\n              revert\n            tag_169:\n              pop\n              tag_170\n              tag_171\n              jump\t// in\n            tag_170:\n              mload(0x40)\n              tag_172\n              swap11\n              swap10\n              swap9\n              swap8\n              swap7\n              swap6\n              swap5\n              swap4\n              swap3\n              swap2\n              swap1\n              tag_173\n              jump\t// in\n            tag_172:\n              mload(0x40)\n              dup1\n              swap2\n              sub\n              swap1\n              return\n                /* \"Fund.sol\":1322:1378   */\n            tag_31:\n              callvalue\n              dup1\n              iszero\n              tag_174\n              jumpi\n              0x00\n              dup1\n              revert\n            tag_174:\n              pop\n              tag_175\n              tag_176\n              jump\t// in\n            tag_175:\n              mload(0x40)\n              tag_177\n              swap2\n              swap1\n              tag_112\n              jump\t// in\n            tag_177:\n              mload(0x40)\n              dup1\n              swap2\n              sub\n              swap1\n              return\n                /* \"Fund.sol\":844:885   */\n            tag_32:\n              callvalue\n              dup1\n              iszero\n              tag_178\n              jumpi\n              0x00\n              dup1\n              revert\n            tag_178:\n              pop\n              tag_179\n              0x04\n              dup1\n              calldatasize\n              sub\n              dup2\n              add\n              swap1\n              tag_180\n              swap2\n              swap1\n              tag_59\n              jump\t// in\n            tag_180:\n              tag_181\n              jump\t// in\n            tag_179:\n              mload(0x40)\n              tag_182\n              swap2\n              swap1\n              tag_112\n              jump\t// in\n            tag_182:\n              mload(0x40)\n              dup1\n              swap2\n              sub\n              swap1\n              return\n                /* \"Fund.sol\":890:939   */\n            tag_33:\n              callvalue\n              dup1\n              iszero\n              tag_183\n              jumpi\n              0x00\n              dup1\n              revert\n            tag_183:\n              pop\n              tag_184\n              tag_185\n              jump\t// in\n            tag_184:\n              mload(0x40)\n              tag_186\n              swap2\n              swap1\n              tag_112\n              jump\t// in\n            tag_186:\n              mload(0x40)\n              dup1\n              swap2\n              sub\n              swap1\n              return\n                /* \"Fund.sol\":6559:6649   */\n            tag_34:\n              callvalue\n              dup1\n              iszero\n              tag_187\n              jumpi\n              0x00\n              dup1\n              revert\n            tag_187:\n              pop\n              tag_188\n              tag_189\n              jump\t// in\n            tag_188:\n              mload(0x40)\n              tag_190\n              swap2\n              swap1\n              tag_75\n              jump\t// in\n            tag_190:\n              mload(0x40)\n              dup1\n              swap2\n              sub\n              swap1\n              return\n                /* \"Fund.sol\":696:728   */\n            tag_44:\n              immutable(\"0x086599aaa20f128b50e56f5875fa43b38f0a808a0202aedcaa2848408c56ddeb\")\n              dup2\n              jump\t// out\n                /* \"Fund.sol\":7848:9038   */\n            tag_51:\n                /* \"@openzeppelin/contracts/security/ReentrancyGuard.sol\":1744:1745   */\n              0x02\n                /* \"@openzeppelin/contracts/security/ReentrancyGuard.sol\":2325:2332   */\n              sload(0x00)\n                /* \"@openzeppelin/contracts/security/ReentrancyGuard.sol\":2325:2344   */\n              sub\n                /* \"@openzeppelin/contracts/security/ReentrancyGuard.sol\":2317:2380   */\n              tag_192\n              jumpi\n              mload(0x40)\n              0x08c379a000000000000000000000000000000000000000000000000000000000\n              dup2\n              mstore\n              0x04\n              add\n              tag_193\n              swap1\n              tag_194\n              jump\t// in\n            tag_193:\n              mload(0x40)\n              dup1\n              swap2\n              sub\n              swap1\n              revert\n            tag_192:\n                /* \"@openzeppelin/contracts/security/ReentrancyGuard.sol\":1744:1745   */\n              0x02\n                /* \"@openzeppelin/contracts/security/ReentrancyGuard.sol\":2455:2462   */\n              0x00\n                /* \"@openzeppelin/contracts/security/ReentrancyGuard.sol\":2455:2473   */\n              dup2\n              swap1\n              sstore\n              pop\n                /* \"Fund.sol\":7916:7939   */\n              0x00\n                /* \"Fund.sol\":7942:7950   */\n              0x07\n                /* \"Fund.sol\":7951:7957   */\n              dup3\n                /* \"Fund.sol\":7942:7958   */\n              dup2\n              sload\n              dup2\n              lt\n              tag_196\n              jumpi\n              tag_197\n              tag_198\n              jump\t// in\n            tag_197:\n            tag_196:\n              swap1\n              0x00\n              mstore\n              keccak256(0x00, 0x20)\n              swap1\n              0x08\n              mul\n              add\n                /* \"Fund.sol\":7916:7958   */\n              swap1\n              pop\n                /* \"Fund.sol\":7997:8007   */\n              caller\n                /* \"Fund.sol\":7975:8007   */\n              0xffffffffffffffffffffffffffffffffffffffff\n              and\n                /* \"Fund.sol\":7975:7982   */\n              dup2\n                /* \"Fund.sol\":7975:7993   */\n              0x01\n              add\n              0x00\n              swap1\n              sload\n              swap1\n              0x0100\n              exp\n              swap1\n              div\n              0xffffffffffffffffffffffffffffffffffffffff\n              and\n                /* \"Fund.sol\":7975:8007   */\n              0xffffffffffffffffffffffffffffffffffffffff\n              and\n              eq\n                /* \"Fund.sol\":7967:8050   */\n              tag_200\n              jumpi\n              mload(0x40)\n              0x08c379a000000000000000000000000000000000000000000000000000000000\n              dup2\n              mstore\n              0x04\n              add\n              tag_201\n              swap1\n              tag_202\n              jump\t// in\n            tag_201:\n              mload(0x40)\n              dup1\n              swap2\n              sub\n              swap1\n              revert\n            tag_200:\n                /* \"Fund.sol\":8066:8073   */\n              dup1\n                /* \"Fund.sol\":8066:8082   */\n              0x05\n              add\n              0x00\n              swap1\n              sload\n              swap1\n              0x0100\n              exp\n              swap1\n              div\n              0xff\n              and\n                /* \"Fund.sol\":8065:8082   */\n              iszero\n                /* \"Fund.sol\":8057:8121   */\n              tag_203\n              jumpi\n              mload(0x40)\n              0x08c379a000000000000000000000000000000000000000000000000000000000\n              dup2\n              mstore\n              0x04\n              add\n              tag_204\n              swap1\n              tag_205\n              jump\t// in\n            tag_204:\n              mload(0x40)\n              dup1\n              swap2\n              sub\n              swap1\n              revert\n            tag_203:\n                /* \"Fund.sol\":8128:8147   */\n              0x00\n                /* \"Fund.sol\":8158:8192   */\n              immutable(\"0xbdb1df70217a0fc8cb4e3e99b55cd6570d97174b517460cc0ed3d1a51a56d2b7\")\n                /* \"Fund.sol\":8154:8496   */\n              iszero\n              tag_206\n              jumpi\n                /* \"Fund.sol\":8217:8236   */\n              tag_207\n                /* \"Fund.sol\":8217:8234   */\n              tag_106\n                /* \"Fund.sol\":8217:8236   */\n              jump\t// in\n            tag_207:\n                /* \"Fund.sol\":8203:8236   */\n              swap1\n              pop\n                /* \"Fund.sol\":8154:8496   */\n              jump(tag_208)\n            tag_206:\n                /* \"Fund.sol\":8273:8292   */\n              tag_209\n                /* \"Fund.sol\":8273:8290   */\n              tag_106\n                /* \"Fund.sol\":8273:8292   */\n              jump\t// in\n            tag_209:\n                /* \"Fund.sol\":8259:8292   */\n              swap1\n              pop\n                /* \"Fund.sol\":8308:8317   */\n              0x00\n                /* \"Fund.sol\":8303:8489   */\n            tag_210:\n                /* \"Fund.sol\":8323:8331   */\n              0x02\n                /* \"Fund.sol\":8323:8338   */\n              dup1\n              sload\n              swap1\n              pop\n                /* \"Fund.sol\":8319:8320   */\n              dup2\n                /* \"Fund.sol\":8319:8338   */\n              lt\n                /* \"Fund.sol\":8303:8489   */\n              iszero\n              tag_211\n              jumpi\n                /* \"Fund.sol\":8388:8389   */\n              0x00\n                /* \"Fund.sol\":8359:8372   */\n              0x05\n                /* \"Fund.sol\":8359:8385   */\n              0x00\n                /* \"Fund.sol\":8373:8381   */\n              0x02\n                /* \"Fund.sol\":8382:8383   */\n              dup5\n                /* \"Fund.sol\":8373:8384   */\n              dup2\n              sload\n              dup2\n              lt\n              tag_213\n              jumpi\n              tag_214\n              tag_198\n              jump\t// in\n            tag_214:\n            tag_213:\n              swap1\n              0x00\n              mstore\n              keccak256(0x00, 0x20)\n              add\n              0x00\n              swap1\n              sload\n              swap1\n              0x0100\n              exp\n              swap1\n              div\n              0xffffffffffffffffffffffffffffffffffffffff\n              and\n                /* \"Fund.sol\":8359:8385   */\n              0xffffffffffffffffffffffffffffffffffffffff\n              and\n              0xffffffffffffffffffffffffffffffffffffffff\n              and\n              dup2\n              mstore\n              0x20\n              add\n              swap1\n              dup2\n              mstore\n              0x20\n              add\n              0x00\n              keccak256\n              sload\n                /* \"Fund.sol\":8359:8389   */\n              gt\n                /* \"Fund.sol\":8353:8430   */\n              tag_216\n              jumpi\n                /* \"Fund.sol\":8405:8418   */\n              dup2\n              dup1\n              tag_217\n              swap1\n              tag_218\n              jump\t// in\n            tag_217:\n              swap3\n              pop\n              pop\n                /* \"Fund.sol\":8353:8430   */\n            tag_216:\n                /* \"Fund.sol\":8465:8468   */\n              dup1\n              dup1\n              0x01\n              add\n              swap2\n              pop\n              pop\n                /* \"Fund.sol\":8303:8489   */\n              jump(tag_210)\n            tag_211:\n              pop\n                /* \"Fund.sol\":8154:8496   */\n            tag_208:\n                /* \"Fund.sol\":8533:8534   */\n              0x00\n                /* \"Fund.sol\":8518:8529   */\n              dup2\n                /* \"Fund.sol\":8518:8534   */\n              eq\n                /* \"Fund.sol\":8518:8630   */\n              dup1\n              tag_219\n              jumpi\n              pop\n                /* \"Fund.sol\":8596:8630   */\n              immutable(\"0x09eb009391dc4eb4edc20fba7d18645bf2c41b671919b5bea53c7994dc980933\")\n                /* \"Fund.sol\":8581:8592   */\n              dup2\n                /* \"Fund.sol\":8574:8577   */\n              0x64\n                /* \"Fund.sol\":8539:8571   */\n              tag_220\n                /* \"Fund.sol\":8539:8546   */\n              dup6\n                /* \"Fund.sol\":8539:8561   */\n              0x07\n              add\n                /* \"Fund.sol\":8539:8569   */\n              tag_221\n                /* \"Fund.sol\":8539:8571   */\n              jump\t// in\n            tag_220:\n                /* \"Fund.sol\":8539:8577   */\n              tag_222\n              swap2\n              swap1\n              tag_223\n              jump\t// in\n            tag_222:\n                /* \"Fund.sol\":8538:8592   */\n              tag_224\n              swap2\n              swap1\n              tag_225\n              jump\t// in\n            tag_224:\n                /* \"Fund.sol\":8538:8630   */\n              lt\n              iszero\n                /* \"Fund.sol\":8518:8630   */\n            tag_219:\n                /* \"Fund.sol\":8502:8691   */\n              tag_226\n              jumpi\n              mload(0x40)\n              0x08c379a000000000000000000000000000000000000000000000000000000000\n              dup2\n              mstore\n              0x04\n              add\n              tag_227\n              swap1\n              tag_228\n              jump\t// in\n            tag_227:\n              mload(0x40)\n              dup1\n              swap2\n              sub\n              swap1\n              revert\n            tag_226:\n                /* \"Fund.sol\":8700:8724   */\n              0x00\n                /* \"Fund.sol\":8727:8734   */\n              dup3\n                /* \"Fund.sol\":8727:8750   */\n              0x03\n              add\n              sload\n                /* \"Fund.sol\":8700:8750   */\n              swap1\n              pop\n                /* \"Fund.sol\":8780:8789   */\n              tag_229\n                /* \"Fund.sol\":8780:8787   */\n              tag_149\n                /* \"Fund.sol\":8780:8789   */\n              jump\t// in\n            tag_229:\n                /* \"Fund.sol\":8761:8777   */\n              dup2\n                /* \"Fund.sol\":8761:8789   */\n              gt\n                /* \"Fund.sol\":8757:8836   */\n              iszero\n              tag_230\n              jumpi\n                /* \"Fund.sol\":8819:8828   */\n              tag_231\n                /* \"Fund.sol\":8819:8826   */\n              tag_149\n                /* \"Fund.sol\":8819:8828   */\n              jump\t// in\n            tag_231:\n                /* \"Fund.sol\":8800:8828   */\n              swap1\n              pop\n                /* \"Fund.sol\":8757:8836   */\n            tag_230:\n                /* \"Fund.sol\":8852:8859   */\n              dup3\n                /* \"Fund.sol\":8852:8869   */\n              0x02\n              add\n              0x00\n              swap1\n              sload\n              swap1\n              0x0100\n              exp\n              swap1\n              div\n              0xffffffffffffffffffffffffffffffffffffffff\n              and\n                /* \"Fund.sol\":8844:8879   */\n              0xffffffffffffffffffffffffffffffffffffffff\n              and\n                /* \"Fund.sol\":8844:8897   */\n              0x08fc\n                /* \"Fund.sol\":8880:8896   */\n              dup3\n                /* \"Fund.sol\":8844:8897   */\n              swap1\n              dup2\n              iszero\n              mul\n              swap1\n              mload(0x40)\n              0x00\n              mload(0x40)\n              dup1\n              dup4\n              sub\n              dup2\n              dup6\n              dup9\n              dup9\n              call\n              swap4\n              pop\n              pop\n              pop\n              pop\n              iszero\n              dup1\n              iszero\n              tag_233\n              jumpi\n              returndatasize\n              0x00\n              dup1\n              returndatacopy\n              revert(0x00, returndatasize)\n            tag_233:\n              pop\n                /* \"Fund.sol\":8931:8947   */\n              dup1\n                /* \"Fund.sol\":8904:8911   */\n              dup4\n                /* \"Fund.sol\":8904:8928   */\n              0x04\n              add\n                /* \"Fund.sol\":8904:8947   */\n              dup2\n              swap1\n              sstore\n              pop\n                /* \"Fund.sol\":8973:8977   */\n              0x01\n                /* \"Fund.sol\":8954:8961   */\n              dup4\n                /* \"Fund.sol\":8954:8970   */\n              0x05\n              add\n              0x00\n                /* \"Fund.sol\":8954:8977   */\n              0x0100\n              exp\n              dup2\n              sload\n              dup2\n              0xff\n              mul\n              not\n              and\n              swap1\n              dup4\n              iszero\n              iszero\n              mul\n              or\n              swap1\n              sstore\n              pop\n                /* \"Fund.sol\":9007:9013   */\n              dup4\n                /* \"Fund.sol\":8991:9032   */\n              0x2a26d55234ae45d40d3bdfd1893cf58ff7c2bb1c8089d97ed73879054778458c\n                /* \"Fund.sol\":9015:9031   */\n              dup3\n                /* \"Fund.sol\":8991:9032   */\n              mload(0x40)\n              tag_234\n              swap2\n              swap1\n              tag_75\n              jump\t// in\n            tag_234:\n              mload(0x40)\n              dup1\n              swap2\n              sub\n              swap1\n              log2\n                /* \"Fund.sol\":7909:9038   */\n              pop\n              pop\n              pop\n                /* \"@openzeppelin/contracts/security/ReentrancyGuard.sol\":1701:1702   */\n              0x01\n                /* \"@openzeppelin/contracts/security/ReentrancyGuard.sol\":2628:2635   */\n              0x00\n                /* \"@openzeppelin/contracts/security/ReentrancyGuard.sol\":2628:2650   */\n              dup2\n              swap1\n              sstore\n              pop\n                /* \"Fund.sol\":7848:9038   */\n              pop\n              jump\t// out\n                /* \"Fund.sol\":673:691   */\n            tag_54:\n              0x01\n              dup1\n              sload\n              tag_235\n              swap1\n              tag_236\n              jump\t// in\n            tag_235:\n              dup1\n              0x1f\n              add\n              0x20\n              dup1\n              swap2\n              div\n              mul\n              0x20\n              add\n              mload(0x40)\n              swap1\n              dup2\n              add\n              0x40\n              mstore\n              dup1\n              swap3\n              swap2\n              swap1\n              dup2\n              dup2\n              mstore\n              0x20\n              add\n              dup3\n              dup1\n              sload\n              tag_237\n              swap1\n              tag_236\n              jump\t// in\n            tag_237:\n              dup1\n              iszero\n              tag_238\n              jumpi\n              dup1\n              0x1f\n              lt\n              tag_239\n              jumpi\n              0x0100\n              dup1\n              dup4\n              sload\n              div\n              mul\n              dup4\n              mstore\n              swap2\n              0x20\n              add\n              swap2\n              jump(tag_238)\n            tag_239:\n              dup3\n              add\n              swap2\n              swap1\n              0x00\n              mstore\n              keccak256(0x00, 0x20)\n              swap1\n            tag_240:\n              dup2\n              sload\n              dup2\n              mstore\n              swap1\n              0x01\n              add\n              swap1\n              0x20\n              add\n              dup1\n              dup4\n              gt\n              tag_240\n              jumpi\n              dup3\n              swap1\n              sub\n              0x1f\n              and\n              dup3\n              add\n              swap2\n            tag_238:\n              pop\n              pop\n              pop\n              pop\n              pop\n              dup2\n              jump\t// out\n                /* \"Fund.sol\":5048:5130   */\n            tag_60:\n                /* \"Fund.sol\":5107:5124   */\n              tag_242\n                /* \"Fund.sol\":5119:5123   */\n              dup2\n                /* \"Fund.sol\":5107:5118   */\n              tag_243\n                /* \"Fund.sol\":5107:5124   */\n              jump\t// in\n            tag_242:\n                /* \"Fund.sol\":5048:5130   */\n              pop\n              jump\t// out\n                /* \"Fund.sol\":5795:6553   */\n            tag_65:\n                /* \"Fund.sol\":5914:5934   */\n              immutable(\"0x0b83f23a4eeb8c3f5f7d5934a2289bcf0186d09a12e1b7f20adf54e4b179db15\")\n                /* \"Fund.sol\":5906:5969   */\n              tag_245\n              jumpi\n              mload(0x40)\n              0x08c379a000000000000000000000000000000000000000000000000000000000\n              dup2\n              mstore\n              0x04\n              add\n              tag_246\n              swap1\n              tag_247\n              jump\t// in\n            tag_246:\n              mload(0x40)\n              dup1\n              swap2\n              sub\n              swap1\n              revert\n            tag_245:\n                /* \"Fund.sol\":5978:5993   */\n              0x00\n                /* \"Fund.sol\":5996:6005   */\n              0x03\n                /* \"Fund.sol\":5996:6017   */\n              0x00\n                /* \"Fund.sol\":6006:6016   */\n              caller\n                /* \"Fund.sol\":5996:6017   */\n              0xffffffffffffffffffffffffffffffffffffffff\n              and\n              0xffffffffffffffffffffffffffffffffffffffff\n              and\n              dup2\n              mstore\n              0x20\n              add\n              swap1\n              dup2\n              mstore\n              0x20\n              add\n              0x00\n              keccak256\n              0x00\n              swap1\n              sload\n              swap1\n              0x0100\n              exp\n              swap1\n              div\n              0xff\n              and\n                /* \"Fund.sol\":5978:6017   */\n              swap1\n              pop\n                /* \"Fund.sol\":6041:6070   */\n              immutable(\"0x7e73c6705797180140a00ad870c82eb4092a3440c76c03cda76c4c497759837c\")\n                /* \"Fund.sol\":6040:6070   */\n              iszero\n                /* \"Fund.sol\":6040:6119   */\n              dup1\n              tag_248\n              jumpi\n              pop\n                /* \"Fund.sol\":6075:6104   */\n              immutable(\"0x7e73c6705797180140a00ad870c82eb4092a3440c76c03cda76c4c497759837c\")\n                /* \"Fund.sol\":6075:6118   */\n              dup1\n              iszero\n              tag_249\n              jumpi\n              pop\n                /* \"Fund.sol\":6108:6118   */\n              dup1\n                /* \"Fund.sol\":6075:6118   */\n            tag_249:\n                /* \"Fund.sol\":6040:6119   */\n            tag_248:\n                /* \"Fund.sol\":6024:6188   */\n              tag_250\n              jumpi\n              mload(0x40)\n              0x08c379a000000000000000000000000000000000000000000000000000000000\n              dup2\n              mstore\n              0x04\n              add\n              tag_251\n              swap1\n              tag_252\n              jump\t// in\n            tag_251:\n              mload(0x40)\n              dup1\n              swap2\n              sub\n              swap1\n              revert\n            tag_250:\n                /* \"Fund.sol\":6197:6223   */\n              0x00\n                /* \"Fund.sol\":6226:6234   */\n              0x07\n                /* \"Fund.sol\":6226:6241   */\n              0x01\n              dup2\n              0x01\n              dup2\n              sload\n              add\n              dup1\n              dup3\n              sstore\n              dup1\n              swap2\n              pop\n              pop\n              sub\n              swap1\n              0x00\n              mstore\n              keccak256(0x00, 0x20)\n              swap1\n              0x08\n              mul\n              add\n                /* \"Fund.sol\":6197:6241   */\n              swap1\n              pop\n                /* \"Fund.sol\":6275:6287   */\n              dup5\n                /* \"Fund.sol\":6250:6260   */\n              dup2\n                /* \"Fund.sol\":6250:6272   */\n              0x00\n              add\n                /* \"Fund.sol\":6250:6287   */\n              swap1\n              dup2\n              tag_254\n              swap2\n              swap1\n              tag_255\n              jump\t// in\n            tag_254:\n              pop\n                /* \"Fund.sol\":6318:6328   */\n              caller\n                /* \"Fund.sol\":6294:6304   */\n              dup2\n                /* \"Fund.sol\":6294:6315   */\n              0x01\n              add\n              0x00\n                /* \"Fund.sol\":6294:6328   */\n              0x0100\n              exp\n              dup2\n              sload\n              dup2\n              0xffffffffffffffffffffffffffffffffffffffff\n              mul\n              not\n              and\n              swap1\n              dup4\n              0xffffffffffffffffffffffffffffffffffffffff\n              and\n              mul\n              or\n              swap1\n              sstore\n              pop\n                /* \"Fund.sol\":6358:6368   */\n              dup4\n                /* \"Fund.sol\":6335:6345   */\n              dup2\n                /* \"Fund.sol\":6335:6355   */\n              0x02\n              add\n              0x00\n                /* \"Fund.sol\":6335:6368   */\n              0x0100\n              exp\n              dup2\n              sload\n              dup2\n              0xffffffffffffffffffffffffffffffffffffffff\n              mul\n              not\n              and\n              swap1\n              dup4\n              0xffffffffffffffffffffffffffffffffffffffff\n              and\n              mul\n              or\n              swap1\n              sstore\n              pop\n                /* \"Fund.sol\":6404:6420   */\n              dup3\n                /* \"Fund.sol\":6375:6385   */\n              dup2\n                /* \"Fund.sol\":6375:6401   */\n              0x03\n              add\n                /* \"Fund.sol\":6375:6420   */\n              dup2\n              swap1\n              sstore\n              pop\n                /* \"Fund.sol\":6511:6521   */\n              dup4\n                /* \"Fund.sol\":6453:6540   */\n              0xffffffffffffffffffffffffffffffffffffffff\n              and\n                /* \"Fund.sol\":6499:6509   */\n              caller\n                /* \"Fund.sol\":6453:6540   */\n              0xffffffffffffffffffffffffffffffffffffffff\n              and\n                /* \"Fund.sol\":6482:6483   */\n              0x01\n                /* \"Fund.sol\":6464:6472   */\n              0x07\n                /* \"Fund.sol\":6464:6479   */\n              dup1\n              sload\n              swap1\n              pop\n                /* \"Fund.sol\":6464:6483   */\n              sub\n                /* \"Fund.sol\":6453:6540   */\n              0x5951f0e7966a5f08a4c0a5f25718915cc221b5a4fc488a15b2fbf1f12248d5c2\n                /* \"Fund.sol\":6485:6497   */\n              dup9\n                /* \"Fund.sol\":6523:6539   */\n              dup8\n                /* \"Fund.sol\":6453:6540   */\n              mload(0x40)\n              tag_256\n              swap3\n              swap2\n              swap1\n              tag_257\n              jump\t// in\n            tag_256:\n              mload(0x40)\n              dup1\n              swap2\n              sub\n              swap1\n              log4\n                /* \"Fund.sol\":5899:6553   */\n              pop\n              pop\n                /* \"Fund.sol\":5795:6553   */\n              pop\n              pop\n              pop\n              jump\t// out\n                /* \"Fund.sol\":3456:4046   */\n            tag_70:\n                /* \"Fund.sol\":3530:3557   */\n              immutable(\"0xabd0c21861b5107cb0dd8303bd3ecb8c5f496d87c4b38229035d6890add563e2\")\n                /* \"Fund.sol\":3522:3605   */\n              tag_259\n              jumpi\n              mload(0x40)\n              0x08c379a000000000000000000000000000000000000000000000000000000000\n              dup2\n              mstore\n              0x04\n              add\n              tag_260\n              swap1\n              tag_261\n              jump\t// in\n            tag_260:\n              mload(0x40)\n              dup1\n              swap2\n              sub\n              swap1\n              revert\n            tag_259:\n                /* \"Fund.sol\":3620:3629   */\n              0x03\n                /* \"Fund.sol\":3620:3641   */\n              0x00\n                /* \"Fund.sol\":3630:3640   */\n              caller\n                /* \"Fund.sol\":3620:3641   */\n              0xffffffffffffffffffffffffffffffffffffffff\n              and\n              0xffffffffffffffffffffffffffffffffffffffff\n              and\n              dup2\n              mstore\n              0x20\n              add\n              swap1\n              dup2\n              mstore\n              0x20\n              add\n              0x00\n              keccak256\n              0x00\n              swap1\n              sload\n              swap1\n              0x0100\n              exp\n              swap1\n              div\n              0xff\n              and\n                /* \"Fund.sol\":3612:3685   */\n              tag_262\n              jumpi\n              mload(0x40)\n              0x08c379a000000000000000000000000000000000000000000000000000000000\n              dup2\n              mstore\n              0x04\n              add\n              tag_263\n              swap1\n              tag_264\n              jump\t// in\n            tag_263:\n              mload(0x40)\n              dup1\n              swap2\n              sub\n              swap1\n              revert\n            tag_262:\n                /* \"Fund.sol\":3719:3720   */\n              0x00\n                /* \"Fund.sol\":3700:3709   */\n              dup2\n                /* \"Fund.sol\":3700:3716   */\n              mload\n                /* \"Fund.sol\":3700:3720   */\n              gt\n                /* \"Fund.sol\":3692:3771   */\n              tag_265\n              jumpi\n              mload(0x40)\n              0x08c379a000000000000000000000000000000000000000000000000000000000\n              dup2\n              mstore\n              0x04\n              add\n              tag_266\n              swap1\n              tag_267\n              jump\t// in\n            tag_266:\n              mload(0x40)\n              dup1\n              swap2\n              sub\n              swap1\n              revert\n            tag_265:\n                /* \"Fund.sol\":3785:3794   */\n              0x00\n                /* \"Fund.sol\":3780:4041   */\n            tag_268:\n                /* \"Fund.sol\":3800:3809   */\n              dup2\n                /* \"Fund.sol\":3800:3816   */\n              mload\n                /* \"Fund.sol\":3796:3797   */\n              dup2\n                /* \"Fund.sol\":3796:3816   */\n              lt\n                /* \"Fund.sol\":3780:4041   */\n              iszero\n              tag_269\n              jumpi\n                /* \"Fund.sol\":3834:3843   */\n              0x03\n                /* \"Fund.sol\":3834:3857   */\n              0x00\n                /* \"Fund.sol\":3844:3853   */\n              dup4\n                /* \"Fund.sol\":3854:3855   */\n              dup4\n                /* \"Fund.sol\":3844:3856   */\n              dup2\n              mload\n              dup2\n              lt\n              tag_271\n              jumpi\n              tag_272\n              tag_198\n              jump\t// in\n            tag_272:\n            tag_271:\n              0x20\n              mul\n              0x20\n              add\n              add\n              mload\n                /* \"Fund.sol\":3834:3857   */\n              0xffffffffffffffffffffffffffffffffffffffff\n              and\n              0xffffffffffffffffffffffffffffffffffffffff\n              and\n              dup2\n              mstore\n              0x20\n              add\n              swap1\n              dup2\n              mstore\n              0x20\n              add\n              0x00\n              keccak256\n              0x00\n              swap1\n              sload\n              swap1\n              0x0100\n              exp\n              swap1\n              div\n              0xff\n              and\n                /* \"Fund.sol\":3829:3990   */\n              tag_273\n              jumpi\n                /* \"Fund.sol\":3870:3878   */\n              0x02\n                /* \"Fund.sol\":3884:3893   */\n              dup3\n                /* \"Fund.sol\":3894:3895   */\n              dup3\n                /* \"Fund.sol\":3884:3896   */\n              dup2\n              mload\n              dup2\n              lt\n              tag_274\n              jumpi\n              tag_275\n              tag_198\n              jump\t// in\n            tag_275:\n            tag_274:\n              0x20\n              mul\n              0x20\n              add\n              add\n              mload\n                /* \"Fund.sol\":3870:3897   */\n              swap1\n              dup1\n              0x01\n              dup2\n              sload\n              add\n              dup1\n              dup3\n              sstore\n              dup1\n              swap2\n              pop\n              pop\n              0x01\n              swap1\n              sub\n              swap1\n              0x00\n              mstore\n              keccak256(0x00, 0x20)\n              add\n              0x00\n              swap1\n              swap2\n              swap1\n              swap2\n              swap1\n              swap2\n              0x0100\n              exp\n              dup2\n              sload\n              dup2\n              0xffffffffffffffffffffffffffffffffffffffff\n              mul\n              not\n              and\n              swap1\n              dup4\n              0xffffffffffffffffffffffffffffffffffffffff\n              and\n              mul\n              or\n              swap1\n              sstore\n              pop\n                /* \"Fund.sol\":3934:3938   */\n              0x01\n                /* \"Fund.sol\":3908:3917   */\n              0x03\n                /* \"Fund.sol\":3908:3931   */\n              0x00\n                /* \"Fund.sol\":3918:3927   */\n              dup5\n                /* \"Fund.sol\":3928:3929   */\n              dup5\n                /* \"Fund.sol\":3918:3930   */\n              dup2\n              mload\n              dup2\n              lt\n              tag_277\n              jumpi\n              tag_278\n              tag_198\n              jump\t// in\n            tag_278:\n            tag_277:\n              0x20\n              mul\n              0x20\n              add\n              add\n              mload\n                /* \"Fund.sol\":3908:3931   */\n              0xffffffffffffffffffffffffffffffffffffffff\n              and\n              0xffffffffffffffffffffffffffffffffffffffff\n              and\n              dup2\n              mstore\n              0x20\n              add\n              swap1\n              dup2\n              mstore\n              0x20\n              add\n              0x00\n              keccak256\n              0x00\n                /* \"Fund.sol\":3908:3938   */\n              0x0100\n              exp\n              dup2\n              sload\n              dup2\n              0xff\n              mul\n              not\n              and\n              swap1\n              dup4\n              iszero\n              iszero\n              mul\n              or\n              swap1\n              sstore\n              pop\n                /* \"Fund.sol\":3967:3976   */\n              dup2\n                /* \"Fund.sol\":3977:3978   */\n              dup2\n                /* \"Fund.sol\":3967:3979   */\n              dup2\n              mload\n              dup2\n              lt\n              tag_279\n              jumpi\n              tag_280\n              tag_198\n              jump\t// in\n            tag_280:\n            tag_279:\n              0x20\n              mul\n              0x20\n              add\n              add\n              mload\n                /* \"Fund.sol\":3956:3980   */\n              0xffffffffffffffffffffffffffffffffffffffff\n              and\n              0x5589a1df7a257347b14b97cb6fe06862c960ff64e9a0c2908632929098bb0130\n              mload(0x40)\n              mload(0x40)\n              dup1\n              swap2\n              sub\n              swap1\n              log2\n                /* \"Fund.sol\":3829:3990   */\n            tag_273:\n                /* \"Fund.sol\":4021:4024   */\n              dup1\n              dup1\n              0x01\n              add\n              swap2\n              pop\n              pop\n                /* \"Fund.sol\":3780:4041   */\n              jump(tag_268)\n            tag_269:\n              pop\n                /* \"Fund.sol\":3456:4046   */\n              pop\n              jump\t// out\n                /* \"Fund.sol\":1059:1092   */\n            tag_73:\n              sload(0x06)\n              dup2\n              jump\t// out\n                /* \"Fund.sol\":972:1001   */\n            tag_79:\n              0x04\n              dup2\n              dup2\n              sload\n              dup2\n              lt\n              tag_281\n              jumpi\n              0x00\n              dup1\n              revert\n            tag_281:\n              swap1\n              0x00\n              mstore\n              keccak256(0x00, 0x20)\n              add\n              0x00\n              swap2\n              pop\n              sload\n              swap1\n              0x0100\n              exp\n              swap1\n              div\n              0xffffffffffffffffffffffffffffffffffffffff\n              and\n              dup2\n              jump\t// out\n                /* \"Fund.sol\":814:839   */\n            tag_84:\n              0x02\n              dup2\n              dup2\n              sload\n              dup2\n              lt\n              tag_283\n              jumpi\n              0x00\n              dup1\n              revert\n            tag_283:\n              swap1\n              0x00\n              mstore\n              keccak256(0x00, 0x20)\n              add\n              0x00\n              swap2\n              pop\n              sload\n              swap1\n              0x0100\n              exp\n              swap1\n              div\n              0xffffffffffffffffffffffffffffffffffffffff\n              and\n              dup2\n              jump\t// out\n                /* \"Fund.sol\":9044:9337   */\n            tag_88:\n                /* \"Fund.sol\":9102:9118   */\n              0x00\n                /* \"Fund.sol\":9120:9136   */\n              dup1\n                /* \"Fund.sol\":9138:9157   */\n              0x60\n                /* \"Fund.sol\":9159:9175   */\n              0x00\n                /* \"Fund.sol\":9177:9195   */\n              dup1\n                /* \"Fund.sol\":9226:9230   */\n              address\n                /* \"Fund.sol\":9207:9231   */\n              swap5\n              pop\n                /* \"Fund.sol\":9249:9258   */\n              tag_286\n                /* \"Fund.sol\":9249:9256   */\n              tag_149\n                /* \"Fund.sol\":9249:9258   */\n              jump\t// in\n            tag_286:\n                /* \"Fund.sol\":9238:9258   */\n              swap4\n              pop\n                /* \"Fund.sol\":9273:9277   */\n              0x01\n                /* \"Fund.sol\":9265:9277   */\n              dup1\n              sload\n              tag_287\n              swap1\n              tag_236\n              jump\t// in\n            tag_287:\n              dup1\n              0x1f\n              add\n              0x20\n              dup1\n              swap2\n              div\n              mul\n              0x20\n              add\n              mload(0x40)\n              swap1\n              dup2\n              add\n              0x40\n              mstore\n              dup1\n              swap3\n              swap2\n              swap1\n              dup2\n              dup2\n              mstore\n              0x20\n              add\n              dup3\n              dup1\n              sload\n              tag_288\n              swap1\n              tag_236\n              jump\t// in\n            tag_288:\n              dup1\n              iszero\n              tag_289\n              jumpi\n              dup1\n              0x1f\n              lt\n              tag_290\n              jumpi\n              0x0100\n              dup1\n              dup4\n              sload\n              div\n              mul\n              dup4\n              mstore\n              swap2\n              0x20\n              add\n              swap2\n              jump(tag_289)\n            tag_290:\n              dup3\n              add\n              swap2\n              swap1\n              0x00\n              mstore\n              keccak256(0x00, 0x20)\n              swap1\n            tag_291:\n              dup2\n              sload\n              dup2\n              mstore\n              swap1\n              0x01\n              add\n              swap1\n              0x20\n              add\n              dup1\n              dup4\n              gt\n              tag_291\n              jumpi\n              dup3\n              swap1\n              sub\n              0x1f\n              and\n              dup3\n              add\n              swap2\n            tag_289:\n              pop\n              pop\n              pop\n              pop\n              pop\n              swap3\n              pop\n                /* \"Fund.sol\":9295:9302   */\n              immutable(\"0x086599aaa20f128b50e56f5875fa43b38f0a808a0202aedcaa2848408c56ddeb\")\n                /* \"Fund.sol\":9284:9302   */\n              swap2\n              pop\n                /* \"Fund.sol\":9322:9331   */\n              immutable(\"0xccd68672d6f769e1076a41a883b1b79cd2ffe42afc01c80e02e0f47639ea513e\")\n                /* \"Fund.sol\":9309:9331   */\n              swap1\n              pop\n                /* \"Fund.sol\":9044:9337   */\n              swap1\n              swap2\n              swap3\n              swap4\n              swap5\n              jump\t// out\n                /* \"Fund.sol\":1006:1054   */\n            tag_94:\n              mstore(0x20, 0x05)\n              dup1\n              0x00\n              mstore\n              keccak256(0x00, 0x40)\n              0x00\n              swap2\n              pop\n              swap1\n              pop\n              sload\n              dup2\n              jump\t// out\n                /* \"Fund.sol\":4777:4867   */\n            tag_98:\n                /* \"Fund.sol\":4823:4830   */\n              0x00\n                /* \"Fund.sol\":4846:4854   */\n              0x02\n                /* \"Fund.sol\":4846:4861   */\n              dup1\n              sload\n              swap1\n              pop\n                /* \"Fund.sol\":4839:4861   */\n              swap1\n              pop\n                /* \"Fund.sol\":4777:4867   */\n              swap1\n              jump\t// out\n                /* \"Fund.sol\":1383:1445   */\n            tag_102:\n              immutable(\"0x43873eeb05f071a7bf324d5f07f06c3052b56a11f42b8a72285610bbfa52aabc\")\n              dup2\n              jump\t// out\n                /* \"Fund.sol\":5136:5234   */\n            tag_106:\n                /* \"Fund.sol\":5186:5193   */\n              0x00\n                /* \"Fund.sol\":5209:5221   */\n              0x04\n                /* \"Fund.sol\":5209:5228   */\n              dup1\n              sload\n              swap1\n              pop\n                /* \"Fund.sol\":5202:5228   */\n              swap1\n              pop\n                /* \"Fund.sol\":5136:5234   */\n              swap1\n              jump\t// out\n                /* \"Fund.sol\":1121:1182   */\n            tag_110:\n              immutable(\"0xad3956a60eedf591a890fcb8158e2c270890b8990b07189fbdcb6016f0cee2b1\")\n              dup2\n              jump\t// out\n                /* \"Fund.sol\":1189:1214   */\n            tag_116:\n              0x07\n              dup2\n              dup2\n              sload\n              dup2\n              lt\n              tag_294\n              jumpi\n              0x00\n              dup1\n              revert\n            tag_294:\n              swap1\n              0x00\n              mstore\n              keccak256(0x00, 0x20)\n              swap1\n              0x08\n              mul\n              add\n              0x00\n              swap2\n              pop\n              swap1\n              pop\n              dup1\n              0x00\n              add\n              dup1\n              sload\n              tag_296\n              swap1\n              tag_236\n              jump\t// in\n            tag_296:\n              dup1\n              0x1f\n              add\n              0x20\n              dup1\n              swap2\n              div\n              mul\n              0x20\n              add\n              mload(0x40)\n              swap1\n              dup2\n              add\n              0x40\n              mstore\n              dup1\n              swap3\n              swap2\n              swap1\n              dup2\n              dup2\n              mstore\n              0x20\n              add\n              dup3\n              dup1\n              sload\n              tag_297\n              swap1\n              tag_236\n              jump\t// in\n            tag_297:\n              dup1\n              iszero\n              tag_298\n              jumpi\n              dup1\n              0x1f\n              lt\n              tag_299\n              jumpi\n              0x0100\n              dup1\n              dup4\n              sload\n              div\n              mul\n              dup4\n              mstore\n              swap2\n              0x20\n              add\n              swap2\n              jump(tag_298)\n            tag_299:\n              dup3\n              add\n              swap2\n              swap1\n              0x00\n              mstore\n              keccak256(0x00, 0x20)\n              swap1\n            tag_300:\n              dup2\n              sload\n              dup2\n              mstore\n              swap1\n              0x01\n              add\n              swap1\n              0x20\n              add\n              dup1\n              dup4\n              gt\n              tag_300\n              jumpi\n              dup3\n              swap1\n              sub\n              0x1f\n              and\n              dup3\n              add\n              swap2\n            tag_298:\n              pop\n              pop\n              pop\n              pop\n              pop\n              swap1\n              dup1\n              0x01\n              add\n              0x00\n              swap1\n              sload\n              swap1\n              0x0100\n              exp\n              swap1\n              div\n              0xffffffffffffffffffffffffffffffffffffffff\n              and\n              swap1\n              dup1\n              0x02\n              add\n              0x00\n              swap1\n              sload\n              swap1\n              0x0100\n              exp\n              swap1\n              div\n              0xffffffffffffffffffffffffffffffffffffffff\n              and\n              swap1\n              dup1\n              0x03\n              add\n              sload\n              swap1\n              dup1\n              0x04\n              add\n              sload\n              swap1\n              dup1\n              0x05\n              add\n              0x00\n              swap1\n              sload\n              swap1\n              0x0100\n              exp\n              swap1\n              div\n              0xff\n              and\n              swap1\n              dup1\n              0x07\n              add\n              mload(0x40)\n              dup1\n              0x20\n              add\n              0x40\n              mstore\n              swap1\n              dup2\n              0x00\n              dup3\n              add\n              sload\n              dup2\n              mstore\n              pop\n              pop\n              swap1\n              pop\n              dup8\n              jump\t// out\n                /* \"Fund.sol\":1266:1317   */\n            tag_121:\n              immutable(\"0x7e73c6705797180140a00ad870c82eb4092a3440c76c03cda76c4c497759837c\")\n              dup2\n              jump\t// out\n                /* \"Fund.sol\":7695:7842   */\n            tag_127:\n                /* \"Fund.sol\":7779:7783   */\n              0x00\n                /* \"Fund.sol\":7799:7807   */\n              0x07\n                /* \"Fund.sol\":7808:7814   */\n              dup4\n                /* \"Fund.sol\":7799:7815   */\n              dup2\n              sload\n              dup2\n              lt\n              tag_302\n              jumpi\n              tag_303\n              tag_198\n              jump\t// in\n            tag_303:\n            tag_302:\n              swap1\n              0x00\n              mstore\n              keccak256(0x00, 0x20)\n              swap1\n              0x08\n              mul\n              add\n                /* \"Fund.sol\":7799:7825   */\n              0x06\n              add\n                /* \"Fund.sol\":7799:7836   */\n              0x00\n                /* \"Fund.sol\":7826:7835   */\n              dup4\n                /* \"Fund.sol\":7799:7836   */\n              0xffffffffffffffffffffffffffffffffffffffff\n              and\n              0xffffffffffffffffffffffffffffffffffffffff\n              and\n              dup2\n              mstore\n              0x20\n              add\n              swap1\n              dup2\n              mstore\n              0x20\n              add\n              0x00\n              keccak256\n              0x00\n              swap1\n              sload\n              swap1\n              0x0100\n              exp\n              swap1\n              div\n              0xff\n              and\n                /* \"Fund.sol\":7792:7836   */\n              swap1\n              pop\n                /* \"Fund.sol\":7695:7842   */\n              swap3\n              swap2\n              pop\n              pop\n              jump\t// out\n                /* \"Fund.sol\":4873:4963   */\n            tag_131:\n                /* \"Fund.sol\":4917:4933   */\n              0x60\n                /* \"Fund.sol\":4949:4957   */\n              0x02\n                /* \"Fund.sol\":4942:4957   */\n              dup1\n              sload\n              dup1\n              0x20\n              mul\n              0x20\n              add\n              mload(0x40)\n              swap1\n              dup2\n              add\n              0x40\n              mstore\n              dup1\n              swap3\n              swap2\n              swap1\n              dup2\n              dup2\n              mstore\n              0x20\n              add\n              dup3\n              dup1\n              sload\n              dup1\n              iszero\n              tag_306\n              jumpi\n              0x20\n              mul\n              dup3\n              add\n              swap2\n              swap1\n              0x00\n              mstore\n              keccak256(0x00, 0x20)\n              swap1\n            tag_307:\n              dup2\n              0x00\n              swap1\n              sload\n              swap1\n              0x0100\n              exp\n              swap1\n              div\n              0xffffffffffffffffffffffffffffffffffffffff\n              and\n              0xffffffffffffffffffffffffffffffffffffffff\n              and\n              dup2\n              mstore\n              0x20\n              add\n              swap1\n              0x01\n              add\n              swap1\n              dup1\n              dup4\n              gt\n              tag_307\n              jumpi\n            tag_306:\n              pop\n              pop\n              pop\n              pop\n              pop\n              swap1\n              pop\n                /* \"Fund.sol\":4873:4963   */\n              swap1\n              jump\t// out\n                /* \"Fund.sol\":5440:5789   */\n            tag_138:\n                /* \"Fund.sol\":5509:5548   */\n              immutable(\"0xad3956a60eedf591a890fcb8158e2c270890b8990b07189fbdcb6016f0cee2b1\")\n                /* \"Fund.sol\":5501:5618   */\n              tag_309\n              jumpi\n              mload(0x40)\n              0x08c379a000000000000000000000000000000000000000000000000000000000\n              dup2\n              mstore\n              0x04\n              add\n              tag_310\n              swap1\n              tag_311\n              jump\t// in\n            tag_310:\n              mload(0x40)\n              dup1\n              swap2\n              sub\n              swap1\n              revert\n            tag_309:\n                /* \"Fund.sol\":5633:5642   */\n              0x03\n                /* \"Fund.sol\":5633:5654   */\n              0x00\n                /* \"Fund.sol\":5643:5653   */\n              caller\n                /* \"Fund.sol\":5633:5654   */\n              0xffffffffffffffffffffffffffffffffffffffff\n              and\n              0xffffffffffffffffffffffffffffffffffffffff\n              and\n              dup2\n              mstore\n              0x20\n              add\n              swap1\n              dup2\n              mstore\n              0x20\n              add\n              0x00\n              keccak256\n              0x00\n              swap1\n              sload\n              swap1\n              0x0100\n              exp\n              swap1\n              div\n              0xff\n              and\n                /* \"Fund.sol\":5625:5698   */\n              tag_312\n              jumpi\n              mload(0x40)\n              0x08c379a000000000000000000000000000000000000000000000000000000000\n              dup2\n              mstore\n              0x04\n              add\n              tag_313\n              swap1\n              tag_264\n              jump\t// in\n            tag_313:\n              mload(0x40)\n              dup1\n              swap2\n              sub\n              swap1\n              revert\n            tag_312:\n                /* \"Fund.sol\":5715:5718   */\n              dup2\n                /* \"Fund.sol\":5707:5728   */\n              0xffffffffffffffffffffffffffffffffffffffff\n              and\n                /* \"Fund.sol\":5707:5736   */\n              0x08fc\n                /* \"Fund.sol\":5729:5735   */\n              dup3\n                /* \"Fund.sol\":5707:5736   */\n              swap1\n              dup2\n              iszero\n              mul\n              swap1\n              mload(0x40)\n              0x00\n              mload(0x40)\n              dup1\n              dup4\n              sub\n              dup2\n              dup6\n              dup9\n              dup9\n              call\n              swap4\n              pop\n              pop\n              pop\n              pop\n              iszero\n              dup1\n              iszero\n              tag_315\n              jumpi\n              returndatasize\n              0x00\n              dup1\n              returndatacopy\n              revert(0x00, returndatasize)\n            tag_315:\n              pop\n                /* \"Fund.sol\":5771:5774   */\n              dup2\n                /* \"Fund.sol\":5750:5783   */\n              0xffffffffffffffffffffffffffffffffffffffff\n              and\n                /* \"Fund.sol\":5759:5769   */\n              caller\n                /* \"Fund.sol\":5750:5783   */\n              0xffffffffffffffffffffffffffffffffffffffff\n              and\n              0xddf252ad1be2c89b69c2b068fc378daa952ba7f163c4a11628f55a4df523b3ef\n                /* \"Fund.sol\":5776:5782   */\n              dup4\n                /* \"Fund.sol\":5750:5783   */\n              mload(0x40)\n              tag_316\n              swap2\n              swap1\n              tag_75\n              jump\t// in\n            tag_316:\n              mload(0x40)\n              dup1\n              swap2\n              sub\n              swap1\n              log3\n                /* \"Fund.sol\":5440:5789   */\n              pop\n              pop\n              jump\t// out\n                /* \"Fund.sol\":1219:1261   */\n            tag_141:\n              immutable(\"0x0b83f23a4eeb8c3f5f7d5934a2289bcf0186d09a12e1b7f20adf54e4b179db15\")\n              dup2\n              jump\t// out\n                /* \"Fund.sol\":5240:5338   */\n            tag_145:\n                /* \"Fund.sol\":5288:5304   */\n              0x60\n                /* \"Fund.sol\":5320:5332   */\n              0x04\n                /* \"Fund.sol\":5313:5332   */\n              dup1\n              sload\n              dup1\n              0x20\n              mul\n              0x20\n              add\n              mload(0x40)\n              swap1\n              dup2\n              add\n              0x40\n              mstore\n              dup1\n              swap3\n              swap2\n              swap1\n              dup2\n              dup2\n              mstore\n              0x20\n              add\n              dup3\n              dup1\n              sload\n              dup1\n              iszero\n              tag_318\n              jumpi\n              0x20\n              mul\n              dup3\n              add\n              swap2\n              swap1\n              0x00\n              mstore\n              keccak256(0x00, 0x20)\n              swap1\n            tag_319:\n              dup2\n              0x00\n              swap1\n              sload\n              swap1\n              0x0100\n              exp\n              swap1\n              div\n              0xffffffffffffffffffffffffffffffffffffffff\n              and\n              0xffffffffffffffffffffffffffffffffffffffff\n              and\n              dup2\n              mstore\n              0x20\n              add\n              swap1\n              0x01\n              add\n              swap1\n              dup1\n              dup4\n              gt\n              tag_319\n              jumpi\n            tag_318:\n              pop\n              pop\n              pop\n              pop\n              pop\n              swap1\n              pop\n                /* \"Fund.sol\":5240:5338   */\n              swap1\n              jump\t// out\n                /* \"Fund.sol\":5344:5434   */\n            tag_149:\n                /* \"Fund.sol\":5384:5391   */\n              0x00\n                /* \"Fund.sol\":5407:5428   */\n              selfbalance\n                /* \"Fund.sol\":5400:5428   */\n              swap1\n              pop\n                /* \"Fund.sol\":5344:5434   */\n              swap1\n              jump\t// out\n                /* \"Fund.sol\":733:785   */\n            tag_153:\n              immutable(\"0xccd68672d6f769e1076a41a883b1b79cd2ffe42afc01c80e02e0f47639ea513e\")\n              dup2\n              jump\t// out\n                /* \"Fund.sol\":4969:5042   */\n            tag_156:\n                /* \"Fund.sol\":5013:5036   */\n              tag_322\n                /* \"Fund.sol\":5025:5035   */\n              caller\n                /* \"Fund.sol\":5013:5024   */\n              tag_243\n                /* \"Fund.sol\":5013:5036   */\n              jump\t// in\n            tag_322:\n                /* \"Fund.sol\":4969:5042   */\n              jump\t// out\n                /* \"Fund.sol\":6755:7689   */\n            tag_160:\n                /* \"Fund.sol\":6809:6832   */\n              0x00\n                /* \"Fund.sol\":6835:6843   */\n              0x07\n                /* \"Fund.sol\":6844:6850   */\n              dup3\n                /* \"Fund.sol\":6835:6851   */\n              dup2\n              sload\n              dup2\n              lt\n              tag_324\n              jumpi\n              tag_325\n              tag_198\n              jump\t// in\n            tag_325:\n            tag_324:\n              swap1\n              0x00\n              mstore\n              keccak256(0x00, 0x20)\n              swap1\n              0x08\n              mul\n              add\n                /* \"Fund.sol\":6809:6851   */\n              swap1\n              pop\n                /* \"Fund.sol\":6869:6876   */\n              dup1\n                /* \"Fund.sol\":6869:6885   */\n              0x05\n              add\n              0x00\n              swap1\n              sload\n              swap1\n              0x0100\n              exp\n              swap1\n              div\n              0xff\n              and\n                /* \"Fund.sol\":6868:6885   */\n              iszero\n                /* \"Fund.sol\":6860:6924   */\n              tag_327\n              jumpi\n              mload(0x40)\n              0x08c379a000000000000000000000000000000000000000000000000000000000\n              dup2\n              mstore\n              0x04\n              add\n              tag_328\n              swap1\n              tag_205\n              jump\t// in\n            tag_328:\n              mload(0x40)\n              dup1\n              swap2\n              sub\n              swap1\n              revert\n            tag_327:\n                /* \"Fund.sol\":6940:6947   */\n              dup1\n                /* \"Fund.sol\":6940:6957   */\n              0x06\n              add\n                /* \"Fund.sol\":6940:6969   */\n              0x00\n                /* \"Fund.sol\":6958:6968   */\n              caller\n                /* \"Fund.sol\":6940:6969   */\n              0xffffffffffffffffffffffffffffffffffffffff\n              and\n              0xffffffffffffffffffffffffffffffffffffffff\n              and\n              dup2\n              mstore\n              0x20\n              add\n              swap1\n              dup2\n              mstore\n              0x20\n              add\n              0x00\n              keccak256\n              0x00\n              swap1\n              sload\n              swap1\n              0x0100\n              exp\n              swap1\n              div\n              0xff\n              and\n                /* \"Fund.sol\":6939:6969   */\n              iszero\n                /* \"Fund.sol\":6931:7004   */\n              tag_329\n              jumpi\n              mload(0x40)\n              0x08c379a000000000000000000000000000000000000000000000000000000000\n              dup2\n              mstore\n              0x04\n              add\n              tag_330\n              swap1\n              tag_331\n              jump\t// in\n            tag_330:\n              mload(0x40)\n              dup1\n              swap2\n              sub\n              swap1\n              revert\n            tag_329:\n                /* \"Fund.sol\":7011:7057   */\n              0x00\n                /* \"Fund.sol\":7060:7097   */\n              immutable(\"0x43873eeb05f071a7bf324d5f07f06c3052b56a11f42b8a72285610bbfa52aabc\")\n                /* \"Fund.sol\":7011:7097   */\n              swap1\n              pop\n                /* \"Fund.sol\":7104:7131   */\n              0x00\n                /* \"Fund.sol\":7134:7152   */\n              sload(0x06)\n                /* \"Fund.sol\":7104:7152   */\n              swap1\n              pop\n                /* \"Fund.sol\":7177:7211   */\n              immutable(\"0xbdb1df70217a0fc8cb4e3e99b55cd6570d97174b517460cc0ed3d1a51a56d2b7\")\n                /* \"Fund.sol\":7176:7211   */\n              iszero\n                /* \"Fund.sol\":7176:7236   */\n              dup1\n              iszero\n              tag_332\n              jumpi\n              pop\n                /* \"Fund.sol\":7215:7224   */\n              0x03\n                /* \"Fund.sol\":7215:7236   */\n              0x00\n                /* \"Fund.sol\":7225:7235   */\n              caller\n                /* \"Fund.sol\":7215:7236   */\n              0xffffffffffffffffffffffffffffffffffffffff\n              and\n              0xffffffffffffffffffffffffffffffffffffffff\n              and\n              dup2\n              mstore\n              0x20\n              add\n              swap1\n              dup2\n              mstore\n              0x20\n              add\n              0x00\n              keccak256\n              0x00\n              swap1\n              sload\n              swap1\n              0x0100\n              exp\n              swap1\n              div\n              0xff\n              and\n                /* \"Fund.sol\":7176:7236   */\n            tag_332:\n                /* \"Fund.sol\":7175:7293   */\n              dup1\n              tag_333\n              jumpi\n              pop\n                /* \"Fund.sol\":7292:7293   */\n              0x00\n                /* \"Fund.sol\":7250:7288   */\n              dup3\n                /* \"Fund.sol\":7250:7293   */\n              eq\n                /* \"Fund.sol\":7175:7293   */\n            tag_333:\n                /* \"Fund.sol\":7175:7443   */\n              dup1\n              tag_334\n              jumpi\n              pop\n                /* \"Fund.sol\":7329:7330   */\n              0x00\n                /* \"Fund.sol\":7307:7326   */\n              dup2\n                /* \"Fund.sol\":7307:7330   */\n              gt\n                /* \"Fund.sol\":7307:7442   */\n              dup1\n              iszero\n              tag_335\n              jumpi\n              pop\n                /* \"Fund.sol\":7404:7442   */\n              dup2\n                /* \"Fund.sol\":7381:7400   */\n              dup2\n                /* \"Fund.sol\":7374:7377   */\n              0x64\n                /* \"Fund.sol\":7346:7359   */\n              0x05\n                /* \"Fund.sol\":7346:7371   */\n              0x00\n                /* \"Fund.sol\":7360:7370   */\n              caller\n                /* \"Fund.sol\":7346:7371   */\n              0xffffffffffffffffffffffffffffffffffffffff\n              and\n              0xffffffffffffffffffffffffffffffffffffffff\n              and\n              dup2\n              mstore\n              0x20\n              add\n              swap1\n              dup2\n              mstore\n              0x20\n              add\n              0x00\n              keccak256\n              sload\n                /* \"Fund.sol\":7346:7377   */\n              tag_336\n              swap2\n              swap1\n              tag_223\n              jump\t// in\n            tag_336:\n                /* \"Fund.sol\":7345:7400   */\n              tag_337\n              swap2\n              swap1\n              tag_225\n              jump\t// in\n            tag_337:\n                /* \"Fund.sol\":7345:7442   */\n              lt\n              iszero\n                /* \"Fund.sol\":7307:7442   */\n            tag_335:\n                /* \"Fund.sol\":7175:7443   */\n            tag_334:\n                /* \"Fund.sol\":7159:7549   */\n              tag_338\n              jumpi\n              mload(0x40)\n              0x08c379a000000000000000000000000000000000000000000000000000000000\n              dup2\n              mstore\n              0x04\n              add\n              tag_339\n              swap1\n              tag_340\n              jump\t// in\n            tag_339:\n              mload(0x40)\n              dup1\n              swap2\n              sub\n              swap1\n              revert\n            tag_338:\n                /* \"Fund.sol\":7590:7594   */\n              0x01\n                /* \"Fund.sol\":7558:7565   */\n              dup4\n                /* \"Fund.sol\":7558:7575   */\n              0x06\n              add\n                /* \"Fund.sol\":7558:7587   */\n              0x00\n                /* \"Fund.sol\":7576:7586   */\n              caller\n                /* \"Fund.sol\":7558:7587   */\n              0xffffffffffffffffffffffffffffffffffffffff\n              and\n              0xffffffffffffffffffffffffffffffffffffffff\n              and\n              dup2\n              mstore\n              0x20\n              add\n              swap1\n              dup2\n              mstore\n              0x20\n              add\n              0x00\n              keccak256\n              0x00\n                /* \"Fund.sol\":7558:7594   */\n              0x0100\n              exp\n              dup2\n              sload\n              dup2\n              0xff\n              mul\n              not\n              and\n              swap1\n              dup4\n              iszero\n              iszero\n              mul\n              or\n              swap1\n              sstore\n              pop\n                /* \"Fund.sol\":7601:7635   */\n              tag_341\n                /* \"Fund.sol\":7601:7608   */\n              dup4\n                /* \"Fund.sol\":7601:7623   */\n              0x07\n              add\n                /* \"Fund.sol\":7601:7633   */\n              tag_342\n                /* \"Fund.sol\":7601:7635   */\n              jump\t// in\n            tag_341:\n                /* \"Fund.sol\":7672:7682   */\n              caller\n                /* \"Fund.sol\":7649:7683   */\n              0xffffffffffffffffffffffffffffffffffffffff\n              and\n                /* \"Fund.sol\":7664:7670   */\n              dup5\n                /* \"Fund.sol\":7649:7683   */\n              0x893b9e35d011bbe15567d0f899b775d6e02d49f62378315a6d25759d3bb1dbcc\n              mload(0x40)\n              mload(0x40)\n              dup1\n              swap2\n              sub\n              swap1\n              log3\n                /* \"Fund.sol\":6802:7689   */\n              pop\n              pop\n              pop\n                /* \"Fund.sol\":6755:7689   */\n              pop\n              jump\t// out\n                /* \"Fund.sol\":4052:4771   */\n            tag_164:\n                /* \"Fund.sol\":4113:4140   */\n              immutable(\"0xabd0c21861b5107cb0dd8303bd3ecb8c5f496d87c4b38229035d6890add563e2\")\n                /* \"Fund.sol\":4105:4189   */\n              tag_344\n              jumpi\n              mload(0x40)\n              0x08c379a000000000000000000000000000000000000000000000000000000000\n              dup2\n              mstore\n              0x04\n              add\n              tag_345\n              swap1\n              tag_346\n              jump\t// in\n            tag_345:\n              mload(0x40)\n              dup1\n              swap2\n              sub\n              swap1\n              revert\n            tag_344:\n                /* \"Fund.sol\":4204:4213   */\n              0x03\n                /* \"Fund.sol\":4204:4225   */\n              0x00\n                /* \"Fund.sol\":4214:4224   */\n              caller\n                /* \"Fund.sol\":4204:4225   */\n              0xffffffffffffffffffffffffffffffffffffffff\n              and\n              0xffffffffffffffffffffffffffffffffffffffff\n              and\n              dup2\n              mstore\n              0x20\n              add\n              swap1\n              dup2\n              mstore\n              0x20\n              add\n              0x00\n              keccak256\n              0x00\n              swap1\n              sload\n              swap1\n              0x0100\n              exp\n              swap1\n              div\n              0xff\n              and\n                /* \"Fund.sol\":4196:4269   */\n              tag_347\n              jumpi\n              mload(0x40)\n              0x08c379a000000000000000000000000000000000000000000000000000000000\n              dup2\n              mstore\n              0x04\n              add\n              tag_348\n              swap1\n              tag_264\n              jump\t// in\n            tag_348:\n              mload(0x40)\n              dup1\n              swap2\n              sub\n              swap1\n              revert\n            tag_347:\n                /* \"Fund.sol\":4276:4298   */\n              0x00\n                /* \"Fund.sol\":4301:4316   */\n              tag_349\n                /* \"Fund.sol\":4301:4314   */\n              tag_98\n                /* \"Fund.sol\":4301:4316   */\n              jump\t// in\n            tag_349:\n                /* \"Fund.sol\":4276:4316   */\n              swap1\n              pop\n                /* \"Fund.sol\":4356:4357   */\n              0x01\n                /* \"Fund.sol\":4339:4353   */\n              dup2\n                /* \"Fund.sol\":4339:4357   */\n              gt\n                /* \"Fund.sol\":4339:4417   */\n              dup1\n              tag_350\n              jumpi\n              pop\n                /* \"Fund.sol\":4362:4382   */\n              immutable(\"0x0b83f23a4eeb8c3f5f7d5934a2289bcf0186d09a12e1b7f20adf54e4b179db15\")\n                /* \"Fund.sol\":4362:4416   */\n              dup1\n              iszero\n              tag_351\n              jumpi\n              pop\n                /* \"Fund.sol\":4387:4416   */\n              immutable(\"0x7e73c6705797180140a00ad870c82eb4092a3440c76c03cda76c4c497759837c\")\n                /* \"Fund.sol\":4386:4416   */\n              iszero\n                /* \"Fund.sol\":4362:4416   */\n            tag_351:\n                /* \"Fund.sol\":4339:4417   */\n            tag_350:\n                /* \"Fund.sol\":4323:4492   */\n              tag_352\n              jumpi\n              mload(0x40)\n              0x08c379a000000000000000000000000000000000000000000000000000000000\n              dup2\n              mstore\n              0x04\n              add\n              tag_353\n              swap1\n              tag_354\n              jump\t// in\n            tag_353:\n              mload(0x40)\n              dup1\n              swap2\n              sub\n              swap1\n              revert\n            tag_352:\n                /* \"Fund.sol\":4501:4517   */\n              0x00\n                /* \"Fund.sol\":4520:4528   */\n              0x02\n                /* \"Fund.sol\":4529:4535   */\n              dup4\n                /* \"Fund.sol\":4520:4536   */\n              dup2\n              sload\n              dup2\n              lt\n              tag_355\n              jumpi\n              tag_356\n              tag_198\n              jump\t// in\n            tag_356:\n            tag_355:\n              swap1\n              0x00\n              mstore\n              keccak256(0x00, 0x20)\n              add\n              0x00\n              swap1\n              sload\n              swap1\n              0x0100\n              exp\n              swap1\n              div\n              0xffffffffffffffffffffffffffffffffffffffff\n              and\n                /* \"Fund.sol\":4501:4536   */\n              swap1\n              pop\n                /* \"Fund.sol\":4552:4561   */\n              0x03\n                /* \"Fund.sol\":4552:4571   */\n              0x00\n                /* \"Fund.sol\":4562:4570   */\n              dup3\n                /* \"Fund.sol\":4552:4571   */\n              0xffffffffffffffffffffffffffffffffffffffff\n              and\n              0xffffffffffffffffffffffffffffffffffffffff\n              and\n              dup2\n              mstore\n              0x20\n              add\n              swap1\n              dup2\n              mstore\n              0x20\n              add\n              0x00\n              keccak256\n              0x00\n                /* \"Fund.sol\":4545:4571   */\n              0x0100\n              exp\n              dup2\n              sload\n              swap1\n              0xff\n              mul\n              not\n              and\n              swap1\n              sstore\n                /* \"Fund.sol\":4602:4611   */\n              0x00\n                /* \"Fund.sol\":4614:4620   */\n              dup4\n                /* \"Fund.sol\":4602:4620   */\n              swap1\n              pop\n                /* \"Fund.sol\":4597:4701   */\n            tag_358:\n                /* \"Fund.sol\":4643:4644   */\n              0x01\n                /* \"Fund.sol\":4626:4640   */\n              dup4\n                /* \"Fund.sol\":4626:4644   */\n              sub\n                /* \"Fund.sol\":4622:4623   */\n              dup2\n                /* \"Fund.sol\":4622:4644   */\n              lt\n                /* \"Fund.sol\":4597:4701   */\n              iszero\n              tag_359\n              jumpi\n                /* \"Fund.sol\":4676:4684   */\n              0x02\n                /* \"Fund.sol\":4689:4690   */\n              0x01\n                /* \"Fund.sol\":4685:4686   */\n              dup3\n                /* \"Fund.sol\":4685:4690   */\n              add\n                /* \"Fund.sol\":4676:4691   */\n              dup2\n              sload\n              dup2\n              lt\n              tag_361\n              jumpi\n              tag_362\n              tag_198\n              jump\t// in\n            tag_362:\n            tag_361:\n              swap1\n              0x00\n              mstore\n              keccak256(0x00, 0x20)\n              add\n              0x00\n              swap1\n              sload\n              swap1\n              0x0100\n              exp\n              swap1\n              div\n              0xffffffffffffffffffffffffffffffffffffffff\n              and\n                /* \"Fund.sol\":4662:4670   */\n              0x02\n                /* \"Fund.sol\":4671:4672   */\n              dup3\n                /* \"Fund.sol\":4662:4673   */\n              dup2\n              sload\n              dup2\n              lt\n              tag_364\n              jumpi\n              tag_365\n              tag_198\n              jump\t// in\n            tag_365:\n            tag_364:\n              swap1\n              0x00\n              mstore\n              keccak256(0x00, 0x20)\n              add\n              0x00\n                /* \"Fund.sol\":4662:4691   */\n              0x0100\n              exp\n              dup2\n              sload\n              dup2\n              0xffffffffffffffffffffffffffffffffffffffff\n              mul\n              not\n              and\n              swap1\n              dup4\n              0xffffffffffffffffffffffffffffffffffffffff\n              and\n              mul\n              or\n              swap1\n              sstore\n              pop\n                /* \"Fund.sol\":4646:4649   */\n              dup1\n              dup1\n              0x01\n              add\n              swap2\n              pop\n              pop\n                /* \"Fund.sol\":4597:4701   */\n              jump(tag_358)\n            tag_359:\n              pop\n                /* \"Fund.sol\":4714:4722   */\n              0x02\n                /* \"Fund.sol\":4714:4728   */\n              dup1\n              sload\n              dup1\n              tag_367\n              jumpi\n              tag_368\n              tag_369\n              jump\t// in\n            tag_368:\n            tag_367:\n              0x01\n              swap1\n              sub\n              dup2\n              dup2\n              swap1\n              0x00\n              mstore\n              keccak256(0x00, 0x20)\n              add\n              exp(0x0100, 0x00)\n              dup2\n              sload\n              swap1\n              0xffffffffffffffffffffffffffffffffffffffff\n              mul\n              not\n              and\n              swap1\n              sstore\n              swap1\n              sstore\n                /* \"Fund.sol\":4756:4764   */\n              dup1\n                /* \"Fund.sol\":4742:4765   */\n              0xffffffffffffffffffffffffffffffffffffffff\n              and\n              0x1e25ed4cabec84d314dc176241019653f237da01f2bdd3a10cb0f38b33da6763\n              mload(0x40)\n              mload(0x40)\n              dup1\n              swap2\n              sub\n              swap1\n              log2\n                /* \"Fund.sol\":4098:4771   */\n              pop\n              pop\n                /* \"Fund.sol\":4052:4771   */\n              pop\n              jump\t// out\n                /* \"Fund.sol\":1450:1509   */\n            tag_167:\n              immutable(\"0x09eb009391dc4eb4edc20fba7d18645bf2c41b671919b5bea53c7994dc980933\")\n              dup2\n              jump\t// out\n                /* \"Fund.sol\":9343:10489   */\n            tag_171:\n                /* \"Fund.sol\":9414:9440   */\n              0x60\n                /* \"Fund.sol\":9449:9482   */\n              0x00\n                /* \"Fund.sol\":9491:9521   */\n              0x60\n                /* \"Fund.sol\":9530:9557   */\n              0x00\n                /* \"Fund.sol\":9566:9611   */\n              dup1\n                /* \"Fund.sol\":9620:9646   */\n              0x00\n                /* \"Fund.sol\":9655:9690   */\n              dup1\n                /* \"Fund.sol\":9699:9739   */\n              0x00\n                /* \"Fund.sol\":9748:9794   */\n              dup1\n                /* \"Fund.sol\":9803:9846   */\n              0x00\n                /* \"Fund.sol\":9876:9884   */\n              0x02\n                /* \"Fund.sol\":9864:9884   */\n              dup1\n              sload\n              dup1\n              0x20\n              mul\n              0x20\n              add\n              mload(0x40)\n              swap1\n              dup2\n              add\n              0x40\n              mstore\n              dup1\n              swap3\n              swap2\n              swap1\n              dup2\n              dup2\n              mstore\n              0x20\n              add\n              dup3\n              dup1\n              sload\n              dup1\n              iszero\n              tag_372\n              jumpi\n              0x20\n              mul\n              dup3\n              add\n              swap2\n              swap1\n              0x00\n              mstore\n              keccak256(0x00, 0x20)\n              swap1\n            tag_373:\n              dup2\n              0x00\n              swap1\n              sload\n              swap1\n              0x0100\n              exp\n              swap1\n              div\n              0xffffffffffffffffffffffffffffffffffffffff\n              and\n              0xffffffffffffffffffffffffffffffffffffffff\n              and\n              dup2\n              mstore\n              0x20\n              add\n              swap1\n              0x01\n              add\n              swap1\n              dup1\n              dup4\n              gt\n              tag_373\n              jumpi\n            tag_372:\n              pop\n              pop\n              pop\n              pop\n              pop\n              swap10\n              pop\n                /* \"Fund.sol\":9922:9949   */\n              immutable(\"0xabd0c21861b5107cb0dd8303bd3ecb8c5f496d87c4b38229035d6890add563e2\")\n                /* \"Fund.sol\":9891:9949   */\n              swap9\n              pop\n                /* \"Fund.sol\":9972:9984   */\n              0x04\n                /* \"Fund.sol\":9956:9984   */\n              dup1\n              sload\n              dup1\n              0x20\n              mul\n              0x20\n              add\n              mload(0x40)\n              swap1\n              dup2\n              add\n              0x40\n              mstore\n              dup1\n              swap3\n              swap2\n              swap1\n              dup2\n              dup2\n              mstore\n              0x20\n              add\n              dup3\n              dup1\n              sload\n              dup1\n              iszero\n              tag_374\n              jumpi\n              0x20\n              mul\n              dup3\n              add\n              swap2\n              swap1\n              0x00\n              mstore\n              keccak256(0x00, 0x20)\n              swap1\n            tag_375:\n              dup2\n              0x00\n              swap1\n              sload\n              swap1\n              0x0100\n              exp\n              swap1\n              div\n              0xffffffffffffffffffffffffffffffffffffffff\n              and\n              0xffffffffffffffffffffffffffffffffffffffff\n              and\n              dup2\n              mstore\n              0x20\n              add\n              swap1\n              0x01\n              add\n              swap1\n              dup1\n              dup4\n              gt\n              tag_375\n              jumpi\n            tag_374:\n              pop\n              pop\n              pop\n              pop\n              pop\n              swap8\n              pop\n                /* \"Fund.sol\":10013:10031   */\n              sload(0x06)\n                /* \"Fund.sol\":9991:10031   */\n              swap7\n              pop\n                /* \"Fund.sol\":10081:10120   */\n              immutable(\"0xad3956a60eedf591a890fcb8158e2c270890b8990b07189fbdcb6016f0cee2b1\")\n                /* \"Fund.sol\":10038:10120   */\n              swap6\n              pop\n                /* \"Fund.sol\":10151:10171   */\n              immutable(\"0x0b83f23a4eeb8c3f5f7d5934a2289bcf0186d09a12e1b7f20adf54e4b179db15\")\n                /* \"Fund.sol\":10127:10171   */\n              swap5\n              pop\n                /* \"Fund.sol\":10211:10240   */\n              immutable(\"0x7e73c6705797180140a00ad870c82eb4092a3440c76c03cda76c4c497759837c\")\n                /* \"Fund.sol\":10178:10240   */\n              swap4\n              pop\n                /* \"Fund.sol\":10285:10319   */\n              immutable(\"0xbdb1df70217a0fc8cb4e3e99b55cd6570d97174b517460cc0ed3d1a51a56d2b7\")\n                /* \"Fund.sol\":10247:10319   */\n              swap3\n              pop\n                /* \"Fund.sol\":10367:10404   */\n              immutable(\"0x43873eeb05f071a7bf324d5f07f06c3052b56a11f42b8a72285610bbfa52aabc\")\n                /* \"Fund.sol\":10326:10404   */\n              swap2\n              pop\n                /* \"Fund.sol\":10449:10483   */\n              immutable(\"0x09eb009391dc4eb4edc20fba7d18645bf2c41b671919b5bea53c7994dc980933\")\n                /* \"Fund.sol\":10411:10483   */\n              swap1\n              pop\n                /* \"Fund.sol\":9343:10489   */\n              swap1\n              swap2\n              swap3\n              swap4\n              swap5\n              swap6\n              swap7\n              swap8\n              swap9\n              swap10\n              jump\t// out\n                /* \"Fund.sol\":1322:1378   */\n            tag_176:\n              immutable(\"0xbdb1df70217a0fc8cb4e3e99b55cd6570d97174b517460cc0ed3d1a51a56d2b7\")\n              dup2\n              jump\t// out\n                /* \"Fund.sol\":844:885   */\n            tag_181:\n              mstore(0x20, 0x03)\n              dup1\n              0x00\n              mstore\n              keccak256(0x00, 0x40)\n              0x00\n              swap2\n              pop\n              sload\n              swap1\n              0x0100\n              exp\n              swap1\n              div\n              0xff\n              and\n              dup2\n              jump\t// out\n                /* \"Fund.sol\":890:939   */\n            tag_185:\n              immutable(\"0xabd0c21861b5107cb0dd8303bd3ecb8c5f496d87c4b38229035d6890add563e2\")\n              dup2\n              jump\t// out\n                /* \"Fund.sol\":6559:6649   */\n            tag_189:\n                /* \"Fund.sol\":6605:6612   */\n              0x00\n                /* \"Fund.sol\":6628:6636   */\n              0x07\n                /* \"Fund.sol\":6628:6643   */\n              dup1\n              sload\n              swap1\n              pop\n                /* \"Fund.sol\":6621:6643   */\n              swap1\n              pop\n                /* \"Fund.sol\":6559:6649   */\n              swap1\n              jump\t// out\n                /* \"@openzeppelin/contracts/utils/Counters.sol\":827:939   */\n            tag_221:\n                /* \"@openzeppelin/contracts/utils/Counters.sol\":892:899   */\n              0x00\n                /* \"@openzeppelin/contracts/utils/Counters.sol\":918:925   */\n              dup2\n                /* \"@openzeppelin/contracts/utils/Counters.sol\":918:932   */\n              0x00\n              add\n              sload\n                /* \"@openzeppelin/contracts/utils/Counters.sol\":911:932   */\n              swap1\n              pop\n                /* \"@openzeppelin/contracts/utils/Counters.sol\":827:939   */\n              swap2\n              swap1\n              pop\n              jump\t// out\n                /* \"Fund.sol\":10521:10883   */\n            tag_243:\n                /* \"Fund.sol\":10599:10600   */\n              0x00\n                /* \"Fund.sol\":10587:10596   */\n              callvalue\n                /* \"Fund.sol\":10587:10600   */\n              gt\n                /* \"Fund.sol\":10579:10649   */\n              tag_379\n              jumpi\n              mload(0x40)\n              0x08c379a000000000000000000000000000000000000000000000000000000000\n              dup2\n              mstore\n              0x04\n              add\n              tag_380\n              swap1\n              tag_381\n              jump\t// in\n            tag_380:\n              mload(0x40)\n              dup1\n              swap2\n              sub\n              swap1\n              revert\n            tag_379:\n                /* \"Fund.sol\":10693:10694   */\n              0x00\n                /* \"Fund.sol\":10662:10675   */\n              0x05\n                /* \"Fund.sol\":10662:10689   */\n              0x00\n                /* \"Fund.sol\":10676:10688   */\n              dup4\n                /* \"Fund.sol\":10662:10689   */\n              0xffffffffffffffffffffffffffffffffffffffff\n              and\n              0xffffffffffffffffffffffffffffffffffffffff\n              and\n              dup2\n              mstore\n              0x20\n              add\n              swap1\n              dup2\n              mstore\n              0x20\n              add\n              0x00\n              keccak256\n              sload\n                /* \"Fund.sol\":10662:10694   */\n              sub\n                /* \"Fund.sol\":10658:10744   */\n              tag_382\n              jumpi\n                /* \"Fund.sol\":10705:10717   */\n              0x04\n                /* \"Fund.sol\":10723:10735   */\n              dup2\n                /* \"Fund.sol\":10705:10736   */\n              swap1\n              dup1\n              0x01\n              dup2\n              sload\n              add\n              dup1\n              dup3\n              sstore\n              dup1\n              swap2\n              pop\n              pop\n              0x01\n              swap1\n              sub\n              swap1\n              0x00\n              mstore\n              keccak256(0x00, 0x20)\n              add\n              0x00\n              swap1\n              swap2\n              swap1\n              swap2\n              swap1\n              swap2\n              0x0100\n              exp\n              dup2\n              sload\n              dup2\n              0xffffffffffffffffffffffffffffffffffffffff\n              mul\n              not\n              and\n              swap1\n              dup4\n              0xffffffffffffffffffffffffffffffffffffffff\n              and\n              mul\n              or\n              swap1\n              sstore\n              pop\n                /* \"Fund.sol\":10658:10744   */\n            tag_382:\n                /* \"Fund.sol\":10781:10790   */\n              callvalue\n                /* \"Fund.sol\":10750:10763   */\n              0x05\n                /* \"Fund.sol\":10750:10777   */\n              0x00\n                /* \"Fund.sol\":10764:10776   */\n              dup4\n                /* \"Fund.sol\":10750:10777   */\n              0xffffffffffffffffffffffffffffffffffffffff\n              and\n              0xffffffffffffffffffffffffffffffffffffffff\n              and\n              dup2\n              mstore\n              0x20\n              add\n              swap1\n              dup2\n              mstore\n              0x20\n              add\n              0x00\n              keccak256\n              0x00\n                /* \"Fund.sol\":10750:10790   */\n              dup3\n              dup3\n              sload\n              tag_384\n              swap2\n              swap1\n              tag_385\n              jump\t// in\n            tag_384:\n              swap3\n              pop\n              pop\n              dup2\n              swap1\n              sstore\n              pop\n                /* \"Fund.sol\":10819:10828   */\n              callvalue\n                /* \"Fund.sol\":10797:10815   */\n              0x06\n              0x00\n                /* \"Fund.sol\":10797:10828   */\n              dup3\n              dup3\n              sload\n              tag_386\n              swap2\n              swap1\n              tag_385\n              jump\t// in\n            tag_386:\n              swap3\n              pop\n              pop\n              dup2\n              swap1\n              sstore\n              pop\n                /* \"Fund.sol\":10853:10865   */\n              dup1\n                /* \"Fund.sol\":10842:10877   */\n              0xffffffffffffffffffffffffffffffffffffffff\n              and\n              0x906faaf913a60f38b5e8f2d6f5b163239bac2d994fa1a5d21751a51587a94057\n                /* \"Fund.sol\":10867:10876   */\n              callvalue\n                /* \"Fund.sol\":10842:10877   */\n              mload(0x40)\n              tag_387\n              swap2\n              swap1\n              tag_75\n              jump\t// in\n            tag_387:\n              mload(0x40)\n              dup1\n              swap2\n              sub\n              swap1\n              log2\n                /* \"Fund.sol\":10521:10883   */\n              pop\n              jump\t// out\n                /* \"@openzeppelin/contracts/utils/Counters.sol\":945:1068   */\n            tag_342:\n                /* \"@openzeppelin/contracts/utils/Counters.sol\":1050:1051   */\n              0x01\n                /* \"@openzeppelin/contracts/utils/Counters.sol\":1032:1039   */\n              dup2\n                /* \"@openzeppelin/contracts/utils/Counters.sol\":1032:1046   */\n              0x00\n              add\n              0x00\n                /* \"@openzeppelin/contracts/utils/Counters.sol\":1032:1051   */\n              dup3\n              dup3\n              sload\n              add\n              swap3\n              pop\n              pop\n              dup2\n              swap1\n              sstore\n              pop\n                /* \"@openzeppelin/contracts/utils/Counters.sol\":945:1068   */\n              pop\n              jump\t// out\n                /* \"#utility.yul\":7:133   */\n            tag_389:\n                /* \"#utility.yul\":44:51   */\n              0x00\n                /* \"#utility.yul\":84:126   */\n              0xffffffffffffffffffffffffffffffffffffffff\n                /* \"#utility.yul\":77:82   */\n              dup3\n                /* \"#utility.yul\":73:127   */\n              and\n                /* \"#utility.yul\":62:127   */\n              swap1\n              pop\n                /* \"#utility.yul\":7:133   */\n              swap2\n              swap1\n              pop\n              jump\t// out\n                /* \"#utility.yul\":139:235   */\n            tag_390:\n                /* \"#utility.yul\":176:183   */\n              0x00\n                /* \"#utility.yul\":205:229   */\n              tag_481\n                /* \"#utility.yul\":223:228   */\n              dup3\n                /* \"#utility.yul\":205:229   */\n              tag_389\n              jump\t// in\n            tag_481:\n                /* \"#utility.yul\":194:229   */\n              swap1\n              pop\n                /* \"#utility.yul\":139:235   */\n              swap2\n              swap1\n              pop\n              jump\t// out\n                /* \"#utility.yul\":241:359   */\n            tag_391:\n                /* \"#utility.yul\":328:352   */\n              tag_483\n                /* \"#utility.yul\":346:351   */\n              dup2\n                /* \"#utility.yul\":328:352   */\n              tag_390\n              jump\t// in\n            tag_483:\n                /* \"#utility.yul\":323:326   */\n              dup3\n                /* \"#utility.yul\":316:353   */\n              mstore\n                /* \"#utility.yul\":241:359   */\n              pop\n              pop\n              jump\t// out\n                /* \"#utility.yul\":365:587   */\n            tag_46:\n                /* \"#utility.yul\":458:462   */\n              0x00\n                /* \"#utility.yul\":496:498   */\n              0x20\n                /* \"#utility.yul\":485:494   */\n              dup3\n                /* \"#utility.yul\":481:499   */\n              add\n                /* \"#utility.yul\":473:499   */\n              swap1\n              pop\n                /* \"#utility.yul\":509:580   */\n              tag_485\n                /* \"#utility.yul\":577:578   */\n              0x00\n                /* \"#utility.yul\":566:575   */\n              dup4\n                /* \"#utility.yul\":562:579   */\n              add\n                /* \"#utility.yul\":553:559   */\n              dup5\n                /* \"#utility.yul\":509:580   */\n              tag_391\n              jump\t// in\n            tag_485:\n                /* \"#utility.yul\":365:587   */\n              swap3\n              swap2\n              pop\n              pop\n              jump\t// out\n                /* \"#utility.yul\":593:668   */\n            tag_392:\n                /* \"#utility.yul\":626:632   */\n              0x00\n                /* \"#utility.yul\":659:661   */\n              0x40\n                /* \"#utility.yul\":653:662   */\n              mload\n                /* \"#utility.yul\":643:662   */\n              swap1\n              pop\n                /* \"#utility.yul\":593:668   */\n              swap1\n              jump\t// out\n                /* \"#utility.yul\":674:791   */\n            tag_393:\n                /* \"#utility.yul\":783:784   */\n              0x00\n                /* \"#utility.yul\":780:781   */\n              dup1\n                /* \"#utility.yul\":773:785   */\n              revert\n                /* \"#utility.yul\":797:914   */\n            tag_394:\n                /* \"#utility.yul\":906:907   */\n              0x00\n                /* \"#utility.yul\":903:904   */\n              dup1\n                /* \"#utility.yul\":896:908   */\n              revert\n                /* \"#utility.yul\":920:997   */\n            tag_395:\n                /* \"#utility.yul\":957:964   */\n              0x00\n                /* \"#utility.yul\":986:991   */\n              dup2\n                /* \"#utility.yul\":975:991   */\n              swap1\n              pop\n                /* \"#utility.yul\":920:997   */\n              swap2\n              swap1\n              pop\n              jump\t// out\n                /* \"#utility.yul\":1003:1125   */\n            tag_396:\n                /* \"#utility.yul\":1076:1100   */\n              tag_491\n                /* \"#utility.yul\":1094:1099   */\n              dup2\n                /* \"#utility.yul\":1076:1100   */\n              tag_395\n              jump\t// in\n            tag_491:\n                /* \"#utility.yul\":1069:1074   */\n              dup2\n                /* \"#utility.yul\":1066:1101   */\n              eq\n                /* \"#utility.yul\":1056:1119   */\n              tag_492\n              jumpi\n                /* \"#utility.yul\":1115:1116   */\n              0x00\n                /* \"#utility.yul\":1112:1113   */\n              dup1\n                /* \"#utility.yul\":1105:1117   */\n              revert\n                /* \"#utility.yul\":1056:1119   */\n            tag_492:\n                /* \"#utility.yul\":1003:1125   */\n              pop\n              jump\t// out\n                /* \"#utility.yul\":1131:1270   */\n            tag_397:\n                /* \"#utility.yul\":1177:1182   */\n              0x00\n                /* \"#utility.yul\":1215:1221   */\n              dup2\n                /* \"#utility.yul\":1202:1222   */\n              calldataload\n                /* \"#utility.yul\":1193:1222   */\n              swap1\n              pop\n                /* \"#utility.yul\":1231:1264   */\n              tag_494\n                /* \"#utility.yul\":1258:1263   */\n              dup2\n                /* \"#utility.yul\":1231:1264   */\n              tag_396\n              jump\t// in\n            tag_494:\n                /* \"#utility.yul\":1131:1270   */\n              swap3\n              swap2\n              pop\n              pop\n              jump\t// out\n                /* \"#utility.yul\":1276:1605   */\n            tag_50:\n                /* \"#utility.yul\":1335:1341   */\n              0x00\n                /* \"#utility.yul\":1384:1386   */\n              0x20\n                /* \"#utility.yul\":1372:1381   */\n              dup3\n                /* \"#utility.yul\":1363:1370   */\n              dup5\n                /* \"#utility.yul\":1359:1382   */\n              sub\n                /* \"#utility.yul\":1355:1387   */\n              slt\n                /* \"#utility.yul\":1352:1471   */\n              iszero\n              tag_496\n              jumpi\n                /* \"#utility.yul\":1390:1469   */\n              tag_497\n              tag_393\n              jump\t// in\n            tag_497:\n                /* \"#utility.yul\":1352:1471   */\n            tag_496:\n                /* \"#utility.yul\":1510:1511   */\n              0x00\n                /* \"#utility.yul\":1535:1588   */\n              tag_498\n                /* \"#utility.yul\":1580:1587   */\n              dup5\n                /* \"#utility.yul\":1571:1577   */\n              dup3\n                /* \"#utility.yul\":1560:1569   */\n              dup6\n                /* \"#utility.yul\":1556:1578   */\n              add\n                /* \"#utility.yul\":1535:1588   */\n              tag_397\n              jump\t// in\n            tag_498:\n                /* \"#utility.yul\":1525:1588   */\n              swap2\n              pop\n                /* \"#utility.yul\":1481:1598   */\n              pop\n                /* \"#utility.yul\":1276:1605   */\n              swap3\n              swap2\n              pop\n              pop\n              jump\t// out\n                /* \"#utility.yul\":1611:1710   */\n            tag_398:\n                /* \"#utility.yul\":1663:1669   */\n              0x00\n                /* \"#utility.yul\":1697:1702   */\n              dup2\n                /* \"#utility.yul\":1691:1703   */\n              mload\n                /* \"#utility.yul\":1681:1703   */\n              swap1\n              pop\n                /* \"#utility.yul\":1611:1710   */\n              swap2\n              swap1\n              pop\n              jump\t// out\n                /* \"#utility.yul\":1716:1885   */\n            tag_399:\n                /* \"#utility.yul\":1800:1811   */\n              0x00\n                /* \"#utility.yul\":1834:1840   */\n              dup3\n                /* \"#utility.yul\":1829:1832   */\n              dup3\n                /* \"#utility.yul\":1822:1841   */\n              mstore\n                /* \"#utility.yul\":1874:1878   */\n              0x20\n                /* \"#utility.yul\":1869:1872   */\n              dup3\n                /* \"#utility.yul\":1865:1879   */\n              add\n                /* \"#utility.yul\":1850:1879   */\n              swap1\n              pop\n                /* \"#utility.yul\":1716:1885   */\n              swap3\n              swap2\n              pop\n              pop\n              jump\t// out\n                /* \"#utility.yul\":1891:2137   */\n            tag_400:\n                /* \"#utility.yul\":1972:1973   */\n              0x00\n                /* \"#utility.yul\":1982:2095   */\n            tag_502:\n                /* \"#utility.yul\":1996:2002   */\n              dup4\n                /* \"#utility.yul\":1993:1994   */\n              dup2\n                /* \"#utility.yul\":1990:2003   */\n              lt\n                /* \"#utility.yul\":1982:2095   */\n              iszero\n              tag_504\n              jumpi\n                /* \"#utility.yul\":2081:2082   */\n              dup1\n                /* \"#utility.yul\":2076:2079   */\n              dup3\n                /* \"#utility.yul\":2072:2083   */\n              add\n                /* \"#utility.yul\":2066:2084   */\n              mload\n                /* \"#utility.yul\":2062:2063   */\n              dup2\n                /* \"#utility.yul\":2057:2060   */\n              dup5\n                /* \"#utility.yul\":2053:2064   */\n              add\n                /* \"#utility.yul\":2046:2085   */\n              mstore\n                /* \"#utility.yul\":2018:2020   */\n              0x20\n                /* \"#utility.yul\":2015:2016   */\n              dup2\n                /* \"#utility.yul\":2011:2021   */\n              add\n                /* \"#utility.yul\":2006:2021   */\n              swap1\n              pop\n                /* \"#utility.yul\":1982:2095   */\n              jump(tag_502)\n            tag_504:\n                /* \"#utility.yul\":2129:2130   */\n              0x00\n                /* \"#utility.yul\":2120:2126   */\n              dup5\n                /* \"#utility.yul\":2115:2118   */\n              dup5\n                /* \"#utility.yul\":2111:2127   */\n              add\n                /* \"#utility.yul\":2104:2131   */\n              mstore\n                /* \"#utility.yul\":1953:2137   */\n              pop\n                /* \"#utility.yul\":1891:2137   */\n              pop\n              pop\n              pop\n              jump\t// out\n                /* \"#utility.yul\":2143:2245   */\n            tag_401:\n                /* \"#utility.yul\":2184:2190   */\n              0x00\n                /* \"#utility.yul\":2235:2237   */\n              0x1f\n                /* \"#utility.yul\":2231:2238   */\n              not\n                /* \"#utility.yul\":2226:2228   */\n              0x1f\n                /* \"#utility.yul\":2219:2224   */\n              dup4\n                /* \"#utility.yul\":2215:2229   */\n              add\n                /* \"#utility.yul\":2211:2239   */\n              and\n                /* \"#utility.yul\":2201:2239   */\n              swap1\n              pop\n                /* \"#utility.yul\":2143:2245   */\n              swap2\n              swap1\n              pop\n              jump\t// out\n                /* \"#utility.yul\":2251:2628   */\n            tag_402:\n                /* \"#utility.yul\":2339:2342   */\n              0x00\n                /* \"#utility.yul\":2367:2406   */\n              tag_507\n                /* \"#utility.yul\":2400:2405   */\n              dup3\n                /* \"#utility.yul\":2367:2406   */\n              tag_398\n              jump\t// in\n            tag_507:\n                /* \"#utility.yul\":2422:2493   */\n              tag_508\n                /* \"#utility.yul\":2486:2492   */\n              dup2\n                /* \"#utility.yul\":2481:2484   */\n              dup6\n                /* \"#utility.yul\":2422:2493   */\n              tag_399\n              jump\t// in\n            tag_508:\n                /* \"#utility.yul\":2415:2493   */\n              swap4\n              pop\n                /* \"#utility.yul\":2502:2567   */\n              tag_509\n                /* \"#utility.yul\":2560:2566   */\n              dup2\n                /* \"#utility.yul\":2555:2558   */\n              dup6\n                /* \"#utility.yul\":2548:2552   */\n              0x20\n                /* \"#utility.yul\":2541:2546   */\n              dup7\n                /* \"#utility.yul\":2537:2553   */\n              add\n                /* \"#utility.yul\":2502:2567   */\n              tag_400\n              jump\t// in\n            tag_509:\n                /* \"#utility.yul\":2592:2621   */\n              tag_510\n                /* \"#utility.yul\":2614:2620   */\n              dup2\n                /* \"#utility.yul\":2592:2621   */\n              tag_401\n              jump\t// in\n            tag_510:\n                /* \"#utility.yul\":2587:2590   */\n              dup5\n                /* \"#utility.yul\":2583:2622   */\n              add\n                /* \"#utility.yul\":2576:2622   */\n              swap2\n              pop\n                /* \"#utility.yul\":2343:2628   */\n              pop\n                /* \"#utility.yul\":2251:2628   */\n              swap3\n              swap2\n              pop\n              pop\n              jump\t// out\n                /* \"#utility.yul\":2634:2947   */\n            tag_56:\n                /* \"#utility.yul\":2747:2751   */\n              0x00\n                /* \"#utility.yul\":2785:2787   */\n              0x20\n                /* \"#utility.yul\":2774:2783   */\n              dup3\n                /* \"#utility.yul\":2770:2788   */\n              add\n                /* \"#utility.yul\":2762:2788   */\n              swap1\n              pop\n                /* \"#utility.yul\":2834:2843   */\n              dup2\n                /* \"#utility.yul\":2828:2832   */\n              dup2\n                /* \"#utility.yul\":2824:2844   */\n              sub\n                /* \"#utility.yul\":2820:2821   */\n              0x00\n                /* \"#utility.yul\":2809:2818   */\n              dup4\n                /* \"#utility.yul\":2805:2822   */\n              add\n                /* \"#utility.yul\":2798:2845   */\n              mstore\n                /* \"#utility.yul\":2862:2940   */\n              tag_512\n                /* \"#utility.yul\":2935:2939   */\n              dup2\n                /* \"#utility.yul\":2926:2932   */\n              dup5\n                /* \"#utility.yul\":2862:2940   */\n              tag_402\n              jump\t// in\n            tag_512:\n                /* \"#utility.yul\":2854:2940   */\n              swap1\n              pop\n                /* \"#utility.yul\":2634:2947   */\n              swap3\n              swap2\n              pop\n              pop\n              jump\t// out\n                /* \"#utility.yul\":2953:3075   */\n            tag_403:\n                /* \"#utility.yul\":3026:3050   */\n              tag_514\n                /* \"#utility.yul\":3044:3049   */\n              dup2\n                /* \"#utility.yul\":3026:3050   */\n              tag_390\n              jump\t// in\n            tag_514:\n                /* \"#utility.yul\":3019:3024   */\n              dup2\n                /* \"#utility.yul\":3016:3051   */\n              eq\n                /* \"#utility.yul\":3006:3069   */\n              tag_515\n              jumpi\n                /* \"#utility.yul\":3065:3066   */\n              0x00\n                /* \"#utility.yul\":3062:3063   */\n              dup1\n                /* \"#utility.yul\":3055:3067   */\n              revert\n                /* \"#utility.yul\":3006:3069   */\n            tag_515:\n                /* \"#utility.yul\":2953:3075   */\n              pop\n              jump\t// out\n                /* \"#utility.yul\":3081:3220   */\n            tag_404:\n                /* \"#utility.yul\":3127:3132   */\n              0x00\n                /* \"#utility.yul\":3165:3171   */\n              dup2\n                /* \"#utility.yul\":3152:3172   */\n              calldataload\n                /* \"#utility.yul\":3143:3172   */\n              swap1\n              pop\n                /* \"#utility.yul\":3181:3214   */\n              tag_517\n                /* \"#utility.yul\":3208:3213   */\n              dup2\n                /* \"#utility.yul\":3181:3214   */\n              tag_403\n              jump\t// in\n            tag_517:\n                /* \"#utility.yul\":3081:3220   */\n              swap3\n              swap2\n              pop\n              pop\n              jump\t// out\n                /* \"#utility.yul\":3226:3555   */\n            tag_59:\n                /* \"#utility.yul\":3285:3291   */\n              0x00\n                /* \"#utility.yul\":3334:3336   */\n              0x20\n                /* \"#utility.yul\":3322:3331   */\n              dup3\n                /* \"#utility.yul\":3313:3320   */\n              dup5\n                /* \"#utility.yul\":3309:3332   */\n              sub\n                /* \"#utility.yul\":3305:3337   */\n              slt\n                /* \"#utility.yul\":3302:3421   */\n              iszero\n              tag_519\n              jumpi\n                /* \"#utility.yul\":3340:3419   */\n              tag_520\n              tag_393\n              jump\t// in\n            tag_520:\n                /* \"#utility.yul\":3302:3421   */\n            tag_519:\n                /* \"#utility.yul\":3460:3461   */\n              0x00\n                /* \"#utility.yul\":3485:3538   */\n              tag_521\n                /* \"#utility.yul\":3530:3537   */\n              dup5\n                /* \"#utility.yul\":3521:3527   */\n              dup3\n                /* \"#utility.yul\":3510:3519   */\n              dup6\n                /* \"#utility.yul\":3506:3528   */\n              add\n                /* \"#utility.yul\":3485:3538   */\n              tag_404\n              jump\t// in\n            tag_521:\n                /* \"#utility.yul\":3475:3538   */\n              swap2\n              pop\n                /* \"#utility.yul\":3431:3548   */\n              pop\n                /* \"#utility.yul\":3226:3555   */\n              swap3\n              swap2\n              pop\n              pop\n              jump\t// out\n                /* \"#utility.yul\":3561:3678   */\n            tag_405:\n                /* \"#utility.yul\":3670:3671   */\n              0x00\n                /* \"#utility.yul\":3667:3668   */\n              dup1\n                /* \"#utility.yul\":3660:3672   */\n              revert\n                /* \"#utility.yul\":3684:3801   */\n            tag_406:\n                /* \"#utility.yul\":3793:3794   */\n              0x00\n                /* \"#utility.yul\":3790:3791   */\n              dup1\n                /* \"#utility.yul\":3783:3795   */\n              revert\n                /* \"#utility.yul\":3807:3987   */\n            tag_407:\n                /* \"#utility.yul\":3855:3932   */\n              0x4e487b7100000000000000000000000000000000000000000000000000000000\n                /* \"#utility.yul\":3852:3853   */\n              0x00\n                /* \"#utility.yul\":3845:3933   */\n              mstore\n                /* \"#utility.yul\":3952:3956   */\n              0x41\n                /* \"#utility.yul\":3949:3950   */\n              0x04\n                /* \"#utility.yul\":3942:3957   */\n              mstore\n                /* \"#utility.yul\":3976:3980   */\n              0x24\n                /* \"#utility.yul\":3973:3974   */\n              0x00\n                /* \"#utility.yul\":3966:3981   */\n              revert\n                /* \"#utility.yul\":3993:4274   */\n            tag_408:\n                /* \"#utility.yul\":4076:4103   */\n              tag_526\n                /* \"#utility.yul\":4098:4102   */\n              dup3\n                /* \"#utility.yul\":4076:4103   */\n              tag_401\n              jump\t// in\n            tag_526:\n                /* \"#utility.yul\":4068:4074   */\n              dup2\n                /* \"#utility.yul\":4064:4104   */\n              add\n                /* \"#utility.yul\":4206:4212   */\n              dup2\n                /* \"#utility.yul\":4194:4204   */\n              dup2\n                /* \"#utility.yul\":4191:4213   */\n              lt\n                /* \"#utility.yul\":4170:4188   */\n              0xffffffffffffffff\n                /* \"#utility.yul\":4158:4168   */\n              dup3\n                /* \"#utility.yul\":4155:4189   */\n              gt\n                /* \"#utility.yul\":4152:4214   */\n              or\n                /* \"#utility.yul\":4149:4237   */\n              iszero\n              tag_527\n              jumpi\n                /* \"#utility.yul\":4217:4235   */\n              tag_528\n              tag_407\n              jump\t// in\n            tag_528:\n                /* \"#utility.yul\":4149:4237   */\n            tag_527:\n                /* \"#utility.yul\":4257:4267   */\n              dup1\n                /* \"#utility.yul\":4253:4255   */\n              0x40\n                /* \"#utility.yul\":4246:4268   */\n              mstore\n                /* \"#utility.yul\":4036:4274   */\n              pop\n                /* \"#utility.yul\":3993:4274   */\n              pop\n              pop\n              jump\t// out\n                /* \"#utility.yul\":4280:4409   */\n            tag_409:\n                /* \"#utility.yul\":4314:4320   */\n              0x00\n                /* \"#utility.yul\":4341:4361   */\n              tag_530\n              tag_392\n              jump\t// in\n            tag_530:\n                /* \"#utility.yul\":4331:4361   */\n              swap1\n              pop\n                /* \"#utility.yul\":4370:4403   */\n              tag_531\n                /* \"#utility.yul\":4398:4402   */\n              dup3\n                /* \"#utility.yul\":4390:4396   */\n              dup3\n                /* \"#utility.yul\":4370:4403   */\n              tag_408\n              jump\t// in\n            tag_531:\n                /* \"#utility.yul\":4280:4409   */\n              swap2\n              swap1\n              pop\n              jump\t// out\n                /* \"#utility.yul\":4415:4723   */\n            tag_410:\n                /* \"#utility.yul\":4477:4481   */\n              0x00\n                /* \"#utility.yul\":4567:4585   */\n              0xffffffffffffffff\n                /* \"#utility.yul\":4559:4565   */\n              dup3\n                /* \"#utility.yul\":4556:4586   */\n              gt\n                /* \"#utility.yul\":4553:4609   */\n              iszero\n              tag_533\n              jumpi\n                /* \"#utility.yul\":4589:4607   */\n              tag_534\n              tag_407\n              jump\t// in\n            tag_534:\n                /* \"#utility.yul\":4553:4609   */\n            tag_533:\n                /* \"#utility.yul\":4627:4656   */\n              tag_535\n                /* \"#utility.yul\":4649:4655   */\n              dup3\n                /* \"#utility.yul\":4627:4656   */\n              tag_401\n              jump\t// in\n            tag_535:\n                /* \"#utility.yul\":4619:4656   */\n              swap1\n              pop\n                /* \"#utility.yul\":4711:4715   */\n              0x20\n                /* \"#utility.yul\":4705:4709   */\n              dup2\n                /* \"#utility.yul\":4701:4716   */\n              add\n                /* \"#utility.yul\":4693:4716   */\n              swap1\n              pop\n                /* \"#utility.yul\":4415:4723   */\n              swap2\n              swap1\n              pop\n              jump\t// out\n                /* \"#utility.yul\":4729:4875   */\n            tag_411:\n                /* \"#utility.yul\":4826:4832   */\n              dup3\n                /* \"#utility.yul\":4821:4824   */\n              dup2\n                /* \"#utility.yul\":4816:4819   */\n              dup4\n                /* \"#utility.yul\":4803:4833   */\n              calldatacopy\n                /* \"#utility.yul\":4867:4868   */\n              0x00\n                /* \"#utility.yul\":4858:4864   */\n              dup4\n                /* \"#utility.yul\":4853:4856   */\n              dup4\n                /* \"#utility.yul\":4849:4865   */\n              add\n                /* \"#utility.yul\":4842:4869   */\n              mstore\n                /* \"#utility.yul\":4729:4875   */\n              pop\n              pop\n              pop\n              jump\t// out\n                /* \"#utility.yul\":4881:5306   */\n            tag_412:\n                /* \"#utility.yul\":4959:4964   */\n              0x00\n                /* \"#utility.yul\":4984:5050   */\n              tag_538\n                /* \"#utility.yul\":5000:5049   */\n              tag_539\n                /* \"#utility.yul\":5042:5048   */\n              dup5\n                /* \"#utility.yul\":5000:5049   */\n              tag_410\n              jump\t// in\n            tag_539:\n                /* \"#utility.yul\":4984:5050   */\n              tag_409\n              jump\t// in\n            tag_538:\n                /* \"#utility.yul\":4975:5050   */\n              swap1\n              pop\n                /* \"#utility.yul\":5073:5079   */\n              dup3\n                /* \"#utility.yul\":5066:5071   */\n              dup2\n                /* \"#utility.yul\":5059:5080   */\n              mstore\n                /* \"#utility.yul\":5111:5115   */\n              0x20\n                /* \"#utility.yul\":5104:5109   */\n              dup2\n                /* \"#utility.yul\":5100:5116   */\n              add\n                /* \"#utility.yul\":5149:5152   */\n              dup5\n                /* \"#utility.yul\":5140:5146   */\n              dup5\n                /* \"#utility.yul\":5135:5138   */\n              dup5\n                /* \"#utility.yul\":5131:5147   */\n              add\n                /* \"#utility.yul\":5128:5153   */\n              gt\n                /* \"#utility.yul\":5125:5237   */\n              iszero\n              tag_540\n              jumpi\n                /* \"#utility.yul\":5156:5235   */\n              tag_541\n              tag_406\n              jump\t// in\n            tag_541:\n                /* \"#utility.yul\":5125:5237   */\n            tag_540:\n                /* \"#utility.yul\":5246:5300   */\n              tag_542\n                /* \"#utility.yul\":5293:5299   */\n              dup5\n                /* \"#utility.yul\":5288:5291   */\n              dup3\n                /* \"#utility.yul\":5283:5286   */\n              dup6\n                /* \"#utility.yul\":5246:5300   */\n              tag_411\n              jump\t// in\n            tag_542:\n                /* \"#utility.yul\":4965:5306   */\n              pop\n                /* \"#utility.yul\":4881:5306   */\n              swap4\n              swap3\n              pop\n              pop\n              pop\n              jump\t// out\n                /* \"#utility.yul\":5326:5666   */\n            tag_413:\n                /* \"#utility.yul\":5382:5387   */\n              0x00\n                /* \"#utility.yul\":5431:5434   */\n              dup3\n                /* \"#utility.yul\":5424:5428   */\n              0x1f\n                /* \"#utility.yul\":5416:5422   */\n              dup4\n                /* \"#utility.yul\":5412:5429   */\n              add\n                /* \"#utility.yul\":5408:5435   */\n              slt\n                /* \"#utility.yul\":5398:5520   */\n              tag_544\n              jumpi\n                /* \"#utility.yul\":5439:5518   */\n              tag_545\n              tag_405\n              jump\t// in\n            tag_545:\n                /* \"#utility.yul\":5398:5520   */\n            tag_544:\n                /* \"#utility.yul\":5556:5562   */\n              dup2\n                /* \"#utility.yul\":5543:5563   */\n              calldataload\n                /* \"#utility.yul\":5581:5660   */\n              tag_546\n                /* \"#utility.yul\":5656:5659   */\n              dup5\n                /* \"#utility.yul\":5648:5654   */\n              dup3\n                /* \"#utility.yul\":5641:5645   */\n              0x20\n                /* \"#utility.yul\":5633:5639   */\n              dup7\n                /* \"#utility.yul\":5629:5646   */\n              add\n                /* \"#utility.yul\":5581:5660   */\n              tag_412\n              jump\t// in\n            tag_546:\n                /* \"#utility.yul\":5572:5660   */\n              swap2\n              pop\n                /* \"#utility.yul\":5388:5666   */\n              pop\n                /* \"#utility.yul\":5326:5666   */\n              swap3\n              swap2\n              pop\n              pop\n              jump\t// out\n                /* \"#utility.yul\":5672:6471   */\n            tag_64:\n                /* \"#utility.yul\":5759:5765   */\n              0x00\n                /* \"#utility.yul\":5767:5773   */\n              dup1\n                /* \"#utility.yul\":5775:5781   */\n              0x00\n                /* \"#utility.yul\":5824:5826   */\n              0x60\n                /* \"#utility.yul\":5812:5821   */\n              dup5\n                /* \"#utility.yul\":5803:5810   */\n              dup7\n                /* \"#utility.yul\":5799:5822   */\n              sub\n                /* \"#utility.yul\":5795:5827   */\n              slt\n                /* \"#utility.yul\":5792:5911   */\n              iszero\n              tag_548\n              jumpi\n                /* \"#utility.yul\":5830:5909   */\n              tag_549\n              tag_393\n              jump\t// in\n            tag_549:\n                /* \"#utility.yul\":5792:5911   */\n            tag_548:\n                /* \"#utility.yul\":5978:5979   */\n              0x00\n                /* \"#utility.yul\":5967:5976   */\n              dup5\n                /* \"#utility.yul\":5963:5980   */\n              add\n                /* \"#utility.yul\":5950:5981   */\n              calldataload\n                /* \"#utility.yul\":6008:6026   */\n              0xffffffffffffffff\n                /* \"#utility.yul\":6000:6006   */\n              dup2\n                /* \"#utility.yul\":5997:6027   */\n              gt\n                /* \"#utility.yul\":5994:6111   */\n              iszero\n              tag_550\n              jumpi\n                /* \"#utility.yul\":6030:6109   */\n              tag_551\n              tag_394\n              jump\t// in\n            tag_551:\n                /* \"#utility.yul\":5994:6111   */\n            tag_550:\n                /* \"#utility.yul\":6135:6198   */\n              tag_552\n                /* \"#utility.yul\":6190:6197   */\n              dup7\n                /* \"#utility.yul\":6181:6187   */\n              dup3\n                /* \"#utility.yul\":6170:6179   */\n              dup8\n                /* \"#utility.yul\":6166:6188   */\n              add\n                /* \"#utility.yul\":6135:6198   */\n              tag_413\n              jump\t// in\n            tag_552:\n                /* \"#utility.yul\":6125:6198   */\n              swap4\n              pop\n                /* \"#utility.yul\":5921:6208   */\n              pop\n                /* \"#utility.yul\":6247:6249   */\n              0x20\n                /* \"#utility.yul\":6273:6326   */\n              tag_553\n                /* \"#utility.yul\":6318:6325   */\n              dup7\n                /* \"#utility.yul\":6309:6315   */\n              dup3\n                /* \"#utility.yul\":6298:6307   */\n              dup8\n                /* \"#utility.yul\":6294:6316   */\n              add\n                /* \"#utility.yul\":6273:6326   */\n              tag_404\n              jump\t// in\n            tag_553:\n                /* \"#utility.yul\":6263:6326   */\n              swap3\n              pop\n                /* \"#utility.yul\":6218:6336   */\n              pop\n                /* \"#utility.yul\":6375:6377   */\n              0x40\n                /* \"#utility.yul\":6401:6454   */\n              tag_554\n                /* \"#utility.yul\":6446:6453   */\n              dup7\n                /* \"#utility.yul\":6437:6443   */\n              dup3\n                /* \"#utility.yul\":6426:6435   */\n              dup8\n                /* \"#utility.yul\":6422:6444   */\n              add\n                /* \"#utility.yul\":6401:6454   */\n              tag_397\n              jump\t// in\n            tag_554:\n                /* \"#utility.yul\":6391:6454   */\n              swap2\n              pop\n                /* \"#utility.yul\":6346:6464   */\n              pop\n                /* \"#utility.yul\":5672:6471   */\n              swap3\n              pop\n              swap3\n              pop\n              swap3\n              jump\t// out\n                /* \"#utility.yul\":6477:6788   */\n            tag_414:\n                /* \"#utility.yul\":6554:6558   */\n              0x00\n                /* \"#utility.yul\":6644:6662   */\n              0xffffffffffffffff\n                /* \"#utility.yul\":6636:6642   */\n              dup3\n                /* \"#utility.yul\":6633:6663   */\n              gt\n                /* \"#utility.yul\":6630:6686   */\n              iszero\n              tag_556\n              jumpi\n                /* \"#utility.yul\":6666:6684   */\n              tag_557\n              tag_407\n              jump\t// in\n            tag_557:\n                /* \"#utility.yul\":6630:6686   */\n            tag_556:\n                /* \"#utility.yul\":6716:6720   */\n              0x20\n                /* \"#utility.yul\":6708:6714   */\n              dup3\n                /* \"#utility.yul\":6704:6721   */\n              mul\n                /* \"#utility.yul\":6696:6721   */\n              swap1\n              pop\n                /* \"#utility.yul\":6776:6780   */\n              0x20\n                /* \"#utility.yul\":6770:6774   */\n              dup2\n                /* \"#utility.yul\":6766:6781   */\n              add\n                /* \"#utility.yul\":6758:6781   */\n              swap1\n              pop\n                /* \"#utility.yul\":6477:6788   */\n              swap2\n              swap1\n              pop\n              jump\t// out\n                /* \"#utility.yul\":6794:6911   */\n            tag_415:\n                /* \"#utility.yul\":6903:6904   */\n              0x00\n                /* \"#utility.yul\":6900:6901   */\n              dup1\n                /* \"#utility.yul\":6893:6905   */\n              revert\n                /* \"#utility.yul\":6934:7644   */\n            tag_416:\n                /* \"#utility.yul\":7030:7035   */\n              0x00\n                /* \"#utility.yul\":7055:7136   */\n              tag_560\n                /* \"#utility.yul\":7071:7135   */\n              tag_561\n                /* \"#utility.yul\":7128:7134   */\n              dup5\n                /* \"#utility.yul\":7071:7135   */\n              tag_414\n              jump\t// in\n            tag_561:\n                /* \"#utility.yul\":7055:7136   */\n              tag_409\n              jump\t// in\n            tag_560:\n                /* \"#utility.yul\":7046:7136   */\n              swap1\n              pop\n                /* \"#utility.yul\":7156:7161   */\n              dup1\n                /* \"#utility.yul\":7185:7191   */\n              dup4\n                /* \"#utility.yul\":7178:7183   */\n              dup3\n                /* \"#utility.yul\":7171:7192   */\n              mstore\n                /* \"#utility.yul\":7219:7223   */\n              0x20\n                /* \"#utility.yul\":7212:7217   */\n              dup3\n                /* \"#utility.yul\":7208:7224   */\n              add\n                /* \"#utility.yul\":7201:7224   */\n              swap1\n              pop\n                /* \"#utility.yul\":7272:7276   */\n              0x20\n                /* \"#utility.yul\":7264:7270   */\n              dup5\n                /* \"#utility.yul\":7260:7277   */\n              mul\n                /* \"#utility.yul\":7252:7258   */\n              dup4\n                /* \"#utility.yul\":7248:7278   */\n              add\n                /* \"#utility.yul\":7301:7304   */\n              dup6\n                /* \"#utility.yul\":7293:7299   */\n              dup2\n                /* \"#utility.yul\":7290:7305   */\n              gt\n                /* \"#utility.yul\":7287:7409   */\n              iszero\n              tag_562\n              jumpi\n                /* \"#utility.yul\":7320:7399   */\n              tag_563\n              tag_415\n              jump\t// in\n            tag_563:\n                /* \"#utility.yul\":7287:7409   */\n            tag_562:\n                /* \"#utility.yul\":7435:7441   */\n              dup4\n                /* \"#utility.yul\":7418:7638   */\n            tag_564:\n                /* \"#utility.yul\":7452:7458   */\n              dup2\n                /* \"#utility.yul\":7447:7450   */\n              dup2\n                /* \"#utility.yul\":7444:7459   */\n              lt\n                /* \"#utility.yul\":7418:7638   */\n              iszero\n              tag_566\n              jumpi\n                /* \"#utility.yul\":7527:7530   */\n              dup1\n                /* \"#utility.yul\":7556:7593   */\n              tag_567\n                /* \"#utility.yul\":7589:7592   */\n              dup9\n                /* \"#utility.yul\":7577:7587   */\n              dup3\n                /* \"#utility.yul\":7556:7593   */\n              tag_404\n              jump\t// in\n            tag_567:\n                /* \"#utility.yul\":7551:7554   */\n              dup5\n                /* \"#utility.yul\":7544:7594   */\n              mstore\n                /* \"#utility.yul\":7623:7627   */\n              0x20\n                /* \"#utility.yul\":7618:7621   */\n              dup5\n                /* \"#utility.yul\":7614:7628   */\n              add\n                /* \"#utility.yul\":7607:7628   */\n              swap4\n              pop\n                /* \"#utility.yul\":7494:7638   */\n              pop\n                /* \"#utility.yul\":7478:7482   */\n              0x20\n                /* \"#utility.yul\":7473:7476   */\n              dup2\n                /* \"#utility.yul\":7469:7483   */\n              add\n                /* \"#utility.yul\":7462:7483   */\n              swap1\n              pop\n                /* \"#utility.yul\":7418:7638   */\n              jump(tag_564)\n            tag_566:\n                /* \"#utility.yul\":7422:7443   */\n              pop\n                /* \"#utility.yul\":7036:7644   */\n              pop\n              pop\n                /* \"#utility.yul\":6934:7644   */\n              swap4\n              swap3\n              pop\n              pop\n              pop\n              jump\t// out\n                /* \"#utility.yul\":7667:8037   */\n            tag_417:\n                /* \"#utility.yul\":7738:7743   */\n              0x00\n                /* \"#utility.yul\":7787:7790   */\n              dup3\n                /* \"#utility.yul\":7780:7784   */\n              0x1f\n                /* \"#utility.yul\":7772:7778   */\n              dup4\n                /* \"#utility.yul\":7768:7785   */\n              add\n                /* \"#utility.yul\":7764:7791   */\n              slt\n                /* \"#utility.yul\":7754:7876   */\n              tag_569\n              jumpi\n                /* \"#utility.yul\":7795:7874   */\n              tag_570\n              tag_405\n              jump\t// in\n            tag_570:\n                /* \"#utility.yul\":7754:7876   */\n            tag_569:\n                /* \"#utility.yul\":7912:7918   */\n              dup2\n                /* \"#utility.yul\":7899:7919   */\n              calldataload\n                /* \"#utility.yul\":7937:8031   */\n              tag_571\n                /* \"#utility.yul\":8027:8030   */\n              dup5\n                /* \"#utility.yul\":8019:8025   */\n              dup3\n                /* \"#utility.yul\":8012:8016   */\n              0x20\n                /* \"#utility.yul\":8004:8010   */\n              dup7\n                /* \"#utility.yul\":8000:8017   */\n              add\n                /* \"#utility.yul\":7937:8031   */\n              tag_416\n              jump\t// in\n            tag_571:\n                /* \"#utility.yul\":7928:8031   */\n              swap2\n              pop\n                /* \"#utility.yul\":7744:8037   */\n              pop\n                /* \"#utility.yul\":7667:8037   */\n              swap3\n              swap2\n              pop\n              pop\n              jump\t// out\n                /* \"#utility.yul\":8043:8582   */\n            tag_69:\n                /* \"#utility.yul\":8127:8133   */\n              0x00\n                /* \"#utility.yul\":8176:8178   */\n              0x20\n                /* \"#utility.yul\":8164:8173   */\n              dup3\n                /* \"#utility.yul\":8155:8162   */\n              dup5\n                /* \"#utility.yul\":8151:8174   */\n              sub\n                /* \"#utility.yul\":8147:8179   */\n              slt\n                /* \"#utility.yul\":8144:8263   */\n              iszero\n              tag_573\n              jumpi\n                /* \"#utility.yul\":8182:8261   */\n              tag_574\n              tag_393\n              jump\t// in\n            tag_574:\n                /* \"#utility.yul\":8144:8263   */\n            tag_573:\n                /* \"#utility.yul\":8330:8331   */\n              0x00\n                /* \"#utility.yul\":8319:8328   */\n              dup3\n                /* \"#utility.yul\":8315:8332   */\n              add\n                /* \"#utility.yul\":8302:8333   */\n              calldataload\n                /* \"#utility.yul\":8360:8378   */\n              0xffffffffffffffff\n                /* \"#utility.yul\":8352:8358   */\n              dup2\n                /* \"#utility.yul\":8349:8379   */\n              gt\n                /* \"#utility.yul\":8346:8463   */\n              iszero\n              tag_575\n              jumpi\n                /* \"#utility.yul\":8382:8461   */\n              tag_576\n              tag_394\n              jump\t// in\n            tag_576:\n                /* \"#utility.yul\":8346:8463   */\n            tag_575:\n                /* \"#utility.yul\":8487:8565   */\n              tag_577\n                /* \"#utility.yul\":8557:8564   */\n              dup5\n                /* \"#utility.yul\":8548:8554   */\n              dup3\n                /* \"#utility.yul\":8537:8546   */\n              dup6\n                /* \"#utility.yul\":8533:8555   */\n              add\n                /* \"#utility.yul\":8487:8565   */\n              tag_417\n              jump\t// in\n            tag_577:\n                /* \"#utility.yul\":8477:8565   */\n              swap2\n              pop\n                /* \"#utility.yul\":8273:8575   */\n              pop\n                /* \"#utility.yul\":8043:8582   */\n              swap3\n              swap2\n              pop\n              pop\n              jump\t// out\n                /* \"#utility.yul\":8588:8706   */\n            tag_418:\n                /* \"#utility.yul\":8675:8699   */\n              tag_579\n                /* \"#utility.yul\":8693:8698   */\n              dup2\n                /* \"#utility.yul\":8675:8699   */\n              tag_395\n              jump\t// in\n            tag_579:\n                /* \"#utility.yul\":8670:8673   */\n              dup3\n                /* \"#utility.yul\":8663:8700   */\n              mstore\n                /* \"#utility.yul\":8588:8706   */\n              pop\n              pop\n              jump\t// out\n                /* \"#utility.yul\":8712:8934   */\n            tag_75:\n                /* \"#utility.yul\":8805:8809   */\n              0x00\n                /* \"#utility.yul\":8843:8845   */\n              0x20\n                /* \"#utility.yul\":8832:8841   */\n              dup3\n                /* \"#utility.yul\":8828:8846   */\n              add\n                /* \"#utility.yul\":8820:8846   */\n              swap1\n              pop\n                /* \"#utility.yul\":8856:8927   */\n              tag_581\n                /* \"#utility.yul\":8924:8925   */\n              0x00\n                /* \"#utility.yul\":8913:8922   */\n              dup4\n                /* \"#utility.yul\":8909:8926   */\n              add\n                /* \"#utility.yul\":8900:8906   */\n              dup5\n                /* \"#utility.yul\":8856:8927   */\n              tag_418\n              jump\t// in\n            tag_581:\n                /* \"#utility.yul\":8712:8934   */\n              swap3\n              swap2\n              pop\n              pop\n              jump\t// out\n                /* \"#utility.yul\":8940:9695   */\n            tag_90:\n                /* \"#utility.yul\":9165:9169   */\n              0x00\n                /* \"#utility.yul\":9203:9206   */\n              0xa0\n                /* \"#utility.yul\":9192:9201   */\n              dup3\n                /* \"#utility.yul\":9188:9207   */\n              add\n                /* \"#utility.yul\":9180:9207   */\n              swap1\n              pop\n                /* \"#utility.yul\":9217:9288   */\n              tag_583\n                /* \"#utility.yul\":9285:9286   */\n              0x00\n                /* \"#utility.yul\":9274:9283   */\n              dup4\n                /* \"#utility.yul\":9270:9287   */\n              add\n                /* \"#utility.yul\":9261:9267   */\n              dup9\n                /* \"#utility.yul\":9217:9288   */\n              tag_391\n              jump\t// in\n            tag_583:\n                /* \"#utility.yul\":9298:9370   */\n              tag_584\n                /* \"#utility.yul\":9366:9368   */\n              0x20\n                /* \"#utility.yul\":9355:9364   */\n              dup4\n                /* \"#utility.yul\":9351:9369   */\n              add\n                /* \"#utility.yul\":9342:9348   */\n              dup8\n                /* \"#utility.yul\":9298:9370   */\n              tag_418\n              jump\t// in\n            tag_584:\n                /* \"#utility.yul\":9417:9426   */\n              dup2\n                /* \"#utility.yul\":9411:9415   */\n              dup2\n                /* \"#utility.yul\":9407:9427   */\n              sub\n                /* \"#utility.yul\":9402:9404   */\n              0x40\n                /* \"#utility.yul\":9391:9400   */\n              dup4\n                /* \"#utility.yul\":9387:9405   */\n              add\n                /* \"#utility.yul\":9380:9428   */\n              mstore\n                /* \"#utility.yul\":9445:9523   */\n              tag_585\n                /* \"#utility.yul\":9518:9522   */\n              dup2\n                /* \"#utility.yul\":9509:9515   */\n              dup7\n                /* \"#utility.yul\":9445:9523   */\n              tag_402\n              jump\t// in\n            tag_585:\n                /* \"#utility.yul\":9437:9523   */\n              swap1\n              pop\n                /* \"#utility.yul\":9533:9605   */\n              tag_586\n                /* \"#utility.yul\":9601:9603   */\n              0x60\n                /* \"#utility.yul\":9590:9599   */\n              dup4\n                /* \"#utility.yul\":9586:9604   */\n              add\n                /* \"#utility.yul\":9577:9583   */\n              dup6\n                /* \"#utility.yul\":9533:9605   */\n              tag_391\n              jump\t// in\n            tag_586:\n                /* \"#utility.yul\":9615:9688   */\n              tag_587\n                /* \"#utility.yul\":9683:9686   */\n              0x80\n                /* \"#utility.yul\":9672:9681   */\n              dup4\n                /* \"#utility.yul\":9668:9687   */\n              add\n                /* \"#utility.yul\":9659:9665   */\n              dup5\n                /* \"#utility.yul\":9615:9688   */\n              tag_418\n              jump\t// in\n            tag_587:\n                /* \"#utility.yul\":8940:9695   */\n              swap7\n              swap6\n              pop\n              pop\n              pop\n              pop\n              pop\n              pop\n              jump\t// out\n                /* \"#utility.yul\":9701:9791   */\n            tag_419:\n                /* \"#utility.yul\":9735:9742   */\n              0x00\n                /* \"#utility.yul\":9778:9783   */\n              dup2\n                /* \"#utility.yul\":9771:9784   */\n              iszero\n                /* \"#utility.yul\":9764:9785   */\n              iszero\n                /* \"#utility.yul\":9753:9785   */\n              swap1\n              pop\n                /* \"#utility.yul\":9701:9791   */\n              swap2\n              swap1\n              pop\n              jump\t// out\n                /* \"#utility.yul\":9797:9906   */\n            tag_420:\n                /* \"#utility.yul\":9878:9899   */\n              tag_590\n                /* \"#utility.yul\":9893:9898   */\n              dup2\n                /* \"#utility.yul\":9878:9899   */\n              tag_419\n              jump\t// in\n            tag_590:\n                /* \"#utility.yul\":9873:9876   */\n              dup3\n                /* \"#utility.yul\":9866:9900   */\n              mstore\n                /* \"#utility.yul\":9797:9906   */\n              pop\n              pop\n              jump\t// out\n                /* \"#utility.yul\":9912:10122   */\n            tag_112:\n                /* \"#utility.yul\":9999:10003   */\n              0x00\n                /* \"#utility.yul\":10037:10039   */\n              0x20\n                /* \"#utility.yul\":10026:10035   */\n              dup3\n                /* \"#utility.yul\":10022:10040   */\n              add\n                /* \"#utility.yul\":10014:10040   */\n              swap1\n              pop\n                /* \"#utility.yul\":10050:10115   */\n              tag_592\n                /* \"#utility.yul\":10112:10113   */\n              0x00\n                /* \"#utility.yul\":10101:10110   */\n              dup4\n                /* \"#utility.yul\":10097:10114   */\n              add\n                /* \"#utility.yul\":10088:10094   */\n              dup5\n                /* \"#utility.yul\":10050:10115   */\n              tag_420\n              jump\t// in\n            tag_592:\n                /* \"#utility.yul\":9912:10122   */\n              swap3\n              swap2\n              pop\n              pop\n              jump\t// out\n                /* \"#utility.yul\":10128:10236   */\n            tag_421:\n                /* \"#utility.yul\":10205:10229   */\n              tag_594\n                /* \"#utility.yul\":10223:10228   */\n              dup2\n                /* \"#utility.yul\":10205:10229   */\n              tag_395\n              jump\t// in\n            tag_594:\n                /* \"#utility.yul\":10200:10203   */\n              dup3\n                /* \"#utility.yul\":10193:10230   */\n              mstore\n                /* \"#utility.yul\":10128:10236   */\n              pop\n              pop\n              jump\t// out\n                /* \"#utility.yul\":10300:10635   */\n            tag_422:\n                /* \"#utility.yul\":10447:10451   */\n              0x20\n                /* \"#utility.yul\":10442:10445   */\n              dup3\n                /* \"#utility.yul\":10438:10452   */\n              add\n                /* \"#utility.yul\":10536:10540   */\n              0x00\n                /* \"#utility.yul\":10529:10534   */\n              dup3\n                /* \"#utility.yul\":10525:10541   */\n              add\n                /* \"#utility.yul\":10519:10542   */\n              mload\n                /* \"#utility.yul\":10555:10618   */\n              tag_596\n                /* \"#utility.yul\":10612:10616   */\n              0x00\n                /* \"#utility.yul\":10607:10610   */\n              dup6\n                /* \"#utility.yul\":10603:10617   */\n              add\n                /* \"#utility.yul\":10589:10601   */\n              dup3\n                /* \"#utility.yul\":10555:10618   */\n              tag_421\n              jump\t// in\n            tag_596:\n                /* \"#utility.yul\":10462:10628   */\n              pop\n                /* \"#utility.yul\":10416:10635   */\n              pop\n                /* \"#utility.yul\":10300:10635   */\n              pop\n              pop\n              jump\t// out\n                /* \"#utility.yul\":10641:11706   */\n            tag_118:\n                /* \"#utility.yul\":10966:10970   */\n              0x00\n                /* \"#utility.yul\":11004:11007   */\n              0xe0\n                /* \"#utility.yul\":10993:11002   */\n              dup3\n                /* \"#utility.yul\":10989:11008   */\n              add\n                /* \"#utility.yul\":10981:11008   */\n              swap1\n              pop\n                /* \"#utility.yul\":11054:11063   */\n              dup2\n                /* \"#utility.yul\":11048:11052   */\n              dup2\n                /* \"#utility.yul\":11044:11064   */\n              sub\n                /* \"#utility.yul\":11040:11041   */\n              0x00\n                /* \"#utility.yul\":11029:11038   */\n              dup4\n                /* \"#utility.yul\":11025:11042   */\n              add\n                /* \"#utility.yul\":11018:11065   */\n              mstore\n                /* \"#utility.yul\":11082:11160   */\n              tag_598\n                /* \"#utility.yul\":11155:11159   */\n              dup2\n                /* \"#utility.yul\":11146:11152   */\n              dup11\n                /* \"#utility.yul\":11082:11160   */\n              tag_402\n              jump\t// in\n            tag_598:\n                /* \"#utility.yul\":11074:11160   */\n              swap1\n              pop\n                /* \"#utility.yul\":11170:11242   */\n              tag_599\n                /* \"#utility.yul\":11238:11240   */\n              0x20\n                /* \"#utility.yul\":11227:11236   */\n              dup4\n                /* \"#utility.yul\":11223:11241   */\n              add\n                /* \"#utility.yul\":11214:11220   */\n              dup10\n                /* \"#utility.yul\":11170:11242   */\n              tag_391\n              jump\t// in\n            tag_599:\n                /* \"#utility.yul\":11252:11324   */\n              tag_600\n                /* \"#utility.yul\":11320:11322   */\n              0x40\n                /* \"#utility.yul\":11309:11318   */\n              dup4\n                /* \"#utility.yul\":11305:11323   */\n              add\n                /* \"#utility.yul\":11296:11302   */\n              dup9\n                /* \"#utility.yul\":11252:11324   */\n              tag_391\n              jump\t// in\n            tag_600:\n                /* \"#utility.yul\":11334:11406   */\n              tag_601\n                /* \"#utility.yul\":11402:11404   */\n              0x60\n                /* \"#utility.yul\":11391:11400   */\n              dup4\n                /* \"#utility.yul\":11387:11405   */\n              add\n                /* \"#utility.yul\":11378:11384   */\n              dup8\n                /* \"#utility.yul\":11334:11406   */\n              tag_418\n              jump\t// in\n            tag_601:\n                /* \"#utility.yul\":11416:11489   */\n              tag_602\n                /* \"#utility.yul\":11484:11487   */\n              0x80\n                /* \"#utility.yul\":11473:11482   */\n              dup4\n                /* \"#utility.yul\":11469:11488   */\n              add\n                /* \"#utility.yul\":11460:11466   */\n              dup7\n                /* \"#utility.yul\":11416:11489   */\n              tag_418\n              jump\t// in\n            tag_602:\n                /* \"#utility.yul\":11499:11566   */\n              tag_603\n                /* \"#utility.yul\":11561:11564   */\n              0xa0\n                /* \"#utility.yul\":11550:11559   */\n              dup4\n                /* \"#utility.yul\":11546:11565   */\n              add\n                /* \"#utility.yul\":11537:11543   */\n              dup6\n                /* \"#utility.yul\":11499:11566   */\n              tag_420\n              jump\t// in\n            tag_603:\n                /* \"#utility.yul\":11576:11699   */\n              tag_604\n                /* \"#utility.yul\":11694:11697   */\n              0xc0\n                /* \"#utility.yul\":11683:11692   */\n              dup4\n                /* \"#utility.yul\":11679:11698   */\n              add\n                /* \"#utility.yul\":11670:11676   */\n              dup5\n                /* \"#utility.yul\":11576:11699   */\n              tag_422\n              jump\t// in\n            tag_604:\n                /* \"#utility.yul\":10641:11706   */\n              swap9\n              swap8\n              pop\n              pop\n              pop\n              pop\n              pop\n              pop\n              pop\n              pop\n              jump\t// out\n                /* \"#utility.yul\":11712:12186   */\n            tag_126:\n                /* \"#utility.yul\":11780:11786   */\n              0x00\n                /* \"#utility.yul\":11788:11794   */\n              dup1\n                /* \"#utility.yul\":11837:11839   */\n              0x40\n                /* \"#utility.yul\":11825:11834   */\n              dup4\n                /* \"#utility.yul\":11816:11823   */\n              dup6\n                /* \"#utility.yul\":11812:11835   */\n              sub\n                /* \"#utility.yul\":11808:11840   */\n              slt\n                /* \"#utility.yul\":11805:11924   */\n              iszero\n              tag_606\n              jumpi\n                /* \"#utility.yul\":11843:11922   */\n              tag_607\n              tag_393\n              jump\t// in\n            tag_607:\n                /* \"#utility.yul\":11805:11924   */\n            tag_606:\n                /* \"#utility.yul\":11963:11964   */\n              0x00\n                /* \"#utility.yul\":11988:12041   */\n              tag_608\n                /* \"#utility.yul\":12033:12040   */\n              dup6\n                /* \"#utility.yul\":12024:12030   */\n              dup3\n                /* \"#utility.yul\":12013:12022   */\n              dup7\n                /* \"#utility.yul\":12009:12031   */\n              add\n                /* \"#utility.yul\":11988:12041   */\n              tag_397\n              jump\t// in\n            tag_608:\n                /* \"#utility.yul\":11978:12041   */\n              swap3\n              pop\n                /* \"#utility.yul\":11934:12051   */\n              pop\n                /* \"#utility.yul\":12090:12092   */\n              0x20\n                /* \"#utility.yul\":12116:12169   */\n              tag_609\n                /* \"#utility.yul\":12161:12168   */\n              dup6\n                /* \"#utility.yul\":12152:12158   */\n              dup3\n                /* \"#utility.yul\":12141:12150   */\n              dup7\n                /* \"#utility.yul\":12137:12159   */\n              add\n                /* \"#utility.yul\":12116:12169   */\n              tag_404\n              jump\t// in\n            tag_609:\n                /* \"#utility.yul\":12106:12169   */\n              swap2\n              pop\n                /* \"#utility.yul\":12061:12179   */\n              pop\n                /* \"#utility.yul\":11712:12186   */\n              swap3\n              pop\n              swap3\n              swap1\n              pop\n              jump\t// out\n                /* \"#utility.yul\":12192:12306   */\n            tag_423:\n                /* \"#utility.yul\":12259:12265   */\n              0x00\n                /* \"#utility.yul\":12293:12298   */\n              dup2\n                /* \"#utility.yul\":12287:12299   */\n              mload\n                /* \"#utility.yul\":12277:12299   */\n              swap1\n              pop\n                /* \"#utility.yul\":12192:12306   */\n              swap2\n              swap1\n              pop\n              jump\t// out\n                /* \"#utility.yul\":12312:12496   */\n            tag_424:\n                /* \"#utility.yul\":12411:12422   */\n              0x00\n                /* \"#utility.yul\":12445:12451   */\n              dup3\n                /* \"#utility.yul\":12440:12443   */\n              dup3\n                /* \"#utility.yul\":12433:12452   */\n              mstore\n                /* \"#utility.yul\":12485:12489   */\n              0x20\n                /* \"#utility.yul\":12480:12483   */\n              dup3\n                /* \"#utility.yul\":12476:12490   */\n              add\n                /* \"#utility.yul\":12461:12490   */\n              swap1\n              pop\n                /* \"#utility.yul\":12312:12496   */\n              swap3\n              swap2\n              pop\n              pop\n              jump\t// out\n                /* \"#utility.yul\":12502:12634   */\n            tag_425:\n                /* \"#utility.yul\":12569:12573   */\n              0x00\n                /* \"#utility.yul\":12592:12595   */\n              dup2\n                /* \"#utility.yul\":12584:12595   */\n              swap1\n              pop\n                /* \"#utility.yul\":12622:12626   */\n              0x20\n                /* \"#utility.yul\":12617:12620   */\n              dup3\n                /* \"#utility.yul\":12613:12627   */\n              add\n                /* \"#utility.yul\":12605:12627   */\n              swap1\n              pop\n                /* \"#utility.yul\":12502:12634   */\n              swap2\n              swap1\n              pop\n              jump\t// out\n                /* \"#utility.yul\":12640:12748   */\n            tag_426:\n                /* \"#utility.yul\":12717:12741   */\n              tag_614\n                /* \"#utility.yul\":12735:12740   */\n              dup2\n                /* \"#utility.yul\":12717:12741   */\n              tag_390\n              jump\t// in\n            tag_614:\n                /* \"#utility.yul\":12712:12715   */\n              dup3\n                /* \"#utility.yul\":12705:12742   */\n              mstore\n                /* \"#utility.yul\":12640:12748   */\n              pop\n              pop\n              jump\t// out\n                /* \"#utility.yul\":12754:12933   */\n            tag_427:\n                /* \"#utility.yul\":12823:12833   */\n              0x00\n                /* \"#utility.yul\":12844:12890   */\n              tag_616\n                /* \"#utility.yul\":12886:12889   */\n              dup4\n                /* \"#utility.yul\":12878:12884   */\n              dup4\n                /* \"#utility.yul\":12844:12890   */\n              tag_426\n              jump\t// in\n            tag_616:\n                /* \"#utility.yul\":12922:12926   */\n              0x20\n                /* \"#utility.yul\":12917:12920   */\n              dup4\n                /* \"#utility.yul\":12913:12927   */\n              add\n                /* \"#utility.yul\":12899:12927   */\n              swap1\n              pop\n                /* \"#utility.yul\":12754:12933   */\n              swap3\n              swap2\n              pop\n              pop\n              jump\t// out\n                /* \"#utility.yul\":12939:13052   */\n            tag_428:\n                /* \"#utility.yul\":13009:13013   */\n              0x00\n                /* \"#utility.yul\":13041:13045   */\n              0x20\n                /* \"#utility.yul\":13036:13039   */\n              dup3\n                /* \"#utility.yul\":13032:13046   */\n              add\n                /* \"#utility.yul\":13024:13046   */\n              swap1\n              pop\n                /* \"#utility.yul\":12939:13052   */\n              swap2\n              swap1\n              pop\n              jump\t// out\n                /* \"#utility.yul\":13088:13820   */\n            tag_429:\n                /* \"#utility.yul\":13207:13210   */\n              0x00\n                /* \"#utility.yul\":13236:13290   */\n              tag_619\n                /* \"#utility.yul\":13284:13289   */\n              dup3\n                /* \"#utility.yul\":13236:13290   */\n              tag_423\n              jump\t// in\n            tag_619:\n                /* \"#utility.yul\":13306:13392   */\n              tag_620\n                /* \"#utility.yul\":13385:13391   */\n              dup2\n                /* \"#utility.yul\":13380:13383   */\n              dup6\n                /* \"#utility.yul\":13306:13392   */\n              tag_424\n              jump\t// in\n            tag_620:\n                /* \"#utility.yul\":13299:13392   */\n              swap4\n              pop\n                /* \"#utility.yul\":13416:13472   */\n              tag_621\n                /* \"#utility.yul\":13466:13471   */\n              dup4\n                /* \"#utility.yul\":13416:13472   */\n              tag_425\n              jump\t// in\n            tag_621:\n                /* \"#utility.yul\":13495:13502   */\n              dup1\n                /* \"#utility.yul\":13526:13527   */\n              0x00\n                /* \"#utility.yul\":13511:13795   */\n            tag_622:\n                /* \"#utility.yul\":13536:13542   */\n              dup4\n                /* \"#utility.yul\":13533:13534   */\n              dup2\n                /* \"#utility.yul\":13530:13543   */\n              lt\n                /* \"#utility.yul\":13511:13795   */\n              iszero\n              tag_624\n              jumpi\n                /* \"#utility.yul\":13612:13618   */\n              dup2\n                /* \"#utility.yul\":13606:13619   */\n              mload\n                /* \"#utility.yul\":13639:13702   */\n              tag_625\n                /* \"#utility.yul\":13698:13701   */\n              dup9\n                /* \"#utility.yul\":13683:13696   */\n              dup3\n                /* \"#utility.yul\":13639:13702   */\n              tag_427\n              jump\t// in\n            tag_625:\n                /* \"#utility.yul\":13632:13702   */\n              swap8\n              pop\n                /* \"#utility.yul\":13725:13785   */\n              tag_626\n                /* \"#utility.yul\":13778:13784   */\n              dup4\n                /* \"#utility.yul\":13725:13785   */\n              tag_428\n              jump\t// in\n            tag_626:\n                /* \"#utility.yul\":13715:13785   */\n              swap3\n              pop\n                /* \"#utility.yul\":13571:13795   */\n              pop\n                /* \"#utility.yul\":13558:13559   */\n              0x01\n                /* \"#utility.yul\":13555:13556   */\n              dup2\n                /* \"#utility.yul\":13551:13560   */\n              add\n                /* \"#utility.yul\":13546:13560   */\n              swap1\n              pop\n                /* \"#utility.yul\":13511:13795   */\n              jump(tag_622)\n            tag_624:\n                /* \"#utility.yul\":13515:13529   */\n              pop\n                /* \"#utility.yul\":13811:13814   */\n              dup6\n                /* \"#utility.yul\":13804:13814   */\n              swap4\n              pop\n                /* \"#utility.yul\":13212:13820   */\n              pop\n              pop\n              pop\n                /* \"#utility.yul\":13088:13820   */\n              swap3\n              swap2\n              pop\n              pop\n              jump\t// out\n                /* \"#utility.yul\":13826:14199   */\n            tag_133:\n                /* \"#utility.yul\":13969:13973   */\n              0x00\n                /* \"#utility.yul\":14007:14009   */\n              0x20\n                /* \"#utility.yul\":13996:14005   */\n              dup3\n                /* \"#utility.yul\":13992:14010   */\n              add\n                /* \"#utility.yul\":13984:14010   */\n              swap1\n              pop\n                /* \"#utility.yul\":14056:14065   */\n              dup2\n                /* \"#utility.yul\":14050:14054   */\n              dup2\n                /* \"#utility.yul\":14046:14066   */\n              sub\n                /* \"#utility.yul\":14042:14043   */\n              0x00\n                /* \"#utility.yul\":14031:14040   */\n              dup4\n                /* \"#utility.yul\":14027:14044   */\n              add\n                /* \"#utility.yul\":14020:14067   */\n              mstore\n                /* \"#utility.yul\":14084:14192   */\n              tag_628\n                /* \"#utility.yul\":14187:14191   */\n              dup2\n                /* \"#utility.yul\":14178:14184   */\n              dup5\n                /* \"#utility.yul\":14084:14192   */\n              tag_429\n              jump\t// in\n            tag_628:\n                /* \"#utility.yul\":14076:14192   */\n              swap1\n              pop\n                /* \"#utility.yul\":13826:14199   */\n              swap3\n              swap2\n              pop\n              pop\n              jump\t// out\n                /* \"#utility.yul\":14205:14679   */\n            tag_137:\n                /* \"#utility.yul\":14273:14279   */\n              0x00\n                /* \"#utility.yul\":14281:14287   */\n              dup1\n                /* \"#utility.yul\":14330:14332   */\n              0x40\n                /* \"#utility.yul\":14318:14327   */\n              dup4\n                /* \"#utility.yul\":14309:14316   */\n              dup6\n                /* \"#utility.yul\":14305:14328   */\n              sub\n                /* \"#utility.yul\":14301:14333   */\n              slt\n                /* \"#utility.yul\":14298:14417   */\n              iszero\n              tag_630\n              jumpi\n                /* \"#utility.yul\":14336:14415   */\n              tag_631\n              tag_393\n              jump\t// in\n            tag_631:\n                /* \"#utility.yul\":14298:14417   */\n            tag_630:\n                /* \"#utility.yul\":14456:14457   */\n              0x00\n                /* \"#utility.yul\":14481:14534   */\n              tag_632\n                /* \"#utility.yul\":14526:14533   */\n              dup6\n                /* \"#utility.yul\":14517:14523   */\n              dup3\n                /* \"#utility.yul\":14506:14515   */\n              dup7\n                /* \"#utility.yul\":14502:14524   */\n              add\n                /* \"#utility.yul\":14481:14534   */\n              tag_404\n              jump\t// in\n            tag_632:\n                /* \"#utility.yul\":14471:14534   */\n              swap3\n              pop\n                /* \"#utility.yul\":14427:14544   */\n              pop\n                /* \"#utility.yul\":14583:14585   */\n              0x20\n                /* \"#utility.yul\":14609:14662   */\n              tag_633\n                /* \"#utility.yul\":14654:14661   */\n              dup6\n                /* \"#utility.yul\":14645:14651   */\n              dup3\n                /* \"#utility.yul\":14634:14643   */\n              dup7\n                /* \"#utility.yul\":14630:14652   */\n              add\n                /* \"#utility.yul\":14609:14662   */\n              tag_397\n              jump\t// in\n            tag_633:\n                /* \"#utility.yul\":14599:14662   */\n              swap2\n              pop\n                /* \"#utility.yul\":14554:14672   */\n              pop\n                /* \"#utility.yul\":14205:14679   */\n              swap3\n              pop\n              swap3\n              swap1\n              pop\n              jump\t// out\n                /* \"#utility.yul\":14685:16146   */\n            tag_173:\n                /* \"#utility.yul\":15100:15104   */\n              0x00\n                /* \"#utility.yul\":15138:15141   */\n              0x0140\n                /* \"#utility.yul\":15127:15136   */\n              dup3\n                /* \"#utility.yul\":15123:15142   */\n              add\n                /* \"#utility.yul\":15115:15142   */\n              swap1\n              pop\n                /* \"#utility.yul\":15188:15197   */\n              dup2\n                /* \"#utility.yul\":15182:15186   */\n              dup2\n                /* \"#utility.yul\":15178:15198   */\n              sub\n                /* \"#utility.yul\":15174:15175   */\n              0x00\n                /* \"#utility.yul\":15163:15172   */\n              dup4\n                /* \"#utility.yul\":15159:15176   */\n              add\n                /* \"#utility.yul\":15152:15199   */\n              mstore\n                /* \"#utility.yul\":15216:15324   */\n              tag_635\n                /* \"#utility.yul\":15319:15323   */\n              dup2\n                /* \"#utility.yul\":15310:15316   */\n              dup14\n                /* \"#utility.yul\":15216:15324   */\n              tag_429\n              jump\t// in\n            tag_635:\n                /* \"#utility.yul\":15208:15324   */\n              swap1\n              pop\n                /* \"#utility.yul\":15334:15400   */\n              tag_636\n                /* \"#utility.yul\":15396:15398   */\n              0x20\n                /* \"#utility.yul\":15385:15394   */\n              dup4\n                /* \"#utility.yul\":15381:15399   */\n              add\n                /* \"#utility.yul\":15372:15378   */\n              dup13\n                /* \"#utility.yul\":15334:15400   */\n              tag_420\n              jump\t// in\n            tag_636:\n                /* \"#utility.yul\":15447:15456   */\n              dup2\n                /* \"#utility.yul\":15441:15445   */\n              dup2\n                /* \"#utility.yul\":15437:15457   */\n              sub\n                /* \"#utility.yul\":15432:15434   */\n              0x40\n                /* \"#utility.yul\":15421:15430   */\n              dup4\n                /* \"#utility.yul\":15417:15435   */\n              add\n                /* \"#utility.yul\":15410:15458   */\n              mstore\n                /* \"#utility.yul\":15475:15583   */\n              tag_637\n                /* \"#utility.yul\":15578:15582   */\n              dup2\n                /* \"#utility.yul\":15569:15575   */\n              dup12\n                /* \"#utility.yul\":15475:15583   */\n              tag_429\n              jump\t// in\n            tag_637:\n                /* \"#utility.yul\":15467:15583   */\n              swap1\n              pop\n                /* \"#utility.yul\":15593:15665   */\n              tag_638\n                /* \"#utility.yul\":15661:15663   */\n              0x60\n                /* \"#utility.yul\":15650:15659   */\n              dup4\n                /* \"#utility.yul\":15646:15664   */\n              add\n                /* \"#utility.yul\":15637:15643   */\n              dup11\n                /* \"#utility.yul\":15593:15665   */\n              tag_418\n              jump\t// in\n            tag_638:\n                /* \"#utility.yul\":15675:15742   */\n              tag_639\n                /* \"#utility.yul\":15737:15740   */\n              0x80\n                /* \"#utility.yul\":15726:15735   */\n              dup4\n                /* \"#utility.yul\":15722:15741   */\n              add\n                /* \"#utility.yul\":15713:15719   */\n              dup10\n                /* \"#utility.yul\":15675:15742   */\n              tag_420\n              jump\t// in\n            tag_639:\n                /* \"#utility.yul\":15752:15819   */\n              tag_640\n                /* \"#utility.yul\":15814:15817   */\n              0xa0\n                /* \"#utility.yul\":15803:15812   */\n              dup4\n                /* \"#utility.yul\":15799:15818   */\n              add\n                /* \"#utility.yul\":15790:15796   */\n              dup9\n                /* \"#utility.yul\":15752:15819   */\n              tag_420\n              jump\t// in\n            tag_640:\n                /* \"#utility.yul\":15829:15896   */\n              tag_641\n                /* \"#utility.yul\":15891:15894   */\n              0xc0\n                /* \"#utility.yul\":15880:15889   */\n              dup4\n                /* \"#utility.yul\":15876:15895   */\n              add\n                /* \"#utility.yul\":15867:15873   */\n              dup8\n                /* \"#utility.yul\":15829:15896   */\n              tag_420\n              jump\t// in\n            tag_641:\n                /* \"#utility.yul\":15906:15973   */\n              tag_642\n                /* \"#utility.yul\":15968:15971   */\n              0xe0\n                /* \"#utility.yul\":15957:15966   */\n              dup4\n                /* \"#utility.yul\":15953:15972   */\n              add\n                /* \"#utility.yul\":15944:15950   */\n              dup7\n                /* \"#utility.yul\":15906:15973   */\n              tag_420\n              jump\t// in\n            tag_642:\n                /* \"#utility.yul\":15983:16056   */\n              tag_643\n                /* \"#utility.yul\":16051:16054   */\n              0x0100\n                /* \"#utility.yul\":16040:16049   */\n              dup4\n                /* \"#utility.yul\":16036:16055   */\n              add\n                /* \"#utility.yul\":16027:16033   */\n              dup6\n                /* \"#utility.yul\":15983:16056   */\n              tag_418\n              jump\t// in\n            tag_643:\n                /* \"#utility.yul\":16066:16139   */\n              tag_644\n                /* \"#utility.yul\":16134:16137   */\n              0x0120\n                /* \"#utility.yul\":16123:16132   */\n              dup4\n                /* \"#utility.yul\":16119:16138   */\n              add\n                /* \"#utility.yul\":16110:16116   */\n              dup5\n                /* \"#utility.yul\":16066:16139   */\n              tag_418\n              jump\t// in\n            tag_644:\n                /* \"#utility.yul\":14685:16146   */\n              swap12\n              swap11\n              pop\n              pop\n              pop\n              pop\n              pop\n              pop\n              pop\n              pop\n              pop\n              pop\n              pop\n              jump\t// out\n                /* \"#utility.yul\":16152:16333   */\n            tag_430:\n                /* \"#utility.yul\":16292:16325   */\n              0x5265656e7472616e637947756172643a207265656e7472616e742063616c6c00\n                /* \"#utility.yul\":16288:16289   */\n              0x00\n                /* \"#utility.yul\":16280:16286   */\n              dup3\n                /* \"#utility.yul\":16276:16290   */\n              add\n                /* \"#utility.yul\":16269:16326   */\n              mstore\n                /* \"#utility.yul\":16152:16333   */\n              pop\n              jump\t// out\n                /* \"#utility.yul\":16339:16705   */\n            tag_431:\n                /* \"#utility.yul\":16481:16484   */\n              0x00\n                /* \"#utility.yul\":16502:16569   */\n              tag_647\n                /* \"#utility.yul\":16566:16568   */\n              0x1f\n                /* \"#utility.yul\":16561:16564   */\n              dup4\n                /* \"#utility.yul\":16502:16569   */\n              tag_399\n              jump\t// in\n            tag_647:\n                /* \"#utility.yul\":16495:16569   */\n              swap2\n              pop\n                /* \"#utility.yul\":16578:16671   */\n              tag_648\n                /* \"#utility.yul\":16667:16670   */\n              dup3\n                /* \"#utility.yul\":16578:16671   */\n              tag_430\n              jump\t// in\n            tag_648:\n                /* \"#utility.yul\":16696:16698   */\n              0x20\n                /* \"#utility.yul\":16691:16694   */\n              dup3\n                /* \"#utility.yul\":16687:16699   */\n              add\n                /* \"#utility.yul\":16680:16699   */\n              swap1\n              pop\n                /* \"#utility.yul\":16339:16705   */\n              swap2\n              swap1\n              pop\n              jump\t// out\n                /* \"#utility.yul\":16711:17130   */\n            tag_194:\n                /* \"#utility.yul\":16877:16881   */\n              0x00\n                /* \"#utility.yul\":16915:16917   */\n              0x20\n                /* \"#utility.yul\":16904:16913   */\n              dup3\n                /* \"#utility.yul\":16900:16918   */\n              add\n                /* \"#utility.yul\":16892:16918   */\n              swap1\n              pop\n                /* \"#utility.yul\":16964:16973   */\n              dup2\n                /* \"#utility.yul\":16958:16962   */\n              dup2\n                /* \"#utility.yul\":16954:16974   */\n              sub\n                /* \"#utility.yul\":16950:16951   */\n              0x00\n                /* \"#utility.yul\":16939:16948   */\n              dup4\n                /* \"#utility.yul\":16935:16952   */\n              add\n                /* \"#utility.yul\":16928:16975   */\n              mstore\n                /* \"#utility.yul\":16992:17123   */\n              tag_650\n                /* \"#utility.yul\":17118:17122   */\n              dup2\n                /* \"#utility.yul\":16992:17123   */\n              tag_431\n              jump\t// in\n            tag_650:\n                /* \"#utility.yul\":16984:17123   */\n              swap1\n              pop\n                /* \"#utility.yul\":16711:17130   */\n              swap2\n              swap1\n              pop\n              jump\t// out\n                /* \"#utility.yul\":17136:17316   */\n            tag_198:\n                /* \"#utility.yul\":17184:17261   */\n              0x4e487b7100000000000000000000000000000000000000000000000000000000\n                /* \"#utility.yul\":17181:17182   */\n              0x00\n                /* \"#utility.yul\":17174:17262   */\n              mstore\n                /* \"#utility.yul\":17281:17285   */\n              0x32\n                /* \"#utility.yul\":17278:17279   */\n              0x04\n                /* \"#utility.yul\":17271:17286   */\n              mstore\n                /* \"#utility.yul\":17305:17309   */\n              0x24\n                /* \"#utility.yul\":17302:17303   */\n              0x00\n                /* \"#utility.yul\":17295:17310   */\n              revert\n                /* \"#utility.yul\":17322:17547   */\n            tag_432:\n                /* \"#utility.yul\":17462:17496   */\n              0x4e6f206572657320656c20736f6c69636974616e7465206465206c6120736f6c\n                /* \"#utility.yul\":17458:17459   */\n              0x00\n                /* \"#utility.yul\":17450:17456   */\n              dup3\n                /* \"#utility.yul\":17446:17460   */\n              add\n                /* \"#utility.yul\":17439:17497   */\n              mstore\n                /* \"#utility.yul\":17531:17539   */\n              0x6963697475640000000000000000000000000000000000000000000000000000\n                /* \"#utility.yul\":17526:17528   */\n              0x20\n                /* \"#utility.yul\":17518:17524   */\n              dup3\n                /* \"#utility.yul\":17514:17529   */\n              add\n                /* \"#utility.yul\":17507:17540   */\n              mstore\n                /* \"#utility.yul\":17322:17547   */\n              pop\n              jump\t// out\n                /* \"#utility.yul\":17553:17919   */\n            tag_433:\n                /* \"#utility.yul\":17695:17698   */\n              0x00\n                /* \"#utility.yul\":17716:17783   */\n              tag_654\n                /* \"#utility.yul\":17780:17782   */\n              0x26\n                /* \"#utility.yul\":17775:17778   */\n              dup4\n                /* \"#utility.yul\":17716:17783   */\n              tag_399\n              jump\t// in\n            tag_654:\n                /* \"#utility.yul\":17709:17783   */\n              swap2\n              pop\n                /* \"#utility.yul\":17792:17885   */\n              tag_655\n                /* \"#utility.yul\":17881:17884   */\n              dup3\n                /* \"#utility.yul\":17792:17885   */\n              tag_432\n              jump\t// in\n            tag_655:\n                /* \"#utility.yul\":17910:17912   */\n              0x40\n                /* \"#utility.yul\":17905:17908   */\n              dup3\n                /* \"#utility.yul\":17901:17913   */\n              add\n                /* \"#utility.yul\":17894:17913   */\n              swap1\n              pop\n                /* \"#utility.yul\":17553:17919   */\n              swap2\n              swap1\n              pop\n              jump\t// out\n                /* \"#utility.yul\":17925:18344   */\n            tag_202:\n                /* \"#utility.yul\":18091:18095   */\n              0x00\n                /* \"#utility.yul\":18129:18131   */\n              0x20\n                /* \"#utility.yul\":18118:18127   */\n              dup3\n                /* \"#utility.yul\":18114:18132   */\n              add\n                /* \"#utility.yul\":18106:18132   */\n              swap1\n              pop\n                /* \"#utility.yul\":18178:18187   */\n              dup2\n                /* \"#utility.yul\":18172:18176   */\n              dup2\n                /* \"#utility.yul\":18168:18188   */\n              sub\n                /* \"#utility.yul\":18164:18165   */\n              0x00\n                /* \"#utility.yul\":18153:18162   */\n              dup4\n                /* \"#utility.yul\":18149:18166   */\n              add\n                /* \"#utility.yul\":18142:18189   */\n              mstore\n                /* \"#utility.yul\":18206:18337   */\n              tag_657\n                /* \"#utility.yul\":18332:18336   */\n              dup2\n                /* \"#utility.yul\":18206:18337   */\n              tag_433\n              jump\t// in\n            tag_657:\n                /* \"#utility.yul\":18198:18337   */\n              swap1\n              pop\n                /* \"#utility.yul\":17925:18344   */\n              swap2\n              swap1\n              pop\n              jump\t// out\n                /* \"#utility.yul\":18350:18571   */\n            tag_434:\n                /* \"#utility.yul\":18490:18524   */\n              0x4c6120736f6c696369747564207961206861207369646f20636f6d706c657461\n                /* \"#utility.yul\":18486:18487   */\n              0x00\n                /* \"#utility.yul\":18478:18484   */\n              dup3\n                /* \"#utility.yul\":18474:18488   */\n              add\n                /* \"#utility.yul\":18467:18525   */\n              mstore\n                /* \"#utility.yul\":18559:18563   */\n              0x6461000000000000000000000000000000000000000000000000000000000000\n                /* \"#utility.yul\":18554:18556   */\n              0x20\n                /* \"#utility.yul\":18546:18552   */\n              dup3\n                /* \"#utility.yul\":18542:18557   */\n              add\n                /* \"#utility.yul\":18535:18564   */\n              mstore\n                /* \"#utility.yul\":18350:18571   */\n              pop\n              jump\t// out\n                /* \"#utility.yul\":18577:18943   */\n            tag_435:\n                /* \"#utility.yul\":18719:18722   */\n              0x00\n                /* \"#utility.yul\":18740:18807   */\n              tag_660\n                /* \"#utility.yul\":18804:18806   */\n              0x22\n                /* \"#utility.yul\":18799:18802   */\n              dup4\n                /* \"#utility.yul\":18740:18807   */\n              tag_399\n              jump\t// in\n            tag_660:\n                /* \"#utility.yul\":18733:18807   */\n              swap2\n              pop\n                /* \"#utility.yul\":18816:18909   */\n              tag_661\n                /* \"#utility.yul\":18905:18908   */\n              dup3\n                /* \"#utility.yul\":18816:18909   */\n              tag_434\n              jump\t// in\n            tag_661:\n                /* \"#utility.yul\":18934:18936   */\n              0x40\n                /* \"#utility.yul\":18929:18932   */\n              dup3\n                /* \"#utility.yul\":18925:18937   */\n              add\n                /* \"#utility.yul\":18918:18937   */\n              swap1\n              pop\n                /* \"#utility.yul\":18577:18943   */\n              swap2\n              swap1\n              pop\n              jump\t// out\n                /* \"#utility.yul\":18949:19368   */\n            tag_205:\n                /* \"#utility.yul\":19115:19119   */\n              0x00\n                /* \"#utility.yul\":19153:19155   */\n              0x20\n                /* \"#utility.yul\":19142:19151   */\n              dup3\n                /* \"#utility.yul\":19138:19156   */\n              add\n                /* \"#utility.yul\":19130:19156   */\n              swap1\n              pop\n                /* \"#utility.yul\":19202:19211   */\n              dup2\n                /* \"#utility.yul\":19196:19200   */\n              dup2\n                /* \"#utility.yul\":19192:19212   */\n              sub\n                /* \"#utility.yul\":19188:19189   */\n              0x00\n                /* \"#utility.yul\":19177:19186   */\n              dup4\n                /* \"#utility.yul\":19173:19190   */\n              add\n                /* \"#utility.yul\":19166:19213   */\n              mstore\n                /* \"#utility.yul\":19230:19361   */\n              tag_663\n                /* \"#utility.yul\":19356:19360   */\n              dup2\n                /* \"#utility.yul\":19230:19361   */\n              tag_435\n              jump\t// in\n            tag_663:\n                /* \"#utility.yul\":19222:19361   */\n              swap1\n              pop\n                /* \"#utility.yul\":18949:19368   */\n              swap2\n              swap1\n              pop\n              jump\t// out\n                /* \"#utility.yul\":19374:19554   */\n            tag_436:\n                /* \"#utility.yul\":19422:19499   */\n              0x4e487b7100000000000000000000000000000000000000000000000000000000\n                /* \"#utility.yul\":19419:19420   */\n              0x00\n                /* \"#utility.yul\":19412:19500   */\n              mstore\n                /* \"#utility.yul\":19519:19523   */\n              0x11\n                /* \"#utility.yul\":19516:19517   */\n              0x04\n                /* \"#utility.yul\":19509:19524   */\n              mstore\n                /* \"#utility.yul\":19543:19547   */\n              0x24\n                /* \"#utility.yul\":19540:19541   */\n              0x00\n                /* \"#utility.yul\":19533:19548   */\n              revert\n                /* \"#utility.yul\":19560:19793   */\n            tag_218:\n                /* \"#utility.yul\":19599:19602   */\n              0x00\n                /* \"#utility.yul\":19622:19646   */\n              tag_666\n                /* \"#utility.yul\":19640:19645   */\n              dup3\n                /* \"#utility.yul\":19622:19646   */\n              tag_395\n              jump\t// in\n            tag_666:\n                /* \"#utility.yul\":19613:19646   */\n              swap2\n              pop\n                /* \"#utility.yul\":19668:19734   */\n              0xffffffffffffffffffffffffffffffffffffffffffffffffffffffffffffffff\n                /* \"#utility.yul\":19661:19666   */\n              dup3\n                /* \"#utility.yul\":19658:19735   */\n              sub\n                /* \"#utility.yul\":19655:19758   */\n              tag_667\n              jumpi\n                /* \"#utility.yul\":19738:19756   */\n              tag_668\n              tag_436\n              jump\t// in\n            tag_668:\n                /* \"#utility.yul\":19655:19758   */\n            tag_667:\n                /* \"#utility.yul\":19785:19786   */\n              0x01\n                /* \"#utility.yul\":19778:19783   */\n              dup3\n                /* \"#utility.yul\":19774:19787   */\n              add\n                /* \"#utility.yul\":19767:19787   */\n              swap1\n              pop\n                /* \"#utility.yul\":19560:19793   */\n              swap2\n              swap1\n              pop\n              jump\t// out\n                /* \"#utility.yul\":19799:20147   */\n            tag_223:\n                /* \"#utility.yul\":19839:19846   */\n              0x00\n                /* \"#utility.yul\":19862:19882   */\n              tag_670\n                /* \"#utility.yul\":19880:19881   */\n              dup3\n                /* \"#utility.yul\":19862:19882   */\n              tag_395\n              jump\t// in\n            tag_670:\n                /* \"#utility.yul\":19857:19882   */\n              swap2\n              pop\n                /* \"#utility.yul\":19896:19916   */\n              tag_671\n                /* \"#utility.yul\":19914:19915   */\n              dup4\n                /* \"#utility.yul\":19896:19916   */\n              tag_395\n              jump\t// in\n            tag_671:\n                /* \"#utility.yul\":19891:19916   */\n              swap3\n              pop\n                /* \"#utility.yul\":20084:20085   */\n              dup2\n                /* \"#utility.yul\":20016:20082   */\n              0xffffffffffffffffffffffffffffffffffffffffffffffffffffffffffffffff\n                /* \"#utility.yul\":20012:20086   */\n              div\n                /* \"#utility.yul\":20009:20010   */\n              dup4\n                /* \"#utility.yul\":20006:20087   */\n              gt\n                /* \"#utility.yul\":20001:20002   */\n              dup3\n                /* \"#utility.yul\":19994:20003   */\n              iszero\n                /* \"#utility.yul\":19987:20004   */\n              iszero\n                /* \"#utility.yul\":19983:20088   */\n              and\n                /* \"#utility.yul\":19980:20111   */\n              iszero\n              tag_672\n              jumpi\n                /* \"#utility.yul\":20091:20109   */\n              tag_673\n              tag_436\n              jump\t// in\n            tag_673:\n                /* \"#utility.yul\":19980:20111   */\n            tag_672:\n                /* \"#utility.yul\":20139:20140   */\n              dup3\n                /* \"#utility.yul\":20136:20137   */\n              dup3\n                /* \"#utility.yul\":20132:20141   */\n              mul\n                /* \"#utility.yul\":20121:20141   */\n              swap1\n              pop\n                /* \"#utility.yul\":19799:20147   */\n              swap3\n              swap2\n              pop\n              pop\n              jump\t// out\n                /* \"#utility.yul\":20153:20333   */\n            tag_437:\n                /* \"#utility.yul\":20201:20278   */\n              0x4e487b7100000000000000000000000000000000000000000000000000000000\n                /* \"#utility.yul\":20198:20199   */\n              0x00\n                /* \"#utility.yul\":20191:20279   */\n              mstore\n                /* \"#utility.yul\":20298:20302   */\n              0x12\n                /* \"#utility.yul\":20295:20296   */\n              0x04\n                /* \"#utility.yul\":20288:20303   */\n              mstore\n                /* \"#utility.yul\":20322:20326   */\n              0x24\n                /* \"#utility.yul\":20319:20320   */\n              0x00\n                /* \"#utility.yul\":20312:20327   */\n              revert\n                /* \"#utility.yul\":20339:20524   */\n            tag_225:\n                /* \"#utility.yul\":20379:20380   */\n              0x00\n                /* \"#utility.yul\":20396:20416   */\n              tag_676\n                /* \"#utility.yul\":20414:20415   */\n              dup3\n                /* \"#utility.yul\":20396:20416   */\n              tag_395\n              jump\t// in\n            tag_676:\n                /* \"#utility.yul\":20391:20416   */\n              swap2\n              pop\n                /* \"#utility.yul\":20430:20450   */\n              tag_677\n                /* \"#utility.yul\":20448:20449   */\n              dup4\n                /* \"#utility.yul\":20430:20450   */\n              tag_395\n              jump\t// in\n            tag_677:\n                /* \"#utility.yul\":20425:20450   */\n              swap3\n              pop\n                /* \"#utility.yul\":20469:20470   */\n              dup3\n                /* \"#utility.yul\":20459:20494   */\n              tag_678\n              jumpi\n                /* \"#utility.yul\":20474:20492   */\n              tag_679\n              tag_437\n              jump\t// in\n            tag_679:\n                /* \"#utility.yul\":20459:20494   */\n            tag_678:\n                /* \"#utility.yul\":20516:20517   */\n              dup3\n                /* \"#utility.yul\":20513:20514   */\n              dup3\n                /* \"#utility.yul\":20509:20518   */\n              div\n                /* \"#utility.yul\":20504:20518   */\n              swap1\n              pop\n                /* \"#utility.yul\":20339:20524   */\n              swap3\n              swap2\n              pop\n              pop\n              jump\t// out\n                /* \"#utility.yul\":20530:20786   */\n            tag_438:\n                /* \"#utility.yul\":20670:20736   */\n              0x4c6120736f6c6963697475642061c3ba6e206e6f206861207369646f20617072\n                /* \"#utility.yul\":20666:20667   */\n              0x00\n                /* \"#utility.yul\":20658:20664   */\n              dup3\n                /* \"#utility.yul\":20654:20668   */\n              add\n                /* \"#utility.yul\":20647:20737   */\n              mstore\n                /* \"#utility.yul\":20771:20778   */\n              0x6f62616461000000000000000000000000000000000000000000000000000000\n                /* \"#utility.yul\":20766:20768   */\n              0x20\n                /* \"#utility.yul\":20758:20764   */\n              dup3\n                /* \"#utility.yul\":20754:20769   */\n              add\n                /* \"#utility.yul\":20747:20779   */\n              mstore\n                /* \"#utility.yul\":20530:20786   */\n              pop\n              jump\t// out\n                /* \"#utility.yul\":20792:21158   */\n            tag_439:\n                /* \"#utility.yul\":20934:20937   */\n              0x00\n                /* \"#utility.yul\":20955:21022   */\n              tag_682\n                /* \"#utility.yul\":21019:21021   */\n              0x25\n                /* \"#utility.yul\":21014:21017   */\n              dup4\n                /* \"#utility.yul\":20955:21022   */\n              tag_399\n              jump\t// in\n            tag_682:\n                /* \"#utility.yul\":20948:21022   */\n              swap2\n              pop\n                /* \"#utility.yul\":21031:21124   */\n              tag_683\n                /* \"#utility.yul\":21120:21123   */\n              dup3\n                /* \"#utility.yul\":21031:21124   */\n              tag_438\n              jump\t// in\n            tag_683:\n                /* \"#utility.yul\":21149:21151   */\n              0x40\n                /* \"#utility.yul\":21144:21147   */\n              dup3\n                /* \"#utility.yul\":21140:21152   */\n              add\n                /* \"#utility.yul\":21133:21152   */\n              swap1\n              pop\n                /* \"#utility.yul\":20792:21158   */\n              swap2\n              swap1\n              pop\n              jump\t// out\n                /* \"#utility.yul\":21164:21583   */\n            tag_228:\n                /* \"#utility.yul\":21330:21334   */\n              0x00\n                /* \"#utility.yul\":21368:21370   */\n              0x20\n                /* \"#utility.yul\":21357:21366   */\n              dup3\n                /* \"#utility.yul\":21353:21371   */\n              add\n                /* \"#utility.yul\":21345:21371   */\n              swap1\n              pop\n                /* \"#utility.yul\":21417:21426   */\n              dup2\n                /* \"#utility.yul\":21411:21415   */\n              dup2\n                /* \"#utility.yul\":21407:21427   */\n              sub\n                /* \"#utility.yul\":21403:21404   */\n              0x00\n                /* \"#utility.yul\":21392:21401   */\n              dup4\n                /* \"#utility.yul\":21388:21405   */\n              add\n                /* \"#utility.yul\":21381:21428   */\n              mstore\n                /* \"#utility.yul\":21445:21576   */\n              tag_685\n                /* \"#utility.yul\":21571:21575   */\n              dup2\n                /* \"#utility.yul\":21445:21576   */\n              tag_439\n              jump\t// in\n            tag_685:\n                /* \"#utility.yul\":21437:21576   */\n              swap1\n              pop\n                /* \"#utility.yul\":21164:21583   */\n              swap2\n              swap1\n              pop\n              jump\t// out\n                /* \"#utility.yul\":21589:21769   */\n            tag_440:\n                /* \"#utility.yul\":21637:21714   */\n              0x4e487b7100000000000000000000000000000000000000000000000000000000\n                /* \"#utility.yul\":21634:21635   */\n              0x00\n                /* \"#utility.yul\":21627:21715   */\n              mstore\n                /* \"#utility.yul\":21734:21738   */\n              0x22\n                /* \"#utility.yul\":21731:21732   */\n              0x04\n                /* \"#utility.yul\":21724:21739   */\n              mstore\n                /* \"#utility.yul\":21758:21762   */\n              0x24\n                /* \"#utility.yul\":21755:21756   */\n              0x00\n                /* \"#utility.yul\":21748:21763   */\n              revert\n                /* \"#utility.yul\":21775:22095   */\n            tag_236:\n                /* \"#utility.yul\":21819:21825   */\n              0x00\n                /* \"#utility.yul\":21856:21857   */\n              0x02\n                /* \"#utility.yul\":21850:21854   */\n              dup3\n                /* \"#utility.yul\":21846:21858   */\n              div\n                /* \"#utility.yul\":21836:21858   */\n              swap1\n              pop\n                /* \"#utility.yul\":21903:21904   */\n              0x01\n                /* \"#utility.yul\":21897:21901   */\n              dup3\n                /* \"#utility.yul\":21893:21905   */\n              and\n                /* \"#utility.yul\":21924:21942   */\n              dup1\n                /* \"#utility.yul\":21914:21995   */\n              tag_688\n              jumpi\n                /* \"#utility.yul\":21980:21984   */\n              0x7f\n                /* \"#utility.yul\":21972:21978   */\n              dup3\n                /* \"#utility.yul\":21968:21985   */\n              and\n                /* \"#utility.yul\":21958:21985   */\n              swap2\n              pop\n                /* \"#utility.yul\":21914:21995   */\n            tag_688:\n                /* \"#utility.yul\":22042:22044   */\n              0x20\n                /* \"#utility.yul\":22034:22040   */\n              dup3\n                /* \"#utility.yul\":22031:22045   */\n              lt\n                /* \"#utility.yul\":22011:22029   */\n              dup2\n                /* \"#utility.yul\":22008:22046   */\n              sub\n                /* \"#utility.yul\":22005:22089   */\n              tag_689\n              jumpi\n                /* \"#utility.yul\":22061:22079   */\n              tag_690\n              tag_440\n              jump\t// in\n            tag_690:\n                /* \"#utility.yul\":22005:22089   */\n            tag_689:\n                /* \"#utility.yul\":21826:22095   */\n              pop\n                /* \"#utility.yul\":21775:22095   */\n              swap2\n              swap1\n              pop\n              jump\t// out\n                /* \"#utility.yul\":22101:22281   */\n            tag_441:\n                /* \"#utility.yul\":22241:22273   */\n              0x4e6f2073652070756564656e20637265617220736f6c69636974756465730000\n                /* \"#utility.yul\":22237:22238   */\n              0x00\n                /* \"#utility.yul\":22229:22235   */\n              dup3\n                /* \"#utility.yul\":22225:22239   */\n              add\n                /* \"#utility.yul\":22218:22274   */\n              mstore\n                /* \"#utility.yul\":22101:22281   */\n              pop\n              jump\t// out\n                /* \"#utility.yul\":22287:22653   */\n            tag_442:\n                /* \"#utility.yul\":22429:22432   */\n              0x00\n                /* \"#utility.yul\":22450:22517   */\n              tag_693\n                /* \"#utility.yul\":22514:22516   */\n              0x1e\n                /* \"#utility.yul\":22509:22512   */\n              dup4\n                /* \"#utility.yul\":22450:22517   */\n              tag_399\n              jump\t// in\n            tag_693:\n                /* \"#utility.yul\":22443:22517   */\n              swap2\n              pop\n                /* \"#utility.yul\":22526:22619   */\n              tag_694\n                /* \"#utility.yul\":22615:22618   */\n              dup3\n                /* \"#utility.yul\":22526:22619   */\n              tag_441\n              jump\t// in\n            tag_694:\n                /* \"#utility.yul\":22644:22646   */\n              0x20\n                /* \"#utility.yul\":22639:22642   */\n              dup3\n                /* \"#utility.yul\":22635:22647   */\n              add\n                /* \"#utility.yul\":22628:22647   */\n              swap1\n              pop\n                /* \"#utility.yul\":22287:22653   */\n              swap2\n              swap1\n              pop\n              jump\t// out\n                /* \"#utility.yul\":22659:23078   */\n            tag_247:\n                /* \"#utility.yul\":22825:22829   */\n              0x00\n                /* \"#utility.yul\":22863:22865   */\n              0x20\n                /* \"#utility.yul\":22852:22861   */\n              dup3\n                /* \"#utility.yul\":22848:22866   */\n              add\n                /* \"#utility.yul\":22840:22866   */\n              swap1\n              pop\n                /* \"#utility.yul\":22912:22921   */\n              dup2\n                /* \"#utility.yul\":22906:22910   */\n              dup2\n                /* \"#utility.yul\":22902:22922   */\n              sub\n                /* \"#utility.yul\":22898:22899   */\n              0x00\n                /* \"#utility.yul\":22887:22896   */\n              dup4\n                /* \"#utility.yul\":22883:22900   */\n              add\n                /* \"#utility.yul\":22876:22923   */\n              mstore\n                /* \"#utility.yul\":22940:23071   */\n              tag_696\n                /* \"#utility.yul\":23066:23070   */\n              dup2\n                /* \"#utility.yul\":22940:23071   */\n              tag_442\n              jump\t// in\n            tag_696:\n                /* \"#utility.yul\":22932:23071   */\n              swap1\n              pop\n                /* \"#utility.yul\":22659:23078   */\n              swap2\n              swap1\n              pop\n              jump\t// out\n                /* \"#utility.yul\":23084:23322   */\n            tag_443:\n                /* \"#utility.yul\":23224:23258   */\n              0x536f6c6f206c6f732061646d696e6973747261646f7265732070756564656e20\n                /* \"#utility.yul\":23220:23221   */\n              0x00\n                /* \"#utility.yul\":23212:23218   */\n              dup3\n                /* \"#utility.yul\":23208:23222   */\n              add\n                /* \"#utility.yul\":23201:23259   */\n              mstore\n                /* \"#utility.yul\":23293:23314   */\n              0x637265617220756e6120736f6c69636974756400000000000000000000000000\n                /* \"#utility.yul\":23288:23290   */\n              0x20\n                /* \"#utility.yul\":23280:23286   */\n              dup3\n                /* \"#utility.yul\":23276:23291   */\n              add\n                /* \"#utility.yul\":23269:23315   */\n              mstore\n                /* \"#utility.yul\":23084:23322   */\n              pop\n              jump\t// out\n                /* \"#utility.yul\":23328:23694   */\n            tag_444:\n                /* \"#utility.yul\":23470:23473   */\n              0x00\n                /* \"#utility.yul\":23491:23558   */\n              tag_699\n                /* \"#utility.yul\":23555:23557   */\n              0x33\n                /* \"#utility.yul\":23550:23553   */\n              dup4\n                /* \"#utility.yul\":23491:23558   */\n              tag_399\n              jump\t// in\n            tag_699:\n                /* \"#utility.yul\":23484:23558   */\n              swap2\n              pop\n                /* \"#utility.yul\":23567:23660   */\n              tag_700\n                /* \"#utility.yul\":23656:23659   */\n              dup3\n                /* \"#utility.yul\":23567:23660   */\n              tag_443\n              jump\t// in\n            tag_700:\n                /* \"#utility.yul\":23685:23687   */\n              0x40\n                /* \"#utility.yul\":23680:23683   */\n              dup3\n                /* \"#utility.yul\":23676:23688   */\n              add\n                /* \"#utility.yul\":23669:23688   */\n              swap1\n              pop\n                /* \"#utility.yul\":23328:23694   */\n              swap2\n              swap1\n              pop\n              jump\t// out\n                /* \"#utility.yul\":23700:24119   */\n            tag_252:\n                /* \"#utility.yul\":23866:23870   */\n              0x00\n                /* \"#utility.yul\":23904:23906   */\n              0x20\n                /* \"#utility.yul\":23893:23902   */\n              dup3\n                /* \"#utility.yul\":23889:23907   */\n              add\n                /* \"#utility.yul\":23881:23907   */\n              swap1\n              pop\n                /* \"#utility.yul\":23953:23962   */\n              dup2\n                /* \"#utility.yul\":23947:23951   */\n              dup2\n                /* \"#utility.yul\":23943:23963   */\n              sub\n                /* \"#utility.yul\":23939:23940   */\n              0x00\n                /* \"#utility.yul\":23928:23937   */\n              dup4\n                /* \"#utility.yul\":23924:23941   */\n              add\n                /* \"#utility.yul\":23917:23964   */\n              mstore\n                /* \"#utility.yul\":23981:24112   */\n              tag_702\n                /* \"#utility.yul\":24107:24111   */\n              dup2\n                /* \"#utility.yul\":23981:24112   */\n              tag_444\n              jump\t// in\n            tag_702:\n                /* \"#utility.yul\":23973:24112   */\n              swap1\n              pop\n                /* \"#utility.yul\":23700:24119   */\n              swap2\n              swap1\n              pop\n              jump\t// out\n                /* \"#utility.yul\":24125:24266   */\n            tag_445:\n                /* \"#utility.yul\":24174:24178   */\n              0x00\n                /* \"#utility.yul\":24197:24200   */\n              dup2\n                /* \"#utility.yul\":24189:24200   */\n              swap1\n              pop\n                /* \"#utility.yul\":24220:24223   */\n              dup2\n                /* \"#utility.yul\":24217:24218   */\n              0x00\n                /* \"#utility.yul\":24210:24224   */\n              mstore\n                /* \"#utility.yul\":24254:24258   */\n              0x20\n                /* \"#utility.yul\":24251:24252   */\n              0x00\n                /* \"#utility.yul\":24241:24259   */\n              keccak256\n                /* \"#utility.yul\":24233:24259   */\n              swap1\n              pop\n                /* \"#utility.yul\":24125:24266   */\n              swap2\n              swap1\n              pop\n              jump\t// out\n                /* \"#utility.yul\":24272:24365   */\n            tag_446:\n                /* \"#utility.yul\":24309:24315   */\n              0x00\n                /* \"#utility.yul\":24356:24358   */\n              0x20\n                /* \"#utility.yul\":24351:24353   */\n              0x1f\n                /* \"#utility.yul\":24344:24349   */\n              dup4\n                /* \"#utility.yul\":24340:24354   */\n              add\n                /* \"#utility.yul\":24336:24359   */\n              div\n                /* \"#utility.yul\":24326:24359   */\n              swap1\n              pop\n                /* \"#utility.yul\":24272:24365   */\n              swap2\n              swap1\n              pop\n              jump\t// out\n                /* \"#utility.yul\":24371:24478   */\n            tag_447:\n                /* \"#utility.yul\":24415:24423   */\n              0x00\n                /* \"#utility.yul\":24465:24470   */\n              dup3\n                /* \"#utility.yul\":24459:24463   */\n              dup3\n                /* \"#utility.yul\":24455:24471   */\n              shl\n                /* \"#utility.yul\":24434:24471   */\n              swap1\n              pop\n                /* \"#utility.yul\":24371:24478   */\n              swap3\n              swap2\n              pop\n              pop\n              jump\t// out\n                /* \"#utility.yul\":24484:24877   */\n            tag_448:\n                /* \"#utility.yul\":24553:24559   */\n              0x00\n                /* \"#utility.yul\":24603:24604   */\n              0x08\n                /* \"#utility.yul\":24591:24601   */\n              dup4\n                /* \"#utility.yul\":24587:24605   */\n              mul\n                /* \"#utility.yul\":24626:24723   */\n              tag_707\n                /* \"#utility.yul\":24656:24722   */\n              0xffffffffffffffffffffffffffffffffffffffffffffffffffffffffffffffff\n                /* \"#utility.yul\":24645:24654   */\n              dup3\n                /* \"#utility.yul\":24626:24723   */\n              tag_447\n              jump\t// in\n            tag_707:\n                /* \"#utility.yul\":24744:24783   */\n              tag_708\n                /* \"#utility.yul\":24774:24782   */\n              dup7\n                /* \"#utility.yul\":24763:24772   */\n              dup4\n                /* \"#utility.yul\":24744:24783   */\n              tag_447\n              jump\t// in\n            tag_708:\n                /* \"#utility.yul\":24732:24783   */\n              swap6\n              pop\n                /* \"#utility.yul\":24816:24820   */\n              dup1\n                /* \"#utility.yul\":24812:24821   */\n              not\n                /* \"#utility.yul\":24805:24810   */\n              dup5\n                /* \"#utility.yul\":24801:24822   */\n              and\n                /* \"#utility.yul\":24792:24822   */\n              swap4\n              pop\n                /* \"#utility.yul\":24865:24869   */\n              dup1\n                /* \"#utility.yul\":24855:24863   */\n              dup7\n                /* \"#utility.yul\":24851:24870   */\n              and\n                /* \"#utility.yul\":24844:24849   */\n              dup5\n                /* \"#utility.yul\":24841:24871   */\n              or\n                /* \"#utility.yul\":24831:24871   */\n              swap3\n              pop\n                /* \"#utility.yul\":24560:24877   */\n              pop\n              pop\n                /* \"#utility.yul\":24484:24877   */\n              swap4\n              swap3\n              pop\n              pop\n              pop\n              jump\t// out\n                /* \"#utility.yul\":24883:24943   */\n            tag_449:\n                /* \"#utility.yul\":24911:24914   */\n              0x00\n                /* \"#utility.yul\":24932:24937   */\n              dup2\n                /* \"#utility.yul\":24925:24937   */\n              swap1\n              pop\n                /* \"#utility.yul\":24883:24943   */\n              swap2\n              swap1\n              pop\n              jump\t// out\n                /* \"#utility.yul\":24949:25091   */\n            tag_450:\n                /* \"#utility.yul\":24999:25008   */\n              0x00\n                /* \"#utility.yul\":25032:25085   */\n              tag_711\n                /* \"#utility.yul\":25050:25084   */\n              tag_712\n                /* \"#utility.yul\":25059:25083   */\n              tag_713\n                /* \"#utility.yul\":25077:25082   */\n              dup5\n                /* \"#utility.yul\":25059:25083   */\n              tag_395\n              jump\t// in\n            tag_713:\n                /* \"#utility.yul\":25050:25084   */\n              tag_449\n              jump\t// in\n            tag_712:\n                /* \"#utility.yul\":25032:25085   */\n              tag_395\n              jump\t// in\n            tag_711:\n                /* \"#utility.yul\":25019:25085   */\n              swap1\n              pop\n                /* \"#utility.yul\":24949:25091   */\n              swap2\n              swap1\n              pop\n              jump\t// out\n                /* \"#utility.yul\":25097:25172   */\n            tag_451:\n                /* \"#utility.yul\":25140:25143   */\n              0x00\n                /* \"#utility.yul\":25161:25166   */\n              dup2\n                /* \"#utility.yul\":25154:25166   */\n              swap1\n              pop\n                /* \"#utility.yul\":25097:25172   */\n              swap2\n              swap1\n              pop\n              jump\t// out\n                /* \"#utility.yul\":25178:25447   */\n            tag_452:\n                /* \"#utility.yul\":25288:25327   */\n              tag_716\n                /* \"#utility.yul\":25319:25326   */\n              dup4\n                /* \"#utility.yul\":25288:25327   */\n              tag_450\n              jump\t// in\n            tag_716:\n                /* \"#utility.yul\":25349:25440   */\n              tag_717\n                /* \"#utility.yul\":25398:25439   */\n              tag_718\n                /* \"#utility.yul\":25422:25438   */\n              dup3\n                /* \"#utility.yul\":25398:25439   */\n              tag_451\n              jump\t// in\n            tag_718:\n                /* \"#utility.yul\":25390:25396   */\n              dup5\n                /* \"#utility.yul\":25383:25387   */\n              dup5\n                /* \"#utility.yul\":25377:25388   */\n              sload\n                /* \"#utility.yul\":25349:25440   */\n              tag_448\n              jump\t// in\n            tag_717:\n                /* \"#utility.yul\":25343:25347   */\n              dup3\n                /* \"#utility.yul\":25336:25441   */\n              sstore\n                /* \"#utility.yul\":25254:25447   */\n              pop\n                /* \"#utility.yul\":25178:25447   */\n              pop\n              pop\n              pop\n              jump\t// out\n                /* \"#utility.yul\":25453:25526   */\n            tag_453:\n                /* \"#utility.yul\":25498:25501   */\n              0x00\n                /* \"#utility.yul\":25453:25526   */\n              swap1\n              jump\t// out\n                /* \"#utility.yul\":25532:25721   */\n            tag_454:\n                /* \"#utility.yul\":25609:25641   */\n              tag_721\n              tag_453\n              jump\t// in\n            tag_721:\n                /* \"#utility.yul\":25650:25715   */\n              tag_722\n                /* \"#utility.yul\":25708:25714   */\n              dup2\n                /* \"#utility.yul\":25700:25706   */\n              dup5\n                /* \"#utility.yul\":25694:25698   */\n              dup5\n                /* \"#utility.yul\":25650:25715   */\n              tag_452\n              jump\t// in\n            tag_722:\n                /* \"#utility.yul\":25585:25721   */\n              pop\n                /* \"#utility.yul\":25532:25721   */\n              pop\n              pop\n              jump\t// out\n                /* \"#utility.yul\":25727:25913   */\n            tag_455:\n                /* \"#utility.yul\":25787:25907   */\n            tag_724:\n                /* \"#utility.yul\":25804:25807   */\n              dup2\n                /* \"#utility.yul\":25797:25802   */\n              dup2\n                /* \"#utility.yul\":25794:25808   */\n              lt\n                /* \"#utility.yul\":25787:25907   */\n              iszero\n              tag_726\n              jumpi\n                /* \"#utility.yul\":25858:25897   */\n              tag_727\n                /* \"#utility.yul\":25895:25896   */\n              0x00\n                /* \"#utility.yul\":25888:25893   */\n              dup3\n                /* \"#utility.yul\":25858:25897   */\n              tag_454\n              jump\t// in\n            tag_727:\n                /* \"#utility.yul\":25831:25832   */\n              0x01\n                /* \"#utility.yul\":25824:25829   */\n              dup2\n                /* \"#utility.yul\":25820:25833   */\n              add\n                /* \"#utility.yul\":25811:25833   */\n              swap1\n              pop\n                /* \"#utility.yul\":25787:25907   */\n              jump(tag_724)\n            tag_726:\n                /* \"#utility.yul\":25727:25913   */\n              pop\n              pop\n              jump\t// out\n                /* \"#utility.yul\":25919:26462   */\n            tag_456:\n                /* \"#utility.yul\":26020:26022   */\n              0x1f\n                /* \"#utility.yul\":26015:26018   */\n              dup3\n                /* \"#utility.yul\":26012:26023   */\n              gt\n                /* \"#utility.yul\":26009:26455   */\n              iszero\n              tag_729\n              jumpi\n                /* \"#utility.yul\":26054:26092   */\n              tag_730\n                /* \"#utility.yul\":26086:26091   */\n              dup2\n                /* \"#utility.yul\":26054:26092   */\n              tag_445\n              jump\t// in\n            tag_730:\n                /* \"#utility.yul\":26138:26167   */\n              tag_731\n                /* \"#utility.yul\":26156:26166   */\n              dup5\n                /* \"#utility.yul\":26138:26167   */\n              tag_446\n              jump\t// in\n            tag_731:\n                /* \"#utility.yul\":26128:26136   */\n              dup2\n                /* \"#utility.yul\":26124:26168   */\n              add\n                /* \"#utility.yul\":26321:26323   */\n              0x20\n                /* \"#utility.yul\":26309:26319   */\n              dup6\n                /* \"#utility.yul\":26306:26324   */\n              lt\n                /* \"#utility.yul\":26303:26352   */\n              iszero\n              tag_732\n              jumpi\n                /* \"#utility.yul\":26342:26350   */\n              dup2\n                /* \"#utility.yul\":26327:26350   */\n              swap1\n              pop\n                /* \"#utility.yul\":26303:26352   */\n            tag_732:\n                /* \"#utility.yul\":26365:26445   */\n              tag_733\n                /* \"#utility.yul\":26421:26443   */\n              tag_734\n                /* \"#utility.yul\":26439:26442   */\n              dup6\n                /* \"#utility.yul\":26421:26443   */\n              tag_446\n              jump\t// in\n            tag_734:\n                /* \"#utility.yul\":26411:26419   */\n              dup4\n                /* \"#utility.yul\":26407:26444   */\n              add\n                /* \"#utility.yul\":26394:26405   */\n              dup3\n                /* \"#utility.yul\":26365:26445   */\n              tag_455\n              jump\t// in\n            tag_733:\n                /* \"#utility.yul\":26024:26455   */\n              pop\n              pop\n                /* \"#utility.yul\":26009:26455   */\n            tag_729:\n                /* \"#utility.yul\":25919:26462   */\n              pop\n              pop\n              pop\n              jump\t// out\n                /* \"#utility.yul\":26468:26585   */\n            tag_457:\n                /* \"#utility.yul\":26522:26530   */\n              0x00\n                /* \"#utility.yul\":26572:26577   */\n              dup3\n                /* \"#utility.yul\":26566:26570   */\n              dup3\n                /* \"#utility.yul\":26562:26578   */\n              shr\n                /* \"#utility.yul\":26541:26578   */\n              swap1\n              pop\n                /* \"#utility.yul\":26468:26585   */\n              swap3\n              swap2\n              pop\n              pop\n              jump\t// out\n                /* \"#utility.yul\":26591:26760   */\n            tag_458:\n                /* \"#utility.yul\":26635:26641   */\n              0x00\n                /* \"#utility.yul\":26668:26719   */\n              tag_737\n                /* \"#utility.yul\":26716:26717   */\n              0x00\n                /* \"#utility.yul\":26712:26718   */\n              not\n                /* \"#utility.yul\":26704:26709   */\n              dup5\n                /* \"#utility.yul\":26701:26702   */\n              0x08\n                /* \"#utility.yul\":26697:26710   */\n              mul\n                /* \"#utility.yul\":26668:26719   */\n              tag_457\n              jump\t// in\n            tag_737:\n                /* \"#utility.yul\":26664:26720   */\n              not\n                /* \"#utility.yul\":26749:26753   */\n              dup1\n                /* \"#utility.yul\":26743:26747   */\n              dup4\n                /* \"#utility.yul\":26739:26754   */\n              and\n                /* \"#utility.yul\":26729:26754   */\n              swap2\n              pop\n                /* \"#utility.yul\":26642:26760   */\n              pop\n                /* \"#utility.yul\":26591:26760   */\n              swap3\n              swap2\n              pop\n              pop\n              jump\t// out\n                /* \"#utility.yul\":26765:27060   */\n            tag_459:\n                /* \"#utility.yul\":26841:26845   */\n              0x00\n                /* \"#utility.yul\":26987:27016   */\n              tag_739\n                /* \"#utility.yul\":27012:27015   */\n              dup4\n                /* \"#utility.yul\":27006:27010   */\n              dup4\n                /* \"#utility.yul\":26987:27016   */\n              tag_458\n              jump\t// in\n            tag_739:\n                /* \"#utility.yul\":26979:27016   */\n              swap2\n              pop\n                /* \"#utility.yul\":27049:27052   */\n              dup3\n                /* \"#utility.yul\":27046:27047   */\n              0x02\n                /* \"#utility.yul\":27042:27053   */\n              mul\n                /* \"#utility.yul\":27036:27040   */\n              dup3\n                /* \"#utility.yul\":27033:27054   */\n              or\n                /* \"#utility.yul\":27025:27054   */\n              swap1\n              pop\n                /* \"#utility.yul\":26765:27060   */\n              swap3\n              swap2\n              pop\n              pop\n              jump\t// out\n                /* \"#utility.yul\":27065:28460   */\n            tag_255:\n                /* \"#utility.yul\":27182:27219   */\n              tag_741\n                /* \"#utility.yul\":27215:27218   */\n              dup3\n                /* \"#utility.yul\":27182:27219   */\n              tag_398\n              jump\t// in\n            tag_741:\n                /* \"#utility.yul\":27284:27302   */\n              0xffffffffffffffff\n                /* \"#utility.yul\":27276:27282   */\n              dup2\n                /* \"#utility.yul\":27273:27303   */\n              gt\n                /* \"#utility.yul\":27270:27326   */\n              iszero\n              tag_742\n              jumpi\n                /* \"#utility.yul\":27306:27324   */\n              tag_743\n              tag_407\n              jump\t// in\n            tag_743:\n                /* \"#utility.yul\":27270:27326   */\n            tag_742:\n                /* \"#utility.yul\":27350:27388   */\n              tag_744\n                /* \"#utility.yul\":27382:27386   */\n              dup3\n                /* \"#utility.yul\":27376:27387   */\n              sload\n                /* \"#utility.yul\":27350:27388   */\n              tag_236\n              jump\t// in\n            tag_744:\n                /* \"#utility.yul\":27435:27502   */\n              tag_745\n                /* \"#utility.yul\":27495:27501   */\n              dup3\n                /* \"#utility.yul\":27487:27493   */\n              dup3\n                /* \"#utility.yul\":27481:27485   */\n              dup6\n                /* \"#utility.yul\":27435:27502   */\n              tag_456\n              jump\t// in\n            tag_745:\n                /* \"#utility.yul\":27529:27530   */\n              0x00\n                /* \"#utility.yul\":27553:27557   */\n              0x20\n                /* \"#utility.yul\":27540:27557   */\n              swap1\n              pop\n                /* \"#utility.yul\":27585:27587   */\n              0x1f\n                /* \"#utility.yul\":27577:27583   */\n              dup4\n                /* \"#utility.yul\":27574:27588   */\n              gt\n                /* \"#utility.yul\":27602:27603   */\n              0x01\n                /* \"#utility.yul\":27597:28215   */\n              dup2\n              eq\n              tag_747\n              jumpi\n                /* \"#utility.yul\":28259:28260   */\n              0x00\n                /* \"#utility.yul\":28276:28282   */\n              dup5\n                /* \"#utility.yul\":28273:28350   */\n              iszero\n              tag_748\n              jumpi\n                /* \"#utility.yul\":28325:28334   */\n              dup3\n                /* \"#utility.yul\":28320:28323   */\n              dup8\n                /* \"#utility.yul\":28316:28335   */\n              add\n                /* \"#utility.yul\":28310:28336   */\n              mload\n                /* \"#utility.yul\":28301:28336   */\n              swap1\n              pop\n                /* \"#utility.yul\":28273:28350   */\n            tag_748:\n                /* \"#utility.yul\":28376:28443   */\n              tag_749\n                /* \"#utility.yul\":28436:28442   */\n              dup6\n                /* \"#utility.yul\":28429:28434   */\n              dup3\n                /* \"#utility.yul\":28376:28443   */\n              tag_459\n              jump\t// in\n            tag_749:\n                /* \"#utility.yul\":28370:28374   */\n              dup7\n                /* \"#utility.yul\":28363:28444   */\n              sstore\n                /* \"#utility.yul\":28232:28454   */\n              pop\n                /* \"#utility.yul\":27567:28454   */\n              jump(tag_746)\n                /* \"#utility.yul\":27597:28215   */\n            tag_747:\n                /* \"#utility.yul\":27649:27653   */\n              0x1f\n                /* \"#utility.yul\":27645:27654   */\n              not\n                /* \"#utility.yul\":27637:27643   */\n              dup5\n                /* \"#utility.yul\":27633:27655   */\n              and\n                /* \"#utility.yul\":27683:27720   */\n              tag_750\n                /* \"#utility.yul\":27715:27719   */\n              dup7\n                /* \"#utility.yul\":27683:27720   */\n              tag_445\n              jump\t// in\n            tag_750:\n                /* \"#utility.yul\":27742:27743   */\n              0x00\n                /* \"#utility.yul\":27756:27964   */\n            tag_751:\n                /* \"#utility.yul\":27770:27777   */\n              dup3\n                /* \"#utility.yul\":27767:27768   */\n              dup2\n                /* \"#utility.yul\":27764:27778   */\n              lt\n                /* \"#utility.yul\":27756:27964   */\n              iszero\n              tag_753\n              jumpi\n                /* \"#utility.yul\":27849:27858   */\n              dup5\n                /* \"#utility.yul\":27844:27847   */\n              dup10\n                /* \"#utility.yul\":27840:27859   */\n              add\n                /* \"#utility.yul\":27834:27860   */\n              mload\n                /* \"#utility.yul\":27826:27832   */\n              dup3\n                /* \"#utility.yul\":27819:27861   */\n              sstore\n                /* \"#utility.yul\":27900:27901   */\n              0x01\n                /* \"#utility.yul\":27892:27898   */\n              dup3\n                /* \"#utility.yul\":27888:27902   */\n              add\n                /* \"#utility.yul\":27878:27902   */\n              swap2\n              pop\n                /* \"#utility.yul\":27947:27949   */\n              0x20\n                /* \"#utility.yul\":27936:27945   */\n              dup6\n                /* \"#utility.yul\":27932:27950   */\n              add\n                /* \"#utility.yul\":27919:27950   */\n              swap5\n              pop\n                /* \"#utility.yul\":27793:27797   */\n              0x20\n                /* \"#utility.yul\":27790:27791   */\n              dup2\n                /* \"#utility.yul\":27786:27798   */\n              add\n                /* \"#utility.yul\":27781:27798   */\n              swap1\n              pop\n                /* \"#utility.yul\":27756:27964   */\n              jump(tag_751)\n            tag_753:\n                /* \"#utility.yul\":27992:27998   */\n              dup7\n                /* \"#utility.yul\":27983:27990   */\n              dup4\n                /* \"#utility.yul\":27980:27999   */\n              lt\n                /* \"#utility.yul\":27977:28156   */\n              iszero\n              tag_754\n              jumpi\n                /* \"#utility.yul\":28050:28059   */\n              dup5\n                /* \"#utility.yul\":28045:28048   */\n              dup10\n                /* \"#utility.yul\":28041:28060   */\n              add\n                /* \"#utility.yul\":28035:28061   */\n              mload\n                /* \"#utility.yul\":28093:28141   */\n              tag_755\n                /* \"#utility.yul\":28135:28139   */\n              0x1f\n                /* \"#utility.yul\":28127:28133   */\n              dup10\n                /* \"#utility.yul\":28123:28140   */\n              and\n                /* \"#utility.yul\":28112:28121   */\n              dup3\n                /* \"#utility.yul\":28093:28141   */\n              tag_458\n              jump\t// in\n            tag_755:\n                /* \"#utility.yul\":28085:28091   */\n              dup4\n                /* \"#utility.yul\":28078:28142   */\n              sstore\n                /* \"#utility.yul\":28000:28156   */\n              pop\n                /* \"#utility.yul\":27977:28156   */\n            tag_754:\n                /* \"#utility.yul\":28202:28203   */\n              0x01\n                /* \"#utility.yul\":28198:28199   */\n              0x02\n                /* \"#utility.yul\":28190:28196   */\n              dup9\n                /* \"#utility.yul\":28186:28200   */\n              mul\n                /* \"#utility.yul\":28182:28204   */\n              add\n                /* \"#utility.yul\":28176:28180   */\n              dup9\n                /* \"#utility.yul\":28169:28205   */\n              sstore\n                /* \"#utility.yul\":27604:28215   */\n              pop\n              pop\n              pop\n                /* \"#utility.yul\":27567:28454   */\n            tag_746:\n              pop\n                /* \"#utility.yul\":27157:28460   */\n              pop\n              pop\n              pop\n                /* \"#utility.yul\":27065:28460   */\n              pop\n              pop\n              jump\t// out\n                /* \"#utility.yul\":28466:28889   */\n            tag_257:\n                /* \"#utility.yul\":28607:28611   */\n              0x00\n                /* \"#utility.yul\":28645:28647   */\n              0x40\n                /* \"#utility.yul\":28634:28643   */\n              dup3\n                /* \"#utility.yul\":28630:28648   */\n              add\n                /* \"#utility.yul\":28622:28648   */\n              swap1\n              pop\n                /* \"#utility.yul\":28694:28703   */\n              dup2\n                /* \"#utility.yul\":28688:28692   */\n              dup2\n                /* \"#utility.yul\":28684:28704   */\n              sub\n                /* \"#utility.yul\":28680:28681   */\n              0x00\n                /* \"#utility.yul\":28669:28678   */\n              dup4\n                /* \"#utility.yul\":28665:28682   */\n              add\n                /* \"#utility.yul\":28658:28705   */\n              mstore\n                /* \"#utility.yul\":28722:28800   */\n              tag_757\n                /* \"#utility.yul\":28795:28799   */\n              dup2\n                /* \"#utility.yul\":28786:28792   */\n              dup6\n                /* \"#utility.yul\":28722:28800   */\n              tag_402\n              jump\t// in\n            tag_757:\n                /* \"#utility.yul\":28714:28800   */\n              swap1\n              pop\n                /* \"#utility.yul\":28810:28882   */\n              tag_758\n                /* \"#utility.yul\":28878:28880   */\n              0x20\n                /* \"#utility.yul\":28867:28876   */\n              dup4\n                /* \"#utility.yul\":28863:28881   */\n              add\n                /* \"#utility.yul\":28854:28860   */\n              dup5\n                /* \"#utility.yul\":28810:28882   */\n              tag_418\n              jump\t// in\n            tag_758:\n                /* \"#utility.yul\":28466:28889   */\n              swap4\n              swap3\n              pop\n              pop\n              pop\n              jump\t// out\n                /* \"#utility.yul\":28895:29125   */\n            tag_460:\n                /* \"#utility.yul\":29035:29069   */\n              0x4e6f2073652070756564656e2061677265676172206e7565766f732061646d69\n                /* \"#utility.yul\":29031:29032   */\n              0x00\n                /* \"#utility.yul\":29023:29029   */\n              dup3\n                /* \"#utility.yul\":29019:29033   */\n              add\n                /* \"#utility.yul\":29012:29070   */\n              mstore\n                /* \"#utility.yul\":29104:29117   */\n              0x6e6973747261646f726573000000000000000000000000000000000000000000\n                /* \"#utility.yul\":29099:29101   */\n              0x20\n                /* \"#utility.yul\":29091:29097   */\n              dup3\n                /* \"#utility.yul\":29087:29102   */\n              add\n                /* \"#utility.yul\":29080:29118   */\n              mstore\n                /* \"#utility.yul\":28895:29125   */\n              pop\n              jump\t// out\n                /* \"#utility.yul\":29131:29497   */\n            tag_461:\n                /* \"#utility.yul\":29273:29276   */\n              0x00\n                /* \"#utility.yul\":29294:29361   */\n              tag_761\n                /* \"#utility.yul\":29358:29360   */\n              0x2b\n                /* \"#utility.yul\":29353:29356   */\n              dup4\n                /* \"#utility.yul\":29294:29361   */\n              tag_399\n              jump\t// in\n            tag_761:\n                /* \"#utility.yul\":29287:29361   */\n              swap2\n              pop\n                /* \"#utility.yul\":29370:29463   */\n              tag_762\n                /* \"#utility.yul\":29459:29462   */\n              dup3\n                /* \"#utility.yul\":29370:29463   */\n              tag_460\n              jump\t// in\n            tag_762:\n                /* \"#utility.yul\":29488:29490   */\n              0x40\n                /* \"#utility.yul\":29483:29486   */\n              dup3\n                /* \"#utility.yul\":29479:29491   */\n              add\n                /* \"#utility.yul\":29472:29491   */\n              swap1\n              pop\n                /* \"#utility.yul\":29131:29497   */\n              swap2\n              swap1\n              pop\n              jump\t// out\n                /* \"#utility.yul\":29503:29922   */\n            tag_261:\n                /* \"#utility.yul\":29669:29673   */\n              0x00\n                /* \"#utility.yul\":29707:29709   */\n              0x20\n                /* \"#utility.yul\":29696:29705   */\n              dup3\n                /* \"#utility.yul\":29692:29710   */\n              add\n                /* \"#utility.yul\":29684:29710   */\n              swap1\n              pop\n                /* \"#utility.yul\":29756:29765   */\n              dup2\n                /* \"#utility.yul\":29750:29754   */\n              dup2\n                /* \"#utility.yul\":29746:29766   */\n              sub\n                /* \"#utility.yul\":29742:29743   */\n              0x00\n                /* \"#utility.yul\":29731:29740   */\n              dup4\n                /* \"#utility.yul\":29727:29744   */\n              add\n                /* \"#utility.yul\":29720:29767   */\n              mstore\n                /* \"#utility.yul\":29784:29915   */\n              tag_764\n                /* \"#utility.yul\":29910:29914   */\n              dup2\n                /* \"#utility.yul\":29784:29915   */\n              tag_461\n              jump\t// in\n            tag_764:\n                /* \"#utility.yul\":29776:29915   */\n              swap1\n              pop\n                /* \"#utility.yul\":29503:29922   */\n              swap2\n              swap1\n              pop\n              jump\t// out\n                /* \"#utility.yul\":29928:30154   */\n            tag_462:\n                /* \"#utility.yul\":30068:30102   */\n              0x536f6c6f206c6f732061646d696e6973747261646f7265732070756564656e20\n                /* \"#utility.yul\":30064:30065   */\n              0x00\n                /* \"#utility.yul\":30056:30062   */\n              dup3\n                /* \"#utility.yul\":30052:30066   */\n              add\n                /* \"#utility.yul\":30045:30103   */\n              mstore\n                /* \"#utility.yul\":30137:30146   */\n              0x6163636564657200000000000000000000000000000000000000000000000000\n                /* \"#utility.yul\":30132:30134   */\n              0x20\n                /* \"#utility.yul\":30124:30130   */\n              dup3\n                /* \"#utility.yul\":30120:30135   */\n              add\n                /* \"#utility.yul\":30113:30147   */\n              mstore\n                /* \"#utility.yul\":29928:30154   */\n              pop\n              jump\t// out\n                /* \"#utility.yul\":30160:30526   */\n            tag_463:\n                /* \"#utility.yul\":30302:30305   */\n              0x00\n                /* \"#utility.yul\":30323:30390   */\n              tag_767\n                /* \"#utility.yul\":30387:30389   */\n              0x27\n                /* \"#utility.yul\":30382:30385   */\n              dup4\n                /* \"#utility.yul\":30323:30390   */\n              tag_399\n              jump\t// in\n            tag_767:\n                /* \"#utility.yul\":30316:30390   */\n              swap2\n              pop\n                /* \"#utility.yul\":30399:30492   */\n              tag_768\n                /* \"#utility.yul\":30488:30491   */\n              dup3\n                /* \"#utility.yul\":30399:30492   */\n              tag_462\n              jump\t// in\n            tag_768:\n                /* \"#utility.yul\":30517:30519   */\n              0x40\n                /* \"#utility.yul\":30512:30515   */\n              dup3\n                /* \"#utility.yul\":30508:30520   */\n              add\n                /* \"#utility.yul\":30501:30520   */\n              swap1\n              pop\n                /* \"#utility.yul\":30160:30526   */\n              swap2\n              swap1\n              pop\n              jump\t// out\n                /* \"#utility.yul\":30532:30951   */\n            tag_264:\n                /* \"#utility.yul\":30698:30702   */\n              0x00\n                /* \"#utility.yul\":30736:30738   */\n              0x20\n                /* \"#utility.yul\":30725:30734   */\n              dup3\n                /* \"#utility.yul\":30721:30739   */\n              add\n                /* \"#utility.yul\":30713:30739   */\n              swap1\n              pop\n                /* \"#utility.yul\":30785:30794   */\n              dup2\n                /* \"#utility.yul\":30779:30783   */\n              dup2\n                /* \"#utility.yul\":30775:30795   */\n              sub\n                /* \"#utility.yul\":30771:30772   */\n              0x00\n                /* \"#utility.yul\":30760:30769   */\n              dup4\n                /* \"#utility.yul\":30756:30773   */\n              add\n                /* \"#utility.yul\":30749:30796   */\n              mstore\n                /* \"#utility.yul\":30813:30944   */\n              tag_770\n                /* \"#utility.yul\":30939:30943   */\n              dup2\n                /* \"#utility.yul\":30813:30944   */\n              tag_463\n              jump\t// in\n            tag_770:\n                /* \"#utility.yul\":30805:30944   */\n              swap1\n              pop\n                /* \"#utility.yul\":30532:30951   */\n              swap2\n              swap1\n              pop\n              jump\t// out\n                /* \"#utility.yul\":30957:31216   */\n            tag_464:\n                /* \"#utility.yul\":31097:31163   */\n              0x5469656e65732071756520656e7669617220756e61206f206dc3a17320646972\n                /* \"#utility.yul\":31093:31094   */\n              0x00\n                /* \"#utility.yul\":31085:31091   */\n              dup3\n                /* \"#utility.yul\":31081:31095   */\n              add\n                /* \"#utility.yul\":31074:31164   */\n              mstore\n                /* \"#utility.yul\":31198:31208   */\n              0x656363696f6e6573000000000000000000000000000000000000000000000000\n                /* \"#utility.yul\":31193:31195   */\n              0x20\n                /* \"#utility.yul\":31185:31191   */\n              dup3\n                /* \"#utility.yul\":31181:31196   */\n              add\n                /* \"#utility.yul\":31174:31209   */\n              mstore\n                /* \"#utility.yul\":30957:31216   */\n              pop\n              jump\t// out\n                /* \"#utility.yul\":31222:31588   */\n            tag_465:\n                /* \"#utility.yul\":31364:31367   */\n              0x00\n                /* \"#utility.yul\":31385:31452   */\n              tag_773\n                /* \"#utility.yul\":31449:31451   */\n              0x28\n                /* \"#utility.yul\":31444:31447   */\n              dup4\n                /* \"#utility.yul\":31385:31452   */\n              tag_399\n              jump\t// in\n            tag_773:\n                /* \"#utility.yul\":31378:31452   */\n              swap2\n              pop\n                /* \"#utility.yul\":31461:31554   */\n              tag_774\n                /* \"#utility.yul\":31550:31553   */\n              dup3\n                /* \"#utility.yul\":31461:31554   */\n              tag_464\n              jump\t// in\n            tag_774:\n                /* \"#utility.yul\":31579:31581   */\n              0x40\n                /* \"#utility.yul\":31574:31577   */\n              dup3\n                /* \"#utility.yul\":31570:31582   */\n              add\n                /* \"#utility.yul\":31563:31582   */\n              swap1\n              pop\n                /* \"#utility.yul\":31222:31588   */\n              swap2\n              swap1\n              pop\n              jump\t// out\n                /* \"#utility.yul\":31594:32013   */\n            tag_267:\n                /* \"#utility.yul\":31760:31764   */\n              0x00\n                /* \"#utility.yul\":31798:31800   */\n              0x20\n                /* \"#utility.yul\":31787:31796   */\n              dup3\n                /* \"#utility.yul\":31783:31801   */\n              add\n                /* \"#utility.yul\":31775:31801   */\n              swap1\n              pop\n                /* \"#utility.yul\":31847:31856   */\n              dup2\n                /* \"#utility.yul\":31841:31845   */\n              dup2\n                /* \"#utility.yul\":31837:31857   */\n              sub\n                /* \"#utility.yul\":31833:31834   */\n              0x00\n                /* \"#utility.yul\":31822:31831   */\n              dup4\n                /* \"#utility.yul\":31818:31835   */\n              add\n                /* \"#utility.yul\":31811:31858   */\n              mstore\n                /* \"#utility.yul\":31875:32006   */\n              tag_776\n                /* \"#utility.yul\":32001:32005   */\n              dup2\n                /* \"#utility.yul\":31875:32006   */\n              tag_465\n              jump\t// in\n            tag_776:\n                /* \"#utility.yul\":31867:32006   */\n              swap1\n              pop\n                /* \"#utility.yul\":31594:32013   */\n              swap2\n              swap1\n              pop\n              jump\t// out\n                /* \"#utility.yul\":32019:32308   */\n            tag_466:\n                /* \"#utility.yul\":32159:32193   */\n              0x4c6f732061646d696e6973747261646f726573206e6f2070756564656e207472\n                /* \"#utility.yul\":32155:32156   */\n              0x00\n                /* \"#utility.yul\":32147:32153   */\n              dup3\n                /* \"#utility.yul\":32143:32157   */\n              add\n                /* \"#utility.yul\":32136:32194   */\n              mstore\n                /* \"#utility.yul\":32228:32262   */\n              0x616e7366657269722064696e65726f2073696e20756e6120736f6c6963697475\n                /* \"#utility.yul\":32223:32225   */\n              0x20\n                /* \"#utility.yul\":32215:32221   */\n              dup3\n                /* \"#utility.yul\":32211:32226   */\n              add\n                /* \"#utility.yul\":32204:32263   */\n              mstore\n                /* \"#utility.yul\":32297:32300   */\n              0x6400000000000000000000000000000000000000000000000000000000000000\n                /* \"#utility.yul\":32292:32294   */\n              0x40\n                /* \"#utility.yul\":32284:32290   */\n              dup3\n                /* \"#utility.yul\":32280:32295   */\n              add\n                /* \"#utility.yul\":32273:32301   */\n              mstore\n                /* \"#utility.yul\":32019:32308   */\n              pop\n              jump\t// out\n                /* \"#utility.yul\":32314:32680   */\n            tag_467:\n                /* \"#utility.yul\":32456:32459   */\n              0x00\n                /* \"#utility.yul\":32477:32544   */\n              tag_779\n                /* \"#utility.yul\":32541:32543   */\n              0x41\n                /* \"#utility.yul\":32536:32539   */\n              dup4\n                /* \"#utility.yul\":32477:32544   */\n              tag_399\n              jump\t// in\n            tag_779:\n                /* \"#utility.yul\":32470:32544   */\n              swap2\n              pop\n                /* \"#utility.yul\":32553:32646   */\n              tag_780\n                /* \"#utility.yul\":32642:32645   */\n              dup3\n                /* \"#utility.yul\":32553:32646   */\n              tag_466\n              jump\t// in\n            tag_780:\n                /* \"#utility.yul\":32671:32673   */\n              0x60\n                /* \"#utility.yul\":32666:32669   */\n              dup3\n                /* \"#utility.yul\":32662:32674   */\n              add\n                /* \"#utility.yul\":32655:32674   */\n              swap1\n              pop\n                /* \"#utility.yul\":32314:32680   */\n              swap2\n              swap1\n              pop\n              jump\t// out\n                /* \"#utility.yul\":32686:33105   */\n            tag_311:\n                /* \"#utility.yul\":32852:32856   */\n              0x00\n                /* \"#utility.yul\":32890:32892   */\n              0x20\n                /* \"#utility.yul\":32879:32888   */\n              dup3\n                /* \"#utility.yul\":32875:32893   */\n              add\n                /* \"#utility.yul\":32867:32893   */\n              swap1\n              pop\n                /* \"#utility.yul\":32939:32948   */\n              dup2\n                /* \"#utility.yul\":32933:32937   */\n              dup2\n                /* \"#utility.yul\":32929:32949   */\n              sub\n                /* \"#utility.yul\":32925:32926   */\n              0x00\n                /* \"#utility.yul\":32914:32923   */\n              dup4\n                /* \"#utility.yul\":32910:32927   */\n              add\n                /* \"#utility.yul\":32903:32950   */\n              mstore\n                /* \"#utility.yul\":32967:33098   */\n              tag_782\n                /* \"#utility.yul\":33093:33097   */\n              dup2\n                /* \"#utility.yul\":32967:33098   */\n              tag_467\n              jump\t// in\n            tag_782:\n                /* \"#utility.yul\":32959:33098   */\n              swap1\n              pop\n                /* \"#utility.yul\":32686:33105   */\n              swap2\n              swap1\n              pop\n              jump\t// out\n                /* \"#utility.yul\":33111:33291   */\n            tag_468:\n                /* \"#utility.yul\":33251:33283   */\n              0x596120686173206170726f6261646f206573746120736f6c6963697475640000\n                /* \"#utility.yul\":33247:33248   */\n              0x00\n                /* \"#utility.yul\":33239:33245   */\n              dup3\n                /* \"#utility.yul\":33235:33249   */\n              add\n                /* \"#utility.yul\":33228:33284   */\n              mstore\n                /* \"#utility.yul\":33111:33291   */\n              pop\n              jump\t// out\n                /* \"#utility.yul\":33297:33663   */\n            tag_469:\n                /* \"#utility.yul\":33439:33442   */\n              0x00\n                /* \"#utility.yul\":33460:33527   */\n              tag_785\n                /* \"#utility.yul\":33524:33526   */\n              0x1e\n                /* \"#utility.yul\":33519:33522   */\n              dup4\n                /* \"#utility.yul\":33460:33527   */\n              tag_399\n              jump\t// in\n            tag_785:\n                /* \"#utility.yul\":33453:33527   */\n              swap2\n              pop\n                /* \"#utility.yul\":33536:33629   */\n              tag_786\n                /* \"#utility.yul\":33625:33628   */\n              dup3\n                /* \"#utility.yul\":33536:33629   */\n              tag_468\n              jump\t// in\n            tag_786:\n                /* \"#utility.yul\":33654:33656   */\n              0x20\n                /* \"#utility.yul\":33649:33652   */\n              dup3\n                /* \"#utility.yul\":33645:33657   */\n              add\n                /* \"#utility.yul\":33638:33657   */\n              swap1\n              pop\n                /* \"#utility.yul\":33297:33663   */\n              swap2\n              swap1\n              pop\n              jump\t// out\n                /* \"#utility.yul\":33669:34088   */\n            tag_331:\n                /* \"#utility.yul\":33835:33839   */\n              0x00\n                /* \"#utility.yul\":33873:33875   */\n              0x20\n                /* \"#utility.yul\":33862:33871   */\n              dup3\n                /* \"#utility.yul\":33858:33876   */\n              add\n                /* \"#utility.yul\":33850:33876   */\n              swap1\n              pop\n                /* \"#utility.yul\":33922:33931   */\n              dup2\n                /* \"#utility.yul\":33916:33920   */\n              dup2\n                /* \"#utility.yul\":33912:33932   */\n              sub\n                /* \"#utility.yul\":33908:33909   */\n              0x00\n                /* \"#utility.yul\":33897:33906   */\n              dup4\n                /* \"#utility.yul\":33893:33910   */\n              add\n                /* \"#utility.yul\":33886:33933   */\n              mstore\n                /* \"#utility.yul\":33950:34081   */\n              tag_788\n                /* \"#utility.yul\":34076:34080   */\n              dup2\n                /* \"#utility.yul\":33950:34081   */\n              tag_469\n              jump\t// in\n            tag_788:\n                /* \"#utility.yul\":33942:34081   */\n              swap1\n              pop\n                /* \"#utility.yul\":33669:34088   */\n              swap2\n              swap1\n              pop\n              jump\t// out\n                /* \"#utility.yul\":34094:34458   */\n            tag_470:\n                /* \"#utility.yul\":34234:34300   */\n              0x4e6f20616c63616e7a617320656c20706f7263656e74616a65206dc3ad6e696d\n                /* \"#utility.yul\":34230:34231   */\n              0x00\n                /* \"#utility.yul\":34222:34228   */\n              dup3\n                /* \"#utility.yul\":34218:34232   */\n              add\n                /* \"#utility.yul\":34211:34301   */\n              mstore\n                /* \"#utility.yul\":34335:34401   */\n              0x6f20646520636f6e74726962756369c3b36e20792f6f206e6f20657265732061\n                /* \"#utility.yul\":34330:34332   */\n              0x20\n                /* \"#utility.yul\":34322:34328   */\n              dup3\n                /* \"#utility.yul\":34318:34333   */\n              add\n                /* \"#utility.yul\":34311:34402   */\n              mstore\n                /* \"#utility.yul\":34436:34450   */\n              0x646d696e6973747261646f720000000000000000000000000000000000000000\n                /* \"#utility.yul\":34431:34433   */\n              0x40\n                /* \"#utility.yul\":34423:34429   */\n              dup3\n                /* \"#utility.yul\":34419:34434   */\n              add\n                /* \"#utility.yul\":34412:34451   */\n              mstore\n                /* \"#utility.yul\":34094:34458   */\n              pop\n              jump\t// out\n                /* \"#utility.yul\":34464:34830   */\n            tag_471:\n                /* \"#utility.yul\":34606:34609   */\n              0x00\n                /* \"#utility.yul\":34627:34694   */\n              tag_791\n                /* \"#utility.yul\":34691:34693   */\n              0x4c\n                /* \"#utility.yul\":34686:34689   */\n              dup4\n                /* \"#utility.yul\":34627:34694   */\n              tag_399\n              jump\t// in\n            tag_791:\n                /* \"#utility.yul\":34620:34694   */\n              swap2\n              pop\n                /* \"#utility.yul\":34703:34796   */\n              tag_792\n                /* \"#utility.yul\":34792:34795   */\n              dup3\n                /* \"#utility.yul\":34703:34796   */\n              tag_470\n              jump\t// in\n            tag_792:\n                /* \"#utility.yul\":34821:34823   */\n              0x60\n                /* \"#utility.yul\":34816:34819   */\n              dup3\n                /* \"#utility.yul\":34812:34824   */\n              add\n                /* \"#utility.yul\":34805:34824   */\n              swap1\n              pop\n                /* \"#utility.yul\":34464:34830   */\n              swap2\n              swap1\n              pop\n              jump\t// out\n                /* \"#utility.yul\":34836:35255   */\n            tag_340:\n                /* \"#utility.yul\":35002:35006   */\n              0x00\n                /* \"#utility.yul\":35040:35042   */\n              0x20\n                /* \"#utility.yul\":35029:35038   */\n              dup3\n                /* \"#utility.yul\":35025:35043   */\n              add\n                /* \"#utility.yul\":35017:35043   */\n              swap1\n              pop\n                /* \"#utility.yul\":35089:35098   */\n              dup2\n                /* \"#utility.yul\":35083:35087   */\n              dup2\n                /* \"#utility.yul\":35079:35099   */\n              sub\n                /* \"#utility.yul\":35075:35076   */\n              0x00\n                /* \"#utility.yul\":35064:35073   */\n              dup4\n                /* \"#utility.yul\":35060:35077   */\n              add\n                /* \"#utility.yul\":35053:35100   */\n              mstore\n                /* \"#utility.yul\":35117:35248   */\n              tag_794\n                /* \"#utility.yul\":35243:35247   */\n              dup2\n                /* \"#utility.yul\":35117:35248   */\n              tag_471\n              jump\t// in\n            tag_794:\n                /* \"#utility.yul\":35109:35248   */\n              swap1\n              pop\n                /* \"#utility.yul\":34836:35255   */\n              swap2\n              swap1\n              pop\n              jump\t// out\n                /* \"#utility.yul\":35261:35492   */\n            tag_472:\n                /* \"#utility.yul\":35401:35435   */\n              0x4c6f732061646d696e6973747261646f726573206e6f2070756564656e207365\n                /* \"#utility.yul\":35397:35398   */\n              0x00\n                /* \"#utility.yul\":35389:35395   */\n              dup3\n                /* \"#utility.yul\":35385:35399   */\n              add\n                /* \"#utility.yul\":35378:35436   */\n              mstore\n                /* \"#utility.yul\":35470:35484   */\n              0x7220656c696d696e61646f730000000000000000000000000000000000000000\n                /* \"#utility.yul\":35465:35467   */\n              0x20\n                /* \"#utility.yul\":35457:35463   */\n              dup3\n                /* \"#utility.yul\":35453:35468   */\n              add\n                /* \"#utility.yul\":35446:35485   */\n              mstore\n                /* \"#utility.yul\":35261:35492   */\n              pop\n              jump\t// out\n                /* \"#utility.yul\":35498:35864   */\n            tag_473:\n                /* \"#utility.yul\":35640:35643   */\n              0x00\n                /* \"#utility.yul\":35661:35728   */\n              tag_797\n                /* \"#utility.yul\":35725:35727   */\n              0x2c\n                /* \"#utility.yul\":35720:35723   */\n              dup4\n                /* \"#utility.yul\":35661:35728   */\n              tag_399\n              jump\t// in\n            tag_797:\n                /* \"#utility.yul\":35654:35728   */\n              swap2\n              pop\n                /* \"#utility.yul\":35737:35830   */\n              tag_798\n                /* \"#utility.yul\":35826:35829   */\n              dup3\n                /* \"#utility.yul\":35737:35830   */\n              tag_472\n              jump\t// in\n            tag_798:\n                /* \"#utility.yul\":35855:35857   */\n              0x40\n                /* \"#utility.yul\":35850:35853   */\n              dup3\n                /* \"#utility.yul\":35846:35858   */\n              add\n                /* \"#utility.yul\":35839:35858   */\n              swap1\n              pop\n                /* \"#utility.yul\":35498:35864   */\n              swap2\n              swap1\n              pop\n              jump\t// out\n                /* \"#utility.yul\":35870:36289   */\n            tag_346:\n                /* \"#utility.yul\":36036:36040   */\n              0x00\n                /* \"#utility.yul\":36074:36076   */\n              0x20\n                /* \"#utility.yul\":36063:36072   */\n              dup3\n                /* \"#utility.yul\":36059:36077   */\n              add\n                /* \"#utility.yul\":36051:36077   */\n              swap1\n              pop\n                /* \"#utility.yul\":36123:36132   */\n              dup2\n                /* \"#utility.yul\":36117:36121   */\n              dup2\n                /* \"#utility.yul\":36113:36133   */\n              sub\n                /* \"#utility.yul\":36109:36110   */\n              0x00\n                /* \"#utility.yul\":36098:36107   */\n              dup4\n                /* \"#utility.yul\":36094:36111   */\n              add\n                /* \"#utility.yul\":36087:36134   */\n              mstore\n                /* \"#utility.yul\":36151:36282   */\n              tag_800\n                /* \"#utility.yul\":36277:36281   */\n              dup2\n                /* \"#utility.yul\":36151:36282   */\n              tag_473\n              jump\t// in\n            tag_800:\n                /* \"#utility.yul\":36143:36282   */\n              swap1\n              pop\n                /* \"#utility.yul\":35870:36289   */\n              swap2\n              swap1\n              pop\n              jump\t// out\n                /* \"#utility.yul\":36295:36565   */\n            tag_474:\n                /* \"#utility.yul\":36435:36501   */\n              0x4e6f2068616272c3ad61206d616e657261206465207265746972617220656c20\n                /* \"#utility.yul\":36431:36432   */\n              0x00\n                /* \"#utility.yul\":36423:36429   */\n              dup3\n                /* \"#utility.yul\":36419:36433   */\n              add\n                /* \"#utility.yul\":36412:36502   */\n              mstore\n                /* \"#utility.yul\":36536:36557   */\n              0x64696e65726f2064656c20636f6e747261746f00000000000000000000000000\n                /* \"#utility.yul\":36531:36533   */\n              0x20\n                /* \"#utility.yul\":36523:36529   */\n              dup3\n                /* \"#utility.yul\":36519:36534   */\n              add\n                /* \"#utility.yul\":36512:36558   */\n              mstore\n                /* \"#utility.yul\":36295:36565   */\n              pop\n              jump\t// out\n                /* \"#utility.yul\":36571:36937   */\n            tag_475:\n                /* \"#utility.yul\":36713:36716   */\n              0x00\n                /* \"#utility.yul\":36734:36801   */\n              tag_803\n                /* \"#utility.yul\":36798:36800   */\n              0x33\n                /* \"#utility.yul\":36793:36796   */\n              dup4\n                /* \"#utility.yul\":36734:36801   */\n              tag_399\n              jump\t// in\n            tag_803:\n                /* \"#utility.yul\":36727:36801   */\n              swap2\n              pop\n                /* \"#utility.yul\":36810:36903   */\n              tag_804\n                /* \"#utility.yul\":36899:36902   */\n              dup3\n                /* \"#utility.yul\":36810:36903   */\n              tag_474\n              jump\t// in\n            tag_804:\n                /* \"#utility.yul\":36928:36930   */\n              0x40\n                /* \"#utility.yul\":36923:36926   */\n              dup3\n                /* \"#utility.yul\":36919:36931   */\n              add\n                /* \"#utility.yul\":36912:36931   */\n              swap1\n              pop\n                /* \"#utility.yul\":36571:36937   */\n              swap2\n              swap1\n              pop\n              jump\t// out\n                /* \"#utility.yul\":36943:37362   */\n            tag_354:\n                /* \"#utility.yul\":37109:37113   */\n              0x00\n                /* \"#utility.yul\":37147:37149   */\n              0x20\n                /* \"#utility.yul\":37136:37145   */\n              dup3\n                /* \"#utility.yul\":37132:37150   */\n              add\n                /* \"#utility.yul\":37124:37150   */\n              swap1\n              pop\n                /* \"#utility.yul\":37196:37205   */\n              dup2\n                /* \"#utility.yul\":37190:37194   */\n              dup2\n                /* \"#utility.yul\":37186:37206   */\n              sub\n                /* \"#utility.yul\":37182:37183   */\n              0x00\n                /* \"#utility.yul\":37171:37180   */\n              dup4\n                /* \"#utility.yul\":37167:37184   */\n              add\n                /* \"#utility.yul\":37160:37207   */\n              mstore\n                /* \"#utility.yul\":37224:37355   */\n              tag_806\n                /* \"#utility.yul\":37350:37354   */\n              dup2\n                /* \"#utility.yul\":37224:37355   */\n              tag_475\n              jump\t// in\n            tag_806:\n                /* \"#utility.yul\":37216:37355   */\n              swap1\n              pop\n                /* \"#utility.yul\":36943:37362   */\n              swap2\n              swap1\n              pop\n              jump\t// out\n                /* \"#utility.yul\":37368:37548   */\n            tag_369:\n                /* \"#utility.yul\":37416:37493   */\n              0x4e487b7100000000000000000000000000000000000000000000000000000000\n                /* \"#utility.yul\":37413:37414   */\n              0x00\n                /* \"#utility.yul\":37406:37494   */\n              mstore\n                /* \"#utility.yul\":37513:37517   */\n              0x31\n                /* \"#utility.yul\":37510:37511   */\n              0x04\n                /* \"#utility.yul\":37503:37518   */\n              mstore\n                /* \"#utility.yul\":37537:37541   */\n              0x24\n                /* \"#utility.yul\":37534:37535   */\n              0x00\n                /* \"#utility.yul\":37527:37542   */\n              revert\n                /* \"#utility.yul\":37554:37811   */\n            tag_476:\n                /* \"#utility.yul\":37694:37760   */\n              0x4c6120636f6e74726962756369c3b36e206465626520736572206d61796f7220\n                /* \"#utility.yul\":37690:37691   */\n              0x00\n                /* \"#utility.yul\":37682:37688   */\n              dup3\n                /* \"#utility.yul\":37678:37692   */\n              add\n                /* \"#utility.yul\":37671:37761   */\n              mstore\n                /* \"#utility.yul\":37795:37803   */\n              0x61206365726f0000000000000000000000000000000000000000000000000000\n                /* \"#utility.yul\":37790:37792   */\n              0x20\n                /* \"#utility.yul\":37782:37788   */\n              dup3\n                /* \"#utility.yul\":37778:37793   */\n              add\n                /* \"#utility.yul\":37771:37804   */\n              mstore\n                /* \"#utility.yul\":37554:37811   */\n              pop\n              jump\t// out\n                /* \"#utility.yul\":37817:38183   */\n            tag_477:\n                /* \"#utility.yul\":37959:37962   */\n              0x00\n                /* \"#utility.yul\":37980:38047   */\n              tag_810\n                /* \"#utility.yul\":38044:38046   */\n              0x26\n                /* \"#utility.yul\":38039:38042   */\n              dup4\n                /* \"#utility.yul\":37980:38047   */\n              tag_399\n              jump\t// in\n            tag_810:\n                /* \"#utility.yul\":37973:38047   */\n              swap2\n              pop\n                /* \"#utility.yul\":38056:38149   */\n              tag_811\n                /* \"#utility.yul\":38145:38148   */\n              dup3\n                /* \"#utility.yul\":38056:38149   */\n              tag_476\n              jump\t// in\n            tag_811:\n                /* \"#utility.yul\":38174:38176   */\n              0x40\n                /* \"#utility.yul\":38169:38172   */\n              dup3\n                /* \"#utility.yul\":38165:38177   */\n              add\n                /* \"#utility.yul\":38158:38177   */\n              swap1\n              pop\n                /* \"#utility.yul\":37817:38183   */\n              swap2\n              swap1\n              pop\n              jump\t// out\n                /* \"#utility.yul\":38189:38608   */\n            tag_381:\n                /* \"#utility.yul\":38355:38359   */\n              0x00\n                /* \"#utility.yul\":38393:38395   */\n              0x20\n                /* \"#utility.yul\":38382:38391   */\n              dup3\n                /* \"#utility.yul\":38378:38396   */\n              add\n                /* \"#utility.yul\":38370:38396   */\n              swap1\n              pop\n                /* \"#utility.yul\":38442:38451   */\n              dup2\n                /* \"#utility.yul\":38436:38440   */\n              dup2\n                /* \"#utility.yul\":38432:38452   */\n              sub\n                /* \"#utility.yul\":38428:38429   */\n              0x00\n                /* \"#utility.yul\":38417:38426   */\n              dup4\n                /* \"#utility.yul\":38413:38430   */\n              add\n                /* \"#utility.yul\":38406:38453   */\n              mstore\n                /* \"#utility.yul\":38470:38601   */\n              tag_813\n                /* \"#utility.yul\":38596:38600   */\n              dup2\n                /* \"#utility.yul\":38470:38601   */\n              tag_477\n              jump\t// in\n            tag_813:\n                /* \"#utility.yul\":38462:38601   */\n              swap1\n              pop\n                /* \"#utility.yul\":38189:38608   */\n              swap2\n              swap1\n              pop\n              jump\t// out\n                /* \"#utility.yul\":38614:38805   */\n            tag_385:\n                /* \"#utility.yul\":38654:38657   */\n              0x00\n                /* \"#utility.yul\":38673:38693   */\n              tag_815\n                /* \"#utility.yul\":38691:38692   */\n              dup3\n                /* \"#utility.yul\":38673:38693   */\n              tag_395\n              jump\t// in\n            tag_815:\n                /* \"#utility.yul\":38668:38693   */\n              swap2\n              pop\n                /* \"#utility.yul\":38707:38727   */\n              tag_816\n                /* \"#utility.yul\":38725:38726   */\n              dup4\n                /* \"#utility.yul\":38707:38727   */\n              tag_395\n              jump\t// in\n            tag_816:\n                /* \"#utility.yul\":38702:38727   */\n              swap3\n              pop\n                /* \"#utility.yul\":38750:38751   */\n              dup3\n                /* \"#utility.yul\":38747:38748   */\n              dup3\n                /* \"#utility.yul\":38743:38752   */\n              add\n                /* \"#utility.yul\":38736:38752   */\n              swap1\n              pop\n                /* \"#utility.yul\":38771:38774   */\n              dup1\n                /* \"#utility.yul\":38768:38769   */\n              dup3\n                /* \"#utility.yul\":38765:38775   */\n              gt\n                /* \"#utility.yul\":38762:38798   */\n              iszero\n              tag_817\n              jumpi\n                /* \"#utility.yul\":38778:38796   */\n              tag_818\n              tag_436\n              jump\t// in\n            tag_818:\n                /* \"#utility.yul\":38762:38798   */\n            tag_817:\n                /* \"#utility.yul\":38614:38805   */\n              swap3\n              swap2\n              pop\n              pop\n              jump\t// out\n\n            auxdata: 0xa26469706673582212206daae9ecf98a56c32ceb67f00b034e7648b527f10a89d43e3c7f62b8e1ea74a264736f6c63430008100033\n        }\n    }\n\n    auxdata: 0xa2646970667358221220a4a306f87aaae6d8b3de6c530cea3ca50c36ee16edb3f4852fe044049736401664736f6c63430008100033\n}\n\nsub_1: assembly {\n        /* \"FundToken.sol\":238:627   */\n      mstore(0x40, 0x80)\n        /* \"FundToken.sol\":280:322   */\n      callvalue\n      dup1\n      iszero\n      tag_1\n      jumpi\n      0x00\n      dup1\n      revert\n    tag_1:\n      pop\n        /* \"@openzeppelin/contracts/token/ERC20/ERC20.sol\":1978:2091   */\n      mload(0x40)\n      dup1\n      0x40\n      add\n      0x40\n      mstore\n      dup1\n      0x0a\n      dup2\n      mstore\n      0x20\n      add\n      0x46756e6420546f6b656e00000000000000000000000000000000000000000000\n      dup2\n      mstore\n      pop\n      mload(0x40)\n      dup1\n      0x40\n      add\n      0x40\n      mstore\n      dup1\n      0x02\n      dup2\n      mstore\n      0x20\n      add\n      0x4654000000000000000000000000000000000000000000000000000000000000\n      dup2\n      mstore\n      pop\n        /* \"@openzeppelin/contracts/access/Ownable.sol\":936:968   */\n      tag_6\n        /* \"@openzeppelin/contracts/access/Ownable.sol\":955:967   */\n      tag_7\n        /* \"@openzeppelin/contracts/access/Ownable.sol\":955:965   */\n      shl(0x20, tag_8)\n        /* \"@openzeppelin/contracts/access/Ownable.sol\":955:967   */\n      0x20\n      shr\n      jump\t// in\n    tag_7:\n        /* \"@openzeppelin/contracts/access/Ownable.sol\":936:954   */\n      shl(0x20, tag_9)\n        /* \"@openzeppelin/contracts/access/Ownable.sol\":936:968   */\n      0x20\n      shr\n      jump\t// in\n    tag_6:\n        /* \"@openzeppelin/contracts/token/ERC20/ERC20.sol\":2052:2057   */\n      dup2\n        /* \"@openzeppelin/contracts/token/ERC20/ERC20.sol\":2044:2049   */\n      0x04\n        /* \"@openzeppelin/contracts/token/ERC20/ERC20.sol\":2044:2057   */\n      swap1\n      dup2\n      tag_11\n      swap2\n      swap1\n      tag_12\n      jump\t// in\n    tag_11:\n      pop\n        /* \"@openzeppelin/contracts/token/ERC20/ERC20.sol\":2077:2084   */\n      dup1\n        /* \"@openzeppelin/contracts/token/ERC20/ERC20.sol\":2067:2074   */\n      0x05\n        /* \"@openzeppelin/contracts/token/ERC20/ERC20.sol\":2067:2084   */\n      swap1\n      dup2\n      tag_13\n      swap2\n      swap1\n      tag_12\n      jump\t// in\n    tag_13:\n      pop\n        /* \"@openzeppelin/contracts/token/ERC20/ERC20.sol\":1978:2091   */\n      pop\n      pop\n        /* \"FundToken.sol\":238:627   */\n      jump(tag_15)\n        /* \"@openzeppelin/contracts/utils/Context.sol\":640:736   */\n    tag_8:\n        /* \"@openzeppelin/contracts/utils/Context.sol\":693:700   */\n      0x00\n        /* \"@openzeppelin/contracts/utils/Context.sol\":719:729   */\n      caller\n        /* \"@openzeppelin/contracts/utils/Context.sol\":712:729   */\n      swap1\n      pop\n        /* \"@openzeppelin/contracts/utils/Context.sol\":640:736   */\n      swap1\n      jump\t// out\n        /* \"@openzeppelin/contracts/access/Ownable.sol\":2433:2620   */\n    tag_9:\n        /* \"@openzeppelin/contracts/access/Ownable.sol\":2506:2522   */\n      0x00\n        /* \"@openzeppelin/contracts/access/Ownable.sol\":2525:2531   */\n      dup1\n      0x00\n      swap1\n      sload\n      swap1\n      0x0100\n      exp\n      swap1\n      div\n      0xffffffffffffffffffffffffffffffffffffffff\n      and\n        /* \"@openzeppelin/contracts/access/Ownable.sol\":2506:2531   */\n      swap1\n      pop\n        /* \"@openzeppelin/contracts/access/Ownable.sol\":2550:2558   */\n      dup2\n        /* \"@openzeppelin/contracts/access/Ownable.sol\":2541:2547   */\n      0x00\n      dup1\n        /* \"@openzeppelin/contracts/access/Ownable.sol\":2541:2558   */\n      0x0100\n      exp\n      dup2\n      sload\n      dup2\n      0xffffffffffffffffffffffffffffffffffffffff\n      mul\n      not\n      and\n      swap1\n      dup4\n      0xffffffffffffffffffffffffffffffffffffffff\n      and\n      mul\n      or\n      swap1\n      sstore\n      pop\n        /* \"@openzeppelin/contracts/access/Ownable.sol\":2604:2612   */\n      dup2\n        /* \"@openzeppelin/contracts/access/Ownable.sol\":2573:2613   */\n      0xffffffffffffffffffffffffffffffffffffffff\n      and\n        /* \"@openzeppelin/contracts/access/Ownable.sol\":2594:2602   */\n      dup2\n        /* \"@openzeppelin/contracts/access/Ownable.sol\":2573:2613   */\n      0xffffffffffffffffffffffffffffffffffffffff\n      and\n      0x8be0079c531659141344cd1fd0a4f28419497f9722a3daafe3b4186f6b6457e0\n      mload(0x40)\n      mload(0x40)\n      dup1\n      swap2\n      sub\n      swap1\n      log3\n        /* \"@openzeppelin/contracts/access/Ownable.sol\":2496:2620   */\n      pop\n        /* \"@openzeppelin/contracts/access/Ownable.sol\":2433:2620   */\n      pop\n      jump\t// out\n        /* \"#utility.yul\":7:106   */\n    tag_18:\n        /* \"#utility.yul\":59:65   */\n      0x00\n        /* \"#utility.yul\":93:98   */\n      dup2\n        /* \"#utility.yul\":87:99   */\n      mload\n        /* \"#utility.yul\":77:99   */\n      swap1\n      pop\n        /* \"#utility.yul\":7:106   */\n      swap2\n      swap1\n      pop\n      jump\t// out\n        /* \"#utility.yul\":112:292   */\n    tag_19:\n        /* \"#utility.yul\":160:237   */\n      0x4e487b7100000000000000000000000000000000000000000000000000000000\n        /* \"#utility.yul\":157:158   */\n      0x00\n        /* \"#utility.yul\":150:238   */\n      mstore\n        /* \"#utility.yul\":257:261   */\n      0x41\n        /* \"#utility.yul\":254:255   */\n      0x04\n        /* \"#utility.yul\":247:262   */\n      mstore\n        /* \"#utility.yul\":281:285   */\n      0x24\n        /* \"#utility.yul\":278:279   */\n      0x00\n        /* \"#utility.yul\":271:286   */\n      revert\n        /* \"#utility.yul\":298:478   */\n    tag_20:\n        /* \"#utility.yul\":346:423   */\n      0x4e487b7100000000000000000000000000000000000000000000000000000000\n        /* \"#utility.yul\":343:344   */\n      0x00\n        /* \"#utility.yul\":336:424   */\n      mstore\n        /* \"#utility.yul\":443:447   */\n      0x22\n        /* \"#utility.yul\":440:441   */\n      0x04\n        /* \"#utility.yul\":433:448   */\n      mstore\n        /* \"#utility.yul\":467:471   */\n      0x24\n        /* \"#utility.yul\":464:465   */\n      0x00\n        /* \"#utility.yul\":457:472   */\n      revert\n        /* \"#utility.yul\":484:804   */\n    tag_21:\n        /* \"#utility.yul\":528:534   */\n      0x00\n        /* \"#utility.yul\":565:566   */\n      0x02\n        /* \"#utility.yul\":559:563   */\n      dup3\n        /* \"#utility.yul\":555:567   */\n      div\n        /* \"#utility.yul\":545:567   */\n      swap1\n      pop\n        /* \"#utility.yul\":612:613   */\n      0x01\n        /* \"#utility.yul\":606:610   */\n      dup3\n        /* \"#utility.yul\":602:614   */\n      and\n        /* \"#utility.yul\":633:651   */\n      dup1\n        /* \"#utility.yul\":623:704   */\n      tag_43\n      jumpi\n        /* \"#utility.yul\":689:693   */\n      0x7f\n        /* \"#utility.yul\":681:687   */\n      dup3\n        /* \"#utility.yul\":677:694   */\n      and\n        /* \"#utility.yul\":667:694   */\n      swap2\n      pop\n        /* \"#utility.yul\":623:704   */\n    tag_43:\n        /* \"#utility.yul\":751:753   */\n      0x20\n        /* \"#utility.yul\":743:749   */\n      dup3\n        /* \"#utility.yul\":740:754   */\n      lt\n        /* \"#utility.yul\":720:738   */\n      dup2\n        /* \"#utility.yul\":717:755   */\n      sub\n        /* \"#utility.yul\":714:798   */\n      tag_44\n      jumpi\n        /* \"#utility.yul\":770:788   */\n      tag_45\n      tag_20\n      jump\t// in\n    tag_45:\n        /* \"#utility.yul\":714:798   */\n    tag_44:\n        /* \"#utility.yul\":535:804   */\n      pop\n        /* \"#utility.yul\":484:804   */\n      swap2\n      swap1\n      pop\n      jump\t// out\n        /* \"#utility.yul\":810:951   */\n    tag_22:\n        /* \"#utility.yul\":859:863   */\n      0x00\n        /* \"#utility.yul\":882:885   */\n      dup2\n        /* \"#utility.yul\":874:885   */\n      swap1\n      pop\n        /* \"#utility.yul\":905:908   */\n      dup2\n        /* \"#utility.yul\":902:903   */\n      0x00\n        /* \"#utility.yul\":895:909   */\n      mstore\n        /* \"#utility.yul\":939:943   */\n      0x20\n        /* \"#utility.yul\":936:937   */\n      0x00\n        /* \"#utility.yul\":926:944   */\n      keccak256\n        /* \"#utility.yul\":918:944   */\n      swap1\n      pop\n        /* \"#utility.yul\":810:951   */\n      swap2\n      swap1\n      pop\n      jump\t// out\n        /* \"#utility.yul\":957:1050   */\n    tag_23:\n        /* \"#utility.yul\":994:1000   */\n      0x00\n        /* \"#utility.yul\":1041:1043   */\n      0x20\n        /* \"#utility.yul\":1036:1038   */\n      0x1f\n        /* \"#utility.yul\":1029:1034   */\n      dup4\n        /* \"#utility.yul\":1025:1039   */\n      add\n        /* \"#utility.yul\":1021:1044   */\n      div\n        /* \"#utility.yul\":1011:1044   */\n      swap1\n      pop\n        /* \"#utility.yul\":957:1050   */\n      swap2\n      swap1\n      pop\n      jump\t// out\n        /* \"#utility.yul\":1056:1163   */\n    tag_24:\n        /* \"#utility.yul\":1100:1108   */\n      0x00\n        /* \"#utility.yul\":1150:1155   */\n      dup3\n        /* \"#utility.yul\":1144:1148   */\n      dup3\n        /* \"#utility.yul\":1140:1156   */\n      shl\n        /* \"#utility.yul\":1119:1156   */\n      swap1\n      pop\n        /* \"#utility.yul\":1056:1163   */\n      swap3\n      swap2\n      pop\n      pop\n      jump\t// out\n        /* \"#utility.yul\":1169:1562   */\n    tag_25:\n        /* \"#utility.yul\":1238:1244   */\n      0x00\n        /* \"#utility.yul\":1288:1289   */\n      0x08\n        /* \"#utility.yul\":1276:1286   */\n      dup4\n        /* \"#utility.yul\":1272:1290   */\n      mul\n        /* \"#utility.yul\":1311:1408   */\n      tag_50\n        /* \"#utility.yul\":1341:1407   */\n      0xffffffffffffffffffffffffffffffffffffffffffffffffffffffffffffffff\n        /* \"#utility.yul\":1330:1339   */\n      dup3\n        /* \"#utility.yul\":1311:1408   */\n      tag_24\n      jump\t// in\n    tag_50:\n        /* \"#utility.yul\":1429:1468   */\n      tag_51\n        /* \"#utility.yul\":1459:1467   */\n      dup7\n        /* \"#utility.yul\":1448:1457   */\n      dup4\n        /* \"#utility.yul\":1429:1468   */\n      tag_24\n      jump\t// in\n    tag_51:\n        /* \"#utility.yul\":1417:1468   */\n      swap6\n      pop\n        /* \"#utility.yul\":1501:1505   */\n      dup1\n        /* \"#utility.yul\":1497:1506   */\n      not\n        /* \"#utility.yul\":1490:1495   */\n      dup5\n        /* \"#utility.yul\":1486:1507   */\n      and\n        /* \"#utility.yul\":1477:1507   */\n      swap4\n      pop\n        /* \"#utility.yul\":1550:1554   */\n      dup1\n        /* \"#utility.yul\":1540:1548   */\n      dup7\n        /* \"#utility.yul\":1536:1555   */\n      and\n        /* \"#utility.yul\":1529:1534   */\n      dup5\n        /* \"#utility.yul\":1526:1556   */\n      or\n        /* \"#utility.yul\":1516:1556   */\n      swap3\n      pop\n        /* \"#utility.yul\":1245:1562   */\n      pop\n      pop\n        /* \"#utility.yul\":1169:1562   */\n      swap4\n      swap3\n      pop\n      pop\n      pop\n      jump\t// out\n        /* \"#utility.yul\":1568:1645   */\n    tag_26:\n        /* \"#utility.yul\":1605:1612   */\n      0x00\n        /* \"#utility.yul\":1634:1639   */\n      dup2\n        /* \"#utility.yul\":1623:1639   */\n      swap1\n      pop\n        /* \"#utility.yul\":1568:1645   */\n      swap2\n      swap1\n      pop\n      jump\t// out\n        /* \"#utility.yul\":1651:1711   */\n    tag_27:\n        /* \"#utility.yul\":1679:1682   */\n      0x00\n        /* \"#utility.yul\":1700:1705   */\n      dup2\n        /* \"#utility.yul\":1693:1705   */\n      swap1\n      pop\n        /* \"#utility.yul\":1651:1711   */\n      swap2\n      swap1\n      pop\n      jump\t// out\n        /* \"#utility.yul\":1717:1859   */\n    tag_28:\n        /* \"#utility.yul\":1767:1776   */\n      0x00\n        /* \"#utility.yul\":1800:1853   */\n      tag_55\n        /* \"#utility.yul\":1818:1852   */\n      tag_56\n        /* \"#utility.yul\":1827:1851   */\n      tag_57\n        /* \"#utility.yul\":1845:1850   */\n      dup5\n        /* \"#utility.yul\":1827:1851   */\n      tag_26\n      jump\t// in\n    tag_57:\n        /* \"#utility.yul\":1818:1852   */\n      tag_27\n      jump\t// in\n    tag_56:\n        /* \"#utility.yul\":1800:1853   */\n      tag_26\n      jump\t// in\n    tag_55:\n        /* \"#utility.yul\":1787:1853   */\n      swap1\n      pop\n        /* \"#utility.yul\":1717:1859   */\n      swap2\n      swap1\n      pop\n      jump\t// out\n        /* \"#utility.yul\":1865:1940   */\n    tag_29:\n        /* \"#utility.yul\":1908:1911   */\n      0x00\n        /* \"#utility.yul\":1929:1934   */\n      dup2\n        /* \"#utility.yul\":1922:1934   */\n      swap1\n      pop\n        /* \"#utility.yul\":1865:1940   */\n      swap2\n      swap1\n      pop\n      jump\t// out\n        /* \"#utility.yul\":1946:2215   */\n    tag_30:\n        /* \"#utility.yul\":2056:2095   */\n      tag_60\n        /* \"#utility.yul\":2087:2094   */\n      dup4\n        /* \"#utility.yul\":2056:2095   */\n      tag_28\n      jump\t// in\n    tag_60:\n        /* \"#utility.yul\":2117:2208   */\n      tag_61\n        /* \"#utility.yul\":2166:2207   */\n      tag_62\n        /* \"#utility.yul\":2190:2206   */\n      dup3\n        /* \"#utility.yul\":2166:2207   */\n      tag_29\n      jump\t// in\n    tag_62:\n        /* \"#utility.yul\":2158:2164   */\n      dup5\n        /* \"#utility.yul\":2151:2155   */\n      dup5\n        /* \"#utility.yul\":2145:2156   */\n      sload\n        /* \"#utility.yul\":2117:2208   */\n      tag_25\n      jump\t// in\n    tag_61:\n        /* \"#utility.yul\":2111:2115   */\n      dup3\n        /* \"#utility.yul\":2104:2209   */\n      sstore\n        /* \"#utility.yul\":2022:2215   */\n      pop\n        /* \"#utility.yul\":1946:2215   */\n      pop\n      pop\n      pop\n      jump\t// out\n        /* \"#utility.yul\":2221:2294   */\n    tag_31:\n        /* \"#utility.yul\":2266:2269   */\n      0x00\n        /* \"#utility.yul\":2221:2294   */\n      swap1\n      jump\t// out\n        /* \"#utility.yul\":2300:2489   */\n    tag_32:\n        /* \"#utility.yul\":2377:2409   */\n      tag_65\n      tag_31\n      jump\t// in\n    tag_65:\n        /* \"#utility.yul\":2418:2483   */\n      tag_66\n        /* \"#utility.yul\":2476:2482   */\n      dup2\n        /* \"#utility.yul\":2468:2474   */\n      dup5\n        /* \"#utility.yul\":2462:2466   */\n      dup5\n        /* \"#utility.yul\":2418:2483   */\n      tag_30\n      jump\t// in\n    tag_66:\n        /* \"#utility.yul\":2353:2489   */\n      pop\n        /* \"#utility.yul\":2300:2489   */\n      pop\n      pop\n      jump\t// out\n        /* \"#utility.yul\":2495:2681   */\n    tag_33:\n        /* \"#utility.yul\":2555:2675   */\n    tag_68:\n        /* \"#utility.yul\":2572:2575   */\n      dup2\n        /* \"#utility.yul\":2565:2570   */\n      dup2\n        /* \"#utility.yul\":2562:2576   */\n      lt\n        /* \"#utility.yul\":2555:2675   */\n      iszero\n      tag_70\n      jumpi\n        /* \"#utility.yul\":2626:2665   */\n      tag_71\n        /* \"#utility.yul\":2663:2664   */\n      0x00\n        /* \"#utility.yul\":2656:2661   */\n      dup3\n        /* \"#utility.yul\":2626:2665   */\n      tag_32\n      jump\t// in\n    tag_71:\n        /* \"#utility.yul\":2599:2600   */\n      0x01\n        /* \"#utility.yul\":2592:2597   */\n      dup2\n        /* \"#utility.yul\":2588:2601   */\n      add\n        /* \"#utility.yul\":2579:2601   */\n      swap1\n      pop\n        /* \"#utility.yul\":2555:2675   */\n      jump(tag_68)\n    tag_70:\n        /* \"#utility.yul\":2495:2681   */\n      pop\n      pop\n      jump\t// out\n        /* \"#utility.yul\":2687:3230   */\n    tag_34:\n        /* \"#utility.yul\":2788:2790   */\n      0x1f\n        /* \"#utility.yul\":2783:2786   */\n      dup3\n        /* \"#utility.yul\":2780:2791   */\n      gt\n        /* \"#utility.yul\":2777:3223   */\n      iszero\n      tag_73\n      jumpi\n        /* \"#utility.yul\":2822:2860   */\n      tag_74\n        /* \"#utility.yul\":2854:2859   */\n      dup2\n        /* \"#utility.yul\":2822:2860   */\n      tag_22\n      jump\t// in\n    tag_74:\n        /* \"#utility.yul\":2906:2935   */\n      tag_75\n        /* \"#utility.yul\":2924:2934   */\n      dup5\n        /* \"#utility.yul\":2906:2935   */\n      tag_23\n      jump\t// in\n    tag_75:\n        /* \"#utility.yul\":2896:2904   */\n      dup2\n        /* \"#utility.yul\":2892:2936   */\n      add\n        /* \"#utility.yul\":3089:3091   */\n      0x20\n        /* \"#utility.yul\":3077:3087   */\n      dup6\n        /* \"#utility.yul\":3074:3092   */\n      lt\n        /* \"#utility.yul\":3071:3120   */\n      iszero\n      tag_76\n      jumpi\n        /* \"#utility.yul\":3110:3118   */\n      dup2\n        /* \"#utility.yul\":3095:3118   */\n      swap1\n      pop\n        /* \"#utility.yul\":3071:3120   */\n    tag_76:\n        /* \"#utility.yul\":3133:3213   */\n      tag_77\n        /* \"#utility.yul\":3189:3211   */\n      tag_78\n        /* \"#utility.yul\":3207:3210   */\n      dup6\n        /* \"#utility.yul\":3189:3211   */\n      tag_23\n      jump\t// in\n    tag_78:\n        /* \"#utility.yul\":3179:3187   */\n      dup4\n        /* \"#utility.yul\":3175:3212   */\n      add\n        /* \"#utility.yul\":3162:3173   */\n      dup3\n        /* \"#utility.yul\":3133:3213   */\n      tag_33\n      jump\t// in\n    tag_77:\n        /* \"#utility.yul\":2792:3223   */\n      pop\n      pop\n        /* \"#utility.yul\":2777:3223   */\n    tag_73:\n        /* \"#utility.yul\":2687:3230   */\n      pop\n      pop\n      pop\n      jump\t// out\n        /* \"#utility.yul\":3236:3353   */\n    tag_35:\n        /* \"#utility.yul\":3290:3298   */\n      0x00\n        /* \"#utility.yul\":3340:3345   */\n      dup3\n        /* \"#utility.yul\":3334:3338   */\n      dup3\n        /* \"#utility.yul\":3330:3346   */\n      shr\n        /* \"#utility.yul\":3309:3346   */\n      swap1\n      pop\n        /* \"#utility.yul\":3236:3353   */\n      swap3\n      swap2\n      pop\n      pop\n      jump\t// out\n        /* \"#utility.yul\":3359:3528   */\n    tag_36:\n        /* \"#utility.yul\":3403:3409   */\n      0x00\n        /* \"#utility.yul\":3436:3487   */\n      tag_81\n        /* \"#utility.yul\":3484:3485   */\n      0x00\n        /* \"#utility.yul\":3480:3486   */\n      not\n        /* \"#utility.yul\":3472:3477   */\n      dup5\n        /* \"#utility.yul\":3469:3470   */\n      0x08\n        /* \"#utility.yul\":3465:3478   */\n      mul\n        /* \"#utility.yul\":3436:3487   */\n      tag_35\n      jump\t// in\n    tag_81:\n        /* \"#utility.yul\":3432:3488   */\n      not\n        /* \"#utility.yul\":3517:3521   */\n      dup1\n        /* \"#utility.yul\":3511:3515   */\n      dup4\n        /* \"#utility.yul\":3507:3522   */\n      and\n        /* \"#utility.yul\":3497:3522   */\n      swap2\n      pop\n        /* \"#utility.yul\":3410:3528   */\n      pop\n        /* \"#utility.yul\":3359:3528   */\n      swap3\n      swap2\n      pop\n      pop\n      jump\t// out\n        /* \"#utility.yul\":3533:3828   */\n    tag_37:\n        /* \"#utility.yul\":3609:3613   */\n      0x00\n        /* \"#utility.yul\":3755:3784   */\n      tag_83\n        /* \"#utility.yul\":3780:3783   */\n      dup4\n        /* \"#utility.yul\":3774:3778   */\n      dup4\n        /* \"#utility.yul\":3755:3784   */\n      tag_36\n      jump\t// in\n    tag_83:\n        /* \"#utility.yul\":3747:3784   */\n      swap2\n      pop\n        /* \"#utility.yul\":3817:3820   */\n      dup3\n        /* \"#utility.yul\":3814:3815   */\n      0x02\n        /* \"#utility.yul\":3810:3821   */\n      mul\n        /* \"#utility.yul\":3804:3808   */\n      dup3\n        /* \"#utility.yul\":3801:3822   */\n      or\n        /* \"#utility.yul\":3793:3822   */\n      swap1\n      pop\n        /* \"#utility.yul\":3533:3828   */\n      swap3\n      swap2\n      pop\n      pop\n      jump\t// out\n        /* \"#utility.yul\":3833:5228   */\n    tag_12:\n        /* \"#utility.yul\":3950:3987   */\n      tag_85\n        /* \"#utility.yul\":3983:3986   */\n      dup3\n        /* \"#utility.yul\":3950:3987   */\n      tag_18\n      jump\t// in\n    tag_85:\n        /* \"#utility.yul\":4052:4070   */\n      0xffffffffffffffff\n        /* \"#utility.yul\":4044:4050   */\n      dup2\n        /* \"#utility.yul\":4041:4071   */\n      gt\n        /* \"#utility.yul\":4038:4094   */\n      iszero\n      tag_86\n      jumpi\n        /* \"#utility.yul\":4074:4092   */\n      tag_87\n      tag_19\n      jump\t// in\n    tag_87:\n        /* \"#utility.yul\":4038:4094   */\n    tag_86:\n        /* \"#utility.yul\":4118:4156   */\n      tag_88\n        /* \"#utility.yul\":4150:4154   */\n      dup3\n        /* \"#utility.yul\":4144:4155   */\n      sload\n        /* \"#utility.yul\":4118:4156   */\n      tag_21\n      jump\t// in\n    tag_88:\n        /* \"#utility.yul\":4203:4270   */\n      tag_89\n        /* \"#utility.yul\":4263:4269   */\n      dup3\n        /* \"#utility.yul\":4255:4261   */\n      dup3\n        /* \"#utility.yul\":4249:4253   */\n      dup6\n        /* \"#utility.yul\":4203:4270   */\n      tag_34\n      jump\t// in\n    tag_89:\n        /* \"#utility.yul\":4297:4298   */\n      0x00\n        /* \"#utility.yul\":4321:4325   */\n      0x20\n        /* \"#utility.yul\":4308:4325   */\n      swap1\n      pop\n        /* \"#utility.yul\":4353:4355   */\n      0x1f\n        /* \"#utility.yul\":4345:4351   */\n      dup4\n        /* \"#utility.yul\":4342:4356   */\n      gt\n        /* \"#utility.yul\":4370:4371   */\n      0x01\n        /* \"#utility.yul\":4365:4983   */\n      dup2\n      eq\n      tag_91\n      jumpi\n        /* \"#utility.yul\":5027:5028   */\n      0x00\n        /* \"#utility.yul\":5044:5050   */\n      dup5\n        /* \"#utility.yul\":5041:5118   */\n      iszero\n      tag_92\n      jumpi\n        /* \"#utility.yul\":5093:5102   */\n      dup3\n        /* \"#utility.yul\":5088:5091   */\n      dup8\n        /* \"#utility.yul\":5084:5103   */\n      add\n        /* \"#utility.yul\":5078:5104   */\n      mload\n        /* \"#utility.yul\":5069:5104   */\n      swap1\n      pop\n        /* \"#utility.yul\":5041:5118   */\n    tag_92:\n        /* \"#utility.yul\":5144:5211   */\n      tag_93\n        /* \"#utility.yul\":5204:5210   */\n      dup6\n        /* \"#utility.yul\":5197:5202   */\n      dup3\n        /* \"#utility.yul\":5144:5211   */\n      tag_37\n      jump\t// in\n    tag_93:\n        /* \"#utility.yul\":5138:5142   */\n      dup7\n        /* \"#utility.yul\":5131:5212   */\n      sstore\n        /* \"#utility.yul\":5000:5222   */\n      pop\n        /* \"#utility.yul\":4335:5222   */\n      jump(tag_90)\n        /* \"#utility.yul\":4365:4983   */\n    tag_91:\n        /* \"#utility.yul\":4417:4421   */\n      0x1f\n        /* \"#utility.yul\":4413:4422   */\n      not\n        /* \"#utility.yul\":4405:4411   */\n      dup5\n        /* \"#utility.yul\":4401:4423   */\n      and\n        /* \"#utility.yul\":4451:4488   */\n      tag_94\n        /* \"#utility.yul\":4483:4487   */\n      dup7\n        /* \"#utility.yul\":4451:4488   */\n      tag_22\n      jump\t// in\n    tag_94:\n        /* \"#utility.yul\":4510:4511   */\n      0x00\n        /* \"#utility.yul\":4524:4732   */\n    tag_95:\n        /* \"#utility.yul\":4538:4545   */\n      dup3\n        /* \"#utility.yul\":4535:4536   */\n      dup2\n        /* \"#utility.yul\":4532:4546   */\n      lt\n        /* \"#utility.yul\":4524:4732   */\n      iszero\n      tag_97\n      jumpi\n        /* \"#utility.yul\":4617:4626   */\n      dup5\n        /* \"#utility.yul\":4612:4615   */\n      dup10\n        /* \"#utility.yul\":4608:4627   */\n      add\n        /* \"#utility.yul\":4602:4628   */\n      mload\n        /* \"#utility.yul\":4594:4600   */\n      dup3\n        /* \"#utility.yul\":4587:4629   */\n      sstore\n        /* \"#utility.yul\":4668:4669   */\n      0x01\n        /* \"#utility.yul\":4660:4666   */\n      dup3\n        /* \"#utility.yul\":4656:4670   */\n      add\n        /* \"#utility.yul\":4646:4670   */\n      swap2\n      pop\n        /* \"#utility.yul\":4715:4717   */\n      0x20\n        /* \"#utility.yul\":4704:4713   */\n      dup6\n        /* \"#utility.yul\":4700:4718   */\n      add\n        /* \"#utility.yul\":4687:4718   */\n      swap5\n      pop\n        /* \"#utility.yul\":4561:4565   */\n      0x20\n        /* \"#utility.yul\":4558:4559   */\n      dup2\n        /* \"#utility.yul\":4554:4566   */\n      add\n        /* \"#utility.yul\":4549:4566   */\n      swap1\n      pop\n        /* \"#utility.yul\":4524:4732   */\n      jump(tag_95)\n    tag_97:\n        /* \"#utility.yul\":4760:4766   */\n      dup7\n        /* \"#utility.yul\":4751:4758   */\n      dup4\n        /* \"#utility.yul\":4748:4767   */\n      lt\n        /* \"#utility.yul\":4745:4924   */\n      iszero\n      tag_98\n      jumpi\n        /* \"#utility.yul\":4818:4827   */\n      dup5\n        /* \"#utility.yul\":4813:4816   */\n      dup10\n        /* \"#utility.yul\":4809:4828   */\n      add\n        /* \"#utility.yul\":4803:4829   */\n      mload\n        /* \"#utility.yul\":4861:4909   */\n      tag_99\n        /* \"#utility.yul\":4903:4907   */\n      0x1f\n        /* \"#utility.yul\":4895:4901   */\n      dup10\n        /* \"#utility.yul\":4891:4908   */\n      and\n        /* \"#utility.yul\":4880:4889   */\n      dup3\n        /* \"#utility.yul\":4861:4909   */\n      tag_36\n      jump\t// in\n    tag_99:\n        /* \"#utility.yul\":4853:4859   */\n      dup4\n        /* \"#utility.yul\":4846:4910   */\n      sstore\n        /* \"#utility.yul\":4768:4924   */\n      pop\n        /* \"#utility.yul\":4745:4924   */\n    tag_98:\n        /* \"#utility.yul\":4970:4971   */\n      0x01\n        /* \"#utility.yul\":4966:4967   */\n      0x02\n        /* \"#utility.yul\":4958:4964   */\n      dup9\n        /* \"#utility.yul\":4954:4968   */\n      mul\n        /* \"#utility.yul\":4950:4972   */\n      add\n        /* \"#utility.yul\":4944:4948   */\n      dup9\n        /* \"#utility.yul\":4937:4973   */\n      sstore\n        /* \"#utility.yul\":4372:4983   */\n      pop\n      pop\n      pop\n        /* \"#utility.yul\":4335:5222   */\n    tag_90:\n      pop\n        /* \"#utility.yul\":3925:5228   */\n      pop\n      pop\n      pop\n        /* \"#utility.yul\":3833:5228   */\n      pop\n      pop\n      jump\t// out\n        /* \"FundToken.sol\":238:627   */\n    tag_15:\n      dataSize(sub_0)\n      dup1\n      dataOffset(sub_0)\n      0x00\n      codecopy\n      0x00\n      return\n    stop\n\n    sub_0: assembly {\n            /* \"FundToken.sol\":238:627   */\n          mstore(0x40, 0x80)\n          callvalue\n          dup1\n          iszero\n          tag_1\n          jumpi\n          0x00\n          dup1\n          revert\n        tag_1:\n          pop\n          jumpi(tag_2, lt(calldatasize, 0x04))\n          shr(0xe0, calldataload(0x00))\n          dup1\n          0x715018a6\n          gt\n          tag_19\n          jumpi\n          dup1\n          0xa457c2d7\n          gt\n          tag_20\n          jumpi\n          dup1\n          0xa457c2d7\n          eq\n          tag_15\n          jumpi\n          dup1\n          0xa9059cbb\n          eq\n          tag_16\n          jumpi\n          dup1\n          0xdd62ed3e\n          eq\n          tag_17\n          jumpi\n          dup1\n          0xf2fde38b\n          eq\n          tag_18\n          jumpi\n          jump(tag_2)\n        tag_20:\n          dup1\n          0x715018a6\n          eq\n          tag_11\n          jumpi\n          dup1\n          0x8da5cb5b\n          eq\n          tag_12\n          jumpi\n          dup1\n          0x95d89b41\n          eq\n          tag_13\n          jumpi\n          dup1\n          0x9dc29fac\n          eq\n          tag_14\n          jumpi\n          jump(tag_2)\n        tag_19:\n          dup1\n          0x313ce567\n          gt\n          tag_21\n          jumpi\n          dup1\n          0x313ce567\n          eq\n          tag_7\n          jumpi\n          dup1\n          0x39509351\n          eq\n          tag_8\n          jumpi\n          dup1\n          0x40c10f19\n          eq\n          tag_9\n          jumpi\n          dup1\n          0x70a08231\n          eq\n          tag_10\n          jumpi\n          jump(tag_2)\n        tag_21:\n          dup1\n          0x06fdde03\n          eq\n          tag_3\n          jumpi\n          dup1\n          0x095ea7b3\n          eq\n          tag_4\n          jumpi\n          dup1\n          0x18160ddd\n          eq\n          tag_5\n          jumpi\n          dup1\n          0x23b872dd\n          eq\n          tag_6\n          jumpi\n        tag_2:\n          0x00\n          dup1\n          revert\n            /* \"@openzeppelin/contracts/token/ERC20/ERC20.sol\":2156:2254   */\n        tag_3:\n          tag_22\n          tag_23\n          jump\t// in\n        tag_22:\n          mload(0x40)\n          tag_24\n          swap2\n          swap1\n          tag_25\n          jump\t// in\n        tag_24:\n          mload(0x40)\n          dup1\n          swap2\n          sub\n          swap1\n          return\n            /* \"@openzeppelin/contracts/token/ERC20/ERC20.sol\":4433:4630   */\n        tag_4:\n          tag_26\n          0x04\n          dup1\n          calldatasize\n          sub\n          dup2\n          add\n          swap1\n          tag_27\n          swap2\n          swap1\n          tag_28\n          jump\t// in\n        tag_27:\n          tag_29\n          jump\t// in\n        tag_26:\n          mload(0x40)\n          tag_30\n          swap2\n          swap1\n          tag_31\n          jump\t// in\n        tag_30:\n          mload(0x40)\n          dup1\n          swap2\n          sub\n          swap1\n          return\n            /* \"@openzeppelin/contracts/token/ERC20/ERC20.sol\":3244:3350   */\n        tag_5:\n          tag_32\n          tag_33\n          jump\t// in\n        tag_32:\n          mload(0x40)\n          tag_34\n          swap2\n          swap1\n          tag_35\n          jump\t// in\n        tag_34:\n          mload(0x40)\n          dup1\n          swap2\n          sub\n          swap1\n          return\n            /* \"@openzeppelin/contracts/token/ERC20/ERC20.sol\":5192:5478   */\n        tag_6:\n          tag_36\n          0x04\n          dup1\n          calldatasize\n          sub\n          dup2\n          add\n          swap1\n          tag_37\n          swap2\n          swap1\n          tag_38\n          jump\t// in\n        tag_37:\n          tag_39\n          jump\t// in\n        tag_36:\n          mload(0x40)\n          tag_40\n          swap2\n          swap1\n          tag_31\n          jump\t// in\n        tag_40:\n          mload(0x40)\n          dup1\n          swap2\n          sub\n          swap1\n          return\n            /* \"FundToken.sol\":328:406   */\n        tag_7:\n          tag_41\n          tag_42\n          jump\t// in\n        tag_41:\n          mload(0x40)\n          tag_43\n          swap2\n          swap1\n          tag_44\n          jump\t// in\n        tag_43:\n          mload(0x40)\n          dup1\n          swap2\n          sub\n          swap1\n          return\n            /* \"@openzeppelin/contracts/token/ERC20/ERC20.sol\":5873:6107   */\n        tag_8:\n          tag_45\n          0x04\n          dup1\n          calldatasize\n          sub\n          dup2\n          add\n          swap1\n          tag_46\n          swap2\n          swap1\n          tag_28\n          jump\t// in\n        tag_46:\n          tag_47\n          jump\t// in\n        tag_45:\n          mload(0x40)\n          tag_48\n          swap2\n          swap1\n          tag_31\n          jump\t// in\n        tag_48:\n          mload(0x40)\n          dup1\n          swap2\n          sub\n          swap1\n          return\n            /* \"FundToken.sol\":412:515   */\n        tag_9:\n          tag_49\n          0x04\n          dup1\n          calldatasize\n          sub\n          dup2\n          add\n          swap1\n          tag_50\n          swap2\n          swap1\n          tag_28\n          jump\t// in\n        tag_50:\n          tag_51\n          jump\t// in\n        tag_49:\n          stop\n            /* \"@openzeppelin/contracts/token/ERC20/ERC20.sol\":3408:3533   */\n        tag_10:\n          tag_52\n          0x04\n          dup1\n          calldatasize\n          sub\n          dup2\n          add\n          swap1\n          tag_53\n          swap2\n          swap1\n          tag_54\n          jump\t// in\n        tag_53:\n          tag_55\n          jump\t// in\n        tag_52:\n          mload(0x40)\n          tag_56\n          swap2\n          swap1\n          tag_35\n          jump\t// in\n        tag_56:\n          mload(0x40)\n          dup1\n          swap2\n          sub\n          swap1\n          return\n            /* \"@openzeppelin/contracts/access/Ownable.sol\":1831:1932   */\n        tag_11:\n          tag_57\n          tag_58\n          jump\t// in\n        tag_57:\n          stop\n            /* \"@openzeppelin/contracts/access/Ownable.sol\":1201:1286   */\n        tag_12:\n          tag_59\n          tag_60\n          jump\t// in\n        tag_59:\n          mload(0x40)\n          tag_61\n          swap2\n          swap1\n          tag_62\n          jump\t// in\n        tag_61:\n          mload(0x40)\n          dup1\n          swap2\n          sub\n          swap1\n          return\n            /* \"@openzeppelin/contracts/token/ERC20/ERC20.sol\":2367:2469   */\n        tag_13:\n          tag_63\n          tag_64\n          jump\t// in\n        tag_63:\n          mload(0x40)\n          tag_65\n          swap2\n          swap1\n          tag_25\n          jump\t// in\n        tag_65:\n          mload(0x40)\n          dup1\n          swap2\n          sub\n          swap1\n          return\n            /* \"FundToken.sol\":521:624   */\n        tag_14:\n          tag_66\n          0x04\n          dup1\n          calldatasize\n          sub\n          dup2\n          add\n          swap1\n          tag_67\n          swap2\n          swap1\n          tag_28\n          jump\t// in\n        tag_67:\n          tag_68\n          jump\t// in\n        tag_66:\n          stop\n            /* \"@openzeppelin/contracts/token/ERC20/ERC20.sol\":6594:7021   */\n        tag_15:\n          tag_69\n          0x04\n          dup1\n          calldatasize\n          sub\n          dup2\n          add\n          swap1\n          tag_70\n          swap2\n          swap1\n          tag_28\n          jump\t// in\n        tag_70:\n          tag_71\n          jump\t// in\n        tag_69:\n          mload(0x40)\n          tag_72\n          swap2\n          swap1\n          tag_31\n          jump\t// in\n        tag_72:\n          mload(0x40)\n          dup1\n          swap2\n          sub\n          swap1\n          return\n            /* \"@openzeppelin/contracts/token/ERC20/ERC20.sol\":3729:3918   */\n        tag_16:\n          tag_73\n          0x04\n          dup1\n          calldatasize\n          sub\n          dup2\n          add\n          swap1\n          tag_74\n          swap2\n          swap1\n          tag_28\n          jump\t// in\n        tag_74:\n          tag_75\n          jump\t// in\n        tag_73:\n          mload(0x40)\n          tag_76\n          swap2\n          swap1\n          tag_31\n          jump\t// in\n        tag_76:\n          mload(0x40)\n          dup1\n          swap2\n          sub\n          swap1\n          return\n            /* \"@openzeppelin/contracts/token/ERC20/ERC20.sol\":3976:4125   */\n        tag_17:\n          tag_77\n          0x04\n          dup1\n          calldatasize\n          sub\n          dup2\n          add\n          swap1\n          tag_78\n          swap2\n          swap1\n          tag_79\n          jump\t// in\n        tag_78:\n          tag_80\n          jump\t// in\n        tag_77:\n          mload(0x40)\n          tag_81\n          swap2\n          swap1\n          tag_35\n          jump\t// in\n        tag_81:\n          mload(0x40)\n          dup1\n          swap2\n          sub\n          swap1\n          return\n            /* \"@openzeppelin/contracts/access/Ownable.sol\":2081:2279   */\n        tag_18:\n          tag_82\n          0x04\n          dup1\n          calldatasize\n          sub\n          dup2\n          add\n          swap1\n          tag_83\n          swap2\n          swap1\n          tag_54\n          jump\t// in\n        tag_83:\n          tag_84\n          jump\t// in\n        tag_82:\n          stop\n            /* \"@openzeppelin/contracts/token/ERC20/ERC20.sol\":2156:2254   */\n        tag_23:\n            /* \"@openzeppelin/contracts/token/ERC20/ERC20.sol\":2210:2223   */\n          0x60\n            /* \"@openzeppelin/contracts/token/ERC20/ERC20.sol\":2242:2247   */\n          0x04\n            /* \"@openzeppelin/contracts/token/ERC20/ERC20.sol\":2235:2247   */\n          dup1\n          sload\n          tag_86\n          swap1\n          tag_87\n          jump\t// in\n        tag_86:\n          dup1\n          0x1f\n          add\n          0x20\n          dup1\n          swap2\n          div\n          mul\n          0x20\n          add\n          mload(0x40)\n          swap1\n          dup2\n          add\n          0x40\n          mstore\n          dup1\n          swap3\n          swap2\n          swap1\n          dup2\n          dup2\n          mstore\n          0x20\n          add\n          dup3\n          dup1\n          sload\n          tag_88\n          swap1\n          tag_87\n          jump\t// in\n        tag_88:\n          dup1\n          iszero\n          tag_89\n          jumpi\n          dup1\n          0x1f\n          lt\n          tag_90\n          jumpi\n          0x0100\n          dup1\n          dup4\n          sload\n          div\n          mul\n          dup4\n          mstore\n          swap2\n          0x20\n          add\n          swap2\n          jump(tag_89)\n        tag_90:\n          dup3\n          add\n          swap2\n          swap1\n          0x00\n          mstore\n          keccak256(0x00, 0x20)\n          swap1\n        tag_91:\n          dup2\n          sload\n          dup2\n          mstore\n          swap1\n          0x01\n          add\n          swap1\n          0x20\n          add\n          dup1\n          dup4\n          gt\n          tag_91\n          jumpi\n          dup3\n          swap1\n          sub\n          0x1f\n          and\n          dup3\n          add\n          swap2\n        tag_89:\n          pop\n          pop\n          pop\n          pop\n          pop\n          swap1\n          pop\n            /* \"@openzeppelin/contracts/token/ERC20/ERC20.sol\":2156:2254   */\n          swap1\n          jump\t// out\n            /* \"@openzeppelin/contracts/token/ERC20/ERC20.sol\":4433:4630   */\n        tag_29:\n            /* \"@openzeppelin/contracts/token/ERC20/ERC20.sol\":4516:4520   */\n          0x00\n            /* \"@openzeppelin/contracts/token/ERC20/ERC20.sol\":4532:4545   */\n          dup1\n            /* \"@openzeppelin/contracts/token/ERC20/ERC20.sol\":4548:4560   */\n          tag_93\n            /* \"@openzeppelin/contracts/token/ERC20/ERC20.sol\":4548:4558   */\n          tag_94\n            /* \"@openzeppelin/contracts/token/ERC20/ERC20.sol\":4548:4560   */\n          jump\t// in\n        tag_93:\n            /* \"@openzeppelin/contracts/token/ERC20/ERC20.sol\":4532:4560   */\n          swap1\n          pop\n            /* \"@openzeppelin/contracts/token/ERC20/ERC20.sol\":4570:4602   */\n          tag_95\n            /* \"@openzeppelin/contracts/token/ERC20/ERC20.sol\":4579:4584   */\n          dup2\n            /* \"@openzeppelin/contracts/token/ERC20/ERC20.sol\":4586:4593   */\n          dup6\n            /* \"@openzeppelin/contracts/token/ERC20/ERC20.sol\":4595:4601   */\n          dup6\n            /* \"@openzeppelin/contracts/token/ERC20/ERC20.sol\":4570:4578   */\n          tag_96\n            /* \"@openzeppelin/contracts/token/ERC20/ERC20.sol\":4570:4602   */\n          jump\t// in\n        tag_95:\n            /* \"@openzeppelin/contracts/token/ERC20/ERC20.sol\":4619:4623   */\n          0x01\n            /* \"@openzeppelin/contracts/token/ERC20/ERC20.sol\":4612:4623   */\n          swap2\n          pop\n          pop\n            /* \"@openzeppelin/contracts/token/ERC20/ERC20.sol\":4433:4630   */\n          swap3\n          swap2\n          pop\n          pop\n          jump\t// out\n            /* \"@openzeppelin/contracts/token/ERC20/ERC20.sol\":3244:3350   */\n        tag_33:\n            /* \"@openzeppelin/contracts/token/ERC20/ERC20.sol\":3305:3312   */\n          0x00\n            /* \"@openzeppelin/contracts/token/ERC20/ERC20.sol\":3331:3343   */\n          sload(0x03)\n            /* \"@openzeppelin/contracts/token/ERC20/ERC20.sol\":3324:3343   */\n          swap1\n          pop\n            /* \"@openzeppelin/contracts/token/ERC20/ERC20.sol\":3244:3350   */\n          swap1\n          jump\t// out\n            /* \"@openzeppelin/contracts/token/ERC20/ERC20.sol\":5192:5478   */\n        tag_39:\n            /* \"@openzeppelin/contracts/token/ERC20/ERC20.sol\":5319:5323   */\n          0x00\n            /* \"@openzeppelin/contracts/token/ERC20/ERC20.sol\":5335:5350   */\n          dup1\n            /* \"@openzeppelin/contracts/token/ERC20/ERC20.sol\":5353:5365   */\n          tag_99\n            /* \"@openzeppelin/contracts/token/ERC20/ERC20.sol\":5353:5363   */\n          tag_94\n            /* \"@openzeppelin/contracts/token/ERC20/ERC20.sol\":5353:5365   */\n          jump\t// in\n        tag_99:\n            /* \"@openzeppelin/contracts/token/ERC20/ERC20.sol\":5335:5365   */\n          swap1\n          pop\n            /* \"@openzeppelin/contracts/token/ERC20/ERC20.sol\":5375:5413   */\n          tag_100\n            /* \"@openzeppelin/contracts/token/ERC20/ERC20.sol\":5391:5395   */\n          dup6\n            /* \"@openzeppelin/contracts/token/ERC20/ERC20.sol\":5397:5404   */\n          dup3\n            /* \"@openzeppelin/contracts/token/ERC20/ERC20.sol\":5406:5412   */\n          dup6\n            /* \"@openzeppelin/contracts/token/ERC20/ERC20.sol\":5375:5390   */\n          tag_101\n            /* \"@openzeppelin/contracts/token/ERC20/ERC20.sol\":5375:5413   */\n          jump\t// in\n        tag_100:\n            /* \"@openzeppelin/contracts/token/ERC20/ERC20.sol\":5423:5450   */\n          tag_102\n            /* \"@openzeppelin/contracts/token/ERC20/ERC20.sol\":5433:5437   */\n          dup6\n            /* \"@openzeppelin/contracts/token/ERC20/ERC20.sol\":5439:5441   */\n          dup6\n            /* \"@openzeppelin/contracts/token/ERC20/ERC20.sol\":5443:5449   */\n          dup6\n            /* \"@openzeppelin/contracts/token/ERC20/ERC20.sol\":5423:5432   */\n          tag_103\n            /* \"@openzeppelin/contracts/token/ERC20/ERC20.sol\":5423:5450   */\n          jump\t// in\n        tag_102:\n            /* \"@openzeppelin/contracts/token/ERC20/ERC20.sol\":5467:5471   */\n          0x01\n            /* \"@openzeppelin/contracts/token/ERC20/ERC20.sol\":5460:5471   */\n          swap2\n          pop\n          pop\n            /* \"@openzeppelin/contracts/token/ERC20/ERC20.sol\":5192:5478   */\n          swap4\n          swap3\n          pop\n          pop\n          pop\n          jump\t// out\n            /* \"FundToken.sol\":328:406   */\n        tag_42:\n            /* \"FundToken.sol\":378:383   */\n          0x00\n            /* \"FundToken.sol\":328:406   */\n          swap1\n          jump\t// out\n            /* \"@openzeppelin/contracts/token/ERC20/ERC20.sol\":5873:6107   */\n        tag_47:\n            /* \"@openzeppelin/contracts/token/ERC20/ERC20.sol\":5961:5965   */\n          0x00\n            /* \"@openzeppelin/contracts/token/ERC20/ERC20.sol\":5977:5990   */\n          dup1\n            /* \"@openzeppelin/contracts/token/ERC20/ERC20.sol\":5993:6005   */\n          tag_106\n            /* \"@openzeppelin/contracts/token/ERC20/ERC20.sol\":5993:6003   */\n          tag_94\n            /* \"@openzeppelin/contracts/token/ERC20/ERC20.sol\":5993:6005   */\n          jump\t// in\n        tag_106:\n            /* \"@openzeppelin/contracts/token/ERC20/ERC20.sol\":5977:6005   */\n          swap1\n          pop\n            /* \"@openzeppelin/contracts/token/ERC20/ERC20.sol\":6015:6079   */\n          tag_107\n            /* \"@openzeppelin/contracts/token/ERC20/ERC20.sol\":6024:6029   */\n          dup2\n            /* \"@openzeppelin/contracts/token/ERC20/ERC20.sol\":6031:6038   */\n          dup6\n            /* \"@openzeppelin/contracts/token/ERC20/ERC20.sol\":6068:6078   */\n          dup6\n            /* \"@openzeppelin/contracts/token/ERC20/ERC20.sol\":6040:6065   */\n          tag_108\n            /* \"@openzeppelin/contracts/token/ERC20/ERC20.sol\":6050:6055   */\n          dup6\n            /* \"@openzeppelin/contracts/token/ERC20/ERC20.sol\":6057:6064   */\n          dup10\n            /* \"@openzeppelin/contracts/token/ERC20/ERC20.sol\":6040:6049   */\n          tag_80\n            /* \"@openzeppelin/contracts/token/ERC20/ERC20.sol\":6040:6065   */\n          jump\t// in\n        tag_108:\n            /* \"@openzeppelin/contracts/token/ERC20/ERC20.sol\":6040:6078   */\n          tag_109\n          swap2\n          swap1\n          tag_110\n          jump\t// in\n        tag_109:\n            /* \"@openzeppelin/contracts/token/ERC20/ERC20.sol\":6015:6023   */\n          tag_96\n            /* \"@openzeppelin/contracts/token/ERC20/ERC20.sol\":6015:6079   */\n          jump\t// in\n        tag_107:\n            /* \"@openzeppelin/contracts/token/ERC20/ERC20.sol\":6096:6100   */\n          0x01\n            /* \"@openzeppelin/contracts/token/ERC20/ERC20.sol\":6089:6100   */\n          swap2\n          pop\n          pop\n            /* \"@openzeppelin/contracts/token/ERC20/ERC20.sol\":5873:6107   */\n          swap3\n          swap2\n          pop\n          pop\n          jump\t// out\n            /* \"FundToken.sol\":412:515   */\n        tag_51:\n            /* \"@openzeppelin/contracts/access/Ownable.sol\":1094:1107   */\n          tag_112\n            /* \"@openzeppelin/contracts/access/Ownable.sol\":1094:1105   */\n          tag_113\n            /* \"@openzeppelin/contracts/access/Ownable.sol\":1094:1107   */\n          jump\t// in\n        tag_112:\n            /* \"FundToken.sol\":485:509   */\n          tag_115\n            /* \"FundToken.sol\":491:499   */\n          dup3\n            /* \"FundToken.sol\":501:508   */\n          dup3\n            /* \"FundToken.sol\":485:490   */\n          tag_116\n            /* \"FundToken.sol\":485:509   */\n          jump\t// in\n        tag_115:\n            /* \"FundToken.sol\":412:515   */\n          pop\n          pop\n          jump\t// out\n            /* \"@openzeppelin/contracts/token/ERC20/ERC20.sol\":3408:3533   */\n        tag_55:\n            /* \"@openzeppelin/contracts/token/ERC20/ERC20.sol\":3482:3489   */\n          0x00\n            /* \"@openzeppelin/contracts/token/ERC20/ERC20.sol\":3508:3517   */\n          0x01\n            /* \"@openzeppelin/contracts/token/ERC20/ERC20.sol\":3508:3526   */\n          0x00\n            /* \"@openzeppelin/contracts/token/ERC20/ERC20.sol\":3518:3525   */\n          dup4\n            /* \"@openzeppelin/contracts/token/ERC20/ERC20.sol\":3508:3526   */\n          0xffffffffffffffffffffffffffffffffffffffff\n          and\n          0xffffffffffffffffffffffffffffffffffffffff\n          and\n          dup2\n          mstore\n          0x20\n          add\n          swap1\n          dup2\n          mstore\n          0x20\n          add\n          0x00\n          keccak256\n          sload\n            /* \"@openzeppelin/contracts/token/ERC20/ERC20.sol\":3501:3526   */\n          swap1\n          pop\n            /* \"@openzeppelin/contracts/token/ERC20/ERC20.sol\":3408:3533   */\n          swap2\n          swap1\n          pop\n          jump\t// out\n            /* \"@openzeppelin/contracts/access/Ownable.sol\":1831:1932   */\n        tag_58:\n            /* \"@openzeppelin/contracts/access/Ownable.sol\":1094:1107   */\n          tag_119\n            /* \"@openzeppelin/contracts/access/Ownable.sol\":1094:1105   */\n          tag_113\n            /* \"@openzeppelin/contracts/access/Ownable.sol\":1094:1107   */\n          jump\t// in\n        tag_119:\n            /* \"@openzeppelin/contracts/access/Ownable.sol\":1895:1925   */\n          tag_121\n            /* \"@openzeppelin/contracts/access/Ownable.sol\":1922:1923   */\n          0x00\n            /* \"@openzeppelin/contracts/access/Ownable.sol\":1895:1913   */\n          tag_122\n            /* \"@openzeppelin/contracts/access/Ownable.sol\":1895:1925   */\n          jump\t// in\n        tag_121:\n            /* \"@openzeppelin/contracts/access/Ownable.sol\":1831:1932   */\n          jump\t// out\n            /* \"@openzeppelin/contracts/access/Ownable.sol\":1201:1286   */\n        tag_60:\n            /* \"@openzeppelin/contracts/access/Ownable.sol\":1247:1254   */\n          0x00\n            /* \"@openzeppelin/contracts/access/Ownable.sol\":1273:1279   */\n          dup1\n          0x00\n          swap1\n          sload\n          swap1\n          0x0100\n          exp\n          swap1\n          div\n          0xffffffffffffffffffffffffffffffffffffffff\n          and\n            /* \"@openzeppelin/contracts/access/Ownable.sol\":1266:1279   */\n          swap1\n          pop\n            /* \"@openzeppelin/contracts/access/Ownable.sol\":1201:1286   */\n          swap1\n          jump\t// out\n            /* \"@openzeppelin/contracts/token/ERC20/ERC20.sol\":2367:2469   */\n        tag_64:\n            /* \"@openzeppelin/contracts/token/ERC20/ERC20.sol\":2423:2436   */\n          0x60\n            /* \"@openzeppelin/contracts/token/ERC20/ERC20.sol\":2455:2462   */\n          0x05\n            /* \"@openzeppelin/contracts/token/ERC20/ERC20.sol\":2448:2462   */\n          dup1\n          sload\n          tag_125\n          swap1\n          tag_87\n          jump\t// in\n        tag_125:\n          dup1\n          0x1f\n          add\n          0x20\n          dup1\n          swap2\n          div\n          mul\n          0x20\n          add\n          mload(0x40)\n          swap1\n          dup2\n          add\n          0x40\n          mstore\n          dup1\n          swap3\n          swap2\n          swap1\n          dup2\n          dup2\n          mstore\n          0x20\n          add\n          dup3\n          dup1\n          sload\n          tag_126\n          swap1\n          tag_87\n          jump\t// in\n        tag_126:\n          dup1\n          iszero\n          tag_127\n          jumpi\n          dup1\n          0x1f\n          lt\n          tag_128\n          jumpi\n          0x0100\n          dup1\n          dup4\n          sload\n          div\n          mul\n          dup4\n          mstore\n          swap2\n          0x20\n          add\n          swap2\n          jump(tag_127)\n        tag_128:\n          dup3\n          add\n          swap2\n          swap1\n          0x00\n          mstore\n          keccak256(0x00, 0x20)\n          swap1\n        tag_129:\n          dup2\n          sload\n          dup2\n          mstore\n          swap1\n          0x01\n          add\n          swap1\n          0x20\n          add\n          dup1\n          dup4\n          gt\n          tag_129\n          jumpi\n          dup3\n          swap1\n          sub\n          0x1f\n          and\n          dup3\n          add\n          swap2\n        tag_127:\n          pop\n          pop\n          pop\n          pop\n          pop\n          swap1\n          pop\n            /* \"@openzeppelin/contracts/token/ERC20/ERC20.sol\":2367:2469   */\n          swap1\n          jump\t// out\n            /* \"FundToken.sol\":521:624   */\n        tag_68:\n            /* \"@openzeppelin/contracts/access/Ownable.sol\":1094:1107   */\n          tag_131\n            /* \"@openzeppelin/contracts/access/Ownable.sol\":1094:1105   */\n          tag_113\n            /* \"@openzeppelin/contracts/access/Ownable.sol\":1094:1107   */\n          jump\t// in\n        tag_131:\n            /* \"FundToken.sol\":594:618   */\n          tag_133\n            /* \"FundToken.sol\":600:608   */\n          dup3\n            /* \"FundToken.sol\":610:617   */\n          dup3\n            /* \"FundToken.sol\":594:599   */\n          tag_134\n            /* \"FundToken.sol\":594:618   */\n          jump\t// in\n        tag_133:\n            /* \"FundToken.sol\":521:624   */\n          pop\n          pop\n          jump\t// out\n            /* \"@openzeppelin/contracts/token/ERC20/ERC20.sol\":6594:7021   */\n        tag_71:\n            /* \"@openzeppelin/contracts/token/ERC20/ERC20.sol\":6687:6691   */\n          0x00\n            /* \"@openzeppelin/contracts/token/ERC20/ERC20.sol\":6703:6716   */\n          dup1\n            /* \"@openzeppelin/contracts/token/ERC20/ERC20.sol\":6719:6731   */\n          tag_136\n            /* \"@openzeppelin/contracts/token/ERC20/ERC20.sol\":6719:6729   */\n          tag_94\n            /* \"@openzeppelin/contracts/token/ERC20/ERC20.sol\":6719:6731   */\n          jump\t// in\n        tag_136:\n            /* \"@openzeppelin/contracts/token/ERC20/ERC20.sol\":6703:6731   */\n          swap1\n          pop\n            /* \"@openzeppelin/contracts/token/ERC20/ERC20.sol\":6741:6765   */\n          0x00\n            /* \"@openzeppelin/contracts/token/ERC20/ERC20.sol\":6768:6793   */\n          tag_137\n            /* \"@openzeppelin/contracts/token/ERC20/ERC20.sol\":6778:6783   */\n          dup3\n            /* \"@openzeppelin/contracts/token/ERC20/ERC20.sol\":6785:6792   */\n          dup7\n            /* \"@openzeppelin/contracts/token/ERC20/ERC20.sol\":6768:6777   */\n          tag_80\n            /* \"@openzeppelin/contracts/token/ERC20/ERC20.sol\":6768:6793   */\n          jump\t// in\n        tag_137:\n            /* \"@openzeppelin/contracts/token/ERC20/ERC20.sol\":6741:6793   */\n          swap1\n          pop\n            /* \"@openzeppelin/contracts/token/ERC20/ERC20.sol\":6831:6846   */\n          dup4\n            /* \"@openzeppelin/contracts/token/ERC20/ERC20.sol\":6811:6827   */\n          dup2\n            /* \"@openzeppelin/contracts/token/ERC20/ERC20.sol\":6811:6846   */\n          lt\n          iszero\n            /* \"@openzeppelin/contracts/token/ERC20/ERC20.sol\":6803:6888   */\n          tag_138\n          jumpi\n          mload(0x40)\n          0x08c379a000000000000000000000000000000000000000000000000000000000\n          dup2\n          mstore\n          0x04\n          add\n          tag_139\n          swap1\n          tag_140\n          jump\t// in\n        tag_139:\n          mload(0x40)\n          dup1\n          swap2\n          sub\n          swap1\n          revert\n        tag_138:\n            /* \"@openzeppelin/contracts/token/ERC20/ERC20.sol\":6922:6982   */\n          tag_141\n            /* \"@openzeppelin/contracts/token/ERC20/ERC20.sol\":6931:6936   */\n          dup3\n            /* \"@openzeppelin/contracts/token/ERC20/ERC20.sol\":6938:6945   */\n          dup7\n            /* \"@openzeppelin/contracts/token/ERC20/ERC20.sol\":6966:6981   */\n          dup7\n            /* \"@openzeppelin/contracts/token/ERC20/ERC20.sol\":6947:6963   */\n          dup5\n            /* \"@openzeppelin/contracts/token/ERC20/ERC20.sol\":6947:6981   */\n          sub\n            /* \"@openzeppelin/contracts/token/ERC20/ERC20.sol\":6922:6930   */\n          tag_96\n            /* \"@openzeppelin/contracts/token/ERC20/ERC20.sol\":6922:6982   */\n          jump\t// in\n        tag_141:\n            /* \"@openzeppelin/contracts/token/ERC20/ERC20.sol\":7010:7014   */\n          0x01\n            /* \"@openzeppelin/contracts/token/ERC20/ERC20.sol\":7003:7014   */\n          swap3\n          pop\n          pop\n          pop\n            /* \"@openzeppelin/contracts/token/ERC20/ERC20.sol\":6594:7021   */\n          swap3\n          swap2\n          pop\n          pop\n          jump\t// out\n            /* \"@openzeppelin/contracts/token/ERC20/ERC20.sol\":3729:3918   */\n        tag_75:\n            /* \"@openzeppelin/contracts/token/ERC20/ERC20.sol\":3808:3812   */\n          0x00\n            /* \"@openzeppelin/contracts/token/ERC20/ERC20.sol\":3824:3837   */\n          dup1\n            /* \"@openzeppelin/contracts/token/ERC20/ERC20.sol\":3840:3852   */\n          tag_143\n            /* \"@openzeppelin/contracts/token/ERC20/ERC20.sol\":3840:3850   */\n          tag_94\n            /* \"@openzeppelin/contracts/token/ERC20/ERC20.sol\":3840:3852   */\n          jump\t// in\n        tag_143:\n            /* \"@openzeppelin/contracts/token/ERC20/ERC20.sol\":3824:3852   */\n          swap1\n          pop\n            /* \"@openzeppelin/contracts/token/ERC20/ERC20.sol\":3862:3890   */\n          tag_144\n            /* \"@openzeppelin/contracts/token/ERC20/ERC20.sol\":3872:3877   */\n          dup2\n            /* \"@openzeppelin/contracts/token/ERC20/ERC20.sol\":3879:3881   */\n          dup6\n            /* \"@openzeppelin/contracts/token/ERC20/ERC20.sol\":3883:3889   */\n          dup6\n            /* \"@openzeppelin/contracts/token/ERC20/ERC20.sol\":3862:3871   */\n          tag_103\n            /* \"@openzeppelin/contracts/token/ERC20/ERC20.sol\":3862:3890   */\n          jump\t// in\n        tag_144:\n            /* \"@openzeppelin/contracts/token/ERC20/ERC20.sol\":3907:3911   */\n          0x01\n            /* \"@openzeppelin/contracts/token/ERC20/ERC20.sol\":3900:3911   */\n          swap2\n          pop\n          pop\n            /* \"@openzeppelin/contracts/token/ERC20/ERC20.sol\":3729:3918   */\n          swap3\n          swap2\n          pop\n          pop\n          jump\t// out\n            /* \"@openzeppelin/contracts/token/ERC20/ERC20.sol\":3976:4125   */\n        tag_80:\n            /* \"@openzeppelin/contracts/token/ERC20/ERC20.sol\":4065:4072   */\n          0x00\n            /* \"@openzeppelin/contracts/token/ERC20/ERC20.sol\":4091:4102   */\n          0x02\n            /* \"@openzeppelin/contracts/token/ERC20/ERC20.sol\":4091:4109   */\n          0x00\n            /* \"@openzeppelin/contracts/token/ERC20/ERC20.sol\":4103:4108   */\n          dup5\n            /* \"@openzeppelin/contracts/token/ERC20/ERC20.sol\":4091:4109   */\n          0xffffffffffffffffffffffffffffffffffffffff\n          and\n          0xffffffffffffffffffffffffffffffffffffffff\n          and\n          dup2\n          mstore\n          0x20\n          add\n          swap1\n          dup2\n          mstore\n          0x20\n          add\n          0x00\n          keccak256\n            /* \"@openzeppelin/contracts/token/ERC20/ERC20.sol\":4091:4118   */\n          0x00\n            /* \"@openzeppelin/contracts/token/ERC20/ERC20.sol\":4110:4117   */\n          dup4\n            /* \"@openzeppelin/contracts/token/ERC20/ERC20.sol\":4091:4118   */\n          0xffffffffffffffffffffffffffffffffffffffff\n          and\n          0xffffffffffffffffffffffffffffffffffffffff\n          and\n          dup2\n          mstore\n          0x20\n          add\n          swap1\n          dup2\n          mstore\n          0x20\n          add\n          0x00\n          keccak256\n          sload\n            /* \"@openzeppelin/contracts/token/ERC20/ERC20.sol\":4084:4118   */\n          swap1\n          pop\n            /* \"@openzeppelin/contracts/token/ERC20/ERC20.sol\":3976:4125   */\n          swap3\n          swap2\n          pop\n          pop\n          jump\t// out\n            /* \"@openzeppelin/contracts/access/Ownable.sol\":2081:2279   */\n        tag_84:\n            /* \"@openzeppelin/contracts/access/Ownable.sol\":1094:1107   */\n          tag_147\n            /* \"@openzeppelin/contracts/access/Ownable.sol\":1094:1105   */\n          tag_113\n            /* \"@openzeppelin/contracts/access/Ownable.sol\":1094:1107   */\n          jump\t// in\n        tag_147:\n            /* \"@openzeppelin/contracts/access/Ownable.sol\":2189:2190   */\n          0x00\n            /* \"@openzeppelin/contracts/access/Ownable.sol\":2169:2191   */\n          0xffffffffffffffffffffffffffffffffffffffff\n          and\n            /* \"@openzeppelin/contracts/access/Ownable.sol\":2169:2177   */\n          dup2\n            /* \"@openzeppelin/contracts/access/Ownable.sol\":2169:2191   */\n          0xffffffffffffffffffffffffffffffffffffffff\n          and\n          sub\n            /* \"@openzeppelin/contracts/access/Ownable.sol\":2161:2234   */\n          tag_149\n          jumpi\n          mload(0x40)\n          0x08c379a000000000000000000000000000000000000000000000000000000000\n          dup2\n          mstore\n          0x04\n          add\n          tag_150\n          swap1\n          tag_151\n          jump\t// in\n        tag_150:\n          mload(0x40)\n          dup1\n          swap2\n          sub\n          swap1\n          revert\n        tag_149:\n            /* \"@openzeppelin/contracts/access/Ownable.sol\":2244:2272   */\n          tag_152\n            /* \"@openzeppelin/contracts/access/Ownable.sol\":2263:2271   */\n          dup2\n            /* \"@openzeppelin/contracts/access/Ownable.sol\":2244:2262   */\n          tag_122\n            /* \"@openzeppelin/contracts/access/Ownable.sol\":2244:2272   */\n          jump\t// in\n        tag_152:\n            /* \"@openzeppelin/contracts/access/Ownable.sol\":2081:2279   */\n          pop\n          jump\t// out\n            /* \"@openzeppelin/contracts/utils/Context.sol\":640:736   */\n        tag_94:\n            /* \"@openzeppelin/contracts/utils/Context.sol\":693:700   */\n          0x00\n            /* \"@openzeppelin/contracts/utils/Context.sol\":719:729   */\n          caller\n            /* \"@openzeppelin/contracts/utils/Context.sol\":712:729   */\n          swap1\n          pop\n            /* \"@openzeppelin/contracts/utils/Context.sol\":640:736   */\n          swap1\n          jump\t// out\n            /* \"@openzeppelin/contracts/token/ERC20/ERC20.sol\":10110:10480   */\n        tag_96:\n            /* \"@openzeppelin/contracts/token/ERC20/ERC20.sol\":10258:10259   */\n          0x00\n            /* \"@openzeppelin/contracts/token/ERC20/ERC20.sol\":10241:10260   */\n          0xffffffffffffffffffffffffffffffffffffffff\n          and\n            /* \"@openzeppelin/contracts/token/ERC20/ERC20.sol\":10241:10246   */\n          dup4\n            /* \"@openzeppelin/contracts/token/ERC20/ERC20.sol\":10241:10260   */\n          0xffffffffffffffffffffffffffffffffffffffff\n          and\n          sub\n            /* \"@openzeppelin/contracts/token/ERC20/ERC20.sol\":10233:10301   */\n          tag_155\n          jumpi\n          mload(0x40)\n          0x08c379a000000000000000000000000000000000000000000000000000000000\n          dup2\n          mstore\n          0x04\n          add\n          tag_156\n          swap1\n          tag_157\n          jump\t// in\n        tag_156:\n          mload(0x40)\n          dup1\n          swap2\n          sub\n          swap1\n          revert\n        tag_155:\n            /* \"@openzeppelin/contracts/token/ERC20/ERC20.sol\":10338:10339   */\n          0x00\n            /* \"@openzeppelin/contracts/token/ERC20/ERC20.sol\":10319:10340   */\n          0xffffffffffffffffffffffffffffffffffffffff\n          and\n            /* \"@openzeppelin/contracts/token/ERC20/ERC20.sol\":10319:10326   */\n          dup3\n            /* \"@openzeppelin/contracts/token/ERC20/ERC20.sol\":10319:10340   */\n          0xffffffffffffffffffffffffffffffffffffffff\n          and\n          sub\n            /* \"@openzeppelin/contracts/token/ERC20/ERC20.sol\":10311:10379   */\n          tag_158\n          jumpi\n          mload(0x40)\n          0x08c379a000000000000000000000000000000000000000000000000000000000\n          dup2\n          mstore\n          0x04\n          add\n          tag_159\n          swap1\n          tag_160\n          jump\t// in\n        tag_159:\n          mload(0x40)\n          dup1\n          swap2\n          sub\n          swap1\n          revert\n        tag_158:\n            /* \"@openzeppelin/contracts/token/ERC20/ERC20.sol\":10420:10426   */\n          dup1\n            /* \"@openzeppelin/contracts/token/ERC20/ERC20.sol\":10390:10401   */\n          0x02\n            /* \"@openzeppelin/contracts/token/ERC20/ERC20.sol\":10390:10408   */\n          0x00\n            /* \"@openzeppelin/contracts/token/ERC20/ERC20.sol\":10402:10407   */\n          dup6\n            /* \"@openzeppelin/contracts/token/ERC20/ERC20.sol\":10390:10408   */\n          0xffffffffffffffffffffffffffffffffffffffff\n          and\n          0xffffffffffffffffffffffffffffffffffffffff\n          and\n          dup2\n          mstore\n          0x20\n          add\n          swap1\n          dup2\n          mstore\n          0x20\n          add\n          0x00\n          keccak256\n            /* \"@openzeppelin/contracts/token/ERC20/ERC20.sol\":10390:10417   */\n          0x00\n            /* \"@openzeppelin/contracts/token/ERC20/ERC20.sol\":10409:10416   */\n          dup5\n            /* \"@openzeppelin/contracts/token/ERC20/ERC20.sol\":10390:10417   */\n          0xffffffffffffffffffffffffffffffffffffffff\n          and\n          0xffffffffffffffffffffffffffffffffffffffff\n          and\n          dup2\n          mstore\n          0x20\n          add\n          swap1\n          dup2\n          mstore\n          0x20\n          add\n          0x00\n          keccak256\n            /* \"@openzeppelin/contracts/token/ERC20/ERC20.sol\":10390:10426   */\n          dup2\n          swap1\n          sstore\n          pop\n            /* \"@openzeppelin/contracts/token/ERC20/ERC20.sol\":10457:10464   */\n          dup2\n            /* \"@openzeppelin/contracts/token/ERC20/ERC20.sol\":10441:10473   */\n          0xffffffffffffffffffffffffffffffffffffffff\n          and\n            /* \"@openzeppelin/contracts/token/ERC20/ERC20.sol\":10450:10455   */\n          dup4\n            /* \"@openzeppelin/contracts/token/ERC20/ERC20.sol\":10441:10473   */\n          0xffffffffffffffffffffffffffffffffffffffff\n          and\n          0x8c5be1e5ebec7d5bd14f71427d1e84f3dd0314c0f7b2291e5b200ac8c7c3b925\n            /* \"@openzeppelin/contracts/token/ERC20/ERC20.sol\":10466:10472   */\n          dup4\n            /* \"@openzeppelin/contracts/token/ERC20/ERC20.sol\":10441:10473   */\n          mload(0x40)\n          tag_161\n          swap2\n          swap1\n          tag_35\n          jump\t// in\n        tag_161:\n          mload(0x40)\n          dup1\n          swap2\n          sub\n          swap1\n          log3\n            /* \"@openzeppelin/contracts/token/ERC20/ERC20.sol\":10110:10480   */\n          pop\n          pop\n          pop\n          jump\t// out\n            /* \"@openzeppelin/contracts/token/ERC20/ERC20.sol\":10761:11202   */\n        tag_101:\n            /* \"@openzeppelin/contracts/token/ERC20/ERC20.sol\":10891:10915   */\n          0x00\n            /* \"@openzeppelin/contracts/token/ERC20/ERC20.sol\":10918:10943   */\n          tag_163\n            /* \"@openzeppelin/contracts/token/ERC20/ERC20.sol\":10928:10933   */\n          dup5\n            /* \"@openzeppelin/contracts/token/ERC20/ERC20.sol\":10935:10942   */\n          dup5\n            /* \"@openzeppelin/contracts/token/ERC20/ERC20.sol\":10918:10927   */\n          tag_80\n            /* \"@openzeppelin/contracts/token/ERC20/ERC20.sol\":10918:10943   */\n          jump\t// in\n        tag_163:\n            /* \"@openzeppelin/contracts/token/ERC20/ERC20.sol\":10891:10943   */\n          swap1\n          pop\n            /* \"@openzeppelin/contracts/token/ERC20/ERC20.sol\":10977:10994   */\n          0xffffffffffffffffffffffffffffffffffffffffffffffffffffffffffffffff\n            /* \"@openzeppelin/contracts/token/ERC20/ERC20.sol\":10957:10973   */\n          dup2\n            /* \"@openzeppelin/contracts/token/ERC20/ERC20.sol\":10957:10994   */\n          eq\n            /* \"@openzeppelin/contracts/token/ERC20/ERC20.sol\":10953:11196   */\n          tag_164\n          jumpi\n            /* \"@openzeppelin/contracts/token/ERC20/ERC20.sol\":11038:11044   */\n          dup2\n            /* \"@openzeppelin/contracts/token/ERC20/ERC20.sol\":11018:11034   */\n          dup2\n            /* \"@openzeppelin/contracts/token/ERC20/ERC20.sol\":11018:11044   */\n          lt\n          iszero\n            /* \"@openzeppelin/contracts/token/ERC20/ERC20.sol\":11010:11078   */\n          tag_165\n          jumpi\n          mload(0x40)\n          0x08c379a000000000000000000000000000000000000000000000000000000000\n          dup2\n          mstore\n          0x04\n          add\n          tag_166\n          swap1\n          tag_167\n          jump\t// in\n        tag_166:\n          mload(0x40)\n          dup1\n          swap2\n          sub\n          swap1\n          revert\n        tag_165:\n            /* \"@openzeppelin/contracts/token/ERC20/ERC20.sol\":11120:11171   */\n          tag_168\n            /* \"@openzeppelin/contracts/token/ERC20/ERC20.sol\":11129:11134   */\n          dup5\n            /* \"@openzeppelin/contracts/token/ERC20/ERC20.sol\":11136:11143   */\n          dup5\n            /* \"@openzeppelin/contracts/token/ERC20/ERC20.sol\":11164:11170   */\n          dup5\n            /* \"@openzeppelin/contracts/token/ERC20/ERC20.sol\":11145:11161   */\n          dup5\n            /* \"@openzeppelin/contracts/token/ERC20/ERC20.sol\":11145:11170   */\n          sub\n            /* \"@openzeppelin/contracts/token/ERC20/ERC20.sol\":11120:11128   */\n          tag_96\n            /* \"@openzeppelin/contracts/token/ERC20/ERC20.sol\":11120:11171   */\n          jump\t// in\n        tag_168:\n            /* \"@openzeppelin/contracts/token/ERC20/ERC20.sol\":10953:11196   */\n        tag_164:\n            /* \"@openzeppelin/contracts/token/ERC20/ERC20.sol\":10881:11202   */\n          pop\n            /* \"@openzeppelin/contracts/token/ERC20/ERC20.sol\":10761:11202   */\n          pop\n          pop\n          pop\n          jump\t// out\n            /* \"@openzeppelin/contracts/token/ERC20/ERC20.sol\":7475:8126   */\n        tag_103:\n            /* \"@openzeppelin/contracts/token/ERC20/ERC20.sol\":7617:7618   */\n          0x00\n            /* \"@openzeppelin/contracts/token/ERC20/ERC20.sol\":7601:7619   */\n          0xffffffffffffffffffffffffffffffffffffffff\n          and\n            /* \"@openzeppelin/contracts/token/ERC20/ERC20.sol\":7601:7605   */\n          dup4\n            /* \"@openzeppelin/contracts/token/ERC20/ERC20.sol\":7601:7619   */\n          0xffffffffffffffffffffffffffffffffffffffff\n          and\n          sub\n            /* \"@openzeppelin/contracts/token/ERC20/ERC20.sol\":7593:7661   */\n          tag_170\n          jumpi\n          mload(0x40)\n          0x08c379a000000000000000000000000000000000000000000000000000000000\n          dup2\n          mstore\n          0x04\n          add\n          tag_171\n          swap1\n          tag_172\n          jump\t// in\n        tag_171:\n          mload(0x40)\n          dup1\n          swap2\n          sub\n          swap1\n          revert\n        tag_170:\n            /* \"@openzeppelin/contracts/token/ERC20/ERC20.sol\":7693:7694   */\n          0x00\n            /* \"@openzeppelin/contracts/token/ERC20/ERC20.sol\":7679:7695   */\n          0xffffffffffffffffffffffffffffffffffffffff\n          and\n            /* \"@openzeppelin/contracts/token/ERC20/ERC20.sol\":7679:7681   */\n          dup3\n            /* \"@openzeppelin/contracts/token/ERC20/ERC20.sol\":7679:7695   */\n          0xffffffffffffffffffffffffffffffffffffffff\n          and\n          sub\n            /* \"@openzeppelin/contracts/token/ERC20/ERC20.sol\":7671:7735   */\n          tag_173\n          jumpi\n          mload(0x40)\n          0x08c379a000000000000000000000000000000000000000000000000000000000\n          dup2\n          mstore\n          0x04\n          add\n          tag_174\n          swap1\n          tag_175\n          jump\t// in\n        tag_174:\n          mload(0x40)\n          dup1\n          swap2\n          sub\n          swap1\n          revert\n        tag_173:\n            /* \"@openzeppelin/contracts/token/ERC20/ERC20.sol\":7746:7784   */\n          tag_176\n            /* \"@openzeppelin/contracts/token/ERC20/ERC20.sol\":7767:7771   */\n          dup4\n            /* \"@openzeppelin/contracts/token/ERC20/ERC20.sol\":7773:7775   */\n          dup4\n            /* \"@openzeppelin/contracts/token/ERC20/ERC20.sol\":7777:7783   */\n          dup4\n            /* \"@openzeppelin/contracts/token/ERC20/ERC20.sol\":7746:7766   */\n          tag_177\n            /* \"@openzeppelin/contracts/token/ERC20/ERC20.sol\":7746:7784   */\n          jump\t// in\n        tag_176:\n            /* \"@openzeppelin/contracts/token/ERC20/ERC20.sol\":7795:7814   */\n          0x00\n            /* \"@openzeppelin/contracts/token/ERC20/ERC20.sol\":7817:7826   */\n          0x01\n            /* \"@openzeppelin/contracts/token/ERC20/ERC20.sol\":7817:7832   */\n          0x00\n            /* \"@openzeppelin/contracts/token/ERC20/ERC20.sol\":7827:7831   */\n          dup6\n            /* \"@openzeppelin/contracts/token/ERC20/ERC20.sol\":7817:7832   */\n          0xffffffffffffffffffffffffffffffffffffffff\n          and\n          0xffffffffffffffffffffffffffffffffffffffff\n          and\n          dup2\n          mstore\n          0x20\n          add\n          swap1\n          dup2\n          mstore\n          0x20\n          add\n          0x00\n          keccak256\n          sload\n            /* \"@openzeppelin/contracts/token/ERC20/ERC20.sol\":7795:7832   */\n          swap1\n          pop\n            /* \"@openzeppelin/contracts/token/ERC20/ERC20.sol\":7865:7871   */\n          dup2\n            /* \"@openzeppelin/contracts/token/ERC20/ERC20.sol\":7850:7861   */\n          dup2\n            /* \"@openzeppelin/contracts/token/ERC20/ERC20.sol\":7850:7871   */\n          lt\n          iszero\n            /* \"@openzeppelin/contracts/token/ERC20/ERC20.sol\":7842:7914   */\n          tag_178\n          jumpi\n          mload(0x40)\n          0x08c379a000000000000000000000000000000000000000000000000000000000\n          dup2\n          mstore\n          0x04\n          add\n          tag_179\n          swap1\n          tag_180\n          jump\t// in\n        tag_179:\n          mload(0x40)\n          dup1\n          swap2\n          sub\n          swap1\n          revert\n        tag_178:\n            /* \"@openzeppelin/contracts/token/ERC20/ERC20.sol\":7980:7986   */\n          dup2\n            /* \"@openzeppelin/contracts/token/ERC20/ERC20.sol\":7966:7977   */\n          dup2\n            /* \"@openzeppelin/contracts/token/ERC20/ERC20.sol\":7966:7986   */\n          sub\n            /* \"@openzeppelin/contracts/token/ERC20/ERC20.sol\":7948:7957   */\n          0x01\n            /* \"@openzeppelin/contracts/token/ERC20/ERC20.sol\":7948:7963   */\n          0x00\n            /* \"@openzeppelin/contracts/token/ERC20/ERC20.sol\":7958:7962   */\n          dup7\n            /* \"@openzeppelin/contracts/token/ERC20/ERC20.sol\":7948:7963   */\n          0xffffffffffffffffffffffffffffffffffffffff\n          and\n          0xffffffffffffffffffffffffffffffffffffffff\n          and\n          dup2\n          mstore\n          0x20\n          add\n          swap1\n          dup2\n          mstore\n          0x20\n          add\n          0x00\n          keccak256\n            /* \"@openzeppelin/contracts/token/ERC20/ERC20.sol\":7948:7986   */\n          dup2\n          swap1\n          sstore\n          pop\n            /* \"@openzeppelin/contracts/token/ERC20/ERC20.sol\":8023:8029   */\n          dup2\n            /* \"@openzeppelin/contracts/token/ERC20/ERC20.sol\":8006:8015   */\n          0x01\n            /* \"@openzeppelin/contracts/token/ERC20/ERC20.sol\":8006:8019   */\n          0x00\n            /* \"@openzeppelin/contracts/token/ERC20/ERC20.sol\":8016:8018   */\n          dup6\n            /* \"@openzeppelin/contracts/token/ERC20/ERC20.sol\":8006:8019   */\n          0xffffffffffffffffffffffffffffffffffffffff\n          and\n          0xffffffffffffffffffffffffffffffffffffffff\n          and\n          dup2\n          mstore\n          0x20\n          add\n          swap1\n          dup2\n          mstore\n          0x20\n          add\n          0x00\n          keccak256\n          0x00\n            /* \"@openzeppelin/contracts/token/ERC20/ERC20.sol\":8006:8029   */\n          dup3\n          dup3\n          sload\n          tag_181\n          swap2\n          swap1\n          tag_110\n          jump\t// in\n        tag_181:\n          swap3\n          pop\n          pop\n          dup2\n          swap1\n          sstore\n          pop\n            /* \"@openzeppelin/contracts/token/ERC20/ERC20.sol\":8060:8062   */\n          dup3\n            /* \"@openzeppelin/contracts/token/ERC20/ERC20.sol\":8045:8071   */\n          0xffffffffffffffffffffffffffffffffffffffff\n          and\n            /* \"@openzeppelin/contracts/token/ERC20/ERC20.sol\":8054:8058   */\n          dup5\n            /* \"@openzeppelin/contracts/token/ERC20/ERC20.sol\":8045:8071   */\n          0xffffffffffffffffffffffffffffffffffffffff\n          and\n          0xddf252ad1be2c89b69c2b068fc378daa952ba7f163c4a11628f55a4df523b3ef\n            /* \"@openzeppelin/contracts/token/ERC20/ERC20.sol\":8064:8070   */\n          dup5\n            /* \"@openzeppelin/contracts/token/ERC20/ERC20.sol\":8045:8071   */\n          mload(0x40)\n          tag_182\n          swap2\n          swap1\n          tag_35\n          jump\t// in\n        tag_182:\n          mload(0x40)\n          dup1\n          swap2\n          sub\n          swap1\n          log3\n            /* \"@openzeppelin/contracts/token/ERC20/ERC20.sol\":8082:8119   */\n          tag_183\n            /* \"@openzeppelin/contracts/token/ERC20/ERC20.sol\":8102:8106   */\n          dup5\n            /* \"@openzeppelin/contracts/token/ERC20/ERC20.sol\":8108:8110   */\n          dup5\n            /* \"@openzeppelin/contracts/token/ERC20/ERC20.sol\":8112:8118   */\n          dup5\n            /* \"@openzeppelin/contracts/token/ERC20/ERC20.sol\":8082:8101   */\n          tag_184\n            /* \"@openzeppelin/contracts/token/ERC20/ERC20.sol\":8082:8119   */\n          jump\t// in\n        tag_183:\n            /* \"@openzeppelin/contracts/token/ERC20/ERC20.sol\":7583:8126   */\n          pop\n            /* \"@openzeppelin/contracts/token/ERC20/ERC20.sol\":7475:8126   */\n          pop\n          pop\n          pop\n          jump\t// out\n            /* \"@openzeppelin/contracts/access/Ownable.sol\":1359:1489   */\n        tag_113:\n            /* \"@openzeppelin/contracts/access/Ownable.sol\":1433:1445   */\n          tag_186\n            /* \"@openzeppelin/contracts/access/Ownable.sol\":1433:1443   */\n          tag_94\n            /* \"@openzeppelin/contracts/access/Ownable.sol\":1433:1445   */\n          jump\t// in\n        tag_186:\n            /* \"@openzeppelin/contracts/access/Ownable.sol\":1422:1445   */\n          0xffffffffffffffffffffffffffffffffffffffff\n          and\n            /* \"@openzeppelin/contracts/access/Ownable.sol\":1422:1429   */\n          tag_187\n            /* \"@openzeppelin/contracts/access/Ownable.sol\":1422:1427   */\n          tag_60\n            /* \"@openzeppelin/contracts/access/Ownable.sol\":1422:1429   */\n          jump\t// in\n        tag_187:\n            /* \"@openzeppelin/contracts/access/Ownable.sol\":1422:1445   */\n          0xffffffffffffffffffffffffffffffffffffffff\n          and\n          eq\n            /* \"@openzeppelin/contracts/access/Ownable.sol\":1414:1482   */\n          tag_188\n          jumpi\n          mload(0x40)\n          0x08c379a000000000000000000000000000000000000000000000000000000000\n          dup2\n          mstore\n          0x04\n          add\n          tag_189\n          swap1\n          tag_190\n          jump\t// in\n        tag_189:\n          mload(0x40)\n          dup1\n          swap2\n          sub\n          swap1\n          revert\n        tag_188:\n            /* \"@openzeppelin/contracts/access/Ownable.sol\":1359:1489   */\n          jump\t// out\n            /* \"@openzeppelin/contracts/token/ERC20/ERC20.sol\":8402:8791   */\n        tag_116:\n            /* \"@openzeppelin/contracts/token/ERC20/ERC20.sol\":8504:8505   */\n          0x00\n            /* \"@openzeppelin/contracts/token/ERC20/ERC20.sol\":8485:8506   */\n          0xffffffffffffffffffffffffffffffffffffffff\n          and\n            /* \"@openzeppelin/contracts/token/ERC20/ERC20.sol\":8485:8492   */\n          dup3\n            /* \"@openzeppelin/contracts/token/ERC20/ERC20.sol\":8485:8506   */\n          0xffffffffffffffffffffffffffffffffffffffff\n          and\n          sub\n            /* \"@openzeppelin/contracts/token/ERC20/ERC20.sol\":8477:8542   */\n          tag_192\n          jumpi\n          mload(0x40)\n          0x08c379a000000000000000000000000000000000000000000000000000000000\n          dup2\n          mstore\n          0x04\n          add\n          tag_193\n          swap1\n          tag_194\n          jump\t// in\n        tag_193:\n          mload(0x40)\n          dup1\n          swap2\n          sub\n          swap1\n          revert\n        tag_192:\n            /* \"@openzeppelin/contracts/token/ERC20/ERC20.sol\":8553:8602   */\n          tag_195\n            /* \"@openzeppelin/contracts/token/ERC20/ERC20.sol\":8582:8583   */\n          0x00\n            /* \"@openzeppelin/contracts/token/ERC20/ERC20.sol\":8586:8593   */\n          dup4\n            /* \"@openzeppelin/contracts/token/ERC20/ERC20.sol\":8595:8601   */\n          dup4\n            /* \"@openzeppelin/contracts/token/ERC20/ERC20.sol\":8553:8573   */\n          tag_177\n            /* \"@openzeppelin/contracts/token/ERC20/ERC20.sol\":8553:8602   */\n          jump\t// in\n        tag_195:\n            /* \"@openzeppelin/contracts/token/ERC20/ERC20.sol\":8629:8635   */\n          dup1\n            /* \"@openzeppelin/contracts/token/ERC20/ERC20.sol\":8613:8625   */\n          0x03\n          0x00\n            /* \"@openzeppelin/contracts/token/ERC20/ERC20.sol\":8613:8635   */\n          dup3\n          dup3\n          sload\n          tag_196\n          swap2\n          swap1\n          tag_110\n          jump\t// in\n        tag_196:\n          swap3\n          pop\n          pop\n          dup2\n          swap1\n          sstore\n          pop\n            /* \"@openzeppelin/contracts/token/ERC20/ERC20.sol\":8667:8673   */\n          dup1\n            /* \"@openzeppelin/contracts/token/ERC20/ERC20.sol\":8645:8654   */\n          0x01\n            /* \"@openzeppelin/contracts/token/ERC20/ERC20.sol\":8645:8663   */\n          0x00\n            /* \"@openzeppelin/contracts/token/ERC20/ERC20.sol\":8655:8662   */\n          dup5\n            /* \"@openzeppelin/contracts/token/ERC20/ERC20.sol\":8645:8663   */\n          0xffffffffffffffffffffffffffffffffffffffff\n          and\n          0xffffffffffffffffffffffffffffffffffffffff\n          and\n          dup2\n          mstore\n          0x20\n          add\n          swap1\n          dup2\n          mstore\n          0x20\n          add\n          0x00\n          keccak256\n          0x00\n            /* \"@openzeppelin/contracts/token/ERC20/ERC20.sol\":8645:8673   */\n          dup3\n          dup3\n          sload\n          tag_197\n          swap2\n          swap1\n          tag_110\n          jump\t// in\n        tag_197:\n          swap3\n          pop\n          pop\n          dup2\n          swap1\n          sstore\n          pop\n            /* \"@openzeppelin/contracts/token/ERC20/ERC20.sol\":8709:8716   */\n          dup2\n            /* \"@openzeppelin/contracts/token/ERC20/ERC20.sol\":8688:8725   */\n          0xffffffffffffffffffffffffffffffffffffffff\n          and\n            /* \"@openzeppelin/contracts/token/ERC20/ERC20.sol\":8705:8706   */\n          0x00\n            /* \"@openzeppelin/contracts/token/ERC20/ERC20.sol\":8688:8725   */\n          0xffffffffffffffffffffffffffffffffffffffff\n          and\n          0xddf252ad1be2c89b69c2b068fc378daa952ba7f163c4a11628f55a4df523b3ef\n            /* \"@openzeppelin/contracts/token/ERC20/ERC20.sol\":8718:8724   */\n          dup4\n            /* \"@openzeppelin/contracts/token/ERC20/ERC20.sol\":8688:8725   */\n          mload(0x40)\n          tag_198\n          swap2\n          swap1\n          tag_35\n          jump\t// in\n        tag_198:\n          mload(0x40)\n          dup1\n          swap2\n          sub\n          swap1\n          log3\n            /* \"@openzeppelin/contracts/token/ERC20/ERC20.sol\":8736:8784   */\n          tag_199\n            /* \"@openzeppelin/contracts/token/ERC20/ERC20.sol\":8764:8765   */\n          0x00\n            /* \"@openzeppelin/contracts/token/ERC20/ERC20.sol\":8768:8775   */\n          dup4\n            /* \"@openzeppelin/contracts/token/ERC20/ERC20.sol\":8777:8783   */\n          dup4\n            /* \"@openzeppelin/contracts/token/ERC20/ERC20.sol\":8736:8755   */\n          tag_184\n            /* \"@openzeppelin/contracts/token/ERC20/ERC20.sol\":8736:8784   */\n          jump\t// in\n        tag_199:\n            /* \"@openzeppelin/contracts/token/ERC20/ERC20.sol\":8402:8791   */\n          pop\n          pop\n          jump\t// out\n            /* \"@openzeppelin/contracts/access/Ownable.sol\":2433:2620   */\n        tag_122:\n            /* \"@openzeppelin/contracts/access/Ownable.sol\":2506:2522   */\n          0x00\n            /* \"@openzeppelin/contracts/access/Ownable.sol\":2525:2531   */\n          dup1\n          0x00\n          swap1\n          sload\n          swap1\n          0x0100\n          exp\n          swap1\n          div\n          0xffffffffffffffffffffffffffffffffffffffff\n          and\n            /* \"@openzeppelin/contracts/access/Ownable.sol\":2506:2531   */\n          swap1\n          pop\n            /* \"@openzeppelin/contracts/access/Ownable.sol\":2550:2558   */\n          dup2\n            /* \"@openzeppelin/contracts/access/Ownable.sol\":2541:2547   */\n          0x00\n          dup1\n            /* \"@openzeppelin/contracts/access/Ownable.sol\":2541:2558   */\n          0x0100\n          exp\n          dup2\n          sload\n          dup2\n          0xffffffffffffffffffffffffffffffffffffffff\n          mul\n          not\n          and\n          swap1\n          dup4\n          0xffffffffffffffffffffffffffffffffffffffff\n          and\n          mul\n          or\n          swap1\n          sstore\n          pop\n            /* \"@openzeppelin/contracts/access/Ownable.sol\":2604:2612   */\n          dup2\n            /* \"@openzeppelin/contracts/access/Ownable.sol\":2573:2613   */\n          0xffffffffffffffffffffffffffffffffffffffff\n          and\n            /* \"@openzeppelin/contracts/access/Ownable.sol\":2594:2602   */\n          dup2\n            /* \"@openzeppelin/contracts/access/Ownable.sol\":2573:2613   */\n          0xffffffffffffffffffffffffffffffffffffffff\n          and\n          0x8be0079c531659141344cd1fd0a4f28419497f9722a3daafe3b4186f6b6457e0\n          mload(0x40)\n          mload(0x40)\n          dup1\n          swap2\n          sub\n          swap1\n          log3\n            /* \"@openzeppelin/contracts/access/Ownable.sol\":2496:2620   */\n          pop\n            /* \"@openzeppelin/contracts/access/Ownable.sol\":2433:2620   */\n          pop\n          jump\t// out\n            /* \"@openzeppelin/contracts/token/ERC20/ERC20.sol\":9111:9687   */\n        tag_134:\n            /* \"@openzeppelin/contracts/token/ERC20/ERC20.sol\":9213:9214   */\n          0x00\n            /* \"@openzeppelin/contracts/token/ERC20/ERC20.sol\":9194:9215   */\n          0xffffffffffffffffffffffffffffffffffffffff\n          and\n            /* \"@openzeppelin/contracts/token/ERC20/ERC20.sol\":9194:9201   */\n          dup3\n            /* \"@openzeppelin/contracts/token/ERC20/ERC20.sol\":9194:9215   */\n          0xffffffffffffffffffffffffffffffffffffffff\n          and\n          sub\n            /* \"@openzeppelin/contracts/token/ERC20/ERC20.sol\":9186:9253   */\n          tag_202\n          jumpi\n          mload(0x40)\n          0x08c379a000000000000000000000000000000000000000000000000000000000\n          dup2\n          mstore\n          0x04\n          add\n          tag_203\n          swap1\n          tag_204\n          jump\t// in\n        tag_203:\n          mload(0x40)\n          dup1\n          swap2\n          sub\n          swap1\n          revert\n        tag_202:\n            /* \"@openzeppelin/contracts/token/ERC20/ERC20.sol\":9264:9313   */\n          tag_205\n            /* \"@openzeppelin/contracts/token/ERC20/ERC20.sol\":9285:9292   */\n          dup3\n            /* \"@openzeppelin/contracts/token/ERC20/ERC20.sol\":9302:9303   */\n          0x00\n            /* \"@openzeppelin/contracts/token/ERC20/ERC20.sol\":9306:9312   */\n          dup4\n            /* \"@openzeppelin/contracts/token/ERC20/ERC20.sol\":9264:9284   */\n          tag_177\n            /* \"@openzeppelin/contracts/token/ERC20/ERC20.sol\":9264:9313   */\n          jump\t// in\n        tag_205:\n            /* \"@openzeppelin/contracts/token/ERC20/ERC20.sol\":9324:9346   */\n          0x00\n            /* \"@openzeppelin/contracts/token/ERC20/ERC20.sol\":9349:9358   */\n          0x01\n            /* \"@openzeppelin/contracts/token/ERC20/ERC20.sol\":9349:9367   */\n          0x00\n            /* \"@openzeppelin/contracts/token/ERC20/ERC20.sol\":9359:9366   */\n          dup5\n            /* \"@openzeppelin/contracts/token/ERC20/ERC20.sol\":9349:9367   */\n          0xffffffffffffffffffffffffffffffffffffffff\n          and\n          0xffffffffffffffffffffffffffffffffffffffff\n          and\n          dup2\n          mstore\n          0x20\n          add\n          swap1\n          dup2\n          mstore\n          0x20\n          add\n          0x00\n          keccak256\n          sload\n            /* \"@openzeppelin/contracts/token/ERC20/ERC20.sol\":9324:9367   */\n          swap1\n          pop\n            /* \"@openzeppelin/contracts/token/ERC20/ERC20.sol\":9403:9409   */\n          dup2\n            /* \"@openzeppelin/contracts/token/ERC20/ERC20.sol\":9385:9399   */\n          dup2\n            /* \"@openzeppelin/contracts/token/ERC20/ERC20.sol\":9385:9409   */\n          lt\n          iszero\n            /* \"@openzeppelin/contracts/token/ERC20/ERC20.sol\":9377:9448   */\n          tag_206\n          jumpi\n          mload(0x40)\n          0x08c379a000000000000000000000000000000000000000000000000000000000\n          dup2\n          mstore\n          0x04\n          add\n          tag_207\n          swap1\n          tag_208\n          jump\t// in\n        tag_207:\n          mload(0x40)\n          dup1\n          swap2\n          sub\n          swap1\n          revert\n        tag_206:\n            /* \"@openzeppelin/contracts/token/ERC20/ERC20.sol\":9520:9526   */\n          dup2\n            /* \"@openzeppelin/contracts/token/ERC20/ERC20.sol\":9503:9517   */\n          dup2\n            /* \"@openzeppelin/contracts/token/ERC20/ERC20.sol\":9503:9526   */\n          sub\n            /* \"@openzeppelin/contracts/token/ERC20/ERC20.sol\":9482:9491   */\n          0x01\n            /* \"@openzeppelin/contracts/token/ERC20/ERC20.sol\":9482:9500   */\n          0x00\n            /* \"@openzeppelin/contracts/token/ERC20/ERC20.sol\":9492:9499   */\n          dup6\n            /* \"@openzeppelin/contracts/token/ERC20/ERC20.sol\":9482:9500   */\n          0xffffffffffffffffffffffffffffffffffffffff\n          and\n          0xffffffffffffffffffffffffffffffffffffffff\n          and\n          dup2\n          mstore\n          0x20\n          add\n          swap1\n          dup2\n          mstore\n          0x20\n          add\n          0x00\n          keccak256\n            /* \"@openzeppelin/contracts/token/ERC20/ERC20.sol\":9482:9526   */\n          dup2\n          swap1\n          sstore\n          pop\n            /* \"@openzeppelin/contracts/token/ERC20/ERC20.sol\":9562:9568   */\n          dup2\n            /* \"@openzeppelin/contracts/token/ERC20/ERC20.sol\":9546:9558   */\n          0x03\n          0x00\n            /* \"@openzeppelin/contracts/token/ERC20/ERC20.sol\":9546:9568   */\n          dup3\n          dup3\n          sload\n          tag_209\n          swap2\n          swap1\n          tag_210\n          jump\t// in\n        tag_209:\n          swap3\n          pop\n          pop\n          dup2\n          swap1\n          sstore\n          pop\n            /* \"@openzeppelin/contracts/token/ERC20/ERC20.sol\":9610:9611   */\n          0x00\n            /* \"@openzeppelin/contracts/token/ERC20/ERC20.sol\":9584:9621   */\n          0xffffffffffffffffffffffffffffffffffffffff\n          and\n            /* \"@openzeppelin/contracts/token/ERC20/ERC20.sol\":9593:9600   */\n          dup4\n            /* \"@openzeppelin/contracts/token/ERC20/ERC20.sol\":9584:9621   */\n          0xffffffffffffffffffffffffffffffffffffffff\n          and\n          0xddf252ad1be2c89b69c2b068fc378daa952ba7f163c4a11628f55a4df523b3ef\n            /* \"@openzeppelin/contracts/token/ERC20/ERC20.sol\":9614:9620   */\n          dup5\n            /* \"@openzeppelin/contracts/token/ERC20/ERC20.sol\":9584:9621   */\n          mload(0x40)\n          tag_211\n          swap2\n          swap1\n          tag_35\n          jump\t// in\n        tag_211:\n          mload(0x40)\n          dup1\n          swap2\n          sub\n          swap1\n          log3\n            /* \"@openzeppelin/contracts/token/ERC20/ERC20.sol\":9632:9680   */\n          tag_212\n            /* \"@openzeppelin/contracts/token/ERC20/ERC20.sol\":9652:9659   */\n          dup4\n            /* \"@openzeppelin/contracts/token/ERC20/ERC20.sol\":9669:9670   */\n          0x00\n            /* \"@openzeppelin/contracts/token/ERC20/ERC20.sol\":9673:9679   */\n          dup5\n            /* \"@openzeppelin/contracts/token/ERC20/ERC20.sol\":9632:9651   */\n          tag_184\n            /* \"@openzeppelin/contracts/token/ERC20/ERC20.sol\":9632:9680   */\n          jump\t// in\n        tag_212:\n            /* \"@openzeppelin/contracts/token/ERC20/ERC20.sol\":9176:9687   */\n          pop\n            /* \"@openzeppelin/contracts/token/ERC20/ERC20.sol\":9111:9687   */\n          pop\n          pop\n          jump\t// out\n            /* \"@openzeppelin/contracts/token/ERC20/ERC20.sol\":11786:11907   */\n        tag_177:\n          pop\n          pop\n          pop\n          jump\t// out\n            /* \"@openzeppelin/contracts/token/ERC20/ERC20.sol\":12495:12615   */\n        tag_184:\n          pop\n          pop\n          pop\n          jump\t// out\n            /* \"#utility.yul\":7:106   */\n        tag_215:\n            /* \"#utility.yul\":59:65   */\n          0x00\n            /* \"#utility.yul\":93:98   */\n          dup2\n            /* \"#utility.yul\":87:99   */\n          mload\n            /* \"#utility.yul\":77:99   */\n          swap1\n          pop\n            /* \"#utility.yul\":7:106   */\n          swap2\n          swap1\n          pop\n          jump\t// out\n            /* \"#utility.yul\":112:281   */\n        tag_216:\n            /* \"#utility.yul\":196:207   */\n          0x00\n            /* \"#utility.yul\":230:236   */\n          dup3\n            /* \"#utility.yul\":225:228   */\n          dup3\n            /* \"#utility.yul\":218:237   */\n          mstore\n            /* \"#utility.yul\":270:274   */\n          0x20\n            /* \"#utility.yul\":265:268   */\n          dup3\n            /* \"#utility.yul\":261:275   */\n          add\n            /* \"#utility.yul\":246:275   */\n          swap1\n          pop\n            /* \"#utility.yul\":112:281   */\n          swap3\n          swap2\n          pop\n          pop\n          jump\t// out\n            /* \"#utility.yul\":287:533   */\n        tag_217:\n            /* \"#utility.yul\":368:369   */\n          0x00\n            /* \"#utility.yul\":378:491   */\n        tag_266:\n            /* \"#utility.yul\":392:398   */\n          dup4\n            /* \"#utility.yul\":389:390   */\n          dup2\n            /* \"#utility.yul\":386:399   */\n          lt\n            /* \"#utility.yul\":378:491   */\n          iszero\n          tag_268\n          jumpi\n            /* \"#utility.yul\":477:478   */\n          dup1\n            /* \"#utility.yul\":472:475   */\n          dup3\n            /* \"#utility.yul\":468:479   */\n          add\n            /* \"#utility.yul\":462:480   */\n          mload\n            /* \"#utility.yul\":458:459   */\n          dup2\n            /* \"#utility.yul\":453:456   */\n          dup5\n            /* \"#utility.yul\":449:460   */\n          add\n            /* \"#utility.yul\":442:481   */\n          mstore\n            /* \"#utility.yul\":414:416   */\n          0x20\n            /* \"#utility.yul\":411:412   */\n          dup2\n            /* \"#utility.yul\":407:417   */\n          add\n            /* \"#utility.yul\":402:417   */\n          swap1\n          pop\n            /* \"#utility.yul\":378:491   */\n          jump(tag_266)\n        tag_268:\n            /* \"#utility.yul\":525:526   */\n          0x00\n            /* \"#utility.yul\":516:522   */\n          dup5\n            /* \"#utility.yul\":511:514   */\n          dup5\n            /* \"#utility.yul\":507:523   */\n          add\n            /* \"#utility.yul\":500:527   */\n          mstore\n            /* \"#utility.yul\":349:533   */\n          pop\n            /* \"#utility.yul\":287:533   */\n          pop\n          pop\n          pop\n          jump\t// out\n            /* \"#utility.yul\":539:641   */\n        tag_218:\n            /* \"#utility.yul\":580:586   */\n          0x00\n            /* \"#utility.yul\":631:633   */\n          0x1f\n            /* \"#utility.yul\":627:634   */\n          not\n            /* \"#utility.yul\":622:624   */\n          0x1f\n            /* \"#utility.yul\":615:620   */\n          dup4\n            /* \"#utility.yul\":611:625   */\n          add\n            /* \"#utility.yul\":607:635   */\n          and\n            /* \"#utility.yul\":597:635   */\n          swap1\n          pop\n            /* \"#utility.yul\":539:641   */\n          swap2\n          swap1\n          pop\n          jump\t// out\n            /* \"#utility.yul\":647:1024   */\n        tag_219:\n            /* \"#utility.yul\":735:738   */\n          0x00\n            /* \"#utility.yul\":763:802   */\n          tag_271\n            /* \"#utility.yul\":796:801   */\n          dup3\n            /* \"#utility.yul\":763:802   */\n          tag_215\n          jump\t// in\n        tag_271:\n            /* \"#utility.yul\":818:889   */\n          tag_272\n            /* \"#utility.yul\":882:888   */\n          dup2\n            /* \"#utility.yul\":877:880   */\n          dup6\n            /* \"#utility.yul\":818:889   */\n          tag_216\n          jump\t// in\n        tag_272:\n            /* \"#utility.yul\":811:889   */\n          swap4\n          pop\n            /* \"#utility.yul\":898:963   */\n          tag_273\n            /* \"#utility.yul\":956:962   */\n          dup2\n            /* \"#utility.yul\":951:954   */\n          dup6\n            /* \"#utility.yul\":944:948   */\n          0x20\n            /* \"#utility.yul\":937:942   */\n          dup7\n            /* \"#utility.yul\":933:949   */\n          add\n            /* \"#utility.yul\":898:963   */\n          tag_217\n          jump\t// in\n        tag_273:\n            /* \"#utility.yul\":988:1017   */\n          tag_274\n            /* \"#utility.yul\":1010:1016   */\n          dup2\n            /* \"#utility.yul\":988:1017   */\n          tag_218\n          jump\t// in\n        tag_274:\n            /* \"#utility.yul\":983:986   */\n          dup5\n            /* \"#utility.yul\":979:1018   */\n          add\n            /* \"#utility.yul\":972:1018   */\n          swap2\n          pop\n            /* \"#utility.yul\":739:1024   */\n          pop\n            /* \"#utility.yul\":647:1024   */\n          swap3\n          swap2\n          pop\n          pop\n          jump\t// out\n            /* \"#utility.yul\":1030:1343   */\n        tag_25:\n            /* \"#utility.yul\":1143:1147   */\n          0x00\n            /* \"#utility.yul\":1181:1183   */\n          0x20\n            /* \"#utility.yul\":1170:1179   */\n          dup3\n            /* \"#utility.yul\":1166:1184   */\n          add\n            /* \"#utility.yul\":1158:1184   */\n          swap1\n          pop\n            /* \"#utility.yul\":1230:1239   */\n          dup2\n            /* \"#utility.yul\":1224:1228   */\n          dup2\n            /* \"#utility.yul\":1220:1240   */\n          sub\n            /* \"#utility.yul\":1216:1217   */\n          0x00\n            /* \"#utility.yul\":1205:1214   */\n          dup4\n            /* \"#utility.yul\":1201:1218   */\n          add\n            /* \"#utility.yul\":1194:1241   */\n          mstore\n            /* \"#utility.yul\":1258:1336   */\n          tag_276\n            /* \"#utility.yul\":1331:1335   */\n          dup2\n            /* \"#utility.yul\":1322:1328   */\n          dup5\n            /* \"#utility.yul\":1258:1336   */\n          tag_219\n          jump\t// in\n        tag_276:\n            /* \"#utility.yul\":1250:1336   */\n          swap1\n          pop\n            /* \"#utility.yul\":1030:1343   */\n          swap3\n          swap2\n          pop\n          pop\n          jump\t// out\n            /* \"#utility.yul\":1430:1547   */\n        tag_221:\n            /* \"#utility.yul\":1539:1540   */\n          0x00\n            /* \"#utility.yul\":1536:1537   */\n          dup1\n            /* \"#utility.yul\":1529:1541   */\n          revert\n            /* \"#utility.yul\":1676:1802   */\n        tag_223:\n            /* \"#utility.yul\":1713:1720   */\n          0x00\n            /* \"#utility.yul\":1753:1795   */\n          0xffffffffffffffffffffffffffffffffffffffff\n            /* \"#utility.yul\":1746:1751   */\n          dup3\n            /* \"#utility.yul\":1742:1796   */\n          and\n            /* \"#utility.yul\":1731:1796   */\n          swap1\n          pop\n            /* \"#utility.yul\":1676:1802   */\n          swap2\n          swap1\n          pop\n          jump\t// out\n            /* \"#utility.yul\":1808:1904   */\n        tag_224:\n            /* \"#utility.yul\":1845:1852   */\n          0x00\n            /* \"#utility.yul\":1874:1898   */\n          tag_282\n            /* \"#utility.yul\":1892:1897   */\n          dup3\n            /* \"#utility.yul\":1874:1898   */\n          tag_223\n          jump\t// in\n        tag_282:\n            /* \"#utility.yul\":1863:1898   */\n          swap1\n          pop\n            /* \"#utility.yul\":1808:1904   */\n          swap2\n          swap1\n          pop\n          jump\t// out\n            /* \"#utility.yul\":1910:2032   */\n        tag_225:\n            /* \"#utility.yul\":1983:2007   */\n          tag_284\n            /* \"#utility.yul\":2001:2006   */\n          dup2\n            /* \"#utility.yul\":1983:2007   */\n          tag_224\n          jump\t// in\n        tag_284:\n            /* \"#utility.yul\":1976:1981   */\n          dup2\n            /* \"#utility.yul\":1973:2008   */\n          eq\n            /* \"#utility.yul\":1963:2026   */\n          tag_285\n          jumpi\n            /* \"#utility.yul\":2022:2023   */\n          0x00\n            /* \"#utility.yul\":2019:2020   */\n          dup1\n            /* \"#utility.yul\":2012:2024   */\n          revert\n            /* \"#utility.yul\":1963:2026   */\n        tag_285:\n            /* \"#utility.yul\":1910:2032   */\n          pop\n          jump\t// out\n            /* \"#utility.yul\":2038:2177   */\n        tag_226:\n            /* \"#utility.yul\":2084:2089   */\n          0x00\n            /* \"#utility.yul\":2122:2128   */\n          dup2\n            /* \"#utility.yul\":2109:2129   */\n          calldataload\n            /* \"#utility.yul\":2100:2129   */\n          swap1\n          pop\n            /* \"#utility.yul\":2138:2171   */\n          tag_287\n            /* \"#utility.yul\":2165:2170   */\n          dup2\n            /* \"#utility.yul\":2138:2171   */\n          tag_225\n          jump\t// in\n        tag_287:\n            /* \"#utility.yul\":2038:2177   */\n          swap3\n          swap2\n          pop\n          pop\n          jump\t// out\n            /* \"#utility.yul\":2183:2260   */\n        tag_227:\n            /* \"#utility.yul\":2220:2227   */\n          0x00\n            /* \"#utility.yul\":2249:2254   */\n          dup2\n            /* \"#utility.yul\":2238:2254   */\n          swap1\n          pop\n            /* \"#utility.yul\":2183:2260   */\n          swap2\n          swap1\n          pop\n          jump\t// out\n            /* \"#utility.yul\":2266:2388   */\n        tag_228:\n            /* \"#utility.yul\":2339:2363   */\n          tag_290\n            /* \"#utility.yul\":2357:2362   */\n          dup2\n            /* \"#utility.yul\":2339:2363   */\n          tag_227\n          jump\t// in\n        tag_290:\n            /* \"#utility.yul\":2332:2337   */\n          dup2\n            /* \"#utility.yul\":2329:2364   */\n          eq\n            /* \"#utility.yul\":2319:2382   */\n          tag_291\n          jumpi\n            /* \"#utility.yul\":2378:2379   */\n          0x00\n            /* \"#utility.yul\":2375:2376   */\n          dup1\n            /* \"#utility.yul\":2368:2380   */\n          revert\n            /* \"#utility.yul\":2319:2382   */\n        tag_291:\n            /* \"#utility.yul\":2266:2388   */\n          pop\n          jump\t// out\n            /* \"#utility.yul\":2394:2533   */\n        tag_229:\n            /* \"#utility.yul\":2440:2445   */\n          0x00\n            /* \"#utility.yul\":2478:2484   */\n          dup2\n            /* \"#utility.yul\":2465:2485   */\n          calldataload\n            /* \"#utility.yul\":2456:2485   */\n          swap1\n          pop\n            /* \"#utility.yul\":2494:2527   */\n          tag_293\n            /* \"#utility.yul\":2521:2526   */\n          dup2\n            /* \"#utility.yul\":2494:2527   */\n          tag_228\n          jump\t// in\n        tag_293:\n            /* \"#utility.yul\":2394:2533   */\n          swap3\n          swap2\n          pop\n          pop\n          jump\t// out\n            /* \"#utility.yul\":2539:3013   */\n        tag_28:\n            /* \"#utility.yul\":2607:2613   */\n          0x00\n            /* \"#utility.yul\":2615:2621   */\n          dup1\n            /* \"#utility.yul\":2664:2666   */\n          0x40\n            /* \"#utility.yul\":2652:2661   */\n          dup4\n            /* \"#utility.yul\":2643:2650   */\n          dup6\n            /* \"#utility.yul\":2639:2662   */\n          sub\n            /* \"#utility.yul\":2635:2667   */\n          slt\n            /* \"#utility.yul\":2632:2751   */\n          iszero\n          tag_295\n          jumpi\n            /* \"#utility.yul\":2670:2749   */\n          tag_296\n          tag_221\n          jump\t// in\n        tag_296:\n            /* \"#utility.yul\":2632:2751   */\n        tag_295:\n            /* \"#utility.yul\":2790:2791   */\n          0x00\n            /* \"#utility.yul\":2815:2868   */\n          tag_297\n            /* \"#utility.yul\":2860:2867   */\n          dup6\n            /* \"#utility.yul\":2851:2857   */\n          dup3\n            /* \"#utility.yul\":2840:2849   */\n          dup7\n            /* \"#utility.yul\":2836:2858   */\n          add\n            /* \"#utility.yul\":2815:2868   */\n          tag_226\n          jump\t// in\n        tag_297:\n            /* \"#utility.yul\":2805:2868   */\n          swap3\n          pop\n            /* \"#utility.yul\":2761:2878   */\n          pop\n            /* \"#utility.yul\":2917:2919   */\n          0x20\n            /* \"#utility.yul\":2943:2996   */\n          tag_298\n            /* \"#utility.yul\":2988:2995   */\n          dup6\n            /* \"#utility.yul\":2979:2985   */\n          dup3\n            /* \"#utility.yul\":2968:2977   */\n          dup7\n            /* \"#utility.yul\":2964:2986   */\n          add\n            /* \"#utility.yul\":2943:2996   */\n          tag_229\n          jump\t// in\n        tag_298:\n            /* \"#utility.yul\":2933:2996   */\n          swap2\n          pop\n            /* \"#utility.yul\":2888:3006   */\n          pop\n            /* \"#utility.yul\":2539:3013   */\n          swap3\n          pop\n          swap3\n          swap1\n          pop\n          jump\t// out\n            /* \"#utility.yul\":3019:3109   */\n        tag_230:\n            /* \"#utility.yul\":3053:3060   */\n          0x00\n            /* \"#utility.yul\":3096:3101   */\n          dup2\n            /* \"#utility.yul\":3089:3102   */\n          iszero\n            /* \"#utility.yul\":3082:3103   */\n          iszero\n            /* \"#utility.yul\":3071:3103   */\n          swap1\n          pop\n            /* \"#utility.yul\":3019:3109   */\n          swap2\n          swap1\n          pop\n          jump\t// out\n            /* \"#utility.yul\":3115:3224   */\n        tag_231:\n            /* \"#utility.yul\":3196:3217   */\n          tag_301\n            /* \"#utility.yul\":3211:3216   */\n          dup2\n            /* \"#utility.yul\":3196:3217   */\n          tag_230\n          jump\t// in\n        tag_301:\n            /* \"#utility.yul\":3191:3194   */\n          dup3\n            /* \"#utility.yul\":3184:3218   */\n          mstore\n            /* \"#utility.yul\":3115:3224   */\n          pop\n          pop\n          jump\t// out\n            /* \"#utility.yul\":3230:3440   */\n        tag_31:\n            /* \"#utility.yul\":3317:3321   */\n          0x00\n            /* \"#utility.yul\":3355:3357   */\n          0x20\n            /* \"#utility.yul\":3344:3353   */\n          dup3\n            /* \"#utility.yul\":3340:3358   */\n          add\n            /* \"#utility.yul\":3332:3358   */\n          swap1\n          pop\n            /* \"#utility.yul\":3368:3433   */\n          tag_303\n            /* \"#utility.yul\":3430:3431   */\n          0x00\n            /* \"#utility.yul\":3419:3428   */\n          dup4\n            /* \"#utility.yul\":3415:3432   */\n          add\n            /* \"#utility.yul\":3406:3412   */\n          dup5\n            /* \"#utility.yul\":3368:3433   */\n          tag_231\n          jump\t// in\n        tag_303:\n            /* \"#utility.yul\":3230:3440   */\n          swap3\n          swap2\n          pop\n          pop\n          jump\t// out\n            /* \"#utility.yul\":3446:3564   */\n        tag_232:\n            /* \"#utility.yul\":3533:3557   */\n          tag_305\n            /* \"#utility.yul\":3551:3556   */\n          dup2\n            /* \"#utility.yul\":3533:3557   */\n          tag_227\n          jump\t// in\n        tag_305:\n            /* \"#utility.yul\":3528:3531   */\n          dup3\n            /* \"#utility.yul\":3521:3558   */\n          mstore\n            /* \"#utility.yul\":3446:3564   */\n          pop\n          pop\n          jump\t// out\n            /* \"#utility.yul\":3570:3792   */\n        tag_35:\n            /* \"#utility.yul\":3663:3667   */\n          0x00\n            /* \"#utility.yul\":3701:3703   */\n          0x20\n            /* \"#utility.yul\":3690:3699   */\n          dup3\n            /* \"#utility.yul\":3686:3704   */\n          add\n            /* \"#utility.yul\":3678:3704   */\n          swap1\n          pop\n            /* \"#utility.yul\":3714:3785   */\n          tag_307\n            /* \"#utility.yul\":3782:3783   */\n          0x00\n            /* \"#utility.yul\":3771:3780   */\n          dup4\n            /* \"#utility.yul\":3767:3784   */\n          add\n            /* \"#utility.yul\":3758:3764   */\n          dup5\n            /* \"#utility.yul\":3714:3785   */\n          tag_232\n          jump\t// in\n        tag_307:\n            /* \"#utility.yul\":3570:3792   */\n          swap3\n          swap2\n          pop\n          pop\n          jump\t// out\n            /* \"#utility.yul\":3798:4417   */\n        tag_38:\n            /* \"#utility.yul\":3875:3881   */\n          0x00\n            /* \"#utility.yul\":3883:3889   */\n          dup1\n            /* \"#utility.yul\":3891:3897   */\n          0x00\n            /* \"#utility.yul\":3940:3942   */\n          0x60\n            /* \"#utility.yul\":3928:3937   */\n          dup5\n            /* \"#utility.yul\":3919:3926   */\n          dup7\n            /* \"#utility.yul\":3915:3938   */\n          sub\n            /* \"#utility.yul\":3911:3943   */\n          slt\n            /* \"#utility.yul\":3908:4027   */\n          iszero\n          tag_309\n          jumpi\n            /* \"#utility.yul\":3946:4025   */\n          tag_310\n          tag_221\n          jump\t// in\n        tag_310:\n            /* \"#utility.yul\":3908:4027   */\n        tag_309:\n            /* \"#utility.yul\":4066:4067   */\n          0x00\n            /* \"#utility.yul\":4091:4144   */\n          tag_311\n            /* \"#utility.yul\":4136:4143   */\n          dup7\n            /* \"#utility.yul\":4127:4133   */\n          dup3\n            /* \"#utility.yul\":4116:4125   */\n          dup8\n            /* \"#utility.yul\":4112:4134   */\n          add\n            /* \"#utility.yul\":4091:4144   */\n          tag_226\n          jump\t// in\n        tag_311:\n            /* \"#utility.yul\":4081:4144   */\n          swap4\n          pop\n            /* \"#utility.yul\":4037:4154   */\n          pop\n            /* \"#utility.yul\":4193:4195   */\n          0x20\n            /* \"#utility.yul\":4219:4272   */\n          tag_312\n            /* \"#utility.yul\":4264:4271   */\n          dup7\n            /* \"#utility.yul\":4255:4261   */\n          dup3\n            /* \"#utility.yul\":4244:4253   */\n          dup8\n            /* \"#utility.yul\":4240:4262   */\n          add\n            /* \"#utility.yul\":4219:4272   */\n          tag_226\n          jump\t// in\n        tag_312:\n            /* \"#utility.yul\":4209:4272   */\n          swap3\n          pop\n            /* \"#utility.yul\":4164:4282   */\n          pop\n            /* \"#utility.yul\":4321:4323   */\n          0x40\n            /* \"#utility.yul\":4347:4400   */\n          tag_313\n            /* \"#utility.yul\":4392:4399   */\n          dup7\n            /* \"#utility.yul\":4383:4389   */\n          dup3\n            /* \"#utility.yul\":4372:4381   */\n          dup8\n            /* \"#utility.yul\":4368:4390   */\n          add\n            /* \"#utility.yul\":4347:4400   */\n          tag_229\n          jump\t// in\n        tag_313:\n            /* \"#utility.yul\":4337:4400   */\n          swap2\n          pop\n            /* \"#utility.yul\":4292:4410   */\n          pop\n            /* \"#utility.yul\":3798:4417   */\n          swap3\n          pop\n          swap3\n          pop\n          swap3\n          jump\t// out\n            /* \"#utility.yul\":4423:4509   */\n        tag_233:\n            /* \"#utility.yul\":4458:4465   */\n          0x00\n            /* \"#utility.yul\":4498:4502   */\n          0xff\n            /* \"#utility.yul\":4491:4496   */\n          dup3\n            /* \"#utility.yul\":4487:4503   */\n          and\n            /* \"#utility.yul\":4476:4503   */\n          swap1\n          pop\n            /* \"#utility.yul\":4423:4509   */\n          swap2\n          swap1\n          pop\n          jump\t// out\n            /* \"#utility.yul\":4515:4627   */\n        tag_234:\n            /* \"#utility.yul\":4598:4620   */\n          tag_316\n            /* \"#utility.yul\":4614:4619   */\n          dup2\n            /* \"#utility.yul\":4598:4620   */\n          tag_233\n          jump\t// in\n        tag_316:\n            /* \"#utility.yul\":4593:4596   */\n          dup3\n            /* \"#utility.yul\":4586:4621   */\n          mstore\n            /* \"#utility.yul\":4515:4627   */\n          pop\n          pop\n          jump\t// out\n            /* \"#utility.yul\":4633:4847   */\n        tag_44:\n            /* \"#utility.yul\":4722:4726   */\n          0x00\n            /* \"#utility.yul\":4760:4762   */\n          0x20\n            /* \"#utility.yul\":4749:4758   */\n          dup3\n            /* \"#utility.yul\":4745:4763   */\n          add\n            /* \"#utility.yul\":4737:4763   */\n          swap1\n          pop\n            /* \"#utility.yul\":4773:4840   */\n          tag_318\n            /* \"#utility.yul\":4837:4838   */\n          0x00\n            /* \"#utility.yul\":4826:4835   */\n          dup4\n            /* \"#utility.yul\":4822:4839   */\n          add\n            /* \"#utility.yul\":4813:4819   */\n          dup5\n            /* \"#utility.yul\":4773:4840   */\n          tag_234\n          jump\t// in\n        tag_318:\n            /* \"#utility.yul\":4633:4847   */\n          swap3\n          swap2\n          pop\n          pop\n          jump\t// out\n            /* \"#utility.yul\":4853:5182   */\n        tag_54:\n            /* \"#utility.yul\":4912:4918   */\n          0x00\n            /* \"#utility.yul\":4961:4963   */\n          0x20\n            /* \"#utility.yul\":4949:4958   */\n          dup3\n            /* \"#utility.yul\":4940:4947   */\n          dup5\n            /* \"#utility.yul\":4936:4959   */\n          sub\n            /* \"#utility.yul\":4932:4964   */\n          slt\n            /* \"#utility.yul\":4929:5048   */\n          iszero\n          tag_320\n          jumpi\n            /* \"#utility.yul\":4967:5046   */\n          tag_321\n          tag_221\n          jump\t// in\n        tag_321:\n            /* \"#utility.yul\":4929:5048   */\n        tag_320:\n            /* \"#utility.yul\":5087:5088   */\n          0x00\n            /* \"#utility.yul\":5112:5165   */\n          tag_322\n            /* \"#utility.yul\":5157:5164   */\n          dup5\n            /* \"#utility.yul\":5148:5154   */\n          dup3\n            /* \"#utility.yul\":5137:5146   */\n          dup6\n            /* \"#utility.yul\":5133:5155   */\n          add\n            /* \"#utility.yul\":5112:5165   */\n          tag_226\n          jump\t// in\n        tag_322:\n            /* \"#utility.yul\":5102:5165   */\n          swap2\n          pop\n            /* \"#utility.yul\":5058:5175   */\n          pop\n            /* \"#utility.yul\":4853:5182   */\n          swap3\n          swap2\n          pop\n          pop\n          jump\t// out\n            /* \"#utility.yul\":5188:5306   */\n        tag_235:\n            /* \"#utility.yul\":5275:5299   */\n          tag_324\n            /* \"#utility.yul\":5293:5298   */\n          dup2\n            /* \"#utility.yul\":5275:5299   */\n          tag_224\n          jump\t// in\n        tag_324:\n            /* \"#utility.yul\":5270:5273   */\n          dup3\n            /* \"#utility.yul\":5263:5300   */\n          mstore\n            /* \"#utility.yul\":5188:5306   */\n          pop\n          pop\n          jump\t// out\n            /* \"#utility.yul\":5312:5534   */\n        tag_62:\n            /* \"#utility.yul\":5405:5409   */\n          0x00\n            /* \"#utility.yul\":5443:5445   */\n          0x20\n            /* \"#utility.yul\":5432:5441   */\n          dup3\n            /* \"#utility.yul\":5428:5446   */\n          add\n            /* \"#utility.yul\":5420:5446   */\n          swap1\n          pop\n            /* \"#utility.yul\":5456:5527   */\n          tag_326\n            /* \"#utility.yul\":5524:5525   */\n          0x00\n            /* \"#utility.yul\":5513:5522   */\n          dup4\n            /* \"#utility.yul\":5509:5526   */\n          add\n            /* \"#utility.yul\":5500:5506   */\n          dup5\n            /* \"#utility.yul\":5456:5527   */\n          tag_235\n          jump\t// in\n        tag_326:\n            /* \"#utility.yul\":5312:5534   */\n          swap3\n          swap2\n          pop\n          pop\n          jump\t// out\n            /* \"#utility.yul\":5540:6014   */\n        tag_79:\n            /* \"#utility.yul\":5608:5614   */\n          0x00\n            /* \"#utility.yul\":5616:5622   */\n          dup1\n            /* \"#utility.yul\":5665:5667   */\n          0x40\n            /* \"#utility.yul\":5653:5662   */\n          dup4\n            /* \"#utility.yul\":5644:5651   */\n          dup6\n            /* \"#utility.yul\":5640:5663   */\n          sub\n            /* \"#utility.yul\":5636:5668   */\n          slt\n            /* \"#utility.yul\":5633:5752   */\n          iszero\n          tag_328\n          jumpi\n            /* \"#utility.yul\":5671:5750   */\n          tag_329\n          tag_221\n          jump\t// in\n        tag_329:\n            /* \"#utility.yul\":5633:5752   */\n        tag_328:\n            /* \"#utility.yul\":5791:5792   */\n          0x00\n            /* \"#utility.yul\":5816:5869   */\n          tag_330\n            /* \"#utility.yul\":5861:5868   */\n          dup6\n            /* \"#utility.yul\":5852:5858   */\n          dup3\n            /* \"#utility.yul\":5841:5850   */\n          dup7\n            /* \"#utility.yul\":5837:5859   */\n          add\n            /* \"#utility.yul\":5816:5869   */\n          tag_226\n          jump\t// in\n        tag_330:\n            /* \"#utility.yul\":5806:5869   */\n          swap3\n          pop\n            /* \"#utility.yul\":5762:5879   */\n          pop\n            /* \"#utility.yul\":5918:5920   */\n          0x20\n            /* \"#utility.yul\":5944:5997   */\n          tag_331\n            /* \"#utility.yul\":5989:5996   */\n          dup6\n            /* \"#utility.yul\":5980:5986   */\n          dup3\n            /* \"#utility.yul\":5969:5978   */\n          dup7\n            /* \"#utility.yul\":5965:5987   */\n          add\n            /* \"#utility.yul\":5944:5997   */\n          tag_226\n          jump\t// in\n        tag_331:\n            /* \"#utility.yul\":5934:5997   */\n          swap2\n          pop\n            /* \"#utility.yul\":5889:6007   */\n          pop\n            /* \"#utility.yul\":5540:6014   */\n          swap3\n          pop\n          swap3\n          swap1\n          pop\n          jump\t// out\n            /* \"#utility.yul\":6020:6200   */\n        tag_236:\n            /* \"#utility.yul\":6068:6145   */\n          0x4e487b7100000000000000000000000000000000000000000000000000000000\n            /* \"#utility.yul\":6065:6066   */\n          0x00\n            /* \"#utility.yul\":6058:6146   */\n          mstore\n            /* \"#utility.yul\":6165:6169   */\n          0x22\n            /* \"#utility.yul\":6162:6163   */\n          0x04\n            /* \"#utility.yul\":6155:6170   */\n          mstore\n            /* \"#utility.yul\":6189:6193   */\n          0x24\n            /* \"#utility.yul\":6186:6187   */\n          0x00\n            /* \"#utility.yul\":6179:6194   */\n          revert\n            /* \"#utility.yul\":6206:6526   */\n        tag_87:\n            /* \"#utility.yul\":6250:6256   */\n          0x00\n            /* \"#utility.yul\":6287:6288   */\n          0x02\n            /* \"#utility.yul\":6281:6285   */\n          dup3\n            /* \"#utility.yul\":6277:6289   */\n          div\n            /* \"#utility.yul\":6267:6289   */\n          swap1\n          pop\n            /* \"#utility.yul\":6334:6335   */\n          0x01\n            /* \"#utility.yul\":6328:6332   */\n          dup3\n            /* \"#utility.yul\":6324:6336   */\n          and\n            /* \"#utility.yul\":6355:6373   */\n          dup1\n            /* \"#utility.yul\":6345:6426   */\n          tag_334\n          jumpi\n            /* \"#utility.yul\":6411:6415   */\n          0x7f\n            /* \"#utility.yul\":6403:6409   */\n          dup3\n            /* \"#utility.yul\":6399:6416   */\n          and\n            /* \"#utility.yul\":6389:6416   */\n          swap2\n          pop\n            /* \"#utility.yul\":6345:6426   */\n        tag_334:\n            /* \"#utility.yul\":6473:6475   */\n          0x20\n            /* \"#utility.yul\":6465:6471   */\n          dup3\n            /* \"#utility.yul\":6462:6476   */\n          lt\n            /* \"#utility.yul\":6442:6460   */\n          dup2\n            /* \"#utility.yul\":6439:6477   */\n          sub\n            /* \"#utility.yul\":6436:6520   */\n          tag_335\n          jumpi\n            /* \"#utility.yul\":6492:6510   */\n          tag_336\n          tag_236\n          jump\t// in\n        tag_336:\n            /* \"#utility.yul\":6436:6520   */\n        tag_335:\n            /* \"#utility.yul\":6257:6526   */\n          pop\n            /* \"#utility.yul\":6206:6526   */\n          swap2\n          swap1\n          pop\n          jump\t// out\n            /* \"#utility.yul\":6532:6712   */\n        tag_237:\n            /* \"#utility.yul\":6580:6657   */\n          0x4e487b7100000000000000000000000000000000000000000000000000000000\n            /* \"#utility.yul\":6577:6578   */\n          0x00\n            /* \"#utility.yul\":6570:6658   */\n          mstore\n            /* \"#utility.yul\":6677:6681   */\n          0x11\n            /* \"#utility.yul\":6674:6675   */\n          0x04\n            /* \"#utility.yul\":6667:6682   */\n          mstore\n            /* \"#utility.yul\":6701:6705   */\n          0x24\n            /* \"#utility.yul\":6698:6699   */\n          0x00\n            /* \"#utility.yul\":6691:6706   */\n          revert\n            /* \"#utility.yul\":6718:6909   */\n        tag_110:\n            /* \"#utility.yul\":6758:6761   */\n          0x00\n            /* \"#utility.yul\":6777:6797   */\n          tag_339\n            /* \"#utility.yul\":6795:6796   */\n          dup3\n            /* \"#utility.yul\":6777:6797   */\n          tag_227\n          jump\t// in\n        tag_339:\n            /* \"#utility.yul\":6772:6797   */\n          swap2\n          pop\n            /* \"#utility.yul\":6811:6831   */\n          tag_340\n            /* \"#utility.yul\":6829:6830   */\n          dup4\n            /* \"#utility.yul\":6811:6831   */\n          tag_227\n          jump\t// in\n        tag_340:\n            /* \"#utility.yul\":6806:6831   */\n          swap3\n          pop\n            /* \"#utility.yul\":6854:6855   */\n          dup3\n            /* \"#utility.yul\":6851:6852   */\n          dup3\n            /* \"#utility.yul\":6847:6856   */\n          add\n            /* \"#utility.yul\":6840:6856   */\n          swap1\n          pop\n            /* \"#utility.yul\":6875:6878   */\n          dup1\n            /* \"#utility.yul\":6872:6873   */\n          dup3\n            /* \"#utility.yul\":6869:6879   */\n          gt\n            /* \"#utility.yul\":6866:6902   */\n          iszero\n          tag_341\n          jumpi\n            /* \"#utility.yul\":6882:6900   */\n          tag_342\n          tag_237\n          jump\t// in\n        tag_342:\n            /* \"#utility.yul\":6866:6902   */\n        tag_341:\n            /* \"#utility.yul\":6718:6909   */\n          swap3\n          swap2\n          pop\n          pop\n          jump\t// out\n            /* \"#utility.yul\":6915:7139   */\n        tag_238:\n            /* \"#utility.yul\":7055:7089   */\n          0x45524332303a2064656372656173656420616c6c6f77616e63652062656c6f77\n            /* \"#utility.yul\":7051:7052   */\n          0x00\n            /* \"#utility.yul\":7043:7049   */\n          dup3\n            /* \"#utility.yul\":7039:7053   */\n          add\n            /* \"#utility.yul\":7032:7090   */\n          mstore\n            /* \"#utility.yul\":7124:7131   */\n          0x207a65726f000000000000000000000000000000000000000000000000000000\n            /* \"#utility.yul\":7119:7121   */\n          0x20\n            /* \"#utility.yul\":7111:7117   */\n          dup3\n            /* \"#utility.yul\":7107:7122   */\n          add\n            /* \"#utility.yul\":7100:7132   */\n          mstore\n            /* \"#utility.yul\":6915:7139   */\n          pop\n          jump\t// out\n            /* \"#utility.yul\":7145:7511   */\n        tag_239:\n            /* \"#utility.yul\":7287:7290   */\n          0x00\n            /* \"#utility.yul\":7308:7375   */\n          tag_345\n            /* \"#utility.yul\":7372:7374   */\n          0x25\n            /* \"#utility.yul\":7367:7370   */\n          dup4\n            /* \"#utility.yul\":7308:7375   */\n          tag_216\n          jump\t// in\n        tag_345:\n            /* \"#utility.yul\":7301:7375   */\n          swap2\n          pop\n            /* \"#utility.yul\":7384:7477   */\n          tag_346\n            /* \"#utility.yul\":7473:7476   */\n          dup3\n            /* \"#utility.yul\":7384:7477   */\n          tag_238\n          jump\t// in\n        tag_346:\n            /* \"#utility.yul\":7502:7504   */\n          0x40\n            /* \"#utility.yul\":7497:7500   */\n          dup3\n            /* \"#utility.yul\":7493:7505   */\n          add\n            /* \"#utility.yul\":7486:7505   */\n          swap1\n          pop\n            /* \"#utility.yul\":7145:7511   */\n          swap2\n          swap1\n          pop\n          jump\t// out\n            /* \"#utility.yul\":7517:7936   */\n        tag_140:\n            /* \"#utility.yul\":7683:7687   */\n          0x00\n            /* \"#utility.yul\":7721:7723   */\n          0x20\n            /* \"#utility.yul\":7710:7719   */\n          dup3\n            /* \"#utility.yul\":7706:7724   */\n          add\n            /* \"#utility.yul\":7698:7724   */\n          swap1\n          pop\n            /* \"#utility.yul\":7770:7779   */\n          dup2\n            /* \"#utility.yul\":7764:7768   */\n          dup2\n            /* \"#utility.yul\":7760:7780   */\n          sub\n            /* \"#utility.yul\":7756:7757   */\n          0x00\n            /* \"#utility.yul\":7745:7754   */\n          dup4\n            /* \"#utility.yul\":7741:7758   */\n          add\n            /* \"#utility.yul\":7734:7781   */\n          mstore\n            /* \"#utility.yul\":7798:7929   */\n          tag_348\n            /* \"#utility.yul\":7924:7928   */\n          dup2\n            /* \"#utility.yul\":7798:7929   */\n          tag_239\n          jump\t// in\n        tag_348:\n            /* \"#utility.yul\":7790:7929   */\n          swap1\n          pop\n            /* \"#utility.yul\":7517:7936   */\n          swap2\n          swap1\n          pop\n          jump\t// out\n            /* \"#utility.yul\":7942:8167   */\n        tag_240:\n            /* \"#utility.yul\":8082:8116   */\n          0x4f776e61626c653a206e6577206f776e657220697320746865207a65726f2061\n            /* \"#utility.yul\":8078:8079   */\n          0x00\n            /* \"#utility.yul\":8070:8076   */\n          dup3\n            /* \"#utility.yul\":8066:8080   */\n          add\n            /* \"#utility.yul\":8059:8117   */\n          mstore\n            /* \"#utility.yul\":8151:8159   */\n          0x6464726573730000000000000000000000000000000000000000000000000000\n            /* \"#utility.yul\":8146:8148   */\n          0x20\n            /* \"#utility.yul\":8138:8144   */\n          dup3\n            /* \"#utility.yul\":8134:8149   */\n          add\n            /* \"#utility.yul\":8127:8160   */\n          mstore\n            /* \"#utility.yul\":7942:8167   */\n          pop\n          jump\t// out\n            /* \"#utility.yul\":8173:8539   */\n        tag_241:\n            /* \"#utility.yul\":8315:8318   */\n          0x00\n            /* \"#utility.yul\":8336:8403   */\n          tag_351\n            /* \"#utility.yul\":8400:8402   */\n          0x26\n            /* \"#utility.yul\":8395:8398   */\n          dup4\n            /* \"#utility.yul\":8336:8403   */\n          tag_216\n          jump\t// in\n        tag_351:\n            /* \"#utility.yul\":8329:8403   */\n          swap2\n          pop\n            /* \"#utility.yul\":8412:8505   */\n          tag_352\n            /* \"#utility.yul\":8501:8504   */\n          dup3\n            /* \"#utility.yul\":8412:8505   */\n          tag_240\n          jump\t// in\n        tag_352:\n            /* \"#utility.yul\":8530:8532   */\n          0x40\n            /* \"#utility.yul\":8525:8528   */\n          dup3\n            /* \"#utility.yul\":8521:8533   */\n          add\n            /* \"#utility.yul\":8514:8533   */\n          swap1\n          pop\n            /* \"#utility.yul\":8173:8539   */\n          swap2\n          swap1\n          pop\n          jump\t// out\n            /* \"#utility.yul\":8545:8964   */\n        tag_151:\n            /* \"#utility.yul\":8711:8715   */\n          0x00\n            /* \"#utility.yul\":8749:8751   */\n          0x20\n            /* \"#utility.yul\":8738:8747   */\n          dup3\n            /* \"#utility.yul\":8734:8752   */\n          add\n            /* \"#utility.yul\":8726:8752   */\n          swap1\n          pop\n            /* \"#utility.yul\":8798:8807   */\n          dup2\n            /* \"#utility.yul\":8792:8796   */\n          dup2\n            /* \"#utility.yul\":8788:8808   */\n          sub\n            /* \"#utility.yul\":8784:8785   */\n          0x00\n            /* \"#utility.yul\":8773:8782   */\n          dup4\n            /* \"#utility.yul\":8769:8786   */\n          add\n            /* \"#utility.yul\":8762:8809   */\n          mstore\n            /* \"#utility.yul\":8826:8957   */\n          tag_354\n            /* \"#utility.yul\":8952:8956   */\n          dup2\n            /* \"#utility.yul\":8826:8957   */\n          tag_241\n          jump\t// in\n        tag_354:\n            /* \"#utility.yul\":8818:8957   */\n          swap1\n          pop\n            /* \"#utility.yul\":8545:8964   */\n          swap2\n          swap1\n          pop\n          jump\t// out\n            /* \"#utility.yul\":8970:9193   */\n        tag_242:\n            /* \"#utility.yul\":9110:9144   */\n          0x45524332303a20617070726f76652066726f6d20746865207a65726f20616464\n            /* \"#utility.yul\":9106:9107   */\n          0x00\n            /* \"#utility.yul\":9098:9104   */\n          dup3\n            /* \"#utility.yul\":9094:9108   */\n          add\n            /* \"#utility.yul\":9087:9145   */\n          mstore\n            /* \"#utility.yul\":9179:9185   */\n          0x7265737300000000000000000000000000000000000000000000000000000000\n            /* \"#utility.yul\":9174:9176   */\n          0x20\n            /* \"#utility.yul\":9166:9172   */\n          dup3\n            /* \"#utility.yul\":9162:9177   */\n          add\n            /* \"#utility.yul\":9155:9186   */\n          mstore\n            /* \"#utility.yul\":8970:9193   */\n          pop\n          jump\t// out\n            /* \"#utility.yul\":9199:9565   */\n        tag_243:\n            /* \"#utility.yul\":9341:9344   */\n          0x00\n            /* \"#utility.yul\":9362:9429   */\n          tag_357\n            /* \"#utility.yul\":9426:9428   */\n          0x24\n            /* \"#utility.yul\":9421:9424   */\n          dup4\n            /* \"#utility.yul\":9362:9429   */\n          tag_216\n          jump\t// in\n        tag_357:\n            /* \"#utility.yul\":9355:9429   */\n          swap2\n          pop\n            /* \"#utility.yul\":9438:9531   */\n          tag_358\n            /* \"#utility.yul\":9527:9530   */\n          dup3\n            /* \"#utility.yul\":9438:9531   */\n          tag_242\n          jump\t// in\n        tag_358:\n            /* \"#utility.yul\":9556:9558   */\n          0x40\n            /* \"#utility.yul\":9551:9554   */\n          dup3\n            /* \"#utility.yul\":9547:9559   */\n          add\n            /* \"#utility.yul\":9540:9559   */\n          swap1\n          pop\n            /* \"#utility.yul\":9199:9565   */\n          swap2\n          swap1\n          pop\n          jump\t// out\n            /* \"#utility.yul\":9571:9990   */\n        tag_157:\n            /* \"#utility.yul\":9737:9741   */\n          0x00\n            /* \"#utility.yul\":9775:9777   */\n          0x20\n            /* \"#utility.yul\":9764:9773   */\n          dup3\n            /* \"#utility.yul\":9760:9778   */\n          add\n            /* \"#utility.yul\":9752:9778   */\n          swap1\n          pop\n            /* \"#utility.yul\":9824:9833   */\n          dup2\n            /* \"#utility.yul\":9818:9822   */\n          dup2\n            /* \"#utility.yul\":9814:9834   */\n          sub\n            /* \"#utility.yul\":9810:9811   */\n          0x00\n            /* \"#utility.yul\":9799:9808   */\n          dup4\n            /* \"#utility.yul\":9795:9812   */\n          add\n            /* \"#utility.yul\":9788:9835   */\n          mstore\n            /* \"#utility.yul\":9852:9983   */\n          tag_360\n            /* \"#utility.yul\":9978:9982   */\n          dup2\n            /* \"#utility.yul\":9852:9983   */\n          tag_243\n          jump\t// in\n        tag_360:\n            /* \"#utility.yul\":9844:9983   */\n          swap1\n          pop\n            /* \"#utility.yul\":9571:9990   */\n          swap2\n          swap1\n          pop\n          jump\t// out\n            /* \"#utility.yul\":9996:10217   */\n        tag_244:\n            /* \"#utility.yul\":10136:10170   */\n          0x45524332303a20617070726f766520746f20746865207a65726f206164647265\n            /* \"#utility.yul\":10132:10133   */\n          0x00\n            /* \"#utility.yul\":10124:10130   */\n          dup3\n            /* \"#utility.yul\":10120:10134   */\n          add\n            /* \"#utility.yul\":10113:10171   */\n          mstore\n            /* \"#utility.yul\":10205:10209   */\n          0x7373000000000000000000000000000000000000000000000000000000000000\n            /* \"#utility.yul\":10200:10202   */\n          0x20\n            /* \"#utility.yul\":10192:10198   */\n          dup3\n            /* \"#utility.yul\":10188:10203   */\n          add\n            /* \"#utility.yul\":10181:10210   */\n          mstore\n            /* \"#utility.yul\":9996:10217   */\n          pop\n          jump\t// out\n            /* \"#utility.yul\":10223:10589   */\n        tag_245:\n            /* \"#utility.yul\":10365:10368   */\n          0x00\n            /* \"#utility.yul\":10386:10453   */\n          tag_363\n            /* \"#utility.yul\":10450:10452   */\n          0x22\n            /* \"#utility.yul\":10445:10448   */\n          dup4\n            /* \"#utility.yul\":10386:10453   */\n          tag_216\n          jump\t// in\n        tag_363:\n            /* \"#utility.yul\":10379:10453   */\n          swap2\n          pop\n            /* \"#utility.yul\":10462:10555   */\n          tag_364\n            /* \"#utility.yul\":10551:10554   */\n          dup3\n            /* \"#utility.yul\":10462:10555   */\n          tag_244\n          jump\t// in\n        tag_364:\n            /* \"#utility.yul\":10580:10582   */\n          0x40\n            /* \"#utility.yul\":10575:10578   */\n          dup3\n            /* \"#utility.yul\":10571:10583   */\n          add\n            /* \"#utility.yul\":10564:10583   */\n          swap1\n          pop\n            /* \"#utility.yul\":10223:10589   */\n          swap2\n          swap1\n          pop\n          jump\t// out\n            /* \"#utility.yul\":10595:11014   */\n        tag_160:\n            /* \"#utility.yul\":10761:10765   */\n          0x00\n            /* \"#utility.yul\":10799:10801   */\n          0x20\n            /* \"#utility.yul\":10788:10797   */\n          dup3\n            /* \"#utility.yul\":10784:10802   */\n          add\n            /* \"#utility.yul\":10776:10802   */\n          swap1\n          pop\n            /* \"#utility.yul\":10848:10857   */\n          dup2\n            /* \"#utility.yul\":10842:10846   */\n          dup2\n            /* \"#utility.yul\":10838:10858   */\n          sub\n            /* \"#utility.yul\":10834:10835   */\n          0x00\n            /* \"#utility.yul\":10823:10832   */\n          dup4\n            /* \"#utility.yul\":10819:10836   */\n          add\n            /* \"#utility.yul\":10812:10859   */\n          mstore\n            /* \"#utility.yul\":10876:11007   */\n          tag_366\n            /* \"#utility.yul\":11002:11006   */\n          dup2\n            /* \"#utility.yul\":10876:11007   */\n          tag_245\n          jump\t// in\n        tag_366:\n            /* \"#utility.yul\":10868:11007   */\n          swap1\n          pop\n            /* \"#utility.yul\":10595:11014   */\n          swap2\n          swap1\n          pop\n          jump\t// out\n            /* \"#utility.yul\":11020:11199   */\n        tag_246:\n            /* \"#utility.yul\":11160:11191   */\n          0x45524332303a20696e73756666696369656e7420616c6c6f77616e6365000000\n            /* \"#utility.yul\":11156:11157   */\n          0x00\n            /* \"#utility.yul\":11148:11154   */\n          dup3\n            /* \"#utility.yul\":11144:11158   */\n          add\n            /* \"#utility.yul\":11137:11192   */\n          mstore\n            /* \"#utility.yul\":11020:11199   */\n          pop\n          jump\t// out\n            /* \"#utility.yul\":11205:11571   */\n        tag_247:\n            /* \"#utility.yul\":11347:11350   */\n          0x00\n            /* \"#utility.yul\":11368:11435   */\n          tag_369\n            /* \"#utility.yul\":11432:11434   */\n          0x1d\n            /* \"#utility.yul\":11427:11430   */\n          dup4\n            /* \"#utility.yul\":11368:11435   */\n          tag_216\n          jump\t// in\n        tag_369:\n            /* \"#utility.yul\":11361:11435   */\n          swap2\n          pop\n            /* \"#utility.yul\":11444:11537   */\n          tag_370\n            /* \"#utility.yul\":11533:11536   */\n          dup3\n            /* \"#utility.yul\":11444:11537   */\n          tag_246\n          jump\t// in\n        tag_370:\n            /* \"#utility.yul\":11562:11564   */\n          0x20\n            /* \"#utility.yul\":11557:11560   */\n          dup3\n            /* \"#utility.yul\":11553:11565   */\n          add\n            /* \"#utility.yul\":11546:11565   */\n          swap1\n          pop\n            /* \"#utility.yul\":11205:11571   */\n          swap2\n          swap1\n          pop\n          jump\t// out\n            /* \"#utility.yul\":11577:11996   */\n        tag_167:\n            /* \"#utility.yul\":11743:11747   */\n          0x00\n            /* \"#utility.yul\":11781:11783   */\n          0x20\n            /* \"#utility.yul\":11770:11779   */\n          dup3\n            /* \"#utility.yul\":11766:11784   */\n          add\n            /* \"#utility.yul\":11758:11784   */\n          swap1\n          pop\n            /* \"#utility.yul\":11830:11839   */\n          dup2\n            /* \"#utility.yul\":11824:11828   */\n          dup2\n            /* \"#utility.yul\":11820:11840   */\n          sub\n            /* \"#utility.yul\":11816:11817   */\n          0x00\n            /* \"#utility.yul\":11805:11814   */\n          dup4\n            /* \"#utility.yul\":11801:11818   */\n          add\n            /* \"#utility.yul\":11794:11841   */\n          mstore\n            /* \"#utility.yul\":11858:11989   */\n          tag_372\n            /* \"#utility.yul\":11984:11988   */\n          dup2\n            /* \"#utility.yul\":11858:11989   */\n          tag_247\n          jump\t// in\n        tag_372:\n            /* \"#utility.yul\":11850:11989   */\n          swap1\n          pop\n            /* \"#utility.yul\":11577:11996   */\n          swap2\n          swap1\n          pop\n          jump\t// out\n            /* \"#utility.yul\":12002:12226   */\n        tag_248:\n            /* \"#utility.yul\":12142:12176   */\n          0x45524332303a207472616e736665722066726f6d20746865207a65726f206164\n            /* \"#utility.yul\":12138:12139   */\n          0x00\n            /* \"#utility.yul\":12130:12136   */\n          dup3\n            /* \"#utility.yul\":12126:12140   */\n          add\n            /* \"#utility.yul\":12119:12177   */\n          mstore\n            /* \"#utility.yul\":12211:12218   */\n          0x6472657373000000000000000000000000000000000000000000000000000000\n            /* \"#utility.yul\":12206:12208   */\n          0x20\n            /* \"#utility.yul\":12198:12204   */\n          dup3\n            /* \"#utility.yul\":12194:12209   */\n          add\n            /* \"#utility.yul\":12187:12219   */\n          mstore\n            /* \"#utility.yul\":12002:12226   */\n          pop\n          jump\t// out\n            /* \"#utility.yul\":12232:12598   */\n        tag_249:\n            /* \"#utility.yul\":12374:12377   */\n          0x00\n            /* \"#utility.yul\":12395:12462   */\n          tag_375\n            /* \"#utility.yul\":12459:12461   */\n          0x25\n            /* \"#utility.yul\":12454:12457   */\n          dup4\n            /* \"#utility.yul\":12395:12462   */\n          tag_216\n          jump\t// in\n        tag_375:\n            /* \"#utility.yul\":12388:12462   */\n          swap2\n          pop\n            /* \"#utility.yul\":12471:12564   */\n          tag_376\n            /* \"#utility.yul\":12560:12563   */\n          dup3\n            /* \"#utility.yul\":12471:12564   */\n          tag_248\n          jump\t// in\n        tag_376:\n            /* \"#utility.yul\":12589:12591   */\n          0x40\n            /* \"#utility.yul\":12584:12587   */\n          dup3\n            /* \"#utility.yul\":12580:12592   */\n          add\n            /* \"#utility.yul\":12573:12592   */\n          swap1\n          pop\n            /* \"#utility.yul\":12232:12598   */\n          swap2\n          swap1\n          pop\n          jump\t// out\n            /* \"#utility.yul\":12604:13023   */\n        tag_172:\n            /* \"#utility.yul\":12770:12774   */\n          0x00\n            /* \"#utility.yul\":12808:12810   */\n          0x20\n            /* \"#utility.yul\":12797:12806   */\n          dup3\n            /* \"#utility.yul\":12793:12811   */\n          add\n            /* \"#utility.yul\":12785:12811   */\n          swap1\n          pop\n            /* \"#utility.yul\":12857:12866   */\n          dup2\n            /* \"#utility.yul\":12851:12855   */\n          dup2\n            /* \"#utility.yul\":12847:12867   */\n          sub\n            /* \"#utility.yul\":12843:12844   */\n          0x00\n            /* \"#utility.yul\":12832:12841   */\n          dup4\n            /* \"#utility.yul\":12828:12845   */\n          add\n            /* \"#utility.yul\":12821:12868   */\n          mstore\n            /* \"#utility.yul\":12885:13016   */\n          tag_378\n            /* \"#utility.yul\":13011:13015   */\n          dup2\n            /* \"#utility.yul\":12885:13016   */\n          tag_249\n          jump\t// in\n        tag_378:\n            /* \"#utility.yul\":12877:13016   */\n          swap1\n          pop\n            /* \"#utility.yul\":12604:13023   */\n          swap2\n          swap1\n          pop\n          jump\t// out\n            /* \"#utility.yul\":13029:13251   */\n        tag_250:\n            /* \"#utility.yul\":13169:13203   */\n          0x45524332303a207472616e7366657220746f20746865207a65726f2061646472\n            /* \"#utility.yul\":13165:13166   */\n          0x00\n            /* \"#utility.yul\":13157:13163   */\n          dup3\n            /* \"#utility.yul\":13153:13167   */\n          add\n            /* \"#utility.yul\":13146:13204   */\n          mstore\n            /* \"#utility.yul\":13238:13243   */\n          0x6573730000000000000000000000000000000000000000000000000000000000\n            /* \"#utility.yul\":13233:13235   */\n          0x20\n            /* \"#utility.yul\":13225:13231   */\n          dup3\n            /* \"#utility.yul\":13221:13236   */\n          add\n            /* \"#utility.yul\":13214:13244   */\n          mstore\n            /* \"#utility.yul\":13029:13251   */\n          pop\n          jump\t// out\n            /* \"#utility.yul\":13257:13623   */\n        tag_251:\n            /* \"#utility.yul\":13399:13402   */\n          0x00\n            /* \"#utility.yul\":13420:13487   */\n          tag_381\n            /* \"#utility.yul\":13484:13486   */\n          0x23\n            /* \"#utility.yul\":13479:13482   */\n          dup4\n            /* \"#utility.yul\":13420:13487   */\n          tag_216\n          jump\t// in\n        tag_381:\n            /* \"#utility.yul\":13413:13487   */\n          swap2\n          pop\n            /* \"#utility.yul\":13496:13589   */\n          tag_382\n            /* \"#utility.yul\":13585:13588   */\n          dup3\n            /* \"#utility.yul\":13496:13589   */\n          tag_250\n          jump\t// in\n        tag_382:\n            /* \"#utility.yul\":13614:13616   */\n          0x40\n            /* \"#utility.yul\":13609:13612   */\n          dup3\n            /* \"#utility.yul\":13605:13617   */\n          add\n            /* \"#utility.yul\":13598:13617   */\n          swap1\n          pop\n            /* \"#utility.yul\":13257:13623   */\n          swap2\n          swap1\n          pop\n          jump\t// out\n            /* \"#utility.yul\":13629:14048   */\n        tag_175:\n            /* \"#utility.yul\":13795:13799   */\n          0x00\n            /* \"#utility.yul\":13833:13835   */\n          0x20\n            /* \"#utility.yul\":13822:13831   */\n          dup3\n            /* \"#utility.yul\":13818:13836   */\n          add\n            /* \"#utility.yul\":13810:13836   */\n          swap1\n          pop\n            /* \"#utility.yul\":13882:13891   */\n          dup2\n            /* \"#utility.yul\":13876:13880   */\n          dup2\n            /* \"#utility.yul\":13872:13892   */\n          sub\n            /* \"#utility.yul\":13868:13869   */\n          0x00\n            /* \"#utility.yul\":13857:13866   */\n          dup4\n            /* \"#utility.yul\":13853:13870   */\n          add\n            /* \"#utility.yul\":13846:13893   */\n          mstore\n            /* \"#utility.yul\":13910:14041   */\n          tag_384\n            /* \"#utility.yul\":14036:14040   */\n          dup2\n            /* \"#utility.yul\":13910:14041   */\n          tag_251\n          jump\t// in\n        tag_384:\n            /* \"#utility.yul\":13902:14041   */\n          swap1\n          pop\n            /* \"#utility.yul\":13629:14048   */\n          swap2\n          swap1\n          pop\n          jump\t// out\n            /* \"#utility.yul\":14054:14279   */\n        tag_252:\n            /* \"#utility.yul\":14194:14228   */\n          0x45524332303a207472616e7366657220616d6f756e7420657863656564732062\n            /* \"#utility.yul\":14190:14191   */\n          0x00\n            /* \"#utility.yul\":14182:14188   */\n          dup3\n            /* \"#utility.yul\":14178:14192   */\n          add\n            /* \"#utility.yul\":14171:14229   */\n          mstore\n            /* \"#utility.yul\":14263:14271   */\n          0x616c616e63650000000000000000000000000000000000000000000000000000\n            /* \"#utility.yul\":14258:14260   */\n          0x20\n            /* \"#utility.yul\":14250:14256   */\n          dup3\n            /* \"#utility.yul\":14246:14261   */\n          add\n            /* \"#utility.yul\":14239:14272   */\n          mstore\n            /* \"#utility.yul\":14054:14279   */\n          pop\n          jump\t// out\n            /* \"#utility.yul\":14285:14651   */\n        tag_253:\n            /* \"#utility.yul\":14427:14430   */\n          0x00\n            /* \"#utility.yul\":14448:14515   */\n          tag_387\n            /* \"#utility.yul\":14512:14514   */\n          0x26\n            /* \"#utility.yul\":14507:14510   */\n          dup4\n            /* \"#utility.yul\":14448:14515   */\n          tag_216\n          jump\t// in\n        tag_387:\n            /* \"#utility.yul\":14441:14515   */\n          swap2\n          pop\n            /* \"#utility.yul\":14524:14617   */\n          tag_388\n            /* \"#utility.yul\":14613:14616   */\n          dup3\n            /* \"#utility.yul\":14524:14617   */\n          tag_252\n          jump\t// in\n        tag_388:\n            /* \"#utility.yul\":14642:14644   */\n          0x40\n            /* \"#utility.yul\":14637:14640   */\n          dup3\n            /* \"#utility.yul\":14633:14645   */\n          add\n            /* \"#utility.yul\":14626:14645   */\n          swap1\n          pop\n            /* \"#utility.yul\":14285:14651   */\n          swap2\n          swap1\n          pop\n          jump\t// out\n            /* \"#utility.yul\":14657:15076   */\n        tag_180:\n            /* \"#utility.yul\":14823:14827   */\n          0x00\n            /* \"#utility.yul\":14861:14863   */\n          0x20\n            /* \"#utility.yul\":14850:14859   */\n          dup3\n            /* \"#utility.yul\":14846:14864   */\n          add\n            /* \"#utility.yul\":14838:14864   */\n          swap1\n          pop\n            /* \"#utility.yul\":14910:14919   */\n          dup2\n            /* \"#utility.yul\":14904:14908   */\n          dup2\n            /* \"#utility.yul\":14900:14920   */\n          sub\n            /* \"#utility.yul\":14896:14897   */\n          0x00\n            /* \"#utility.yul\":14885:14894   */\n          dup4\n            /* \"#utility.yul\":14881:14898   */\n          add\n            /* \"#utility.yul\":14874:14921   */\n          mstore\n            /* \"#utility.yul\":14938:15069   */\n          tag_390\n            /* \"#utility.yul\":15064:15068   */\n          dup2\n            /* \"#utility.yul\":14938:15069   */\n          tag_253\n          jump\t// in\n        tag_390:\n            /* \"#utility.yul\":14930:15069   */\n          swap1\n          pop\n            /* \"#utility.yul\":14657:15076   */\n          swap2\n          swap1\n          pop\n          jump\t// out\n            /* \"#utility.yul\":15082:15264   */\n        tag_254:\n            /* \"#utility.yul\":15222:15256   */\n          0x4f776e61626c653a2063616c6c6572206973206e6f7420746865206f776e6572\n            /* \"#utility.yul\":15218:15219   */\n          0x00\n            /* \"#utility.yul\":15210:15216   */\n          dup3\n            /* \"#utility.yul\":15206:15220   */\n          add\n            /* \"#utility.yul\":15199:15257   */\n          mstore\n            /* \"#utility.yul\":15082:15264   */\n          pop\n          jump\t// out\n            /* \"#utility.yul\":15270:15636   */\n        tag_255:\n            /* \"#utility.yul\":15412:15415   */\n          0x00\n            /* \"#utility.yul\":15433:15500   */\n          tag_393\n            /* \"#utility.yul\":15497:15499   */\n          0x20\n            /* \"#utility.yul\":15492:15495   */\n          dup4\n            /* \"#utility.yul\":15433:15500   */\n          tag_216\n          jump\t// in\n        tag_393:\n            /* \"#utility.yul\":15426:15500   */\n          swap2\n          pop\n            /* \"#utility.yul\":15509:15602   */\n          tag_394\n            /* \"#utility.yul\":15598:15601   */\n          dup3\n            /* \"#utility.yul\":15509:15602   */\n          tag_254\n          jump\t// in\n        tag_394:\n            /* \"#utility.yul\":15627:15629   */\n          0x20\n            /* \"#utility.yul\":15622:15625   */\n          dup3\n            /* \"#utility.yul\":15618:15630   */\n          add\n            /* \"#utility.yul\":15611:15630   */\n          swap1\n          pop\n            /* \"#utility.yul\":15270:15636   */\n          swap2\n          swap1\n          pop\n          jump\t// out\n            /* \"#utility.yul\":15642:16061   */\n        tag_190:\n            /* \"#utility.yul\":15808:15812   */\n          0x00\n            /* \"#utility.yul\":15846:15848   */\n          0x20\n            /* \"#utility.yul\":15835:15844   */\n          dup3\n            /* \"#utility.yul\":15831:15849   */\n          add\n            /* \"#utility.yul\":15823:15849   */\n          swap1\n          pop\n            /* \"#utility.yul\":15895:15904   */\n          dup2\n            /* \"#utility.yul\":15889:15893   */\n          dup2\n            /* \"#utility.yul\":15885:15905   */\n          sub\n            /* \"#utility.yul\":15881:15882   */\n          0x00\n            /* \"#utility.yul\":15870:15879   */\n          dup4\n            /* \"#utility.yul\":15866:15883   */\n          add\n            /* \"#utility.yul\":15859:15906   */\n          mstore\n            /* \"#utility.yul\":15923:16054   */\n          tag_396\n            /* \"#utility.yul\":16049:16053   */\n          dup2\n            /* \"#utility.yul\":15923:16054   */\n          tag_255\n          jump\t// in\n        tag_396:\n            /* \"#utility.yul\":15915:16054   */\n          swap1\n          pop\n            /* \"#utility.yul\":15642:16061   */\n          swap2\n          swap1\n          pop\n          jump\t// out\n            /* \"#utility.yul\":16067:16248   */\n        tag_256:\n            /* \"#utility.yul\":16207:16240   */\n          0x45524332303a206d696e7420746f20746865207a65726f206164647265737300\n            /* \"#utility.yul\":16203:16204   */\n          0x00\n            /* \"#utility.yul\":16195:16201   */\n          dup3\n            /* \"#utility.yul\":16191:16205   */\n          add\n            /* \"#utility.yul\":16184:16241   */\n          mstore\n            /* \"#utility.yul\":16067:16248   */\n          pop\n          jump\t// out\n            /* \"#utility.yul\":16254:16620   */\n        tag_257:\n            /* \"#utility.yul\":16396:16399   */\n          0x00\n            /* \"#utility.yul\":16417:16484   */\n          tag_399\n            /* \"#utility.yul\":16481:16483   */\n          0x1f\n            /* \"#utility.yul\":16476:16479   */\n          dup4\n            /* \"#utility.yul\":16417:16484   */\n          tag_216\n          jump\t// in\n        tag_399:\n            /* \"#utility.yul\":16410:16484   */\n          swap2\n          pop\n            /* \"#utility.yul\":16493:16586   */\n          tag_400\n            /* \"#utility.yul\":16582:16585   */\n          dup3\n            /* \"#utility.yul\":16493:16586   */\n          tag_256\n          jump\t// in\n        tag_400:\n            /* \"#utility.yul\":16611:16613   */\n          0x20\n            /* \"#utility.yul\":16606:16609   */\n          dup3\n            /* \"#utility.yul\":16602:16614   */\n          add\n            /* \"#utility.yul\":16595:16614   */\n          swap1\n          pop\n            /* \"#utility.yul\":16254:16620   */\n          swap2\n          swap1\n          pop\n          jump\t// out\n            /* \"#utility.yul\":16626:17045   */\n        tag_194:\n            /* \"#utility.yul\":16792:16796   */\n          0x00\n            /* \"#utility.yul\":16830:16832   */\n          0x20\n            /* \"#utility.yul\":16819:16828   */\n          dup3\n            /* \"#utility.yul\":16815:16833   */\n          add\n            /* \"#utility.yul\":16807:16833   */\n          swap1\n          pop\n            /* \"#utility.yul\":16879:16888   */\n          dup2\n            /* \"#utility.yul\":16873:16877   */\n          dup2\n            /* \"#utility.yul\":16869:16889   */\n          sub\n            /* \"#utility.yul\":16865:16866   */\n          0x00\n            /* \"#utility.yul\":16854:16863   */\n          dup4\n            /* \"#utility.yul\":16850:16867   */\n          add\n            /* \"#utility.yul\":16843:16890   */\n          mstore\n            /* \"#utility.yul\":16907:17038   */\n          tag_402\n            /* \"#utility.yul\":17033:17037   */\n          dup2\n            /* \"#utility.yul\":16907:17038   */\n          tag_257\n          jump\t// in\n        tag_402:\n            /* \"#utility.yul\":16899:17038   */\n          swap1\n          pop\n            /* \"#utility.yul\":16626:17045   */\n          swap2\n          swap1\n          pop\n          jump\t// out\n            /* \"#utility.yul\":17051:17271   */\n        tag_258:\n            /* \"#utility.yul\":17191:17225   */\n          0x45524332303a206275726e2066726f6d20746865207a65726f20616464726573\n            /* \"#utility.yul\":17187:17188   */\n          0x00\n            /* \"#utility.yul\":17179:17185   */\n          dup3\n            /* \"#utility.yul\":17175:17189   */\n          add\n            /* \"#utility.yul\":17168:17226   */\n          mstore\n            /* \"#utility.yul\":17260:17263   */\n          0x7300000000000000000000000000000000000000000000000000000000000000\n            /* \"#utility.yul\":17255:17257   */\n          0x20\n            /* \"#utility.yul\":17247:17253   */\n          dup3\n            /* \"#utility.yul\":17243:17258   */\n          add\n            /* \"#utility.yul\":17236:17264   */\n          mstore\n            /* \"#utility.yul\":17051:17271   */\n          pop\n          jump\t// out\n            /* \"#utility.yul\":17277:17643   */\n        tag_259:\n            /* \"#utility.yul\":17419:17422   */\n          0x00\n            /* \"#utility.yul\":17440:17507   */\n          tag_405\n            /* \"#utility.yul\":17504:17506   */\n          0x21\n            /* \"#utility.yul\":17499:17502   */\n          dup4\n            /* \"#utility.yul\":17440:17507   */\n          tag_216\n          jump\t// in\n        tag_405:\n            /* \"#utility.yul\":17433:17507   */\n          swap2\n          pop\n            /* \"#utility.yul\":17516:17609   */\n          tag_406\n            /* \"#utility.yul\":17605:17608   */\n          dup3\n            /* \"#utility.yul\":17516:17609   */\n          tag_258\n          jump\t// in\n        tag_406:\n            /* \"#utility.yul\":17634:17636   */\n          0x40\n            /* \"#utility.yul\":17629:17632   */\n          dup3\n            /* \"#utility.yul\":17625:17637   */\n          add\n            /* \"#utility.yul\":17618:17637   */\n          swap1\n          pop\n            /* \"#utility.yul\":17277:17643   */\n          swap2\n          swap1\n          pop\n          jump\t// out\n            /* \"#utility.yul\":17649:18068   */\n        tag_204:\n            /* \"#utility.yul\":17815:17819   */\n          0x00\n            /* \"#utility.yul\":17853:17855   */\n          0x20\n            /* \"#utility.yul\":17842:17851   */\n          dup3\n            /* \"#utility.yul\":17838:17856   */\n          add\n            /* \"#utility.yul\":17830:17856   */\n          swap1\n          pop\n            /* \"#utility.yul\":17902:17911   */\n          dup2\n            /* \"#utility.yul\":17896:17900   */\n          dup2\n            /* \"#utility.yul\":17892:17912   */\n          sub\n            /* \"#utility.yul\":17888:17889   */\n          0x00\n            /* \"#utility.yul\":17877:17886   */\n          dup4\n            /* \"#utility.yul\":17873:17890   */\n          add\n            /* \"#utility.yul\":17866:17913   */\n          mstore\n            /* \"#utility.yul\":17930:18061   */\n          tag_408\n            /* \"#utility.yul\":18056:18060   */\n          dup2\n            /* \"#utility.yul\":17930:18061   */\n          tag_259\n          jump\t// in\n        tag_408:\n            /* \"#utility.yul\":17922:18061   */\n          swap1\n          pop\n            /* \"#utility.yul\":17649:18068   */\n          swap2\n          swap1\n          pop\n          jump\t// out\n            /* \"#utility.yul\":18074:18295   */\n        tag_260:\n            /* \"#utility.yul\":18214:18248   */\n          0x45524332303a206275726e20616d6f756e7420657863656564732062616c616e\n            /* \"#utility.yul\":18210:18211   */\n          0x00\n            /* \"#utility.yul\":18202:18208   */\n          dup3\n            /* \"#utility.yul\":18198:18212   */\n          add\n            /* \"#utility.yul\":18191:18249   */\n          mstore\n            /* \"#utility.yul\":18283:18287   */\n          0x6365000000000000000000000000000000000000000000000000000000000000\n            /* \"#utility.yul\":18278:18280   */\n          0x20\n            /* \"#utility.yul\":18270:18276   */\n          dup3\n            /* \"#utility.yul\":18266:18281   */\n          add\n            /* \"#utility.yul\":18259:18288   */\n          mstore\n            /* \"#utility.yul\":18074:18295   */\n          pop\n          jump\t// out\n            /* \"#utility.yul\":18301:18667   */\n        tag_261:\n            /* \"#utility.yul\":18443:18446   */\n          0x00\n            /* \"#utility.yul\":18464:18531   */\n          tag_411\n            /* \"#utility.yul\":18528:18530   */\n          0x22\n            /* \"#utility.yul\":18523:18526   */\n          dup4\n            /* \"#utility.yul\":18464:18531   */\n          tag_216\n          jump\t// in\n        tag_411:\n            /* \"#utility.yul\":18457:18531   */\n          swap2\n          pop\n            /* \"#utility.yul\":18540:18633   */\n          tag_412\n            /* \"#utility.yul\":18629:18632   */\n          dup3\n            /* \"#utility.yul\":18540:18633   */\n          tag_260\n          jump\t// in\n        tag_412:\n            /* \"#utility.yul\":18658:18660   */\n          0x40\n            /* \"#utility.yul\":18653:18656   */\n          dup3\n            /* \"#utility.yul\":18649:18661   */\n          add\n            /* \"#utility.yul\":18642:18661   */\n          swap1\n          pop\n            /* \"#utility.yul\":18301:18667   */\n          swap2\n          swap1\n          pop\n          jump\t// out\n            /* \"#utility.yul\":18673:19092   */\n        tag_208:\n            /* \"#utility.yul\":18839:18843   */\n          0x00\n            /* \"#utility.yul\":18877:18879   */\n          0x20\n            /* \"#utility.yul\":18866:18875   */\n          dup3\n            /* \"#utility.yul\":18862:18880   */\n          add\n            /* \"#utility.yul\":18854:18880   */\n          swap1\n          pop\n            /* \"#utility.yul\":18926:18935   */\n          dup2\n            /* \"#utility.yul\":18920:18924   */\n          dup2\n            /* \"#utility.yul\":18916:18936   */\n          sub\n            /* \"#utility.yul\":18912:18913   */\n          0x00\n            /* \"#utility.yul\":18901:18910   */\n          dup4\n            /* \"#utility.yul\":18897:18914   */\n          add\n            /* \"#utility.yul\":18890:18937   */\n          mstore\n            /* \"#utility.yul\":18954:19085   */\n          tag_414\n            /* \"#utility.yul\":19080:19084   */\n          dup2\n            /* \"#utility.yul\":18954:19085   */\n          tag_261\n          jump\t// in\n        tag_414:\n            /* \"#utility.yul\":18946:19085   */\n          swap1\n          pop\n            /* \"#utility.yul\":18673:19092   */\n          swap2\n          swap1\n          pop\n          jump\t// out\n            /* \"#utility.yul\":19098:19292   */\n        tag_210:\n            /* \"#utility.yul\":19138:19142   */\n          0x00\n            /* \"#utility.yul\":19158:19178   */\n          tag_416\n            /* \"#utility.yul\":19176:19177   */\n          dup3\n            /* \"#utility.yul\":19158:19178   */\n          tag_227\n          jump\t// in\n        tag_416:\n            /* \"#utility.yul\":19153:19178   */\n          swap2\n          pop\n            /* \"#utility.yul\":19192:19212   */\n          tag_417\n            /* \"#utility.yul\":19210:19211   */\n          dup4\n            /* \"#utility.yul\":19192:19212   */\n          tag_227\n          jump\t// in\n        tag_417:\n            /* \"#utility.yul\":19187:19212   */\n          swap3\n          pop\n            /* \"#utility.yul\":19236:19237   */\n          dup3\n            /* \"#utility.yul\":19233:19234   */\n          dup3\n            /* \"#utility.yul\":19229:19238   */\n          sub\n            /* \"#utility.yul\":19221:19238   */\n          swap1\n          pop\n            /* \"#utility.yul\":19260:19261   */\n          dup2\n            /* \"#utility.yul\":19254:19258   */\n          dup2\n            /* \"#utility.yul\":19251:19262   */\n          gt\n            /* \"#utility.yul\":19248:19285   */\n          iszero\n          tag_418\n          jumpi\n            /* \"#utility.yul\":19265:19283   */\n          tag_419\n          tag_237\n          jump\t// in\n        tag_419:\n            /* \"#utility.yul\":19248:19285   */\n        tag_418:\n            /* \"#utility.yul\":19098:19292   */\n          swap3\n          swap2\n          pop\n          pop\n          jump\t// out\n\n        auxdata: 0xa264697066735822122026b3922f3954546f0b1ce287c14678a99f71becb66c27592963606076f95aaf864736f6c63430008100033\n    }\n}\n","bytecode":{"linkReferences":{},"object":"60a06040526040516200819d3803806200819d8339818101604052810190620000299190620001d0565b620000496200003d620000b660201b60201c565b620000be60201b60201c565b604051620000579062000182565b604051809103906000f08015801562000074573d6000803e3d6000fd5b5073ffffffffffffffffffffffffffffffffffffffff1660808173ffffffffffffffffffffffffffffffffffffffff1681525050806002819055505062000202565b600033905090565b60008060009054906101000a900473ffffffffffffffffffffffffffffffffffffffff169050816000806101000a81548173ffffffffffffffffffffffffffffffffffffffff021916908373ffffffffffffffffffffffffffffffffffffffff1602179055508173ffffffffffffffffffffffffffffffffffffffff168173ffffffffffffffffffffffffffffffffffffffff167f8be0079c531659141344cd1fd0a4f28419497f9722a3daafe3b4186f6b6457e060405160405180910390a35050565b612064806200613983390190565b600080fd5b6000819050919050565b620001aa8162000195565b8114620001b657600080fd5b50565b600081519050620001ca816200019f565b92915050565b600060208284031215620001e957620001e862000190565b5b6000620001f984828501620001b9565b91505092915050565b608051615f0d6200022c600039600081816103b2015281816105b101526109be0152615f0d6000f3fe608060405260043610620000fe5760003560e01c80638da5cb5b1162000097578063cfb35b3b1162000061578063cfb35b3b14620002f9578063e1a3db151462000327578063f2fde38b1462000357578063fd62a55f146200038557620000fe565b80638da5cb5b146200023b5780639a068bd6146200026b578063ac44600214620002af578063b69ef8a814620002c957620000fe565b806354d8a5bd11620000d957806354d8a5bd14620001935780635780073614620001c357806364705d8b14620001f3578063715018a6146200022157620000fe565b8063027d3f3514620001035780632dabb8ac146200013357806350adcdb71462000163575b600080fd5b3480156200011057600080fd5b506200011b620003a5565b6040516200012a919062000c38565b60405180910390f35b3480156200014057600080fd5b506200014b620003aa565b6040516200015a919062000c38565b60405180910390f35b3480156200017057600080fd5b506200017b620003b0565b6040516200018a919062000ce0565b60405180910390f35b348015620001a057600080fd5b50620001ab620003d4565b604051620001ba919062000ddf565b60405180910390f35b348015620001d057600080fd5b50620001db62000464565b604051620001ea919062000c38565b60405180910390f35b3480156200020057600080fd5b506200021f600480360381019062000219919062001107565b6200046a565b005b3480156200022e57600080fd5b506200023962000753565b005b3480156200024857600080fd5b50620002536200076b565b60405162000262919062001235565b60405180910390f35b3480156200027857600080fd5b5062000297600480360381019062000291919062001252565b62000794565b604051620002a6919062001295565b60405180910390f35b348015620002bc57600080fd5b50620002c7620007d4565b005b348015620002d657600080fd5b50620002e162000831565b604051620002f0919062000c38565b60405180910390f35b3480156200030657600080fd5b506200032560048036038101906200031f919062001252565b62000839565b005b3480156200033457600080fd5b506200033f62000886565b6040516200034e919062000c38565b60405180910390f35b3480156200036457600080fd5b506200038360048036038101906200037d9190620012b2565b62000893565b005b620003a360048036038101906200039d919062001252565b6200091d565b005b600181565b60015481565b7f000000000000000000000000000000000000000000000000000000000000000081565b606060038054806020026020016040519081016040528092919081815260200182805480156200045a57602002820191906000526020600020905b8160009054906101000a900473ffffffffffffffffffffffffffffffffffffffff1673ffffffffffffffffffffffffffffffffffffffff16815260200190600101908083116200040f575b5050505050905090565b60025481565b6000895103620004b1576040517f08c379a0000000000000000000000000000000000000000000000000000000008152600401620004a8906200136b565b60405180910390fd5b858015620004c0575060008851115b80620004e15750848015620004e05750831580620004df575060008851115b5b5b62000523576040517f08c379a00000000000000000000000000000000000000000000000000000000081526004016200051a9062001403565b60405180910390fd5b6065821062000569576040517f08c379a000000000000000000000000000000000000000000000000000000000815260040162000560906200149b565b60405180910390fd5b60658110620005af576040517f08c379a0000000000000000000000000000000000000000000000000000000008152600401620005a69062001533565b60405180910390fd5b7f000000000000000000000000000000000000000000000000000000000000000073ffffffffffffffffffffffffffffffffffffffff16639dc29fac3360016040518363ffffffff1660e01b81526004016200060d92919062001555565b600060405180830381600087803b1580156200062857600080fd5b505af11580156200063d573d6000803e3d6000fd5b50505050600089338a8a8a8a8a8a8a8a6040516200065b9062000c0f565b620006709a99989796959493929190620016c8565b604051809103906000f0801580156200068d573d6000803e3d6000fd5b5090506003819080600181540180825580915050600190039060005260206000200160009091909190916101000a81548173ffffffffffffffffffffffffffffffffffffffff021916908373ffffffffffffffffffffffffffffffffffffffff1602179055503373ffffffffffffffffffffffffffffffffffffffff167f9109803bce680e214bd28bd83c37574dbcfc99a7d71112714d8143e69f2c5069828c426040516200073f9392919062001786565b60405180910390a250505050505050505050565b6200075d62000abe565b62000769600062000b43565b565b60008060009054906101000a900473ffffffffffffffffffffffffffffffffffffffff16905090565b60038181548110620007a557600080fd5b906000526020600020016000915054906101000a900473ffffffffffffffffffffffffffffffffffffffff1681565b620007de62000abe565b620007e86200076b565b73ffffffffffffffffffffffffffffffffffffffff166108fc479081150290604051600060405180830381858888f193505050501580156200082e573d6000803e3d6000fd5b50565b600047905090565b6200084362000abe565b806002819055507f6fa7d30ebcf61d14f9af3a7c1bac55aa0088eb2e6a1f966a94c413305a6ece38816040516200087b919062000c38565b60405180910390a150565b6000600380549050905090565b6200089d62000abe565b600073ffffffffffffffffffffffffffffffffffffffff168173ffffffffffffffffffffffffffffffffffffffff16036200090f576040517f08c379a0000000000000000000000000000000000000000000000000000000008152600401620009069062001840565b60405180910390fd5b6200091a8162000b43565b50565b6000811162000963576040517f08c379a00000000000000000000000000000000000000000000000000000000081526004016200095a90620018d8565b60405180910390fd5b60006002549050808262000978919062001929565b3414620009bc576040517f08c379a0000000000000000000000000000000000000000000000000000000008152600401620009b390620019da565b60405180910390fd5b7f000000000000000000000000000000000000000000000000000000000000000073ffffffffffffffffffffffffffffffffffffffff166340c10f1933846040518363ffffffff1660e01b815260040162000a1992919062001555565b600060405180830381600087803b15801562000a3457600080fd5b505af115801562000a49573d6000803e3d6000fd5b50505050346001600082825462000a619190620019fc565b925050819055503373ffffffffffffffffffffffffffffffffffffffff167f9d3e99ee489ac621f2410b44b7354ab26cb655afbc87f3ec09d88f2b8b3dbf44828460405162000ab292919062001a37565b60405180910390a25050565b62000ac862000c07565b73ffffffffffffffffffffffffffffffffffffffff1662000ae86200076b565b73ffffffffffffffffffffffffffffffffffffffff161462000b41576040517f08c379a000000000000000000000000000000000000000000000000000000000815260040162000b389062001ab4565b60405180910390fd5b565b60008060009054906101000a900473ffffffffffffffffffffffffffffffffffffffff169050816000806101000a81548173ffffffffffffffffffffffffffffffffffffffff021916908373ffffffffffffffffffffffffffffffffffffffff1602179055508173ffffffffffffffffffffffffffffffffffffffff168173ffffffffffffffffffffffffffffffffffffffff167f8be0079c531659141344cd1fd0a4f28419497f9722a3daafe3b4186f6b6457e060405160405180910390a35050565b600033905090565b6144018062001ad783390190565b6000819050919050565b62000c328162000c1d565b82525050565b600060208201905062000c4f600083018462000c27565b92915050565b600073ffffffffffffffffffffffffffffffffffffffff82169050919050565b6000819050919050565b600062000ca062000c9a62000c948462000c55565b62000c75565b62000c55565b9050919050565b600062000cb48262000c7f565b9050919050565b600062000cc88262000ca7565b9050919050565b62000cda8162000cbb565b82525050565b600060208201905062000cf7600083018462000ccf565b92915050565b600081519050919050565b600082825260208201905092915050565b6000819050602082019050919050565b600062000d368262000ca7565b9050919050565b62000d488162000d29565b82525050565b600062000d5c838362000d3d565b60208301905092915050565b6000602082019050919050565b600062000d828262000cfd565b62000d8e818562000d08565b935062000d9b8362000d19565b8060005b8381101562000dd257815162000db6888262000d4e565b975062000dc38362000d68565b92505060018101905062000d9f565b5085935050505092915050565b6000602082019050818103600083015262000dfb818462000d75565b905092915050565b6000604051905090565b600080fd5b600080fd5b600080fd5b600080fd5b6000601f19601f8301169050919050565b7f4e487b7100000000000000000000000000000000000000000000000000000000600052604160045260246000fd5b62000e6c8262000e21565b810181811067ffffffffffffffff8211171562000e8e5762000e8d62000e32565b5b80604052505050565b600062000ea362000e03565b905062000eb1828262000e61565b919050565b600067ffffffffffffffff82111562000ed45762000ed362000e32565b5b62000edf8262000e21565b9050602081019050919050565b82818337600083830152505050565b600062000f1262000f0c8462000eb6565b62000e97565b90508281526020810184848401111562000f315762000f3062000e1c565b5b62000f3e84828562000eec565b509392505050565b600082601f83011262000f5e5762000f5d62000e17565b5b813562000f7084826020860162000efb565b91505092915050565b600067ffffffffffffffff82111562000f975762000f9662000e32565b5b602082029050602081019050919050565b600080fd5b600062000fba8262000c55565b9050919050565b62000fcc8162000fad565b811462000fd857600080fd5b50565b60008135905062000fec8162000fc1565b92915050565b600062001009620010038462000f79565b62000e97565b905080838252602082019050602084028301858111156200102f576200102e62000fa8565b5b835b818110156200105c578062001047888262000fdb565b84526020840193505060208101905062001031565b5050509392505050565b600082601f8301126200107e576200107d62000e17565b5b81356200109084826020860162000ff2565b91505092915050565b60008115159050919050565b620010b08162001099565b8114620010bc57600080fd5b50565b600081359050620010d081620010a5565b92915050565b620010e18162000c1d565b8114620010ed57600080fd5b50565b6000813590506200110181620010d6565b92915050565b60008060008060008060008060006101208a8c0312156200112d576200112c62000e0d565b5b60008a013567ffffffffffffffff8111156200114e576200114d62000e12565b5b6200115c8c828d0162000f46565b99505060208a013567ffffffffffffffff81111562001180576200117f62000e12565b5b6200118e8c828d0162001066565b9850506040620011a18c828d01620010bf565b9750506060620011b48c828d01620010bf565b9650506080620011c78c828d01620010bf565b95505060a0620011da8c828d01620010bf565b94505060c0620011ed8c828d01620010bf565b93505060e0620012008c828d01620010f0565b925050610100620012148c828d01620010f0565b9150509295985092959850929598565b6200122f8162000fad565b82525050565b60006020820190506200124c600083018462001224565b92915050565b6000602082840312156200126b576200126a62000e0d565b5b60006200127b84828501620010f0565b91505092915050565b6200128f8162000d29565b82525050565b6000602082019050620012ac600083018462001284565b92915050565b600060208284031215620012cb57620012ca62000e0d565b5b6000620012db8482850162000fdb565b91505092915050565b600082825260208201905092915050565b7f456c206e6f6d6272652064656c20666f6e646f206e6f2070756564652065737460008201527f617220766163c3ad6f0000000000000000000000000000000000000000000000602082015250565b600062001353602983620012e4565b91506200136082620012f5565b604082019050919050565b60006020820190508181036000830152620013868162001344565b9050919050565b7f4e6f2068616272c3ad61206d616e657261206465207265746972617220656c2060008201527f64696e65726f2064656c20636f6e747261746f00000000000000000000000000602082015250565b6000620013eb603383620012e4565b9150620013f8826200138d565b604082019050919050565b600060208201905081810360008301526200141e81620013dc565b9050919050565b7f506f7263656e74616a6520646520636f6e74726962756369c3b36e20696e636f60008201527f72726563746f0000000000000000000000000000000000000000000000000000602082015250565b600062001483602683620012e4565b9150620014908262001425565b604082019050919050565b60006020820190508181036000830152620014b68162001474565b9050919050565b7f506f7263656e74616a65206465206170726f626163696f6e657320696e636f7260008201527f726563746f000000000000000000000000000000000000000000000000000000602082015250565b60006200151b602583620012e4565b91506200152882620014bd565b604082019050919050565b600060208201905081810360008301526200154e816200150c565b9050919050565b60006040820190506200156c600083018562001224565b6200157b602083018462000c27565b9392505050565b600081519050919050565b60005b83811015620015ad57808201518184015260208101905062001590565b60008484015250505050565b6000620015c68262001582565b620015d28185620012e4565b9350620015e48185602086016200158d565b620015ef8162000e21565b840191505092915050565b600081519050919050565b6000819050602082019050919050565b620016208162000fad565b82525050565b600062001634838362001615565b60208301905092915050565b6000602082019050919050565b60006200165a82620015fa565b62001666818562000d08565b9350620016738362001605565b8060005b83811015620016aa5781516200168e888262001626565b97506200169b8362001640565b92505060018101905062001677565b5085935050505092915050565b620016c28162001099565b82525050565b6000610140820190508181036000830152620016e5818d620015b9565b9050620016f6602083018c62001224565b81810360408301526200170a818b6200164d565b90506200171b606083018a620016b7565b6200172a6080830189620016b7565b6200173960a0830188620016b7565b6200174860c0830187620016b7565b6200175760e0830186620016b7565b6200176761010083018562000c27565b6200177761012083018462000c27565b9b9a5050505050505050505050565b60006060820190506200179d600083018662001224565b8181036020830152620017b18185620015b9565b9050620017c2604083018462000c27565b949350505050565b7f4f776e61626c653a206e6577206f776e657220697320746865207a65726f206160008201527f6464726573730000000000000000000000000000000000000000000000000000602082015250565b600062001828602683620012e4565b91506200183582620017ca565b604082019050919050565b600060208201905081810360008301526200185b8162001819565b9050919050565b7f5365206465626520636f6d7072617220616c206d656e6f7320312046756e645460008201527f6f6b656e00000000000000000000000000000000000000000000000000000000602082015250565b6000620018c0602483620012e4565b9150620018cd8262001862565b604082019050919050565b60006020820190508181036000830152620018f381620018b1565b9050919050565b7f4e487b7100000000000000000000000000000000000000000000000000000000600052601160045260246000fd5b6000620019368262000c1d565b9150620019438362000c1d565b9250817fffffffffffffffffffffffffffffffffffffffffffffffffffffffffffffffff04831182151516156200197f576200197e620018fa565b5b828202905092915050565b7f5061676f20696e737566696369656e7465000000000000000000000000000000600082015250565b6000620019c2601183620012e4565b9150620019cf826200198a565b602082019050919050565b60006020820190508181036000830152620019f581620019b3565b9050919050565b600062001a098262000c1d565b915062001a168362000c1d565b925082820190508082111562001a315762001a30620018fa565b5b92915050565b600060408201905062001a4e600083018562000c27565b62001a5d602083018462000c27565b9392505050565b7f4f776e61626c653a2063616c6c6572206973206e6f7420746865206f776e6572600082015250565b600062001a9c602083620012e4565b915062001aa98262001a64565b602082019050919050565b6000602082019050818103600083015262001acf8162001a8d565b905091905056fe6101a06040524260a0908152503480156200001957600080fd5b50604051620044013803806200440183398181016040528101906200003f91906200054a565b60016000819055508960019081620000589190620008bf565b508873ffffffffffffffffffffffffffffffffffffffff1660808173ffffffffffffffffffffffffffffffffffffffff168152505060005b88518110156200019d576002898281518110620000b257620000b1620009a6565b5b60200260200101519080600181540180825580915050600190039060005260206000200160009091909190916101000a81548173ffffffffffffffffffffffffffffffffffffffff021916908373ffffffffffffffffffffffffffffffffffffffff1602179055506001600360008b8481518110620001365762000135620009a6565b5b602002602001015173ffffffffffffffffffffffffffffffffffffffff1673ffffffffffffffffffffffffffffffffffffffff16815260200190815260200160002060006101000a81548160ff021916908315150217905550808060010191505062000090565b5086151560c08115158152505085151560e08115158152505084151561010081151581525050831515610120811515815250508215156101408115158152505081610160818152505080610180818152505050505050505050505050620009d5565b6000604051905090565b600080fd5b600080fd5b600080fd5b600080fd5b6000601f19601f8301169050919050565b7f4e487b7100000000000000000000000000000000000000000000000000000000600052604160045260246000fd5b62000268826200021d565b810181811067ffffffffffffffff821117156200028a57620002896200022e565b5b80604052505050565b60006200029f620001ff565b9050620002ad82826200025d565b919050565b600067ffffffffffffffff821115620002d057620002cf6200022e565b5b620002db826200021d565b9050602081019050919050565b60005b8381101562000308578082015181840152602081019050620002eb565b60008484015250505050565b60006200032b6200032584620002b2565b62000293565b9050828152602081018484840111156200034a576200034962000218565b5b62000357848285620002e8565b509392505050565b600082601f83011262000377576200037662000213565b5b81516200038984826020860162000314565b91505092915050565b600073ffffffffffffffffffffffffffffffffffffffff82169050919050565b6000620003bf8262000392565b9050919050565b620003d181620003b2565b8114620003dd57600080fd5b50565b600081519050620003f181620003c6565b92915050565b600067ffffffffffffffff8211156200041557620004146200022e565b5b602082029050602081019050919050565b600080fd5b6000620004426200043c84620003f7565b62000293565b9050808382526020820190506020840283018581111562000468576200046762000426565b5b835b81811015620004955780620004808882620003e0565b8452602084019350506020810190506200046a565b5050509392505050565b600082601f830112620004b757620004b662000213565b5b8151620004c98482602086016200042b565b91505092915050565b60008115159050919050565b620004e981620004d2565b8114620004f557600080fd5b50565b6000815190506200050981620004de565b92915050565b6000819050919050565b62000524816200050f565b81146200053057600080fd5b50565b600081519050620005448162000519565b92915050565b6000806000806000806000806000806101408b8d03121562000571576200057062000209565b5b60008b015167ffffffffffffffff8111156200059257620005916200020e565b5b620005a08d828e016200035f565b9a50506020620005b38d828e01620003e0565b99505060408b015167ffffffffffffffff811115620005d757620005d66200020e565b5b620005e58d828e016200049f565b9850506060620005f88d828e01620004f8565b97505060806200060b8d828e01620004f8565b96505060a06200061e8d828e01620004f8565b95505060c0620006318d828e01620004f8565b94505060e0620006448d828e01620004f8565b935050610100620006588d828e0162000533565b9250506101206200066c8d828e0162000533565b9150509295989b9194979a5092959850565b600081519050919050565b7f4e487b7100000000000000000000000000000000000000000000000000000000600052602260045260246000fd5b60006002820490506001821680620006d157607f821691505b602082108103620006e757620006e662000689565b5b50919050565b60008190508160005260206000209050919050565b60006020601f8301049050919050565b600082821b905092915050565b600060088302620007517fffffffffffffffffffffffffffffffffffffffffffffffffffffffffffffffff8262000712565b6200075d868362000712565b95508019841693508086168417925050509392505050565b6000819050919050565b6000620007a06200079a62000794846200050f565b62000775565b6200050f565b9050919050565b6000819050919050565b620007bc836200077f565b620007d4620007cb82620007a7565b8484546200071f565b825550505050565b600090565b620007eb620007dc565b620007f8818484620007b1565b505050565b5b81811015620008205762000814600082620007e1565b600181019050620007fe565b5050565b601f8211156200086f576200083981620006ed565b620008448462000702565b8101602085101562000854578190505b6200086c620008638562000702565b830182620007fd565b50505b505050565b600082821c905092915050565b6000620008946000198460080262000874565b1980831691505092915050565b6000620008af838362000881565b9150826002028217905092915050565b620008ca826200067e565b67ffffffffffffffff811115620008e657620008e56200022e565b5b620008f28254620006b8565b620008ff82828562000824565b600060209050601f83116001811462000937576000841562000922578287015190505b6200092e8582620008a1565b8655506200099e565b601f1984166200094786620006ed565b60005b8281101562000971578489015182556001820191506020850194506020810190506200094a565b868310156200099157848901516200098d601f89168262000881565b8355505b6001600288020188555050505b505050505050565b7f4e487b7100000000000000000000000000000000000000000000000000000000600052603260045260246000fd5b60805160a05160c05160e051610100516101205161014051610160516101805161392862000ad960003960008181610a3c01528181611f2f015261214d015260008181611372015281816119bc015261212a015260008181610940015281816119e601528181612107015261217c015260008181610d0701528181610d2f0152818161150201528181611cee01526120e4015260008181610c56015281816117ca01528181611cc601526120c10152600081816113a30152818161162e015261209e015260008181610ed501528181611bc401528181611fed01526121c001526000818161132301526118840152600081816107c3015261130001526139286000f3fe6080604052600436106101ee5760003560e01c80638a20bc371161010d578063d7bb99ba116100a0578063e557e5dc1161006f578063e557e5dc146106cf578063ecbff6e714610703578063f3ae24151461072e578063fa68b6311461076b578063fbfa4b7f14610796576101ee565b8063d7bb99ba14610648578063d7d1bbdb14610652578063d8247ee71461067b578063db2d78b1146106a4576101ee565b8063aa9cfc50116100dc578063aa9cfc501461059c578063af157c19146105c7578063b69ef8a8146105f2578063cf09e0d01461061d576101ee565b80638a20bc37146104e05780639073fa7e1461050b578063a8d088bb14610548578063a9059cbb14610573576101ee565b80633d39c26011610185578063691c754511610154578063691c75451461041c5780637569b3d7146104475780638175f2c71461047257806381d12c581461049d576101ee565b80633d39c260146103485780634051ddac1461038557806342e94c90146103b45780636308ae65146103f1576101ee565b80631b16bb5c116101c15780631b16bb5c1461028e5780632dde0013146102b757806337c08923146102e05780633cb5d1001461030b576101ee565b806302d05d3f146101f3578063034410061461021e57806306fdde03146102475780631071865514610272575b600080fd5b3480156101ff57600080fd5b506102086107c1565b6040516102159190612402565b60405180910390f35b34801561022a57600080fd5b5061024560048036038101906102409190612467565b6107e5565b005b34801561025357600080fd5b5061025c610bba565b6040516102699190612524565b60405180910390f35b61028c60048036038101906102879190612572565b610c48565b005b34801561029a57600080fd5b506102b560048036038101906102b091906126d4565b610c54565b005b3480156102c357600080fd5b506102de60048036038101906102d9919061280b565b610ed3565b005b3480156102ec57600080fd5b506102f56111d8565b6040516103029190612863565b60405180910390f35b34801561031757600080fd5b50610332600480360381019061032d9190612467565b6111de565b60405161033f9190612402565b60405180910390f35b34801561035457600080fd5b5061036f600480360381019061036a9190612467565b61121d565b60405161037c9190612402565b60405180910390f35b34801561039157600080fd5b5061039a61125c565b6040516103ab95949392919061287e565b60405180910390f35b3480156103c057600080fd5b506103db60048036038101906103d69190612572565b61134b565b6040516103e89190612863565b60405180910390f35b3480156103fd57600080fd5b50610406611363565b6040516104139190612863565b60405180910390f35b34801561042857600080fd5b50610431611370565b60405161043e9190612863565b60405180910390f35b34801561045357600080fd5b5061045c611394565b6040516104699190612863565b60405180910390f35b34801561047e57600080fd5b506104876113a1565b60405161049491906128f3565b60405180910390f35b3480156104a957600080fd5b506104c460048036038101906104bf9190612467565b6113c5565b6040516104d79796959493929190612939565b60405180910390f35b3480156104ec57600080fd5b506104f5611500565b60405161050291906128f3565b60405180910390f35b34801561051757600080fd5b50610532600480360381019061052d91906129af565b611524565b60405161053f91906128f3565b60405180910390f35b34801561055457600080fd5b5061055d61159e565b60405161056a9190612aad565b60405180910390f35b34801561057f57600080fd5b5061059a60048036038101906105959190612acf565b61162c565b005b3480156105a857600080fd5b506105b16117c8565b6040516105be91906128f3565b60405180910390f35b3480156105d357600080fd5b506105dc6117ec565b6040516105e99190612aad565b60405180910390f35b3480156105fe57600080fd5b5061060761187a565b6040516106149190612863565b60405180910390f35b34801561062957600080fd5b50610632611882565b60405161063f9190612863565b60405180910390f35b6106506118a6565b005b34801561065e57600080fd5b5061067960048036038101906106749190612467565b6118b1565b005b34801561068757600080fd5b506106a2600480360381019061069d9190612467565b611bc2565b005b3480156106b057600080fd5b506106b9611f2d565b6040516106c69190612863565b60405180910390f35b3480156106db57600080fd5b506106e4611f51565b6040516106fa9a99989796959493929190612b0f565b60405180910390f35b34801561070f57600080fd5b5061071861217a565b60405161072591906128f3565b60405180910390f35b34801561073a57600080fd5b5061075560048036038101906107509190612572565b61219e565b60405161076291906128f3565b60405180910390f35b34801561077757600080fd5b506107806121be565b60405161078d91906128f3565b60405180910390f35b3480156107a257600080fd5b506107ab6121e2565b6040516107b89190612863565b60405180910390f35b7f000000000000000000000000000000000000000000000000000000000000000081565b60026000540361082a576040517f08c379a000000000000000000000000000000000000000000000000000000000815260040161082190612c05565b60405180910390fd5b600260008190555060006007828154811061084857610847612c25565b5b906000526020600020906008020190503373ffffffffffffffffffffffffffffffffffffffff168160010160009054906101000a900473ffffffffffffffffffffffffffffffffffffffff1673ffffffffffffffffffffffffffffffffffffffff16146108ea576040517f08c379a00000000000000000000000000000000000000000000000000000000081526004016108e190612cc6565b60405180910390fd5b8060050160009054906101000a900460ff161561093c576040517f08c379a000000000000000000000000000000000000000000000000000000000815260040161093390612d58565b60405180910390fd5b60007f0000000000000000000000000000000000000000000000000000000000000000156109735761096c611394565b9050610a30565b61097b611394565b905060005b600280549050811015610a2e57600060056000600284815481106109a7576109a6612c25565b5b9060005260206000200160009054906101000a900473ffffffffffffffffffffffffffffffffffffffff1673ffffffffffffffffffffffffffffffffffffffff1673ffffffffffffffffffffffffffffffffffffffff1681526020019081526020016000205411610a21578180610a1d90612da7565b9250505b8080600101915050610980565b505b6000811480610a8157507f0000000000000000000000000000000000000000000000000000000000000000816064610a6a856007016121ef565b610a749190612def565b610a7e9190612e78565b10155b610ac0576040517f08c379a0000000000000000000000000000000000000000000000000000000008152600401610ab790612f1b565b60405180910390fd5b600082600301549050610ad161187a565b811115610ae357610ae061187a565b90505b8260020160009054906101000a900473ffffffffffffffffffffffffffffffffffffffff1673ffffffffffffffffffffffffffffffffffffffff166108fc829081150290604051600060405180830381858888f19350505050158015610b4d573d6000803e3d6000fd5b5080836004018190555060018360050160006101000a81548160ff021916908315150217905550837f2a26d55234ae45d40d3bdfd1893cf58ff7c2bb1c8089d97ed73879054778458c82604051610ba49190612863565b60405180910390a2505050600160008190555050565b60018054610bc790612f6a565b80601f0160208091040260200160405190810160405280929190818152602001828054610bf390612f6a565b8015610c405780601f10610c1557610100808354040283529160200191610c40565b820191906000526020600020905b815481529060010190602001808311610c2357829003601f168201915b505050505081565b610c51816121fd565b50565b7f0000000000000000000000000000000000000000000000000000000000000000610cb4576040517f08c379a0000000000000000000000000000000000000000000000000000000008152600401610cab90612fe7565b60405180910390fd5b6000600360003373ffffffffffffffffffffffffffffffffffffffff1673ffffffffffffffffffffffffffffffffffffffff16815260200190815260200160002060009054906101000a900460ff1690507f00000000000000000000000000000000000000000000000000000000000000001580610d5857507f00000000000000000000000000000000000000000000000000000000000000008015610d575750805b5b610d97576040517f08c379a0000000000000000000000000000000000000000000000000000000008152600401610d8e90613079565b60405180910390fd5b60006007600181600181540180825580915050039060005260206000209060080201905084816000019081610dcc9190613245565b50338160010160006101000a81548173ffffffffffffffffffffffffffffffffffffffff021916908373ffffffffffffffffffffffffffffffffffffffff160217905550838160020160006101000a81548173ffffffffffffffffffffffffffffffffffffffff021916908373ffffffffffffffffffffffffffffffffffffffff1602179055508281600301819055508373ffffffffffffffffffffffffffffffffffffffff163373ffffffffffffffffffffffffffffffffffffffff166001600780549050037f5951f0e7966a5f08a4c0a5f25718915cc221b5a4fc488a15b2fbf1f12248d5c28887604051610ec4929190613317565b60405180910390a45050505050565b7f0000000000000000000000000000000000000000000000000000000000000000610f33576040517f08c379a0000000000000000000000000000000000000000000000000000000008152600401610f2a906133b9565b60405180910390fd5b600360003373ffffffffffffffffffffffffffffffffffffffff1673ffffffffffffffffffffffffffffffffffffffff16815260200190815260200160002060009054906101000a900460ff16610fbf576040517f08c379a0000000000000000000000000000000000000000000000000000000008152600401610fb69061344b565b60405180910390fd5b6000815111611003576040517f08c379a0000000000000000000000000000000000000000000000000000000008152600401610ffa906134dd565b60405180910390fd5b60005b81518110156111d4576003600083838151811061102657611025612c25565b5b602002602001015173ffffffffffffffffffffffffffffffffffffffff1673ffffffffffffffffffffffffffffffffffffffff16815260200190815260200160002060009054906101000a900460ff166111c757600282828151811061108f5761108e612c25565b5b60200260200101519080600181540180825580915050600190039060005260206000200160009091909190916101000a81548173ffffffffffffffffffffffffffffffffffffffff021916908373ffffffffffffffffffffffffffffffffffffffff1602179055506001600360008484815181106111105761110f612c25565b5b602002602001015173ffffffffffffffffffffffffffffffffffffffff1673ffffffffffffffffffffffffffffffffffffffff16815260200190815260200160002060006101000a81548160ff02191690831515021790555081818151811061117c5761117b612c25565b5b602002602001015173ffffffffffffffffffffffffffffffffffffffff167f5589a1df7a257347b14b97cb6fe06862c960ff64e9a0c2908632929098bb013060405160405180910390a25b8080600101915050611006565b5050565b60065481565b600481815481106111ee57600080fd5b906000526020600020016000915054906101000a900473ffffffffffffffffffffffffffffffffffffffff1681565b6002818154811061122d57600080fd5b906000526020600020016000915054906101000a900473ffffffffffffffffffffffffffffffffffffffff1681565b600080606060008030945061126f61187a565b93506001805461127e90612f6a565b80601f01602080910402602001604051908101604052809291908181526020018280546112aa90612f6a565b80156112f75780601f106112cc576101008083540402835291602001916112f7565b820191906000526020600020905b8154815290600101906020018083116112da57829003601f168201915b505050505092507f000000000000000000000000000000000000000000000000000000000000000091507f000000000000000000000000000000000000000000000000000000000000000090509091929394565b60056020528060005260406000206000915090505481565b6000600280549050905090565b7f000000000000000000000000000000000000000000000000000000000000000081565b6000600480549050905090565b7f000000000000000000000000000000000000000000000000000000000000000081565b600781815481106113d557600080fd5b90600052602060002090600802016000915090508060000180546113f890612f6a565b80601f016020809104026020016040519081016040528092919081815260200182805461142490612f6a565b80156114715780601f1061144657610100808354040283529160200191611471565b820191906000526020600020905b81548152906001019060200180831161145457829003601f168201915b5050505050908060010160009054906101000a900473ffffffffffffffffffffffffffffffffffffffff16908060020160009054906101000a900473ffffffffffffffffffffffffffffffffffffffff16908060030154908060040154908060050160009054906101000a900460ff169080600701604051806020016040529081600082015481525050905087565b7f000000000000000000000000000000000000000000000000000000000000000081565b60006007838154811061153a57611539612c25565b5b906000526020600020906008020160060160008373ffffffffffffffffffffffffffffffffffffffff1673ffffffffffffffffffffffffffffffffffffffff16815260200190815260200160002060009054906101000a900460ff16905092915050565b6060600280548060200260200160405190810160405280929190818152602001828054801561162257602002820191906000526020600020905b8160009054906101000a900473ffffffffffffffffffffffffffffffffffffffff1673ffffffffffffffffffffffffffffffffffffffff16815260200190600101908083116115d8575b5050505050905090565b7f000000000000000000000000000000000000000000000000000000000000000061168c576040517f08c379a000000000000000000000000000000000000000000000000000000000815260040161168390613595565b60405180910390fd5b600360003373ffffffffffffffffffffffffffffffffffffffff1673ffffffffffffffffffffffffffffffffffffffff16815260200190815260200160002060009054906101000a900460ff16611718576040517f08c379a000000000000000000000000000000000000000000000000000000000815260040161170f9061344b565b60405180910390fd5b8173ffffffffffffffffffffffffffffffffffffffff166108fc829081150290604051600060405180830381858888f1935050505015801561175e573d6000803e3d6000fd5b508173ffffffffffffffffffffffffffffffffffffffff163373ffffffffffffffffffffffffffffffffffffffff167fddf252ad1be2c89b69c2b068fc378daa952ba7f163c4a11628f55a4df523b3ef836040516117bc9190612863565b60405180910390a35050565b7f000000000000000000000000000000000000000000000000000000000000000081565b6060600480548060200260200160405190810160405280929190818152602001828054801561187057602002820191906000526020600020905b8160009054906101000a900473ffffffffffffffffffffffffffffffffffffffff1673ffffffffffffffffffffffffffffffffffffffff1681526020019060010190808311611826575b5050505050905090565b600047905090565b7f000000000000000000000000000000000000000000000000000000000000000081565b6118af336121fd565b565b6000600782815481106118c7576118c6612c25565b5b906000526020600020906008020190508060050160009054906101000a900460ff1615611929576040517f08c379a000000000000000000000000000000000000000000000000000000000815260040161192090612d58565b60405180910390fd5b8060060160003373ffffffffffffffffffffffffffffffffffffffff1673ffffffffffffffffffffffffffffffffffffffff16815260200190815260200160002060009054906101000a900460ff16156119b8576040517f08c379a00000000000000000000000000000000000000000000000000000000081526004016119af90613601565b60405180910390fd5b60007f00000000000000000000000000000000000000000000000000000000000000009050600060065490507f0000000000000000000000000000000000000000000000000000000000000000158015611a5b5750600360003373ffffffffffffffffffffffffffffffffffffffff1673ffffffffffffffffffffffffffffffffffffffff16815260200190815260200160002060009054906101000a900460ff165b80611a665750600082145b80611ad35750600081118015611ad2575081816064600560003373ffffffffffffffffffffffffffffffffffffffff1673ffffffffffffffffffffffffffffffffffffffff16815260200190815260200160002054611ac59190612def565b611acf9190612e78565b10155b5b611b12576040517f08c379a0000000000000000000000000000000000000000000000000000000008152600401611b09906136b9565b60405180910390fd5b60018360060160003373ffffffffffffffffffffffffffffffffffffffff1673ffffffffffffffffffffffffffffffffffffffff16815260200190815260200160002060006101000a81548160ff021916908315150217905550611b78836007016123ab565b3373ffffffffffffffffffffffffffffffffffffffff16847f893b9e35d011bbe15567d0f899b775d6e02d49f62378315a6d25759d3bb1dbcc60405160405180910390a350505050565b7f0000000000000000000000000000000000000000000000000000000000000000611c22576040517f08c379a0000000000000000000000000000000000000000000000000000000008152600401611c199061374b565b60405180910390fd5b600360003373ffffffffffffffffffffffffffffffffffffffff1673ffffffffffffffffffffffffffffffffffffffff16815260200190815260200160002060009054906101000a900460ff16611cae576040517f08c379a0000000000000000000000000000000000000000000000000000000008152600401611ca59061344b565b60405180910390fd5b6000611cb8611363565b90506001811180611d1057507f00000000000000000000000000000000000000000000000000000000000000008015611d0f57507f0000000000000000000000000000000000000000000000000000000000000000155b5b611d4f576040517f08c379a0000000000000000000000000000000000000000000000000000000008152600401611d46906137dd565b60405180910390fd5b600060028381548110611d6557611d64612c25565b5b9060005260206000200160009054906101000a900473ffffffffffffffffffffffffffffffffffffffff169050600360008273ffffffffffffffffffffffffffffffffffffffff1673ffffffffffffffffffffffffffffffffffffffff16815260200190815260200160002060006101000a81549060ff021916905560008390505b60018303811015611e9d5760026001820181548110611e0957611e08612c25565b5b9060005260206000200160009054906101000a900473ffffffffffffffffffffffffffffffffffffffff1660028281548110611e4857611e47612c25565b5b9060005260206000200160006101000a81548173ffffffffffffffffffffffffffffffffffffffff021916908373ffffffffffffffffffffffffffffffffffffffff1602179055508080600101915050611de7565b506002805480611eb057611eaf6137fd565b5b6001900381819060005260206000200160006101000a81549073ffffffffffffffffffffffffffffffffffffffff021916905590558073ffffffffffffffffffffffffffffffffffffffff167f1e25ed4cabec84d314dc176241019653f237da01f2bdd3a10cb0f38b33da676360405160405180910390a2505050565b7f000000000000000000000000000000000000000000000000000000000000000081565b60606000606060008060008060008060006002805480602002602001604051908101604052809291908181526020018280548015611fe457602002820191906000526020600020905b8160009054906101000a900473ffffffffffffffffffffffffffffffffffffffff1673ffffffffffffffffffffffffffffffffffffffff1681526020019060010190808311611f9a575b505050505099507f00000000000000000000000000000000000000000000000000000000000000009850600480548060200260200160405190810160405280929190818152602001828054801561209057602002820191906000526020600020905b8160009054906101000a900473ffffffffffffffffffffffffffffffffffffffff1673ffffffffffffffffffffffffffffffffffffffff1681526020019060010190808311612046575b5050505050975060065496507f000000000000000000000000000000000000000000000000000000000000000095507f000000000000000000000000000000000000000000000000000000000000000094507f000000000000000000000000000000000000000000000000000000000000000093507f000000000000000000000000000000000000000000000000000000000000000092507f000000000000000000000000000000000000000000000000000000000000000091507f0000000000000000000000000000000000000000000000000000000000000000905090919293949596979899565b7f000000000000000000000000000000000000000000000000000000000000000081565b60036020528060005260406000206000915054906101000a900460ff1681565b7f000000000000000000000000000000000000000000000000000000000000000081565b6000600780549050905090565b600081600001549050919050565b60003411612240576040517f08c379a00000000000000000000000000000000000000000000000000000000081526004016122379061389e565b60405180910390fd5b6000600560008373ffffffffffffffffffffffffffffffffffffffff1673ffffffffffffffffffffffffffffffffffffffff16815260200190815260200160002054036122eb576004819080600181540180825580915050600190039060005260206000200160009091909190916101000a81548173ffffffffffffffffffffffffffffffffffffffff021916908373ffffffffffffffffffffffffffffffffffffffff1602179055505b34600560008373ffffffffffffffffffffffffffffffffffffffff1673ffffffffffffffffffffffffffffffffffffffff168152602001908152602001600020600082825461233a91906138be565b92505081905550346006600082825461235391906138be565b925050819055508073ffffffffffffffffffffffffffffffffffffffff167f906faaf913a60f38b5e8f2d6f5b163239bac2d994fa1a5d21751a51587a94057346040516123a09190612863565b60405180910390a250565b6001816000016000828254019250508190555050565b600073ffffffffffffffffffffffffffffffffffffffff82169050919050565b60006123ec826123c1565b9050919050565b6123fc816123e1565b82525050565b600060208201905061241760008301846123f3565b92915050565b6000604051905090565b600080fd5b600080fd5b6000819050919050565b61244481612431565b811461244f57600080fd5b50565b6000813590506124618161243b565b92915050565b60006020828403121561247d5761247c612427565b5b600061248b84828501612452565b91505092915050565b600081519050919050565b600082825260208201905092915050565b60005b838110156124ce5780820151818401526020810190506124b3565b60008484015250505050565b6000601f19601f8301169050919050565b60006124f682612494565b612500818561249f565b93506125108185602086016124b0565b612519816124da565b840191505092915050565b6000602082019050818103600083015261253e81846124eb565b905092915050565b61254f816123e1565b811461255a57600080fd5b50565b60008135905061256c81612546565b92915050565b60006020828403121561258857612587612427565b5b60006125968482850161255d565b91505092915050565b600080fd5b600080fd5b7f4e487b7100000000000000000000000000000000000000000000000000000000600052604160045260246000fd5b6125e1826124da565b810181811067ffffffffffffffff82111715612600576125ff6125a9565b5b80604052505050565b600061261361241d565b905061261f82826125d8565b919050565b600067ffffffffffffffff82111561263f5761263e6125a9565b5b612648826124da565b9050602081019050919050565b82818337600083830152505050565b600061267761267284612624565b612609565b905082815260208101848484011115612693576126926125a4565b5b61269e848285612655565b509392505050565b600082601f8301126126bb576126ba61259f565b5b81356126cb848260208601612664565b91505092915050565b6000806000606084860312156126ed576126ec612427565b5b600084013567ffffffffffffffff81111561270b5761270a61242c565b5b612717868287016126a6565b93505060206127288682870161255d565b925050604061273986828701612452565b9150509250925092565b600067ffffffffffffffff82111561275e5761275d6125a9565b5b602082029050602081019050919050565b600080fd5b600061278761278284612743565b612609565b905080838252602082019050602084028301858111156127aa576127a961276f565b5b835b818110156127d357806127bf888261255d565b8452602084019350506020810190506127ac565b5050509392505050565b600082601f8301126127f2576127f161259f565b5b8135612802848260208601612774565b91505092915050565b60006020828403121561282157612820612427565b5b600082013567ffffffffffffffff81111561283f5761283e61242c565b5b61284b848285016127dd565b91505092915050565b61285d81612431565b82525050565b60006020820190506128786000830184612854565b92915050565b600060a08201905061289360008301886123f3565b6128a06020830187612854565b81810360408301526128b281866124eb565b90506128c160608301856123f3565b6128ce6080830184612854565b9695505050505050565b60008115159050919050565b6128ed816128d8565b82525050565b600060208201905061290860008301846128e4565b92915050565b61291781612431565b82525050565b602082016000820151612933600085018261290e565b50505050565b600060e0820190508181036000830152612953818a6124eb565b905061296260208301896123f3565b61296f60408301886123f3565b61297c6060830187612854565b6129896080830186612854565b61299660a08301856128e4565b6129a360c083018461291d565b98975050505050505050565b600080604083850312156129c6576129c5612427565b5b60006129d485828601612452565b92505060206129e58582860161255d565b9150509250929050565b600081519050919050565b600082825260208201905092915050565b6000819050602082019050919050565b612a24816123e1565b82525050565b6000612a368383612a1b565b60208301905092915050565b6000602082019050919050565b6000612a5a826129ef565b612a6481856129fa565b9350612a6f83612a0b565b8060005b83811015612aa0578151612a878882612a2a565b9750612a9283612a42565b925050600181019050612a73565b5085935050505092915050565b60006020820190508181036000830152612ac78184612a4f565b905092915050565b60008060408385031215612ae657612ae5612427565b5b6000612af48582860161255d565b9250506020612b0585828601612452565b9150509250929050565b6000610140820190508181036000830152612b2a818d612a4f565b9050612b39602083018c6128e4565b8181036040830152612b4b818b612a4f565b9050612b5a606083018a612854565b612b6760808301896128e4565b612b7460a08301886128e4565b612b8160c08301876128e4565b612b8e60e08301866128e4565b612b9c610100830185612854565b612baa610120830184612854565b9b9a5050505050505050505050565b7f5265656e7472616e637947756172643a207265656e7472616e742063616c6c00600082015250565b6000612bef601f8361249f565b9150612bfa82612bb9565b602082019050919050565b60006020820190508181036000830152612c1e81612be2565b9050919050565b7f4e487b7100000000000000000000000000000000000000000000000000000000600052603260045260246000fd5b7f4e6f206572657320656c20736f6c69636974616e7465206465206c6120736f6c60008201527f6963697475640000000000000000000000000000000000000000000000000000602082015250565b6000612cb060268361249f565b9150612cbb82612c54565b604082019050919050565b60006020820190508181036000830152612cdf81612ca3565b9050919050565b7f4c6120736f6c696369747564207961206861207369646f20636f6d706c65746160008201527f6461000000000000000000000000000000000000000000000000000000000000602082015250565b6000612d4260228361249f565b9150612d4d82612ce6565b604082019050919050565b60006020820190508181036000830152612d7181612d35565b9050919050565b7f4e487b7100000000000000000000000000000000000000000000000000000000600052601160045260246000fd5b6000612db282612431565b91507fffffffffffffffffffffffffffffffffffffffffffffffffffffffffffffffff8203612de457612de3612d78565b5b600182019050919050565b6000612dfa82612431565b9150612e0583612431565b9250817fffffffffffffffffffffffffffffffffffffffffffffffffffffffffffffffff0483118215151615612e3e57612e3d612d78565b5b828202905092915050565b7f4e487b7100000000000000000000000000000000000000000000000000000000600052601260045260246000fd5b6000612e8382612431565b9150612e8e83612431565b925082612e9e57612e9d612e49565b5b828204905092915050565b7f4c6120736f6c6963697475642061c3ba6e206e6f206861207369646f2061707260008201527f6f62616461000000000000000000000000000000000000000000000000000000602082015250565b6000612f0560258361249f565b9150612f1082612ea9565b604082019050919050565b60006020820190508181036000830152612f3481612ef8565b9050919050565b7f4e487b7100000000000000000000000000000000000000000000000000000000600052602260045260246000fd5b60006002820490506001821680612f8257607f821691505b602082108103612f9557612f94612f3b565b5b50919050565b7f4e6f2073652070756564656e20637265617220736f6c69636974756465730000600082015250565b6000612fd1601e8361249f565b9150612fdc82612f9b565b602082019050919050565b6000602082019050818103600083015261300081612fc4565b9050919050565b7f536f6c6f206c6f732061646d696e6973747261646f7265732070756564656e2060008201527f637265617220756e6120736f6c69636974756400000000000000000000000000602082015250565b600061306360338361249f565b915061306e82613007565b604082019050919050565b6000602082019050818103600083015261309281613056565b9050919050565b60008190508160005260206000209050919050565b60006020601f8301049050919050565b600082821b905092915050565b6000600883026130fb7fffffffffffffffffffffffffffffffffffffffffffffffffffffffffffffffff826130be565b61310586836130be565b95508019841693508086168417925050509392505050565b6000819050919050565b600061314261313d61313884612431565b61311d565b612431565b9050919050565b6000819050919050565b61315c83613127565b61317061316882613149565b8484546130cb565b825550505050565b600090565b613185613178565b613190818484613153565b505050565b5b818110156131b4576131a960008261317d565b600181019050613196565b5050565b601f8211156131f9576131ca81613099565b6131d3846130ae565b810160208510156131e2578190505b6131f66131ee856130ae565b830182613195565b50505b505050565b600082821c905092915050565b600061321c600019846008026131fe565b1980831691505092915050565b6000613235838361320b565b9150826002028217905092915050565b61324e82612494565b67ffffffffffffffff811115613267576132666125a9565b5b6132718254612f6a565b61327c8282856131b8565b600060209050601f8311600181146132af576000841561329d578287015190505b6132a78582613229565b86555061330f565b601f1984166132bd86613099565b60005b828110156132e5578489015182556001820191506020850194506020810190506132c0565b8683101561330257848901516132fe601f89168261320b565b8355505b6001600288020188555050505b505050505050565b6000604082019050818103600083015261333181856124eb565b90506133406020830184612854565b9392505050565b7f4e6f2073652070756564656e2061677265676172206e7565766f732061646d6960008201527f6e6973747261646f726573000000000000000000000000000000000000000000602082015250565b60006133a3602b8361249f565b91506133ae82613347565b604082019050919050565b600060208201905081810360008301526133d281613396565b9050919050565b7f536f6c6f206c6f732061646d696e6973747261646f7265732070756564656e2060008201527f6163636564657200000000000000000000000000000000000000000000000000602082015250565b600061343560278361249f565b9150613440826133d9565b604082019050919050565b6000602082019050818103600083015261346481613428565b9050919050565b7f5469656e65732071756520656e7669617220756e61206f206dc3a1732064697260008201527f656363696f6e6573000000000000000000000000000000000000000000000000602082015250565b60006134c760288361249f565b91506134d28261346b565b604082019050919050565b600060208201905081810360008301526134f6816134ba565b9050919050565b7f4c6f732061646d696e6973747261646f726573206e6f2070756564656e20747260008201527f616e7366657269722064696e65726f2073696e20756e6120736f6c696369747560208201527f6400000000000000000000000000000000000000000000000000000000000000604082015250565b600061357f60418361249f565b915061358a826134fd565b606082019050919050565b600060208201905081810360008301526135ae81613572565b9050919050565b7f596120686173206170726f6261646f206573746120736f6c6963697475640000600082015250565b60006135eb601e8361249f565b91506135f6826135b5565b602082019050919050565b6000602082019050818103600083015261361a816135de565b9050919050565b7f4e6f20616c63616e7a617320656c20706f7263656e74616a65206dc3ad6e696d60008201527f6f20646520636f6e74726962756369c3b36e20792f6f206e6f2065726573206160208201527f646d696e6973747261646f720000000000000000000000000000000000000000604082015250565b60006136a3604c8361249f565b91506136ae82613621565b606082019050919050565b600060208201905081810360008301526136d281613696565b9050919050565b7f4c6f732061646d696e6973747261646f726573206e6f2070756564656e20736560008201527f7220656c696d696e61646f730000000000000000000000000000000000000000602082015250565b6000613735602c8361249f565b9150613740826136d9565b604082019050919050565b6000602082019050818103600083015261376481613728565b9050919050565b7f4e6f2068616272c3ad61206d616e657261206465207265746972617220656c2060008201527f64696e65726f2064656c20636f6e747261746f00000000000000000000000000602082015250565b60006137c760338361249f565b91506137d28261376b565b604082019050919050565b600060208201905081810360008301526137f6816137ba565b9050919050565b7f4e487b7100000000000000000000000000000000000000000000000000000000600052603160045260246000fd5b7f4c6120636f6e74726962756369c3b36e206465626520736572206d61796f722060008201527f61206365726f0000000000000000000000000000000000000000000000000000602082015250565b600061388860268361249f565b91506138938261382c565b604082019050919050565b600060208201905081810360008301526138b78161387b565b9050919050565b60006138c982612431565b91506138d483612431565b92508282019050808211156138ec576138eb612d78565b5b9291505056fea26469706673582212206daae9ecf98a56c32ceb67f00b034e7648b527f10a89d43e3c7f62b8e1ea74a264736f6c63430008100033a2646970667358221220a4a306f87aaae6d8b3de6c530cea3ca50c36ee16edb3f4852fe044049736401664736f6c6343000810003360806040523480156200001157600080fd5b506040518060400160405280600a81526020017f46756e6420546f6b656e000000000000000000000000000000000000000000008152506040518060400160405280600281526020017f46540000000000000000000000000000000000000000000000000000000000008152506200009e62000092620000ca60201b60201c565b620000d260201b60201c565b8160049081620000af919062000410565b508060059081620000c1919062000410565b505050620004f7565b600033905090565b60008060009054906101000a900473ffffffffffffffffffffffffffffffffffffffff169050816000806101000a81548173ffffffffffffffffffffffffffffffffffffffff021916908373ffffffffffffffffffffffffffffffffffffffff1602179055508173ffffffffffffffffffffffffffffffffffffffff168173ffffffffffffffffffffffffffffffffffffffff167f8be0079c531659141344cd1fd0a4f28419497f9722a3daafe3b4186f6b6457e060405160405180910390a35050565b600081519050919050565b7f4e487b7100000000000000000000000000000000000000000000000000000000600052604160045260246000fd5b7f4e487b7100000000000000000000000000000000000000000000000000000000600052602260045260246000fd5b600060028204905060018216806200021857607f821691505b6020821081036200022e576200022d620001d0565b5b50919050565b60008190508160005260206000209050919050565b60006020601f8301049050919050565b600082821b905092915050565b600060088302620002987fffffffffffffffffffffffffffffffffffffffffffffffffffffffffffffffff8262000259565b620002a4868362000259565b95508019841693508086168417925050509392505050565b6000819050919050565b6000819050919050565b6000620002f1620002eb620002e584620002bc565b620002c6565b620002bc565b9050919050565b6000819050919050565b6200030d83620002d0565b620003256200031c82620002f8565b84845462000266565b825550505050565b600090565b6200033c6200032d565b6200034981848462000302565b505050565b5b8181101562000371576200036560008262000332565b6001810190506200034f565b5050565b601f821115620003c0576200038a8162000234565b620003958462000249565b81016020851015620003a5578190505b620003bd620003b48562000249565b8301826200034e565b50505b505050565b600082821c905092915050565b6000620003e560001984600802620003c5565b1980831691505092915050565b6000620004008383620003d2565b9150826002028217905092915050565b6200041b8262000196565b67ffffffffffffffff811115620004375762000436620001a1565b5b620004438254620001ff565b6200045082828562000375565b600060209050601f83116001811462000488576000841562000473578287015190505b6200047f8582620003f2565b865550620004ef565b601f198416620004988662000234565b60005b82811015620004c2578489015182556001820191506020850194506020810190506200049b565b86831015620004e25784890151620004de601f891682620003d2565b8355505b6001600288020188555050505b505050505050565b611b5d80620005076000396000f3fe608060405234801561001057600080fd5b50600436106101005760003560e01c8063715018a611610097578063a457c2d711610066578063a457c2d71461029d578063a9059cbb146102cd578063dd62ed3e146102fd578063f2fde38b1461032d57610100565b8063715018a61461023b5780638da5cb5b1461024557806395d89b41146102635780639dc29fac1461028157610100565b8063313ce567116100d3578063313ce567146101a157806339509351146101bf57806340c10f19146101ef57806370a082311461020b57610100565b806306fdde0314610105578063095ea7b31461012357806318160ddd1461015357806323b872dd14610171575b600080fd5b61010d610349565b60405161011a919061114e565b60405180910390f35b61013d60048036038101906101389190611209565b6103db565b60405161014a9190611264565b60405180910390f35b61015b6103fe565b604051610168919061128e565b60405180910390f35b61018b600480360381019061018691906112a9565b610408565b6040516101989190611264565b60405180910390f35b6101a9610437565b6040516101b69190611318565b60405180910390f35b6101d960048036038101906101d49190611209565b61043c565b6040516101e69190611264565b60405180910390f35b61020960048036038101906102049190611209565b610473565b005b61022560048036038101906102209190611333565b610489565b604051610232919061128e565b60405180910390f35b6102436104d2565b005b61024d6104e6565b60405161025a919061136f565b60405180910390f35b61026b61050f565b604051610278919061114e565b60405180910390f35b61029b60048036038101906102969190611209565b6105a1565b005b6102b760048036038101906102b29190611209565b6105b7565b6040516102c49190611264565b60405180910390f35b6102e760048036038101906102e29190611209565b61062e565b6040516102f49190611264565b60405180910390f35b6103176004803603810190610312919061138a565b610651565b604051610324919061128e565b60405180910390f35b61034760048036038101906103429190611333565b6106d8565b005b606060048054610358906113f9565b80601f0160208091040260200160405190810160405280929190818152602001828054610384906113f9565b80156103d15780601f106103a6576101008083540402835291602001916103d1565b820191906000526020600020905b8154815290600101906020018083116103b457829003601f168201915b5050505050905090565b6000806103e661075b565b90506103f3818585610763565b600191505092915050565b6000600354905090565b60008061041361075b565b905061042085828561092c565b61042b8585856109b8565b60019150509392505050565b600090565b60008061044761075b565b90506104688185856104598589610651565b6104639190611459565b610763565b600191505092915050565b61047b610c3a565b6104858282610cb8565b5050565b6000600160008373ffffffffffffffffffffffffffffffffffffffff1673ffffffffffffffffffffffffffffffffffffffff168152602001908152602001600020549050919050565b6104da610c3a565b6104e46000610e18565b565b60008060009054906101000a900473ffffffffffffffffffffffffffffffffffffffff16905090565b60606005805461051e906113f9565b80601f016020809104026020016040519081016040528092919081815260200182805461054a906113f9565b80156105975780601f1061056c57610100808354040283529160200191610597565b820191906000526020600020905b81548152906001019060200180831161057a57829003601f168201915b5050505050905090565b6105a9610c3a565b6105b38282610edc565b5050565b6000806105c261075b565b905060006105d08286610651565b905083811015610615576040517f08c379a000000000000000000000000000000000000000000000000000000000815260040161060c906114ff565b60405180910390fd5b6106228286868403610763565b60019250505092915050565b60008061063961075b565b90506106468185856109b8565b600191505092915050565b6000600260008473ffffffffffffffffffffffffffffffffffffffff1673ffffffffffffffffffffffffffffffffffffffff16815260200190815260200160002060008373ffffffffffffffffffffffffffffffffffffffff1673ffffffffffffffffffffffffffffffffffffffff16815260200190815260200160002054905092915050565b6106e0610c3a565b600073ffffffffffffffffffffffffffffffffffffffff168173ffffffffffffffffffffffffffffffffffffffff160361074f576040517f08c379a000000000000000000000000000000000000000000000000000000000815260040161074690611591565b60405180910390fd5b61075881610e18565b50565b600033905090565b600073ffffffffffffffffffffffffffffffffffffffff168373ffffffffffffffffffffffffffffffffffffffff16036107d2576040517f08c379a00000000000000000000000000000000000000000000000000000000081526004016107c990611623565b60405180910390fd5b600073ffffffffffffffffffffffffffffffffffffffff168273ffffffffffffffffffffffffffffffffffffffff1603610841576040517f08c379a0000000000000000000000000000000000000000000000000000000008152600401610838906116b5565b60405180910390fd5b80600260008573ffffffffffffffffffffffffffffffffffffffff1673ffffffffffffffffffffffffffffffffffffffff16815260200190815260200160002060008473ffffffffffffffffffffffffffffffffffffffff1673ffffffffffffffffffffffffffffffffffffffff168152602001908152602001600020819055508173ffffffffffffffffffffffffffffffffffffffff168373ffffffffffffffffffffffffffffffffffffffff167f8c5be1e5ebec7d5bd14f71427d1e84f3dd0314c0f7b2291e5b200ac8c7c3b9258360405161091f919061128e565b60405180910390a3505050565b60006109388484610651565b90507fffffffffffffffffffffffffffffffffffffffffffffffffffffffffffffffff81146109b257818110156109a4576040517f08c379a000000000000000000000000000000000000000000000000000000000815260040161099b90611721565b60405180910390fd5b6109b18484848403610763565b5b50505050565b600073ffffffffffffffffffffffffffffffffffffffff168373ffffffffffffffffffffffffffffffffffffffff1603610a27576040517f08c379a0000000000000000000000000000000000000000000000000000000008152600401610a1e906117b3565b60405180910390fd5b600073ffffffffffffffffffffffffffffffffffffffff168273ffffffffffffffffffffffffffffffffffffffff1603610a96576040517f08c379a0000000000000000000000000000000000000000000000000000000008152600401610a8d90611845565b60405180910390fd5b610aa18383836110b4565b6000600160008573ffffffffffffffffffffffffffffffffffffffff1673ffffffffffffffffffffffffffffffffffffffff16815260200190815260200160002054905081811015610b28576040517f08c379a0000000000000000000000000000000000000000000000000000000008152600401610b1f906118d7565b60405180910390fd5b818103600160008673ffffffffffffffffffffffffffffffffffffffff1673ffffffffffffffffffffffffffffffffffffffff1681526020019081526020016000208190555081600160008573ffffffffffffffffffffffffffffffffffffffff1673ffffffffffffffffffffffffffffffffffffffff1681526020019081526020016000206000828254610bbd9190611459565b925050819055508273ffffffffffffffffffffffffffffffffffffffff168473ffffffffffffffffffffffffffffffffffffffff167fddf252ad1be2c89b69c2b068fc378daa952ba7f163c4a11628f55a4df523b3ef84604051610c21919061128e565b60405180910390a3610c348484846110b9565b50505050565b610c4261075b565b73ffffffffffffffffffffffffffffffffffffffff16610c606104e6565b73ffffffffffffffffffffffffffffffffffffffff1614610cb6576040517f08c379a0000000000000000000000000000000000000000000000000000000008152600401610cad90611943565b60405180910390fd5b565b600073ffffffffffffffffffffffffffffffffffffffff168273ffffffffffffffffffffffffffffffffffffffff1603610d27576040517f08c379a0000000000000000000000000000000000000000000000000000000008152600401610d1e906119af565b60405180910390fd5b610d33600083836110b4565b8060036000828254610d459190611459565b9250508190555080600160008473ffffffffffffffffffffffffffffffffffffffff1673ffffffffffffffffffffffffffffffffffffffff1681526020019081526020016000206000828254610d9b9190611459565b925050819055508173ffffffffffffffffffffffffffffffffffffffff16600073ffffffffffffffffffffffffffffffffffffffff167fddf252ad1be2c89b69c2b068fc378daa952ba7f163c4a11628f55a4df523b3ef83604051610e00919061128e565b60405180910390a3610e14600083836110b9565b5050565b60008060009054906101000a900473ffffffffffffffffffffffffffffffffffffffff169050816000806101000a81548173ffffffffffffffffffffffffffffffffffffffff021916908373ffffffffffffffffffffffffffffffffffffffff1602179055508173ffffffffffffffffffffffffffffffffffffffff168173ffffffffffffffffffffffffffffffffffffffff167f8be0079c531659141344cd1fd0a4f28419497f9722a3daafe3b4186f6b6457e060405160405180910390a35050565b600073ffffffffffffffffffffffffffffffffffffffff168273ffffffffffffffffffffffffffffffffffffffff1603610f4b576040517f08c379a0000000000000000000000000000000000000000000000000000000008152600401610f4290611a41565b60405180910390fd5b610f57826000836110b4565b6000600160008473ffffffffffffffffffffffffffffffffffffffff1673ffffffffffffffffffffffffffffffffffffffff16815260200190815260200160002054905081811015610fde576040517f08c379a0000000000000000000000000000000000000000000000000000000008152600401610fd590611ad3565b60405180910390fd5b818103600160008573ffffffffffffffffffffffffffffffffffffffff1673ffffffffffffffffffffffffffffffffffffffff1681526020019081526020016000208190555081600360008282546110369190611af3565b92505081905550600073ffffffffffffffffffffffffffffffffffffffff168373ffffffffffffffffffffffffffffffffffffffff167fddf252ad1be2c89b69c2b068fc378daa952ba7f163c4a11628f55a4df523b3ef8460405161109b919061128e565b60405180910390a36110af836000846110b9565b505050565b505050565b505050565b600081519050919050565b600082825260208201905092915050565b60005b838110156110f85780820151818401526020810190506110dd565b60008484015250505050565b6000601f19601f8301169050919050565b6000611120826110be565b61112a81856110c9565b935061113a8185602086016110da565b61114381611104565b840191505092915050565b600060208201905081810360008301526111688184611115565b905092915050565b600080fd5b600073ffffffffffffffffffffffffffffffffffffffff82169050919050565b60006111a082611175565b9050919050565b6111b081611195565b81146111bb57600080fd5b50565b6000813590506111cd816111a7565b92915050565b6000819050919050565b6111e6816111d3565b81146111f157600080fd5b50565b600081359050611203816111dd565b92915050565b600080604083850312156112205761121f611170565b5b600061122e858286016111be565b925050602061123f858286016111f4565b9150509250929050565b60008115159050919050565b61125e81611249565b82525050565b60006020820190506112796000830184611255565b92915050565b611288816111d3565b82525050565b60006020820190506112a3600083018461127f565b92915050565b6000806000606084860312156112c2576112c1611170565b5b60006112d0868287016111be565b93505060206112e1868287016111be565b92505060406112f2868287016111f4565b9150509250925092565b600060ff82169050919050565b611312816112fc565b82525050565b600060208201905061132d6000830184611309565b92915050565b60006020828403121561134957611348611170565b5b6000611357848285016111be565b91505092915050565b61136981611195565b82525050565b60006020820190506113846000830184611360565b92915050565b600080604083850312156113a1576113a0611170565b5b60006113af858286016111be565b92505060206113c0858286016111be565b9150509250929050565b7f4e487b7100000000000000000000000000000000000000000000000000000000600052602260045260246000fd5b6000600282049050600182168061141157607f821691505b602082108103611424576114236113ca565b5b50919050565b7f4e487b7100000000000000000000000000000000000000000000000000000000600052601160045260246000fd5b6000611464826111d3565b915061146f836111d3565b92508282019050808211156114875761148661142a565b5b92915050565b7f45524332303a2064656372656173656420616c6c6f77616e63652062656c6f7760008201527f207a65726f000000000000000000000000000000000000000000000000000000602082015250565b60006114e96025836110c9565b91506114f48261148d565b604082019050919050565b60006020820190508181036000830152611518816114dc565b9050919050565b7f4f776e61626c653a206e6577206f776e657220697320746865207a65726f206160008201527f6464726573730000000000000000000000000000000000000000000000000000602082015250565b600061157b6026836110c9565b91506115868261151f565b604082019050919050565b600060208201905081810360008301526115aa8161156e565b9050919050565b7f45524332303a20617070726f76652066726f6d20746865207a65726f2061646460008201527f7265737300000000000000000000000000000000000000000000000000000000602082015250565b600061160d6024836110c9565b9150611618826115b1565b604082019050919050565b6000602082019050818103600083015261163c81611600565b9050919050565b7f45524332303a20617070726f766520746f20746865207a65726f20616464726560008201527f7373000000000000000000000000000000000000000000000000000000000000602082015250565b600061169f6022836110c9565b91506116aa82611643565b604082019050919050565b600060208201905081810360008301526116ce81611692565b9050919050565b7f45524332303a20696e73756666696369656e7420616c6c6f77616e6365000000600082015250565b600061170b601d836110c9565b9150611716826116d5565b602082019050919050565b6000602082019050818103600083015261173a816116fe565b9050919050565b7f45524332303a207472616e736665722066726f6d20746865207a65726f20616460008201527f6472657373000000000000000000000000000000000000000000000000000000602082015250565b600061179d6025836110c9565b91506117a882611741565b604082019050919050565b600060208201905081810360008301526117cc81611790565b9050919050565b7f45524332303a207472616e7366657220746f20746865207a65726f206164647260008201527f6573730000000000000000000000000000000000000000000000000000000000602082015250565b600061182f6023836110c9565b915061183a826117d3565b604082019050919050565b6000602082019050818103600083015261185e81611822565b9050919050565b7f45524332303a207472616e7366657220616d6f756e742065786365656473206260008201527f616c616e63650000000000000000000000000000000000000000000000000000602082015250565b60006118c16026836110c9565b91506118cc82611865565b604082019050919050565b600060208201905081810360008301526118f0816118b4565b9050919050565b7f4f776e61626c653a2063616c6c6572206973206e6f7420746865206f776e6572600082015250565b600061192d6020836110c9565b9150611938826118f7565b602082019050919050565b6000602082019050818103600083015261195c81611920565b9050919050565b7f45524332303a206d696e7420746f20746865207a65726f206164647265737300600082015250565b6000611999601f836110c9565b91506119a482611963565b602082019050919050565b600060208201905081810360008301526119c88161198c565b9050919050565b7f45524332303a206275726e2066726f6d20746865207a65726f2061646472657360008201527f7300000000000000000000000000000000000000000000000000000000000000602082015250565b6000611a2b6021836110c9565b9150611a36826119cf565b604082019050919050565b60006020820190508181036000830152611a5a81611a1e565b9050919050565b7f45524332303a206275726e20616d6f756e7420657863656564732062616c616e60008201527f6365000000000000000000000000000000000000000000000000000000000000602082015250565b6000611abd6022836110c9565b9150611ac882611a61565b604082019050919050565b60006020820190508181036000830152611aec81611ab0565b9050919050565b6000611afe826111d3565b9150611b09836111d3565b9250828203905081811115611b2157611b2061142a565b5b9291505056fea264697066735822122026b3922f3954546f0b1ce287c14678a99f71becb66c27592963606076f95aaf864736f6c63430008100033","opcodes":"PUSH1 0xA0 PUSH1 0x40 MSTORE PUSH1 0x40 MLOAD PUSH3 0x819D CODESIZE SUB DUP1 PUSH3 0x819D DUP4 CODECOPY DUP2 DUP2 ADD PUSH1 0x40 MSTORE DUP2 ADD SWAP1 PUSH3 0x29 SWAP2 SWAP1 PUSH3 0x1D0 JUMP JUMPDEST PUSH3 0x49 PUSH3 0x3D PUSH3 0xB6 PUSH1 0x20 SHL PUSH1 0x20 SHR JUMP JUMPDEST PUSH3 0xBE PUSH1 0x20 SHL PUSH1 0x20 SHR JUMP JUMPDEST PUSH1 0x40 MLOAD PUSH3 0x57 SWAP1 PUSH3 0x182 JUMP JUMPDEST PUSH1 0x40 MLOAD DUP1 SWAP2 SUB SWAP1 PUSH1 0x0 CREATE DUP1 ISZERO DUP1 ISZERO PUSH3 0x74 JUMPI RETURNDATASIZE PUSH1 0x0 DUP1 RETURNDATACOPY RETURNDATASIZE PUSH1 0x0 REVERT JUMPDEST POP PUSH20 0xFFFFFFFFFFFFFFFFFFFFFFFFFFFFFFFFFFFFFFFF AND PUSH1 0x80 DUP2 PUSH20 0xFFFFFFFFFFFFFFFFFFFFFFFFFFFFFFFFFFFFFFFF AND DUP2 MSTORE POP POP DUP1 PUSH1 0x2 DUP2 SWAP1 SSTORE POP POP PUSH3 0x202 JUMP JUMPDEST PUSH1 0x0 CALLER SWAP1 POP SWAP1 JUMP JUMPDEST PUSH1 0x0 DUP1 PUSH1 0x0 SWAP1 SLOAD SWAP1 PUSH2 0x100 EXP SWAP1 DIV PUSH20 0xFFFFFFFFFFFFFFFFFFFFFFFFFFFFFFFFFFFFFFFF AND SWAP1 POP DUP2 PUSH1 0x0 DUP1 PUSH2 0x100 EXP DUP2 SLOAD DUP2 PUSH20 0xFFFFFFFFFFFFFFFFFFFFFFFFFFFFFFFFFFFFFFFF MUL NOT AND SWAP1 DUP4 PUSH20 0xFFFFFFFFFFFFFFFFFFFFFFFFFFFFFFFFFFFFFFFF AND MUL OR SWAP1 SSTORE POP DUP2 PUSH20 0xFFFFFFFFFFFFFFFFFFFFFFFFFFFFFFFFFFFFFFFF AND DUP2 PUSH20 0xFFFFFFFFFFFFFFFFFFFFFFFFFFFFFFFFFFFFFFFF AND PUSH32 0x8BE0079C531659141344CD1FD0A4F28419497F9722A3DAAFE3B4186F6B6457E0 PUSH1 0x40 MLOAD PUSH1 0x40 MLOAD DUP1 SWAP2 SUB SWAP1 LOG3 POP POP JUMP JUMPDEST PUSH2 0x2064 DUP1 PUSH3 0x6139 DUP4 CODECOPY ADD SWAP1 JUMP JUMPDEST PUSH1 0x0 DUP1 REVERT JUMPDEST PUSH1 0x0 DUP2 SWAP1 POP SWAP2 SWAP1 POP JUMP JUMPDEST PUSH3 0x1AA DUP2 PUSH3 0x195 JUMP JUMPDEST DUP2 EQ PUSH3 0x1B6 JUMPI PUSH1 0x0 DUP1 REVERT JUMPDEST POP JUMP JUMPDEST PUSH1 0x0 DUP2 MLOAD SWAP1 POP PUSH3 0x1CA DUP2 PUSH3 0x19F JUMP JUMPDEST SWAP3 SWAP2 POP POP JUMP JUMPDEST PUSH1 0x0 PUSH1 0x20 DUP3 DUP5 SUB SLT ISZERO PUSH3 0x1E9 JUMPI PUSH3 0x1E8 PUSH3 0x190 JUMP JUMPDEST JUMPDEST PUSH1 0x0 PUSH3 0x1F9 DUP5 DUP3 DUP6 ADD PUSH3 0x1B9 JUMP JUMPDEST SWAP2 POP POP SWAP3 SWAP2 POP POP JUMP JUMPDEST PUSH1 0x80 MLOAD PUSH2 0x5F0D PUSH3 0x22C PUSH1 0x0 CODECOPY PUSH1 0x0 DUP2 DUP2 PUSH2 0x3B2 ADD MSTORE DUP2 DUP2 PUSH2 0x5B1 ADD MSTORE PUSH2 0x9BE ADD MSTORE PUSH2 0x5F0D PUSH1 0x0 RETURN INVALID PUSH1 0x80 PUSH1 0x40 MSTORE PUSH1 0x4 CALLDATASIZE LT PUSH3 0xFE JUMPI PUSH1 0x0 CALLDATALOAD PUSH1 0xE0 SHR DUP1 PUSH4 0x8DA5CB5B GT PUSH3 0x97 JUMPI DUP1 PUSH4 0xCFB35B3B GT PUSH3 0x61 JUMPI DUP1 PUSH4 0xCFB35B3B EQ PUSH3 0x2F9 JUMPI DUP1 PUSH4 0xE1A3DB15 EQ PUSH3 0x327 JUMPI DUP1 PUSH4 0xF2FDE38B EQ PUSH3 0x357 JUMPI DUP1 PUSH4 0xFD62A55F EQ PUSH3 0x385 JUMPI PUSH3 0xFE JUMP JUMPDEST DUP1 PUSH4 0x8DA5CB5B EQ PUSH3 0x23B JUMPI DUP1 PUSH4 0x9A068BD6 EQ PUSH3 0x26B JUMPI DUP1 PUSH4 0xAC446002 EQ PUSH3 0x2AF JUMPI DUP1 PUSH4 0xB69EF8A8 EQ PUSH3 0x2C9 JUMPI PUSH3 0xFE JUMP JUMPDEST DUP1 PUSH4 0x54D8A5BD GT PUSH3 0xD9 JUMPI DUP1 PUSH4 0x54D8A5BD EQ PUSH3 0x193 JUMPI DUP1 PUSH4 0x57800736 EQ PUSH3 0x1C3 JUMPI DUP1 PUSH4 0x64705D8B EQ PUSH3 0x1F3 JUMPI DUP1 PUSH4 0x715018A6 EQ PUSH3 0x221 JUMPI PUSH3 0xFE JUMP JUMPDEST DUP1 PUSH4 0x27D3F35 EQ PUSH3 0x103 JUMPI DUP1 PUSH4 0x2DABB8AC EQ PUSH3 0x133 JUMPI DUP1 PUSH4 0x50ADCDB7 EQ PUSH3 0x163 JUMPI JUMPDEST PUSH1 0x0 DUP1 REVERT JUMPDEST CALLVALUE DUP1 ISZERO PUSH3 0x110 JUMPI PUSH1 0x0 DUP1 REVERT JUMPDEST POP PUSH3 0x11B PUSH3 0x3A5 JUMP JUMPDEST PUSH1 0x40 MLOAD PUSH3 0x12A SWAP2 SWAP1 PUSH3 0xC38 JUMP JUMPDEST PUSH1 0x40 MLOAD DUP1 SWAP2 SUB SWAP1 RETURN JUMPDEST CALLVALUE DUP1 ISZERO PUSH3 0x140 JUMPI PUSH1 0x0 DUP1 REVERT JUMPDEST POP PUSH3 0x14B PUSH3 0x3AA JUMP JUMPDEST PUSH1 0x40 MLOAD PUSH3 0x15A SWAP2 SWAP1 PUSH3 0xC38 JUMP JUMPDEST PUSH1 0x40 MLOAD DUP1 SWAP2 SUB SWAP1 RETURN JUMPDEST CALLVALUE DUP1 ISZERO PUSH3 0x170 JUMPI PUSH1 0x0 DUP1 REVERT JUMPDEST POP PUSH3 0x17B PUSH3 0x3B0 JUMP JUMPDEST PUSH1 0x40 MLOAD PUSH3 0x18A SWAP2 SWAP1 PUSH3 0xCE0 JUMP JUMPDEST PUSH1 0x40 MLOAD DUP1 SWAP2 SUB SWAP1 RETURN JUMPDEST CALLVALUE DUP1 ISZERO PUSH3 0x1A0 JUMPI PUSH1 0x0 DUP1 REVERT JUMPDEST POP PUSH3 0x1AB PUSH3 0x3D4 JUMP JUMPDEST PUSH1 0x40 MLOAD PUSH3 0x1BA SWAP2 SWAP1 PUSH3 0xDDF JUMP JUMPDEST PUSH1 0x40 MLOAD DUP1 SWAP2 SUB SWAP1 RETURN JUMPDEST CALLVALUE DUP1 ISZERO PUSH3 0x1D0 JUMPI PUSH1 0x0 DUP1 REVERT JUMPDEST POP PUSH3 0x1DB PUSH3 0x464 JUMP JUMPDEST PUSH1 0x40 MLOAD PUSH3 0x1EA SWAP2 SWAP1 PUSH3 0xC38 JUMP JUMPDEST PUSH1 0x40 MLOAD DUP1 SWAP2 SUB SWAP1 RETURN JUMPDEST CALLVALUE DUP1 ISZERO PUSH3 0x200 JUMPI PUSH1 0x0 DUP1 REVERT JUMPDEST POP PUSH3 0x21F PUSH1 0x4 DUP1 CALLDATASIZE SUB DUP2 ADD SWAP1 PUSH3 0x219 SWAP2 SWAP1 PUSH3 0x1107 JUMP JUMPDEST PUSH3 0x46A JUMP JUMPDEST STOP JUMPDEST CALLVALUE DUP1 ISZERO PUSH3 0x22E JUMPI PUSH1 0x0 DUP1 REVERT JUMPDEST POP PUSH3 0x239 PUSH3 0x753 JUMP JUMPDEST STOP JUMPDEST CALLVALUE DUP1 ISZERO PUSH3 0x248 JUMPI PUSH1 0x0 DUP1 REVERT JUMPDEST POP PUSH3 0x253 PUSH3 0x76B JUMP JUMPDEST PUSH1 0x40 MLOAD PUSH3 0x262 SWAP2 SWAP1 PUSH3 0x1235 JUMP JUMPDEST PUSH1 0x40 MLOAD DUP1 SWAP2 SUB SWAP1 RETURN JUMPDEST CALLVALUE DUP1 ISZERO PUSH3 0x278 JUMPI PUSH1 0x0 DUP1 REVERT JUMPDEST POP PUSH3 0x297 PUSH1 0x4 DUP1 CALLDATASIZE SUB DUP2 ADD SWAP1 PUSH3 0x291 SWAP2 SWAP1 PUSH3 0x1252 JUMP JUMPDEST PUSH3 0x794 JUMP JUMPDEST PUSH1 0x40 MLOAD PUSH3 0x2A6 SWAP2 SWAP1 PUSH3 0x1295 JUMP JUMPDEST PUSH1 0x40 MLOAD DUP1 SWAP2 SUB SWAP1 RETURN JUMPDEST CALLVALUE DUP1 ISZERO PUSH3 0x2BC JUMPI PUSH1 0x0 DUP1 REVERT JUMPDEST POP PUSH3 0x2C7 PUSH3 0x7D4 JUMP JUMPDEST STOP JUMPDEST CALLVALUE DUP1 ISZERO PUSH3 0x2D6 JUMPI PUSH1 0x0 DUP1 REVERT JUMPDEST POP PUSH3 0x2E1 PUSH3 0x831 JUMP JUMPDEST PUSH1 0x40 MLOAD PUSH3 0x2F0 SWAP2 SWAP1 PUSH3 0xC38 JUMP JUMPDEST PUSH1 0x40 MLOAD DUP1 SWAP2 SUB SWAP1 RETURN JUMPDEST CALLVALUE DUP1 ISZERO PUSH3 0x306 JUMPI PUSH1 0x0 DUP1 REVERT JUMPDEST POP PUSH3 0x325 PUSH1 0x4 DUP1 CALLDATASIZE SUB DUP2 ADD SWAP1 PUSH3 0x31F SWAP2 SWAP1 PUSH3 0x1252 JUMP JUMPDEST PUSH3 0x839 JUMP JUMPDEST STOP JUMPDEST CALLVALUE DUP1 ISZERO PUSH3 0x334 JUMPI PUSH1 0x0 DUP1 REVERT JUMPDEST POP PUSH3 0x33F PUSH3 0x886 JUMP JUMPDEST PUSH1 0x40 MLOAD PUSH3 0x34E SWAP2 SWAP1 PUSH3 0xC38 JUMP JUMPDEST PUSH1 0x40 MLOAD DUP1 SWAP2 SUB SWAP1 RETURN JUMPDEST CALLVALUE DUP1 ISZERO PUSH3 0x364 JUMPI PUSH1 0x0 DUP1 REVERT JUMPDEST POP PUSH3 0x383 PUSH1 0x4 DUP1 CALLDATASIZE SUB DUP2 ADD SWAP1 PUSH3 0x37D SWAP2 SWAP1 PUSH3 0x12B2 JUMP JUMPDEST PUSH3 0x893 JUMP JUMPDEST STOP JUMPDEST PUSH3 0x3A3 PUSH1 0x4 DUP1 CALLDATASIZE SUB DUP2 ADD SWAP1 PUSH3 0x39D SWAP2 SWAP1 PUSH3 0x1252 JUMP JUMPDEST PUSH3 0x91D JUMP JUMPDEST STOP JUMPDEST PUSH1 0x1 DUP2 JUMP JUMPDEST PUSH1 0x1 SLOAD DUP2 JUMP JUMPDEST PUSH32 0x0 DUP2 JUMP JUMPDEST PUSH1 0x60 PUSH1 0x3 DUP1 SLOAD DUP1 PUSH1 0x20 MUL PUSH1 0x20 ADD PUSH1 0x40 MLOAD SWAP1 DUP2 ADD PUSH1 0x40 MSTORE DUP1 SWAP3 SWAP2 SWAP1 DUP2 DUP2 MSTORE PUSH1 0x20 ADD DUP3 DUP1 SLOAD DUP1 ISZERO PUSH3 0x45A JUMPI PUSH1 0x20 MUL DUP3 ADD SWAP2 SWAP1 PUSH1 0x0 MSTORE PUSH1 0x20 PUSH1 0x0 KECCAK256 SWAP1 JUMPDEST DUP2 PUSH1 0x0 SWAP1 SLOAD SWAP1 PUSH2 0x100 EXP SWAP1 DIV PUSH20 0xFFFFFFFFFFFFFFFFFFFFFFFFFFFFFFFFFFFFFFFF AND PUSH20 0xFFFFFFFFFFFFFFFFFFFFFFFFFFFFFFFFFFFFFFFF AND DUP2 MSTORE PUSH1 0x20 ADD SWAP1 PUSH1 0x1 ADD SWAP1 DUP1 DUP4 GT PUSH3 0x40F JUMPI JUMPDEST POP POP POP POP POP SWAP1 POP SWAP1 JUMP JUMPDEST PUSH1 0x2 SLOAD DUP2 JUMP JUMPDEST PUSH1 0x0 DUP10 MLOAD SUB PUSH3 0x4B1 JUMPI PUSH1 0x40 MLOAD PUSH32 0x8C379A000000000000000000000000000000000000000000000000000000000 DUP2 MSTORE PUSH1 0x4 ADD PUSH3 0x4A8 SWAP1 PUSH3 0x136B JUMP JUMPDEST PUSH1 0x40 MLOAD DUP1 SWAP2 SUB SWAP1 REVERT JUMPDEST DUP6 DUP1 ISZERO PUSH3 0x4C0 JUMPI POP PUSH1 0x0 DUP9 MLOAD GT JUMPDEST DUP1 PUSH3 0x4E1 JUMPI POP DUP5 DUP1 ISZERO PUSH3 0x4E0 JUMPI POP DUP4 ISZERO DUP1 PUSH3 0x4DF JUMPI POP PUSH1 0x0 DUP9 MLOAD GT JUMPDEST JUMPDEST JUMPDEST PUSH3 0x523 JUMPI PUSH1 0x40 MLOAD PUSH32 0x8C379A000000000000000000000000000000000000000000000000000000000 DUP2 MSTORE PUSH1 0x4 ADD PUSH3 0x51A SWAP1 PUSH3 0x1403 JUMP JUMPDEST PUSH1 0x40 MLOAD DUP1 SWAP2 SUB SWAP1 REVERT JUMPDEST PUSH1 0x65 DUP3 LT PUSH3 0x569 JUMPI PUSH1 0x40 MLOAD PUSH32 0x8C379A000000000000000000000000000000000000000000000000000000000 DUP2 MSTORE PUSH1 0x4 ADD PUSH3 0x560 SWAP1 PUSH3 0x149B JUMP JUMPDEST PUSH1 0x40 MLOAD DUP1 SWAP2 SUB SWAP1 REVERT JUMPDEST PUSH1 0x65 DUP2 LT PUSH3 0x5AF JUMPI PUSH1 0x40 MLOAD PUSH32 0x8C379A000000000000000000000000000000000000000000000000000000000 DUP2 MSTORE PUSH1 0x4 ADD PUSH3 0x5A6 SWAP1 PUSH3 0x1533 JUMP JUMPDEST PUSH1 0x40 MLOAD DUP1 SWAP2 SUB SWAP1 REVERT JUMPDEST PUSH32 0x0 PUSH20 0xFFFFFFFFFFFFFFFFFFFFFFFFFFFFFFFFFFFFFFFF AND PUSH4 0x9DC29FAC CALLER PUSH1 0x1 PUSH1 0x40 MLOAD DUP4 PUSH4 0xFFFFFFFF AND PUSH1 0xE0 SHL DUP2 MSTORE PUSH1 0x4 ADD PUSH3 0x60D SWAP3 SWAP2 SWAP1 PUSH3 0x1555 JUMP JUMPDEST PUSH1 0x0 PUSH1 0x40 MLOAD DUP1 DUP4 SUB DUP2 PUSH1 0x0 DUP8 DUP1 EXTCODESIZE ISZERO DUP1 ISZERO PUSH3 0x628 JUMPI PUSH1 0x0 DUP1 REVERT JUMPDEST POP GAS CALL ISZERO DUP1 ISZERO PUSH3 0x63D JUMPI RETURNDATASIZE PUSH1 0x0 DUP1 RETURNDATACOPY RETURNDATASIZE PUSH1 0x0 REVERT JUMPDEST POP POP POP POP PUSH1 0x0 DUP10 CALLER DUP11 DUP11 DUP11 DUP11 DUP11 DUP11 DUP11 DUP11 PUSH1 0x40 MLOAD PUSH3 0x65B SWAP1 PUSH3 0xC0F JUMP JUMPDEST PUSH3 0x670 SWAP11 SWAP10 SWAP9 SWAP8 SWAP7 SWAP6 SWAP5 SWAP4 SWAP3 SWAP2 SWAP1 PUSH3 0x16C8 JUMP JUMPDEST PUSH1 0x40 MLOAD DUP1 SWAP2 SUB SWAP1 PUSH1 0x0 CREATE DUP1 ISZERO DUP1 ISZERO PUSH3 0x68D JUMPI RETURNDATASIZE PUSH1 0x0 DUP1 RETURNDATACOPY RETURNDATASIZE PUSH1 0x0 REVERT JUMPDEST POP SWAP1 POP PUSH1 0x3 DUP2 SWAP1 DUP1 PUSH1 0x1 DUP2 SLOAD ADD DUP1 DUP3 SSTORE DUP1 SWAP2 POP POP PUSH1 0x1 SWAP1 SUB SWAP1 PUSH1 0x0 MSTORE PUSH1 0x20 PUSH1 0x0 KECCAK256 ADD PUSH1 0x0 SWAP1 SWAP2 SWAP1 SWAP2 SWAP1 SWAP2 PUSH2 0x100 EXP DUP2 SLOAD DUP2 PUSH20 0xFFFFFFFFFFFFFFFFFFFFFFFFFFFFFFFFFFFFFFFF MUL NOT AND SWAP1 DUP4 PUSH20 0xFFFFFFFFFFFFFFFFFFFFFFFFFFFFFFFFFFFFFFFF AND MUL OR SWAP1 SSTORE POP CALLER PUSH20 0xFFFFFFFFFFFFFFFFFFFFFFFFFFFFFFFFFFFFFFFF AND PUSH32 0x9109803BCE680E214BD28BD83C37574DBCFC99A7D71112714D8143E69F2C5069 DUP3 DUP13 TIMESTAMP PUSH1 0x40 MLOAD PUSH3 0x73F SWAP4 SWAP3 SWAP2 SWAP1 PUSH3 0x1786 JUMP JUMPDEST PUSH1 0x40 MLOAD DUP1 SWAP2 SUB SWAP1 LOG2 POP POP POP POP POP POP POP POP POP POP JUMP JUMPDEST PUSH3 0x75D PUSH3 0xABE JUMP JUMPDEST PUSH3 0x769 PUSH1 0x0 PUSH3 0xB43 JUMP JUMPDEST JUMP JUMPDEST PUSH1 0x0 DUP1 PUSH1 0x0 SWAP1 SLOAD SWAP1 PUSH2 0x100 EXP SWAP1 DIV PUSH20 0xFFFFFFFFFFFFFFFFFFFFFFFFFFFFFFFFFFFFFFFF AND SWAP1 POP SWAP1 JUMP JUMPDEST PUSH1 0x3 DUP2 DUP2 SLOAD DUP2 LT PUSH3 0x7A5 JUMPI PUSH1 0x0 DUP1 REVERT JUMPDEST SWAP1 PUSH1 0x0 MSTORE PUSH1 0x20 PUSH1 0x0 KECCAK256 ADD PUSH1 0x0 SWAP2 POP SLOAD SWAP1 PUSH2 0x100 EXP SWAP1 DIV PUSH20 0xFFFFFFFFFFFFFFFFFFFFFFFFFFFFFFFFFFFFFFFF AND DUP2 JUMP JUMPDEST PUSH3 0x7DE PUSH3 0xABE JUMP JUMPDEST PUSH3 0x7E8 PUSH3 0x76B JUMP JUMPDEST PUSH20 0xFFFFFFFFFFFFFFFFFFFFFFFFFFFFFFFFFFFFFFFF AND PUSH2 0x8FC SELFBALANCE SWAP1 DUP2 ISZERO MUL SWAP1 PUSH1 0x40 MLOAD PUSH1 0x0 PUSH1 0x40 MLOAD DUP1 DUP4 SUB DUP2 DUP6 DUP9 DUP9 CALL SWAP4 POP POP POP POP ISZERO DUP1 ISZERO PUSH3 0x82E JUMPI RETURNDATASIZE PUSH1 0x0 DUP1 RETURNDATACOPY RETURNDATASIZE PUSH1 0x0 REVERT JUMPDEST POP JUMP JUMPDEST PUSH1 0x0 SELFBALANCE SWAP1 POP SWAP1 JUMP JUMPDEST PUSH3 0x843 PUSH3 0xABE JUMP JUMPDEST DUP1 PUSH1 0x2 DUP2 SWAP1 SSTORE POP PUSH32 0x6FA7D30EBCF61D14F9AF3A7C1BAC55AA0088EB2E6A1F966A94C413305A6ECE38 DUP2 PUSH1 0x40 MLOAD PUSH3 0x87B SWAP2 SWAP1 PUSH3 0xC38 JUMP JUMPDEST PUSH1 0x40 MLOAD DUP1 SWAP2 SUB SWAP1 LOG1 POP JUMP JUMPDEST PUSH1 0x0 PUSH1 0x3 DUP1 SLOAD SWAP1 POP SWAP1 POP SWAP1 JUMP JUMPDEST PUSH3 0x89D PUSH3 0xABE JUMP JUMPDEST PUSH1 0x0 PUSH20 0xFFFFFFFFFFFFFFFFFFFFFFFFFFFFFFFFFFFFFFFF AND DUP2 PUSH20 0xFFFFFFFFFFFFFFFFFFFFFFFFFFFFFFFFFFFFFFFF AND SUB PUSH3 0x90F JUMPI PUSH1 0x40 MLOAD PUSH32 0x8C379A000000000000000000000000000000000000000000000000000000000 DUP2 MSTORE PUSH1 0x4 ADD PUSH3 0x906 SWAP1 PUSH3 0x1840 JUMP JUMPDEST PUSH1 0x40 MLOAD DUP1 SWAP2 SUB SWAP1 REVERT JUMPDEST PUSH3 0x91A DUP2 PUSH3 0xB43 JUMP JUMPDEST POP JUMP JUMPDEST PUSH1 0x0 DUP2 GT PUSH3 0x963 JUMPI PUSH1 0x40 MLOAD PUSH32 0x8C379A000000000000000000000000000000000000000000000000000000000 DUP2 MSTORE PUSH1 0x4 ADD PUSH3 0x95A SWAP1 PUSH3 0x18D8 JUMP JUMPDEST PUSH1 0x40 MLOAD DUP1 SWAP2 SUB SWAP1 REVERT JUMPDEST PUSH1 0x0 PUSH1 0x2 SLOAD SWAP1 POP DUP1 DUP3 PUSH3 0x978 SWAP2 SWAP1 PUSH3 0x1929 JUMP JUMPDEST CALLVALUE EQ PUSH3 0x9BC JUMPI PUSH1 0x40 MLOAD PUSH32 0x8C379A000000000000000000000000000000000000000000000000000000000 DUP2 MSTORE PUSH1 0x4 ADD PUSH3 0x9B3 SWAP1 PUSH3 0x19DA JUMP JUMPDEST PUSH1 0x40 MLOAD DUP1 SWAP2 SUB SWAP1 REVERT JUMPDEST PUSH32 0x0 PUSH20 0xFFFFFFFFFFFFFFFFFFFFFFFFFFFFFFFFFFFFFFFF AND PUSH4 0x40C10F19 CALLER DUP5 PUSH1 0x40 MLOAD DUP4 PUSH4 0xFFFFFFFF AND PUSH1 0xE0 SHL DUP2 MSTORE PUSH1 0x4 ADD PUSH3 0xA19 SWAP3 SWAP2 SWAP1 PUSH3 0x1555 JUMP JUMPDEST PUSH1 0x0 PUSH1 0x40 MLOAD DUP1 DUP4 SUB DUP2 PUSH1 0x0 DUP8 DUP1 EXTCODESIZE ISZERO DUP1 ISZERO PUSH3 0xA34 JUMPI PUSH1 0x0 DUP1 REVERT JUMPDEST POP GAS CALL ISZERO DUP1 ISZERO PUSH3 0xA49 JUMPI RETURNDATASIZE PUSH1 0x0 DUP1 RETURNDATACOPY RETURNDATASIZE PUSH1 0x0 REVERT JUMPDEST POP POP POP POP CALLVALUE PUSH1 0x1 PUSH1 0x0 DUP3 DUP3 SLOAD PUSH3 0xA61 SWAP2 SWAP1 PUSH3 0x19FC JUMP JUMPDEST SWAP3 POP POP DUP2 SWAP1 SSTORE POP CALLER PUSH20 0xFFFFFFFFFFFFFFFFFFFFFFFFFFFFFFFFFFFFFFFF AND PUSH32 0x9D3E99EE489AC621F2410B44B7354AB26CB655AFBC87F3EC09D88F2B8B3DBF44 DUP3 DUP5 PUSH1 0x40 MLOAD PUSH3 0xAB2 SWAP3 SWAP2 SWAP1 PUSH3 0x1A37 JUMP JUMPDEST PUSH1 0x40 MLOAD DUP1 SWAP2 SUB SWAP1 LOG2 POP POP JUMP JUMPDEST PUSH3 0xAC8 PUSH3 0xC07 JUMP JUMPDEST PUSH20 0xFFFFFFFFFFFFFFFFFFFFFFFFFFFFFFFFFFFFFFFF AND PUSH3 0xAE8 PUSH3 0x76B JUMP JUMPDEST PUSH20 0xFFFFFFFFFFFFFFFFFFFFFFFFFFFFFFFFFFFFFFFF AND EQ PUSH3 0xB41 JUMPI PUSH1 0x40 MLOAD PUSH32 0x8C379A000000000000000000000000000000000000000000000000000000000 DUP2 MSTORE PUSH1 0x4 ADD PUSH3 0xB38 SWAP1 PUSH3 0x1AB4 JUMP JUMPDEST PUSH1 0x40 MLOAD DUP1 SWAP2 SUB SWAP1 REVERT JUMPDEST JUMP JUMPDEST PUSH1 0x0 DUP1 PUSH1 0x0 SWAP1 SLOAD SWAP1 PUSH2 0x100 EXP SWAP1 DIV PUSH20 0xFFFFFFFFFFFFFFFFFFFFFFFFFFFFFFFFFFFFFFFF AND SWAP1 POP DUP2 PUSH1 0x0 DUP1 PUSH2 0x100 EXP DUP2 SLOAD DUP2 PUSH20 0xFFFFFFFFFFFFFFFFFFFFFFFFFFFFFFFFFFFFFFFF MUL NOT AND SWAP1 DUP4 PUSH20 0xFFFFFFFFFFFFFFFFFFFFFFFFFFFFFFFFFFFFFFFF AND MUL OR SWAP1 SSTORE POP DUP2 PUSH20 0xFFFFFFFFFFFFFFFFFFFFFFFFFFFFFFFFFFFFFFFF AND DUP2 PUSH20 0xFFFFFFFFFFFFFFFFFFFFFFFFFFFFFFFFFFFFFFFF AND PUSH32 0x8BE0079C531659141344CD1FD0A4F28419497F9722A3DAAFE3B4186F6B6457E0 PUSH1 0x40 MLOAD PUSH1 0x40 MLOAD DUP1 SWAP2 SUB SWAP1 LOG3 POP POP JUMP JUMPDEST PUSH1 0x0 CALLER SWAP1 POP SWAP1 JUMP JUMPDEST PUSH2 0x4401 DUP1 PUSH3 0x1AD7 DUP4 CODECOPY ADD SWAP1 JUMP JUMPDEST PUSH1 0x0 DUP2 SWAP1 POP SWAP2 SWAP1 POP JUMP JUMPDEST PUSH3 0xC32 DUP2 PUSH3 0xC1D JUMP JUMPDEST DUP3 MSTORE POP POP JUMP JUMPDEST PUSH1 0x0 PUSH1 0x20 DUP3 ADD SWAP1 POP PUSH3 0xC4F PUSH1 0x0 DUP4 ADD DUP5 PUSH3 0xC27 JUMP JUMPDEST SWAP3 SWAP2 POP POP JUMP JUMPDEST PUSH1 0x0 PUSH20 0xFFFFFFFFFFFFFFFFFFFFFFFFFFFFFFFFFFFFFFFF DUP3 AND SWAP1 POP SWAP2 SWAP1 POP JUMP JUMPDEST PUSH1 0x0 DUP2 SWAP1 POP SWAP2 SWAP1 POP JUMP JUMPDEST PUSH1 0x0 PUSH3 0xCA0 PUSH3 0xC9A PUSH3 0xC94 DUP5 PUSH3 0xC55 JUMP JUMPDEST PUSH3 0xC75 JUMP JUMPDEST PUSH3 0xC55 JUMP JUMPDEST SWAP1 POP SWAP2 SWAP1 POP JUMP JUMPDEST PUSH1 0x0 PUSH3 0xCB4 DUP3 PUSH3 0xC7F JUMP JUMPDEST SWAP1 POP SWAP2 SWAP1 POP JUMP JUMPDEST PUSH1 0x0 PUSH3 0xCC8 DUP3 PUSH3 0xCA7 JUMP JUMPDEST SWAP1 POP SWAP2 SWAP1 POP JUMP JUMPDEST PUSH3 0xCDA DUP2 PUSH3 0xCBB JUMP JUMPDEST DUP3 MSTORE POP POP JUMP JUMPDEST PUSH1 0x0 PUSH1 0x20 DUP3 ADD SWAP1 POP PUSH3 0xCF7 PUSH1 0x0 DUP4 ADD DUP5 PUSH3 0xCCF JUMP JUMPDEST SWAP3 SWAP2 POP POP JUMP JUMPDEST PUSH1 0x0 DUP2 MLOAD SWAP1 POP SWAP2 SWAP1 POP JUMP JUMPDEST PUSH1 0x0 DUP3 DUP3 MSTORE PUSH1 0x20 DUP3 ADD SWAP1 POP SWAP3 SWAP2 POP POP JUMP JUMPDEST PUSH1 0x0 DUP2 SWAP1 POP PUSH1 0x20 DUP3 ADD SWAP1 POP SWAP2 SWAP1 POP JUMP JUMPDEST PUSH1 0x0 PUSH3 0xD36 DUP3 PUSH3 0xCA7 JUMP JUMPDEST SWAP1 POP SWAP2 SWAP1 POP JUMP JUMPDEST PUSH3 0xD48 DUP2 PUSH3 0xD29 JUMP JUMPDEST DUP3 MSTORE POP POP JUMP JUMPDEST PUSH1 0x0 PUSH3 0xD5C DUP4 DUP4 PUSH3 0xD3D JUMP JUMPDEST PUSH1 0x20 DUP4 ADD SWAP1 POP SWAP3 SWAP2 POP POP JUMP JUMPDEST PUSH1 0x0 PUSH1 0x20 DUP3 ADD SWAP1 POP SWAP2 SWAP1 POP JUMP JUMPDEST PUSH1 0x0 PUSH3 0xD82 DUP3 PUSH3 0xCFD JUMP JUMPDEST PUSH3 0xD8E DUP2 DUP6 PUSH3 0xD08 JUMP JUMPDEST SWAP4 POP PUSH3 0xD9B DUP4 PUSH3 0xD19 JUMP JUMPDEST DUP1 PUSH1 0x0 JUMPDEST DUP4 DUP2 LT ISZERO PUSH3 0xDD2 JUMPI DUP2 MLOAD PUSH3 0xDB6 DUP9 DUP3 PUSH3 0xD4E JUMP JUMPDEST SWAP8 POP PUSH3 0xDC3 DUP4 PUSH3 0xD68 JUMP JUMPDEST SWAP3 POP POP PUSH1 0x1 DUP2 ADD SWAP1 POP PUSH3 0xD9F JUMP JUMPDEST POP DUP6 SWAP4 POP POP POP POP SWAP3 SWAP2 POP POP JUMP JUMPDEST PUSH1 0x0 PUSH1 0x20 DUP3 ADD SWAP1 POP DUP2 DUP2 SUB PUSH1 0x0 DUP4 ADD MSTORE PUSH3 0xDFB DUP2 DUP5 PUSH3 0xD75 JUMP JUMPDEST SWAP1 POP SWAP3 SWAP2 POP POP JUMP JUMPDEST PUSH1 0x0 PUSH1 0x40 MLOAD SWAP1 POP SWAP1 JUMP JUMPDEST PUSH1 0x0 DUP1 REVERT JUMPDEST PUSH1 0x0 DUP1 REVERT JUMPDEST PUSH1 0x0 DUP1 REVERT JUMPDEST PUSH1 0x0 DUP1 REVERT JUMPDEST PUSH1 0x0 PUSH1 0x1F NOT PUSH1 0x1F DUP4 ADD AND SWAP1 POP SWAP2 SWAP1 POP JUMP JUMPDEST PUSH32 0x4E487B7100000000000000000000000000000000000000000000000000000000 PUSH1 0x0 MSTORE PUSH1 0x41 PUSH1 0x4 MSTORE PUSH1 0x24 PUSH1 0x0 REVERT JUMPDEST PUSH3 0xE6C DUP3 PUSH3 0xE21 JUMP JUMPDEST DUP2 ADD DUP2 DUP2 LT PUSH8 0xFFFFFFFFFFFFFFFF DUP3 GT OR ISZERO PUSH3 0xE8E JUMPI PUSH3 0xE8D PUSH3 0xE32 JUMP JUMPDEST JUMPDEST DUP1 PUSH1 0x40 MSTORE POP POP POP JUMP JUMPDEST PUSH1 0x0 PUSH3 0xEA3 PUSH3 0xE03 JUMP JUMPDEST SWAP1 POP PUSH3 0xEB1 DUP3 DUP3 PUSH3 0xE61 JUMP JUMPDEST SWAP2 SWAP1 POP JUMP JUMPDEST PUSH1 0x0 PUSH8 0xFFFFFFFFFFFFFFFF DUP3 GT ISZERO PUSH3 0xED4 JUMPI PUSH3 0xED3 PUSH3 0xE32 JUMP JUMPDEST JUMPDEST PUSH3 0xEDF DUP3 PUSH3 0xE21 JUMP JUMPDEST SWAP1 POP PUSH1 0x20 DUP2 ADD SWAP1 POP SWAP2 SWAP1 POP JUMP JUMPDEST DUP3 DUP2 DUP4 CALLDATACOPY PUSH1 0x0 DUP4 DUP4 ADD MSTORE POP POP POP JUMP JUMPDEST PUSH1 0x0 PUSH3 0xF12 PUSH3 0xF0C DUP5 PUSH3 0xEB6 JUMP JUMPDEST PUSH3 0xE97 JUMP JUMPDEST SWAP1 POP DUP3 DUP2 MSTORE PUSH1 0x20 DUP2 ADD DUP5 DUP5 DUP5 ADD GT ISZERO PUSH3 0xF31 JUMPI PUSH3 0xF30 PUSH3 0xE1C JUMP JUMPDEST JUMPDEST PUSH3 0xF3E DUP5 DUP3 DUP6 PUSH3 0xEEC JUMP JUMPDEST POP SWAP4 SWAP3 POP POP POP JUMP JUMPDEST PUSH1 0x0 DUP3 PUSH1 0x1F DUP4 ADD SLT PUSH3 0xF5E JUMPI PUSH3 0xF5D PUSH3 0xE17 JUMP JUMPDEST JUMPDEST DUP2 CALLDATALOAD PUSH3 0xF70 DUP5 DUP3 PUSH1 0x20 DUP7 ADD PUSH3 0xEFB JUMP JUMPDEST SWAP2 POP POP SWAP3 SWAP2 POP POP JUMP JUMPDEST PUSH1 0x0 PUSH8 0xFFFFFFFFFFFFFFFF DUP3 GT ISZERO PUSH3 0xF97 JUMPI PUSH3 0xF96 PUSH3 0xE32 JUMP JUMPDEST JUMPDEST PUSH1 0x20 DUP3 MUL SWAP1 POP PUSH1 0x20 DUP2 ADD SWAP1 POP SWAP2 SWAP1 POP JUMP JUMPDEST PUSH1 0x0 DUP1 REVERT JUMPDEST PUSH1 0x0 PUSH3 0xFBA DUP3 PUSH3 0xC55 JUMP JUMPDEST SWAP1 POP SWAP2 SWAP1 POP JUMP JUMPDEST PUSH3 0xFCC DUP2 PUSH3 0xFAD JUMP JUMPDEST DUP2 EQ PUSH3 0xFD8 JUMPI PUSH1 0x0 DUP1 REVERT JUMPDEST POP JUMP JUMPDEST PUSH1 0x0 DUP2 CALLDATALOAD SWAP1 POP PUSH3 0xFEC DUP2 PUSH3 0xFC1 JUMP JUMPDEST SWAP3 SWAP2 POP POP JUMP JUMPDEST PUSH1 0x0 PUSH3 0x1009 PUSH3 0x1003 DUP5 PUSH3 0xF79 JUMP JUMPDEST PUSH3 0xE97 JUMP JUMPDEST SWAP1 POP DUP1 DUP4 DUP3 MSTORE PUSH1 0x20 DUP3 ADD SWAP1 POP PUSH1 0x20 DUP5 MUL DUP4 ADD DUP6 DUP2 GT ISZERO PUSH3 0x102F JUMPI PUSH3 0x102E PUSH3 0xFA8 JUMP JUMPDEST JUMPDEST DUP4 JUMPDEST DUP2 DUP2 LT ISZERO PUSH3 0x105C JUMPI DUP1 PUSH3 0x1047 DUP9 DUP3 PUSH3 0xFDB JUMP JUMPDEST DUP5 MSTORE PUSH1 0x20 DUP5 ADD SWAP4 POP POP PUSH1 0x20 DUP2 ADD SWAP1 POP PUSH3 0x1031 JUMP JUMPDEST POP POP POP SWAP4 SWAP3 POP POP POP JUMP JUMPDEST PUSH1 0x0 DUP3 PUSH1 0x1F DUP4 ADD SLT PUSH3 0x107E JUMPI PUSH3 0x107D PUSH3 0xE17 JUMP JUMPDEST JUMPDEST DUP2 CALLDATALOAD PUSH3 0x1090 DUP5 DUP3 PUSH1 0x20 DUP7 ADD PUSH3 0xFF2 JUMP JUMPDEST SWAP2 POP POP SWAP3 SWAP2 POP POP JUMP JUMPDEST PUSH1 0x0 DUP2 ISZERO ISZERO SWAP1 POP SWAP2 SWAP1 POP JUMP JUMPDEST PUSH3 0x10B0 DUP2 PUSH3 0x1099 JUMP JUMPDEST DUP2 EQ PUSH3 0x10BC JUMPI PUSH1 0x0 DUP1 REVERT JUMPDEST POP JUMP JUMPDEST PUSH1 0x0 DUP2 CALLDATALOAD SWAP1 POP PUSH3 0x10D0 DUP2 PUSH3 0x10A5 JUMP JUMPDEST SWAP3 SWAP2 POP POP JUMP JUMPDEST PUSH3 0x10E1 DUP2 PUSH3 0xC1D JUMP JUMPDEST DUP2 EQ PUSH3 0x10ED JUMPI PUSH1 0x0 DUP1 REVERT JUMPDEST POP JUMP JUMPDEST PUSH1 0x0 DUP2 CALLDATALOAD SWAP1 POP PUSH3 0x1101 DUP2 PUSH3 0x10D6 JUMP JUMPDEST SWAP3 SWAP2 POP POP JUMP JUMPDEST PUSH1 0x0 DUP1 PUSH1 0x0 DUP1 PUSH1 0x0 DUP1 PUSH1 0x0 DUP1 PUSH1 0x0 PUSH2 0x120 DUP11 DUP13 SUB SLT ISZERO PUSH3 0x112D JUMPI PUSH3 0x112C PUSH3 0xE0D JUMP JUMPDEST JUMPDEST PUSH1 0x0 DUP11 ADD CALLDATALOAD PUSH8 0xFFFFFFFFFFFFFFFF DUP2 GT ISZERO PUSH3 0x114E JUMPI PUSH3 0x114D PUSH3 0xE12 JUMP JUMPDEST JUMPDEST PUSH3 0x115C DUP13 DUP3 DUP14 ADD PUSH3 0xF46 JUMP JUMPDEST SWAP10 POP POP PUSH1 0x20 DUP11 ADD CALLDATALOAD PUSH8 0xFFFFFFFFFFFFFFFF DUP2 GT ISZERO PUSH3 0x1180 JUMPI PUSH3 0x117F PUSH3 0xE12 JUMP JUMPDEST JUMPDEST PUSH3 0x118E DUP13 DUP3 DUP14 ADD PUSH3 0x1066 JUMP JUMPDEST SWAP9 POP POP PUSH1 0x40 PUSH3 0x11A1 DUP13 DUP3 DUP14 ADD PUSH3 0x10BF JUMP JUMPDEST SWAP8 POP POP PUSH1 0x60 PUSH3 0x11B4 DUP13 DUP3 DUP14 ADD PUSH3 0x10BF JUMP JUMPDEST SWAP7 POP POP PUSH1 0x80 PUSH3 0x11C7 DUP13 DUP3 DUP14 ADD PUSH3 0x10BF JUMP JUMPDEST SWAP6 POP POP PUSH1 0xA0 PUSH3 0x11DA DUP13 DUP3 DUP14 ADD PUSH3 0x10BF JUMP JUMPDEST SWAP5 POP POP PUSH1 0xC0 PUSH3 0x11ED DUP13 DUP3 DUP14 ADD PUSH3 0x10BF JUMP JUMPDEST SWAP4 POP POP PUSH1 0xE0 PUSH3 0x1200 DUP13 DUP3 DUP14 ADD PUSH3 0x10F0 JUMP JUMPDEST SWAP3 POP POP PUSH2 0x100 PUSH3 0x1214 DUP13 DUP3 DUP14 ADD PUSH3 0x10F0 JUMP JUMPDEST SWAP2 POP POP SWAP3 SWAP6 SWAP9 POP SWAP3 SWAP6 SWAP9 POP SWAP3 SWAP6 SWAP9 JUMP JUMPDEST PUSH3 0x122F DUP2 PUSH3 0xFAD JUMP JUMPDEST DUP3 MSTORE POP POP JUMP JUMPDEST PUSH1 0x0 PUSH1 0x20 DUP3 ADD SWAP1 POP PUSH3 0x124C PUSH1 0x0 DUP4 ADD DUP5 PUSH3 0x1224 JUMP JUMPDEST SWAP3 SWAP2 POP POP JUMP JUMPDEST PUSH1 0x0 PUSH1 0x20 DUP3 DUP5 SUB SLT ISZERO PUSH3 0x126B JUMPI PUSH3 0x126A PUSH3 0xE0D JUMP JUMPDEST JUMPDEST PUSH1 0x0 PUSH3 0x127B DUP5 DUP3 DUP6 ADD PUSH3 0x10F0 JUMP JUMPDEST SWAP2 POP POP SWAP3 SWAP2 POP POP JUMP JUMPDEST PUSH3 0x128F DUP2 PUSH3 0xD29 JUMP JUMPDEST DUP3 MSTORE POP POP JUMP JUMPDEST PUSH1 0x0 PUSH1 0x20 DUP3 ADD SWAP1 POP PUSH3 0x12AC PUSH1 0x0 DUP4 ADD DUP5 PUSH3 0x1284 JUMP JUMPDEST SWAP3 SWAP2 POP POP JUMP JUMPDEST PUSH1 0x0 PUSH1 0x20 DUP3 DUP5 SUB SLT ISZERO PUSH3 0x12CB JUMPI PUSH3 0x12CA PUSH3 0xE0D JUMP JUMPDEST JUMPDEST PUSH1 0x0 PUSH3 0x12DB DUP5 DUP3 DUP6 ADD PUSH3 0xFDB JUMP JUMPDEST SWAP2 POP POP SWAP3 SWAP2 POP POP JUMP JUMPDEST PUSH1 0x0 DUP3 DUP3 MSTORE PUSH1 0x20 DUP3 ADD SWAP1 POP SWAP3 SWAP2 POP POP JUMP JUMPDEST PUSH32 0x456C206E6F6D6272652064656C20666F6E646F206E6F20707565646520657374 PUSH1 0x0 DUP3 ADD MSTORE PUSH32 0x617220766163C3AD6F0000000000000000000000000000000000000000000000 PUSH1 0x20 DUP3 ADD MSTORE POP JUMP JUMPDEST PUSH1 0x0 PUSH3 0x1353 PUSH1 0x29 DUP4 PUSH3 0x12E4 JUMP JUMPDEST SWAP2 POP PUSH3 0x1360 DUP3 PUSH3 0x12F5 JUMP JUMPDEST PUSH1 0x40 DUP3 ADD SWAP1 POP SWAP2 SWAP1 POP JUMP JUMPDEST PUSH1 0x0 PUSH1 0x20 DUP3 ADD SWAP1 POP DUP2 DUP2 SUB PUSH1 0x0 DUP4 ADD MSTORE PUSH3 0x1386 DUP2 PUSH3 0x1344 JUMP JUMPDEST SWAP1 POP SWAP2 SWAP1 POP JUMP JUMPDEST PUSH32 0x4E6F2068616272C3AD61206D616E657261206465207265746972617220656C20 PUSH1 0x0 DUP3 ADD MSTORE PUSH32 0x64696E65726F2064656C20636F6E747261746F00000000000000000000000000 PUSH1 0x20 DUP3 ADD MSTORE POP JUMP JUMPDEST PUSH1 0x0 PUSH3 0x13EB PUSH1 0x33 DUP4 PUSH3 0x12E4 JUMP JUMPDEST SWAP2 POP PUSH3 0x13F8 DUP3 PUSH3 0x138D JUMP JUMPDEST PUSH1 0x40 DUP3 ADD SWAP1 POP SWAP2 SWAP1 POP JUMP JUMPDEST PUSH1 0x0 PUSH1 0x20 DUP3 ADD SWAP1 POP DUP2 DUP2 SUB PUSH1 0x0 DUP4 ADD MSTORE PUSH3 0x141E DUP2 PUSH3 0x13DC JUMP JUMPDEST SWAP1 POP SWAP2 SWAP1 POP JUMP JUMPDEST PUSH32 0x506F7263656E74616A6520646520636F6E74726962756369C3B36E20696E636F PUSH1 0x0 DUP3 ADD MSTORE PUSH32 0x72726563746F0000000000000000000000000000000000000000000000000000 PUSH1 0x20 DUP3 ADD MSTORE POP JUMP JUMPDEST PUSH1 0x0 PUSH3 0x1483 PUSH1 0x26 DUP4 PUSH3 0x12E4 JUMP JUMPDEST SWAP2 POP PUSH3 0x1490 DUP3 PUSH3 0x1425 JUMP JUMPDEST PUSH1 0x40 DUP3 ADD SWAP1 POP SWAP2 SWAP1 POP JUMP JUMPDEST PUSH1 0x0 PUSH1 0x20 DUP3 ADD SWAP1 POP DUP2 DUP2 SUB PUSH1 0x0 DUP4 ADD MSTORE PUSH3 0x14B6 DUP2 PUSH3 0x1474 JUMP JUMPDEST SWAP1 POP SWAP2 SWAP1 POP JUMP JUMPDEST PUSH32 0x506F7263656E74616A65206465206170726F626163696F6E657320696E636F72 PUSH1 0x0 DUP3 ADD MSTORE PUSH32 0x726563746F000000000000000000000000000000000000000000000000000000 PUSH1 0x20 DUP3 ADD MSTORE POP JUMP JUMPDEST PUSH1 0x0 PUSH3 0x151B PUSH1 0x25 DUP4 PUSH3 0x12E4 JUMP JUMPDEST SWAP2 POP PUSH3 0x1528 DUP3 PUSH3 0x14BD JUMP JUMPDEST PUSH1 0x40 DUP3 ADD SWAP1 POP SWAP2 SWAP1 POP JUMP JUMPDEST PUSH1 0x0 PUSH1 0x20 DUP3 ADD SWAP1 POP DUP2 DUP2 SUB PUSH1 0x0 DUP4 ADD MSTORE PUSH3 0x154E DUP2 PUSH3 0x150C JUMP JUMPDEST SWAP1 POP SWAP2 SWAP1 POP JUMP JUMPDEST PUSH1 0x0 PUSH1 0x40 DUP3 ADD SWAP1 POP PUSH3 0x156C PUSH1 0x0 DUP4 ADD DUP6 PUSH3 0x1224 JUMP JUMPDEST PUSH3 0x157B PUSH1 0x20 DUP4 ADD DUP5 PUSH3 0xC27 JUMP JUMPDEST SWAP4 SWAP3 POP POP POP JUMP JUMPDEST PUSH1 0x0 DUP2 MLOAD SWAP1 POP SWAP2 SWAP1 POP JUMP JUMPDEST PUSH1 0x0 JUMPDEST DUP4 DUP2 LT ISZERO PUSH3 0x15AD JUMPI DUP1 DUP3 ADD MLOAD DUP2 DUP5 ADD MSTORE PUSH1 0x20 DUP2 ADD SWAP1 POP PUSH3 0x1590 JUMP JUMPDEST PUSH1 0x0 DUP5 DUP5 ADD MSTORE POP POP POP POP JUMP JUMPDEST PUSH1 0x0 PUSH3 0x15C6 DUP3 PUSH3 0x1582 JUMP JUMPDEST PUSH3 0x15D2 DUP2 DUP6 PUSH3 0x12E4 JUMP JUMPDEST SWAP4 POP PUSH3 0x15E4 DUP2 DUP6 PUSH1 0x20 DUP7 ADD PUSH3 0x158D JUMP JUMPDEST PUSH3 0x15EF DUP2 PUSH3 0xE21 JUMP JUMPDEST DUP5 ADD SWAP2 POP POP SWAP3 SWAP2 POP POP JUMP JUMPDEST PUSH1 0x0 DUP2 MLOAD SWAP1 POP SWAP2 SWAP1 POP JUMP JUMPDEST PUSH1 0x0 DUP2 SWAP1 POP PUSH1 0x20 DUP3 ADD SWAP1 POP SWAP2 SWAP1 POP JUMP JUMPDEST PUSH3 0x1620 DUP2 PUSH3 0xFAD JUMP JUMPDEST DUP3 MSTORE POP POP JUMP JUMPDEST PUSH1 0x0 PUSH3 0x1634 DUP4 DUP4 PUSH3 0x1615 JUMP JUMPDEST PUSH1 0x20 DUP4 ADD SWAP1 POP SWAP3 SWAP2 POP POP JUMP JUMPDEST PUSH1 0x0 PUSH1 0x20 DUP3 ADD SWAP1 POP SWAP2 SWAP1 POP JUMP JUMPDEST PUSH1 0x0 PUSH3 0x165A DUP3 PUSH3 0x15FA JUMP JUMPDEST PUSH3 0x1666 DUP2 DUP6 PUSH3 0xD08 JUMP JUMPDEST SWAP4 POP PUSH3 0x1673 DUP4 PUSH3 0x1605 JUMP JUMPDEST DUP1 PUSH1 0x0 JUMPDEST DUP4 DUP2 LT ISZERO PUSH3 0x16AA JUMPI DUP2 MLOAD PUSH3 0x168E DUP9 DUP3 PUSH3 0x1626 JUMP JUMPDEST SWAP8 POP PUSH3 0x169B DUP4 PUSH3 0x1640 JUMP JUMPDEST SWAP3 POP POP PUSH1 0x1 DUP2 ADD SWAP1 POP PUSH3 0x1677 JUMP JUMPDEST POP DUP6 SWAP4 POP POP POP POP SWAP3 SWAP2 POP POP JUMP JUMPDEST PUSH3 0x16C2 DUP2 PUSH3 0x1099 JUMP JUMPDEST DUP3 MSTORE POP POP JUMP JUMPDEST PUSH1 0x0 PUSH2 0x140 DUP3 ADD SWAP1 POP DUP2 DUP2 SUB PUSH1 0x0 DUP4 ADD MSTORE PUSH3 0x16E5 DUP2 DUP14 PUSH3 0x15B9 JUMP JUMPDEST SWAP1 POP PUSH3 0x16F6 PUSH1 0x20 DUP4 ADD DUP13 PUSH3 0x1224 JUMP JUMPDEST DUP2 DUP2 SUB PUSH1 0x40 DUP4 ADD MSTORE PUSH3 0x170A DUP2 DUP12 PUSH3 0x164D JUMP JUMPDEST SWAP1 POP PUSH3 0x171B PUSH1 0x60 DUP4 ADD DUP11 PUSH3 0x16B7 JUMP JUMPDEST PUSH3 0x172A PUSH1 0x80 DUP4 ADD DUP10 PUSH3 0x16B7 JUMP JUMPDEST PUSH3 0x1739 PUSH1 0xA0 DUP4 ADD DUP9 PUSH3 0x16B7 JUMP JUMPDEST PUSH3 0x1748 PUSH1 0xC0 DUP4 ADD DUP8 PUSH3 0x16B7 JUMP JUMPDEST PUSH3 0x1757 PUSH1 0xE0 DUP4 ADD DUP7 PUSH3 0x16B7 JUMP JUMPDEST PUSH3 0x1767 PUSH2 0x100 DUP4 ADD DUP6 PUSH3 0xC27 JUMP JUMPDEST PUSH3 0x1777 PUSH2 0x120 DUP4 ADD DUP5 PUSH3 0xC27 JUMP JUMPDEST SWAP12 SWAP11 POP POP POP POP POP POP POP POP POP POP POP JUMP JUMPDEST PUSH1 0x0 PUSH1 0x60 DUP3 ADD SWAP1 POP PUSH3 0x179D PUSH1 0x0 DUP4 ADD DUP7 PUSH3 0x1224 JUMP JUMPDEST DUP2 DUP2 SUB PUSH1 0x20 DUP4 ADD MSTORE PUSH3 0x17B1 DUP2 DUP6 PUSH3 0x15B9 JUMP JUMPDEST SWAP1 POP PUSH3 0x17C2 PUSH1 0x40 DUP4 ADD DUP5 PUSH3 0xC27 JUMP JUMPDEST SWAP5 SWAP4 POP POP POP POP JUMP JUMPDEST PUSH32 0x4F776E61626C653A206E6577206F776E657220697320746865207A65726F2061 PUSH1 0x0 DUP3 ADD MSTORE PUSH32 0x6464726573730000000000000000000000000000000000000000000000000000 PUSH1 0x20 DUP3 ADD MSTORE POP JUMP JUMPDEST PUSH1 0x0 PUSH3 0x1828 PUSH1 0x26 DUP4 PUSH3 0x12E4 JUMP JUMPDEST SWAP2 POP PUSH3 0x1835 DUP3 PUSH3 0x17CA JUMP JUMPDEST PUSH1 0x40 DUP3 ADD SWAP1 POP SWAP2 SWAP1 POP JUMP JUMPDEST PUSH1 0x0 PUSH1 0x20 DUP3 ADD SWAP1 POP DUP2 DUP2 SUB PUSH1 0x0 DUP4 ADD MSTORE PUSH3 0x185B DUP2 PUSH3 0x1819 JUMP JUMPDEST SWAP1 POP SWAP2 SWAP1 POP JUMP JUMPDEST PUSH32 0x5365206465626520636F6D7072617220616C206D656E6F7320312046756E6454 PUSH1 0x0 DUP3 ADD MSTORE PUSH32 0x6F6B656E00000000000000000000000000000000000000000000000000000000 PUSH1 0x20 DUP3 ADD MSTORE POP JUMP JUMPDEST PUSH1 0x0 PUSH3 0x18C0 PUSH1 0x24 DUP4 PUSH3 0x12E4 JUMP JUMPDEST SWAP2 POP PUSH3 0x18CD DUP3 PUSH3 0x1862 JUMP JUMPDEST PUSH1 0x40 DUP3 ADD SWAP1 POP SWAP2 SWAP1 POP JUMP JUMPDEST PUSH1 0x0 PUSH1 0x20 DUP3 ADD SWAP1 POP DUP2 DUP2 SUB PUSH1 0x0 DUP4 ADD MSTORE PUSH3 0x18F3 DUP2 PUSH3 0x18B1 JUMP JUMPDEST SWAP1 POP SWAP2 SWAP1 POP JUMP JUMPDEST PUSH32 0x4E487B7100000000000000000000000000000000000000000000000000000000 PUSH1 0x0 MSTORE PUSH1 0x11 PUSH1 0x4 MSTORE PUSH1 0x24 PUSH1 0x0 REVERT JUMPDEST PUSH1 0x0 PUSH3 0x1936 DUP3 PUSH3 0xC1D JUMP JUMPDEST SWAP2 POP PUSH3 0x1943 DUP4 PUSH3 0xC1D JUMP JUMPDEST SWAP3 POP DUP2 PUSH32 0xFFFFFFFFFFFFFFFFFFFFFFFFFFFFFFFFFFFFFFFFFFFFFFFFFFFFFFFFFFFFFFFF DIV DUP4 GT DUP3 ISZERO ISZERO AND ISZERO PUSH3 0x197F JUMPI PUSH3 0x197E PUSH3 0x18FA JUMP JUMPDEST JUMPDEST DUP3 DUP3 MUL SWAP1 POP SWAP3 SWAP2 POP POP JUMP JUMPDEST PUSH32 0x5061676F20696E737566696369656E7465000000000000000000000000000000 PUSH1 0x0 DUP3 ADD MSTORE POP JUMP JUMPDEST PUSH1 0x0 PUSH3 0x19C2 PUSH1 0x11 DUP4 PUSH3 0x12E4 JUMP JUMPDEST SWAP2 POP PUSH3 0x19CF DUP3 PUSH3 0x198A JUMP JUMPDEST PUSH1 0x20 DUP3 ADD SWAP1 POP SWAP2 SWAP1 POP JUMP JUMPDEST PUSH1 0x0 PUSH1 0x20 DUP3 ADD SWAP1 POP DUP2 DUP2 SUB PUSH1 0x0 DUP4 ADD MSTORE PUSH3 0x19F5 DUP2 PUSH3 0x19B3 JUMP JUMPDEST SWAP1 POP SWAP2 SWAP1 POP JUMP JUMPDEST PUSH1 0x0 PUSH3 0x1A09 DUP3 PUSH3 0xC1D JUMP JUMPDEST SWAP2 POP PUSH3 0x1A16 DUP4 PUSH3 0xC1D JUMP JUMPDEST SWAP3 POP DUP3 DUP3 ADD SWAP1 POP DUP1 DUP3 GT ISZERO PUSH3 0x1A31 JUMPI PUSH3 0x1A30 PUSH3 0x18FA JUMP JUMPDEST JUMPDEST SWAP3 SWAP2 POP POP JUMP JUMPDEST PUSH1 0x0 PUSH1 0x40 DUP3 ADD SWAP1 POP PUSH3 0x1A4E PUSH1 0x0 DUP4 ADD DUP6 PUSH3 0xC27 JUMP JUMPDEST PUSH3 0x1A5D PUSH1 0x20 DUP4 ADD DUP5 PUSH3 0xC27 JUMP JUMPDEST SWAP4 SWAP3 POP POP POP JUMP JUMPDEST PUSH32 0x4F776E61626C653A2063616C6C6572206973206E6F7420746865206F776E6572 PUSH1 0x0 DUP3 ADD MSTORE POP JUMP JUMPDEST PUSH1 0x0 PUSH3 0x1A9C PUSH1 0x20 DUP4 PUSH3 0x12E4 JUMP JUMPDEST SWAP2 POP PUSH3 0x1AA9 DUP3 PUSH3 0x1A64 JUMP JUMPDEST PUSH1 0x20 DUP3 ADD SWAP1 POP SWAP2 SWAP1 POP JUMP JUMPDEST PUSH1 0x0 PUSH1 0x20 DUP3 ADD SWAP1 POP DUP2 DUP2 SUB PUSH1 0x0 DUP4 ADD MSTORE PUSH3 0x1ACF DUP2 PUSH3 0x1A8D JUMP JUMPDEST SWAP1 POP SWAP2 SWAP1 POP JUMP INVALID PUSH2 0x1A0 PUSH1 0x40 MSTORE TIMESTAMP PUSH1 0xA0 SWAP1 DUP2 MSTORE POP CALLVALUE DUP1 ISZERO PUSH3 0x19 JUMPI PUSH1 0x0 DUP1 REVERT JUMPDEST POP PUSH1 0x40 MLOAD PUSH3 0x4401 CODESIZE SUB DUP1 PUSH3 0x4401 DUP4 CODECOPY DUP2 DUP2 ADD PUSH1 0x40 MSTORE DUP2 ADD SWAP1 PUSH3 0x3F SWAP2 SWAP1 PUSH3 0x54A JUMP JUMPDEST PUSH1 0x1 PUSH1 0x0 DUP2 SWAP1 SSTORE POP DUP10 PUSH1 0x1 SWAP1 DUP2 PUSH3 0x58 SWAP2 SWAP1 PUSH3 0x8BF JUMP JUMPDEST POP DUP9 PUSH20 0xFFFFFFFFFFFFFFFFFFFFFFFFFFFFFFFFFFFFFFFF AND PUSH1 0x80 DUP2 PUSH20 0xFFFFFFFFFFFFFFFFFFFFFFFFFFFFFFFFFFFFFFFF AND DUP2 MSTORE POP POP PUSH1 0x0 JUMPDEST DUP9 MLOAD DUP2 LT ISZERO PUSH3 0x19D JUMPI PUSH1 0x2 DUP10 DUP3 DUP2 MLOAD DUP2 LT PUSH3 0xB2 JUMPI PUSH3 0xB1 PUSH3 0x9A6 JUMP JUMPDEST JUMPDEST PUSH1 0x20 MUL PUSH1 0x20 ADD ADD MLOAD SWAP1 DUP1 PUSH1 0x1 DUP2 SLOAD ADD DUP1 DUP3 SSTORE DUP1 SWAP2 POP POP PUSH1 0x1 SWAP1 SUB SWAP1 PUSH1 0x0 MSTORE PUSH1 0x20 PUSH1 0x0 KECCAK256 ADD PUSH1 0x0 SWAP1 SWAP2 SWAP1 SWAP2 SWAP1 SWAP2 PUSH2 0x100 EXP DUP2 SLOAD DUP2 PUSH20 0xFFFFFFFFFFFFFFFFFFFFFFFFFFFFFFFFFFFFFFFF MUL NOT AND SWAP1 DUP4 PUSH20 0xFFFFFFFFFFFFFFFFFFFFFFFFFFFFFFFFFFFFFFFF AND MUL OR SWAP1 SSTORE POP PUSH1 0x1 PUSH1 0x3 PUSH1 0x0 DUP12 DUP5 DUP2 MLOAD DUP2 LT PUSH3 0x136 JUMPI PUSH3 0x135 PUSH3 0x9A6 JUMP JUMPDEST JUMPDEST PUSH1 0x20 MUL PUSH1 0x20 ADD ADD MLOAD PUSH20 0xFFFFFFFFFFFFFFFFFFFFFFFFFFFFFFFFFFFFFFFF AND PUSH20 0xFFFFFFFFFFFFFFFFFFFFFFFFFFFFFFFFFFFFFFFF AND DUP2 MSTORE PUSH1 0x20 ADD SWAP1 DUP2 MSTORE PUSH1 0x20 ADD PUSH1 0x0 KECCAK256 PUSH1 0x0 PUSH2 0x100 EXP DUP2 SLOAD DUP2 PUSH1 0xFF MUL NOT AND SWAP1 DUP4 ISZERO ISZERO MUL OR SWAP1 SSTORE POP DUP1 DUP1 PUSH1 0x1 ADD SWAP2 POP POP PUSH3 0x90 JUMP JUMPDEST POP DUP7 ISZERO ISZERO PUSH1 0xC0 DUP2 ISZERO ISZERO DUP2 MSTORE POP POP DUP6 ISZERO ISZERO PUSH1 0xE0 DUP2 ISZERO ISZERO DUP2 MSTORE POP POP DUP5 ISZERO ISZERO PUSH2 0x100 DUP2 ISZERO ISZERO DUP2 MSTORE POP POP DUP4 ISZERO ISZERO PUSH2 0x120 DUP2 ISZERO ISZERO DUP2 MSTORE POP POP DUP3 ISZERO ISZERO PUSH2 0x140 DUP2 ISZERO ISZERO DUP2 MSTORE POP POP DUP2 PUSH2 0x160 DUP2 DUP2 MSTORE POP POP DUP1 PUSH2 0x180 DUP2 DUP2 MSTORE POP POP POP POP POP POP POP POP POP POP POP POP PUSH3 0x9D5 JUMP JUMPDEST PUSH1 0x0 PUSH1 0x40 MLOAD SWAP1 POP SWAP1 JUMP JUMPDEST PUSH1 0x0 DUP1 REVERT JUMPDEST PUSH1 0x0 DUP1 REVERT JUMPDEST PUSH1 0x0 DUP1 REVERT JUMPDEST PUSH1 0x0 DUP1 REVERT JUMPDEST PUSH1 0x0 PUSH1 0x1F NOT PUSH1 0x1F DUP4 ADD AND SWAP1 POP SWAP2 SWAP1 POP JUMP JUMPDEST PUSH32 0x4E487B7100000000000000000000000000000000000000000000000000000000 PUSH1 0x0 MSTORE PUSH1 0x41 PUSH1 0x4 MSTORE PUSH1 0x24 PUSH1 0x0 REVERT JUMPDEST PUSH3 0x268 DUP3 PUSH3 0x21D JUMP JUMPDEST DUP2 ADD DUP2 DUP2 LT PUSH8 0xFFFFFFFFFFFFFFFF DUP3 GT OR ISZERO PUSH3 0x28A JUMPI PUSH3 0x289 PUSH3 0x22E JUMP JUMPDEST JUMPDEST DUP1 PUSH1 0x40 MSTORE POP POP POP JUMP JUMPDEST PUSH1 0x0 PUSH3 0x29F PUSH3 0x1FF JUMP JUMPDEST SWAP1 POP PUSH3 0x2AD DUP3 DUP3 PUSH3 0x25D JUMP JUMPDEST SWAP2 SWAP1 POP JUMP JUMPDEST PUSH1 0x0 PUSH8 0xFFFFFFFFFFFFFFFF DUP3 GT ISZERO PUSH3 0x2D0 JUMPI PUSH3 0x2CF PUSH3 0x22E JUMP JUMPDEST JUMPDEST PUSH3 0x2DB DUP3 PUSH3 0x21D JUMP JUMPDEST SWAP1 POP PUSH1 0x20 DUP2 ADD SWAP1 POP SWAP2 SWAP1 POP JUMP JUMPDEST PUSH1 0x0 JUMPDEST DUP4 DUP2 LT ISZERO PUSH3 0x308 JUMPI DUP1 DUP3 ADD MLOAD DUP2 DUP5 ADD MSTORE PUSH1 0x20 DUP2 ADD SWAP1 POP PUSH3 0x2EB JUMP JUMPDEST PUSH1 0x0 DUP5 DUP5 ADD MSTORE POP POP POP POP JUMP JUMPDEST PUSH1 0x0 PUSH3 0x32B PUSH3 0x325 DUP5 PUSH3 0x2B2 JUMP JUMPDEST PUSH3 0x293 JUMP JUMPDEST SWAP1 POP DUP3 DUP2 MSTORE PUSH1 0x20 DUP2 ADD DUP5 DUP5 DUP5 ADD GT ISZERO PUSH3 0x34A JUMPI PUSH3 0x349 PUSH3 0x218 JUMP JUMPDEST JUMPDEST PUSH3 0x357 DUP5 DUP3 DUP6 PUSH3 0x2E8 JUMP JUMPDEST POP SWAP4 SWAP3 POP POP POP JUMP JUMPDEST PUSH1 0x0 DUP3 PUSH1 0x1F DUP4 ADD SLT PUSH3 0x377 JUMPI PUSH3 0x376 PUSH3 0x213 JUMP JUMPDEST JUMPDEST DUP2 MLOAD PUSH3 0x389 DUP5 DUP3 PUSH1 0x20 DUP7 ADD PUSH3 0x314 JUMP JUMPDEST SWAP2 POP POP SWAP3 SWAP2 POP POP JUMP JUMPDEST PUSH1 0x0 PUSH20 0xFFFFFFFFFFFFFFFFFFFFFFFFFFFFFFFFFFFFFFFF DUP3 AND SWAP1 POP SWAP2 SWAP1 POP JUMP JUMPDEST PUSH1 0x0 PUSH3 0x3BF DUP3 PUSH3 0x392 JUMP JUMPDEST SWAP1 POP SWAP2 SWAP1 POP JUMP JUMPDEST PUSH3 0x3D1 DUP2 PUSH3 0x3B2 JUMP JUMPDEST DUP2 EQ PUSH3 0x3DD JUMPI PUSH1 0x0 DUP1 REVERT JUMPDEST POP JUMP JUMPDEST PUSH1 0x0 DUP2 MLOAD SWAP1 POP PUSH3 0x3F1 DUP2 PUSH3 0x3C6 JUMP JUMPDEST SWAP3 SWAP2 POP POP JUMP JUMPDEST PUSH1 0x0 PUSH8 0xFFFFFFFFFFFFFFFF DUP3 GT ISZERO PUSH3 0x415 JUMPI PUSH3 0x414 PUSH3 0x22E JUMP JUMPDEST JUMPDEST PUSH1 0x20 DUP3 MUL SWAP1 POP PUSH1 0x20 DUP2 ADD SWAP1 POP SWAP2 SWAP1 POP JUMP JUMPDEST PUSH1 0x0 DUP1 REVERT JUMPDEST PUSH1 0x0 PUSH3 0x442 PUSH3 0x43C DUP5 PUSH3 0x3F7 JUMP JUMPDEST PUSH3 0x293 JUMP JUMPDEST SWAP1 POP DUP1 DUP4 DUP3 MSTORE PUSH1 0x20 DUP3 ADD SWAP1 POP PUSH1 0x20 DUP5 MUL DUP4 ADD DUP6 DUP2 GT ISZERO PUSH3 0x468 JUMPI PUSH3 0x467 PUSH3 0x426 JUMP JUMPDEST JUMPDEST DUP4 JUMPDEST DUP2 DUP2 LT ISZERO PUSH3 0x495 JUMPI DUP1 PUSH3 0x480 DUP9 DUP3 PUSH3 0x3E0 JUMP JUMPDEST DUP5 MSTORE PUSH1 0x20 DUP5 ADD SWAP4 POP POP PUSH1 0x20 DUP2 ADD SWAP1 POP PUSH3 0x46A JUMP JUMPDEST POP POP POP SWAP4 SWAP3 POP POP POP JUMP JUMPDEST PUSH1 0x0 DUP3 PUSH1 0x1F DUP4 ADD SLT PUSH3 0x4B7 JUMPI PUSH3 0x4B6 PUSH3 0x213 JUMP JUMPDEST JUMPDEST DUP2 MLOAD PUSH3 0x4C9 DUP5 DUP3 PUSH1 0x20 DUP7 ADD PUSH3 0x42B JUMP JUMPDEST SWAP2 POP POP SWAP3 SWAP2 POP POP JUMP JUMPDEST PUSH1 0x0 DUP2 ISZERO ISZERO SWAP1 POP SWAP2 SWAP1 POP JUMP JUMPDEST PUSH3 0x4E9 DUP2 PUSH3 0x4D2 JUMP JUMPDEST DUP2 EQ PUSH3 0x4F5 JUMPI PUSH1 0x0 DUP1 REVERT JUMPDEST POP JUMP JUMPDEST PUSH1 0x0 DUP2 MLOAD SWAP1 POP PUSH3 0x509 DUP2 PUSH3 0x4DE JUMP JUMPDEST SWAP3 SWAP2 POP POP JUMP JUMPDEST PUSH1 0x0 DUP2 SWAP1 POP SWAP2 SWAP1 POP JUMP JUMPDEST PUSH3 0x524 DUP2 PUSH3 0x50F JUMP JUMPDEST DUP2 EQ PUSH3 0x530 JUMPI PUSH1 0x0 DUP1 REVERT JUMPDEST POP JUMP JUMPDEST PUSH1 0x0 DUP2 MLOAD SWAP1 POP PUSH3 0x544 DUP2 PUSH3 0x519 JUMP JUMPDEST SWAP3 SWAP2 POP POP JUMP JUMPDEST PUSH1 0x0 DUP1 PUSH1 0x0 DUP1 PUSH1 0x0 DUP1 PUSH1 0x0 DUP1 PUSH1 0x0 DUP1 PUSH2 0x140 DUP12 DUP14 SUB SLT ISZERO PUSH3 0x571 JUMPI PUSH3 0x570 PUSH3 0x209 JUMP JUMPDEST JUMPDEST PUSH1 0x0 DUP12 ADD MLOAD PUSH8 0xFFFFFFFFFFFFFFFF DUP2 GT ISZERO PUSH3 0x592 JUMPI PUSH3 0x591 PUSH3 0x20E JUMP JUMPDEST JUMPDEST PUSH3 0x5A0 DUP14 DUP3 DUP15 ADD PUSH3 0x35F JUMP JUMPDEST SWAP11 POP POP PUSH1 0x20 PUSH3 0x5B3 DUP14 DUP3 DUP15 ADD PUSH3 0x3E0 JUMP JUMPDEST SWAP10 POP POP PUSH1 0x40 DUP12 ADD MLOAD PUSH8 0xFFFFFFFFFFFFFFFF DUP2 GT ISZERO PUSH3 0x5D7 JUMPI PUSH3 0x5D6 PUSH3 0x20E JUMP JUMPDEST JUMPDEST PUSH3 0x5E5 DUP14 DUP3 DUP15 ADD PUSH3 0x49F JUMP JUMPDEST SWAP9 POP POP PUSH1 0x60 PUSH3 0x5F8 DUP14 DUP3 DUP15 ADD PUSH3 0x4F8 JUMP JUMPDEST SWAP8 POP POP PUSH1 0x80 PUSH3 0x60B DUP14 DUP3 DUP15 ADD PUSH3 0x4F8 JUMP JUMPDEST SWAP7 POP POP PUSH1 0xA0 PUSH3 0x61E DUP14 DUP3 DUP15 ADD PUSH3 0x4F8 JUMP JUMPDEST SWAP6 POP POP PUSH1 0xC0 PUSH3 0x631 DUP14 DUP3 DUP15 ADD PUSH3 0x4F8 JUMP JUMPDEST SWAP5 POP POP PUSH1 0xE0 PUSH3 0x644 DUP14 DUP3 DUP15 ADD PUSH3 0x4F8 JUMP JUMPDEST SWAP4 POP POP PUSH2 0x100 PUSH3 0x658 DUP14 DUP3 DUP15 ADD PUSH3 0x533 JUMP JUMPDEST SWAP3 POP POP PUSH2 0x120 PUSH3 0x66C DUP14 DUP3 DUP15 ADD PUSH3 0x533 JUMP JUMPDEST SWAP2 POP POP SWAP3 SWAP6 SWAP9 SWAP12 SWAP2 SWAP5 SWAP8 SWAP11 POP SWAP3 SWAP6 SWAP9 POP JUMP JUMPDEST PUSH1 0x0 DUP2 MLOAD SWAP1 POP SWAP2 SWAP1 POP JUMP JUMPDEST PUSH32 0x4E487B7100000000000000000000000000000000000000000000000000000000 PUSH1 0x0 MSTORE PUSH1 0x22 PUSH1 0x4 MSTORE PUSH1 0x24 PUSH1 0x0 REVERT JUMPDEST PUSH1 0x0 PUSH1 0x2 DUP3 DIV SWAP1 POP PUSH1 0x1 DUP3 AND DUP1 PUSH3 0x6D1 JUMPI PUSH1 0x7F DUP3 AND SWAP2 POP JUMPDEST PUSH1 0x20 DUP3 LT DUP2 SUB PUSH3 0x6E7 JUMPI PUSH3 0x6E6 PUSH3 0x689 JUMP JUMPDEST JUMPDEST POP SWAP2 SWAP1 POP JUMP JUMPDEST PUSH1 0x0 DUP2 SWAP1 POP DUP2 PUSH1 0x0 MSTORE PUSH1 0x20 PUSH1 0x0 KECCAK256 SWAP1 POP SWAP2 SWAP1 POP JUMP JUMPDEST PUSH1 0x0 PUSH1 0x20 PUSH1 0x1F DUP4 ADD DIV SWAP1 POP SWAP2 SWAP1 POP JUMP JUMPDEST PUSH1 0x0 DUP3 DUP3 SHL SWAP1 POP SWAP3 SWAP2 POP POP JUMP JUMPDEST PUSH1 0x0 PUSH1 0x8 DUP4 MUL PUSH3 0x751 PUSH32 0xFFFFFFFFFFFFFFFFFFFFFFFFFFFFFFFFFFFFFFFFFFFFFFFFFFFFFFFFFFFFFFFF DUP3 PUSH3 0x712 JUMP JUMPDEST PUSH3 0x75D DUP7 DUP4 PUSH3 0x712 JUMP JUMPDEST SWAP6 POP DUP1 NOT DUP5 AND SWAP4 POP DUP1 DUP7 AND DUP5 OR SWAP3 POP POP POP SWAP4 SWAP3 POP POP POP JUMP JUMPDEST PUSH1 0x0 DUP2 SWAP1 POP SWAP2 SWAP1 POP JUMP JUMPDEST PUSH1 0x0 PUSH3 0x7A0 PUSH3 0x79A PUSH3 0x794 DUP5 PUSH3 0x50F JUMP JUMPDEST PUSH3 0x775 JUMP JUMPDEST PUSH3 0x50F JUMP JUMPDEST SWAP1 POP SWAP2 SWAP1 POP JUMP JUMPDEST PUSH1 0x0 DUP2 SWAP1 POP SWAP2 SWAP1 POP JUMP JUMPDEST PUSH3 0x7BC DUP4 PUSH3 0x77F JUMP JUMPDEST PUSH3 0x7D4 PUSH3 0x7CB DUP3 PUSH3 0x7A7 JUMP JUMPDEST DUP5 DUP5 SLOAD PUSH3 0x71F JUMP JUMPDEST DUP3 SSTORE POP POP POP POP JUMP JUMPDEST PUSH1 0x0 SWAP1 JUMP JUMPDEST PUSH3 0x7EB PUSH3 0x7DC JUMP JUMPDEST PUSH3 0x7F8 DUP2 DUP5 DUP5 PUSH3 0x7B1 JUMP JUMPDEST POP POP POP JUMP JUMPDEST JUMPDEST DUP2 DUP2 LT ISZERO PUSH3 0x820 JUMPI PUSH3 0x814 PUSH1 0x0 DUP3 PUSH3 0x7E1 JUMP JUMPDEST PUSH1 0x1 DUP2 ADD SWAP1 POP PUSH3 0x7FE JUMP JUMPDEST POP POP JUMP JUMPDEST PUSH1 0x1F DUP3 GT ISZERO PUSH3 0x86F JUMPI PUSH3 0x839 DUP2 PUSH3 0x6ED JUMP JUMPDEST PUSH3 0x844 DUP5 PUSH3 0x702 JUMP JUMPDEST DUP2 ADD PUSH1 0x20 DUP6 LT ISZERO PUSH3 0x854 JUMPI DUP2 SWAP1 POP JUMPDEST PUSH3 0x86C PUSH3 0x863 DUP6 PUSH3 0x702 JUMP JUMPDEST DUP4 ADD DUP3 PUSH3 0x7FD JUMP JUMPDEST POP POP JUMPDEST POP POP POP JUMP JUMPDEST PUSH1 0x0 DUP3 DUP3 SHR SWAP1 POP SWAP3 SWAP2 POP POP JUMP JUMPDEST PUSH1 0x0 PUSH3 0x894 PUSH1 0x0 NOT DUP5 PUSH1 0x8 MUL PUSH3 0x874 JUMP JUMPDEST NOT DUP1 DUP4 AND SWAP2 POP POP SWAP3 SWAP2 POP POP JUMP JUMPDEST PUSH1 0x0 PUSH3 0x8AF DUP4 DUP4 PUSH3 0x881 JUMP JUMPDEST SWAP2 POP DUP3 PUSH1 0x2 MUL DUP3 OR SWAP1 POP SWAP3 SWAP2 POP POP JUMP JUMPDEST PUSH3 0x8CA DUP3 PUSH3 0x67E JUMP JUMPDEST PUSH8 0xFFFFFFFFFFFFFFFF DUP2 GT ISZERO PUSH3 0x8E6 JUMPI PUSH3 0x8E5 PUSH3 0x22E JUMP JUMPDEST JUMPDEST PUSH3 0x8F2 DUP3 SLOAD PUSH3 0x6B8 JUMP JUMPDEST PUSH3 0x8FF DUP3 DUP3 DUP6 PUSH3 0x824 JUMP JUMPDEST PUSH1 0x0 PUSH1 0x20 SWAP1 POP PUSH1 0x1F DUP4 GT PUSH1 0x1 DUP2 EQ PUSH3 0x937 JUMPI PUSH1 0x0 DUP5 ISZERO PUSH3 0x922 JUMPI DUP3 DUP8 ADD MLOAD SWAP1 POP JUMPDEST PUSH3 0x92E DUP6 DUP3 PUSH3 0x8A1 JUMP JUMPDEST DUP7 SSTORE POP PUSH3 0x99E JUMP JUMPDEST PUSH1 0x1F NOT DUP5 AND PUSH3 0x947 DUP7 PUSH3 0x6ED JUMP JUMPDEST PUSH1 0x0 JUMPDEST DUP3 DUP2 LT ISZERO PUSH3 0x971 JUMPI DUP5 DUP10 ADD MLOAD DUP3 SSTORE PUSH1 0x1 DUP3 ADD SWAP2 POP PUSH1 0x20 DUP6 ADD SWAP5 POP PUSH1 0x20 DUP2 ADD SWAP1 POP PUSH3 0x94A JUMP JUMPDEST DUP7 DUP4 LT ISZERO PUSH3 0x991 JUMPI DUP5 DUP10 ADD MLOAD PUSH3 0x98D PUSH1 0x1F DUP10 AND DUP3 PUSH3 0x881 JUMP JUMPDEST DUP4 SSTORE POP JUMPDEST PUSH1 0x1 PUSH1 0x2 DUP9 MUL ADD DUP9 SSTORE POP POP POP JUMPDEST POP POP POP POP POP POP JUMP JUMPDEST PUSH32 0x4E487B7100000000000000000000000000000000000000000000000000000000 PUSH1 0x0 MSTORE PUSH1 0x32 PUSH1 0x4 MSTORE PUSH1 0x24 PUSH1 0x0 REVERT JUMPDEST PUSH1 0x80 MLOAD PUSH1 0xA0 MLOAD PUSH1 0xC0 MLOAD PUSH1 0xE0 MLOAD PUSH2 0x100 MLOAD PUSH2 0x120 MLOAD PUSH2 0x140 MLOAD PUSH2 0x160 MLOAD PUSH2 0x180 MLOAD PUSH2 0x3928 PUSH3 0xAD9 PUSH1 0x0 CODECOPY PUSH1 0x0 DUP2 DUP2 PUSH2 0xA3C ADD MSTORE DUP2 DUP2 PUSH2 0x1F2F ADD MSTORE PUSH2 0x214D ADD MSTORE PUSH1 0x0 DUP2 DUP2 PUSH2 0x1372 ADD MSTORE DUP2 DUP2 PUSH2 0x19BC ADD MSTORE PUSH2 0x212A ADD MSTORE PUSH1 0x0 DUP2 DUP2 PUSH2 0x940 ADD MSTORE DUP2 DUP2 PUSH2 0x19E6 ADD MSTORE DUP2 DUP2 PUSH2 0x2107 ADD MSTORE PUSH2 0x217C ADD MSTORE PUSH1 0x0 DUP2 DUP2 PUSH2 0xD07 ADD MSTORE DUP2 DUP2 PUSH2 0xD2F ADD MSTORE DUP2 DUP2 PUSH2 0x1502 ADD MSTORE DUP2 DUP2 PUSH2 0x1CEE ADD MSTORE PUSH2 0x20E4 ADD MSTORE PUSH1 0x0 DUP2 DUP2 PUSH2 0xC56 ADD MSTORE DUP2 DUP2 PUSH2 0x17CA ADD MSTORE DUP2 DUP2 PUSH2 0x1CC6 ADD MSTORE PUSH2 0x20C1 ADD MSTORE PUSH1 0x0 DUP2 DUP2 PUSH2 0x13A3 ADD MSTORE DUP2 DUP2 PUSH2 0x162E ADD MSTORE PUSH2 0x209E ADD MSTORE PUSH1 0x0 DUP2 DUP2 PUSH2 0xED5 ADD MSTORE DUP2 DUP2 PUSH2 0x1BC4 ADD MSTORE DUP2 DUP2 PUSH2 0x1FED ADD MSTORE PUSH2 0x21C0 ADD MSTORE PUSH1 0x0 DUP2 DUP2 PUSH2 0x1323 ADD MSTORE PUSH2 0x1884 ADD MSTORE PUSH1 0x0 DUP2 DUP2 PUSH2 0x7C3 ADD MSTORE PUSH2 0x1300 ADD MSTORE PUSH2 0x3928 PUSH1 0x0 RETURN INVALID PUSH1 0x80 PUSH1 0x40 MSTORE PUSH1 0x4 CALLDATASIZE LT PUSH2 0x1EE JUMPI PUSH1 0x0 CALLDATALOAD PUSH1 0xE0 SHR DUP1 PUSH4 0x8A20BC37 GT PUSH2 0x10D JUMPI DUP1 PUSH4 0xD7BB99BA GT PUSH2 0xA0 JUMPI DUP1 PUSH4 0xE557E5DC GT PUSH2 0x6F JUMPI DUP1 PUSH4 0xE557E5DC EQ PUSH2 0x6CF JUMPI DUP1 PUSH4 0xECBFF6E7 EQ PUSH2 0x703 JUMPI DUP1 PUSH4 0xF3AE2415 EQ PUSH2 0x72E JUMPI DUP1 PUSH4 0xFA68B631 EQ PUSH2 0x76B JUMPI DUP1 PUSH4 0xFBFA4B7F EQ PUSH2 0x796 JUMPI PUSH2 0x1EE JUMP JUMPDEST DUP1 PUSH4 0xD7BB99BA EQ PUSH2 0x648 JUMPI DUP1 PUSH4 0xD7D1BBDB EQ PUSH2 0x652 JUMPI DUP1 PUSH4 0xD8247EE7 EQ PUSH2 0x67B JUMPI DUP1 PUSH4 0xDB2D78B1 EQ PUSH2 0x6A4 JUMPI PUSH2 0x1EE JUMP JUMPDEST DUP1 PUSH4 0xAA9CFC50 GT PUSH2 0xDC JUMPI DUP1 PUSH4 0xAA9CFC50 EQ PUSH2 0x59C JUMPI DUP1 PUSH4 0xAF157C19 EQ PUSH2 0x5C7 JUMPI DUP1 PUSH4 0xB69EF8A8 EQ PUSH2 0x5F2 JUMPI DUP1 PUSH4 0xCF09E0D0 EQ PUSH2 0x61D JUMPI PUSH2 0x1EE JUMP JUMPDEST DUP1 PUSH4 0x8A20BC37 EQ PUSH2 0x4E0 JUMPI DUP1 PUSH4 0x9073FA7E EQ PUSH2 0x50B JUMPI DUP1 PUSH4 0xA8D088BB EQ PUSH2 0x548 JUMPI DUP1 PUSH4 0xA9059CBB EQ PUSH2 0x573 JUMPI PUSH2 0x1EE JUMP JUMPDEST DUP1 PUSH4 0x3D39C260 GT PUSH2 0x185 JUMPI DUP1 PUSH4 0x691C7545 GT PUSH2 0x154 JUMPI DUP1 PUSH4 0x691C7545 EQ PUSH2 0x41C JUMPI DUP1 PUSH4 0x7569B3D7 EQ PUSH2 0x447 JUMPI DUP1 PUSH4 0x8175F2C7 EQ PUSH2 0x472 JUMPI DUP1 PUSH4 0x81D12C58 EQ PUSH2 0x49D JUMPI PUSH2 0x1EE JUMP JUMPDEST DUP1 PUSH4 0x3D39C260 EQ PUSH2 0x348 JUMPI DUP1 PUSH4 0x4051DDAC EQ PUSH2 0x385 JUMPI DUP1 PUSH4 0x42E94C90 EQ PUSH2 0x3B4 JUMPI DUP1 PUSH4 0x6308AE65 EQ PUSH2 0x3F1 JUMPI PUSH2 0x1EE JUMP JUMPDEST DUP1 PUSH4 0x1B16BB5C GT PUSH2 0x1C1 JUMPI DUP1 PUSH4 0x1B16BB5C EQ PUSH2 0x28E JUMPI DUP1 PUSH4 0x2DDE0013 EQ PUSH2 0x2B7 JUMPI DUP1 PUSH4 0x37C08923 EQ PUSH2 0x2E0 JUMPI DUP1 PUSH4 0x3CB5D100 EQ PUSH2 0x30B JUMPI PUSH2 0x1EE JUMP JUMPDEST DUP1 PUSH4 0x2D05D3F EQ PUSH2 0x1F3 JUMPI DUP1 PUSH4 0x3441006 EQ PUSH2 0x21E JUMPI DUP1 PUSH4 0x6FDDE03 EQ PUSH2 0x247 JUMPI DUP1 PUSH4 0x10718655 EQ PUSH2 0x272 JUMPI JUMPDEST PUSH1 0x0 DUP1 REVERT JUMPDEST CALLVALUE DUP1 ISZERO PUSH2 0x1FF JUMPI PUSH1 0x0 DUP1 REVERT JUMPDEST POP PUSH2 0x208 PUSH2 0x7C1 JUMP JUMPDEST PUSH1 0x40 MLOAD PUSH2 0x215 SWAP2 SWAP1 PUSH2 0x2402 JUMP JUMPDEST PUSH1 0x40 MLOAD DUP1 SWAP2 SUB SWAP1 RETURN JUMPDEST CALLVALUE DUP1 ISZERO PUSH2 0x22A JUMPI PUSH1 0x0 DUP1 REVERT JUMPDEST POP PUSH2 0x245 PUSH1 0x4 DUP1 CALLDATASIZE SUB DUP2 ADD SWAP1 PUSH2 0x240 SWAP2 SWAP1 PUSH2 0x2467 JUMP JUMPDEST PUSH2 0x7E5 JUMP JUMPDEST STOP JUMPDEST CALLVALUE DUP1 ISZERO PUSH2 0x253 JUMPI PUSH1 0x0 DUP1 REVERT JUMPDEST POP PUSH2 0x25C PUSH2 0xBBA JUMP JUMPDEST PUSH1 0x40 MLOAD PUSH2 0x269 SWAP2 SWAP1 PUSH2 0x2524 JUMP JUMPDEST PUSH1 0x40 MLOAD DUP1 SWAP2 SUB SWAP1 RETURN JUMPDEST PUSH2 0x28C PUSH1 0x4 DUP1 CALLDATASIZE SUB DUP2 ADD SWAP1 PUSH2 0x287 SWAP2 SWAP1 PUSH2 0x2572 JUMP JUMPDEST PUSH2 0xC48 JUMP JUMPDEST STOP JUMPDEST CALLVALUE DUP1 ISZERO PUSH2 0x29A JUMPI PUSH1 0x0 DUP1 REVERT JUMPDEST POP PUSH2 0x2B5 PUSH1 0x4 DUP1 CALLDATASIZE SUB DUP2 ADD SWAP1 PUSH2 0x2B0 SWAP2 SWAP1 PUSH2 0x26D4 JUMP JUMPDEST PUSH2 0xC54 JUMP JUMPDEST STOP JUMPDEST CALLVALUE DUP1 ISZERO PUSH2 0x2C3 JUMPI PUSH1 0x0 DUP1 REVERT JUMPDEST POP PUSH2 0x2DE PUSH1 0x4 DUP1 CALLDATASIZE SUB DUP2 ADD SWAP1 PUSH2 0x2D9 SWAP2 SWAP1 PUSH2 0x280B JUMP JUMPDEST PUSH2 0xED3 JUMP JUMPDEST STOP JUMPDEST CALLVALUE DUP1 ISZERO PUSH2 0x2EC JUMPI PUSH1 0x0 DUP1 REVERT JUMPDEST POP PUSH2 0x2F5 PUSH2 0x11D8 JUMP JUMPDEST PUSH1 0x40 MLOAD PUSH2 0x302 SWAP2 SWAP1 PUSH2 0x2863 JUMP JUMPDEST PUSH1 0x40 MLOAD DUP1 SWAP2 SUB SWAP1 RETURN JUMPDEST CALLVALUE DUP1 ISZERO PUSH2 0x317 JUMPI PUSH1 0x0 DUP1 REVERT JUMPDEST POP PUSH2 0x332 PUSH1 0x4 DUP1 CALLDATASIZE SUB DUP2 ADD SWAP1 PUSH2 0x32D SWAP2 SWAP1 PUSH2 0x2467 JUMP JUMPDEST PUSH2 0x11DE JUMP JUMPDEST PUSH1 0x40 MLOAD PUSH2 0x33F SWAP2 SWAP1 PUSH2 0x2402 JUMP JUMPDEST PUSH1 0x40 MLOAD DUP1 SWAP2 SUB SWAP1 RETURN JUMPDEST CALLVALUE DUP1 ISZERO PUSH2 0x354 JUMPI PUSH1 0x0 DUP1 REVERT JUMPDEST POP PUSH2 0x36F PUSH1 0x4 DUP1 CALLDATASIZE SUB DUP2 ADD SWAP1 PUSH2 0x36A SWAP2 SWAP1 PUSH2 0x2467 JUMP JUMPDEST PUSH2 0x121D JUMP JUMPDEST PUSH1 0x40 MLOAD PUSH2 0x37C SWAP2 SWAP1 PUSH2 0x2402 JUMP JUMPDEST PUSH1 0x40 MLOAD DUP1 SWAP2 SUB SWAP1 RETURN JUMPDEST CALLVALUE DUP1 ISZERO PUSH2 0x391 JUMPI PUSH1 0x0 DUP1 REVERT JUMPDEST POP PUSH2 0x39A PUSH2 0x125C JUMP JUMPDEST PUSH1 0x40 MLOAD PUSH2 0x3AB SWAP6 SWAP5 SWAP4 SWAP3 SWAP2 SWAP1 PUSH2 0x287E JUMP JUMPDEST PUSH1 0x40 MLOAD DUP1 SWAP2 SUB SWAP1 RETURN JUMPDEST CALLVALUE DUP1 ISZERO PUSH2 0x3C0 JUMPI PUSH1 0x0 DUP1 REVERT JUMPDEST POP PUSH2 0x3DB PUSH1 0x4 DUP1 CALLDATASIZE SUB DUP2 ADD SWAP1 PUSH2 0x3D6 SWAP2 SWAP1 PUSH2 0x2572 JUMP JUMPDEST PUSH2 0x134B JUMP JUMPDEST PUSH1 0x40 MLOAD PUSH2 0x3E8 SWAP2 SWAP1 PUSH2 0x2863 JUMP JUMPDEST PUSH1 0x40 MLOAD DUP1 SWAP2 SUB SWAP1 RETURN JUMPDEST CALLVALUE DUP1 ISZERO PUSH2 0x3FD JUMPI PUSH1 0x0 DUP1 REVERT JUMPDEST POP PUSH2 0x406 PUSH2 0x1363 JUMP JUMPDEST PUSH1 0x40 MLOAD PUSH2 0x413 SWAP2 SWAP1 PUSH2 0x2863 JUMP JUMPDEST PUSH1 0x40 MLOAD DUP1 SWAP2 SUB SWAP1 RETURN JUMPDEST CALLVALUE DUP1 ISZERO PUSH2 0x428 JUMPI PUSH1 0x0 DUP1 REVERT JUMPDEST POP PUSH2 0x431 PUSH2 0x1370 JUMP JUMPDEST PUSH1 0x40 MLOAD PUSH2 0x43E SWAP2 SWAP1 PUSH2 0x2863 JUMP JUMPDEST PUSH1 0x40 MLOAD DUP1 SWAP2 SUB SWAP1 RETURN JUMPDEST CALLVALUE DUP1 ISZERO PUSH2 0x453 JUMPI PUSH1 0x0 DUP1 REVERT JUMPDEST POP PUSH2 0x45C PUSH2 0x1394 JUMP JUMPDEST PUSH1 0x40 MLOAD PUSH2 0x469 SWAP2 SWAP1 PUSH2 0x2863 JUMP JUMPDEST PUSH1 0x40 MLOAD DUP1 SWAP2 SUB SWAP1 RETURN JUMPDEST CALLVALUE DUP1 ISZERO PUSH2 0x47E JUMPI PUSH1 0x0 DUP1 REVERT JUMPDEST POP PUSH2 0x487 PUSH2 0x13A1 JUMP JUMPDEST PUSH1 0x40 MLOAD PUSH2 0x494 SWAP2 SWAP1 PUSH2 0x28F3 JUMP JUMPDEST PUSH1 0x40 MLOAD DUP1 SWAP2 SUB SWAP1 RETURN JUMPDEST CALLVALUE DUP1 ISZERO PUSH2 0x4A9 JUMPI PUSH1 0x0 DUP1 REVERT JUMPDEST POP PUSH2 0x4C4 PUSH1 0x4 DUP1 CALLDATASIZE SUB DUP2 ADD SWAP1 PUSH2 0x4BF SWAP2 SWAP1 PUSH2 0x2467 JUMP JUMPDEST PUSH2 0x13C5 JUMP JUMPDEST PUSH1 0x40 MLOAD PUSH2 0x4D7 SWAP8 SWAP7 SWAP6 SWAP5 SWAP4 SWAP3 SWAP2 SWAP1 PUSH2 0x2939 JUMP JUMPDEST PUSH1 0x40 MLOAD DUP1 SWAP2 SUB SWAP1 RETURN JUMPDEST CALLVALUE DUP1 ISZERO PUSH2 0x4EC JUMPI PUSH1 0x0 DUP1 REVERT JUMPDEST POP PUSH2 0x4F5 PUSH2 0x1500 JUMP JUMPDEST PUSH1 0x40 MLOAD PUSH2 0x502 SWAP2 SWAP1 PUSH2 0x28F3 JUMP JUMPDEST PUSH1 0x40 MLOAD DUP1 SWAP2 SUB SWAP1 RETURN JUMPDEST CALLVALUE DUP1 ISZERO PUSH2 0x517 JUMPI PUSH1 0x0 DUP1 REVERT JUMPDEST POP PUSH2 0x532 PUSH1 0x4 DUP1 CALLDATASIZE SUB DUP2 ADD SWAP1 PUSH2 0x52D SWAP2 SWAP1 PUSH2 0x29AF JUMP JUMPDEST PUSH2 0x1524 JUMP JUMPDEST PUSH1 0x40 MLOAD PUSH2 0x53F SWAP2 SWAP1 PUSH2 0x28F3 JUMP JUMPDEST PUSH1 0x40 MLOAD DUP1 SWAP2 SUB SWAP1 RETURN JUMPDEST CALLVALUE DUP1 ISZERO PUSH2 0x554 JUMPI PUSH1 0x0 DUP1 REVERT JUMPDEST POP PUSH2 0x55D PUSH2 0x159E JUMP JUMPDEST PUSH1 0x40 MLOAD PUSH2 0x56A SWAP2 SWAP1 PUSH2 0x2AAD JUMP JUMPDEST PUSH1 0x40 MLOAD DUP1 SWAP2 SUB SWAP1 RETURN JUMPDEST CALLVALUE DUP1 ISZERO PUSH2 0x57F JUMPI PUSH1 0x0 DUP1 REVERT JUMPDEST POP PUSH2 0x59A PUSH1 0x4 DUP1 CALLDATASIZE SUB DUP2 ADD SWAP1 PUSH2 0x595 SWAP2 SWAP1 PUSH2 0x2ACF JUMP JUMPDEST PUSH2 0x162C JUMP JUMPDEST STOP JUMPDEST CALLVALUE DUP1 ISZERO PUSH2 0x5A8 JUMPI PUSH1 0x0 DUP1 REVERT JUMPDEST POP PUSH2 0x5B1 PUSH2 0x17C8 JUMP JUMPDEST PUSH1 0x40 MLOAD PUSH2 0x5BE SWAP2 SWAP1 PUSH2 0x28F3 JUMP JUMPDEST PUSH1 0x40 MLOAD DUP1 SWAP2 SUB SWAP1 RETURN JUMPDEST CALLVALUE DUP1 ISZERO PUSH2 0x5D3 JUMPI PUSH1 0x0 DUP1 REVERT JUMPDEST POP PUSH2 0x5DC PUSH2 0x17EC JUMP JUMPDEST PUSH1 0x40 MLOAD PUSH2 0x5E9 SWAP2 SWAP1 PUSH2 0x2AAD JUMP JUMPDEST PUSH1 0x40 MLOAD DUP1 SWAP2 SUB SWAP1 RETURN JUMPDEST CALLVALUE DUP1 ISZERO PUSH2 0x5FE JUMPI PUSH1 0x0 DUP1 REVERT JUMPDEST POP PUSH2 0x607 PUSH2 0x187A JUMP JUMPDEST PUSH1 0x40 MLOAD PUSH2 0x614 SWAP2 SWAP1 PUSH2 0x2863 JUMP JUMPDEST PUSH1 0x40 MLOAD DUP1 SWAP2 SUB SWAP1 RETURN JUMPDEST CALLVALUE DUP1 ISZERO PUSH2 0x629 JUMPI PUSH1 0x0 DUP1 REVERT JUMPDEST POP PUSH2 0x632 PUSH2 0x1882 JUMP JUMPDEST PUSH1 0x40 MLOAD PUSH2 0x63F SWAP2 SWAP1 PUSH2 0x2863 JUMP JUMPDEST PUSH1 0x40 MLOAD DUP1 SWAP2 SUB SWAP1 RETURN JUMPDEST PUSH2 0x650 PUSH2 0x18A6 JUMP JUMPDEST STOP JUMPDEST CALLVALUE DUP1 ISZERO PUSH2 0x65E JUMPI PUSH1 0x0 DUP1 REVERT JUMPDEST POP PUSH2 0x679 PUSH1 0x4 DUP1 CALLDATASIZE SUB DUP2 ADD SWAP1 PUSH2 0x674 SWAP2 SWAP1 PUSH2 0x2467 JUMP JUMPDEST PUSH2 0x18B1 JUMP JUMPDEST STOP JUMPDEST CALLVALUE DUP1 ISZERO PUSH2 0x687 JUMPI PUSH1 0x0 DUP1 REVERT JUMPDEST POP PUSH2 0x6A2 PUSH1 0x4 DUP1 CALLDATASIZE SUB DUP2 ADD SWAP1 PUSH2 0x69D SWAP2 SWAP1 PUSH2 0x2467 JUMP JUMPDEST PUSH2 0x1BC2 JUMP JUMPDEST STOP JUMPDEST CALLVALUE DUP1 ISZERO PUSH2 0x6B0 JUMPI PUSH1 0x0 DUP1 REVERT JUMPDEST POP PUSH2 0x6B9 PUSH2 0x1F2D JUMP JUMPDEST PUSH1 0x40 MLOAD PUSH2 0x6C6 SWAP2 SWAP1 PUSH2 0x2863 JUMP JUMPDEST PUSH1 0x40 MLOAD DUP1 SWAP2 SUB SWAP1 RETURN JUMPDEST CALLVALUE DUP1 ISZERO PUSH2 0x6DB JUMPI PUSH1 0x0 DUP1 REVERT JUMPDEST POP PUSH2 0x6E4 PUSH2 0x1F51 JUMP JUMPDEST PUSH1 0x40 MLOAD PUSH2 0x6FA SWAP11 SWAP10 SWAP9 SWAP8 SWAP7 SWAP6 SWAP5 SWAP4 SWAP3 SWAP2 SWAP1 PUSH2 0x2B0F JUMP JUMPDEST PUSH1 0x40 MLOAD DUP1 SWAP2 SUB SWAP1 RETURN JUMPDEST CALLVALUE DUP1 ISZERO PUSH2 0x70F JUMPI PUSH1 0x0 DUP1 REVERT JUMPDEST POP PUSH2 0x718 PUSH2 0x217A JUMP JUMPDEST PUSH1 0x40 MLOAD PUSH2 0x725 SWAP2 SWAP1 PUSH2 0x28F3 JUMP JUMPDEST PUSH1 0x40 MLOAD DUP1 SWAP2 SUB SWAP1 RETURN JUMPDEST CALLVALUE DUP1 ISZERO PUSH2 0x73A JUMPI PUSH1 0x0 DUP1 REVERT JUMPDEST POP PUSH2 0x755 PUSH1 0x4 DUP1 CALLDATASIZE SUB DUP2 ADD SWAP1 PUSH2 0x750 SWAP2 SWAP1 PUSH2 0x2572 JUMP JUMPDEST PUSH2 0x219E JUMP JUMPDEST PUSH1 0x40 MLOAD PUSH2 0x762 SWAP2 SWAP1 PUSH2 0x28F3 JUMP JUMPDEST PUSH1 0x40 MLOAD DUP1 SWAP2 SUB SWAP1 RETURN JUMPDEST CALLVALUE DUP1 ISZERO PUSH2 0x777 JUMPI PUSH1 0x0 DUP1 REVERT JUMPDEST POP PUSH2 0x780 PUSH2 0x21BE JUMP JUMPDEST PUSH1 0x40 MLOAD PUSH2 0x78D SWAP2 SWAP1 PUSH2 0x28F3 JUMP JUMPDEST PUSH1 0x40 MLOAD DUP1 SWAP2 SUB SWAP1 RETURN JUMPDEST CALLVALUE DUP1 ISZERO PUSH2 0x7A2 JUMPI PUSH1 0x0 DUP1 REVERT JUMPDEST POP PUSH2 0x7AB PUSH2 0x21E2 JUMP JUMPDEST PUSH1 0x40 MLOAD PUSH2 0x7B8 SWAP2 SWAP1 PUSH2 0x2863 JUMP JUMPDEST PUSH1 0x40 MLOAD DUP1 SWAP2 SUB SWAP1 RETURN JUMPDEST PUSH32 0x0 DUP2 JUMP JUMPDEST PUSH1 0x2 PUSH1 0x0 SLOAD SUB PUSH2 0x82A JUMPI PUSH1 0x40 MLOAD PUSH32 0x8C379A000000000000000000000000000000000000000000000000000000000 DUP2 MSTORE PUSH1 0x4 ADD PUSH2 0x821 SWAP1 PUSH2 0x2C05 JUMP JUMPDEST PUSH1 0x40 MLOAD DUP1 SWAP2 SUB SWAP1 REVERT JUMPDEST PUSH1 0x2 PUSH1 0x0 DUP2 SWAP1 SSTORE POP PUSH1 0x0 PUSH1 0x7 DUP3 DUP2 SLOAD DUP2 LT PUSH2 0x848 JUMPI PUSH2 0x847 PUSH2 0x2C25 JUMP JUMPDEST JUMPDEST SWAP1 PUSH1 0x0 MSTORE PUSH1 0x20 PUSH1 0x0 KECCAK256 SWAP1 PUSH1 0x8 MUL ADD SWAP1 POP CALLER PUSH20 0xFFFFFFFFFFFFFFFFFFFFFFFFFFFFFFFFFFFFFFFF AND DUP2 PUSH1 0x1 ADD PUSH1 0x0 SWAP1 SLOAD SWAP1 PUSH2 0x100 EXP SWAP1 DIV PUSH20 0xFFFFFFFFFFFFFFFFFFFFFFFFFFFFFFFFFFFFFFFF AND PUSH20 0xFFFFFFFFFFFFFFFFFFFFFFFFFFFFFFFFFFFFFFFF AND EQ PUSH2 0x8EA JUMPI PUSH1 0x40 MLOAD PUSH32 0x8C379A000000000000000000000000000000000000000000000000000000000 DUP2 MSTORE PUSH1 0x4 ADD PUSH2 0x8E1 SWAP1 PUSH2 0x2CC6 JUMP JUMPDEST PUSH1 0x40 MLOAD DUP1 SWAP2 SUB SWAP1 REVERT JUMPDEST DUP1 PUSH1 0x5 ADD PUSH1 0x0 SWAP1 SLOAD SWAP1 PUSH2 0x100 EXP SWAP1 DIV PUSH1 0xFF AND ISZERO PUSH2 0x93C JUMPI PUSH1 0x40 MLOAD PUSH32 0x8C379A000000000000000000000000000000000000000000000000000000000 DUP2 MSTORE PUSH1 0x4 ADD PUSH2 0x933 SWAP1 PUSH2 0x2D58 JUMP JUMPDEST PUSH1 0x40 MLOAD DUP1 SWAP2 SUB SWAP1 REVERT JUMPDEST PUSH1 0x0 PUSH32 0x0 ISZERO PUSH2 0x973 JUMPI PUSH2 0x96C PUSH2 0x1394 JUMP JUMPDEST SWAP1 POP PUSH2 0xA30 JUMP JUMPDEST PUSH2 0x97B PUSH2 0x1394 JUMP JUMPDEST SWAP1 POP PUSH1 0x0 JUMPDEST PUSH1 0x2 DUP1 SLOAD SWAP1 POP DUP2 LT ISZERO PUSH2 0xA2E JUMPI PUSH1 0x0 PUSH1 0x5 PUSH1 0x0 PUSH1 0x2 DUP5 DUP2 SLOAD DUP2 LT PUSH2 0x9A7 JUMPI PUSH2 0x9A6 PUSH2 0x2C25 JUMP JUMPDEST JUMPDEST SWAP1 PUSH1 0x0 MSTORE PUSH1 0x20 PUSH1 0x0 KECCAK256 ADD PUSH1 0x0 SWAP1 SLOAD SWAP1 PUSH2 0x100 EXP SWAP1 DIV PUSH20 0xFFFFFFFFFFFFFFFFFFFFFFFFFFFFFFFFFFFFFFFF AND PUSH20 0xFFFFFFFFFFFFFFFFFFFFFFFFFFFFFFFFFFFFFFFF AND PUSH20 0xFFFFFFFFFFFFFFFFFFFFFFFFFFFFFFFFFFFFFFFF AND DUP2 MSTORE PUSH1 0x20 ADD SWAP1 DUP2 MSTORE PUSH1 0x20 ADD PUSH1 0x0 KECCAK256 SLOAD GT PUSH2 0xA21 JUMPI DUP2 DUP1 PUSH2 0xA1D SWAP1 PUSH2 0x2DA7 JUMP JUMPDEST SWAP3 POP POP JUMPDEST DUP1 DUP1 PUSH1 0x1 ADD SWAP2 POP POP PUSH2 0x980 JUMP JUMPDEST POP JUMPDEST PUSH1 0x0 DUP2 EQ DUP1 PUSH2 0xA81 JUMPI POP PUSH32 0x0 DUP2 PUSH1 0x64 PUSH2 0xA6A DUP6 PUSH1 0x7 ADD PUSH2 0x21EF JUMP JUMPDEST PUSH2 0xA74 SWAP2 SWAP1 PUSH2 0x2DEF JUMP JUMPDEST PUSH2 0xA7E SWAP2 SWAP1 PUSH2 0x2E78 JUMP JUMPDEST LT ISZERO JUMPDEST PUSH2 0xAC0 JUMPI PUSH1 0x40 MLOAD PUSH32 0x8C379A000000000000000000000000000000000000000000000000000000000 DUP2 MSTORE PUSH1 0x4 ADD PUSH2 0xAB7 SWAP1 PUSH2 0x2F1B JUMP JUMPDEST PUSH1 0x40 MLOAD DUP1 SWAP2 SUB SWAP1 REVERT JUMPDEST PUSH1 0x0 DUP3 PUSH1 0x3 ADD SLOAD SWAP1 POP PUSH2 0xAD1 PUSH2 0x187A JUMP JUMPDEST DUP2 GT ISZERO PUSH2 0xAE3 JUMPI PUSH2 0xAE0 PUSH2 0x187A JUMP JUMPDEST SWAP1 POP JUMPDEST DUP3 PUSH1 0x2 ADD PUSH1 0x0 SWAP1 SLOAD SWAP1 PUSH2 0x100 EXP SWAP1 DIV PUSH20 0xFFFFFFFFFFFFFFFFFFFFFFFFFFFFFFFFFFFFFFFF AND PUSH20 0xFFFFFFFFFFFFFFFFFFFFFFFFFFFFFFFFFFFFFFFF AND PUSH2 0x8FC DUP3 SWAP1 DUP2 ISZERO MUL SWAP1 PUSH1 0x40 MLOAD PUSH1 0x0 PUSH1 0x40 MLOAD DUP1 DUP4 SUB DUP2 DUP6 DUP9 DUP9 CALL SWAP4 POP POP POP POP ISZERO DUP1 ISZERO PUSH2 0xB4D JUMPI RETURNDATASIZE PUSH1 0x0 DUP1 RETURNDATACOPY RETURNDATASIZE PUSH1 0x0 REVERT JUMPDEST POP DUP1 DUP4 PUSH1 0x4 ADD DUP2 SWAP1 SSTORE POP PUSH1 0x1 DUP4 PUSH1 0x5 ADD PUSH1 0x0 PUSH2 0x100 EXP DUP2 SLOAD DUP2 PUSH1 0xFF MUL NOT AND SWAP1 DUP4 ISZERO ISZERO MUL OR SWAP1 SSTORE POP DUP4 PUSH32 0x2A26D55234AE45D40D3BDFD1893CF58FF7C2BB1C8089D97ED73879054778458C DUP3 PUSH1 0x40 MLOAD PUSH2 0xBA4 SWAP2 SWAP1 PUSH2 0x2863 JUMP JUMPDEST PUSH1 0x40 MLOAD DUP1 SWAP2 SUB SWAP1 LOG2 POP POP POP PUSH1 0x1 PUSH1 0x0 DUP2 SWAP1 SSTORE POP POP JUMP JUMPDEST PUSH1 0x1 DUP1 SLOAD PUSH2 0xBC7 SWAP1 PUSH2 0x2F6A JUMP JUMPDEST DUP1 PUSH1 0x1F ADD PUSH1 0x20 DUP1 SWAP2 DIV MUL PUSH1 0x20 ADD PUSH1 0x40 MLOAD SWAP1 DUP2 ADD PUSH1 0x40 MSTORE DUP1 SWAP3 SWAP2 SWAP1 DUP2 DUP2 MSTORE PUSH1 0x20 ADD DUP3 DUP1 SLOAD PUSH2 0xBF3 SWAP1 PUSH2 0x2F6A JUMP JUMPDEST DUP1 ISZERO PUSH2 0xC40 JUMPI DUP1 PUSH1 0x1F LT PUSH2 0xC15 JUMPI PUSH2 0x100 DUP1 DUP4 SLOAD DIV MUL DUP4 MSTORE SWAP2 PUSH1 0x20 ADD SWAP2 PUSH2 0xC40 JUMP JUMPDEST DUP3 ADD SWAP2 SWAP1 PUSH1 0x0 MSTORE PUSH1 0x20 PUSH1 0x0 KECCAK256 SWAP1 JUMPDEST DUP2 SLOAD DUP2 MSTORE SWAP1 PUSH1 0x1 ADD SWAP1 PUSH1 0x20 ADD DUP1 DUP4 GT PUSH2 0xC23 JUMPI DUP3 SWAP1 SUB PUSH1 0x1F AND DUP3 ADD SWAP2 JUMPDEST POP POP POP POP POP DUP2 JUMP JUMPDEST PUSH2 0xC51 DUP2 PUSH2 0x21FD JUMP JUMPDEST POP JUMP JUMPDEST PUSH32 0x0 PUSH2 0xCB4 JUMPI PUSH1 0x40 MLOAD PUSH32 0x8C379A000000000000000000000000000000000000000000000000000000000 DUP2 MSTORE PUSH1 0x4 ADD PUSH2 0xCAB SWAP1 PUSH2 0x2FE7 JUMP JUMPDEST PUSH1 0x40 MLOAD DUP1 SWAP2 SUB SWAP1 REVERT JUMPDEST PUSH1 0x0 PUSH1 0x3 PUSH1 0x0 CALLER PUSH20 0xFFFFFFFFFFFFFFFFFFFFFFFFFFFFFFFFFFFFFFFF AND PUSH20 0xFFFFFFFFFFFFFFFFFFFFFFFFFFFFFFFFFFFFFFFF AND DUP2 MSTORE PUSH1 0x20 ADD SWAP1 DUP2 MSTORE PUSH1 0x20 ADD PUSH1 0x0 KECCAK256 PUSH1 0x0 SWAP1 SLOAD SWAP1 PUSH2 0x100 EXP SWAP1 DIV PUSH1 0xFF AND SWAP1 POP PUSH32 0x0 ISZERO DUP1 PUSH2 0xD58 JUMPI POP PUSH32 0x0 DUP1 ISZERO PUSH2 0xD57 JUMPI POP DUP1 JUMPDEST JUMPDEST PUSH2 0xD97 JUMPI PUSH1 0x40 MLOAD PUSH32 0x8C379A000000000000000000000000000000000000000000000000000000000 DUP2 MSTORE PUSH1 0x4 ADD PUSH2 0xD8E SWAP1 PUSH2 0x3079 JUMP JUMPDEST PUSH1 0x40 MLOAD DUP1 SWAP2 SUB SWAP1 REVERT JUMPDEST PUSH1 0x0 PUSH1 0x7 PUSH1 0x1 DUP2 PUSH1 0x1 DUP2 SLOAD ADD DUP1 DUP3 SSTORE DUP1 SWAP2 POP POP SUB SWAP1 PUSH1 0x0 MSTORE PUSH1 0x20 PUSH1 0x0 KECCAK256 SWAP1 PUSH1 0x8 MUL ADD SWAP1 POP DUP5 DUP2 PUSH1 0x0 ADD SWAP1 DUP2 PUSH2 0xDCC SWAP2 SWAP1 PUSH2 0x3245 JUMP JUMPDEST POP CALLER DUP2 PUSH1 0x1 ADD PUSH1 0x0 PUSH2 0x100 EXP DUP2 SLOAD DUP2 PUSH20 0xFFFFFFFFFFFFFFFFFFFFFFFFFFFFFFFFFFFFFFFF MUL NOT AND SWAP1 DUP4 PUSH20 0xFFFFFFFFFFFFFFFFFFFFFFFFFFFFFFFFFFFFFFFF AND MUL OR SWAP1 SSTORE POP DUP4 DUP2 PUSH1 0x2 ADD PUSH1 0x0 PUSH2 0x100 EXP DUP2 SLOAD DUP2 PUSH20 0xFFFFFFFFFFFFFFFFFFFFFFFFFFFFFFFFFFFFFFFF MUL NOT AND SWAP1 DUP4 PUSH20 0xFFFFFFFFFFFFFFFFFFFFFFFFFFFFFFFFFFFFFFFF AND MUL OR SWAP1 SSTORE POP DUP3 DUP2 PUSH1 0x3 ADD DUP2 SWAP1 SSTORE POP DUP4 PUSH20 0xFFFFFFFFFFFFFFFFFFFFFFFFFFFFFFFFFFFFFFFF AND CALLER PUSH20 0xFFFFFFFFFFFFFFFFFFFFFFFFFFFFFFFFFFFFFFFF AND PUSH1 0x1 PUSH1 0x7 DUP1 SLOAD SWAP1 POP SUB PUSH32 0x5951F0E7966A5F08A4C0A5F25718915CC221B5A4FC488A15B2FBF1F12248D5C2 DUP9 DUP8 PUSH1 0x40 MLOAD PUSH2 0xEC4 SWAP3 SWAP2 SWAP1 PUSH2 0x3317 JUMP JUMPDEST PUSH1 0x40 MLOAD DUP1 SWAP2 SUB SWAP1 LOG4 POP POP POP POP POP JUMP JUMPDEST PUSH32 0x0 PUSH2 0xF33 JUMPI PUSH1 0x40 MLOAD PUSH32 0x8C379A000000000000000000000000000000000000000000000000000000000 DUP2 MSTORE PUSH1 0x4 ADD PUSH2 0xF2A SWAP1 PUSH2 0x33B9 JUMP JUMPDEST PUSH1 0x40 MLOAD DUP1 SWAP2 SUB SWAP1 REVERT JUMPDEST PUSH1 0x3 PUSH1 0x0 CALLER PUSH20 0xFFFFFFFFFFFFFFFFFFFFFFFFFFFFFFFFFFFFFFFF AND PUSH20 0xFFFFFFFFFFFFFFFFFFFFFFFFFFFFFFFFFFFFFFFF AND DUP2 MSTORE PUSH1 0x20 ADD SWAP1 DUP2 MSTORE PUSH1 0x20 ADD PUSH1 0x0 KECCAK256 PUSH1 0x0 SWAP1 SLOAD SWAP1 PUSH2 0x100 EXP SWAP1 DIV PUSH1 0xFF AND PUSH2 0xFBF JUMPI PUSH1 0x40 MLOAD PUSH32 0x8C379A000000000000000000000000000000000000000000000000000000000 DUP2 MSTORE PUSH1 0x4 ADD PUSH2 0xFB6 SWAP1 PUSH2 0x344B JUMP JUMPDEST PUSH1 0x40 MLOAD DUP1 SWAP2 SUB SWAP1 REVERT JUMPDEST PUSH1 0x0 DUP2 MLOAD GT PUSH2 0x1003 JUMPI PUSH1 0x40 MLOAD PUSH32 0x8C379A000000000000000000000000000000000000000000000000000000000 DUP2 MSTORE PUSH1 0x4 ADD PUSH2 0xFFA SWAP1 PUSH2 0x34DD JUMP JUMPDEST PUSH1 0x40 MLOAD DUP1 SWAP2 SUB SWAP1 REVERT JUMPDEST PUSH1 0x0 JUMPDEST DUP2 MLOAD DUP2 LT ISZERO PUSH2 0x11D4 JUMPI PUSH1 0x3 PUSH1 0x0 DUP4 DUP4 DUP2 MLOAD DUP2 LT PUSH2 0x1026 JUMPI PUSH2 0x1025 PUSH2 0x2C25 JUMP JUMPDEST JUMPDEST PUSH1 0x20 MUL PUSH1 0x20 ADD ADD MLOAD PUSH20 0xFFFFFFFFFFFFFFFFFFFFFFFFFFFFFFFFFFFFFFFF AND PUSH20 0xFFFFFFFFFFFFFFFFFFFFFFFFFFFFFFFFFFFFFFFF AND DUP2 MSTORE PUSH1 0x20 ADD SWAP1 DUP2 MSTORE PUSH1 0x20 ADD PUSH1 0x0 KECCAK256 PUSH1 0x0 SWAP1 SLOAD SWAP1 PUSH2 0x100 EXP SWAP1 DIV PUSH1 0xFF AND PUSH2 0x11C7 JUMPI PUSH1 0x2 DUP3 DUP3 DUP2 MLOAD DUP2 LT PUSH2 0x108F JUMPI PUSH2 0x108E PUSH2 0x2C25 JUMP JUMPDEST JUMPDEST PUSH1 0x20 MUL PUSH1 0x20 ADD ADD MLOAD SWAP1 DUP1 PUSH1 0x1 DUP2 SLOAD ADD DUP1 DUP3 SSTORE DUP1 SWAP2 POP POP PUSH1 0x1 SWAP1 SUB SWAP1 PUSH1 0x0 MSTORE PUSH1 0x20 PUSH1 0x0 KECCAK256 ADD PUSH1 0x0 SWAP1 SWAP2 SWAP1 SWAP2 SWAP1 SWAP2 PUSH2 0x100 EXP DUP2 SLOAD DUP2 PUSH20 0xFFFFFFFFFFFFFFFFFFFFFFFFFFFFFFFFFFFFFFFF MUL NOT AND SWAP1 DUP4 PUSH20 0xFFFFFFFFFFFFFFFFFFFFFFFFFFFFFFFFFFFFFFFF AND MUL OR SWAP1 SSTORE POP PUSH1 0x1 PUSH1 0x3 PUSH1 0x0 DUP5 DUP5 DUP2 MLOAD DUP2 LT PUSH2 0x1110 JUMPI PUSH2 0x110F PUSH2 0x2C25 JUMP JUMPDEST JUMPDEST PUSH1 0x20 MUL PUSH1 0x20 ADD ADD MLOAD PUSH20 0xFFFFFFFFFFFFFFFFFFFFFFFFFFFFFFFFFFFFFFFF AND PUSH20 0xFFFFFFFFFFFFFFFFFFFFFFFFFFFFFFFFFFFFFFFF AND DUP2 MSTORE PUSH1 0x20 ADD SWAP1 DUP2 MSTORE PUSH1 0x20 ADD PUSH1 0x0 KECCAK256 PUSH1 0x0 PUSH2 0x100 EXP DUP2 SLOAD DUP2 PUSH1 0xFF MUL NOT AND SWAP1 DUP4 ISZERO ISZERO MUL OR SWAP1 SSTORE POP DUP2 DUP2 DUP2 MLOAD DUP2 LT PUSH2 0x117C JUMPI PUSH2 0x117B PUSH2 0x2C25 JUMP JUMPDEST JUMPDEST PUSH1 0x20 MUL PUSH1 0x20 ADD ADD MLOAD PUSH20 0xFFFFFFFFFFFFFFFFFFFFFFFFFFFFFFFFFFFFFFFF AND PUSH32 0x5589A1DF7A257347B14B97CB6FE06862C960FF64E9A0C2908632929098BB0130 PUSH1 0x40 MLOAD PUSH1 0x40 MLOAD DUP1 SWAP2 SUB SWAP1 LOG2 JUMPDEST DUP1 DUP1 PUSH1 0x1 ADD SWAP2 POP POP PUSH2 0x1006 JUMP JUMPDEST POP POP JUMP JUMPDEST PUSH1 0x6 SLOAD DUP2 JUMP JUMPDEST PUSH1 0x4 DUP2 DUP2 SLOAD DUP2 LT PUSH2 0x11EE JUMPI PUSH1 0x0 DUP1 REVERT JUMPDEST SWAP1 PUSH1 0x0 MSTORE PUSH1 0x20 PUSH1 0x0 KECCAK256 ADD PUSH1 0x0 SWAP2 POP SLOAD SWAP1 PUSH2 0x100 EXP SWAP1 DIV PUSH20 0xFFFFFFFFFFFFFFFFFFFFFFFFFFFFFFFFFFFFFFFF AND DUP2 JUMP JUMPDEST PUSH1 0x2 DUP2 DUP2 SLOAD DUP2 LT PUSH2 0x122D JUMPI PUSH1 0x0 DUP1 REVERT JUMPDEST SWAP1 PUSH1 0x0 MSTORE PUSH1 0x20 PUSH1 0x0 KECCAK256 ADD PUSH1 0x0 SWAP2 POP SLOAD SWAP1 PUSH2 0x100 EXP SWAP1 DIV PUSH20 0xFFFFFFFFFFFFFFFFFFFFFFFFFFFFFFFFFFFFFFFF AND DUP2 JUMP JUMPDEST PUSH1 0x0 DUP1 PUSH1 0x60 PUSH1 0x0 DUP1 ADDRESS SWAP5 POP PUSH2 0x126F PUSH2 0x187A JUMP JUMPDEST SWAP4 POP PUSH1 0x1 DUP1 SLOAD PUSH2 0x127E SWAP1 PUSH2 0x2F6A JUMP JUMPDEST DUP1 PUSH1 0x1F ADD PUSH1 0x20 DUP1 SWAP2 DIV MUL PUSH1 0x20 ADD PUSH1 0x40 MLOAD SWAP1 DUP2 ADD PUSH1 0x40 MSTORE DUP1 SWAP3 SWAP2 SWAP1 DUP2 DUP2 MSTORE PUSH1 0x20 ADD DUP3 DUP1 SLOAD PUSH2 0x12AA SWAP1 PUSH2 0x2F6A JUMP JUMPDEST DUP1 ISZERO PUSH2 0x12F7 JUMPI DUP1 PUSH1 0x1F LT PUSH2 0x12CC JUMPI PUSH2 0x100 DUP1 DUP4 SLOAD DIV MUL DUP4 MSTORE SWAP2 PUSH1 0x20 ADD SWAP2 PUSH2 0x12F7 JUMP JUMPDEST DUP3 ADD SWAP2 SWAP1 PUSH1 0x0 MSTORE PUSH1 0x20 PUSH1 0x0 KECCAK256 SWAP1 JUMPDEST DUP2 SLOAD DUP2 MSTORE SWAP1 PUSH1 0x1 ADD SWAP1 PUSH1 0x20 ADD DUP1 DUP4 GT PUSH2 0x12DA JUMPI DUP3 SWAP1 SUB PUSH1 0x1F AND DUP3 ADD SWAP2 JUMPDEST POP POP POP POP POP SWAP3 POP PUSH32 0x0 SWAP2 POP PUSH32 0x0 SWAP1 POP SWAP1 SWAP2 SWAP3 SWAP4 SWAP5 JUMP JUMPDEST PUSH1 0x5 PUSH1 0x20 MSTORE DUP1 PUSH1 0x0 MSTORE PUSH1 0x40 PUSH1 0x0 KECCAK256 PUSH1 0x0 SWAP2 POP SWAP1 POP SLOAD DUP2 JUMP JUMPDEST PUSH1 0x0 PUSH1 0x2 DUP1 SLOAD SWAP1 POP SWAP1 POP SWAP1 JUMP JUMPDEST PUSH32 0x0 DUP2 JUMP JUMPDEST PUSH1 0x0 PUSH1 0x4 DUP1 SLOAD SWAP1 POP SWAP1 POP SWAP1 JUMP JUMPDEST PUSH32 0x0 DUP2 JUMP JUMPDEST PUSH1 0x7 DUP2 DUP2 SLOAD DUP2 LT PUSH2 0x13D5 JUMPI PUSH1 0x0 DUP1 REVERT JUMPDEST SWAP1 PUSH1 0x0 MSTORE PUSH1 0x20 PUSH1 0x0 KECCAK256 SWAP1 PUSH1 0x8 MUL ADD PUSH1 0x0 SWAP2 POP SWAP1 POP DUP1 PUSH1 0x0 ADD DUP1 SLOAD PUSH2 0x13F8 SWAP1 PUSH2 0x2F6A JUMP JUMPDEST DUP1 PUSH1 0x1F ADD PUSH1 0x20 DUP1 SWAP2 DIV MUL PUSH1 0x20 ADD PUSH1 0x40 MLOAD SWAP1 DUP2 ADD PUSH1 0x40 MSTORE DUP1 SWAP3 SWAP2 SWAP1 DUP2 DUP2 MSTORE PUSH1 0x20 ADD DUP3 DUP1 SLOAD PUSH2 0x1424 SWAP1 PUSH2 0x2F6A JUMP JUMPDEST DUP1 ISZERO PUSH2 0x1471 JUMPI DUP1 PUSH1 0x1F LT PUSH2 0x1446 JUMPI PUSH2 0x100 DUP1 DUP4 SLOAD DIV MUL DUP4 MSTORE SWAP2 PUSH1 0x20 ADD SWAP2 PUSH2 0x1471 JUMP JUMPDEST DUP3 ADD SWAP2 SWAP1 PUSH1 0x0 MSTORE PUSH1 0x20 PUSH1 0x0 KECCAK256 SWAP1 JUMPDEST DUP2 SLOAD DUP2 MSTORE SWAP1 PUSH1 0x1 ADD SWAP1 PUSH1 0x20 ADD DUP1 DUP4 GT PUSH2 0x1454 JUMPI DUP3 SWAP1 SUB PUSH1 0x1F AND DUP3 ADD SWAP2 JUMPDEST POP POP POP POP POP SWAP1 DUP1 PUSH1 0x1 ADD PUSH1 0x0 SWAP1 SLOAD SWAP1 PUSH2 0x100 EXP SWAP1 DIV PUSH20 0xFFFFFFFFFFFFFFFFFFFFFFFFFFFFFFFFFFFFFFFF AND SWAP1 DUP1 PUSH1 0x2 ADD PUSH1 0x0 SWAP1 SLOAD SWAP1 PUSH2 0x100 EXP SWAP1 DIV PUSH20 0xFFFFFFFFFFFFFFFFFFFFFFFFFFFFFFFFFFFFFFFF AND SWAP1 DUP1 PUSH1 0x3 ADD SLOAD SWAP1 DUP1 PUSH1 0x4 ADD SLOAD SWAP1 DUP1 PUSH1 0x5 ADD PUSH1 0x0 SWAP1 SLOAD SWAP1 PUSH2 0x100 EXP SWAP1 DIV PUSH1 0xFF AND SWAP1 DUP1 PUSH1 0x7 ADD PUSH1 0x40 MLOAD DUP1 PUSH1 0x20 ADD PUSH1 0x40 MSTORE SWAP1 DUP2 PUSH1 0x0 DUP3 ADD SLOAD DUP2 MSTORE POP POP SWAP1 POP DUP8 JUMP JUMPDEST PUSH32 0x0 DUP2 JUMP JUMPDEST PUSH1 0x0 PUSH1 0x7 DUP4 DUP2 SLOAD DUP2 LT PUSH2 0x153A JUMPI PUSH2 0x1539 PUSH2 0x2C25 JUMP JUMPDEST JUMPDEST SWAP1 PUSH1 0x0 MSTORE PUSH1 0x20 PUSH1 0x0 KECCAK256 SWAP1 PUSH1 0x8 MUL ADD PUSH1 0x6 ADD PUSH1 0x0 DUP4 PUSH20 0xFFFFFFFFFFFFFFFFFFFFFFFFFFFFFFFFFFFFFFFF AND PUSH20 0xFFFFFFFFFFFFFFFFFFFFFFFFFFFFFFFFFFFFFFFF AND DUP2 MSTORE PUSH1 0x20 ADD SWAP1 DUP2 MSTORE PUSH1 0x20 ADD PUSH1 0x0 KECCAK256 PUSH1 0x0 SWAP1 SLOAD SWAP1 PUSH2 0x100 EXP SWAP1 DIV PUSH1 0xFF AND SWAP1 POP SWAP3 SWAP2 POP POP JUMP JUMPDEST PUSH1 0x60 PUSH1 0x2 DUP1 SLOAD DUP1 PUSH1 0x20 MUL PUSH1 0x20 ADD PUSH1 0x40 MLOAD SWAP1 DUP2 ADD PUSH1 0x40 MSTORE DUP1 SWAP3 SWAP2 SWAP1 DUP2 DUP2 MSTORE PUSH1 0x20 ADD DUP3 DUP1 SLOAD DUP1 ISZERO PUSH2 0x1622 JUMPI PUSH1 0x20 MUL DUP3 ADD SWAP2 SWAP1 PUSH1 0x0 MSTORE PUSH1 0x20 PUSH1 0x0 KECCAK256 SWAP1 JUMPDEST DUP2 PUSH1 0x0 SWAP1 SLOAD SWAP1 PUSH2 0x100 EXP SWAP1 DIV PUSH20 0xFFFFFFFFFFFFFFFFFFFFFFFFFFFFFFFFFFFFFFFF AND PUSH20 0xFFFFFFFFFFFFFFFFFFFFFFFFFFFFFFFFFFFFFFFF AND DUP2 MSTORE PUSH1 0x20 ADD SWAP1 PUSH1 0x1 ADD SWAP1 DUP1 DUP4 GT PUSH2 0x15D8 JUMPI JUMPDEST POP POP POP POP POP SWAP1 POP SWAP1 JUMP JUMPDEST PUSH32 0x0 PUSH2 0x168C JUMPI PUSH1 0x40 MLOAD PUSH32 0x8C379A000000000000000000000000000000000000000000000000000000000 DUP2 MSTORE PUSH1 0x4 ADD PUSH2 0x1683 SWAP1 PUSH2 0x3595 JUMP JUMPDEST PUSH1 0x40 MLOAD DUP1 SWAP2 SUB SWAP1 REVERT JUMPDEST PUSH1 0x3 PUSH1 0x0 CALLER PUSH20 0xFFFFFFFFFFFFFFFFFFFFFFFFFFFFFFFFFFFFFFFF AND PUSH20 0xFFFFFFFFFFFFFFFFFFFFFFFFFFFFFFFFFFFFFFFF AND DUP2 MSTORE PUSH1 0x20 ADD SWAP1 DUP2 MSTORE PUSH1 0x20 ADD PUSH1 0x0 KECCAK256 PUSH1 0x0 SWAP1 SLOAD SWAP1 PUSH2 0x100 EXP SWAP1 DIV PUSH1 0xFF AND PUSH2 0x1718 JUMPI PUSH1 0x40 MLOAD PUSH32 0x8C379A000000000000000000000000000000000000000000000000000000000 DUP2 MSTORE PUSH1 0x4 ADD PUSH2 0x170F SWAP1 PUSH2 0x344B JUMP JUMPDEST PUSH1 0x40 MLOAD DUP1 SWAP2 SUB SWAP1 REVERT JUMPDEST DUP2 PUSH20 0xFFFFFFFFFFFFFFFFFFFFFFFFFFFFFFFFFFFFFFFF AND PUSH2 0x8FC DUP3 SWAP1 DUP2 ISZERO MUL SWAP1 PUSH1 0x40 MLOAD PUSH1 0x0 PUSH1 0x40 MLOAD DUP1 DUP4 SUB DUP2 DUP6 DUP9 DUP9 CALL SWAP4 POP POP POP POP ISZERO DUP1 ISZERO PUSH2 0x175E JUMPI RETURNDATASIZE PUSH1 0x0 DUP1 RETURNDATACOPY RETURNDATASIZE PUSH1 0x0 REVERT JUMPDEST POP DUP2 PUSH20 0xFFFFFFFFFFFFFFFFFFFFFFFFFFFFFFFFFFFFFFFF AND CALLER PUSH20 0xFFFFFFFFFFFFFFFFFFFFFFFFFFFFFFFFFFFFFFFF AND PUSH32 0xDDF252AD1BE2C89B69C2B068FC378DAA952BA7F163C4A11628F55A4DF523B3EF DUP4 PUSH1 0x40 MLOAD PUSH2 0x17BC SWAP2 SWAP1 PUSH2 0x2863 JUMP JUMPDEST PUSH1 0x40 MLOAD DUP1 SWAP2 SUB SWAP1 LOG3 POP POP JUMP JUMPDEST PUSH32 0x0 DUP2 JUMP JUMPDEST PUSH1 0x60 PUSH1 0x4 DUP1 SLOAD DUP1 PUSH1 0x20 MUL PUSH1 0x20 ADD PUSH1 0x40 MLOAD SWAP1 DUP2 ADD PUSH1 0x40 MSTORE DUP1 SWAP3 SWAP2 SWAP1 DUP2 DUP2 MSTORE PUSH1 0x20 ADD DUP3 DUP1 SLOAD DUP1 ISZERO PUSH2 0x1870 JUMPI PUSH1 0x20 MUL DUP3 ADD SWAP2 SWAP1 PUSH1 0x0 MSTORE PUSH1 0x20 PUSH1 0x0 KECCAK256 SWAP1 JUMPDEST DUP2 PUSH1 0x0 SWAP1 SLOAD SWAP1 PUSH2 0x100 EXP SWAP1 DIV PUSH20 0xFFFFFFFFFFFFFFFFFFFFFFFFFFFFFFFFFFFFFFFF AND PUSH20 0xFFFFFFFFFFFFFFFFFFFFFFFFFFFFFFFFFFFFFFFF AND DUP2 MSTORE PUSH1 0x20 ADD SWAP1 PUSH1 0x1 ADD SWAP1 DUP1 DUP4 GT PUSH2 0x1826 JUMPI JUMPDEST POP POP POP POP POP SWAP1 POP SWAP1 JUMP JUMPDEST PUSH1 0x0 SELFBALANCE SWAP1 POP SWAP1 JUMP JUMPDEST PUSH32 0x0 DUP2 JUMP JUMPDEST PUSH2 0x18AF CALLER PUSH2 0x21FD JUMP JUMPDEST JUMP JUMPDEST PUSH1 0x0 PUSH1 0x7 DUP3 DUP2 SLOAD DUP2 LT PUSH2 0x18C7 JUMPI PUSH2 0x18C6 PUSH2 0x2C25 JUMP JUMPDEST JUMPDEST SWAP1 PUSH1 0x0 MSTORE PUSH1 0x20 PUSH1 0x0 KECCAK256 SWAP1 PUSH1 0x8 MUL ADD SWAP1 POP DUP1 PUSH1 0x5 ADD PUSH1 0x0 SWAP1 SLOAD SWAP1 PUSH2 0x100 EXP SWAP1 DIV PUSH1 0xFF AND ISZERO PUSH2 0x1929 JUMPI PUSH1 0x40 MLOAD PUSH32 0x8C379A000000000000000000000000000000000000000000000000000000000 DUP2 MSTORE PUSH1 0x4 ADD PUSH2 0x1920 SWAP1 PUSH2 0x2D58 JUMP JUMPDEST PUSH1 0x40 MLOAD DUP1 SWAP2 SUB SWAP1 REVERT JUMPDEST DUP1 PUSH1 0x6 ADD PUSH1 0x0 CALLER PUSH20 0xFFFFFFFFFFFFFFFFFFFFFFFFFFFFFFFFFFFFFFFF AND PUSH20 0xFFFFFFFFFFFFFFFFFFFFFFFFFFFFFFFFFFFFFFFF AND DUP2 MSTORE PUSH1 0x20 ADD SWAP1 DUP2 MSTORE PUSH1 0x20 ADD PUSH1 0x0 KECCAK256 PUSH1 0x0 SWAP1 SLOAD SWAP1 PUSH2 0x100 EXP SWAP1 DIV PUSH1 0xFF AND ISZERO PUSH2 0x19B8 JUMPI PUSH1 0x40 MLOAD PUSH32 0x8C379A000000000000000000000000000000000000000000000000000000000 DUP2 MSTORE PUSH1 0x4 ADD PUSH2 0x19AF SWAP1 PUSH2 0x3601 JUMP JUMPDEST PUSH1 0x40 MLOAD DUP1 SWAP2 SUB SWAP1 REVERT JUMPDEST PUSH1 0x0 PUSH32 0x0 SWAP1 POP PUSH1 0x0 PUSH1 0x6 SLOAD SWAP1 POP PUSH32 0x0 ISZERO DUP1 ISZERO PUSH2 0x1A5B JUMPI POP PUSH1 0x3 PUSH1 0x0 CALLER PUSH20 0xFFFFFFFFFFFFFFFFFFFFFFFFFFFFFFFFFFFFFFFF AND PUSH20 0xFFFFFFFFFFFFFFFFFFFFFFFFFFFFFFFFFFFFFFFF AND DUP2 MSTORE PUSH1 0x20 ADD SWAP1 DUP2 MSTORE PUSH1 0x20 ADD PUSH1 0x0 KECCAK256 PUSH1 0x0 SWAP1 SLOAD SWAP1 PUSH2 0x100 EXP SWAP1 DIV PUSH1 0xFF AND JUMPDEST DUP1 PUSH2 0x1A66 JUMPI POP PUSH1 0x0 DUP3 EQ JUMPDEST DUP1 PUSH2 0x1AD3 JUMPI POP PUSH1 0x0 DUP2 GT DUP1 ISZERO PUSH2 0x1AD2 JUMPI POP DUP2 DUP2 PUSH1 0x64 PUSH1 0x5 PUSH1 0x0 CALLER PUSH20 0xFFFFFFFFFFFFFFFFFFFFFFFFFFFFFFFFFFFFFFFF AND PUSH20 0xFFFFFFFFFFFFFFFFFFFFFFFFFFFFFFFFFFFFFFFF AND DUP2 MSTORE PUSH1 0x20 ADD SWAP1 DUP2 MSTORE PUSH1 0x20 ADD PUSH1 0x0 KECCAK256 SLOAD PUSH2 0x1AC5 SWAP2 SWAP1 PUSH2 0x2DEF JUMP JUMPDEST PUSH2 0x1ACF SWAP2 SWAP1 PUSH2 0x2E78 JUMP JUMPDEST LT ISZERO JUMPDEST JUMPDEST PUSH2 0x1B12 JUMPI PUSH1 0x40 MLOAD PUSH32 0x8C379A000000000000000000000000000000000000000000000000000000000 DUP2 MSTORE PUSH1 0x4 ADD PUSH2 0x1B09 SWAP1 PUSH2 0x36B9 JUMP JUMPDEST PUSH1 0x40 MLOAD DUP1 SWAP2 SUB SWAP1 REVERT JUMPDEST PUSH1 0x1 DUP4 PUSH1 0x6 ADD PUSH1 0x0 CALLER PUSH20 0xFFFFFFFFFFFFFFFFFFFFFFFFFFFFFFFFFFFFFFFF AND PUSH20 0xFFFFFFFFFFFFFFFFFFFFFFFFFFFFFFFFFFFFFFFF AND DUP2 MSTORE PUSH1 0x20 ADD SWAP1 DUP2 MSTORE PUSH1 0x20 ADD PUSH1 0x0 KECCAK256 PUSH1 0x0 PUSH2 0x100 EXP DUP2 SLOAD DUP2 PUSH1 0xFF MUL NOT AND SWAP1 DUP4 ISZERO ISZERO MUL OR SWAP1 SSTORE POP PUSH2 0x1B78 DUP4 PUSH1 0x7 ADD PUSH2 0x23AB JUMP JUMPDEST CALLER PUSH20 0xFFFFFFFFFFFFFFFFFFFFFFFFFFFFFFFFFFFFFFFF AND DUP5 PUSH32 0x893B9E35D011BBE15567D0F899B775D6E02D49F62378315A6D25759D3BB1DBCC PUSH1 0x40 MLOAD PUSH1 0x40 MLOAD DUP1 SWAP2 SUB SWAP1 LOG3 POP POP POP POP JUMP JUMPDEST PUSH32 0x0 PUSH2 0x1C22 JUMPI PUSH1 0x40 MLOAD PUSH32 0x8C379A000000000000000000000000000000000000000000000000000000000 DUP2 MSTORE PUSH1 0x4 ADD PUSH2 0x1C19 SWAP1 PUSH2 0x374B JUMP JUMPDEST PUSH1 0x40 MLOAD DUP1 SWAP2 SUB SWAP1 REVERT JUMPDEST PUSH1 0x3 PUSH1 0x0 CALLER PUSH20 0xFFFFFFFFFFFFFFFFFFFFFFFFFFFFFFFFFFFFFFFF AND PUSH20 0xFFFFFFFFFFFFFFFFFFFFFFFFFFFFFFFFFFFFFFFF AND DUP2 MSTORE PUSH1 0x20 ADD SWAP1 DUP2 MSTORE PUSH1 0x20 ADD PUSH1 0x0 KECCAK256 PUSH1 0x0 SWAP1 SLOAD SWAP1 PUSH2 0x100 EXP SWAP1 DIV PUSH1 0xFF AND PUSH2 0x1CAE JUMPI PUSH1 0x40 MLOAD PUSH32 0x8C379A000000000000000000000000000000000000000000000000000000000 DUP2 MSTORE PUSH1 0x4 ADD PUSH2 0x1CA5 SWAP1 PUSH2 0x344B JUMP JUMPDEST PUSH1 0x40 MLOAD DUP1 SWAP2 SUB SWAP1 REVERT JUMPDEST PUSH1 0x0 PUSH2 0x1CB8 PUSH2 0x1363 JUMP JUMPDEST SWAP1 POP PUSH1 0x1 DUP2 GT DUP1 PUSH2 0x1D10 JUMPI POP PUSH32 0x0 DUP1 ISZERO PUSH2 0x1D0F JUMPI POP PUSH32 0x0 ISZERO JUMPDEST JUMPDEST PUSH2 0x1D4F JUMPI PUSH1 0x40 MLOAD PUSH32 0x8C379A000000000000000000000000000000000000000000000000000000000 DUP2 MSTORE PUSH1 0x4 ADD PUSH2 0x1D46 SWAP1 PUSH2 0x37DD JUMP JUMPDEST PUSH1 0x40 MLOAD DUP1 SWAP2 SUB SWAP1 REVERT JUMPDEST PUSH1 0x0 PUSH1 0x2 DUP4 DUP2 SLOAD DUP2 LT PUSH2 0x1D65 JUMPI PUSH2 0x1D64 PUSH2 0x2C25 JUMP JUMPDEST JUMPDEST SWAP1 PUSH1 0x0 MSTORE PUSH1 0x20 PUSH1 0x0 KECCAK256 ADD PUSH1 0x0 SWAP1 SLOAD SWAP1 PUSH2 0x100 EXP SWAP1 DIV PUSH20 0xFFFFFFFFFFFFFFFFFFFFFFFFFFFFFFFFFFFFFFFF AND SWAP1 POP PUSH1 0x3 PUSH1 0x0 DUP3 PUSH20 0xFFFFFFFFFFFFFFFFFFFFFFFFFFFFFFFFFFFFFFFF AND PUSH20 0xFFFFFFFFFFFFFFFFFFFFFFFFFFFFFFFFFFFFFFFF AND DUP2 MSTORE PUSH1 0x20 ADD SWAP1 DUP2 MSTORE PUSH1 0x20 ADD PUSH1 0x0 KECCAK256 PUSH1 0x0 PUSH2 0x100 EXP DUP2 SLOAD SWAP1 PUSH1 0xFF MUL NOT AND SWAP1 SSTORE PUSH1 0x0 DUP4 SWAP1 POP JUMPDEST PUSH1 0x1 DUP4 SUB DUP2 LT ISZERO PUSH2 0x1E9D JUMPI PUSH1 0x2 PUSH1 0x1 DUP3 ADD DUP2 SLOAD DUP2 LT PUSH2 0x1E09 JUMPI PUSH2 0x1E08 PUSH2 0x2C25 JUMP JUMPDEST JUMPDEST SWAP1 PUSH1 0x0 MSTORE PUSH1 0x20 PUSH1 0x0 KECCAK256 ADD PUSH1 0x0 SWAP1 SLOAD SWAP1 PUSH2 0x100 EXP SWAP1 DIV PUSH20 0xFFFFFFFFFFFFFFFFFFFFFFFFFFFFFFFFFFFFFFFF AND PUSH1 0x2 DUP3 DUP2 SLOAD DUP2 LT PUSH2 0x1E48 JUMPI PUSH2 0x1E47 PUSH2 0x2C25 JUMP JUMPDEST JUMPDEST SWAP1 PUSH1 0x0 MSTORE PUSH1 0x20 PUSH1 0x0 KECCAK256 ADD PUSH1 0x0 PUSH2 0x100 EXP DUP2 SLOAD DUP2 PUSH20 0xFFFFFFFFFFFFFFFFFFFFFFFFFFFFFFFFFFFFFFFF MUL NOT AND SWAP1 DUP4 PUSH20 0xFFFFFFFFFFFFFFFFFFFFFFFFFFFFFFFFFFFFFFFF AND MUL OR SWAP1 SSTORE POP DUP1 DUP1 PUSH1 0x1 ADD SWAP2 POP POP PUSH2 0x1DE7 JUMP JUMPDEST POP PUSH1 0x2 DUP1 SLOAD DUP1 PUSH2 0x1EB0 JUMPI PUSH2 0x1EAF PUSH2 0x37FD JUMP JUMPDEST JUMPDEST PUSH1 0x1 SWAP1 SUB DUP2 DUP2 SWAP1 PUSH1 0x0 MSTORE PUSH1 0x20 PUSH1 0x0 KECCAK256 ADD PUSH1 0x0 PUSH2 0x100 EXP DUP2 SLOAD SWAP1 PUSH20 0xFFFFFFFFFFFFFFFFFFFFFFFFFFFFFFFFFFFFFFFF MUL NOT AND SWAP1 SSTORE SWAP1 SSTORE DUP1 PUSH20 0xFFFFFFFFFFFFFFFFFFFFFFFFFFFFFFFFFFFFFFFF AND PUSH32 0x1E25ED4CABEC84D314DC176241019653F237DA01F2BDD3A10CB0F38B33DA6763 PUSH1 0x40 MLOAD PUSH1 0x40 MLOAD DUP1 SWAP2 SUB SWAP1 LOG2 POP POP POP JUMP JUMPDEST PUSH32 0x0 DUP2 JUMP JUMPDEST PUSH1 0x60 PUSH1 0x0 PUSH1 0x60 PUSH1 0x0 DUP1 PUSH1 0x0 DUP1 PUSH1 0x0 DUP1 PUSH1 0x0 PUSH1 0x2 DUP1 SLOAD DUP1 PUSH1 0x20 MUL PUSH1 0x20 ADD PUSH1 0x40 MLOAD SWAP1 DUP2 ADD PUSH1 0x40 MSTORE DUP1 SWAP3 SWAP2 SWAP1 DUP2 DUP2 MSTORE PUSH1 0x20 ADD DUP3 DUP1 SLOAD DUP1 ISZERO PUSH2 0x1FE4 JUMPI PUSH1 0x20 MUL DUP3 ADD SWAP2 SWAP1 PUSH1 0x0 MSTORE PUSH1 0x20 PUSH1 0x0 KECCAK256 SWAP1 JUMPDEST DUP2 PUSH1 0x0 SWAP1 SLOAD SWAP1 PUSH2 0x100 EXP SWAP1 DIV PUSH20 0xFFFFFFFFFFFFFFFFFFFFFFFFFFFFFFFFFFFFFFFF AND PUSH20 0xFFFFFFFFFFFFFFFFFFFFFFFFFFFFFFFFFFFFFFFF AND DUP2 MSTORE PUSH1 0x20 ADD SWAP1 PUSH1 0x1 ADD SWAP1 DUP1 DUP4 GT PUSH2 0x1F9A JUMPI JUMPDEST POP POP POP POP POP SWAP10 POP PUSH32 0x0 SWAP9 POP PUSH1 0x4 DUP1 SLOAD DUP1 PUSH1 0x20 MUL PUSH1 0x20 ADD PUSH1 0x40 MLOAD SWAP1 DUP2 ADD PUSH1 0x40 MSTORE DUP1 SWAP3 SWAP2 SWAP1 DUP2 DUP2 MSTORE PUSH1 0x20 ADD DUP3 DUP1 SLOAD DUP1 ISZERO PUSH2 0x2090 JUMPI PUSH1 0x20 MUL DUP3 ADD SWAP2 SWAP1 PUSH1 0x0 MSTORE PUSH1 0x20 PUSH1 0x0 KECCAK256 SWAP1 JUMPDEST DUP2 PUSH1 0x0 SWAP1 SLOAD SWAP1 PUSH2 0x100 EXP SWAP1 DIV PUSH20 0xFFFFFFFFFFFFFFFFFFFFFFFFFFFFFFFFFFFFFFFF AND PUSH20 0xFFFFFFFFFFFFFFFFFFFFFFFFFFFFFFFFFFFFFFFF AND DUP2 MSTORE PUSH1 0x20 ADD SWAP1 PUSH1 0x1 ADD SWAP1 DUP1 DUP4 GT PUSH2 0x2046 JUMPI JUMPDEST POP POP POP POP POP SWAP8 POP PUSH1 0x6 SLOAD SWAP7 POP PUSH32 0x0 SWAP6 POP PUSH32 0x0 SWAP5 POP PUSH32 0x0 SWAP4 POP PUSH32 0x0 SWAP3 POP PUSH32 0x0 SWAP2 POP PUSH32 0x0 SWAP1 POP SWAP1 SWAP2 SWAP3 SWAP4 SWAP5 SWAP6 SWAP7 SWAP8 SWAP9 SWAP10 JUMP JUMPDEST PUSH32 0x0 DUP2 JUMP JUMPDEST PUSH1 0x3 PUSH1 0x20 MSTORE DUP1 PUSH1 0x0 MSTORE PUSH1 0x40 PUSH1 0x0 KECCAK256 PUSH1 0x0 SWAP2 POP SLOAD SWAP1 PUSH2 0x100 EXP SWAP1 DIV PUSH1 0xFF AND DUP2 JUMP JUMPDEST PUSH32 0x0 DUP2 JUMP JUMPDEST PUSH1 0x0 PUSH1 0x7 DUP1 SLOAD SWAP1 POP SWAP1 POP SWAP1 JUMP JUMPDEST PUSH1 0x0 DUP2 PUSH1 0x0 ADD SLOAD SWAP1 POP SWAP2 SWAP1 POP JUMP JUMPDEST PUSH1 0x0 CALLVALUE GT PUSH2 0x2240 JUMPI PUSH1 0x40 MLOAD PUSH32 0x8C379A000000000000000000000000000000000000000000000000000000000 DUP2 MSTORE PUSH1 0x4 ADD PUSH2 0x2237 SWAP1 PUSH2 0x389E JUMP JUMPDEST PUSH1 0x40 MLOAD DUP1 SWAP2 SUB SWAP1 REVERT JUMPDEST PUSH1 0x0 PUSH1 0x5 PUSH1 0x0 DUP4 PUSH20 0xFFFFFFFFFFFFFFFFFFFFFFFFFFFFFFFFFFFFFFFF AND PUSH20 0xFFFFFFFFFFFFFFFFFFFFFFFFFFFFFFFFFFFFFFFF AND DUP2 MSTORE PUSH1 0x20 ADD SWAP1 DUP2 MSTORE PUSH1 0x20 ADD PUSH1 0x0 KECCAK256 SLOAD SUB PUSH2 0x22EB JUMPI PUSH1 0x4 DUP2 SWAP1 DUP1 PUSH1 0x1 DUP2 SLOAD ADD DUP1 DUP3 SSTORE DUP1 SWAP2 POP POP PUSH1 0x1 SWAP1 SUB SWAP1 PUSH1 0x0 MSTORE PUSH1 0x20 PUSH1 0x0 KECCAK256 ADD PUSH1 0x0 SWAP1 SWAP2 SWAP1 SWAP2 SWAP1 SWAP2 PUSH2 0x100 EXP DUP2 SLOAD DUP2 PUSH20 0xFFFFFFFFFFFFFFFFFFFFFFFFFFFFFFFFFFFFFFFF MUL NOT AND SWAP1 DUP4 PUSH20 0xFFFFFFFFFFFFFFFFFFFFFFFFFFFFFFFFFFFFFFFF AND MUL OR SWAP1 SSTORE POP JUMPDEST CALLVALUE PUSH1 0x5 PUSH1 0x0 DUP4 PUSH20 0xFFFFFFFFFFFFFFFFFFFFFFFFFFFFFFFFFFFFFFFF AND PUSH20 0xFFFFFFFFFFFFFFFFFFFFFFFFFFFFFFFFFFFFFFFF AND DUP2 MSTORE PUSH1 0x20 ADD SWAP1 DUP2 MSTORE PUSH1 0x20 ADD PUSH1 0x0 KECCAK256 PUSH1 0x0 DUP3 DUP3 SLOAD PUSH2 0x233A SWAP2 SWAP1 PUSH2 0x38BE JUMP JUMPDEST SWAP3 POP POP DUP2 SWAP1 SSTORE POP CALLVALUE PUSH1 0x6 PUSH1 0x0 DUP3 DUP3 SLOAD PUSH2 0x2353 SWAP2 SWAP1 PUSH2 0x38BE JUMP JUMPDEST SWAP3 POP POP DUP2 SWAP1 SSTORE POP DUP1 PUSH20 0xFFFFFFFFFFFFFFFFFFFFFFFFFFFFFFFFFFFFFFFF AND PUSH32 0x906FAAF913A60F38B5E8F2D6F5B163239BAC2D994FA1A5D21751A51587A94057 CALLVALUE PUSH1 0x40 MLOAD PUSH2 0x23A0 SWAP2 SWAP1 PUSH2 0x2863 JUMP JUMPDEST PUSH1 0x40 MLOAD DUP1 SWAP2 SUB SWAP1 LOG2 POP JUMP JUMPDEST PUSH1 0x1 DUP2 PUSH1 0x0 ADD PUSH1 0x0 DUP3 DUP3 SLOAD ADD SWAP3 POP POP DUP2 SWAP1 SSTORE POP POP JUMP JUMPDEST PUSH1 0x0 PUSH20 0xFFFFFFFFFFFFFFFFFFFFFFFFFFFFFFFFFFFFFFFF DUP3 AND SWAP1 POP SWAP2 SWAP1 POP JUMP JUMPDEST PUSH1 0x0 PUSH2 0x23EC DUP3 PUSH2 0x23C1 JUMP JUMPDEST SWAP1 POP SWAP2 SWAP1 POP JUMP JUMPDEST PUSH2 0x23FC DUP2 PUSH2 0x23E1 JUMP JUMPDEST DUP3 MSTORE POP POP JUMP JUMPDEST PUSH1 0x0 PUSH1 0x20 DUP3 ADD SWAP1 POP PUSH2 0x2417 PUSH1 0x0 DUP4 ADD DUP5 PUSH2 0x23F3 JUMP JUMPDEST SWAP3 SWAP2 POP POP JUMP JUMPDEST PUSH1 0x0 PUSH1 0x40 MLOAD SWAP1 POP SWAP1 JUMP JUMPDEST PUSH1 0x0 DUP1 REVERT JUMPDEST PUSH1 0x0 DUP1 REVERT JUMPDEST PUSH1 0x0 DUP2 SWAP1 POP SWAP2 SWAP1 POP JUMP JUMPDEST PUSH2 0x2444 DUP2 PUSH2 0x2431 JUMP JUMPDEST DUP2 EQ PUSH2 0x244F JUMPI PUSH1 0x0 DUP1 REVERT JUMPDEST POP JUMP JUMPDEST PUSH1 0x0 DUP2 CALLDATALOAD SWAP1 POP PUSH2 0x2461 DUP2 PUSH2 0x243B JUMP JUMPDEST SWAP3 SWAP2 POP POP JUMP JUMPDEST PUSH1 0x0 PUSH1 0x20 DUP3 DUP5 SUB SLT ISZERO PUSH2 0x247D JUMPI PUSH2 0x247C PUSH2 0x2427 JUMP JUMPDEST JUMPDEST PUSH1 0x0 PUSH2 0x248B DUP5 DUP3 DUP6 ADD PUSH2 0x2452 JUMP JUMPDEST SWAP2 POP POP SWAP3 SWAP2 POP POP JUMP JUMPDEST PUSH1 0x0 DUP2 MLOAD SWAP1 POP SWAP2 SWAP1 POP JUMP JUMPDEST PUSH1 0x0 DUP3 DUP3 MSTORE PUSH1 0x20 DUP3 ADD SWAP1 POP SWAP3 SWAP2 POP POP JUMP JUMPDEST PUSH1 0x0 JUMPDEST DUP4 DUP2 LT ISZERO PUSH2 0x24CE JUMPI DUP1 DUP3 ADD MLOAD DUP2 DUP5 ADD MSTORE PUSH1 0x20 DUP2 ADD SWAP1 POP PUSH2 0x24B3 JUMP JUMPDEST PUSH1 0x0 DUP5 DUP5 ADD MSTORE POP POP POP POP JUMP JUMPDEST PUSH1 0x0 PUSH1 0x1F NOT PUSH1 0x1F DUP4 ADD AND SWAP1 POP SWAP2 SWAP1 POP JUMP JUMPDEST PUSH1 0x0 PUSH2 0x24F6 DUP3 PUSH2 0x2494 JUMP JUMPDEST PUSH2 0x2500 DUP2 DUP6 PUSH2 0x249F JUMP JUMPDEST SWAP4 POP PUSH2 0x2510 DUP2 DUP6 PUSH1 0x20 DUP7 ADD PUSH2 0x24B0 JUMP JUMPDEST PUSH2 0x2519 DUP2 PUSH2 0x24DA JUMP JUMPDEST DUP5 ADD SWAP2 POP POP SWAP3 SWAP2 POP POP JUMP JUMPDEST PUSH1 0x0 PUSH1 0x20 DUP3 ADD SWAP1 POP DUP2 DUP2 SUB PUSH1 0x0 DUP4 ADD MSTORE PUSH2 0x253E DUP2 DUP5 PUSH2 0x24EB JUMP JUMPDEST SWAP1 POP SWAP3 SWAP2 POP POP JUMP JUMPDEST PUSH2 0x254F DUP2 PUSH2 0x23E1 JUMP JUMPDEST DUP2 EQ PUSH2 0x255A JUMPI PUSH1 0x0 DUP1 REVERT JUMPDEST POP JUMP JUMPDEST PUSH1 0x0 DUP2 CALLDATALOAD SWAP1 POP PUSH2 0x256C DUP2 PUSH2 0x2546 JUMP JUMPDEST SWAP3 SWAP2 POP POP JUMP JUMPDEST PUSH1 0x0 PUSH1 0x20 DUP3 DUP5 SUB SLT ISZERO PUSH2 0x2588 JUMPI PUSH2 0x2587 PUSH2 0x2427 JUMP JUMPDEST JUMPDEST PUSH1 0x0 PUSH2 0x2596 DUP5 DUP3 DUP6 ADD PUSH2 0x255D JUMP JUMPDEST SWAP2 POP POP SWAP3 SWAP2 POP POP JUMP JUMPDEST PUSH1 0x0 DUP1 REVERT JUMPDEST PUSH1 0x0 DUP1 REVERT JUMPDEST PUSH32 0x4E487B7100000000000000000000000000000000000000000000000000000000 PUSH1 0x0 MSTORE PUSH1 0x41 PUSH1 0x4 MSTORE PUSH1 0x24 PUSH1 0x0 REVERT JUMPDEST PUSH2 0x25E1 DUP3 PUSH2 0x24DA JUMP JUMPDEST DUP2 ADD DUP2 DUP2 LT PUSH8 0xFFFFFFFFFFFFFFFF DUP3 GT OR ISZERO PUSH2 0x2600 JUMPI PUSH2 0x25FF PUSH2 0x25A9 JUMP JUMPDEST JUMPDEST DUP1 PUSH1 0x40 MSTORE POP POP POP JUMP JUMPDEST PUSH1 0x0 PUSH2 0x2613 PUSH2 0x241D JUMP JUMPDEST SWAP1 POP PUSH2 0x261F DUP3 DUP3 PUSH2 0x25D8 JUMP JUMPDEST SWAP2 SWAP1 POP JUMP JUMPDEST PUSH1 0x0 PUSH8 0xFFFFFFFFFFFFFFFF DUP3 GT ISZERO PUSH2 0x263F JUMPI PUSH2 0x263E PUSH2 0x25A9 JUMP JUMPDEST JUMPDEST PUSH2 0x2648 DUP3 PUSH2 0x24DA JUMP JUMPDEST SWAP1 POP PUSH1 0x20 DUP2 ADD SWAP1 POP SWAP2 SWAP1 POP JUMP JUMPDEST DUP3 DUP2 DUP4 CALLDATACOPY PUSH1 0x0 DUP4 DUP4 ADD MSTORE POP POP POP JUMP JUMPDEST PUSH1 0x0 PUSH2 0x2677 PUSH2 0x2672 DUP5 PUSH2 0x2624 JUMP JUMPDEST PUSH2 0x2609 JUMP JUMPDEST SWAP1 POP DUP3 DUP2 MSTORE PUSH1 0x20 DUP2 ADD DUP5 DUP5 DUP5 ADD GT ISZERO PUSH2 0x2693 JUMPI PUSH2 0x2692 PUSH2 0x25A4 JUMP JUMPDEST JUMPDEST PUSH2 0x269E DUP5 DUP3 DUP6 PUSH2 0x2655 JUMP JUMPDEST POP SWAP4 SWAP3 POP POP POP JUMP JUMPDEST PUSH1 0x0 DUP3 PUSH1 0x1F DUP4 ADD SLT PUSH2 0x26BB JUMPI PUSH2 0x26BA PUSH2 0x259F JUMP JUMPDEST JUMPDEST DUP2 CALLDATALOAD PUSH2 0x26CB DUP5 DUP3 PUSH1 0x20 DUP7 ADD PUSH2 0x2664 JUMP JUMPDEST SWAP2 POP POP SWAP3 SWAP2 POP POP JUMP JUMPDEST PUSH1 0x0 DUP1 PUSH1 0x0 PUSH1 0x60 DUP5 DUP7 SUB SLT ISZERO PUSH2 0x26ED JUMPI PUSH2 0x26EC PUSH2 0x2427 JUMP JUMPDEST JUMPDEST PUSH1 0x0 DUP5 ADD CALLDATALOAD PUSH8 0xFFFFFFFFFFFFFFFF DUP2 GT ISZERO PUSH2 0x270B JUMPI PUSH2 0x270A PUSH2 0x242C JUMP JUMPDEST JUMPDEST PUSH2 0x2717 DUP7 DUP3 DUP8 ADD PUSH2 0x26A6 JUMP JUMPDEST SWAP4 POP POP PUSH1 0x20 PUSH2 0x2728 DUP7 DUP3 DUP8 ADD PUSH2 0x255D JUMP JUMPDEST SWAP3 POP POP PUSH1 0x40 PUSH2 0x2739 DUP7 DUP3 DUP8 ADD PUSH2 0x2452 JUMP JUMPDEST SWAP2 POP POP SWAP3 POP SWAP3 POP SWAP3 JUMP JUMPDEST PUSH1 0x0 PUSH8 0xFFFFFFFFFFFFFFFF DUP3 GT ISZERO PUSH2 0x275E JUMPI PUSH2 0x275D PUSH2 0x25A9 JUMP JUMPDEST JUMPDEST PUSH1 0x20 DUP3 MUL SWAP1 POP PUSH1 0x20 DUP2 ADD SWAP1 POP SWAP2 SWAP1 POP JUMP JUMPDEST PUSH1 0x0 DUP1 REVERT JUMPDEST PUSH1 0x0 PUSH2 0x2787 PUSH2 0x2782 DUP5 PUSH2 0x2743 JUMP JUMPDEST PUSH2 0x2609 JUMP JUMPDEST SWAP1 POP DUP1 DUP4 DUP3 MSTORE PUSH1 0x20 DUP3 ADD SWAP1 POP PUSH1 0x20 DUP5 MUL DUP4 ADD DUP6 DUP2 GT ISZERO PUSH2 0x27AA JUMPI PUSH2 0x27A9 PUSH2 0x276F JUMP JUMPDEST JUMPDEST DUP4 JUMPDEST DUP2 DUP2 LT ISZERO PUSH2 0x27D3 JUMPI DUP1 PUSH2 0x27BF DUP9 DUP3 PUSH2 0x255D JUMP JUMPDEST DUP5 MSTORE PUSH1 0x20 DUP5 ADD SWAP4 POP POP PUSH1 0x20 DUP2 ADD SWAP1 POP PUSH2 0x27AC JUMP JUMPDEST POP POP POP SWAP4 SWAP3 POP POP POP JUMP JUMPDEST PUSH1 0x0 DUP3 PUSH1 0x1F DUP4 ADD SLT PUSH2 0x27F2 JUMPI PUSH2 0x27F1 PUSH2 0x259F JUMP JUMPDEST JUMPDEST DUP2 CALLDATALOAD PUSH2 0x2802 DUP5 DUP3 PUSH1 0x20 DUP7 ADD PUSH2 0x2774 JUMP JUMPDEST SWAP2 POP POP SWAP3 SWAP2 POP POP JUMP JUMPDEST PUSH1 0x0 PUSH1 0x20 DUP3 DUP5 SUB SLT ISZERO PUSH2 0x2821 JUMPI PUSH2 0x2820 PUSH2 0x2427 JUMP JUMPDEST JUMPDEST PUSH1 0x0 DUP3 ADD CALLDATALOAD PUSH8 0xFFFFFFFFFFFFFFFF DUP2 GT ISZERO PUSH2 0x283F JUMPI PUSH2 0x283E PUSH2 0x242C JUMP JUMPDEST JUMPDEST PUSH2 0x284B DUP5 DUP3 DUP6 ADD PUSH2 0x27DD JUMP JUMPDEST SWAP2 POP POP SWAP3 SWAP2 POP POP JUMP JUMPDEST PUSH2 0x285D DUP2 PUSH2 0x2431 JUMP JUMPDEST DUP3 MSTORE POP POP JUMP JUMPDEST PUSH1 0x0 PUSH1 0x20 DUP3 ADD SWAP1 POP PUSH2 0x2878 PUSH1 0x0 DUP4 ADD DUP5 PUSH2 0x2854 JUMP JUMPDEST SWAP3 SWAP2 POP POP JUMP JUMPDEST PUSH1 0x0 PUSH1 0xA0 DUP3 ADD SWAP1 POP PUSH2 0x2893 PUSH1 0x0 DUP4 ADD DUP9 PUSH2 0x23F3 JUMP JUMPDEST PUSH2 0x28A0 PUSH1 0x20 DUP4 ADD DUP8 PUSH2 0x2854 JUMP JUMPDEST DUP2 DUP2 SUB PUSH1 0x40 DUP4 ADD MSTORE PUSH2 0x28B2 DUP2 DUP7 PUSH2 0x24EB JUMP JUMPDEST SWAP1 POP PUSH2 0x28C1 PUSH1 0x60 DUP4 ADD DUP6 PUSH2 0x23F3 JUMP JUMPDEST PUSH2 0x28CE PUSH1 0x80 DUP4 ADD DUP5 PUSH2 0x2854 JUMP JUMPDEST SWAP7 SWAP6 POP POP POP POP POP POP JUMP JUMPDEST PUSH1 0x0 DUP2 ISZERO ISZERO SWAP1 POP SWAP2 SWAP1 POP JUMP JUMPDEST PUSH2 0x28ED DUP2 PUSH2 0x28D8 JUMP JUMPDEST DUP3 MSTORE POP POP JUMP JUMPDEST PUSH1 0x0 PUSH1 0x20 DUP3 ADD SWAP1 POP PUSH2 0x2908 PUSH1 0x0 DUP4 ADD DUP5 PUSH2 0x28E4 JUMP JUMPDEST SWAP3 SWAP2 POP POP JUMP JUMPDEST PUSH2 0x2917 DUP2 PUSH2 0x2431 JUMP JUMPDEST DUP3 MSTORE POP POP JUMP JUMPDEST PUSH1 0x20 DUP3 ADD PUSH1 0x0 DUP3 ADD MLOAD PUSH2 0x2933 PUSH1 0x0 DUP6 ADD DUP3 PUSH2 0x290E JUMP JUMPDEST POP POP POP POP JUMP JUMPDEST PUSH1 0x0 PUSH1 0xE0 DUP3 ADD SWAP1 POP DUP2 DUP2 SUB PUSH1 0x0 DUP4 ADD MSTORE PUSH2 0x2953 DUP2 DUP11 PUSH2 0x24EB JUMP JUMPDEST SWAP1 POP PUSH2 0x2962 PUSH1 0x20 DUP4 ADD DUP10 PUSH2 0x23F3 JUMP JUMPDEST PUSH2 0x296F PUSH1 0x40 DUP4 ADD DUP9 PUSH2 0x23F3 JUMP JUMPDEST PUSH2 0x297C PUSH1 0x60 DUP4 ADD DUP8 PUSH2 0x2854 JUMP JUMPDEST PUSH2 0x2989 PUSH1 0x80 DUP4 ADD DUP7 PUSH2 0x2854 JUMP JUMPDEST PUSH2 0x2996 PUSH1 0xA0 DUP4 ADD DUP6 PUSH2 0x28E4 JUMP JUMPDEST PUSH2 0x29A3 PUSH1 0xC0 DUP4 ADD DUP5 PUSH2 0x291D JUMP JUMPDEST SWAP9 SWAP8 POP POP POP POP POP POP POP POP JUMP JUMPDEST PUSH1 0x0 DUP1 PUSH1 0x40 DUP4 DUP6 SUB SLT ISZERO PUSH2 0x29C6 JUMPI PUSH2 0x29C5 PUSH2 0x2427 JUMP JUMPDEST JUMPDEST PUSH1 0x0 PUSH2 0x29D4 DUP6 DUP3 DUP7 ADD PUSH2 0x2452 JUMP JUMPDEST SWAP3 POP POP PUSH1 0x20 PUSH2 0x29E5 DUP6 DUP3 DUP7 ADD PUSH2 0x255D JUMP JUMPDEST SWAP2 POP POP SWAP3 POP SWAP3 SWAP1 POP JUMP JUMPDEST PUSH1 0x0 DUP2 MLOAD SWAP1 POP SWAP2 SWAP1 POP JUMP JUMPDEST PUSH1 0x0 DUP3 DUP3 MSTORE PUSH1 0x20 DUP3 ADD SWAP1 POP SWAP3 SWAP2 POP POP JUMP JUMPDEST PUSH1 0x0 DUP2 SWAP1 POP PUSH1 0x20 DUP3 ADD SWAP1 POP SWAP2 SWAP1 POP JUMP JUMPDEST PUSH2 0x2A24 DUP2 PUSH2 0x23E1 JUMP JUMPDEST DUP3 MSTORE POP POP JUMP JUMPDEST PUSH1 0x0 PUSH2 0x2A36 DUP4 DUP4 PUSH2 0x2A1B JUMP JUMPDEST PUSH1 0x20 DUP4 ADD SWAP1 POP SWAP3 SWAP2 POP POP JUMP JUMPDEST PUSH1 0x0 PUSH1 0x20 DUP3 ADD SWAP1 POP SWAP2 SWAP1 POP JUMP JUMPDEST PUSH1 0x0 PUSH2 0x2A5A DUP3 PUSH2 0x29EF JUMP JUMPDEST PUSH2 0x2A64 DUP2 DUP6 PUSH2 0x29FA JUMP JUMPDEST SWAP4 POP PUSH2 0x2A6F DUP4 PUSH2 0x2A0B JUMP JUMPDEST DUP1 PUSH1 0x0 JUMPDEST DUP4 DUP2 LT ISZERO PUSH2 0x2AA0 JUMPI DUP2 MLOAD PUSH2 0x2A87 DUP9 DUP3 PUSH2 0x2A2A JUMP JUMPDEST SWAP8 POP PUSH2 0x2A92 DUP4 PUSH2 0x2A42 JUMP JUMPDEST SWAP3 POP POP PUSH1 0x1 DUP2 ADD SWAP1 POP PUSH2 0x2A73 JUMP JUMPDEST POP DUP6 SWAP4 POP POP POP POP SWAP3 SWAP2 POP POP JUMP JUMPDEST PUSH1 0x0 PUSH1 0x20 DUP3 ADD SWAP1 POP DUP2 DUP2 SUB PUSH1 0x0 DUP4 ADD MSTORE PUSH2 0x2AC7 DUP2 DUP5 PUSH2 0x2A4F JUMP JUMPDEST SWAP1 POP SWAP3 SWAP2 POP POP JUMP JUMPDEST PUSH1 0x0 DUP1 PUSH1 0x40 DUP4 DUP6 SUB SLT ISZERO PUSH2 0x2AE6 JUMPI PUSH2 0x2AE5 PUSH2 0x2427 JUMP JUMPDEST JUMPDEST PUSH1 0x0 PUSH2 0x2AF4 DUP6 DUP3 DUP7 ADD PUSH2 0x255D JUMP JUMPDEST SWAP3 POP POP PUSH1 0x20 PUSH2 0x2B05 DUP6 DUP3 DUP7 ADD PUSH2 0x2452 JUMP JUMPDEST SWAP2 POP POP SWAP3 POP SWAP3 SWAP1 POP JUMP JUMPDEST PUSH1 0x0 PUSH2 0x140 DUP3 ADD SWAP1 POP DUP2 DUP2 SUB PUSH1 0x0 DUP4 ADD MSTORE PUSH2 0x2B2A DUP2 DUP14 PUSH2 0x2A4F JUMP JUMPDEST SWAP1 POP PUSH2 0x2B39 PUSH1 0x20 DUP4 ADD DUP13 PUSH2 0x28E4 JUMP JUMPDEST DUP2 DUP2 SUB PUSH1 0x40 DUP4 ADD MSTORE PUSH2 0x2B4B DUP2 DUP12 PUSH2 0x2A4F JUMP JUMPDEST SWAP1 POP PUSH2 0x2B5A PUSH1 0x60 DUP4 ADD DUP11 PUSH2 0x2854 JUMP JUMPDEST PUSH2 0x2B67 PUSH1 0x80 DUP4 ADD DUP10 PUSH2 0x28E4 JUMP JUMPDEST PUSH2 0x2B74 PUSH1 0xA0 DUP4 ADD DUP9 PUSH2 0x28E4 JUMP JUMPDEST PUSH2 0x2B81 PUSH1 0xC0 DUP4 ADD DUP8 PUSH2 0x28E4 JUMP JUMPDEST PUSH2 0x2B8E PUSH1 0xE0 DUP4 ADD DUP7 PUSH2 0x28E4 JUMP JUMPDEST PUSH2 0x2B9C PUSH2 0x100 DUP4 ADD DUP6 PUSH2 0x2854 JUMP JUMPDEST PUSH2 0x2BAA PUSH2 0x120 DUP4 ADD DUP5 PUSH2 0x2854 JUMP JUMPDEST SWAP12 SWAP11 POP POP POP POP POP POP POP POP POP POP POP JUMP JUMPDEST PUSH32 0x5265656E7472616E637947756172643A207265656E7472616E742063616C6C00 PUSH1 0x0 DUP3 ADD MSTORE POP JUMP JUMPDEST PUSH1 0x0 PUSH2 0x2BEF PUSH1 0x1F DUP4 PUSH2 0x249F JUMP JUMPDEST SWAP2 POP PUSH2 0x2BFA DUP3 PUSH2 0x2BB9 JUMP JUMPDEST PUSH1 0x20 DUP3 ADD SWAP1 POP SWAP2 SWAP1 POP JUMP JUMPDEST PUSH1 0x0 PUSH1 0x20 DUP3 ADD SWAP1 POP DUP2 DUP2 SUB PUSH1 0x0 DUP4 ADD MSTORE PUSH2 0x2C1E DUP2 PUSH2 0x2BE2 JUMP JUMPDEST SWAP1 POP SWAP2 SWAP1 POP JUMP JUMPDEST PUSH32 0x4E487B7100000000000000000000000000000000000000000000000000000000 PUSH1 0x0 MSTORE PUSH1 0x32 PUSH1 0x4 MSTORE PUSH1 0x24 PUSH1 0x0 REVERT JUMPDEST PUSH32 0x4E6F206572657320656C20736F6C69636974616E7465206465206C6120736F6C PUSH1 0x0 DUP3 ADD MSTORE PUSH32 0x6963697475640000000000000000000000000000000000000000000000000000 PUSH1 0x20 DUP3 ADD MSTORE POP JUMP JUMPDEST PUSH1 0x0 PUSH2 0x2CB0 PUSH1 0x26 DUP4 PUSH2 0x249F JUMP JUMPDEST SWAP2 POP PUSH2 0x2CBB DUP3 PUSH2 0x2C54 JUMP JUMPDEST PUSH1 0x40 DUP3 ADD SWAP1 POP SWAP2 SWAP1 POP JUMP JUMPDEST PUSH1 0x0 PUSH1 0x20 DUP3 ADD SWAP1 POP DUP2 DUP2 SUB PUSH1 0x0 DUP4 ADD MSTORE PUSH2 0x2CDF DUP2 PUSH2 0x2CA3 JUMP JUMPDEST SWAP1 POP SWAP2 SWAP1 POP JUMP JUMPDEST PUSH32 0x4C6120736F6C696369747564207961206861207369646F20636F6D706C657461 PUSH1 0x0 DUP3 ADD MSTORE PUSH32 0x6461000000000000000000000000000000000000000000000000000000000000 PUSH1 0x20 DUP3 ADD MSTORE POP JUMP JUMPDEST PUSH1 0x0 PUSH2 0x2D42 PUSH1 0x22 DUP4 PUSH2 0x249F JUMP JUMPDEST SWAP2 POP PUSH2 0x2D4D DUP3 PUSH2 0x2CE6 JUMP JUMPDEST PUSH1 0x40 DUP3 ADD SWAP1 POP SWAP2 SWAP1 POP JUMP JUMPDEST PUSH1 0x0 PUSH1 0x20 DUP3 ADD SWAP1 POP DUP2 DUP2 SUB PUSH1 0x0 DUP4 ADD MSTORE PUSH2 0x2D71 DUP2 PUSH2 0x2D35 JUMP JUMPDEST SWAP1 POP SWAP2 SWAP1 POP JUMP JUMPDEST PUSH32 0x4E487B7100000000000000000000000000000000000000000000000000000000 PUSH1 0x0 MSTORE PUSH1 0x11 PUSH1 0x4 MSTORE PUSH1 0x24 PUSH1 0x0 REVERT JUMPDEST PUSH1 0x0 PUSH2 0x2DB2 DUP3 PUSH2 0x2431 JUMP JUMPDEST SWAP2 POP PUSH32 0xFFFFFFFFFFFFFFFFFFFFFFFFFFFFFFFFFFFFFFFFFFFFFFFFFFFFFFFFFFFFFFFF DUP3 SUB PUSH2 0x2DE4 JUMPI PUSH2 0x2DE3 PUSH2 0x2D78 JUMP JUMPDEST JUMPDEST PUSH1 0x1 DUP3 ADD SWAP1 POP SWAP2 SWAP1 POP JUMP JUMPDEST PUSH1 0x0 PUSH2 0x2DFA DUP3 PUSH2 0x2431 JUMP JUMPDEST SWAP2 POP PUSH2 0x2E05 DUP4 PUSH2 0x2431 JUMP JUMPDEST SWAP3 POP DUP2 PUSH32 0xFFFFFFFFFFFFFFFFFFFFFFFFFFFFFFFFFFFFFFFFFFFFFFFFFFFFFFFFFFFFFFFF DIV DUP4 GT DUP3 ISZERO ISZERO AND ISZERO PUSH2 0x2E3E JUMPI PUSH2 0x2E3D PUSH2 0x2D78 JUMP JUMPDEST JUMPDEST DUP3 DUP3 MUL SWAP1 POP SWAP3 SWAP2 POP POP JUMP JUMPDEST PUSH32 0x4E487B7100000000000000000000000000000000000000000000000000000000 PUSH1 0x0 MSTORE PUSH1 0x12 PUSH1 0x4 MSTORE PUSH1 0x24 PUSH1 0x0 REVERT JUMPDEST PUSH1 0x0 PUSH2 0x2E83 DUP3 PUSH2 0x2431 JUMP JUMPDEST SWAP2 POP PUSH2 0x2E8E DUP4 PUSH2 0x2431 JUMP JUMPDEST SWAP3 POP DUP3 PUSH2 0x2E9E JUMPI PUSH2 0x2E9D PUSH2 0x2E49 JUMP JUMPDEST JUMPDEST DUP3 DUP3 DIV SWAP1 POP SWAP3 SWAP2 POP POP JUMP JUMPDEST PUSH32 0x4C6120736F6C6963697475642061C3BA6E206E6F206861207369646F20617072 PUSH1 0x0 DUP3 ADD MSTORE PUSH32 0x6F62616461000000000000000000000000000000000000000000000000000000 PUSH1 0x20 DUP3 ADD MSTORE POP JUMP JUMPDEST PUSH1 0x0 PUSH2 0x2F05 PUSH1 0x25 DUP4 PUSH2 0x249F JUMP JUMPDEST SWAP2 POP PUSH2 0x2F10 DUP3 PUSH2 0x2EA9 JUMP JUMPDEST PUSH1 0x40 DUP3 ADD SWAP1 POP SWAP2 SWAP1 POP JUMP JUMPDEST PUSH1 0x0 PUSH1 0x20 DUP3 ADD SWAP1 POP DUP2 DUP2 SUB PUSH1 0x0 DUP4 ADD MSTORE PUSH2 0x2F34 DUP2 PUSH2 0x2EF8 JUMP JUMPDEST SWAP1 POP SWAP2 SWAP1 POP JUMP JUMPDEST PUSH32 0x4E487B7100000000000000000000000000000000000000000000000000000000 PUSH1 0x0 MSTORE PUSH1 0x22 PUSH1 0x4 MSTORE PUSH1 0x24 PUSH1 0x0 REVERT JUMPDEST PUSH1 0x0 PUSH1 0x2 DUP3 DIV SWAP1 POP PUSH1 0x1 DUP3 AND DUP1 PUSH2 0x2F82 JUMPI PUSH1 0x7F DUP3 AND SWAP2 POP JUMPDEST PUSH1 0x20 DUP3 LT DUP2 SUB PUSH2 0x2F95 JUMPI PUSH2 0x2F94 PUSH2 0x2F3B JUMP JUMPDEST JUMPDEST POP SWAP2 SWAP1 POP JUMP JUMPDEST PUSH32 0x4E6F2073652070756564656E20637265617220736F6C69636974756465730000 PUSH1 0x0 DUP3 ADD MSTORE POP JUMP JUMPDEST PUSH1 0x0 PUSH2 0x2FD1 PUSH1 0x1E DUP4 PUSH2 0x249F JUMP JUMPDEST SWAP2 POP PUSH2 0x2FDC DUP3 PUSH2 0x2F9B JUMP JUMPDEST PUSH1 0x20 DUP3 ADD SWAP1 POP SWAP2 SWAP1 POP JUMP JUMPDEST PUSH1 0x0 PUSH1 0x20 DUP3 ADD SWAP1 POP DUP2 DUP2 SUB PUSH1 0x0 DUP4 ADD MSTORE PUSH2 0x3000 DUP2 PUSH2 0x2FC4 JUMP JUMPDEST SWAP1 POP SWAP2 SWAP1 POP JUMP JUMPDEST PUSH32 0x536F6C6F206C6F732061646D696E6973747261646F7265732070756564656E20 PUSH1 0x0 DUP3 ADD MSTORE PUSH32 0x637265617220756E6120736F6C69636974756400000000000000000000000000 PUSH1 0x20 DUP3 ADD MSTORE POP JUMP JUMPDEST PUSH1 0x0 PUSH2 0x3063 PUSH1 0x33 DUP4 PUSH2 0x249F JUMP JUMPDEST SWAP2 POP PUSH2 0x306E DUP3 PUSH2 0x3007 JUMP JUMPDEST PUSH1 0x40 DUP3 ADD SWAP1 POP SWAP2 SWAP1 POP JUMP JUMPDEST PUSH1 0x0 PUSH1 0x20 DUP3 ADD SWAP1 POP DUP2 DUP2 SUB PUSH1 0x0 DUP4 ADD MSTORE PUSH2 0x3092 DUP2 PUSH2 0x3056 JUMP JUMPDEST SWAP1 POP SWAP2 SWAP1 POP JUMP JUMPDEST PUSH1 0x0 DUP2 SWAP1 POP DUP2 PUSH1 0x0 MSTORE PUSH1 0x20 PUSH1 0x0 KECCAK256 SWAP1 POP SWAP2 SWAP1 POP JUMP JUMPDEST PUSH1 0x0 PUSH1 0x20 PUSH1 0x1F DUP4 ADD DIV SWAP1 POP SWAP2 SWAP1 POP JUMP JUMPDEST PUSH1 0x0 DUP3 DUP3 SHL SWAP1 POP SWAP3 SWAP2 POP POP JUMP JUMPDEST PUSH1 0x0 PUSH1 0x8 DUP4 MUL PUSH2 0x30FB PUSH32 0xFFFFFFFFFFFFFFFFFFFFFFFFFFFFFFFFFFFFFFFFFFFFFFFFFFFFFFFFFFFFFFFF DUP3 PUSH2 0x30BE JUMP JUMPDEST PUSH2 0x3105 DUP7 DUP4 PUSH2 0x30BE JUMP JUMPDEST SWAP6 POP DUP1 NOT DUP5 AND SWAP4 POP DUP1 DUP7 AND DUP5 OR SWAP3 POP POP POP SWAP4 SWAP3 POP POP POP JUMP JUMPDEST PUSH1 0x0 DUP2 SWAP1 POP SWAP2 SWAP1 POP JUMP JUMPDEST PUSH1 0x0 PUSH2 0x3142 PUSH2 0x313D PUSH2 0x3138 DUP5 PUSH2 0x2431 JUMP JUMPDEST PUSH2 0x311D JUMP JUMPDEST PUSH2 0x2431 JUMP JUMPDEST SWAP1 POP SWAP2 SWAP1 POP JUMP JUMPDEST PUSH1 0x0 DUP2 SWAP1 POP SWAP2 SWAP1 POP JUMP JUMPDEST PUSH2 0x315C DUP4 PUSH2 0x3127 JUMP JUMPDEST PUSH2 0x3170 PUSH2 0x3168 DUP3 PUSH2 0x3149 JUMP JUMPDEST DUP5 DUP5 SLOAD PUSH2 0x30CB JUMP JUMPDEST DUP3 SSTORE POP POP POP POP JUMP JUMPDEST PUSH1 0x0 SWAP1 JUMP JUMPDEST PUSH2 0x3185 PUSH2 0x3178 JUMP JUMPDEST PUSH2 0x3190 DUP2 DUP5 DUP5 PUSH2 0x3153 JUMP JUMPDEST POP POP POP JUMP JUMPDEST JUMPDEST DUP2 DUP2 LT ISZERO PUSH2 0x31B4 JUMPI PUSH2 0x31A9 PUSH1 0x0 DUP3 PUSH2 0x317D JUMP JUMPDEST PUSH1 0x1 DUP2 ADD SWAP1 POP PUSH2 0x3196 JUMP JUMPDEST POP POP JUMP JUMPDEST PUSH1 0x1F DUP3 GT ISZERO PUSH2 0x31F9 JUMPI PUSH2 0x31CA DUP2 PUSH2 0x3099 JUMP JUMPDEST PUSH2 0x31D3 DUP5 PUSH2 0x30AE JUMP JUMPDEST DUP2 ADD PUSH1 0x20 DUP6 LT ISZERO PUSH2 0x31E2 JUMPI DUP2 SWAP1 POP JUMPDEST PUSH2 0x31F6 PUSH2 0x31EE DUP6 PUSH2 0x30AE JUMP JUMPDEST DUP4 ADD DUP3 PUSH2 0x3195 JUMP JUMPDEST POP POP JUMPDEST POP POP POP JUMP JUMPDEST PUSH1 0x0 DUP3 DUP3 SHR SWAP1 POP SWAP3 SWAP2 POP POP JUMP JUMPDEST PUSH1 0x0 PUSH2 0x321C PUSH1 0x0 NOT DUP5 PUSH1 0x8 MUL PUSH2 0x31FE JUMP JUMPDEST NOT DUP1 DUP4 AND SWAP2 POP POP SWAP3 SWAP2 POP POP JUMP JUMPDEST PUSH1 0x0 PUSH2 0x3235 DUP4 DUP4 PUSH2 0x320B JUMP JUMPDEST SWAP2 POP DUP3 PUSH1 0x2 MUL DUP3 OR SWAP1 POP SWAP3 SWAP2 POP POP JUMP JUMPDEST PUSH2 0x324E DUP3 PUSH2 0x2494 JUMP JUMPDEST PUSH8 0xFFFFFFFFFFFFFFFF DUP2 GT ISZERO PUSH2 0x3267 JUMPI PUSH2 0x3266 PUSH2 0x25A9 JUMP JUMPDEST JUMPDEST PUSH2 0x3271 DUP3 SLOAD PUSH2 0x2F6A JUMP JUMPDEST PUSH2 0x327C DUP3 DUP3 DUP6 PUSH2 0x31B8 JUMP JUMPDEST PUSH1 0x0 PUSH1 0x20 SWAP1 POP PUSH1 0x1F DUP4 GT PUSH1 0x1 DUP2 EQ PUSH2 0x32AF JUMPI PUSH1 0x0 DUP5 ISZERO PUSH2 0x329D JUMPI DUP3 DUP8 ADD MLOAD SWAP1 POP JUMPDEST PUSH2 0x32A7 DUP6 DUP3 PUSH2 0x3229 JUMP JUMPDEST DUP7 SSTORE POP PUSH2 0x330F JUMP JUMPDEST PUSH1 0x1F NOT DUP5 AND PUSH2 0x32BD DUP7 PUSH2 0x3099 JUMP JUMPDEST PUSH1 0x0 JUMPDEST DUP3 DUP2 LT ISZERO PUSH2 0x32E5 JUMPI DUP5 DUP10 ADD MLOAD DUP3 SSTORE PUSH1 0x1 DUP3 ADD SWAP2 POP PUSH1 0x20 DUP6 ADD SWAP5 POP PUSH1 0x20 DUP2 ADD SWAP1 POP PUSH2 0x32C0 JUMP JUMPDEST DUP7 DUP4 LT ISZERO PUSH2 0x3302 JUMPI DUP5 DUP10 ADD MLOAD PUSH2 0x32FE PUSH1 0x1F DUP10 AND DUP3 PUSH2 0x320B JUMP JUMPDEST DUP4 SSTORE POP JUMPDEST PUSH1 0x1 PUSH1 0x2 DUP9 MUL ADD DUP9 SSTORE POP POP POP JUMPDEST POP POP POP POP POP POP JUMP JUMPDEST PUSH1 0x0 PUSH1 0x40 DUP3 ADD SWAP1 POP DUP2 DUP2 SUB PUSH1 0x0 DUP4 ADD MSTORE PUSH2 0x3331 DUP2 DUP6 PUSH2 0x24EB JUMP JUMPDEST SWAP1 POP PUSH2 0x3340 PUSH1 0x20 DUP4 ADD DUP5 PUSH2 0x2854 JUMP JUMPDEST SWAP4 SWAP3 POP POP POP JUMP JUMPDEST PUSH32 0x4E6F2073652070756564656E2061677265676172206E7565766F732061646D69 PUSH1 0x0 DUP3 ADD MSTORE PUSH32 0x6E6973747261646F726573000000000000000000000000000000000000000000 PUSH1 0x20 DUP3 ADD MSTORE POP JUMP JUMPDEST PUSH1 0x0 PUSH2 0x33A3 PUSH1 0x2B DUP4 PUSH2 0x249F JUMP JUMPDEST SWAP2 POP PUSH2 0x33AE DUP3 PUSH2 0x3347 JUMP JUMPDEST PUSH1 0x40 DUP3 ADD SWAP1 POP SWAP2 SWAP1 POP JUMP JUMPDEST PUSH1 0x0 PUSH1 0x20 DUP3 ADD SWAP1 POP DUP2 DUP2 SUB PUSH1 0x0 DUP4 ADD MSTORE PUSH2 0x33D2 DUP2 PUSH2 0x3396 JUMP JUMPDEST SWAP1 POP SWAP2 SWAP1 POP JUMP JUMPDEST PUSH32 0x536F6C6F206C6F732061646D696E6973747261646F7265732070756564656E20 PUSH1 0x0 DUP3 ADD MSTORE PUSH32 0x6163636564657200000000000000000000000000000000000000000000000000 PUSH1 0x20 DUP3 ADD MSTORE POP JUMP JUMPDEST PUSH1 0x0 PUSH2 0x3435 PUSH1 0x27 DUP4 PUSH2 0x249F JUMP JUMPDEST SWAP2 POP PUSH2 0x3440 DUP3 PUSH2 0x33D9 JUMP JUMPDEST PUSH1 0x40 DUP3 ADD SWAP1 POP SWAP2 SWAP1 POP JUMP JUMPDEST PUSH1 0x0 PUSH1 0x20 DUP3 ADD SWAP1 POP DUP2 DUP2 SUB PUSH1 0x0 DUP4 ADD MSTORE PUSH2 0x3464 DUP2 PUSH2 0x3428 JUMP JUMPDEST SWAP1 POP SWAP2 SWAP1 POP JUMP JUMPDEST PUSH32 0x5469656E65732071756520656E7669617220756E61206F206DC3A17320646972 PUSH1 0x0 DUP3 ADD MSTORE PUSH32 0x656363696F6E6573000000000000000000000000000000000000000000000000 PUSH1 0x20 DUP3 ADD MSTORE POP JUMP JUMPDEST PUSH1 0x0 PUSH2 0x34C7 PUSH1 0x28 DUP4 PUSH2 0x249F JUMP JUMPDEST SWAP2 POP PUSH2 0x34D2 DUP3 PUSH2 0x346B JUMP JUMPDEST PUSH1 0x40 DUP3 ADD SWAP1 POP SWAP2 SWAP1 POP JUMP JUMPDEST PUSH1 0x0 PUSH1 0x20 DUP3 ADD SWAP1 POP DUP2 DUP2 SUB PUSH1 0x0 DUP4 ADD MSTORE PUSH2 0x34F6 DUP2 PUSH2 0x34BA JUMP JUMPDEST SWAP1 POP SWAP2 SWAP1 POP JUMP JUMPDEST PUSH32 0x4C6F732061646D696E6973747261646F726573206E6F2070756564656E207472 PUSH1 0x0 DUP3 ADD MSTORE PUSH32 0x616E7366657269722064696E65726F2073696E20756E6120736F6C6963697475 PUSH1 0x20 DUP3 ADD MSTORE PUSH32 0x6400000000000000000000000000000000000000000000000000000000000000 PUSH1 0x40 DUP3 ADD MSTORE POP JUMP JUMPDEST PUSH1 0x0 PUSH2 0x357F PUSH1 0x41 DUP4 PUSH2 0x249F JUMP JUMPDEST SWAP2 POP PUSH2 0x358A DUP3 PUSH2 0x34FD JUMP JUMPDEST PUSH1 0x60 DUP3 ADD SWAP1 POP SWAP2 SWAP1 POP JUMP JUMPDEST PUSH1 0x0 PUSH1 0x20 DUP3 ADD SWAP1 POP DUP2 DUP2 SUB PUSH1 0x0 DUP4 ADD MSTORE PUSH2 0x35AE DUP2 PUSH2 0x3572 JUMP JUMPDEST SWAP1 POP SWAP2 SWAP1 POP JUMP JUMPDEST PUSH32 0x596120686173206170726F6261646F206573746120736F6C6963697475640000 PUSH1 0x0 DUP3 ADD MSTORE POP JUMP JUMPDEST PUSH1 0x0 PUSH2 0x35EB PUSH1 0x1E DUP4 PUSH2 0x249F JUMP JUMPDEST SWAP2 POP PUSH2 0x35F6 DUP3 PUSH2 0x35B5 JUMP JUMPDEST PUSH1 0x20 DUP3 ADD SWAP1 POP SWAP2 SWAP1 POP JUMP JUMPDEST PUSH1 0x0 PUSH1 0x20 DUP3 ADD SWAP1 POP DUP2 DUP2 SUB PUSH1 0x0 DUP4 ADD MSTORE PUSH2 0x361A DUP2 PUSH2 0x35DE JUMP JUMPDEST SWAP1 POP SWAP2 SWAP1 POP JUMP JUMPDEST PUSH32 0x4E6F20616C63616E7A617320656C20706F7263656E74616A65206DC3AD6E696D PUSH1 0x0 DUP3 ADD MSTORE PUSH32 0x6F20646520636F6E74726962756369C3B36E20792F6F206E6F20657265732061 PUSH1 0x20 DUP3 ADD MSTORE PUSH32 0x646D696E6973747261646F720000000000000000000000000000000000000000 PUSH1 0x40 DUP3 ADD MSTORE POP JUMP JUMPDEST PUSH1 0x0 PUSH2 0x36A3 PUSH1 0x4C DUP4 PUSH2 0x249F JUMP JUMPDEST SWAP2 POP PUSH2 0x36AE DUP3 PUSH2 0x3621 JUMP JUMPDEST PUSH1 0x60 DUP3 ADD SWAP1 POP SWAP2 SWAP1 POP JUMP JUMPDEST PUSH1 0x0 PUSH1 0x20 DUP3 ADD SWAP1 POP DUP2 DUP2 SUB PUSH1 0x0 DUP4 ADD MSTORE PUSH2 0x36D2 DUP2 PUSH2 0x3696 JUMP JUMPDEST SWAP1 POP SWAP2 SWAP1 POP JUMP JUMPDEST PUSH32 0x4C6F732061646D696E6973747261646F726573206E6F2070756564656E207365 PUSH1 0x0 DUP3 ADD MSTORE PUSH32 0x7220656C696D696E61646F730000000000000000000000000000000000000000 PUSH1 0x20 DUP3 ADD MSTORE POP JUMP JUMPDEST PUSH1 0x0 PUSH2 0x3735 PUSH1 0x2C DUP4 PUSH2 0x249F JUMP JUMPDEST SWAP2 POP PUSH2 0x3740 DUP3 PUSH2 0x36D9 JUMP JUMPDEST PUSH1 0x40 DUP3 ADD SWAP1 POP SWAP2 SWAP1 POP JUMP JUMPDEST PUSH1 0x0 PUSH1 0x20 DUP3 ADD SWAP1 POP DUP2 DUP2 SUB PUSH1 0x0 DUP4 ADD MSTORE PUSH2 0x3764 DUP2 PUSH2 0x3728 JUMP JUMPDEST SWAP1 POP SWAP2 SWAP1 POP JUMP JUMPDEST PUSH32 0x4E6F2068616272C3AD61206D616E657261206465207265746972617220656C20 PUSH1 0x0 DUP3 ADD MSTORE PUSH32 0x64696E65726F2064656C20636F6E747261746F00000000000000000000000000 PUSH1 0x20 DUP3 ADD MSTORE POP JUMP JUMPDEST PUSH1 0x0 PUSH2 0x37C7 PUSH1 0x33 DUP4 PUSH2 0x249F JUMP JUMPDEST SWAP2 POP PUSH2 0x37D2 DUP3 PUSH2 0x376B JUMP JUMPDEST PUSH1 0x40 DUP3 ADD SWAP1 POP SWAP2 SWAP1 POP JUMP JUMPDEST PUSH1 0x0 PUSH1 0x20 DUP3 ADD SWAP1 POP DUP2 DUP2 SUB PUSH1 0x0 DUP4 ADD MSTORE PUSH2 0x37F6 DUP2 PUSH2 0x37BA JUMP JUMPDEST SWAP1 POP SWAP2 SWAP1 POP JUMP JUMPDEST PUSH32 0x4E487B7100000000000000000000000000000000000000000000000000000000 PUSH1 0x0 MSTORE PUSH1 0x31 PUSH1 0x4 MSTORE PUSH1 0x24 PUSH1 0x0 REVERT JUMPDEST PUSH32 0x4C6120636F6E74726962756369C3B36E206465626520736572206D61796F7220 PUSH1 0x0 DUP3 ADD MSTORE PUSH32 0x61206365726F0000000000000000000000000000000000000000000000000000 PUSH1 0x20 DUP3 ADD MSTORE POP JUMP JUMPDEST PUSH1 0x0 PUSH2 0x3888 PUSH1 0x26 DUP4 PUSH2 0x249F JUMP JUMPDEST SWAP2 POP PUSH2 0x3893 DUP3 PUSH2 0x382C JUMP JUMPDEST PUSH1 0x40 DUP3 ADD SWAP1 POP SWAP2 SWAP1 POP JUMP JUMPDEST PUSH1 0x0 PUSH1 0x20 DUP3 ADD SWAP1 POP DUP2 DUP2 SUB PUSH1 0x0 DUP4 ADD MSTORE PUSH2 0x38B7 DUP2 PUSH2 0x387B JUMP JUMPDEST SWAP1 POP SWAP2 SWAP1 POP JUMP JUMPDEST PUSH1 0x0 PUSH2 0x38C9 DUP3 PUSH2 0x2431 JUMP JUMPDEST SWAP2 POP PUSH2 0x38D4 DUP4 PUSH2 0x2431 JUMP JUMPDEST SWAP3 POP DUP3 DUP3 ADD SWAP1 POP DUP1 DUP3 GT ISZERO PUSH2 0x38EC JUMPI PUSH2 0x38EB PUSH2 0x2D78 JUMP JUMPDEST JUMPDEST SWAP3 SWAP2 POP POP JUMP INVALID LOG2 PUSH5 0x6970667358 0x22 SLT KECCAK256 PUSH14 0xAAE9ECF98A56C32CEB67F00B034E PUSH23 0x48B527F10A89D43E3C7F62B8E1EA74A264736F6C634300 ADDMOD LT STOP CALLER LOG2 PUSH5 0x6970667358 0x22 SLT KECCAK256 LOG4 LOG3 MOD 0xF8 PUSH27 0xAAE6D8B3DE6C530CEA3CA50C36EE16EDB3F4852FE0440497364016 PUSH5 0x736F6C6343 STOP ADDMOD LT STOP CALLER PUSH1 0x80 PUSH1 0x40 MSTORE CALLVALUE DUP1 ISZERO PUSH3 0x11 JUMPI PUSH1 0x0 DUP1 REVERT JUMPDEST POP PUSH1 0x40 MLOAD DUP1 PUSH1 0x40 ADD PUSH1 0x40 MSTORE DUP1 PUSH1 0xA DUP2 MSTORE PUSH1 0x20 ADD PUSH32 0x46756E6420546F6B656E00000000000000000000000000000000000000000000 DUP2 MSTORE POP PUSH1 0x40 MLOAD DUP1 PUSH1 0x40 ADD PUSH1 0x40 MSTORE DUP1 PUSH1 0x2 DUP2 MSTORE PUSH1 0x20 ADD PUSH32 0x4654000000000000000000000000000000000000000000000000000000000000 DUP2 MSTORE POP PUSH3 0x9E PUSH3 0x92 PUSH3 0xCA PUSH1 0x20 SHL PUSH1 0x20 SHR JUMP JUMPDEST PUSH3 0xD2 PUSH1 0x20 SHL PUSH1 0x20 SHR JUMP JUMPDEST DUP2 PUSH1 0x4 SWAP1 DUP2 PUSH3 0xAF SWAP2 SWAP1 PUSH3 0x410 JUMP JUMPDEST POP DUP1 PUSH1 0x5 SWAP1 DUP2 PUSH3 0xC1 SWAP2 SWAP1 PUSH3 0x410 JUMP JUMPDEST POP POP POP PUSH3 0x4F7 JUMP JUMPDEST PUSH1 0x0 CALLER SWAP1 POP SWAP1 JUMP JUMPDEST PUSH1 0x0 DUP1 PUSH1 0x0 SWAP1 SLOAD SWAP1 PUSH2 0x100 EXP SWAP1 DIV PUSH20 0xFFFFFFFFFFFFFFFFFFFFFFFFFFFFFFFFFFFFFFFF AND SWAP1 POP DUP2 PUSH1 0x0 DUP1 PUSH2 0x100 EXP DUP2 SLOAD DUP2 PUSH20 0xFFFFFFFFFFFFFFFFFFFFFFFFFFFFFFFFFFFFFFFF MUL NOT AND SWAP1 DUP4 PUSH20 0xFFFFFFFFFFFFFFFFFFFFFFFFFFFFFFFFFFFFFFFF AND MUL OR SWAP1 SSTORE POP DUP2 PUSH20 0xFFFFFFFFFFFFFFFFFFFFFFFFFFFFFFFFFFFFFFFF AND DUP2 PUSH20 0xFFFFFFFFFFFFFFFFFFFFFFFFFFFFFFFFFFFFFFFF AND PUSH32 0x8BE0079C531659141344CD1FD0A4F28419497F9722A3DAAFE3B4186F6B6457E0 PUSH1 0x40 MLOAD PUSH1 0x40 MLOAD DUP1 SWAP2 SUB SWAP1 LOG3 POP POP JUMP JUMPDEST PUSH1 0x0 DUP2 MLOAD SWAP1 POP SWAP2 SWAP1 POP JUMP JUMPDEST PUSH32 0x4E487B7100000000000000000000000000000000000000000000000000000000 PUSH1 0x0 MSTORE PUSH1 0x41 PUSH1 0x4 MSTORE PUSH1 0x24 PUSH1 0x0 REVERT JUMPDEST PUSH32 0x4E487B7100000000000000000000000000000000000000000000000000000000 PUSH1 0x0 MSTORE PUSH1 0x22 PUSH1 0x4 MSTORE PUSH1 0x24 PUSH1 0x0 REVERT JUMPDEST PUSH1 0x0 PUSH1 0x2 DUP3 DIV SWAP1 POP PUSH1 0x1 DUP3 AND DUP1 PUSH3 0x218 JUMPI PUSH1 0x7F DUP3 AND SWAP2 POP JUMPDEST PUSH1 0x20 DUP3 LT DUP2 SUB PUSH3 0x22E JUMPI PUSH3 0x22D PUSH3 0x1D0 JUMP JUMPDEST JUMPDEST POP SWAP2 SWAP1 POP JUMP JUMPDEST PUSH1 0x0 DUP2 SWAP1 POP DUP2 PUSH1 0x0 MSTORE PUSH1 0x20 PUSH1 0x0 KECCAK256 SWAP1 POP SWAP2 SWAP1 POP JUMP JUMPDEST PUSH1 0x0 PUSH1 0x20 PUSH1 0x1F DUP4 ADD DIV SWAP1 POP SWAP2 SWAP1 POP JUMP JUMPDEST PUSH1 0x0 DUP3 DUP3 SHL SWAP1 POP SWAP3 SWAP2 POP POP JUMP JUMPDEST PUSH1 0x0 PUSH1 0x8 DUP4 MUL PUSH3 0x298 PUSH32 0xFFFFFFFFFFFFFFFFFFFFFFFFFFFFFFFFFFFFFFFFFFFFFFFFFFFFFFFFFFFFFFFF DUP3 PUSH3 0x259 JUMP JUMPDEST PUSH3 0x2A4 DUP7 DUP4 PUSH3 0x259 JUMP JUMPDEST SWAP6 POP DUP1 NOT DUP5 AND SWAP4 POP DUP1 DUP7 AND DUP5 OR SWAP3 POP POP POP SWAP4 SWAP3 POP POP POP JUMP JUMPDEST PUSH1 0x0 DUP2 SWAP1 POP SWAP2 SWAP1 POP JUMP JUMPDEST PUSH1 0x0 DUP2 SWAP1 POP SWAP2 SWAP1 POP JUMP JUMPDEST PUSH1 0x0 PUSH3 0x2F1 PUSH3 0x2EB PUSH3 0x2E5 DUP5 PUSH3 0x2BC JUMP JUMPDEST PUSH3 0x2C6 JUMP JUMPDEST PUSH3 0x2BC JUMP JUMPDEST SWAP1 POP SWAP2 SWAP1 POP JUMP JUMPDEST PUSH1 0x0 DUP2 SWAP1 POP SWAP2 SWAP1 POP JUMP JUMPDEST PUSH3 0x30D DUP4 PUSH3 0x2D0 JUMP JUMPDEST PUSH3 0x325 PUSH3 0x31C DUP3 PUSH3 0x2F8 JUMP JUMPDEST DUP5 DUP5 SLOAD PUSH3 0x266 JUMP JUMPDEST DUP3 SSTORE POP POP POP POP JUMP JUMPDEST PUSH1 0x0 SWAP1 JUMP JUMPDEST PUSH3 0x33C PUSH3 0x32D JUMP JUMPDEST PUSH3 0x349 DUP2 DUP5 DUP5 PUSH3 0x302 JUMP JUMPDEST POP POP POP JUMP JUMPDEST JUMPDEST DUP2 DUP2 LT ISZERO PUSH3 0x371 JUMPI PUSH3 0x365 PUSH1 0x0 DUP3 PUSH3 0x332 JUMP JUMPDEST PUSH1 0x1 DUP2 ADD SWAP1 POP PUSH3 0x34F JUMP JUMPDEST POP POP JUMP JUMPDEST PUSH1 0x1F DUP3 GT ISZERO PUSH3 0x3C0 JUMPI PUSH3 0x38A DUP2 PUSH3 0x234 JUMP JUMPDEST PUSH3 0x395 DUP5 PUSH3 0x249 JUMP JUMPDEST DUP2 ADD PUSH1 0x20 DUP6 LT ISZERO PUSH3 0x3A5 JUMPI DUP2 SWAP1 POP JUMPDEST PUSH3 0x3BD PUSH3 0x3B4 DUP6 PUSH3 0x249 JUMP JUMPDEST DUP4 ADD DUP3 PUSH3 0x34E JUMP JUMPDEST POP POP JUMPDEST POP POP POP JUMP JUMPDEST PUSH1 0x0 DUP3 DUP3 SHR SWAP1 POP SWAP3 SWAP2 POP POP JUMP JUMPDEST PUSH1 0x0 PUSH3 0x3E5 PUSH1 0x0 NOT DUP5 PUSH1 0x8 MUL PUSH3 0x3C5 JUMP JUMPDEST NOT DUP1 DUP4 AND SWAP2 POP POP SWAP3 SWAP2 POP POP JUMP JUMPDEST PUSH1 0x0 PUSH3 0x400 DUP4 DUP4 PUSH3 0x3D2 JUMP JUMPDEST SWAP2 POP DUP3 PUSH1 0x2 MUL DUP3 OR SWAP1 POP SWAP3 SWAP2 POP POP JUMP JUMPDEST PUSH3 0x41B DUP3 PUSH3 0x196 JUMP JUMPDEST PUSH8 0xFFFFFFFFFFFFFFFF DUP2 GT ISZERO PUSH3 0x437 JUMPI PUSH3 0x436 PUSH3 0x1A1 JUMP JUMPDEST JUMPDEST PUSH3 0x443 DUP3 SLOAD PUSH3 0x1FF JUMP JUMPDEST PUSH3 0x450 DUP3 DUP3 DUP6 PUSH3 0x375 JUMP JUMPDEST PUSH1 0x0 PUSH1 0x20 SWAP1 POP PUSH1 0x1F DUP4 GT PUSH1 0x1 DUP2 EQ PUSH3 0x488 JUMPI PUSH1 0x0 DUP5 ISZERO PUSH3 0x473 JUMPI DUP3 DUP8 ADD MLOAD SWAP1 POP JUMPDEST PUSH3 0x47F DUP6 DUP3 PUSH3 0x3F2 JUMP JUMPDEST DUP7 SSTORE POP PUSH3 0x4EF JUMP JUMPDEST PUSH1 0x1F NOT DUP5 AND PUSH3 0x498 DUP7 PUSH3 0x234 JUMP JUMPDEST PUSH1 0x0 JUMPDEST DUP3 DUP2 LT ISZERO PUSH3 0x4C2 JUMPI DUP5 DUP10 ADD MLOAD DUP3 SSTORE PUSH1 0x1 DUP3 ADD SWAP2 POP PUSH1 0x20 DUP6 ADD SWAP5 POP PUSH1 0x20 DUP2 ADD SWAP1 POP PUSH3 0x49B JUMP JUMPDEST DUP7 DUP4 LT ISZERO PUSH3 0x4E2 JUMPI DUP5 DUP10 ADD MLOAD PUSH3 0x4DE PUSH1 0x1F DUP10 AND DUP3 PUSH3 0x3D2 JUMP JUMPDEST DUP4 SSTORE POP JUMPDEST PUSH1 0x1 PUSH1 0x2 DUP9 MUL ADD DUP9 SSTORE POP POP POP JUMPDEST POP POP POP POP POP POP JUMP JUMPDEST PUSH2 0x1B5D DUP1 PUSH3 0x507 PUSH1 0x0 CODECOPY PUSH1 0x0 RETURN INVALID PUSH1 0x80 PUSH1 0x40 MSTORE CALLVALUE DUP1 ISZERO PUSH2 0x10 JUMPI PUSH1 0x0 DUP1 REVERT JUMPDEST POP PUSH1 0x4 CALLDATASIZE LT PUSH2 0x100 JUMPI PUSH1 0x0 CALLDATALOAD PUSH1 0xE0 SHR DUP1 PUSH4 0x715018A6 GT PUSH2 0x97 JUMPI DUP1 PUSH4 0xA457C2D7 GT PUSH2 0x66 JUMPI DUP1 PUSH4 0xA457C2D7 EQ PUSH2 0x29D JUMPI DUP1 PUSH4 0xA9059CBB EQ PUSH2 0x2CD JUMPI DUP1 PUSH4 0xDD62ED3E EQ PUSH2 0x2FD JUMPI DUP1 PUSH4 0xF2FDE38B EQ PUSH2 0x32D JUMPI PUSH2 0x100 JUMP JUMPDEST DUP1 PUSH4 0x715018A6 EQ PUSH2 0x23B JUMPI DUP1 PUSH4 0x8DA5CB5B EQ PUSH2 0x245 JUMPI DUP1 PUSH4 0x95D89B41 EQ PUSH2 0x263 JUMPI DUP1 PUSH4 0x9DC29FAC EQ PUSH2 0x281 JUMPI PUSH2 0x100 JUMP JUMPDEST DUP1 PUSH4 0x313CE567 GT PUSH2 0xD3 JUMPI DUP1 PUSH4 0x313CE567 EQ PUSH2 0x1A1 JUMPI DUP1 PUSH4 0x39509351 EQ PUSH2 0x1BF JUMPI DUP1 PUSH4 0x40C10F19 EQ PUSH2 0x1EF JUMPI DUP1 PUSH4 0x70A08231 EQ PUSH2 0x20B JUMPI PUSH2 0x100 JUMP JUMPDEST DUP1 PUSH4 0x6FDDE03 EQ PUSH2 0x105 JUMPI DUP1 PUSH4 0x95EA7B3 EQ PUSH2 0x123 JUMPI DUP1 PUSH4 0x18160DDD EQ PUSH2 0x153 JUMPI DUP1 PUSH4 0x23B872DD EQ PUSH2 0x171 JUMPI JUMPDEST PUSH1 0x0 DUP1 REVERT JUMPDEST PUSH2 0x10D PUSH2 0x349 JUMP JUMPDEST PUSH1 0x40 MLOAD PUSH2 0x11A SWAP2 SWAP1 PUSH2 0x114E JUMP JUMPDEST PUSH1 0x40 MLOAD DUP1 SWAP2 SUB SWAP1 RETURN JUMPDEST PUSH2 0x13D PUSH1 0x4 DUP1 CALLDATASIZE SUB DUP2 ADD SWAP1 PUSH2 0x138 SWAP2 SWAP1 PUSH2 0x1209 JUMP JUMPDEST PUSH2 0x3DB JUMP JUMPDEST PUSH1 0x40 MLOAD PUSH2 0x14A SWAP2 SWAP1 PUSH2 0x1264 JUMP JUMPDEST PUSH1 0x40 MLOAD DUP1 SWAP2 SUB SWAP1 RETURN JUMPDEST PUSH2 0x15B PUSH2 0x3FE JUMP JUMPDEST PUSH1 0x40 MLOAD PUSH2 0x168 SWAP2 SWAP1 PUSH2 0x128E JUMP JUMPDEST PUSH1 0x40 MLOAD DUP1 SWAP2 SUB SWAP1 RETURN JUMPDEST PUSH2 0x18B PUSH1 0x4 DUP1 CALLDATASIZE SUB DUP2 ADD SWAP1 PUSH2 0x186 SWAP2 SWAP1 PUSH2 0x12A9 JUMP JUMPDEST PUSH2 0x408 JUMP JUMPDEST PUSH1 0x40 MLOAD PUSH2 0x198 SWAP2 SWAP1 PUSH2 0x1264 JUMP JUMPDEST PUSH1 0x40 MLOAD DUP1 SWAP2 SUB SWAP1 RETURN JUMPDEST PUSH2 0x1A9 PUSH2 0x437 JUMP JUMPDEST PUSH1 0x40 MLOAD PUSH2 0x1B6 SWAP2 SWAP1 PUSH2 0x1318 JUMP JUMPDEST PUSH1 0x40 MLOAD DUP1 SWAP2 SUB SWAP1 RETURN JUMPDEST PUSH2 0x1D9 PUSH1 0x4 DUP1 CALLDATASIZE SUB DUP2 ADD SWAP1 PUSH2 0x1D4 SWAP2 SWAP1 PUSH2 0x1209 JUMP JUMPDEST PUSH2 0x43C JUMP JUMPDEST PUSH1 0x40 MLOAD PUSH2 0x1E6 SWAP2 SWAP1 PUSH2 0x1264 JUMP JUMPDEST PUSH1 0x40 MLOAD DUP1 SWAP2 SUB SWAP1 RETURN JUMPDEST PUSH2 0x209 PUSH1 0x4 DUP1 CALLDATASIZE SUB DUP2 ADD SWAP1 PUSH2 0x204 SWAP2 SWAP1 PUSH2 0x1209 JUMP JUMPDEST PUSH2 0x473 JUMP JUMPDEST STOP JUMPDEST PUSH2 0x225 PUSH1 0x4 DUP1 CALLDATASIZE SUB DUP2 ADD SWAP1 PUSH2 0x220 SWAP2 SWAP1 PUSH2 0x1333 JUMP JUMPDEST PUSH2 0x489 JUMP JUMPDEST PUSH1 0x40 MLOAD PUSH2 0x232 SWAP2 SWAP1 PUSH2 0x128E JUMP JUMPDEST PUSH1 0x40 MLOAD DUP1 SWAP2 SUB SWAP1 RETURN JUMPDEST PUSH2 0x243 PUSH2 0x4D2 JUMP JUMPDEST STOP JUMPDEST PUSH2 0x24D PUSH2 0x4E6 JUMP JUMPDEST PUSH1 0x40 MLOAD PUSH2 0x25A SWAP2 SWAP1 PUSH2 0x136F JUMP JUMPDEST PUSH1 0x40 MLOAD DUP1 SWAP2 SUB SWAP1 RETURN JUMPDEST PUSH2 0x26B PUSH2 0x50F JUMP JUMPDEST PUSH1 0x40 MLOAD PUSH2 0x278 SWAP2 SWAP1 PUSH2 0x114E JUMP JUMPDEST PUSH1 0x40 MLOAD DUP1 SWAP2 SUB SWAP1 RETURN JUMPDEST PUSH2 0x29B PUSH1 0x4 DUP1 CALLDATASIZE SUB DUP2 ADD SWAP1 PUSH2 0x296 SWAP2 SWAP1 PUSH2 0x1209 JUMP JUMPDEST PUSH2 0x5A1 JUMP JUMPDEST STOP JUMPDEST PUSH2 0x2B7 PUSH1 0x4 DUP1 CALLDATASIZE SUB DUP2 ADD SWAP1 PUSH2 0x2B2 SWAP2 SWAP1 PUSH2 0x1209 JUMP JUMPDEST PUSH2 0x5B7 JUMP JUMPDEST PUSH1 0x40 MLOAD PUSH2 0x2C4 SWAP2 SWAP1 PUSH2 0x1264 JUMP JUMPDEST PUSH1 0x40 MLOAD DUP1 SWAP2 SUB SWAP1 RETURN JUMPDEST PUSH2 0x2E7 PUSH1 0x4 DUP1 CALLDATASIZE SUB DUP2 ADD SWAP1 PUSH2 0x2E2 SWAP2 SWAP1 PUSH2 0x1209 JUMP JUMPDEST PUSH2 0x62E JUMP JUMPDEST PUSH1 0x40 MLOAD PUSH2 0x2F4 SWAP2 SWAP1 PUSH2 0x1264 JUMP JUMPDEST PUSH1 0x40 MLOAD DUP1 SWAP2 SUB SWAP1 RETURN JUMPDEST PUSH2 0x317 PUSH1 0x4 DUP1 CALLDATASIZE SUB DUP2 ADD SWAP1 PUSH2 0x312 SWAP2 SWAP1 PUSH2 0x138A JUMP JUMPDEST PUSH2 0x651 JUMP JUMPDEST PUSH1 0x40 MLOAD PUSH2 0x324 SWAP2 SWAP1 PUSH2 0x128E JUMP JUMPDEST PUSH1 0x40 MLOAD DUP1 SWAP2 SUB SWAP1 RETURN JUMPDEST PUSH2 0x347 PUSH1 0x4 DUP1 CALLDATASIZE SUB DUP2 ADD SWAP1 PUSH2 0x342 SWAP2 SWAP1 PUSH2 0x1333 JUMP JUMPDEST PUSH2 0x6D8 JUMP JUMPDEST STOP JUMPDEST PUSH1 0x60 PUSH1 0x4 DUP1 SLOAD PUSH2 0x358 SWAP1 PUSH2 0x13F9 JUMP JUMPDEST DUP1 PUSH1 0x1F ADD PUSH1 0x20 DUP1 SWAP2 DIV MUL PUSH1 0x20 ADD PUSH1 0x40 MLOAD SWAP1 DUP2 ADD PUSH1 0x40 MSTORE DUP1 SWAP3 SWAP2 SWAP1 DUP2 DUP2 MSTORE PUSH1 0x20 ADD DUP3 DUP1 SLOAD PUSH2 0x384 SWAP1 PUSH2 0x13F9 JUMP JUMPDEST DUP1 ISZERO PUSH2 0x3D1 JUMPI DUP1 PUSH1 0x1F LT PUSH2 0x3A6 JUMPI PUSH2 0x100 DUP1 DUP4 SLOAD DIV MUL DUP4 MSTORE SWAP2 PUSH1 0x20 ADD SWAP2 PUSH2 0x3D1 JUMP JUMPDEST DUP3 ADD SWAP2 SWAP1 PUSH1 0x0 MSTORE PUSH1 0x20 PUSH1 0x0 KECCAK256 SWAP1 JUMPDEST DUP2 SLOAD DUP2 MSTORE SWAP1 PUSH1 0x1 ADD SWAP1 PUSH1 0x20 ADD DUP1 DUP4 GT PUSH2 0x3B4 JUMPI DUP3 SWAP1 SUB PUSH1 0x1F AND DUP3 ADD SWAP2 JUMPDEST POP POP POP POP POP SWAP1 POP SWAP1 JUMP JUMPDEST PUSH1 0x0 DUP1 PUSH2 0x3E6 PUSH2 0x75B JUMP JUMPDEST SWAP1 POP PUSH2 0x3F3 DUP2 DUP6 DUP6 PUSH2 0x763 JUMP JUMPDEST PUSH1 0x1 SWAP2 POP POP SWAP3 SWAP2 POP POP JUMP JUMPDEST PUSH1 0x0 PUSH1 0x3 SLOAD SWAP1 POP SWAP1 JUMP JUMPDEST PUSH1 0x0 DUP1 PUSH2 0x413 PUSH2 0x75B JUMP JUMPDEST SWAP1 POP PUSH2 0x420 DUP6 DUP3 DUP6 PUSH2 0x92C JUMP JUMPDEST PUSH2 0x42B DUP6 DUP6 DUP6 PUSH2 0x9B8 JUMP JUMPDEST PUSH1 0x1 SWAP2 POP POP SWAP4 SWAP3 POP POP POP JUMP JUMPDEST PUSH1 0x0 SWAP1 JUMP JUMPDEST PUSH1 0x0 DUP1 PUSH2 0x447 PUSH2 0x75B JUMP JUMPDEST SWAP1 POP PUSH2 0x468 DUP2 DUP6 DUP6 PUSH2 0x459 DUP6 DUP10 PUSH2 0x651 JUMP JUMPDEST PUSH2 0x463 SWAP2 SWAP1 PUSH2 0x1459 JUMP JUMPDEST PUSH2 0x763 JUMP JUMPDEST PUSH1 0x1 SWAP2 POP POP SWAP3 SWAP2 POP POP JUMP JUMPDEST PUSH2 0x47B PUSH2 0xC3A JUMP JUMPDEST PUSH2 0x485 DUP3 DUP3 PUSH2 0xCB8 JUMP JUMPDEST POP POP JUMP JUMPDEST PUSH1 0x0 PUSH1 0x1 PUSH1 0x0 DUP4 PUSH20 0xFFFFFFFFFFFFFFFFFFFFFFFFFFFFFFFFFFFFFFFF AND PUSH20 0xFFFFFFFFFFFFFFFFFFFFFFFFFFFFFFFFFFFFFFFF AND DUP2 MSTORE PUSH1 0x20 ADD SWAP1 DUP2 MSTORE PUSH1 0x20 ADD PUSH1 0x0 KECCAK256 SLOAD SWAP1 POP SWAP2 SWAP1 POP JUMP JUMPDEST PUSH2 0x4DA PUSH2 0xC3A JUMP JUMPDEST PUSH2 0x4E4 PUSH1 0x0 PUSH2 0xE18 JUMP JUMPDEST JUMP JUMPDEST PUSH1 0x0 DUP1 PUSH1 0x0 SWAP1 SLOAD SWAP1 PUSH2 0x100 EXP SWAP1 DIV PUSH20 0xFFFFFFFFFFFFFFFFFFFFFFFFFFFFFFFFFFFFFFFF AND SWAP1 POP SWAP1 JUMP JUMPDEST PUSH1 0x60 PUSH1 0x5 DUP1 SLOAD PUSH2 0x51E SWAP1 PUSH2 0x13F9 JUMP JUMPDEST DUP1 PUSH1 0x1F ADD PUSH1 0x20 DUP1 SWAP2 DIV MUL PUSH1 0x20 ADD PUSH1 0x40 MLOAD SWAP1 DUP2 ADD PUSH1 0x40 MSTORE DUP1 SWAP3 SWAP2 SWAP1 DUP2 DUP2 MSTORE PUSH1 0x20 ADD DUP3 DUP1 SLOAD PUSH2 0x54A SWAP1 PUSH2 0x13F9 JUMP JUMPDEST DUP1 ISZERO PUSH2 0x597 JUMPI DUP1 PUSH1 0x1F LT PUSH2 0x56C JUMPI PUSH2 0x100 DUP1 DUP4 SLOAD DIV MUL DUP4 MSTORE SWAP2 PUSH1 0x20 ADD SWAP2 PUSH2 0x597 JUMP JUMPDEST DUP3 ADD SWAP2 SWAP1 PUSH1 0x0 MSTORE PUSH1 0x20 PUSH1 0x0 KECCAK256 SWAP1 JUMPDEST DUP2 SLOAD DUP2 MSTORE SWAP1 PUSH1 0x1 ADD SWAP1 PUSH1 0x20 ADD DUP1 DUP4 GT PUSH2 0x57A JUMPI DUP3 SWAP1 SUB PUSH1 0x1F AND DUP3 ADD SWAP2 JUMPDEST POP POP POP POP POP SWAP1 POP SWAP1 JUMP JUMPDEST PUSH2 0x5A9 PUSH2 0xC3A JUMP JUMPDEST PUSH2 0x5B3 DUP3 DUP3 PUSH2 0xEDC JUMP JUMPDEST POP POP JUMP JUMPDEST PUSH1 0x0 DUP1 PUSH2 0x5C2 PUSH2 0x75B JUMP JUMPDEST SWAP1 POP PUSH1 0x0 PUSH2 0x5D0 DUP3 DUP7 PUSH2 0x651 JUMP JUMPDEST SWAP1 POP DUP4 DUP2 LT ISZERO PUSH2 0x615 JUMPI PUSH1 0x40 MLOAD PUSH32 0x8C379A000000000000000000000000000000000000000000000000000000000 DUP2 MSTORE PUSH1 0x4 ADD PUSH2 0x60C SWAP1 PUSH2 0x14FF JUMP JUMPDEST PUSH1 0x40 MLOAD DUP1 SWAP2 SUB SWAP1 REVERT JUMPDEST PUSH2 0x622 DUP3 DUP7 DUP7 DUP5 SUB PUSH2 0x763 JUMP JUMPDEST PUSH1 0x1 SWAP3 POP POP POP SWAP3 SWAP2 POP POP JUMP JUMPDEST PUSH1 0x0 DUP1 PUSH2 0x639 PUSH2 0x75B JUMP JUMPDEST SWAP1 POP PUSH2 0x646 DUP2 DUP6 DUP6 PUSH2 0x9B8 JUMP JUMPDEST PUSH1 0x1 SWAP2 POP POP SWAP3 SWAP2 POP POP JUMP JUMPDEST PUSH1 0x0 PUSH1 0x2 PUSH1 0x0 DUP5 PUSH20 0xFFFFFFFFFFFFFFFFFFFFFFFFFFFFFFFFFFFFFFFF AND PUSH20 0xFFFFFFFFFFFFFFFFFFFFFFFFFFFFFFFFFFFFFFFF AND DUP2 MSTORE PUSH1 0x20 ADD SWAP1 DUP2 MSTORE PUSH1 0x20 ADD PUSH1 0x0 KECCAK256 PUSH1 0x0 DUP4 PUSH20 0xFFFFFFFFFFFFFFFFFFFFFFFFFFFFFFFFFFFFFFFF AND PUSH20 0xFFFFFFFFFFFFFFFFFFFFFFFFFFFFFFFFFFFFFFFF AND DUP2 MSTORE PUSH1 0x20 ADD SWAP1 DUP2 MSTORE PUSH1 0x20 ADD PUSH1 0x0 KECCAK256 SLOAD SWAP1 POP SWAP3 SWAP2 POP POP JUMP JUMPDEST PUSH2 0x6E0 PUSH2 0xC3A JUMP JUMPDEST PUSH1 0x0 PUSH20 0xFFFFFFFFFFFFFFFFFFFFFFFFFFFFFFFFFFFFFFFF AND DUP2 PUSH20 0xFFFFFFFFFFFFFFFFFFFFFFFFFFFFFFFFFFFFFFFF AND SUB PUSH2 0x74F JUMPI PUSH1 0x40 MLOAD PUSH32 0x8C379A000000000000000000000000000000000000000000000000000000000 DUP2 MSTORE PUSH1 0x4 ADD PUSH2 0x746 SWAP1 PUSH2 0x1591 JUMP JUMPDEST PUSH1 0x40 MLOAD DUP1 SWAP2 SUB SWAP1 REVERT JUMPDEST PUSH2 0x758 DUP2 PUSH2 0xE18 JUMP JUMPDEST POP JUMP JUMPDEST PUSH1 0x0 CALLER SWAP1 POP SWAP1 JUMP JUMPDEST PUSH1 0x0 PUSH20 0xFFFFFFFFFFFFFFFFFFFFFFFFFFFFFFFFFFFFFFFF AND DUP4 PUSH20 0xFFFFFFFFFFFFFFFFFFFFFFFFFFFFFFFFFFFFFFFF AND SUB PUSH2 0x7D2 JUMPI PUSH1 0x40 MLOAD PUSH32 0x8C379A000000000000000000000000000000000000000000000000000000000 DUP2 MSTORE PUSH1 0x4 ADD PUSH2 0x7C9 SWAP1 PUSH2 0x1623 JUMP JUMPDEST PUSH1 0x40 MLOAD DUP1 SWAP2 SUB SWAP1 REVERT JUMPDEST PUSH1 0x0 PUSH20 0xFFFFFFFFFFFFFFFFFFFFFFFFFFFFFFFFFFFFFFFF AND DUP3 PUSH20 0xFFFFFFFFFFFFFFFFFFFFFFFFFFFFFFFFFFFFFFFF AND SUB PUSH2 0x841 JUMPI PUSH1 0x40 MLOAD PUSH32 0x8C379A000000000000000000000000000000000000000000000000000000000 DUP2 MSTORE PUSH1 0x4 ADD PUSH2 0x838 SWAP1 PUSH2 0x16B5 JUMP JUMPDEST PUSH1 0x40 MLOAD DUP1 SWAP2 SUB SWAP1 REVERT JUMPDEST DUP1 PUSH1 0x2 PUSH1 0x0 DUP6 PUSH20 0xFFFFFFFFFFFFFFFFFFFFFFFFFFFFFFFFFFFFFFFF AND PUSH20 0xFFFFFFFFFFFFFFFFFFFFFFFFFFFFFFFFFFFFFFFF AND DUP2 MSTORE PUSH1 0x20 ADD SWAP1 DUP2 MSTORE PUSH1 0x20 ADD PUSH1 0x0 KECCAK256 PUSH1 0x0 DUP5 PUSH20 0xFFFFFFFFFFFFFFFFFFFFFFFFFFFFFFFFFFFFFFFF AND PUSH20 0xFFFFFFFFFFFFFFFFFFFFFFFFFFFFFFFFFFFFFFFF AND DUP2 MSTORE PUSH1 0x20 ADD SWAP1 DUP2 MSTORE PUSH1 0x20 ADD PUSH1 0x0 KECCAK256 DUP2 SWAP1 SSTORE POP DUP2 PUSH20 0xFFFFFFFFFFFFFFFFFFFFFFFFFFFFFFFFFFFFFFFF AND DUP4 PUSH20 0xFFFFFFFFFFFFFFFFFFFFFFFFFFFFFFFFFFFFFFFF AND PUSH32 0x8C5BE1E5EBEC7D5BD14F71427D1E84F3DD0314C0F7B2291E5B200AC8C7C3B925 DUP4 PUSH1 0x40 MLOAD PUSH2 0x91F SWAP2 SWAP1 PUSH2 0x128E JUMP JUMPDEST PUSH1 0x40 MLOAD DUP1 SWAP2 SUB SWAP1 LOG3 POP POP POP JUMP JUMPDEST PUSH1 0x0 PUSH2 0x938 DUP5 DUP5 PUSH2 0x651 JUMP JUMPDEST SWAP1 POP PUSH32 0xFFFFFFFFFFFFFFFFFFFFFFFFFFFFFFFFFFFFFFFFFFFFFFFFFFFFFFFFFFFFFFFF DUP2 EQ PUSH2 0x9B2 JUMPI DUP2 DUP2 LT ISZERO PUSH2 0x9A4 JUMPI PUSH1 0x40 MLOAD PUSH32 0x8C379A000000000000000000000000000000000000000000000000000000000 DUP2 MSTORE PUSH1 0x4 ADD PUSH2 0x99B SWAP1 PUSH2 0x1721 JUMP JUMPDEST PUSH1 0x40 MLOAD DUP1 SWAP2 SUB SWAP1 REVERT JUMPDEST PUSH2 0x9B1 DUP5 DUP5 DUP5 DUP5 SUB PUSH2 0x763 JUMP JUMPDEST JUMPDEST POP POP POP POP JUMP JUMPDEST PUSH1 0x0 PUSH20 0xFFFFFFFFFFFFFFFFFFFFFFFFFFFFFFFFFFFFFFFF AND DUP4 PUSH20 0xFFFFFFFFFFFFFFFFFFFFFFFFFFFFFFFFFFFFFFFF AND SUB PUSH2 0xA27 JUMPI PUSH1 0x40 MLOAD PUSH32 0x8C379A000000000000000000000000000000000000000000000000000000000 DUP2 MSTORE PUSH1 0x4 ADD PUSH2 0xA1E SWAP1 PUSH2 0x17B3 JUMP JUMPDEST PUSH1 0x40 MLOAD DUP1 SWAP2 SUB SWAP1 REVERT JUMPDEST PUSH1 0x0 PUSH20 0xFFFFFFFFFFFFFFFFFFFFFFFFFFFFFFFFFFFFFFFF AND DUP3 PUSH20 0xFFFFFFFFFFFFFFFFFFFFFFFFFFFFFFFFFFFFFFFF AND SUB PUSH2 0xA96 JUMPI PUSH1 0x40 MLOAD PUSH32 0x8C379A000000000000000000000000000000000000000000000000000000000 DUP2 MSTORE PUSH1 0x4 ADD PUSH2 0xA8D SWAP1 PUSH2 0x1845 JUMP JUMPDEST PUSH1 0x40 MLOAD DUP1 SWAP2 SUB SWAP1 REVERT JUMPDEST PUSH2 0xAA1 DUP4 DUP4 DUP4 PUSH2 0x10B4 JUMP JUMPDEST PUSH1 0x0 PUSH1 0x1 PUSH1 0x0 DUP6 PUSH20 0xFFFFFFFFFFFFFFFFFFFFFFFFFFFFFFFFFFFFFFFF AND PUSH20 0xFFFFFFFFFFFFFFFFFFFFFFFFFFFFFFFFFFFFFFFF AND DUP2 MSTORE PUSH1 0x20 ADD SWAP1 DUP2 MSTORE PUSH1 0x20 ADD PUSH1 0x0 KECCAK256 SLOAD SWAP1 POP DUP2 DUP2 LT ISZERO PUSH2 0xB28 JUMPI PUSH1 0x40 MLOAD PUSH32 0x8C379A000000000000000000000000000000000000000000000000000000000 DUP2 MSTORE PUSH1 0x4 ADD PUSH2 0xB1F SWAP1 PUSH2 0x18D7 JUMP JUMPDEST PUSH1 0x40 MLOAD DUP1 SWAP2 SUB SWAP1 REVERT JUMPDEST DUP2 DUP2 SUB PUSH1 0x1 PUSH1 0x0 DUP7 PUSH20 0xFFFFFFFFFFFFFFFFFFFFFFFFFFFFFFFFFFFFFFFF AND PUSH20 0xFFFFFFFFFFFFFFFFFFFFFFFFFFFFFFFFFFFFFFFF AND DUP2 MSTORE PUSH1 0x20 ADD SWAP1 DUP2 MSTORE PUSH1 0x20 ADD PUSH1 0x0 KECCAK256 DUP2 SWAP1 SSTORE POP DUP2 PUSH1 0x1 PUSH1 0x0 DUP6 PUSH20 0xFFFFFFFFFFFFFFFFFFFFFFFFFFFFFFFFFFFFFFFF AND PUSH20 0xFFFFFFFFFFFFFFFFFFFFFFFFFFFFFFFFFFFFFFFF AND DUP2 MSTORE PUSH1 0x20 ADD SWAP1 DUP2 MSTORE PUSH1 0x20 ADD PUSH1 0x0 KECCAK256 PUSH1 0x0 DUP3 DUP3 SLOAD PUSH2 0xBBD SWAP2 SWAP1 PUSH2 0x1459 JUMP JUMPDEST SWAP3 POP POP DUP2 SWAP1 SSTORE POP DUP3 PUSH20 0xFFFFFFFFFFFFFFFFFFFFFFFFFFFFFFFFFFFFFFFF AND DUP5 PUSH20 0xFFFFFFFFFFFFFFFFFFFFFFFFFFFFFFFFFFFFFFFF AND PUSH32 0xDDF252AD1BE2C89B69C2B068FC378DAA952BA7F163C4A11628F55A4DF523B3EF DUP5 PUSH1 0x40 MLOAD PUSH2 0xC21 SWAP2 SWAP1 PUSH2 0x128E JUMP JUMPDEST PUSH1 0x40 MLOAD DUP1 SWAP2 SUB SWAP1 LOG3 PUSH2 0xC34 DUP5 DUP5 DUP5 PUSH2 0x10B9 JUMP JUMPDEST POP POP POP POP JUMP JUMPDEST PUSH2 0xC42 PUSH2 0x75B JUMP JUMPDEST PUSH20 0xFFFFFFFFFFFFFFFFFFFFFFFFFFFFFFFFFFFFFFFF AND PUSH2 0xC60 PUSH2 0x4E6 JUMP JUMPDEST PUSH20 0xFFFFFFFFFFFFFFFFFFFFFFFFFFFFFFFFFFFFFFFF AND EQ PUSH2 0xCB6 JUMPI PUSH1 0x40 MLOAD PUSH32 0x8C379A000000000000000000000000000000000000000000000000000000000 DUP2 MSTORE PUSH1 0x4 ADD PUSH2 0xCAD SWAP1 PUSH2 0x1943 JUMP JUMPDEST PUSH1 0x40 MLOAD DUP1 SWAP2 SUB SWAP1 REVERT JUMPDEST JUMP JUMPDEST PUSH1 0x0 PUSH20 0xFFFFFFFFFFFFFFFFFFFFFFFFFFFFFFFFFFFFFFFF AND DUP3 PUSH20 0xFFFFFFFFFFFFFFFFFFFFFFFFFFFFFFFFFFFFFFFF AND SUB PUSH2 0xD27 JUMPI PUSH1 0x40 MLOAD PUSH32 0x8C379A000000000000000000000000000000000000000000000000000000000 DUP2 MSTORE PUSH1 0x4 ADD PUSH2 0xD1E SWAP1 PUSH2 0x19AF JUMP JUMPDEST PUSH1 0x40 MLOAD DUP1 SWAP2 SUB SWAP1 REVERT JUMPDEST PUSH2 0xD33 PUSH1 0x0 DUP4 DUP4 PUSH2 0x10B4 JUMP JUMPDEST DUP1 PUSH1 0x3 PUSH1 0x0 DUP3 DUP3 SLOAD PUSH2 0xD45 SWAP2 SWAP1 PUSH2 0x1459 JUMP JUMPDEST SWAP3 POP POP DUP2 SWAP1 SSTORE POP DUP1 PUSH1 0x1 PUSH1 0x0 DUP5 PUSH20 0xFFFFFFFFFFFFFFFFFFFFFFFFFFFFFFFFFFFFFFFF AND PUSH20 0xFFFFFFFFFFFFFFFFFFFFFFFFFFFFFFFFFFFFFFFF AND DUP2 MSTORE PUSH1 0x20 ADD SWAP1 DUP2 MSTORE PUSH1 0x20 ADD PUSH1 0x0 KECCAK256 PUSH1 0x0 DUP3 DUP3 SLOAD PUSH2 0xD9B SWAP2 SWAP1 PUSH2 0x1459 JUMP JUMPDEST SWAP3 POP POP DUP2 SWAP1 SSTORE POP DUP2 PUSH20 0xFFFFFFFFFFFFFFFFFFFFFFFFFFFFFFFFFFFFFFFF AND PUSH1 0x0 PUSH20 0xFFFFFFFFFFFFFFFFFFFFFFFFFFFFFFFFFFFFFFFF AND PUSH32 0xDDF252AD1BE2C89B69C2B068FC378DAA952BA7F163C4A11628F55A4DF523B3EF DUP4 PUSH1 0x40 MLOAD PUSH2 0xE00 SWAP2 SWAP1 PUSH2 0x128E JUMP JUMPDEST PUSH1 0x40 MLOAD DUP1 SWAP2 SUB SWAP1 LOG3 PUSH2 0xE14 PUSH1 0x0 DUP4 DUP4 PUSH2 0x10B9 JUMP JUMPDEST POP POP JUMP JUMPDEST PUSH1 0x0 DUP1 PUSH1 0x0 SWAP1 SLOAD SWAP1 PUSH2 0x100 EXP SWAP1 DIV PUSH20 0xFFFFFFFFFFFFFFFFFFFFFFFFFFFFFFFFFFFFFFFF AND SWAP1 POP DUP2 PUSH1 0x0 DUP1 PUSH2 0x100 EXP DUP2 SLOAD DUP2 PUSH20 0xFFFFFFFFFFFFFFFFFFFFFFFFFFFFFFFFFFFFFFFF MUL NOT AND SWAP1 DUP4 PUSH20 0xFFFFFFFFFFFFFFFFFFFFFFFFFFFFFFFFFFFFFFFF AND MUL OR SWAP1 SSTORE POP DUP2 PUSH20 0xFFFFFFFFFFFFFFFFFFFFFFFFFFFFFFFFFFFFFFFF AND DUP2 PUSH20 0xFFFFFFFFFFFFFFFFFFFFFFFFFFFFFFFFFFFFFFFF AND PUSH32 0x8BE0079C531659141344CD1FD0A4F28419497F9722A3DAAFE3B4186F6B6457E0 PUSH1 0x40 MLOAD PUSH1 0x40 MLOAD DUP1 SWAP2 SUB SWAP1 LOG3 POP POP JUMP JUMPDEST PUSH1 0x0 PUSH20 0xFFFFFFFFFFFFFFFFFFFFFFFFFFFFFFFFFFFFFFFF AND DUP3 PUSH20 0xFFFFFFFFFFFFFFFFFFFFFFFFFFFFFFFFFFFFFFFF AND SUB PUSH2 0xF4B JUMPI PUSH1 0x40 MLOAD PUSH32 0x8C379A000000000000000000000000000000000000000000000000000000000 DUP2 MSTORE PUSH1 0x4 ADD PUSH2 0xF42 SWAP1 PUSH2 0x1A41 JUMP JUMPDEST PUSH1 0x40 MLOAD DUP1 SWAP2 SUB SWAP1 REVERT JUMPDEST PUSH2 0xF57 DUP3 PUSH1 0x0 DUP4 PUSH2 0x10B4 JUMP JUMPDEST PUSH1 0x0 PUSH1 0x1 PUSH1 0x0 DUP5 PUSH20 0xFFFFFFFFFFFFFFFFFFFFFFFFFFFFFFFFFFFFFFFF AND PUSH20 0xFFFFFFFFFFFFFFFFFFFFFFFFFFFFFFFFFFFFFFFF AND DUP2 MSTORE PUSH1 0x20 ADD SWAP1 DUP2 MSTORE PUSH1 0x20 ADD PUSH1 0x0 KECCAK256 SLOAD SWAP1 POP DUP2 DUP2 LT ISZERO PUSH2 0xFDE JUMPI PUSH1 0x40 MLOAD PUSH32 0x8C379A000000000000000000000000000000000000000000000000000000000 DUP2 MSTORE PUSH1 0x4 ADD PUSH2 0xFD5 SWAP1 PUSH2 0x1AD3 JUMP JUMPDEST PUSH1 0x40 MLOAD DUP1 SWAP2 SUB SWAP1 REVERT JUMPDEST DUP2 DUP2 SUB PUSH1 0x1 PUSH1 0x0 DUP6 PUSH20 0xFFFFFFFFFFFFFFFFFFFFFFFFFFFFFFFFFFFFFFFF AND PUSH20 0xFFFFFFFFFFFFFFFFFFFFFFFFFFFFFFFFFFFFFFFF AND DUP2 MSTORE PUSH1 0x20 ADD SWAP1 DUP2 MSTORE PUSH1 0x20 ADD PUSH1 0x0 KECCAK256 DUP2 SWAP1 SSTORE POP DUP2 PUSH1 0x3 PUSH1 0x0 DUP3 DUP3 SLOAD PUSH2 0x1036 SWAP2 SWAP1 PUSH2 0x1AF3 JUMP JUMPDEST SWAP3 POP POP DUP2 SWAP1 SSTORE POP PUSH1 0x0 PUSH20 0xFFFFFFFFFFFFFFFFFFFFFFFFFFFFFFFFFFFFFFFF AND DUP4 PUSH20 0xFFFFFFFFFFFFFFFFFFFFFFFFFFFFFFFFFFFFFFFF AND PUSH32 0xDDF252AD1BE2C89B69C2B068FC378DAA952BA7F163C4A11628F55A4DF523B3EF DUP5 PUSH1 0x40 MLOAD PUSH2 0x109B SWAP2 SWAP1 PUSH2 0x128E JUMP JUMPDEST PUSH1 0x40 MLOAD DUP1 SWAP2 SUB SWAP1 LOG3 PUSH2 0x10AF DUP4 PUSH1 0x0 DUP5 PUSH2 0x10B9 JUMP JUMPDEST POP POP POP JUMP JUMPDEST POP POP POP JUMP JUMPDEST POP POP POP JUMP JUMPDEST PUSH1 0x0 DUP2 MLOAD SWAP1 POP SWAP2 SWAP1 POP JUMP JUMPDEST PUSH1 0x0 DUP3 DUP3 MSTORE PUSH1 0x20 DUP3 ADD SWAP1 POP SWAP3 SWAP2 POP POP JUMP JUMPDEST PUSH1 0x0 JUMPDEST DUP4 DUP2 LT ISZERO PUSH2 0x10F8 JUMPI DUP1 DUP3 ADD MLOAD DUP2 DUP5 ADD MSTORE PUSH1 0x20 DUP2 ADD SWAP1 POP PUSH2 0x10DD JUMP JUMPDEST PUSH1 0x0 DUP5 DUP5 ADD MSTORE POP POP POP POP JUMP JUMPDEST PUSH1 0x0 PUSH1 0x1F NOT PUSH1 0x1F DUP4 ADD AND SWAP1 POP SWAP2 SWAP1 POP JUMP JUMPDEST PUSH1 0x0 PUSH2 0x1120 DUP3 PUSH2 0x10BE JUMP JUMPDEST PUSH2 0x112A DUP2 DUP6 PUSH2 0x10C9 JUMP JUMPDEST SWAP4 POP PUSH2 0x113A DUP2 DUP6 PUSH1 0x20 DUP7 ADD PUSH2 0x10DA JUMP JUMPDEST PUSH2 0x1143 DUP2 PUSH2 0x1104 JUMP JUMPDEST DUP5 ADD SWAP2 POP POP SWAP3 SWAP2 POP POP JUMP JUMPDEST PUSH1 0x0 PUSH1 0x20 DUP3 ADD SWAP1 POP DUP2 DUP2 SUB PUSH1 0x0 DUP4 ADD MSTORE PUSH2 0x1168 DUP2 DUP5 PUSH2 0x1115 JUMP JUMPDEST SWAP1 POP SWAP3 SWAP2 POP POP JUMP JUMPDEST PUSH1 0x0 DUP1 REVERT JUMPDEST PUSH1 0x0 PUSH20 0xFFFFFFFFFFFFFFFFFFFFFFFFFFFFFFFFFFFFFFFF DUP3 AND SWAP1 POP SWAP2 SWAP1 POP JUMP JUMPDEST PUSH1 0x0 PUSH2 0x11A0 DUP3 PUSH2 0x1175 JUMP JUMPDEST SWAP1 POP SWAP2 SWAP1 POP JUMP JUMPDEST PUSH2 0x11B0 DUP2 PUSH2 0x1195 JUMP JUMPDEST DUP2 EQ PUSH2 0x11BB JUMPI PUSH1 0x0 DUP1 REVERT JUMPDEST POP JUMP JUMPDEST PUSH1 0x0 DUP2 CALLDATALOAD SWAP1 POP PUSH2 0x11CD DUP2 PUSH2 0x11A7 JUMP JUMPDEST SWAP3 SWAP2 POP POP JUMP JUMPDEST PUSH1 0x0 DUP2 SWAP1 POP SWAP2 SWAP1 POP JUMP JUMPDEST PUSH2 0x11E6 DUP2 PUSH2 0x11D3 JUMP JUMPDEST DUP2 EQ PUSH2 0x11F1 JUMPI PUSH1 0x0 DUP1 REVERT JUMPDEST POP JUMP JUMPDEST PUSH1 0x0 DUP2 CALLDATALOAD SWAP1 POP PUSH2 0x1203 DUP2 PUSH2 0x11DD JUMP JUMPDEST SWAP3 SWAP2 POP POP JUMP JUMPDEST PUSH1 0x0 DUP1 PUSH1 0x40 DUP4 DUP6 SUB SLT ISZERO PUSH2 0x1220 JUMPI PUSH2 0x121F PUSH2 0x1170 JUMP JUMPDEST JUMPDEST PUSH1 0x0 PUSH2 0x122E DUP6 DUP3 DUP7 ADD PUSH2 0x11BE JUMP JUMPDEST SWAP3 POP POP PUSH1 0x20 PUSH2 0x123F DUP6 DUP3 DUP7 ADD PUSH2 0x11F4 JUMP JUMPDEST SWAP2 POP POP SWAP3 POP SWAP3 SWAP1 POP JUMP JUMPDEST PUSH1 0x0 DUP2 ISZERO ISZERO SWAP1 POP SWAP2 SWAP1 POP JUMP JUMPDEST PUSH2 0x125E DUP2 PUSH2 0x1249 JUMP JUMPDEST DUP3 MSTORE POP POP JUMP JUMPDEST PUSH1 0x0 PUSH1 0x20 DUP3 ADD SWAP1 POP PUSH2 0x1279 PUSH1 0x0 DUP4 ADD DUP5 PUSH2 0x1255 JUMP JUMPDEST SWAP3 SWAP2 POP POP JUMP JUMPDEST PUSH2 0x1288 DUP2 PUSH2 0x11D3 JUMP JUMPDEST DUP3 MSTORE POP POP JUMP JUMPDEST PUSH1 0x0 PUSH1 0x20 DUP3 ADD SWAP1 POP PUSH2 0x12A3 PUSH1 0x0 DUP4 ADD DUP5 PUSH2 0x127F JUMP JUMPDEST SWAP3 SWAP2 POP POP JUMP JUMPDEST PUSH1 0x0 DUP1 PUSH1 0x0 PUSH1 0x60 DUP5 DUP7 SUB SLT ISZERO PUSH2 0x12C2 JUMPI PUSH2 0x12C1 PUSH2 0x1170 JUMP JUMPDEST JUMPDEST PUSH1 0x0 PUSH2 0x12D0 DUP7 DUP3 DUP8 ADD PUSH2 0x11BE JUMP JUMPDEST SWAP4 POP POP PUSH1 0x20 PUSH2 0x12E1 DUP7 DUP3 DUP8 ADD PUSH2 0x11BE JUMP JUMPDEST SWAP3 POP POP PUSH1 0x40 PUSH2 0x12F2 DUP7 DUP3 DUP8 ADD PUSH2 0x11F4 JUMP JUMPDEST SWAP2 POP POP SWAP3 POP SWAP3 POP SWAP3 JUMP JUMPDEST PUSH1 0x0 PUSH1 0xFF DUP3 AND SWAP1 POP SWAP2 SWAP1 POP JUMP JUMPDEST PUSH2 0x1312 DUP2 PUSH2 0x12FC JUMP JUMPDEST DUP3 MSTORE POP POP JUMP JUMPDEST PUSH1 0x0 PUSH1 0x20 DUP3 ADD SWAP1 POP PUSH2 0x132D PUSH1 0x0 DUP4 ADD DUP5 PUSH2 0x1309 JUMP JUMPDEST SWAP3 SWAP2 POP POP JUMP JUMPDEST PUSH1 0x0 PUSH1 0x20 DUP3 DUP5 SUB SLT ISZERO PUSH2 0x1349 JUMPI PUSH2 0x1348 PUSH2 0x1170 JUMP JUMPDEST JUMPDEST PUSH1 0x0 PUSH2 0x1357 DUP5 DUP3 DUP6 ADD PUSH2 0x11BE JUMP JUMPDEST SWAP2 POP POP SWAP3 SWAP2 POP POP JUMP JUMPDEST PUSH2 0x1369 DUP2 PUSH2 0x1195 JUMP JUMPDEST DUP3 MSTORE POP POP JUMP JUMPDEST PUSH1 0x0 PUSH1 0x20 DUP3 ADD SWAP1 POP PUSH2 0x1384 PUSH1 0x0 DUP4 ADD DUP5 PUSH2 0x1360 JUMP JUMPDEST SWAP3 SWAP2 POP POP JUMP JUMPDEST PUSH1 0x0 DUP1 PUSH1 0x40 DUP4 DUP6 SUB SLT ISZERO PUSH2 0x13A1 JUMPI PUSH2 0x13A0 PUSH2 0x1170 JUMP JUMPDEST JUMPDEST PUSH1 0x0 PUSH2 0x13AF DUP6 DUP3 DUP7 ADD PUSH2 0x11BE JUMP JUMPDEST SWAP3 POP POP PUSH1 0x20 PUSH2 0x13C0 DUP6 DUP3 DUP7 ADD PUSH2 0x11BE JUMP JUMPDEST SWAP2 POP POP SWAP3 POP SWAP3 SWAP1 POP JUMP JUMPDEST PUSH32 0x4E487B7100000000000000000000000000000000000000000000000000000000 PUSH1 0x0 MSTORE PUSH1 0x22 PUSH1 0x4 MSTORE PUSH1 0x24 PUSH1 0x0 REVERT JUMPDEST PUSH1 0x0 PUSH1 0x2 DUP3 DIV SWAP1 POP PUSH1 0x1 DUP3 AND DUP1 PUSH2 0x1411 JUMPI PUSH1 0x7F DUP3 AND SWAP2 POP JUMPDEST PUSH1 0x20 DUP3 LT DUP2 SUB PUSH2 0x1424 JUMPI PUSH2 0x1423 PUSH2 0x13CA JUMP JUMPDEST JUMPDEST POP SWAP2 SWAP1 POP JUMP JUMPDEST PUSH32 0x4E487B7100000000000000000000000000000000000000000000000000000000 PUSH1 0x0 MSTORE PUSH1 0x11 PUSH1 0x4 MSTORE PUSH1 0x24 PUSH1 0x0 REVERT JUMPDEST PUSH1 0x0 PUSH2 0x1464 DUP3 PUSH2 0x11D3 JUMP JUMPDEST SWAP2 POP PUSH2 0x146F DUP4 PUSH2 0x11D3 JUMP JUMPDEST SWAP3 POP DUP3 DUP3 ADD SWAP1 POP DUP1 DUP3 GT ISZERO PUSH2 0x1487 JUMPI PUSH2 0x1486 PUSH2 0x142A JUMP JUMPDEST JUMPDEST SWAP3 SWAP2 POP POP JUMP JUMPDEST PUSH32 0x45524332303A2064656372656173656420616C6C6F77616E63652062656C6F77 PUSH1 0x0 DUP3 ADD MSTORE PUSH32 0x207A65726F000000000000000000000000000000000000000000000000000000 PUSH1 0x20 DUP3 ADD MSTORE POP JUMP JUMPDEST PUSH1 0x0 PUSH2 0x14E9 PUSH1 0x25 DUP4 PUSH2 0x10C9 JUMP JUMPDEST SWAP2 POP PUSH2 0x14F4 DUP3 PUSH2 0x148D JUMP JUMPDEST PUSH1 0x40 DUP3 ADD SWAP1 POP SWAP2 SWAP1 POP JUMP JUMPDEST PUSH1 0x0 PUSH1 0x20 DUP3 ADD SWAP1 POP DUP2 DUP2 SUB PUSH1 0x0 DUP4 ADD MSTORE PUSH2 0x1518 DUP2 PUSH2 0x14DC JUMP JUMPDEST SWAP1 POP SWAP2 SWAP1 POP JUMP JUMPDEST PUSH32 0x4F776E61626C653A206E6577206F776E657220697320746865207A65726F2061 PUSH1 0x0 DUP3 ADD MSTORE PUSH32 0x6464726573730000000000000000000000000000000000000000000000000000 PUSH1 0x20 DUP3 ADD MSTORE POP JUMP JUMPDEST PUSH1 0x0 PUSH2 0x157B PUSH1 0x26 DUP4 PUSH2 0x10C9 JUMP JUMPDEST SWAP2 POP PUSH2 0x1586 DUP3 PUSH2 0x151F JUMP JUMPDEST PUSH1 0x40 DUP3 ADD SWAP1 POP SWAP2 SWAP1 POP JUMP JUMPDEST PUSH1 0x0 PUSH1 0x20 DUP3 ADD SWAP1 POP DUP2 DUP2 SUB PUSH1 0x0 DUP4 ADD MSTORE PUSH2 0x15AA DUP2 PUSH2 0x156E JUMP JUMPDEST SWAP1 POP SWAP2 SWAP1 POP JUMP JUMPDEST PUSH32 0x45524332303A20617070726F76652066726F6D20746865207A65726F20616464 PUSH1 0x0 DUP3 ADD MSTORE PUSH32 0x7265737300000000000000000000000000000000000000000000000000000000 PUSH1 0x20 DUP3 ADD MSTORE POP JUMP JUMPDEST PUSH1 0x0 PUSH2 0x160D PUSH1 0x24 DUP4 PUSH2 0x10C9 JUMP JUMPDEST SWAP2 POP PUSH2 0x1618 DUP3 PUSH2 0x15B1 JUMP JUMPDEST PUSH1 0x40 DUP3 ADD SWAP1 POP SWAP2 SWAP1 POP JUMP JUMPDEST PUSH1 0x0 PUSH1 0x20 DUP3 ADD SWAP1 POP DUP2 DUP2 SUB PUSH1 0x0 DUP4 ADD MSTORE PUSH2 0x163C DUP2 PUSH2 0x1600 JUMP JUMPDEST SWAP1 POP SWAP2 SWAP1 POP JUMP JUMPDEST PUSH32 0x45524332303A20617070726F766520746F20746865207A65726F206164647265 PUSH1 0x0 DUP3 ADD MSTORE PUSH32 0x7373000000000000000000000000000000000000000000000000000000000000 PUSH1 0x20 DUP3 ADD MSTORE POP JUMP JUMPDEST PUSH1 0x0 PUSH2 0x169F PUSH1 0x22 DUP4 PUSH2 0x10C9 JUMP JUMPDEST SWAP2 POP PUSH2 0x16AA DUP3 PUSH2 0x1643 JUMP JUMPDEST PUSH1 0x40 DUP3 ADD SWAP1 POP SWAP2 SWAP1 POP JUMP JUMPDEST PUSH1 0x0 PUSH1 0x20 DUP3 ADD SWAP1 POP DUP2 DUP2 SUB PUSH1 0x0 DUP4 ADD MSTORE PUSH2 0x16CE DUP2 PUSH2 0x1692 JUMP JUMPDEST SWAP1 POP SWAP2 SWAP1 POP JUMP JUMPDEST PUSH32 0x45524332303A20696E73756666696369656E7420616C6C6F77616E6365000000 PUSH1 0x0 DUP3 ADD MSTORE POP JUMP JUMPDEST PUSH1 0x0 PUSH2 0x170B PUSH1 0x1D DUP4 PUSH2 0x10C9 JUMP JUMPDEST SWAP2 POP PUSH2 0x1716 DUP3 PUSH2 0x16D5 JUMP JUMPDEST PUSH1 0x20 DUP3 ADD SWAP1 POP SWAP2 SWAP1 POP JUMP JUMPDEST PUSH1 0x0 PUSH1 0x20 DUP3 ADD SWAP1 POP DUP2 DUP2 SUB PUSH1 0x0 DUP4 ADD MSTORE PUSH2 0x173A DUP2 PUSH2 0x16FE JUMP JUMPDEST SWAP1 POP SWAP2 SWAP1 POP JUMP JUMPDEST PUSH32 0x45524332303A207472616E736665722066726F6D20746865207A65726F206164 PUSH1 0x0 DUP3 ADD MSTORE PUSH32 0x6472657373000000000000000000000000000000000000000000000000000000 PUSH1 0x20 DUP3 ADD MSTORE POP JUMP JUMPDEST PUSH1 0x0 PUSH2 0x179D PUSH1 0x25 DUP4 PUSH2 0x10C9 JUMP JUMPDEST SWAP2 POP PUSH2 0x17A8 DUP3 PUSH2 0x1741 JUMP JUMPDEST PUSH1 0x40 DUP3 ADD SWAP1 POP SWAP2 SWAP1 POP JUMP JUMPDEST PUSH1 0x0 PUSH1 0x20 DUP3 ADD SWAP1 POP DUP2 DUP2 SUB PUSH1 0x0 DUP4 ADD MSTORE PUSH2 0x17CC DUP2 PUSH2 0x1790 JUMP JUMPDEST SWAP1 POP SWAP2 SWAP1 POP JUMP JUMPDEST PUSH32 0x45524332303A207472616E7366657220746F20746865207A65726F2061646472 PUSH1 0x0 DUP3 ADD MSTORE PUSH32 0x6573730000000000000000000000000000000000000000000000000000000000 PUSH1 0x20 DUP3 ADD MSTORE POP JUMP JUMPDEST PUSH1 0x0 PUSH2 0x182F PUSH1 0x23 DUP4 PUSH2 0x10C9 JUMP JUMPDEST SWAP2 POP PUSH2 0x183A DUP3 PUSH2 0x17D3 JUMP JUMPDEST PUSH1 0x40 DUP3 ADD SWAP1 POP SWAP2 SWAP1 POP JUMP JUMPDEST PUSH1 0x0 PUSH1 0x20 DUP3 ADD SWAP1 POP DUP2 DUP2 SUB PUSH1 0x0 DUP4 ADD MSTORE PUSH2 0x185E DUP2 PUSH2 0x1822 JUMP JUMPDEST SWAP1 POP SWAP2 SWAP1 POP JUMP JUMPDEST PUSH32 0x45524332303A207472616E7366657220616D6F756E7420657863656564732062 PUSH1 0x0 DUP3 ADD MSTORE PUSH32 0x616C616E63650000000000000000000000000000000000000000000000000000 PUSH1 0x20 DUP3 ADD MSTORE POP JUMP JUMPDEST PUSH1 0x0 PUSH2 0x18C1 PUSH1 0x26 DUP4 PUSH2 0x10C9 JUMP JUMPDEST SWAP2 POP PUSH2 0x18CC DUP3 PUSH2 0x1865 JUMP JUMPDEST PUSH1 0x40 DUP3 ADD SWAP1 POP SWAP2 SWAP1 POP JUMP JUMPDEST PUSH1 0x0 PUSH1 0x20 DUP3 ADD SWAP1 POP DUP2 DUP2 SUB PUSH1 0x0 DUP4 ADD MSTORE PUSH2 0x18F0 DUP2 PUSH2 0x18B4 JUMP JUMPDEST SWAP1 POP SWAP2 SWAP1 POP JUMP JUMPDEST PUSH32 0x4F776E61626C653A2063616C6C6572206973206E6F7420746865206F776E6572 PUSH1 0x0 DUP3 ADD MSTORE POP JUMP JUMPDEST PUSH1 0x0 PUSH2 0x192D PUSH1 0x20 DUP4 PUSH2 0x10C9 JUMP JUMPDEST SWAP2 POP PUSH2 0x1938 DUP3 PUSH2 0x18F7 JUMP JUMPDEST PUSH1 0x20 DUP3 ADD SWAP1 POP SWAP2 SWAP1 POP JUMP JUMPDEST PUSH1 0x0 PUSH1 0x20 DUP3 ADD SWAP1 POP DUP2 DUP2 SUB PUSH1 0x0 DUP4 ADD MSTORE PUSH2 0x195C DUP2 PUSH2 0x1920 JUMP JUMPDEST SWAP1 POP SWAP2 SWAP1 POP JUMP JUMPDEST PUSH32 0x45524332303A206D696E7420746F20746865207A65726F206164647265737300 PUSH1 0x0 DUP3 ADD MSTORE POP JUMP JUMPDEST PUSH1 0x0 PUSH2 0x1999 PUSH1 0x1F DUP4 PUSH2 0x10C9 JUMP JUMPDEST SWAP2 POP PUSH2 0x19A4 DUP3 PUSH2 0x1963 JUMP JUMPDEST PUSH1 0x20 DUP3 ADD SWAP1 POP SWAP2 SWAP1 POP JUMP JUMPDEST PUSH1 0x0 PUSH1 0x20 DUP3 ADD SWAP1 POP DUP2 DUP2 SUB PUSH1 0x0 DUP4 ADD MSTORE PUSH2 0x19C8 DUP2 PUSH2 0x198C JUMP JUMPDEST SWAP1 POP SWAP2 SWAP1 POP JUMP JUMPDEST PUSH32 0x45524332303A206275726E2066726F6D20746865207A65726F20616464726573 PUSH1 0x0 DUP3 ADD MSTORE PUSH32 0x7300000000000000000000000000000000000000000000000000000000000000 PUSH1 0x20 DUP3 ADD MSTORE POP JUMP JUMPDEST PUSH1 0x0 PUSH2 0x1A2B PUSH1 0x21 DUP4 PUSH2 0x10C9 JUMP JUMPDEST SWAP2 POP PUSH2 0x1A36 DUP3 PUSH2 0x19CF JUMP JUMPDEST PUSH1 0x40 DUP3 ADD SWAP1 POP SWAP2 SWAP1 POP JUMP JUMPDEST PUSH1 0x0 PUSH1 0x20 DUP3 ADD SWAP1 POP DUP2 DUP2 SUB PUSH1 0x0 DUP4 ADD MSTORE PUSH2 0x1A5A DUP2 PUSH2 0x1A1E JUMP JUMPDEST SWAP1 POP SWAP2 SWAP1 POP JUMP JUMPDEST PUSH32 0x45524332303A206275726E20616D6F756E7420657863656564732062616C616E PUSH1 0x0 DUP3 ADD MSTORE PUSH32 0x6365000000000000000000000000000000000000000000000000000000000000 PUSH1 0x20 DUP3 ADD MSTORE POP JUMP JUMPDEST PUSH1 0x0 PUSH2 0x1ABD PUSH1 0x22 DUP4 PUSH2 0x10C9 JUMP JUMPDEST SWAP2 POP PUSH2 0x1AC8 DUP3 PUSH2 0x1A61 JUMP JUMPDEST PUSH1 0x40 DUP3 ADD SWAP1 POP SWAP2 SWAP1 POP JUMP JUMPDEST PUSH1 0x0 PUSH1 0x20 DUP3 ADD SWAP1 POP DUP2 DUP2 SUB PUSH1 0x0 DUP4 ADD MSTORE PUSH2 0x1AEC DUP2 PUSH2 0x1AB0 JUMP JUMPDEST SWAP1 POP SWAP2 SWAP1 POP JUMP JUMPDEST PUSH1 0x0 PUSH2 0x1AFE DUP3 PUSH2 0x11D3 JUMP JUMPDEST SWAP2 POP PUSH2 0x1B09 DUP4 PUSH2 0x11D3 JUMP JUMPDEST SWAP3 POP DUP3 DUP3 SUB SWAP1 POP DUP2 DUP2 GT ISZERO PUSH2 0x1B21 JUMPI PUSH2 0x1B20 PUSH2 0x142A JUMP JUMPDEST JUMPDEST SWAP3 SWAP2 POP POP JUMP INVALID LOG2 PUSH5 0x6970667358 0x22 SLT KECCAK256 0x26 0xB3 SWAP3 0x2F CODECOPY SLOAD SLOAD PUSH16 0xB1CE287C14678A99F71BECB66C27592 SWAP7 CALLDATASIZE MOD SMOD PUSH16 0x95AAF864736F6C634300081000330000 "},"gasEstimates":{"creation":{"codeDepositCost":"4866600","executionCost":"infinite","totalCost":"infinite"},"external":{"balance()":"428","buyFundTokens(uint256)":"infinite","changeFundTokenPrice(uint256)":"infinite","createFund(string,address[],bool,bool,bool,bool,bool,uint256,uint256)":"infinite","createFundPrice()":"353","deployedFunds(uint256)":"infinite","earnedMoney()":"2475","fundToken()":"infinite","fundTokenPrice()":"2474","getDeployedFunds()":"infinite","getDeployedFundsCount()":"2489","owner()":"2545","renounceOwnership()":"30487","transferOwnership(address)":"30810","withdrawMoney()":"infinite"}},"methodIdentifiers":{"balance()":"b69ef8a8","buyFundTokens(uint256)":"fd62a55f","changeFundTokenPrice(uint256)":"cfb35b3b","createFund(string,address[],bool,bool,bool,bool,bool,uint256,uint256)":"64705d8b","createFundPrice()":"027d3f35","deployedFunds(uint256)":"9a068bd6","earnedMoney()":"2dabb8ac","fundToken()":"50adcdb7","fundTokenPrice()":"57800736","getDeployedFunds()":"54d8a5bd","getDeployedFundsCount()":"e1a3db15","owner()":"8da5cb5b","renounceOwnership()":"715018a6","transferOwnership(address)":"f2fde38b","withdrawMoney()":"ac446002"}},"storageLayout":{"storage":[{"astId":299,"contract":"FundFactory.sol:FundFactory","label":"_owner","offset":0,"slot":"0","type":"t_address"},{"astId":10,"contract":"FundFactory.sol:FundFactory","label":"earnedMoney","offset":0,"slot":"1","type":"t_uint256"},{"astId":15,"contract":"FundFactory.sol:FundFactory","label":"fundTokenPrice","offset":0,"slot":"2","type":"t_uint256"},{"astId":22,"contract":"FundFactory.sol:FundFactory","label":"deployedFunds","offset":0,"slot":"3","type":"t_array(t_contract(Fund)1363)dyn_storage"}],"types":{"t_address":{"encoding":"inplace","label":"address","numberOfBytes":"20"},"t_array(t_contract(Fund)1363)dyn_storage":{"base":"t_contract(Fund)1363","encoding":"dynamic_array","label":"contract Fund[]","numberOfBytes":"32"},"t_contract(Fund)1363":{"encoding":"inplace","label":"contract Fund","numberOfBytes":"20"},"t_uint256":{"encoding":"inplace","label":"uint256","numberOfBytes":"32"}}},"userdoc":{"kind":"user","methods":{},"version":1}}