{"abi":[{"inputs":[{"internalType":"string","name":"_name","type":"string"},{"internalType":"address","name":"_creator","type":"address"},{"internalType":"address[]","name":"_managers","type":"address[]"},{"internalType":"bool","name":"_managersCanBeAddedOrRemoved","type":"bool"},{"internalType":"bool","name":"_managersCanTransferMoneyWithoutARequest","type":"bool"},{"internalType":"bool","name":"_requestsCanBeCreated","type":"bool"},{"internalType":"bool","name":"_onlyManagersCanCreateARequest","type":"bool"},{"internalType":"bool","name":"_onlyContributorsCanApproveARequest","type":"bool"},{"internalType":"uint256","name":"_minimumContributionPercentageRequired","type":"uint256"},{"internalType":"uint256","name":"_minimumApprovalsPercentageRequired","type":"uint256"}],"stateMutability":"nonpayable","type":"constructor"},{"anonymous":false,"inputs":[{"indexed":true,"internalType":"uint256","name":"requestIndex","type":"uint256"},{"indexed":true,"internalType":"address","name":"approver","type":"address"}],"name":"ApproveRequest","type":"event"},{"anonymous":false,"inputs":[{"indexed":true,"internalType":"address","name":"contributor","type":"address"},{"indexed":false,"internalType":"uint256","name":"value","type":"uint256"}],"name":"Contribute","type":"event"},{"anonymous":false,"inputs":[{"indexed":true,"internalType":"uint256","name":"requestIndex","type":"uint256"},{"indexed":false,"internalType":"uint256","name":"transferredValue","type":"uint256"}],"name":"FinalizeRequest","type":"event"},{"anonymous":false,"inputs":[{"indexed":true,"internalType":"address","name":"manager","type":"address"}],"name":"NewManager","type":"event"},{"anonymous":false,"inputs":[{"indexed":true,"internalType":"uint256","name":"requestIndex","type":"uint256"},{"indexed":false,"internalType":"string","name":"description","type":"string"},{"indexed":true,"internalType":"address","name":"petitioner","type":"address"},{"indexed":true,"internalType":"address","name":"recipient","type":"address"},{"indexed":false,"internalType":"uint256","name":"valueToTransfer","type":"uint256"}],"name":"NewRequest","type":"event"},{"anonymous":false,"inputs":[{"indexed":true,"internalType":"address","name":"manager","type":"address"}],"name":"RemoveManager","type":"event"},{"anonymous":false,"inputs":[{"indexed":true,"internalType":"address","name":"sender","type":"address"},{"indexed":true,"internalType":"address","name":"to","type":"address"},{"indexed":false,"internalType":"uint256","name":"value","type":"uint256"}],"name":"Transfer","type":"event"},{"inputs":[{"internalType":"address[]","name":"_managers","type":"address[]"}],"name":"addNewManagers","outputs":[],"stateMutability":"nonpayable","type":"function"},{"inputs":[{"internalType":"uint256","name":"_index","type":"uint256"}],"name":"approveRequest","outputs":[],"stateMutability":"nonpayable","type":"function"},{"inputs":[],"name":"balance","outputs":[{"internalType":"uint256","name":"","type":"uint256"}],"stateMutability":"view","type":"function"},{"inputs":[],"name":"contribute","outputs":[],"stateMutability":"payable","type":"function"},{"inputs":[{"internalType":"address","name":"_for","type":"address"}],"name":"contributeFor","outputs":[],"stateMutability":"payable","type":"function"},{"inputs":[{"internalType":"address","name":"","type":"address"}],"name":"contributions","outputs":[{"internalType":"uint256","name":"","type":"uint256"}],"stateMutability":"view","type":"function"},{"inputs":[{"internalType":"uint256","name":"","type":"uint256"}],"name":"contributors","outputs":[{"internalType":"address","name":"","type":"address"}],"stateMutability":"view","type":"function"},{"inputs":[],"name":"contributorsCount","outputs":[{"internalType":"uint256","name":"","type":"uint256"}],"stateMutability":"view","type":"function"},{"inputs":[{"internalType":"string","name":"_description","type":"string"},{"internalType":"address","name":"_recipient","type":"address"},{"internalType":"uint256","name":"_valueToTransfer","type":"uint256"}],"name":"createRequest","outputs":[],"stateMutability":"nonpayable","type":"function"},{"inputs":[],"name":"createdAt","outputs":[{"internalType":"uint256","name":"","type":"uint256"}],"stateMutability":"view","type":"function"},{"inputs":[],"name":"creator","outputs":[{"internalType":"address","name":"","type":"address"}],"stateMutability":"view","type":"function"},{"inputs":[{"internalType":"uint256","name":"_index","type":"uint256"}],"name":"finalizeRequest","outputs":[],"stateMutability":"nonpayable","type":"function"},{"inputs":[],"name":"getContributors","outputs":[{"internalType":"address[]","name":"","type":"address[]"}],"stateMutability":"view","type":"function"},{"inputs":[],"name":"getExtraSummary","outputs":[{"internalType":"address[]","name":"_managers","type":"address[]"},{"internalType":"bool","name":"_managersCanBeAddedOrRemoved","type":"bool"},{"internalType":"address[]","name":"_contributors","type":"address[]"},{"internalType":"uint256","name":"_totalContributions","type":"uint256"},{"internalType":"bool","name":"_managersCanTransferMoneyWithoutARequest","type":"bool"},{"internalType":"bool","name":"_requestsCanBeCreated","type":"bool"},{"internalType":"bool","name":"_onlyManagersCanCreateARequest","type":"bool"},{"internalType":"bool","name":"_onlyContributorsCanApproveARequest","type":"bool"},{"internalType":"uint256","name":"_minimumContributionPercentageRequired","type":"uint256"},{"internalType":"uint256","name":"_minimumApprovalsPercentageRequired","type":"uint256"}],"stateMutability":"view","type":"function"},{"inputs":[],"name":"getManagers","outputs":[{"internalType":"address[]","name":"","type":"address[]"}],"stateMutability":"view","type":"function"},{"inputs":[{"internalType":"uint256","name":"_index","type":"uint256"},{"internalType":"address","name":"_approver","type":"address"}],"name":"getRequestApproval","outputs":[{"internalType":"bool","name":"","type":"bool"}],"stateMutability":"view","type":"function"},{"inputs":[],"name":"getSummary","outputs":[{"internalType":"address","name":"_address","type":"address"},{"internalType":"uint256","name":"_balance","type":"uint256"},{"internalType":"string","name":"_name","type":"string"},{"internalType":"address","name":"_creator","type":"address"},{"internalType":"uint256","name":"_createdAt","type":"uint256"}],"stateMutability":"view","type":"function"},{"inputs":[{"internalType":"address","name":"","type":"address"}],"name":"isManager","outputs":[{"internalType":"bool","name":"","type":"bool"}],"stateMutability":"view","type":"function"},{"inputs":[{"internalType":"uint256","name":"","type":"uint256"}],"name":"managers","outputs":[{"internalType":"address","name":"","type":"address"}],"stateMutability":"view","type":"function"},{"inputs":[],"name":"managersCanBeAddedOrRemoved","outputs":[{"internalType":"bool","name":"","type":"bool"}],"stateMutability":"view","type":"function"},{"inputs":[],"name":"managersCanTransferMoneyWithoutARequest","outputs":[{"internalType":"bool","name":"","type":"bool"}],"stateMutability":"view","type":"function"},{"inputs":[],"name":"managersCount","outputs":[{"internalType":"uint256","name":"","type":"uint256"}],"stateMutability":"view","type":"function"},{"inputs":[],"name":"minimumApprovalsPercentageRequired","outputs":[{"internalType":"uint256","name":"","type":"uint256"}],"stateMutability":"view","type":"function"},{"inputs":[],"name":"minimumContributionPercentageRequired","outputs":[{"internalType":"uint256","name":"","type":"uint256"}],"stateMutability":"view","type":"function"},{"inputs":[],"name":"name","outputs":[{"internalType":"string","name":"","type":"string"}],"stateMutability":"view","type":"function"},{"inputs":[],"name":"onlyContributorsCanApproveARequest","outputs":[{"internalType":"bool","name":"","type":"bool"}],"stateMutability":"view","type":"function"},{"inputs":[],"name":"onlyManagersCanCreateARequest","outputs":[{"internalType":"bool","name":"","type":"bool"}],"stateMutability":"view","type":"function"},{"inputs":[{"internalType":"uint256","name":"_index","type":"uint256"}],"name":"removeManager","outputs":[],"stateMutability":"nonpayable","type":"function"},{"inputs":[{"internalType":"uint256","name":"","type":"uint256"}],"name":"requests","outputs":[{"internalType":"string","name":"description","type":"string"},{"internalType":"address","name":"petitioner","type":"address"},{"internalType":"address","name":"recipient","type":"address"},{"internalType":"uint256","name":"valueToTransfer","type":"uint256"},{"internalType":"uint256","name":"transferredValue","type":"uint256"},{"internalType":"bool","name":"complete","type":"bool"},{"components":[{"internalType":"uint256","name":"_value","type":"uint256"}],"internalType":"struct Counters.Counter","name":"approvalsCount","type":"tuple"}],"stateMutability":"view","type":"function"},{"inputs":[],"name":"requestsCanBeCreated","outputs":[{"internalType":"bool","name":"","type":"bool"}],"stateMutability":"view","type":"function"},{"inputs":[],"name":"requestsCount","outputs":[{"internalType":"uint256","name":"","type":"uint256"}],"stateMutability":"view","type":"function"},{"inputs":[],"name":"totalContributions","outputs":[{"internalType":"uint256","name":"","type":"uint256"}],"stateMutability":"view","type":"function"},{"inputs":[{"internalType":"address","name":"_to","type":"address"},{"internalType":"uint256","name":"_value","type":"uint256"}],"name":"transfer","outputs":[],"stateMutability":"nonpayable","type":"function"}],"devdoc":{"kind":"dev","methods":{},"version":1},"evm":{"assembly":"    /* \"Fund.sol\":280:10751  contract Fund is ReentrancyGuard {... */\n  mstore(0x40, 0x01a0)\n    /* \"Fund.sol\":770:785  block.timestamp */\n  timestamp\n    /* \"Fund.sol\":733:785  uint256 public immutable createdAt = block.timestamp */\n  0xa0\n  swap1\n  dup2\n  mstore\n  pop\n    /* \"Fund.sol\":2254:3410  constructor(... */\n  callvalue\n  dup1\n  iszero\n  tag_1\n  jumpi\n  0x00\n  dup1\n  revert\ntag_1:\n  pop\n  mload(0x40)\n  sub(codesize, bytecodeSize)\n  dup1\n  bytecodeSize\n  dup4\n  codecopy\n  dup2\n  dup2\n  add\n  0x40\n  mstore\n  dup2\n  add\n  swap1\n  tag_2\n  swap2\n  swap1\n  tag_3\n  jump\t// in\ntag_2:\n    /* \"@openzeppelin/contracts/security/ReentrancyGuard.sol\":1701:1702   */\n  0x01\n    /* \"@openzeppelin/contracts/security/ReentrancyGuard.sol\":1806:1813   */\n  0x00\n    /* \"@openzeppelin/contracts/security/ReentrancyGuard.sol\":1806:1828   */\n  dup2\n  swap1\n  sstore\n  pop\n    /* \"Fund.sol\":2684:2689  _name */\n  dup10\n    /* \"Fund.sol\":2677:2681  name */\n  0x01\n    /* \"Fund.sol\":2677:2689  name = _name */\n  swap1\n  dup2\n  tag_8\n  swap2\n  swap1\n  tag_9\n  jump\t// in\ntag_8:\n  pop\n    /* \"Fund.sol\":2706:2714  _creator */\n  dup9\n    /* \"Fund.sol\":2696:2714  creator = _creator */\n  0xffffffffffffffffffffffffffffffffffffffff\n  and\n  0x80\n  dup2\n  0xffffffffffffffffffffffffffffffffffffffff\n  and\n  dup2\n  mstore\n  pop\n  pop\n    /* \"Fund.sol\":2726:2735  uint256 i */\n  0x00\n    /* \"Fund.sol\":2721:2888  for (uint256 i; i < _managers.length; ) {... */\ntag_10:\n    /* \"Fund.sol\":2741:2750  _managers */\n  dup9\n    /* \"Fund.sol\":2741:2757  _managers.length */\n  mload\n    /* \"Fund.sol\":2737:2738  i */\n  dup2\n    /* \"Fund.sol\":2737:2757  i < _managers.length */\n  lt\n    /* \"Fund.sol\":2721:2888  for (uint256 i; i < _managers.length; ) {... */\n  iszero\n  tag_11\n  jumpi\n    /* \"Fund.sol\":2770:2778  managers */\n  0x02\n    /* \"Fund.sol\":2784:2793  _managers */\n  dup10\n    /* \"Fund.sol\":2794:2795  i */\n  dup3\n    /* \"Fund.sol\":2784:2796  _managers[i] */\n  dup2\n  mload\n  dup2\n  lt\n  tag_13\n  jumpi\n  tag_14\n  tag_15\n  jump\t// in\ntag_14:\ntag_13:\n  0x20\n  mul\n  0x20\n  add\n  add\n  mload\n    /* \"Fund.sol\":2770:2797  managers.push(_managers[i]) */\n  swap1\n  dup1\n  0x01\n  dup2\n  sload\n  add\n  dup1\n  dup3\n  sstore\n  dup1\n  swap2\n  pop\n  pop\n  0x01\n  swap1\n  sub\n  swap1\n  0x00\n  mstore\n  keccak256(0x00, 0x20)\n  add\n  0x00\n  swap1\n  swap2\n  swap1\n  swap2\n  swap1\n  swap2\n  0x0100\n  exp\n  dup2\n  sload\n  dup2\n  0xffffffffffffffffffffffffffffffffffffffff\n  mul\n  not\n  and\n  swap1\n  dup4\n  0xffffffffffffffffffffffffffffffffffffffff\n  and\n  mul\n  or\n  swap1\n  sstore\n  pop\n    /* \"Fund.sol\":2832:2836  true */\n  0x01\n    /* \"Fund.sol\":2806:2815  isManager */\n  0x03\n    /* \"Fund.sol\":2806:2829  isManager[_managers[i]] */\n  0x00\n    /* \"Fund.sol\":2816:2825  _managers */\n  dup12\n    /* \"Fund.sol\":2826:2827  i */\n  dup5\n    /* \"Fund.sol\":2816:2828  _managers[i] */\n  dup2\n  mload\n  dup2\n  lt\n  tag_17\n  jumpi\n  tag_18\n  tag_15\n  jump\t// in\ntag_18:\ntag_17:\n  0x20\n  mul\n  0x20\n  add\n  add\n  mload\n    /* \"Fund.sol\":2806:2829  isManager[_managers[i]] */\n  0xffffffffffffffffffffffffffffffffffffffff\n  and\n  0xffffffffffffffffffffffffffffffffffffffff\n  and\n  dup2\n  mstore\n  0x20\n  add\n  swap1\n  dup2\n  mstore\n  0x20\n  add\n  0x00\n  keccak256\n  0x00\n    /* \"Fund.sol\":2806:2836  isManager[_managers[i]] = true */\n  0x0100\n  exp\n  dup2\n  sload\n  dup2\n  0xff\n  mul\n  not\n  and\n  swap1\n  dup4\n  iszero\n  iszero\n  mul\n  or\n  swap1\n  sstore\n  pop\n    /* \"Fund.sol\":2868:2871  i++ */\n  dup1\n  dup1\n  0x01\n  add\n  swap2\n  pop\n  pop\n    /* \"Fund.sol\":2721:2888  for (uint256 i; i < _managers.length; ) {... */\n  jump(tag_10)\ntag_11:\n  pop\n    /* \"Fund.sol\":2924:2952  _managersCanBeAddedOrRemoved */\n  dup7\n    /* \"Fund.sol\":2894:2952  managersCanBeAddedOrRemoved = _managersCanBeAddedOrRemoved */\n  iszero\n  iszero\n  0xc0\n  dup2\n  iszero\n  iszero\n  dup2\n  mstore\n  pop\n  pop\n    /* \"Fund.sol\":3001:3041  _managersCanTransferMoneyWithoutARequest */\n  dup6\n    /* \"Fund.sol\":2959:3041  managersCanTransferMoneyWithoutARequest = _managersCanTransferMoneyWithoutARequest */\n  iszero\n  iszero\n  0xe0\n  dup2\n  iszero\n  iszero\n  dup2\n  mstore\n  pop\n  pop\n    /* \"Fund.sol\":3071:3092  _requestsCanBeCreated */\n  dup5\n    /* \"Fund.sol\":3048:3092  requestsCanBeCreated = _requestsCanBeCreated */\n  iszero\n  iszero\n  0x0100\n  dup2\n  iszero\n  iszero\n  dup2\n  mstore\n  pop\n  pop\n    /* \"Fund.sol\":3131:3161  _onlyManagersCanCreateARequest */\n  dup4\n    /* \"Fund.sol\":3099:3161  onlyManagersCanCreateARequest = _onlyManagersCanCreateARequest */\n  iszero\n  iszero\n  0x0120\n  dup2\n  iszero\n  iszero\n  dup2\n  mstore\n  pop\n  pop\n    /* \"Fund.sol\":3205:3240  _onlyContributorsCanApproveARequest */\n  dup3\n    /* \"Fund.sol\":3168:3240  onlyContributorsCanApproveARequest = _onlyContributorsCanApproveARequest */\n  iszero\n  iszero\n  0x0140\n  dup2\n  iszero\n  iszero\n  dup2\n  mstore\n  pop\n  pop\n    /* \"Fund.sol\":3287:3325  _minimumContributionPercentageRequired */\n  dup2\n    /* \"Fund.sol\":3247:3325  minimumContributionPercentageRequired = _minimumContributionPercentageRequired */\n  0x0160\n  dup2\n  dup2\n  mstore\n  pop\n  pop\n    /* \"Fund.sol\":3369:3404  _minimumApprovalsPercentageRequired */\n  dup1\n    /* \"Fund.sol\":3332:3404  minimumApprovalsPercentageRequired = _minimumApprovalsPercentageRequired */\n  0x0180\n  dup2\n  dup2\n  mstore\n  pop\n  pop\n    /* \"Fund.sol\":2254:3410  constructor(... */\n  pop\n  pop\n  pop\n  pop\n  pop\n  pop\n  pop\n  pop\n  pop\n  pop\n    /* \"Fund.sol\":280:10751  contract Fund is ReentrancyGuard {... */\n  jump(tag_19)\n    /* \"#utility.yul\":7:82   */\ntag_20:\n    /* \"#utility.yul\":40:46   */\n  0x00\n    /* \"#utility.yul\":73:75   */\n  0x40\n    /* \"#utility.yul\":67:76   */\n  mload\n    /* \"#utility.yul\":57:76   */\n  swap1\n  pop\n    /* \"#utility.yul\":7:82   */\n  swap1\n  jump\t// out\n    /* \"#utility.yul\":88:205   */\ntag_21:\n    /* \"#utility.yul\":197:198   */\n  0x00\n    /* \"#utility.yul\":194:195   */\n  dup1\n    /* \"#utility.yul\":187:199   */\n  revert\n    /* \"#utility.yul\":211:328   */\ntag_22:\n    /* \"#utility.yul\":320:321   */\n  0x00\n    /* \"#utility.yul\":317:318   */\n  dup1\n    /* \"#utility.yul\":310:322   */\n  revert\n    /* \"#utility.yul\":334:451   */\ntag_23:\n    /* \"#utility.yul\":443:444   */\n  0x00\n    /* \"#utility.yul\":440:441   */\n  dup1\n    /* \"#utility.yul\":433:445   */\n  revert\n    /* \"#utility.yul\":457:574   */\ntag_24:\n    /* \"#utility.yul\":566:567   */\n  0x00\n    /* \"#utility.yul\":563:564   */\n  dup1\n    /* \"#utility.yul\":556:568   */\n  revert\n    /* \"#utility.yul\":580:682   */\ntag_25:\n    /* \"#utility.yul\":621:627   */\n  0x00\n    /* \"#utility.yul\":672:674   */\n  0x1f\n    /* \"#utility.yul\":668:675   */\n  not\n    /* \"#utility.yul\":663:665   */\n  0x1f\n    /* \"#utility.yul\":656:661   */\n  dup4\n    /* \"#utility.yul\":652:666   */\n  add\n    /* \"#utility.yul\":648:676   */\n  and\n    /* \"#utility.yul\":638:676   */\n  swap1\n  pop\n    /* \"#utility.yul\":580:682   */\n  swap2\n  swap1\n  pop\n  jump\t// out\n    /* \"#utility.yul\":688:868   */\ntag_26:\n    /* \"#utility.yul\":736:813   */\n  0x4e487b7100000000000000000000000000000000000000000000000000000000\n    /* \"#utility.yul\":733:734   */\n  0x00\n    /* \"#utility.yul\":726:814   */\n  mstore\n    /* \"#utility.yul\":833:837   */\n  0x41\n    /* \"#utility.yul\":830:831   */\n  0x04\n    /* \"#utility.yul\":823:838   */\n  mstore\n    /* \"#utility.yul\":857:861   */\n  0x24\n    /* \"#utility.yul\":854:855   */\n  0x00\n    /* \"#utility.yul\":847:862   */\n  revert\n    /* \"#utility.yul\":874:1155   */\ntag_27:\n    /* \"#utility.yul\":957:984   */\n  tag_74\n    /* \"#utility.yul\":979:983   */\n  dup3\n    /* \"#utility.yul\":957:984   */\n  tag_25\n  jump\t// in\ntag_74:\n    /* \"#utility.yul\":949:955   */\n  dup2\n    /* \"#utility.yul\":945:985   */\n  add\n    /* \"#utility.yul\":1087:1093   */\n  dup2\n    /* \"#utility.yul\":1075:1085   */\n  dup2\n    /* \"#utility.yul\":1072:1094   */\n  lt\n    /* \"#utility.yul\":1051:1069   */\n  0xffffffffffffffff\n    /* \"#utility.yul\":1039:1049   */\n  dup3\n    /* \"#utility.yul\":1036:1070   */\n  gt\n    /* \"#utility.yul\":1033:1095   */\n  or\n    /* \"#utility.yul\":1030:1118   */\n  iszero\n  tag_75\n  jumpi\n    /* \"#utility.yul\":1098:1116   */\n  tag_76\n  tag_26\n  jump\t// in\ntag_76:\n    /* \"#utility.yul\":1030:1118   */\ntag_75:\n    /* \"#utility.yul\":1138:1148   */\n  dup1\n    /* \"#utility.yul\":1134:1136   */\n  0x40\n    /* \"#utility.yul\":1127:1149   */\n  mstore\n    /* \"#utility.yul\":917:1155   */\n  pop\n    /* \"#utility.yul\":874:1155   */\n  pop\n  pop\n  jump\t// out\n    /* \"#utility.yul\":1161:1290   */\ntag_28:\n    /* \"#utility.yul\":1195:1201   */\n  0x00\n    /* \"#utility.yul\":1222:1242   */\n  tag_78\n  tag_20\n  jump\t// in\ntag_78:\n    /* \"#utility.yul\":1212:1242   */\n  swap1\n  pop\n    /* \"#utility.yul\":1251:1284   */\n  tag_79\n    /* \"#utility.yul\":1279:1283   */\n  dup3\n    /* \"#utility.yul\":1271:1277   */\n  dup3\n    /* \"#utility.yul\":1251:1284   */\n  tag_27\n  jump\t// in\ntag_79:\n    /* \"#utility.yul\":1161:1290   */\n  swap2\n  swap1\n  pop\n  jump\t// out\n    /* \"#utility.yul\":1296:1604   */\ntag_29:\n    /* \"#utility.yul\":1358:1362   */\n  0x00\n    /* \"#utility.yul\":1448:1466   */\n  0xffffffffffffffff\n    /* \"#utility.yul\":1440:1446   */\n  dup3\n    /* \"#utility.yul\":1437:1467   */\n  gt\n    /* \"#utility.yul\":1434:1490   */\n  iszero\n  tag_81\n  jumpi\n    /* \"#utility.yul\":1470:1488   */\n  tag_82\n  tag_26\n  jump\t// in\ntag_82:\n    /* \"#utility.yul\":1434:1490   */\ntag_81:\n    /* \"#utility.yul\":1508:1537   */\n  tag_83\n    /* \"#utility.yul\":1530:1536   */\n  dup3\n    /* \"#utility.yul\":1508:1537   */\n  tag_25\n  jump\t// in\ntag_83:\n    /* \"#utility.yul\":1500:1537   */\n  swap1\n  pop\n    /* \"#utility.yul\":1592:1596   */\n  0x20\n    /* \"#utility.yul\":1586:1590   */\n  dup2\n    /* \"#utility.yul\":1582:1597   */\n  add\n    /* \"#utility.yul\":1574:1597   */\n  swap1\n  pop\n    /* \"#utility.yul\":1296:1604   */\n  swap2\n  swap1\n  pop\n  jump\t// out\n    /* \"#utility.yul\":1610:1856   */\ntag_30:\n    /* \"#utility.yul\":1691:1692   */\n  0x00\n    /* \"#utility.yul\":1701:1814   */\ntag_85:\n    /* \"#utility.yul\":1715:1721   */\n  dup4\n    /* \"#utility.yul\":1712:1713   */\n  dup2\n    /* \"#utility.yul\":1709:1722   */\n  lt\n    /* \"#utility.yul\":1701:1814   */\n  iszero\n  tag_87\n  jumpi\n    /* \"#utility.yul\":1800:1801   */\n  dup1\n    /* \"#utility.yul\":1795:1798   */\n  dup3\n    /* \"#utility.yul\":1791:1802   */\n  add\n    /* \"#utility.yul\":1785:1803   */\n  mload\n    /* \"#utility.yul\":1781:1782   */\n  dup2\n    /* \"#utility.yul\":1776:1779   */\n  dup5\n    /* \"#utility.yul\":1772:1783   */\n  add\n    /* \"#utility.yul\":1765:1804   */\n  mstore\n    /* \"#utility.yul\":1737:1739   */\n  0x20\n    /* \"#utility.yul\":1734:1735   */\n  dup2\n    /* \"#utility.yul\":1730:1740   */\n  add\n    /* \"#utility.yul\":1725:1740   */\n  swap1\n  pop\n    /* \"#utility.yul\":1701:1814   */\n  jump(tag_85)\ntag_87:\n    /* \"#utility.yul\":1848:1849   */\n  0x00\n    /* \"#utility.yul\":1839:1845   */\n  dup5\n    /* \"#utility.yul\":1834:1837   */\n  dup5\n    /* \"#utility.yul\":1830:1846   */\n  add\n    /* \"#utility.yul\":1823:1850   */\n  mstore\n    /* \"#utility.yul\":1672:1856   */\n  pop\n    /* \"#utility.yul\":1610:1856   */\n  pop\n  pop\n  pop\n  jump\t// out\n    /* \"#utility.yul\":1862:2296   */\ntag_31:\n    /* \"#utility.yul\":1951:1956   */\n  0x00\n    /* \"#utility.yul\":1976:2042   */\n  tag_89\n    /* \"#utility.yul\":1992:2041   */\n  tag_90\n    /* \"#utility.yul\":2034:2040   */\n  dup5\n    /* \"#utility.yul\":1992:2041   */\n  tag_29\n  jump\t// in\ntag_90:\n    /* \"#utility.yul\":1976:2042   */\n  tag_28\n  jump\t// in\ntag_89:\n    /* \"#utility.yul\":1967:2042   */\n  swap1\n  pop\n    /* \"#utility.yul\":2065:2071   */\n  dup3\n    /* \"#utility.yul\":2058:2063   */\n  dup2\n    /* \"#utility.yul\":2051:2072   */\n  mstore\n    /* \"#utility.yul\":2103:2107   */\n  0x20\n    /* \"#utility.yul\":2096:2101   */\n  dup2\n    /* \"#utility.yul\":2092:2108   */\n  add\n    /* \"#utility.yul\":2141:2144   */\n  dup5\n    /* \"#utility.yul\":2132:2138   */\n  dup5\n    /* \"#utility.yul\":2127:2130   */\n  dup5\n    /* \"#utility.yul\":2123:2139   */\n  add\n    /* \"#utility.yul\":2120:2145   */\n  gt\n    /* \"#utility.yul\":2117:2229   */\n  iszero\n  tag_91\n  jumpi\n    /* \"#utility.yul\":2148:2227   */\n  tag_92\n  tag_24\n  jump\t// in\ntag_92:\n    /* \"#utility.yul\":2117:2229   */\ntag_91:\n    /* \"#utility.yul\":2238:2290   */\n  tag_93\n    /* \"#utility.yul\":2283:2289   */\n  dup5\n    /* \"#utility.yul\":2278:2281   */\n  dup3\n    /* \"#utility.yul\":2273:2276   */\n  dup6\n    /* \"#utility.yul\":2238:2290   */\n  tag_30\n  jump\t// in\ntag_93:\n    /* \"#utility.yul\":1957:2296   */\n  pop\n    /* \"#utility.yul\":1862:2296   */\n  swap4\n  swap3\n  pop\n  pop\n  pop\n  jump\t// out\n    /* \"#utility.yul\":2316:2671   */\ntag_32:\n    /* \"#utility.yul\":2383:2388   */\n  0x00\n    /* \"#utility.yul\":2432:2435   */\n  dup3\n    /* \"#utility.yul\":2425:2429   */\n  0x1f\n    /* \"#utility.yul\":2417:2423   */\n  dup4\n    /* \"#utility.yul\":2413:2430   */\n  add\n    /* \"#utility.yul\":2409:2436   */\n  slt\n    /* \"#utility.yul\":2399:2521   */\n  tag_95\n  jumpi\n    /* \"#utility.yul\":2440:2519   */\n  tag_96\n  tag_23\n  jump\t// in\ntag_96:\n    /* \"#utility.yul\":2399:2521   */\ntag_95:\n    /* \"#utility.yul\":2550:2556   */\n  dup2\n    /* \"#utility.yul\":2544:2557   */\n  mload\n    /* \"#utility.yul\":2575:2665   */\n  tag_97\n    /* \"#utility.yul\":2661:2664   */\n  dup5\n    /* \"#utility.yul\":2653:2659   */\n  dup3\n    /* \"#utility.yul\":2646:2650   */\n  0x20\n    /* \"#utility.yul\":2638:2644   */\n  dup7\n    /* \"#utility.yul\":2634:2651   */\n  add\n    /* \"#utility.yul\":2575:2665   */\n  tag_31\n  jump\t// in\ntag_97:\n    /* \"#utility.yul\":2566:2665   */\n  swap2\n  pop\n    /* \"#utility.yul\":2389:2671   */\n  pop\n    /* \"#utility.yul\":2316:2671   */\n  swap3\n  swap2\n  pop\n  pop\n  jump\t// out\n    /* \"#utility.yul\":2677:2803   */\ntag_33:\n    /* \"#utility.yul\":2714:2721   */\n  0x00\n    /* \"#utility.yul\":2754:2796   */\n  0xffffffffffffffffffffffffffffffffffffffff\n    /* \"#utility.yul\":2747:2752   */\n  dup3\n    /* \"#utility.yul\":2743:2797   */\n  and\n    /* \"#utility.yul\":2732:2797   */\n  swap1\n  pop\n    /* \"#utility.yul\":2677:2803   */\n  swap2\n  swap1\n  pop\n  jump\t// out\n    /* \"#utility.yul\":2809:2905   */\ntag_34:\n    /* \"#utility.yul\":2846:2853   */\n  0x00\n    /* \"#utility.yul\":2875:2899   */\n  tag_100\n    /* \"#utility.yul\":2893:2898   */\n  dup3\n    /* \"#utility.yul\":2875:2899   */\n  tag_33\n  jump\t// in\ntag_100:\n    /* \"#utility.yul\":2864:2899   */\n  swap1\n  pop\n    /* \"#utility.yul\":2809:2905   */\n  swap2\n  swap1\n  pop\n  jump\t// out\n    /* \"#utility.yul\":2911:3033   */\ntag_35:\n    /* \"#utility.yul\":2984:3008   */\n  tag_102\n    /* \"#utility.yul\":3002:3007   */\n  dup2\n    /* \"#utility.yul\":2984:3008   */\n  tag_34\n  jump\t// in\ntag_102:\n    /* \"#utility.yul\":2977:2982   */\n  dup2\n    /* \"#utility.yul\":2974:3009   */\n  eq\n    /* \"#utility.yul\":2964:3027   */\n  tag_103\n  jumpi\n    /* \"#utility.yul\":3023:3024   */\n  0x00\n    /* \"#utility.yul\":3020:3021   */\n  dup1\n    /* \"#utility.yul\":3013:3025   */\n  revert\n    /* \"#utility.yul\":2964:3027   */\ntag_103:\n    /* \"#utility.yul\":2911:3033   */\n  pop\n  jump\t// out\n    /* \"#utility.yul\":3039:3182   */\ntag_36:\n    /* \"#utility.yul\":3096:3101   */\n  0x00\n    /* \"#utility.yul\":3127:3133   */\n  dup2\n    /* \"#utility.yul\":3121:3134   */\n  mload\n    /* \"#utility.yul\":3112:3134   */\n  swap1\n  pop\n    /* \"#utility.yul\":3143:3176   */\n  tag_105\n    /* \"#utility.yul\":3170:3175   */\n  dup2\n    /* \"#utility.yul\":3143:3176   */\n  tag_35\n  jump\t// in\ntag_105:\n    /* \"#utility.yul\":3039:3182   */\n  swap3\n  swap2\n  pop\n  pop\n  jump\t// out\n    /* \"#utility.yul\":3188:3499   */\ntag_37:\n    /* \"#utility.yul\":3265:3269   */\n  0x00\n    /* \"#utility.yul\":3355:3373   */\n  0xffffffffffffffff\n    /* \"#utility.yul\":3347:3353   */\n  dup3\n    /* \"#utility.yul\":3344:3374   */\n  gt\n    /* \"#utility.yul\":3341:3397   */\n  iszero\n  tag_107\n  jumpi\n    /* \"#utility.yul\":3377:3395   */\n  tag_108\n  tag_26\n  jump\t// in\ntag_108:\n    /* \"#utility.yul\":3341:3397   */\ntag_107:\n    /* \"#utility.yul\":3427:3431   */\n  0x20\n    /* \"#utility.yul\":3419:3425   */\n  dup3\n    /* \"#utility.yul\":3415:3432   */\n  mul\n    /* \"#utility.yul\":3407:3432   */\n  swap1\n  pop\n    /* \"#utility.yul\":3487:3491   */\n  0x20\n    /* \"#utility.yul\":3481:3485   */\n  dup2\n    /* \"#utility.yul\":3477:3492   */\n  add\n    /* \"#utility.yul\":3469:3492   */\n  swap1\n  pop\n    /* \"#utility.yul\":3188:3499   */\n  swap2\n  swap1\n  pop\n  jump\t// out\n    /* \"#utility.yul\":3505:3622   */\ntag_38:\n    /* \"#utility.yul\":3614:3615   */\n  0x00\n    /* \"#utility.yul\":3611:3612   */\n  dup1\n    /* \"#utility.yul\":3604:3616   */\n  revert\n    /* \"#utility.yul\":3645:4377   */\ntag_39:\n    /* \"#utility.yul\":3752:3757   */\n  0x00\n    /* \"#utility.yul\":3777:3858   */\n  tag_111\n    /* \"#utility.yul\":3793:3857   */\n  tag_112\n    /* \"#utility.yul\":3850:3856   */\n  dup5\n    /* \"#utility.yul\":3793:3857   */\n  tag_37\n  jump\t// in\ntag_112:\n    /* \"#utility.yul\":3777:3858   */\n  tag_28\n  jump\t// in\ntag_111:\n    /* \"#utility.yul\":3768:3858   */\n  swap1\n  pop\n    /* \"#utility.yul\":3878:3883   */\n  dup1\n    /* \"#utility.yul\":3907:3913   */\n  dup4\n    /* \"#utility.yul\":3900:3905   */\n  dup3\n    /* \"#utility.yul\":3893:3914   */\n  mstore\n    /* \"#utility.yul\":3941:3945   */\n  0x20\n    /* \"#utility.yul\":3934:3939   */\n  dup3\n    /* \"#utility.yul\":3930:3946   */\n  add\n    /* \"#utility.yul\":3923:3946   */\n  swap1\n  pop\n    /* \"#utility.yul\":3994:3998   */\n  0x20\n    /* \"#utility.yul\":3986:3992   */\n  dup5\n    /* \"#utility.yul\":3982:3999   */\n  mul\n    /* \"#utility.yul\":3974:3980   */\n  dup4\n    /* \"#utility.yul\":3970:4000   */\n  add\n    /* \"#utility.yul\":4023:4026   */\n  dup6\n    /* \"#utility.yul\":4015:4021   */\n  dup2\n    /* \"#utility.yul\":4012:4027   */\n  gt\n    /* \"#utility.yul\":4009:4131   */\n  iszero\n  tag_113\n  jumpi\n    /* \"#utility.yul\":4042:4121   */\n  tag_114\n  tag_38\n  jump\t// in\ntag_114:\n    /* \"#utility.yul\":4009:4131   */\ntag_113:\n    /* \"#utility.yul\":4157:4163   */\n  dup4\n    /* \"#utility.yul\":4140:4371   */\ntag_115:\n    /* \"#utility.yul\":4174:4180   */\n  dup2\n    /* \"#utility.yul\":4169:4172   */\n  dup2\n    /* \"#utility.yul\":4166:4181   */\n  lt\n    /* \"#utility.yul\":4140:4371   */\n  iszero\n  tag_117\n  jumpi\n    /* \"#utility.yul\":4249:4252   */\n  dup1\n    /* \"#utility.yul\":4278:4326   */\n  tag_118\n    /* \"#utility.yul\":4322:4325   */\n  dup9\n    /* \"#utility.yul\":4310:4320   */\n  dup3\n    /* \"#utility.yul\":4278:4326   */\n  tag_36\n  jump\t// in\ntag_118:\n    /* \"#utility.yul\":4273:4276   */\n  dup5\n    /* \"#utility.yul\":4266:4327   */\n  mstore\n    /* \"#utility.yul\":4356:4360   */\n  0x20\n    /* \"#utility.yul\":4351:4354   */\n  dup5\n    /* \"#utility.yul\":4347:4361   */\n  add\n    /* \"#utility.yul\":4340:4361   */\n  swap4\n  pop\n    /* \"#utility.yul\":4216:4371   */\n  pop\n    /* \"#utility.yul\":4200:4204   */\n  0x20\n    /* \"#utility.yul\":4195:4198   */\n  dup2\n    /* \"#utility.yul\":4191:4205   */\n  add\n    /* \"#utility.yul\":4184:4205   */\n  swap1\n  pop\n    /* \"#utility.yul\":4140:4371   */\n  jump(tag_115)\ntag_117:\n    /* \"#utility.yul\":4144:4165   */\n  pop\n    /* \"#utility.yul\":3758:4377   */\n  pop\n  pop\n    /* \"#utility.yul\":3645:4377   */\n  swap4\n  swap3\n  pop\n  pop\n  pop\n  jump\t// out\n    /* \"#utility.yul\":4400:4785   */\ntag_40:\n    /* \"#utility.yul\":4482:4487   */\n  0x00\n    /* \"#utility.yul\":4531:4534   */\n  dup3\n    /* \"#utility.yul\":4524:4528   */\n  0x1f\n    /* \"#utility.yul\":4516:4522   */\n  dup4\n    /* \"#utility.yul\":4512:4529   */\n  add\n    /* \"#utility.yul\":4508:4535   */\n  slt\n    /* \"#utility.yul\":4498:4620   */\n  tag_120\n  jumpi\n    /* \"#utility.yul\":4539:4618   */\n  tag_121\n  tag_23\n  jump\t// in\ntag_121:\n    /* \"#utility.yul\":4498:4620   */\ntag_120:\n    /* \"#utility.yul\":4649:4655   */\n  dup2\n    /* \"#utility.yul\":4643:4656   */\n  mload\n    /* \"#utility.yul\":4674:4779   */\n  tag_122\n    /* \"#utility.yul\":4775:4778   */\n  dup5\n    /* \"#utility.yul\":4767:4773   */\n  dup3\n    /* \"#utility.yul\":4760:4764   */\n  0x20\n    /* \"#utility.yul\":4752:4758   */\n  dup7\n    /* \"#utility.yul\":4748:4765   */\n  add\n    /* \"#utility.yul\":4674:4779   */\n  tag_39\n  jump\t// in\ntag_122:\n    /* \"#utility.yul\":4665:4779   */\n  swap2\n  pop\n    /* \"#utility.yul\":4488:4785   */\n  pop\n    /* \"#utility.yul\":4400:4785   */\n  swap3\n  swap2\n  pop\n  pop\n  jump\t// out\n    /* \"#utility.yul\":4791:4881   */\ntag_41:\n    /* \"#utility.yul\":4825:4832   */\n  0x00\n    /* \"#utility.yul\":4868:4873   */\n  dup2\n    /* \"#utility.yul\":4861:4874   */\n  iszero\n    /* \"#utility.yul\":4854:4875   */\n  iszero\n    /* \"#utility.yul\":4843:4875   */\n  swap1\n  pop\n    /* \"#utility.yul\":4791:4881   */\n  swap2\n  swap1\n  pop\n  jump\t// out\n    /* \"#utility.yul\":4887:5003   */\ntag_42:\n    /* \"#utility.yul\":4957:4978   */\n  tag_125\n    /* \"#utility.yul\":4972:4977   */\n  dup2\n    /* \"#utility.yul\":4957:4978   */\n  tag_41\n  jump\t// in\ntag_125:\n    /* \"#utility.yul\":4950:4955   */\n  dup2\n    /* \"#utility.yul\":4947:4979   */\n  eq\n    /* \"#utility.yul\":4937:4997   */\n  tag_126\n  jumpi\n    /* \"#utility.yul\":4993:4994   */\n  0x00\n    /* \"#utility.yul\":4990:4991   */\n  dup1\n    /* \"#utility.yul\":4983:4995   */\n  revert\n    /* \"#utility.yul\":4937:4997   */\ntag_126:\n    /* \"#utility.yul\":4887:5003   */\n  pop\n  jump\t// out\n    /* \"#utility.yul\":5009:5146   */\ntag_43:\n    /* \"#utility.yul\":5063:5068   */\n  0x00\n    /* \"#utility.yul\":5094:5100   */\n  dup2\n    /* \"#utility.yul\":5088:5101   */\n  mload\n    /* \"#utility.yul\":5079:5101   */\n  swap1\n  pop\n    /* \"#utility.yul\":5110:5140   */\n  tag_128\n    /* \"#utility.yul\":5134:5139   */\n  dup2\n    /* \"#utility.yul\":5110:5140   */\n  tag_42\n  jump\t// in\ntag_128:\n    /* \"#utility.yul\":5009:5146   */\n  swap3\n  swap2\n  pop\n  pop\n  jump\t// out\n    /* \"#utility.yul\":5152:5229   */\ntag_44:\n    /* \"#utility.yul\":5189:5196   */\n  0x00\n    /* \"#utility.yul\":5218:5223   */\n  dup2\n    /* \"#utility.yul\":5207:5223   */\n  swap1\n  pop\n    /* \"#utility.yul\":5152:5229   */\n  swap2\n  swap1\n  pop\n  jump\t// out\n    /* \"#utility.yul\":5235:5357   */\ntag_45:\n    /* \"#utility.yul\":5308:5332   */\n  tag_131\n    /* \"#utility.yul\":5326:5331   */\n  dup2\n    /* \"#utility.yul\":5308:5332   */\n  tag_44\n  jump\t// in\ntag_131:\n    /* \"#utility.yul\":5301:5306   */\n  dup2\n    /* \"#utility.yul\":5298:5333   */\n  eq\n    /* \"#utility.yul\":5288:5351   */\n  tag_132\n  jumpi\n    /* \"#utility.yul\":5347:5348   */\n  0x00\n    /* \"#utility.yul\":5344:5345   */\n  dup1\n    /* \"#utility.yul\":5337:5349   */\n  revert\n    /* \"#utility.yul\":5288:5351   */\ntag_132:\n    /* \"#utility.yul\":5235:5357   */\n  pop\n  jump\t// out\n    /* \"#utility.yul\":5363:5506   */\ntag_46:\n    /* \"#utility.yul\":5420:5425   */\n  0x00\n    /* \"#utility.yul\":5451:5457   */\n  dup2\n    /* \"#utility.yul\":5445:5458   */\n  mload\n    /* \"#utility.yul\":5436:5458   */\n  swap1\n  pop\n    /* \"#utility.yul\":5467:5500   */\n  tag_134\n    /* \"#utility.yul\":5494:5499   */\n  dup2\n    /* \"#utility.yul\":5467:5500   */\n  tag_45\n  jump\t// in\ntag_134:\n    /* \"#utility.yul\":5363:5506   */\n  swap3\n  swap2\n  pop\n  pop\n  jump\t// out\n    /* \"#utility.yul\":5512:7620   */\ntag_3:\n    /* \"#utility.yul\":5683:5689   */\n  0x00\n    /* \"#utility.yul\":5691:5697   */\n  dup1\n    /* \"#utility.yul\":5699:5705   */\n  0x00\n    /* \"#utility.yul\":5707:5713   */\n  dup1\n    /* \"#utility.yul\":5715:5721   */\n  0x00\n    /* \"#utility.yul\":5723:5729   */\n  dup1\n    /* \"#utility.yul\":5731:5737   */\n  0x00\n    /* \"#utility.yul\":5739:5745   */\n  dup1\n    /* \"#utility.yul\":5747:5753   */\n  0x00\n    /* \"#utility.yul\":5755:5761   */\n  dup1\n    /* \"#utility.yul\":5804:5807   */\n  0x0140\n    /* \"#utility.yul\":5792:5801   */\n  dup12\n    /* \"#utility.yul\":5783:5790   */\n  dup14\n    /* \"#utility.yul\":5779:5802   */\n  sub\n    /* \"#utility.yul\":5775:5808   */\n  slt\n    /* \"#utility.yul\":5772:5892   */\n  iszero\n  tag_136\n  jumpi\n    /* \"#utility.yul\":5811:5890   */\n  tag_137\n  tag_21\n  jump\t// in\ntag_137:\n    /* \"#utility.yul\":5772:5892   */\ntag_136:\n    /* \"#utility.yul\":5952:5953   */\n  0x00\n    /* \"#utility.yul\":5941:5950   */\n  dup12\n    /* \"#utility.yul\":5937:5954   */\n  add\n    /* \"#utility.yul\":5931:5955   */\n  mload\n    /* \"#utility.yul\":5982:6000   */\n  0xffffffffffffffff\n    /* \"#utility.yul\":5974:5980   */\n  dup2\n    /* \"#utility.yul\":5971:6001   */\n  gt\n    /* \"#utility.yul\":5968:6085   */\n  iszero\n  tag_138\n  jumpi\n    /* \"#utility.yul\":6004:6083   */\n  tag_139\n  tag_22\n  jump\t// in\ntag_139:\n    /* \"#utility.yul\":5968:6085   */\ntag_138:\n    /* \"#utility.yul\":6109:6183   */\n  tag_140\n    /* \"#utility.yul\":6175:6182   */\n  dup14\n    /* \"#utility.yul\":6166:6172   */\n  dup3\n    /* \"#utility.yul\":6155:6164   */\n  dup15\n    /* \"#utility.yul\":6151:6173   */\n  add\n    /* \"#utility.yul\":6109:6183   */\n  tag_32\n  jump\t// in\ntag_140:\n    /* \"#utility.yul\":6099:6183   */\n  swap11\n  pop\n    /* \"#utility.yul\":5902:6193   */\n  pop\n    /* \"#utility.yul\":6232:6234   */\n  0x20\n    /* \"#utility.yul\":6258:6322   */\n  tag_141\n    /* \"#utility.yul\":6314:6321   */\n  dup14\n    /* \"#utility.yul\":6305:6311   */\n  dup3\n    /* \"#utility.yul\":6294:6303   */\n  dup15\n    /* \"#utility.yul\":6290:6312   */\n  add\n    /* \"#utility.yul\":6258:6322   */\n  tag_36\n  jump\t// in\ntag_141:\n    /* \"#utility.yul\":6248:6322   */\n  swap10\n  pop\n    /* \"#utility.yul\":6203:6332   */\n  pop\n    /* \"#utility.yul\":6392:6394   */\n  0x40\n    /* \"#utility.yul\":6381:6390   */\n  dup12\n    /* \"#utility.yul\":6377:6395   */\n  add\n    /* \"#utility.yul\":6371:6396   */\n  mload\n    /* \"#utility.yul\":6423:6441   */\n  0xffffffffffffffff\n    /* \"#utility.yul\":6415:6421   */\n  dup2\n    /* \"#utility.yul\":6412:6442   */\n  gt\n    /* \"#utility.yul\":6409:6526   */\n  iszero\n  tag_142\n  jumpi\n    /* \"#utility.yul\":6445:6524   */\n  tag_143\n  tag_22\n  jump\t// in\ntag_143:\n    /* \"#utility.yul\":6409:6526   */\ntag_142:\n    /* \"#utility.yul\":6550:6639   */\n  tag_144\n    /* \"#utility.yul\":6631:6638   */\n  dup14\n    /* \"#utility.yul\":6622:6628   */\n  dup3\n    /* \"#utility.yul\":6611:6620   */\n  dup15\n    /* \"#utility.yul\":6607:6629   */\n  add\n    /* \"#utility.yul\":6550:6639   */\n  tag_40\n  jump\t// in\ntag_144:\n    /* \"#utility.yul\":6540:6639   */\n  swap9\n  pop\n    /* \"#utility.yul\":6342:6649   */\n  pop\n    /* \"#utility.yul\":6688:6690   */\n  0x60\n    /* \"#utility.yul\":6714:6775   */\n  tag_145\n    /* \"#utility.yul\":6767:6774   */\n  dup14\n    /* \"#utility.yul\":6758:6764   */\n  dup3\n    /* \"#utility.yul\":6747:6756   */\n  dup15\n    /* \"#utility.yul\":6743:6765   */\n  add\n    /* \"#utility.yul\":6714:6775   */\n  tag_43\n  jump\t// in\ntag_145:\n    /* \"#utility.yul\":6704:6775   */\n  swap8\n  pop\n    /* \"#utility.yul\":6659:6785   */\n  pop\n    /* \"#utility.yul\":6824:6827   */\n  0x80\n    /* \"#utility.yul\":6851:6912   */\n  tag_146\n    /* \"#utility.yul\":6904:6911   */\n  dup14\n    /* \"#utility.yul\":6895:6901   */\n  dup3\n    /* \"#utility.yul\":6884:6893   */\n  dup15\n    /* \"#utility.yul\":6880:6902   */\n  add\n    /* \"#utility.yul\":6851:6912   */\n  tag_43\n  jump\t// in\ntag_146:\n    /* \"#utility.yul\":6841:6912   */\n  swap7\n  pop\n    /* \"#utility.yul\":6795:6922   */\n  pop\n    /* \"#utility.yul\":6961:6964   */\n  0xa0\n    /* \"#utility.yul\":6988:7049   */\n  tag_147\n    /* \"#utility.yul\":7041:7048   */\n  dup14\n    /* \"#utility.yul\":7032:7038   */\n  dup3\n    /* \"#utility.yul\":7021:7030   */\n  dup15\n    /* \"#utility.yul\":7017:7039   */\n  add\n    /* \"#utility.yul\":6988:7049   */\n  tag_43\n  jump\t// in\ntag_147:\n    /* \"#utility.yul\":6978:7049   */\n  swap6\n  pop\n    /* \"#utility.yul\":6932:7059   */\n  pop\n    /* \"#utility.yul\":7098:7101   */\n  0xc0\n    /* \"#utility.yul\":7125:7186   */\n  tag_148\n    /* \"#utility.yul\":7178:7185   */\n  dup14\n    /* \"#utility.yul\":7169:7175   */\n  dup3\n    /* \"#utility.yul\":7158:7167   */\n  dup15\n    /* \"#utility.yul\":7154:7176   */\n  add\n    /* \"#utility.yul\":7125:7186   */\n  tag_43\n  jump\t// in\ntag_148:\n    /* \"#utility.yul\":7115:7186   */\n  swap5\n  pop\n    /* \"#utility.yul\":7069:7196   */\n  pop\n    /* \"#utility.yul\":7235:7238   */\n  0xe0\n    /* \"#utility.yul\":7262:7323   */\n  tag_149\n    /* \"#utility.yul\":7315:7322   */\n  dup14\n    /* \"#utility.yul\":7306:7312   */\n  dup3\n    /* \"#utility.yul\":7295:7304   */\n  dup15\n    /* \"#utility.yul\":7291:7313   */\n  add\n    /* \"#utility.yul\":7262:7323   */\n  tag_43\n  jump\t// in\ntag_149:\n    /* \"#utility.yul\":7252:7323   */\n  swap4\n  pop\n    /* \"#utility.yul\":7206:7333   */\n  pop\n    /* \"#utility.yul\":7372:7375   */\n  0x0100\n    /* \"#utility.yul\":7399:7463   */\n  tag_150\n    /* \"#utility.yul\":7455:7462   */\n  dup14\n    /* \"#utility.yul\":7446:7452   */\n  dup3\n    /* \"#utility.yul\":7435:7444   */\n  dup15\n    /* \"#utility.yul\":7431:7453   */\n  add\n    /* \"#utility.yul\":7399:7463   */\n  tag_46\n  jump\t// in\ntag_150:\n    /* \"#utility.yul\":7389:7463   */\n  swap3\n  pop\n    /* \"#utility.yul\":7343:7473   */\n  pop\n    /* \"#utility.yul\":7512:7515   */\n  0x0120\n    /* \"#utility.yul\":7539:7603   */\n  tag_151\n    /* \"#utility.yul\":7595:7602   */\n  dup14\n    /* \"#utility.yul\":7586:7592   */\n  dup3\n    /* \"#utility.yul\":7575:7584   */\n  dup15\n    /* \"#utility.yul\":7571:7593   */\n  add\n    /* \"#utility.yul\":7539:7603   */\n  tag_46\n  jump\t// in\ntag_151:\n    /* \"#utility.yul\":7529:7603   */\n  swap2\n  pop\n    /* \"#utility.yul\":7483:7613   */\n  pop\n    /* \"#utility.yul\":5512:7620   */\n  swap3\n  swap6\n  swap9\n  swap12\n  swap2\n  swap5\n  swap8\n  swap11\n  pop\n  swap3\n  swap6\n  swap9\n  pop\n  jump\t// out\n    /* \"#utility.yul\":7626:7725   */\ntag_47:\n    /* \"#utility.yul\":7678:7684   */\n  0x00\n    /* \"#utility.yul\":7712:7717   */\n  dup2\n    /* \"#utility.yul\":7706:7718   */\n  mload\n    /* \"#utility.yul\":7696:7718   */\n  swap1\n  pop\n    /* \"#utility.yul\":7626:7725   */\n  swap2\n  swap1\n  pop\n  jump\t// out\n    /* \"#utility.yul\":7731:7911   */\ntag_48:\n    /* \"#utility.yul\":7779:7856   */\n  0x4e487b7100000000000000000000000000000000000000000000000000000000\n    /* \"#utility.yul\":7776:7777   */\n  0x00\n    /* \"#utility.yul\":7769:7857   */\n  mstore\n    /* \"#utility.yul\":7876:7880   */\n  0x22\n    /* \"#utility.yul\":7873:7874   */\n  0x04\n    /* \"#utility.yul\":7866:7881   */\n  mstore\n    /* \"#utility.yul\":7900:7904   */\n  0x24\n    /* \"#utility.yul\":7897:7898   */\n  0x00\n    /* \"#utility.yul\":7890:7905   */\n  revert\n    /* \"#utility.yul\":7917:8237   */\ntag_49:\n    /* \"#utility.yul\":7961:7967   */\n  0x00\n    /* \"#utility.yul\":7998:7999   */\n  0x02\n    /* \"#utility.yul\":7992:7996   */\n  dup3\n    /* \"#utility.yul\":7988:8000   */\n  div\n    /* \"#utility.yul\":7978:8000   */\n  swap1\n  pop\n    /* \"#utility.yul\":8045:8046   */\n  0x01\n    /* \"#utility.yul\":8039:8043   */\n  dup3\n    /* \"#utility.yul\":8035:8047   */\n  and\n    /* \"#utility.yul\":8066:8084   */\n  dup1\n    /* \"#utility.yul\":8056:8137   */\n  tag_155\n  jumpi\n    /* \"#utility.yul\":8122:8126   */\n  0x7f\n    /* \"#utility.yul\":8114:8120   */\n  dup3\n    /* \"#utility.yul\":8110:8127   */\n  and\n    /* \"#utility.yul\":8100:8127   */\n  swap2\n  pop\n    /* \"#utility.yul\":8056:8137   */\ntag_155:\n    /* \"#utility.yul\":8184:8186   */\n  0x20\n    /* \"#utility.yul\":8176:8182   */\n  dup3\n    /* \"#utility.yul\":8173:8187   */\n  lt\n    /* \"#utility.yul\":8153:8171   */\n  dup2\n    /* \"#utility.yul\":8150:8188   */\n  sub\n    /* \"#utility.yul\":8147:8231   */\n  tag_156\n  jumpi\n    /* \"#utility.yul\":8203:8221   */\n  tag_157\n  tag_48\n  jump\t// in\ntag_157:\n    /* \"#utility.yul\":8147:8231   */\ntag_156:\n    /* \"#utility.yul\":7968:8237   */\n  pop\n    /* \"#utility.yul\":7917:8237   */\n  swap2\n  swap1\n  pop\n  jump\t// out\n    /* \"#utility.yul\":8243:8384   */\ntag_50:\n    /* \"#utility.yul\":8292:8296   */\n  0x00\n    /* \"#utility.yul\":8315:8318   */\n  dup2\n    /* \"#utility.yul\":8307:8318   */\n  swap1\n  pop\n    /* \"#utility.yul\":8338:8341   */\n  dup2\n    /* \"#utility.yul\":8335:8336   */\n  0x00\n    /* \"#utility.yul\":8328:8342   */\n  mstore\n    /* \"#utility.yul\":8372:8376   */\n  0x20\n    /* \"#utility.yul\":8369:8370   */\n  0x00\n    /* \"#utility.yul\":8359:8377   */\n  keccak256\n    /* \"#utility.yul\":8351:8377   */\n  swap1\n  pop\n    /* \"#utility.yul\":8243:8384   */\n  swap2\n  swap1\n  pop\n  jump\t// out\n    /* \"#utility.yul\":8390:8483   */\ntag_51:\n    /* \"#utility.yul\":8427:8433   */\n  0x00\n    /* \"#utility.yul\":8474:8476   */\n  0x20\n    /* \"#utility.yul\":8469:8471   */\n  0x1f\n    /* \"#utility.yul\":8462:8467   */\n  dup4\n    /* \"#utility.yul\":8458:8472   */\n  add\n    /* \"#utility.yul\":8454:8477   */\n  div\n    /* \"#utility.yul\":8444:8477   */\n  swap1\n  pop\n    /* \"#utility.yul\":8390:8483   */\n  swap2\n  swap1\n  pop\n  jump\t// out\n    /* \"#utility.yul\":8489:8596   */\ntag_52:\n    /* \"#utility.yul\":8533:8541   */\n  0x00\n    /* \"#utility.yul\":8583:8588   */\n  dup3\n    /* \"#utility.yul\":8577:8581   */\n  dup3\n    /* \"#utility.yul\":8573:8589   */\n  shl\n    /* \"#utility.yul\":8552:8589   */\n  swap1\n  pop\n    /* \"#utility.yul\":8489:8596   */\n  swap3\n  swap2\n  pop\n  pop\n  jump\t// out\n    /* \"#utility.yul\":8602:8995   */\ntag_53:\n    /* \"#utility.yul\":8671:8677   */\n  0x00\n    /* \"#utility.yul\":8721:8722   */\n  0x08\n    /* \"#utility.yul\":8709:8719   */\n  dup4\n    /* \"#utility.yul\":8705:8723   */\n  mul\n    /* \"#utility.yul\":8744:8841   */\n  tag_162\n    /* \"#utility.yul\":8774:8840   */\n  0xffffffffffffffffffffffffffffffffffffffffffffffffffffffffffffffff\n    /* \"#utility.yul\":8763:8772   */\n  dup3\n    /* \"#utility.yul\":8744:8841   */\n  tag_52\n  jump\t// in\ntag_162:\n    /* \"#utility.yul\":8862:8901   */\n  tag_163\n    /* \"#utility.yul\":8892:8900   */\n  dup7\n    /* \"#utility.yul\":8881:8890   */\n  dup4\n    /* \"#utility.yul\":8862:8901   */\n  tag_52\n  jump\t// in\ntag_163:\n    /* \"#utility.yul\":8850:8901   */\n  swap6\n  pop\n    /* \"#utility.yul\":8934:8938   */\n  dup1\n    /* \"#utility.yul\":8930:8939   */\n  not\n    /* \"#utility.yul\":8923:8928   */\n  dup5\n    /* \"#utility.yul\":8919:8940   */\n  and\n    /* \"#utility.yul\":8910:8940   */\n  swap4\n  pop\n    /* \"#utility.yul\":8983:8987   */\n  dup1\n    /* \"#utility.yul\":8973:8981   */\n  dup7\n    /* \"#utility.yul\":8969:8988   */\n  and\n    /* \"#utility.yul\":8962:8967   */\n  dup5\n    /* \"#utility.yul\":8959:8989   */\n  or\n    /* \"#utility.yul\":8949:8989   */\n  swap3\n  pop\n    /* \"#utility.yul\":8678:8995   */\n  pop\n  pop\n    /* \"#utility.yul\":8602:8995   */\n  swap4\n  swap3\n  pop\n  pop\n  pop\n  jump\t// out\n    /* \"#utility.yul\":9001:9061   */\ntag_54:\n    /* \"#utility.yul\":9029:9032   */\n  0x00\n    /* \"#utility.yul\":9050:9055   */\n  dup2\n    /* \"#utility.yul\":9043:9055   */\n  swap1\n  pop\n    /* \"#utility.yul\":9001:9061   */\n  swap2\n  swap1\n  pop\n  jump\t// out\n    /* \"#utility.yul\":9067:9209   */\ntag_55:\n    /* \"#utility.yul\":9117:9126   */\n  0x00\n    /* \"#utility.yul\":9150:9203   */\n  tag_166\n    /* \"#utility.yul\":9168:9202   */\n  tag_167\n    /* \"#utility.yul\":9177:9201   */\n  tag_168\n    /* \"#utility.yul\":9195:9200   */\n  dup5\n    /* \"#utility.yul\":9177:9201   */\n  tag_44\n  jump\t// in\ntag_168:\n    /* \"#utility.yul\":9168:9202   */\n  tag_54\n  jump\t// in\ntag_167:\n    /* \"#utility.yul\":9150:9203   */\n  tag_44\n  jump\t// in\ntag_166:\n    /* \"#utility.yul\":9137:9203   */\n  swap1\n  pop\n    /* \"#utility.yul\":9067:9209   */\n  swap2\n  swap1\n  pop\n  jump\t// out\n    /* \"#utility.yul\":9215:9290   */\ntag_56:\n    /* \"#utility.yul\":9258:9261   */\n  0x00\n    /* \"#utility.yul\":9279:9284   */\n  dup2\n    /* \"#utility.yul\":9272:9284   */\n  swap1\n  pop\n    /* \"#utility.yul\":9215:9290   */\n  swap2\n  swap1\n  pop\n  jump\t// out\n    /* \"#utility.yul\":9296:9565   */\ntag_57:\n    /* \"#utility.yul\":9406:9445   */\n  tag_171\n    /* \"#utility.yul\":9437:9444   */\n  dup4\n    /* \"#utility.yul\":9406:9445   */\n  tag_55\n  jump\t// in\ntag_171:\n    /* \"#utility.yul\":9467:9558   */\n  tag_172\n    /* \"#utility.yul\":9516:9557   */\n  tag_173\n    /* \"#utility.yul\":9540:9556   */\n  dup3\n    /* \"#utility.yul\":9516:9557   */\n  tag_56\n  jump\t// in\ntag_173:\n    /* \"#utility.yul\":9508:9514   */\n  dup5\n    /* \"#utility.yul\":9501:9505   */\n  dup5\n    /* \"#utility.yul\":9495:9506   */\n  sload\n    /* \"#utility.yul\":9467:9558   */\n  tag_53\n  jump\t// in\ntag_172:\n    /* \"#utility.yul\":9461:9465   */\n  dup3\n    /* \"#utility.yul\":9454:9559   */\n  sstore\n    /* \"#utility.yul\":9372:9565   */\n  pop\n    /* \"#utility.yul\":9296:9565   */\n  pop\n  pop\n  pop\n  jump\t// out\n    /* \"#utility.yul\":9571:9644   */\ntag_58:\n    /* \"#utility.yul\":9616:9619   */\n  0x00\n    /* \"#utility.yul\":9571:9644   */\n  swap1\n  jump\t// out\n    /* \"#utility.yul\":9650:9839   */\ntag_59:\n    /* \"#utility.yul\":9727:9759   */\n  tag_176\n  tag_58\n  jump\t// in\ntag_176:\n    /* \"#utility.yul\":9768:9833   */\n  tag_177\n    /* \"#utility.yul\":9826:9832   */\n  dup2\n    /* \"#utility.yul\":9818:9824   */\n  dup5\n    /* \"#utility.yul\":9812:9816   */\n  dup5\n    /* \"#utility.yul\":9768:9833   */\n  tag_57\n  jump\t// in\ntag_177:\n    /* \"#utility.yul\":9703:9839   */\n  pop\n    /* \"#utility.yul\":9650:9839   */\n  pop\n  pop\n  jump\t// out\n    /* \"#utility.yul\":9845:10031   */\ntag_60:\n    /* \"#utility.yul\":9905:10025   */\ntag_179:\n    /* \"#utility.yul\":9922:9925   */\n  dup2\n    /* \"#utility.yul\":9915:9920   */\n  dup2\n    /* \"#utility.yul\":9912:9926   */\n  lt\n    /* \"#utility.yul\":9905:10025   */\n  iszero\n  tag_181\n  jumpi\n    /* \"#utility.yul\":9976:10015   */\n  tag_182\n    /* \"#utility.yul\":10013:10014   */\n  0x00\n    /* \"#utility.yul\":10006:10011   */\n  dup3\n    /* \"#utility.yul\":9976:10015   */\n  tag_59\n  jump\t// in\ntag_182:\n    /* \"#utility.yul\":9949:9950   */\n  0x01\n    /* \"#utility.yul\":9942:9947   */\n  dup2\n    /* \"#utility.yul\":9938:9951   */\n  add\n    /* \"#utility.yul\":9929:9951   */\n  swap1\n  pop\n    /* \"#utility.yul\":9905:10025   */\n  jump(tag_179)\ntag_181:\n    /* \"#utility.yul\":9845:10031   */\n  pop\n  pop\n  jump\t// out\n    /* \"#utility.yul\":10037:10580   */\ntag_61:\n    /* \"#utility.yul\":10138:10140   */\n  0x1f\n    /* \"#utility.yul\":10133:10136   */\n  dup3\n    /* \"#utility.yul\":10130:10141   */\n  gt\n    /* \"#utility.yul\":10127:10573   */\n  iszero\n  tag_184\n  jumpi\n    /* \"#utility.yul\":10172:10210   */\n  tag_185\n    /* \"#utility.yul\":10204:10209   */\n  dup2\n    /* \"#utility.yul\":10172:10210   */\n  tag_50\n  jump\t// in\ntag_185:\n    /* \"#utility.yul\":10256:10285   */\n  tag_186\n    /* \"#utility.yul\":10274:10284   */\n  dup5\n    /* \"#utility.yul\":10256:10285   */\n  tag_51\n  jump\t// in\ntag_186:\n    /* \"#utility.yul\":10246:10254   */\n  dup2\n    /* \"#utility.yul\":10242:10286   */\n  add\n    /* \"#utility.yul\":10439:10441   */\n  0x20\n    /* \"#utility.yul\":10427:10437   */\n  dup6\n    /* \"#utility.yul\":10424:10442   */\n  lt\n    /* \"#utility.yul\":10421:10470   */\n  iszero\n  tag_187\n  jumpi\n    /* \"#utility.yul\":10460:10468   */\n  dup2\n    /* \"#utility.yul\":10445:10468   */\n  swap1\n  pop\n    /* \"#utility.yul\":10421:10470   */\ntag_187:\n    /* \"#utility.yul\":10483:10563   */\n  tag_188\n    /* \"#utility.yul\":10539:10561   */\n  tag_189\n    /* \"#utility.yul\":10557:10560   */\n  dup6\n    /* \"#utility.yul\":10539:10561   */\n  tag_51\n  jump\t// in\ntag_189:\n    /* \"#utility.yul\":10529:10537   */\n  dup4\n    /* \"#utility.yul\":10525:10562   */\n  add\n    /* \"#utility.yul\":10512:10523   */\n  dup3\n    /* \"#utility.yul\":10483:10563   */\n  tag_60\n  jump\t// in\ntag_188:\n    /* \"#utility.yul\":10142:10573   */\n  pop\n  pop\n    /* \"#utility.yul\":10127:10573   */\ntag_184:\n    /* \"#utility.yul\":10037:10580   */\n  pop\n  pop\n  pop\n  jump\t// out\n    /* \"#utility.yul\":10586:10703   */\ntag_62:\n    /* \"#utility.yul\":10640:10648   */\n  0x00\n    /* \"#utility.yul\":10690:10695   */\n  dup3\n    /* \"#utility.yul\":10684:10688   */\n  dup3\n    /* \"#utility.yul\":10680:10696   */\n  shr\n    /* \"#utility.yul\":10659:10696   */\n  swap1\n  pop\n    /* \"#utility.yul\":10586:10703   */\n  swap3\n  swap2\n  pop\n  pop\n  jump\t// out\n    /* \"#utility.yul\":10709:10878   */\ntag_63:\n    /* \"#utility.yul\":10753:10759   */\n  0x00\n    /* \"#utility.yul\":10786:10837   */\n  tag_192\n    /* \"#utility.yul\":10834:10835   */\n  0x00\n    /* \"#utility.yul\":10830:10836   */\n  not\n    /* \"#utility.yul\":10822:10827   */\n  dup5\n    /* \"#utility.yul\":10819:10820   */\n  0x08\n    /* \"#utility.yul\":10815:10828   */\n  mul\n    /* \"#utility.yul\":10786:10837   */\n  tag_62\n  jump\t// in\ntag_192:\n    /* \"#utility.yul\":10782:10838   */\n  not\n    /* \"#utility.yul\":10867:10871   */\n  dup1\n    /* \"#utility.yul\":10861:10865   */\n  dup4\n    /* \"#utility.yul\":10857:10872   */\n  and\n    /* \"#utility.yul\":10847:10872   */\n  swap2\n  pop\n    /* \"#utility.yul\":10760:10878   */\n  pop\n    /* \"#utility.yul\":10709:10878   */\n  swap3\n  swap2\n  pop\n  pop\n  jump\t// out\n    /* \"#utility.yul\":10883:11178   */\ntag_64:\n    /* \"#utility.yul\":10959:10963   */\n  0x00\n    /* \"#utility.yul\":11105:11134   */\n  tag_194\n    /* \"#utility.yul\":11130:11133   */\n  dup4\n    /* \"#utility.yul\":11124:11128   */\n  dup4\n    /* \"#utility.yul\":11105:11134   */\n  tag_63\n  jump\t// in\ntag_194:\n    /* \"#utility.yul\":11097:11134   */\n  swap2\n  pop\n    /* \"#utility.yul\":11167:11170   */\n  dup3\n    /* \"#utility.yul\":11164:11165   */\n  0x02\n    /* \"#utility.yul\":11160:11171   */\n  mul\n    /* \"#utility.yul\":11154:11158   */\n  dup3\n    /* \"#utility.yul\":11151:11172   */\n  or\n    /* \"#utility.yul\":11143:11172   */\n  swap1\n  pop\n    /* \"#utility.yul\":10883:11178   */\n  swap3\n  swap2\n  pop\n  pop\n  jump\t// out\n    /* \"#utility.yul\":11183:12578   */\ntag_9:\n    /* \"#utility.yul\":11300:11337   */\n  tag_196\n    /* \"#utility.yul\":11333:11336   */\n  dup3\n    /* \"#utility.yul\":11300:11337   */\n  tag_47\n  jump\t// in\ntag_196:\n    /* \"#utility.yul\":11402:11420   */\n  0xffffffffffffffff\n    /* \"#utility.yul\":11394:11400   */\n  dup2\n    /* \"#utility.yul\":11391:11421   */\n  gt\n    /* \"#utility.yul\":11388:11444   */\n  iszero\n  tag_197\n  jumpi\n    /* \"#utility.yul\":11424:11442   */\n  tag_198\n  tag_26\n  jump\t// in\ntag_198:\n    /* \"#utility.yul\":11388:11444   */\ntag_197:\n    /* \"#utility.yul\":11468:11506   */\n  tag_199\n    /* \"#utility.yul\":11500:11504   */\n  dup3\n    /* \"#utility.yul\":11494:11505   */\n  sload\n    /* \"#utility.yul\":11468:11506   */\n  tag_49\n  jump\t// in\ntag_199:\n    /* \"#utility.yul\":11553:11620   */\n  tag_200\n    /* \"#utility.yul\":11613:11619   */\n  dup3\n    /* \"#utility.yul\":11605:11611   */\n  dup3\n    /* \"#utility.yul\":11599:11603   */\n  dup6\n    /* \"#utility.yul\":11553:11620   */\n  tag_61\n  jump\t// in\ntag_200:\n    /* \"#utility.yul\":11647:11648   */\n  0x00\n    /* \"#utility.yul\":11671:11675   */\n  0x20\n    /* \"#utility.yul\":11658:11675   */\n  swap1\n  pop\n    /* \"#utility.yul\":11703:11705   */\n  0x1f\n    /* \"#utility.yul\":11695:11701   */\n  dup4\n    /* \"#utility.yul\":11692:11706   */\n  gt\n    /* \"#utility.yul\":11720:11721   */\n  0x01\n    /* \"#utility.yul\":11715:12333   */\n  dup2\n  eq\n  tag_202\n  jumpi\n    /* \"#utility.yul\":12377:12378   */\n  0x00\n    /* \"#utility.yul\":12394:12400   */\n  dup5\n    /* \"#utility.yul\":12391:12468   */\n  iszero\n  tag_203\n  jumpi\n    /* \"#utility.yul\":12443:12452   */\n  dup3\n    /* \"#utility.yul\":12438:12441   */\n  dup8\n    /* \"#utility.yul\":12434:12453   */\n  add\n    /* \"#utility.yul\":12428:12454   */\n  mload\n    /* \"#utility.yul\":12419:12454   */\n  swap1\n  pop\n    /* \"#utility.yul\":12391:12468   */\ntag_203:\n    /* \"#utility.yul\":12494:12561   */\n  tag_204\n    /* \"#utility.yul\":12554:12560   */\n  dup6\n    /* \"#utility.yul\":12547:12552   */\n  dup3\n    /* \"#utility.yul\":12494:12561   */\n  tag_64\n  jump\t// in\ntag_204:\n    /* \"#utility.yul\":12488:12492   */\n  dup7\n    /* \"#utility.yul\":12481:12562   */\n  sstore\n    /* \"#utility.yul\":12350:12572   */\n  pop\n    /* \"#utility.yul\":11685:12572   */\n  jump(tag_201)\n    /* \"#utility.yul\":11715:12333   */\ntag_202:\n    /* \"#utility.yul\":11767:11771   */\n  0x1f\n    /* \"#utility.yul\":11763:11772   */\n  not\n    /* \"#utility.yul\":11755:11761   */\n  dup5\n    /* \"#utility.yul\":11751:11773   */\n  and\n    /* \"#utility.yul\":11801:11838   */\n  tag_205\n    /* \"#utility.yul\":11833:11837   */\n  dup7\n    /* \"#utility.yul\":11801:11838   */\n  tag_50\n  jump\t// in\ntag_205:\n    /* \"#utility.yul\":11860:11861   */\n  0x00\n    /* \"#utility.yul\":11874:12082   */\ntag_206:\n    /* \"#utility.yul\":11888:11895   */\n  dup3\n    /* \"#utility.yul\":11885:11886   */\n  dup2\n    /* \"#utility.yul\":11882:11896   */\n  lt\n    /* \"#utility.yul\":11874:12082   */\n  iszero\n  tag_208\n  jumpi\n    /* \"#utility.yul\":11967:11976   */\n  dup5\n    /* \"#utility.yul\":11962:11965   */\n  dup10\n    /* \"#utility.yul\":11958:11977   */\n  add\n    /* \"#utility.yul\":11952:11978   */\n  mload\n    /* \"#utility.yul\":11944:11950   */\n  dup3\n    /* \"#utility.yul\":11937:11979   */\n  sstore\n    /* \"#utility.yul\":12018:12019   */\n  0x01\n    /* \"#utility.yul\":12010:12016   */\n  dup3\n    /* \"#utility.yul\":12006:12020   */\n  add\n    /* \"#utility.yul\":11996:12020   */\n  swap2\n  pop\n    /* \"#utility.yul\":12065:12067   */\n  0x20\n    /* \"#utility.yul\":12054:12063   */\n  dup6\n    /* \"#utility.yul\":12050:12068   */\n  add\n    /* \"#utility.yul\":12037:12068   */\n  swap5\n  pop\n    /* \"#utility.yul\":11911:11915   */\n  0x20\n    /* \"#utility.yul\":11908:11909   */\n  dup2\n    /* \"#utility.yul\":11904:11916   */\n  add\n    /* \"#utility.yul\":11899:11916   */\n  swap1\n  pop\n    /* \"#utility.yul\":11874:12082   */\n  jump(tag_206)\ntag_208:\n    /* \"#utility.yul\":12110:12116   */\n  dup7\n    /* \"#utility.yul\":12101:12108   */\n  dup4\n    /* \"#utility.yul\":12098:12117   */\n  lt\n    /* \"#utility.yul\":12095:12274   */\n  iszero\n  tag_209\n  jumpi\n    /* \"#utility.yul\":12168:12177   */\n  dup5\n    /* \"#utility.yul\":12163:12166   */\n  dup10\n    /* \"#utility.yul\":12159:12178   */\n  add\n    /* \"#utility.yul\":12153:12179   */\n  mload\n    /* \"#utility.yul\":12211:12259   */\n  tag_210\n    /* \"#utility.yul\":12253:12257   */\n  0x1f\n    /* \"#utility.yul\":12245:12251   */\n  dup10\n    /* \"#utility.yul\":12241:12258   */\n  and\n    /* \"#utility.yul\":12230:12239   */\n  dup3\n    /* \"#utility.yul\":12211:12259   */\n  tag_63\n  jump\t// in\ntag_210:\n    /* \"#utility.yul\":12203:12209   */\n  dup4\n    /* \"#utility.yul\":12196:12260   */\n  sstore\n    /* \"#utility.yul\":12118:12274   */\n  pop\n    /* \"#utility.yul\":12095:12274   */\ntag_209:\n    /* \"#utility.yul\":12320:12321   */\n  0x01\n    /* \"#utility.yul\":12316:12317   */\n  0x02\n    /* \"#utility.yul\":12308:12314   */\n  dup9\n    /* \"#utility.yul\":12304:12318   */\n  mul\n    /* \"#utility.yul\":12300:12322   */\n  add\n    /* \"#utility.yul\":12294:12298   */\n  dup9\n    /* \"#utility.yul\":12287:12323   */\n  sstore\n    /* \"#utility.yul\":11722:12333   */\n  pop\n  pop\n  pop\n    /* \"#utility.yul\":11685:12572   */\ntag_201:\n  pop\n    /* \"#utility.yul\":11275:12578   */\n  pop\n  pop\n  pop\n    /* \"#utility.yul\":11183:12578   */\n  pop\n  pop\n  jump\t// out\n    /* \"#utility.yul\":12584:12764   */\ntag_15:\n    /* \"#utility.yul\":12632:12709   */\n  0x4e487b7100000000000000000000000000000000000000000000000000000000\n    /* \"#utility.yul\":12629:12630   */\n  0x00\n    /* \"#utility.yul\":12622:12710   */\n  mstore\n    /* \"#utility.yul\":12729:12733   */\n  0x32\n    /* \"#utility.yul\":12726:12727   */\n  0x04\n    /* \"#utility.yul\":12719:12734   */\n  mstore\n    /* \"#utility.yul\":12753:12757   */\n  0x24\n    /* \"#utility.yul\":12750:12751   */\n  0x00\n    /* \"#utility.yul\":12743:12758   */\n  revert\n    /* \"Fund.sol\":280:10751  contract Fund is ReentrancyGuard {... */\ntag_19:\n  mload(0x80)\n  mload(0xa0)\n  mload(0xc0)\n  mload(0xe0)\n  mload(0x0100)\n  mload(0x0120)\n  mload(0x0140)\n  mload(0x0160)\n  mload(0x0180)\n  codecopy(0x00, dataOffset(sub_0), dataSize(sub_0))\n  0x00\n  assignImmutable(\"0x2cc0d3dcb20652cd8f106aee76b6a7391771a130885634c0eb2bbe3cde796691\")\n  0x00\n  assignImmutable(\"0xdb37925934a3d3177db64e11f5e0156ceb8a756fee58ded16e549afa607ddb1d\")\n  0x00\n  assignImmutable(\"0xeafa31dc210956fc0884ec5660eba9405197797219cbbda41b6aaf7118c651d8\")\n  0x00\n  assignImmutable(\"0x606503ebd6bdca7290248af82fd5a09ca0489398da9f242244210336ae6ece9f\")\n  0x00\n  assignImmutable(\"0x4569971f3d79dc8da7f8a6820be6cb8dc4a52bb0df6599b2aae7182111b63cd5\")\n  0x00\n  assignImmutable(\"0xe921da22f871c25c63f06c1365385cbb26397f64f79055cdbab32187a9377d16\")\n  0x00\n  assignImmutable(\"0xc47ece0ffae697632ce145a7086cbcf260f7fa60876ff2606761ea2b7581ee76\")\n  0x00\n  assignImmutable(\"0x5bc0457d8881b800fd1bc0d6df907345b3bf287e43a5790ded3d08dbacf9c03a\")\n  0x00\n  assignImmutable(\"0xed93c67e1a9b7f09d3b44ee593360f0073603a8e45415e2c3c69afc994a1103d\")\n  return(0x00, dataSize(sub_0))\nstop\n\nsub_0: assembly {\n        /* \"Fund.sol\":280:10751  contract Fund is ReentrancyGuard {... */\n      mstore(0x40, 0x80)\n      jumpi(tag_1, lt(calldatasize, 0x04))\n      shr(0xe0, calldataload(0x00))\n      dup1\n      0x8a20bc37\n      gt\n      tag_35\n      jumpi\n      dup1\n      0xd7bb99ba\n      gt\n      tag_36\n      jumpi\n      dup1\n      0xe557e5dc\n      gt\n      tag_37\n      jumpi\n      dup1\n      0xe557e5dc\n      eq\n      tag_30\n      jumpi\n      dup1\n      0xecbff6e7\n      eq\n      tag_31\n      jumpi\n      dup1\n      0xf3ae2415\n      eq\n      tag_32\n      jumpi\n      dup1\n      0xfa68b631\n      eq\n      tag_33\n      jumpi\n      dup1\n      0xfbfa4b7f\n      eq\n      tag_34\n      jumpi\n      jump(tag_1)\n    tag_37:\n      dup1\n      0xd7bb99ba\n      eq\n      tag_26\n      jumpi\n      dup1\n      0xd7d1bbdb\n      eq\n      tag_27\n      jumpi\n      dup1\n      0xd8247ee7\n      eq\n      tag_28\n      jumpi\n      dup1\n      0xdb2d78b1\n      eq\n      tag_29\n      jumpi\n      jump(tag_1)\n    tag_36:\n      dup1\n      0xaa9cfc50\n      gt\n      tag_38\n      jumpi\n      dup1\n      0xaa9cfc50\n      eq\n      tag_22\n      jumpi\n      dup1\n      0xaf157c19\n      eq\n      tag_23\n      jumpi\n      dup1\n      0xb69ef8a8\n      eq\n      tag_24\n      jumpi\n      dup1\n      0xcf09e0d0\n      eq\n      tag_25\n      jumpi\n      jump(tag_1)\n    tag_38:\n      dup1\n      0x8a20bc37\n      eq\n      tag_18\n      jumpi\n      dup1\n      0x9073fa7e\n      eq\n      tag_19\n      jumpi\n      dup1\n      0xa8d088bb\n      eq\n      tag_20\n      jumpi\n      dup1\n      0xa9059cbb\n      eq\n      tag_21\n      jumpi\n      jump(tag_1)\n    tag_35:\n      dup1\n      0x3d39c260\n      gt\n      tag_39\n      jumpi\n      dup1\n      0x691c7545\n      gt\n      tag_40\n      jumpi\n      dup1\n      0x691c7545\n      eq\n      tag_14\n      jumpi\n      dup1\n      0x7569b3d7\n      eq\n      tag_15\n      jumpi\n      dup1\n      0x8175f2c7\n      eq\n      tag_16\n      jumpi\n      dup1\n      0x81d12c58\n      eq\n      tag_17\n      jumpi\n      jump(tag_1)\n    tag_40:\n      dup1\n      0x3d39c260\n      eq\n      tag_10\n      jumpi\n      dup1\n      0x4051ddac\n      eq\n      tag_11\n      jumpi\n      dup1\n      0x42e94c90\n      eq\n      tag_12\n      jumpi\n      dup1\n      0x6308ae65\n      eq\n      tag_13\n      jumpi\n      jump(tag_1)\n    tag_39:\n      dup1\n      0x1b16bb5c\n      gt\n      tag_41\n      jumpi\n      dup1\n      0x1b16bb5c\n      eq\n      tag_6\n      jumpi\n      dup1\n      0x2dde0013\n      eq\n      tag_7\n      jumpi\n      dup1\n      0x37c08923\n      eq\n      tag_8\n      jumpi\n      dup1\n      0x3cb5d100\n      eq\n      tag_9\n      jumpi\n      jump(tag_1)\n    tag_41:\n      dup1\n      0x02d05d3f\n      eq\n      tag_2\n      jumpi\n      dup1\n      0x03441006\n      eq\n      tag_3\n      jumpi\n      dup1\n      0x06fdde03\n      eq\n      tag_4\n      jumpi\n      dup1\n      0x10718655\n      eq\n      tag_5\n      jumpi\n    tag_1:\n      0x00\n      dup1\n      revert\n        /* \"Fund.sol\":696:728  address public immutable creator */\n    tag_2:\n      callvalue\n      dup1\n      iszero\n      tag_42\n      jumpi\n      0x00\n      dup1\n      revert\n    tag_42:\n      pop\n      tag_43\n      tag_44\n      jump\t// in\n    tag_43:\n      mload(0x40)\n      tag_45\n      swap2\n      swap1\n      tag_46\n      jump\t// in\n    tag_45:\n      mload(0x40)\n      dup1\n      swap2\n      sub\n      swap1\n      return\n        /* \"Fund.sol\":7714:8905  function finalizeRequest(uint256 _index) public nonReentrant {... */\n    tag_3:\n      callvalue\n      dup1\n      iszero\n      tag_47\n      jumpi\n      0x00\n      dup1\n      revert\n    tag_47:\n      pop\n      tag_48\n      0x04\n      dup1\n      calldatasize\n      sub\n      dup2\n      add\n      swap1\n      tag_49\n      swap2\n      swap1\n      tag_50\n      jump\t// in\n    tag_49:\n      tag_51\n      jump\t// in\n    tag_48:\n      stop\n        /* \"Fund.sol\":673:691  string public name */\n    tag_4:\n      callvalue\n      dup1\n      iszero\n      tag_52\n      jumpi\n      0x00\n      dup1\n      revert\n    tag_52:\n      pop\n      tag_53\n      tag_54\n      jump\t// in\n    tag_53:\n      mload(0x40)\n      tag_55\n      swap2\n      swap1\n      tag_56\n      jump\t// in\n    tag_55:\n      mload(0x40)\n      dup1\n      swap2\n      sub\n      swap1\n      return\n        /* \"Fund.sol\":4968:5050  function contributeFor(address _for) public payable {... */\n    tag_5:\n      tag_57\n      0x04\n      dup1\n      calldatasize\n      sub\n      dup2\n      add\n      swap1\n      tag_58\n      swap2\n      swap1\n      tag_59\n      jump\t// in\n    tag_58:\n      tag_60\n      jump\t// in\n    tag_57:\n      stop\n        /* \"Fund.sol\":5684:6422  function createRequest(string memory _description, address _recipient, uint256 _valueToTransfer) public {... */\n    tag_6:\n      callvalue\n      dup1\n      iszero\n      tag_61\n      jumpi\n      0x00\n      dup1\n      revert\n    tag_61:\n      pop\n      tag_62\n      0x04\n      dup1\n      calldatasize\n      sub\n      dup2\n      add\n      swap1\n      tag_63\n      swap2\n      swap1\n      tag_64\n      jump\t// in\n    tag_63:\n      tag_65\n      jump\t// in\n    tag_62:\n      stop\n        /* \"Fund.sol\":3441:3994  function addNewManagers(address[] memory _managers) public {... */\n    tag_7:\n      callvalue\n      dup1\n      iszero\n      tag_66\n      jumpi\n      0x00\n      dup1\n      revert\n    tag_66:\n      pop\n      tag_67\n      0x04\n      dup1\n      calldatasize\n      sub\n      dup2\n      add\n      swap1\n      tag_68\n      swap2\n      swap1\n      tag_69\n      jump\t// in\n    tag_68:\n      tag_70\n      jump\t// in\n    tag_67:\n      stop\n        /* \"Fund.sol\":1059:1092  uint256 public totalContributions */\n    tag_8:\n      callvalue\n      dup1\n      iszero\n      tag_71\n      jumpi\n      0x00\n      dup1\n      revert\n    tag_71:\n      pop\n      tag_72\n      tag_73\n      jump\t// in\n    tag_72:\n      mload(0x40)\n      tag_74\n      swap2\n      swap1\n      tag_75\n      jump\t// in\n    tag_74:\n      mload(0x40)\n      dup1\n      swap2\n      sub\n      swap1\n      return\n        /* \"Fund.sol\":972:1001  address[] public contributors */\n    tag_9:\n      callvalue\n      dup1\n      iszero\n      tag_76\n      jumpi\n      0x00\n      dup1\n      revert\n    tag_76:\n      pop\n      tag_77\n      0x04\n      dup1\n      calldatasize\n      sub\n      dup2\n      add\n      swap1\n      tag_78\n      swap2\n      swap1\n      tag_50\n      jump\t// in\n    tag_78:\n      tag_79\n      jump\t// in\n    tag_77:\n      mload(0x40)\n      tag_80\n      swap2\n      swap1\n      tag_46\n      jump\t// in\n    tag_80:\n      mload(0x40)\n      dup1\n      swap2\n      sub\n      swap1\n      return\n        /* \"Fund.sol\":814:839  address[] public managers */\n    tag_10:\n      callvalue\n      dup1\n      iszero\n      tag_81\n      jumpi\n      0x00\n      dup1\n      revert\n    tag_81:\n      pop\n      tag_82\n      0x04\n      dup1\n      calldatasize\n      sub\n      dup2\n      add\n      swap1\n      tag_83\n      swap2\n      swap1\n      tag_50\n      jump\t// in\n    tag_83:\n      tag_84\n      jump\t// in\n    tag_82:\n      mload(0x40)\n      tag_85\n      swap2\n      swap1\n      tag_46\n      jump\t// in\n    tag_85:\n      mload(0x40)\n      dup1\n      swap2\n      sub\n      swap1\n      return\n        /* \"Fund.sol\":8911:9204  function getSummary()... */\n    tag_11:\n      callvalue\n      dup1\n      iszero\n      tag_86\n      jumpi\n      0x00\n      dup1\n      revert\n    tag_86:\n      pop\n      tag_87\n      tag_88\n      jump\t// in\n    tag_87:\n      mload(0x40)\n      tag_89\n      swap6\n      swap5\n      swap4\n      swap3\n      swap2\n      swap1\n      tag_90\n      jump\t// in\n    tag_89:\n      mload(0x40)\n      dup1\n      swap2\n      sub\n      swap1\n      return\n        /* \"Fund.sol\":1006:1054  mapping(address => uint256) public contributions */\n    tag_12:\n      callvalue\n      dup1\n      iszero\n      tag_91\n      jumpi\n      0x00\n      dup1\n      revert\n    tag_91:\n      pop\n      tag_92\n      0x04\n      dup1\n      calldatasize\n      sub\n      dup2\n      add\n      swap1\n      tag_93\n      swap2\n      swap1\n      tag_59\n      jump\t// in\n    tag_93:\n      tag_94\n      jump\t// in\n    tag_92:\n      mload(0x40)\n      tag_95\n      swap2\n      swap1\n      tag_75\n      jump\t// in\n    tag_95:\n      mload(0x40)\n      dup1\n      swap2\n      sub\n      swap1\n      return\n        /* \"Fund.sol\":4697:4787  function managersCount() public view returns (uint256) {... */\n    tag_13:\n      callvalue\n      dup1\n      iszero\n      tag_96\n      jumpi\n      0x00\n      dup1\n      revert\n    tag_96:\n      pop\n      tag_97\n      tag_98\n      jump\t// in\n    tag_97:\n      mload(0x40)\n      tag_99\n      swap2\n      swap1\n      tag_75\n      jump\t// in\n    tag_99:\n      mload(0x40)\n      dup1\n      swap2\n      sub\n      swap1\n      return\n        /* \"Fund.sol\":1383:1445  uint256 public immutable minimumContributionPercentageRequired */\n    tag_14:\n      callvalue\n      dup1\n      iszero\n      tag_100\n      jumpi\n      0x00\n      dup1\n      revert\n    tag_100:\n      pop\n      tag_101\n      tag_102\n      jump\t// in\n    tag_101:\n      mload(0x40)\n      tag_103\n      swap2\n      swap1\n      tag_75\n      jump\t// in\n    tag_103:\n      mload(0x40)\n      dup1\n      swap2\n      sub\n      swap1\n      return\n        /* \"Fund.sol\":5056:5154  function contributorsCount() public view returns (uint256) {... */\n    tag_15:\n      callvalue\n      dup1\n      iszero\n      tag_104\n      jumpi\n      0x00\n      dup1\n      revert\n    tag_104:\n      pop\n      tag_105\n      tag_106\n      jump\t// in\n    tag_105:\n      mload(0x40)\n      tag_107\n      swap2\n      swap1\n      tag_75\n      jump\t// in\n    tag_107:\n      mload(0x40)\n      dup1\n      swap2\n      sub\n      swap1\n      return\n        /* \"Fund.sol\":1121:1182  bool public immutable managersCanTransferMoneyWithoutARequest */\n    tag_16:\n      callvalue\n      dup1\n      iszero\n      tag_108\n      jumpi\n      0x00\n      dup1\n      revert\n    tag_108:\n      pop\n      tag_109\n      tag_110\n      jump\t// in\n    tag_109:\n      mload(0x40)\n      tag_111\n      swap2\n      swap1\n      tag_112\n      jump\t// in\n    tag_111:\n      mload(0x40)\n      dup1\n      swap2\n      sub\n      swap1\n      return\n        /* \"Fund.sol\":1189:1214  Request[] public requests */\n    tag_17:\n      callvalue\n      dup1\n      iszero\n      tag_113\n      jumpi\n      0x00\n      dup1\n      revert\n    tag_113:\n      pop\n      tag_114\n      0x04\n      dup1\n      calldatasize\n      sub\n      dup2\n      add\n      swap1\n      tag_115\n      swap2\n      swap1\n      tag_50\n      jump\t// in\n    tag_115:\n      tag_116\n      jump\t// in\n    tag_114:\n      mload(0x40)\n      tag_117\n      swap8\n      swap7\n      swap6\n      swap5\n      swap4\n      swap3\n      swap2\n      swap1\n      tag_118\n      jump\t// in\n    tag_117:\n      mload(0x40)\n      dup1\n      swap2\n      sub\n      swap1\n      return\n        /* \"Fund.sol\":1266:1317  bool public immutable onlyManagersCanCreateARequest */\n    tag_18:\n      callvalue\n      dup1\n      iszero\n      tag_119\n      jumpi\n      0x00\n      dup1\n      revert\n    tag_119:\n      pop\n      tag_120\n      tag_121\n      jump\t// in\n    tag_120:\n      mload(0x40)\n      tag_122\n      swap2\n      swap1\n      tag_112\n      jump\t// in\n    tag_122:\n      mload(0x40)\n      dup1\n      swap2\n      sub\n      swap1\n      return\n        /* \"Fund.sol\":7561:7708  function getRequestApproval(uint256 _index, address _approver) public view returns (bool) {... */\n    tag_19:\n      callvalue\n      dup1\n      iszero\n      tag_123\n      jumpi\n      0x00\n      dup1\n      revert\n    tag_123:\n      pop\n      tag_124\n      0x04\n      dup1\n      calldatasize\n      sub\n      dup2\n      add\n      swap1\n      tag_125\n      swap2\n      swap1\n      tag_126\n      jump\t// in\n    tag_125:\n      tag_127\n      jump\t// in\n    tag_124:\n      mload(0x40)\n      tag_128\n      swap2\n      swap1\n      tag_112\n      jump\t// in\n    tag_128:\n      mload(0x40)\n      dup1\n      swap2\n      sub\n      swap1\n      return\n        /* \"Fund.sol\":4793:4883  function getManagers() public view returns (address[] memory) {... */\n    tag_20:\n      callvalue\n      dup1\n      iszero\n      tag_129\n      jumpi\n      0x00\n      dup1\n      revert\n    tag_129:\n      pop\n      tag_130\n      tag_131\n      jump\t// in\n    tag_130:\n      mload(0x40)\n      tag_132\n      swap2\n      swap1\n      tag_133\n      jump\t// in\n    tag_132:\n      mload(0x40)\n      dup1\n      swap2\n      sub\n      swap1\n      return\n        /* \"Fund.sol\":5360:5678  function transfer(address _to, uint256 _value) public {... */\n    tag_21:\n      callvalue\n      dup1\n      iszero\n      tag_134\n      jumpi\n      0x00\n      dup1\n      revert\n    tag_134:\n      pop\n      tag_135\n      0x04\n      dup1\n      calldatasize\n      sub\n      dup2\n      add\n      swap1\n      tag_136\n      swap2\n      swap1\n      tag_137\n      jump\t// in\n    tag_136:\n      tag_138\n      jump\t// in\n    tag_135:\n      stop\n        /* \"Fund.sol\":1219:1261  bool public immutable requestsCanBeCreated */\n    tag_22:\n      callvalue\n      dup1\n      iszero\n      tag_139\n      jumpi\n      0x00\n      dup1\n      revert\n    tag_139:\n      pop\n      tag_140\n      tag_141\n      jump\t// in\n    tag_140:\n      mload(0x40)\n      tag_142\n      swap2\n      swap1\n      tag_112\n      jump\t// in\n    tag_142:\n      mload(0x40)\n      dup1\n      swap2\n      sub\n      swap1\n      return\n        /* \"Fund.sol\":5160:5258  function getContributors() public view returns (address[] memory) {... */\n    tag_23:\n      callvalue\n      dup1\n      iszero\n      tag_143\n      jumpi\n      0x00\n      dup1\n      revert\n    tag_143:\n      pop\n      tag_144\n      tag_145\n      jump\t// in\n    tag_144:\n      mload(0x40)\n      tag_146\n      swap2\n      swap1\n      tag_133\n      jump\t// in\n    tag_146:\n      mload(0x40)\n      dup1\n      swap2\n      sub\n      swap1\n      return\n        /* \"Fund.sol\":5264:5354  function balance() public view returns (uint256) {... */\n    tag_24:\n      callvalue\n      dup1\n      iszero\n      tag_147\n      jumpi\n      0x00\n      dup1\n      revert\n    tag_147:\n      pop\n      tag_148\n      tag_149\n      jump\t// in\n    tag_148:\n      mload(0x40)\n      tag_150\n      swap2\n      swap1\n      tag_75\n      jump\t// in\n    tag_150:\n      mload(0x40)\n      dup1\n      swap2\n      sub\n      swap1\n      return\n        /* \"Fund.sol\":733:785  uint256 public immutable createdAt = block.timestamp */\n    tag_25:\n      callvalue\n      dup1\n      iszero\n      tag_151\n      jumpi\n      0x00\n      dup1\n      revert\n    tag_151:\n      pop\n      tag_152\n      tag_153\n      jump\t// in\n    tag_152:\n      mload(0x40)\n      tag_154\n      swap2\n      swap1\n      tag_75\n      jump\t// in\n    tag_154:\n      mload(0x40)\n      dup1\n      swap2\n      sub\n      swap1\n      return\n        /* \"Fund.sol\":4889:4962  function contribute() public payable {... */\n    tag_26:\n      tag_155\n      tag_156\n      jump\t// in\n    tag_155:\n      stop\n        /* \"Fund.sol\":6624:7555  function approveRequest(uint256 _index) public {... */\n    tag_27:\n      callvalue\n      dup1\n      iszero\n      tag_157\n      jumpi\n      0x00\n      dup1\n      revert\n    tag_157:\n      pop\n      tag_158\n      0x04\n      dup1\n      calldatasize\n      sub\n      dup2\n      add\n      swap1\n      tag_159\n      swap2\n      swap1\n      tag_50\n      jump\t// in\n    tag_159:\n      tag_160\n      jump\t// in\n    tag_158:\n      stop\n        /* \"Fund.sol\":4000:4691  function removeManager(uint256 _index) public {... */\n    tag_28:\n      callvalue\n      dup1\n      iszero\n      tag_161\n      jumpi\n      0x00\n      dup1\n      revert\n    tag_161:\n      pop\n      tag_162\n      0x04\n      dup1\n      calldatasize\n      sub\n      dup2\n      add\n      swap1\n      tag_163\n      swap2\n      swap1\n      tag_50\n      jump\t// in\n    tag_163:\n      tag_164\n      jump\t// in\n    tag_162:\n      stop\n        /* \"Fund.sol\":1450:1509  uint256 public immutable minimumApprovalsPercentageRequired */\n    tag_29:\n      callvalue\n      dup1\n      iszero\n      tag_165\n      jumpi\n      0x00\n      dup1\n      revert\n    tag_165:\n      pop\n      tag_166\n      tag_167\n      jump\t// in\n    tag_166:\n      mload(0x40)\n      tag_168\n      swap2\n      swap1\n      tag_75\n      jump\t// in\n    tag_168:\n      mload(0x40)\n      dup1\n      swap2\n      sub\n      swap1\n      return\n        /* \"Fund.sol\":9210:10356  function getExtraSummary()... */\n    tag_30:\n      callvalue\n      dup1\n      iszero\n      tag_169\n      jumpi\n      0x00\n      dup1\n      revert\n    tag_169:\n      pop\n      tag_170\n      tag_171\n      jump\t// in\n    tag_170:\n      mload(0x40)\n      tag_172\n      swap11\n      swap10\n      swap9\n      swap8\n      swap7\n      swap6\n      swap5\n      swap4\n      swap3\n      swap2\n      swap1\n      tag_173\n      jump\t// in\n    tag_172:\n      mload(0x40)\n      dup1\n      swap2\n      sub\n      swap1\n      return\n        /* \"Fund.sol\":1322:1378  bool public immutable onlyContributorsCanApproveARequest */\n    tag_31:\n      callvalue\n      dup1\n      iszero\n      tag_174\n      jumpi\n      0x00\n      dup1\n      revert\n    tag_174:\n      pop\n      tag_175\n      tag_176\n      jump\t// in\n    tag_175:\n      mload(0x40)\n      tag_177\n      swap2\n      swap1\n      tag_112\n      jump\t// in\n    tag_177:\n      mload(0x40)\n      dup1\n      swap2\n      sub\n      swap1\n      return\n        /* \"Fund.sol\":844:885  mapping(address => bool) public isManager */\n    tag_32:\n      callvalue\n      dup1\n      iszero\n      tag_178\n      jumpi\n      0x00\n      dup1\n      revert\n    tag_178:\n      pop\n      tag_179\n      0x04\n      dup1\n      calldatasize\n      sub\n      dup2\n      add\n      swap1\n      tag_180\n      swap2\n      swap1\n      tag_59\n      jump\t// in\n    tag_180:\n      tag_181\n      jump\t// in\n    tag_179:\n      mload(0x40)\n      tag_182\n      swap2\n      swap1\n      tag_112\n      jump\t// in\n    tag_182:\n      mload(0x40)\n      dup1\n      swap2\n      sub\n      swap1\n      return\n        /* \"Fund.sol\":890:939  bool public immutable managersCanBeAddedOrRemoved */\n    tag_33:\n      callvalue\n      dup1\n      iszero\n      tag_183\n      jumpi\n      0x00\n      dup1\n      revert\n    tag_183:\n      pop\n      tag_184\n      tag_185\n      jump\t// in\n    tag_184:\n      mload(0x40)\n      tag_186\n      swap2\n      swap1\n      tag_112\n      jump\t// in\n    tag_186:\n      mload(0x40)\n      dup1\n      swap2\n      sub\n      swap1\n      return\n        /* \"Fund.sol\":6428:6518  function requestsCount() public view returns (uint256) {... */\n    tag_34:\n      callvalue\n      dup1\n      iszero\n      tag_187\n      jumpi\n      0x00\n      dup1\n      revert\n    tag_187:\n      pop\n      tag_188\n      tag_189\n      jump\t// in\n    tag_188:\n      mload(0x40)\n      tag_190\n      swap2\n      swap1\n      tag_75\n      jump\t// in\n    tag_190:\n      mload(0x40)\n      dup1\n      swap2\n      sub\n      swap1\n      return\n        /* \"Fund.sol\":696:728  address public immutable creator */\n    tag_44:\n      immutable(\"0xed93c67e1a9b7f09d3b44ee593360f0073603a8e45415e2c3c69afc994a1103d\")\n      dup2\n      jump\t// out\n        /* \"Fund.sol\":7714:8905  function finalizeRequest(uint256 _index) public nonReentrant {... */\n    tag_51:\n        /* \"@openzeppelin/contracts/security/ReentrancyGuard.sol\":1744:1745   */\n      0x02\n        /* \"@openzeppelin/contracts/security/ReentrancyGuard.sol\":2325:2332   */\n      sload(0x00)\n        /* \"@openzeppelin/contracts/security/ReentrancyGuard.sol\":2325:2344   */\n      sub\n        /* \"@openzeppelin/contracts/security/ReentrancyGuard.sol\":2317:2380   */\n      tag_192\n      jumpi\n      mload(0x40)\n      0x08c379a000000000000000000000000000000000000000000000000000000000\n      dup2\n      mstore\n      0x04\n      add\n      tag_193\n      swap1\n      tag_194\n      jump\t// in\n    tag_193:\n      mload(0x40)\n      dup1\n      swap2\n      sub\n      swap1\n      revert\n    tag_192:\n        /* \"@openzeppelin/contracts/security/ReentrancyGuard.sol\":1744:1745   */\n      0x02\n        /* \"@openzeppelin/contracts/security/ReentrancyGuard.sol\":2455:2462   */\n      0x00\n        /* \"@openzeppelin/contracts/security/ReentrancyGuard.sol\":2455:2473   */\n      dup2\n      swap1\n      sstore\n      pop\n        /* \"Fund.sol\":7782:7805  Request storage request */\n      0x00\n        /* \"Fund.sol\":7808:7816  requests */\n      0x07\n        /* \"Fund.sol\":7817:7823  _index */\n      dup3\n        /* \"Fund.sol\":7808:7824  requests[_index] */\n      dup2\n      sload\n      dup2\n      lt\n      tag_196\n      jumpi\n      tag_197\n      tag_198\n      jump\t// in\n    tag_197:\n    tag_196:\n      swap1\n      0x00\n      mstore\n      keccak256(0x00, 0x20)\n      swap1\n      0x08\n      mul\n      add\n        /* \"Fund.sol\":7782:7824  Request storage request = requests[_index] */\n      swap1\n      pop\n        /* \"Fund.sol\":7863:7873  msg.sender */\n      caller\n        /* \"Fund.sol\":7841:7873  request.petitioner == msg.sender */\n      0xffffffffffffffffffffffffffffffffffffffff\n      and\n        /* \"Fund.sol\":7841:7848  request */\n      dup2\n        /* \"Fund.sol\":7841:7859  request.petitioner */\n      0x01\n      add\n      0x00\n      swap1\n      sload\n      swap1\n      0x0100\n      exp\n      swap1\n      div\n      0xffffffffffffffffffffffffffffffffffffffff\n      and\n        /* \"Fund.sol\":7841:7873  request.petitioner == msg.sender */\n      0xffffffffffffffffffffffffffffffffffffffff\n      and\n      eq\n        /* \"Fund.sol\":7833:7919  require(request.petitioner == msg.sender, \"You are not the petitioner of the request\") */\n      tag_200\n      jumpi\n      mload(0x40)\n      0x08c379a000000000000000000000000000000000000000000000000000000000\n      dup2\n      mstore\n      0x04\n      add\n      tag_201\n      swap1\n      tag_202\n      jump\t// in\n    tag_201:\n      mload(0x40)\n      dup1\n      swap2\n      sub\n      swap1\n      revert\n    tag_200:\n        /* \"Fund.sol\":7935:7942  request */\n      dup1\n        /* \"Fund.sol\":7935:7951  request.complete */\n      0x05\n      add\n      0x00\n      swap1\n      sload\n      swap1\n      0x0100\n      exp\n      swap1\n      div\n      0xff\n      and\n        /* \"Fund.sol\":7934:7951  !request.complete */\n      iszero\n        /* \"Fund.sol\":7926:7994  require(!request.complete, \"The request has already been completed\") */\n      tag_203\n      jumpi\n      mload(0x40)\n      0x08c379a000000000000000000000000000000000000000000000000000000000\n      dup2\n      mstore\n      0x04\n      add\n      tag_204\n      swap1\n      tag_205\n      jump\t// in\n    tag_204:\n      mload(0x40)\n      dup1\n      swap2\n      sub\n      swap1\n      revert\n    tag_203:\n        /* \"Fund.sol\":8001:8020  uint256 _totalCount */\n      0x00\n        /* \"Fund.sol\":8031:8065  onlyContributorsCanApproveARequest */\n      immutable(\"0xeafa31dc210956fc0884ec5660eba9405197797219cbbda41b6aaf7118c651d8\")\n        /* \"Fund.sol\":8027:8369  if (onlyContributorsCanApproveARequest) {... */\n      iszero\n      tag_206\n      jumpi\n        /* \"Fund.sol\":8090:8109  contributorsCount() */\n      tag_207\n        /* \"Fund.sol\":8090:8107  contributorsCount */\n      tag_106\n        /* \"Fund.sol\":8090:8109  contributorsCount() */\n      jump\t// in\n    tag_207:\n        /* \"Fund.sol\":8076:8109  _totalCount = contributorsCount() */\n      swap1\n      pop\n        /* \"Fund.sol\":8027:8369  if (onlyContributorsCanApproveARequest) {... */\n      jump(tag_208)\n    tag_206:\n        /* \"Fund.sol\":8146:8165  contributorsCount() */\n      tag_209\n        /* \"Fund.sol\":8146:8163  contributorsCount */\n      tag_106\n        /* \"Fund.sol\":8146:8165  contributorsCount() */\n      jump\t// in\n    tag_209:\n        /* \"Fund.sol\":8132:8165  _totalCount = contributorsCount() */\n      swap1\n      pop\n        /* \"Fund.sol\":8181:8190  uint256 i */\n      0x00\n        /* \"Fund.sol\":8176:8362  for (uint256 i; i < managers.length; ) {... */\n    tag_210:\n        /* \"Fund.sol\":8196:8204  managers */\n      0x02\n        /* \"Fund.sol\":8196:8211  managers.length */\n      dup1\n      sload\n      swap1\n      pop\n        /* \"Fund.sol\":8192:8193  i */\n      dup2\n        /* \"Fund.sol\":8192:8211  i < managers.length */\n      lt\n        /* \"Fund.sol\":8176:8362  for (uint256 i; i < managers.length; ) {... */\n      iszero\n      tag_211\n      jumpi\n        /* \"Fund.sol\":8261:8262  0 */\n      0x00\n        /* \"Fund.sol\":8232:8245  contributions */\n      0x05\n        /* \"Fund.sol\":8232:8258  contributions[managers[i]] */\n      0x00\n        /* \"Fund.sol\":8246:8254  managers */\n      0x02\n        /* \"Fund.sol\":8255:8256  i */\n      dup5\n        /* \"Fund.sol\":8246:8257  managers[i] */\n      dup2\n      sload\n      dup2\n      lt\n      tag_213\n      jumpi\n      tag_214\n      tag_198\n      jump\t// in\n    tag_214:\n    tag_213:\n      swap1\n      0x00\n      mstore\n      keccak256(0x00, 0x20)\n      add\n      0x00\n      swap1\n      sload\n      swap1\n      0x0100\n      exp\n      swap1\n      div\n      0xffffffffffffffffffffffffffffffffffffffff\n      and\n        /* \"Fund.sol\":8232:8258  contributions[managers[i]] */\n      0xffffffffffffffffffffffffffffffffffffffff\n      and\n      0xffffffffffffffffffffffffffffffffffffffff\n      and\n      dup2\n      mstore\n      0x20\n      add\n      swap1\n      dup2\n      mstore\n      0x20\n      add\n      0x00\n      keccak256\n      sload\n        /* \"Fund.sol\":8232:8262  contributions[managers[i]] > 0 */\n      gt\n        /* \"Fund.sol\":8226:8303  if (!(contributions[managers[i]] > 0)) {... */\n      tag_216\n      jumpi\n        /* \"Fund.sol\":8278:8291  _totalCount++ */\n      dup2\n      dup1\n      tag_217\n      swap1\n      tag_218\n      jump\t// in\n    tag_217:\n      swap3\n      pop\n      pop\n        /* \"Fund.sol\":8226:8303  if (!(contributions[managers[i]] > 0)) {... */\n    tag_216:\n        /* \"Fund.sol\":8338:8341  i++ */\n      dup1\n      dup1\n      0x01\n      add\n      swap2\n      pop\n      pop\n        /* \"Fund.sol\":8176:8362  for (uint256 i; i < managers.length; ) {... */\n      jump(tag_210)\n    tag_211:\n      pop\n        /* \"Fund.sol\":8027:8369  if (onlyContributorsCanApproveARequest) {... */\n    tag_208:\n        /* \"Fund.sol\":8406:8407  0 */\n      0x00\n        /* \"Fund.sol\":8391:8402  _totalCount */\n      dup2\n        /* \"Fund.sol\":8391:8407  _totalCount == 0 */\n      eq\n        /* \"Fund.sol\":8391:8503  _totalCount == 0 || (request.approvalsCount.current() * 100) / _totalCount >= minimumApprovalsPercentageRequired */\n      dup1\n      tag_219\n      jumpi\n      pop\n        /* \"Fund.sol\":8469:8503  minimumApprovalsPercentageRequired */\n      immutable(\"0x2cc0d3dcb20652cd8f106aee76b6a7391771a130885634c0eb2bbe3cde796691\")\n        /* \"Fund.sol\":8454:8465  _totalCount */\n      dup2\n        /* \"Fund.sol\":8447:8450  100 */\n      0x64\n        /* \"Fund.sol\":8412:8444  request.approvalsCount.current() */\n      tag_220\n        /* \"Fund.sol\":8412:8419  request */\n      dup6\n        /* \"Fund.sol\":8412:8434  request.approvalsCount */\n      0x07\n      add\n        /* \"Fund.sol\":8412:8442  request.approvalsCount.current */\n      tag_221\n        /* \"Fund.sol\":8412:8444  request.approvalsCount.current() */\n      jump\t// in\n    tag_220:\n        /* \"Fund.sol\":8412:8450  request.approvalsCount.current() * 100 */\n      tag_222\n      swap2\n      swap1\n      tag_223\n      jump\t// in\n    tag_222:\n        /* \"Fund.sol\":8411:8465  (request.approvalsCount.current() * 100) / _totalCount */\n      tag_224\n      swap2\n      swap1\n      tag_225\n      jump\t// in\n    tag_224:\n        /* \"Fund.sol\":8411:8503  (request.approvalsCount.current() * 100) / _totalCount >= minimumApprovalsPercentageRequired */\n      lt\n      iszero\n        /* \"Fund.sol\":8391:8503  _totalCount == 0 || (request.approvalsCount.current() * 100) / _totalCount >= minimumApprovalsPercentageRequired */\n    tag_219:\n        /* \"Fund.sol\":8375:8558  require(... */\n      tag_226\n      jumpi\n      mload(0x40)\n      0x08c379a000000000000000000000000000000000000000000000000000000000\n      dup2\n      mstore\n      0x04\n      add\n      tag_227\n      swap1\n      tag_228\n      jump\t// in\n    tag_227:\n      mload(0x40)\n      dup1\n      swap2\n      sub\n      swap1\n      revert\n    tag_226:\n        /* \"Fund.sol\":8567:8591  uint256 _valueToTransfer */\n      0x00\n        /* \"Fund.sol\":8594:8601  request */\n      dup3\n        /* \"Fund.sol\":8594:8617  request.valueToTransfer */\n      0x03\n      add\n      sload\n        /* \"Fund.sol\":8567:8617  uint256 _valueToTransfer = request.valueToTransfer */\n      swap1\n      pop\n        /* \"Fund.sol\":8647:8656  balance() */\n      tag_229\n        /* \"Fund.sol\":8647:8654  balance */\n      tag_149\n        /* \"Fund.sol\":8647:8656  balance() */\n      jump\t// in\n    tag_229:\n        /* \"Fund.sol\":8628:8644  _valueToTransfer */\n      dup2\n        /* \"Fund.sol\":8628:8656  _valueToTransfer > balance() */\n      gt\n        /* \"Fund.sol\":8624:8703  if (_valueToTransfer > balance()) {... */\n      iszero\n      tag_230\n      jumpi\n        /* \"Fund.sol\":8686:8695  balance() */\n      tag_231\n        /* \"Fund.sol\":8686:8693  balance */\n      tag_149\n        /* \"Fund.sol\":8686:8695  balance() */\n      jump\t// in\n    tag_231:\n        /* \"Fund.sol\":8667:8695  _valueToTransfer = balance() */\n      swap1\n      pop\n        /* \"Fund.sol\":8624:8703  if (_valueToTransfer > balance()) {... */\n    tag_230:\n        /* \"Fund.sol\":8719:8726  request */\n      dup3\n        /* \"Fund.sol\":8719:8736  request.recipient */\n      0x02\n      add\n      0x00\n      swap1\n      sload\n      swap1\n      0x0100\n      exp\n      swap1\n      div\n      0xffffffffffffffffffffffffffffffffffffffff\n      and\n        /* \"Fund.sol\":8711:8746  payable(request.recipient).transfer */\n      0xffffffffffffffffffffffffffffffffffffffff\n      and\n        /* \"Fund.sol\":8711:8764  payable(request.recipient).transfer(_valueToTransfer) */\n      0x08fc\n        /* \"Fund.sol\":8747:8763  _valueToTransfer */\n      dup3\n        /* \"Fund.sol\":8711:8764  payable(request.recipient).transfer(_valueToTransfer) */\n      swap1\n      dup2\n      iszero\n      mul\n      swap1\n      mload(0x40)\n      0x00\n      mload(0x40)\n      dup1\n      dup4\n      sub\n      dup2\n      dup6\n      dup9\n      dup9\n      call\n      swap4\n      pop\n      pop\n      pop\n      pop\n      iszero\n      dup1\n      iszero\n      tag_233\n      jumpi\n      returndatasize\n      0x00\n      dup1\n      returndatacopy\n      revert(0x00, returndatasize)\n    tag_233:\n      pop\n        /* \"Fund.sol\":8798:8814  _valueToTransfer */\n      dup1\n        /* \"Fund.sol\":8771:8778  request */\n      dup4\n        /* \"Fund.sol\":8771:8795  request.transferredValue */\n      0x04\n      add\n        /* \"Fund.sol\":8771:8814  request.transferredValue = _valueToTransfer */\n      dup2\n      swap1\n      sstore\n      pop\n        /* \"Fund.sol\":8840:8844  true */\n      0x01\n        /* \"Fund.sol\":8821:8828  request */\n      dup4\n        /* \"Fund.sol\":8821:8837  request.complete */\n      0x05\n      add\n      0x00\n        /* \"Fund.sol\":8821:8844  request.complete = true */\n      0x0100\n      exp\n      dup2\n      sload\n      dup2\n      0xff\n      mul\n      not\n      and\n      swap1\n      dup4\n      iszero\n      iszero\n      mul\n      or\n      swap1\n      sstore\n      pop\n        /* \"Fund.sol\":8874:8880  _index */\n      dup4\n        /* \"Fund.sol\":8858:8899  FinalizeRequest(_index, _valueToTransfer) */\n      0x2a26d55234ae45d40d3bdfd1893cf58ff7c2bb1c8089d97ed73879054778458c\n        /* \"Fund.sol\":8882:8898  _valueToTransfer */\n      dup3\n        /* \"Fund.sol\":8858:8899  FinalizeRequest(_index, _valueToTransfer) */\n      mload(0x40)\n      tag_234\n      swap2\n      swap1\n      tag_75\n      jump\t// in\n    tag_234:\n      mload(0x40)\n      dup1\n      swap2\n      sub\n      swap1\n      log2\n        /* \"Fund.sol\":7775:8905  {... */\n      pop\n      pop\n      pop\n        /* \"@openzeppelin/contracts/security/ReentrancyGuard.sol\":1701:1702   */\n      0x01\n        /* \"@openzeppelin/contracts/security/ReentrancyGuard.sol\":2628:2635   */\n      0x00\n        /* \"@openzeppelin/contracts/security/ReentrancyGuard.sol\":2628:2650   */\n      dup2\n      swap1\n      sstore\n      pop\n        /* \"Fund.sol\":7714:8905  function finalizeRequest(uint256 _index) public nonReentrant {... */\n      pop\n      jump\t// out\n        /* \"Fund.sol\":673:691  string public name */\n    tag_54:\n      0x01\n      dup1\n      sload\n      tag_235\n      swap1\n      tag_236\n      jump\t// in\n    tag_235:\n      dup1\n      0x1f\n      add\n      0x20\n      dup1\n      swap2\n      div\n      mul\n      0x20\n      add\n      mload(0x40)\n      swap1\n      dup2\n      add\n      0x40\n      mstore\n      dup1\n      swap3\n      swap2\n      swap1\n      dup2\n      dup2\n      mstore\n      0x20\n      add\n      dup3\n      dup1\n      sload\n      tag_237\n      swap1\n      tag_236\n      jump\t// in\n    tag_237:\n      dup1\n      iszero\n      tag_238\n      jumpi\n      dup1\n      0x1f\n      lt\n      tag_239\n      jumpi\n      0x0100\n      dup1\n      dup4\n      sload\n      div\n      mul\n      dup4\n      mstore\n      swap2\n      0x20\n      add\n      swap2\n      jump(tag_238)\n    tag_239:\n      dup3\n      add\n      swap2\n      swap1\n      0x00\n      mstore\n      keccak256(0x00, 0x20)\n      swap1\n    tag_240:\n      dup2\n      sload\n      dup2\n      mstore\n      swap1\n      0x01\n      add\n      swap1\n      0x20\n      add\n      dup1\n      dup4\n      gt\n      tag_240\n      jumpi\n      dup3\n      swap1\n      sub\n      0x1f\n      and\n      dup3\n      add\n      swap2\n    tag_238:\n      pop\n      pop\n      pop\n      pop\n      pop\n      dup2\n      jump\t// out\n        /* \"Fund.sol\":4968:5050  function contributeFor(address _for) public payable {... */\n    tag_60:\n        /* \"Fund.sol\":5027:5044  _contribute(_for) */\n      tag_242\n        /* \"Fund.sol\":5039:5043  _for */\n      dup2\n        /* \"Fund.sol\":5027:5038  _contribute */\n      tag_243\n        /* \"Fund.sol\":5027:5044  _contribute(_for) */\n      jump\t// in\n    tag_242:\n        /* \"Fund.sol\":4968:5050  function contributeFor(address _for) public payable {... */\n      pop\n      jump\t// out\n        /* \"Fund.sol\":5684:6422  function createRequest(string memory _description, address _recipient, uint256 _valueToTransfer) public {... */\n    tag_65:\n        /* \"Fund.sol\":5803:5823  requestsCanBeCreated */\n      immutable(\"0x4569971f3d79dc8da7f8a6820be6cb8dc4a52bb0df6599b2aae7182111b63cd5\")\n        /* \"Fund.sol\":5795:5855  require(requestsCanBeCreated, \"Requests can not be created\") */\n      tag_245\n      jumpi\n      mload(0x40)\n      0x08c379a000000000000000000000000000000000000000000000000000000000\n      dup2\n      mstore\n      0x04\n      add\n      tag_246\n      swap1\n      tag_247\n      jump\t// in\n    tag_246:\n      mload(0x40)\n      dup1\n      swap2\n      sub\n      swap1\n      revert\n    tag_245:\n        /* \"Fund.sol\":5864:5879  bool _isManager */\n      0x00\n        /* \"Fund.sol\":5882:5891  isManager */\n      0x03\n        /* \"Fund.sol\":5882:5903  isManager[msg.sender] */\n      0x00\n        /* \"Fund.sol\":5892:5902  msg.sender */\n      caller\n        /* \"Fund.sol\":5882:5903  isManager[msg.sender] */\n      0xffffffffffffffffffffffffffffffffffffffff\n      and\n      0xffffffffffffffffffffffffffffffffffffffff\n      and\n      dup2\n      mstore\n      0x20\n      add\n      swap1\n      dup2\n      mstore\n      0x20\n      add\n      0x00\n      keccak256\n      0x00\n      swap1\n      sload\n      swap1\n      0x0100\n      exp\n      swap1\n      div\n      0xff\n      and\n        /* \"Fund.sol\":5864:5903  bool _isManager = isManager[msg.sender] */\n      swap1\n      pop\n        /* \"Fund.sol\":5927:5956  onlyManagersCanCreateARequest */\n      immutable(\"0x606503ebd6bdca7290248af82fd5a09ca0489398da9f242244210336ae6ece9f\")\n        /* \"Fund.sol\":5926:5956  !onlyManagersCanCreateARequest */\n      iszero\n        /* \"Fund.sol\":5926:6005  !onlyManagersCanCreateARequest || (onlyManagersCanCreateARequest && _isManager) */\n      dup1\n      tag_248\n      jumpi\n      pop\n        /* \"Fund.sol\":5961:5990  onlyManagersCanCreateARequest */\n      immutable(\"0x606503ebd6bdca7290248af82fd5a09ca0489398da9f242244210336ae6ece9f\")\n        /* \"Fund.sol\":5961:6004  onlyManagersCanCreateARequest && _isManager */\n      dup1\n      iszero\n      tag_249\n      jumpi\n      pop\n        /* \"Fund.sol\":5994:6004  _isManager */\n      dup1\n        /* \"Fund.sol\":5961:6004  onlyManagersCanCreateARequest && _isManager */\n    tag_249:\n        /* \"Fund.sol\":5926:6005  !onlyManagersCanCreateARequest || (onlyManagersCanCreateARequest && _isManager) */\n    tag_248:\n        /* \"Fund.sol\":5910:6057  require(... */\n      tag_250\n      jumpi\n      mload(0x40)\n      0x08c379a000000000000000000000000000000000000000000000000000000000\n      dup2\n      mstore\n      0x04\n      add\n      tag_251\n      swap1\n      tag_252\n      jump\t// in\n    tag_251:\n      mload(0x40)\n      dup1\n      swap2\n      sub\n      swap1\n      revert\n    tag_250:\n        /* \"Fund.sol\":6066:6092  Request storage newRequest */\n      0x00\n        /* \"Fund.sol\":6095:6103  requests */\n      0x07\n        /* \"Fund.sol\":6095:6110  requests.push() */\n      0x01\n      dup2\n      0x01\n      dup2\n      sload\n      add\n      dup1\n      dup3\n      sstore\n      dup1\n      swap2\n      pop\n      pop\n      sub\n      swap1\n      0x00\n      mstore\n      keccak256(0x00, 0x20)\n      swap1\n      0x08\n      mul\n      add\n        /* \"Fund.sol\":6066:6110  Request storage newRequest = requests.push() */\n      swap1\n      pop\n        /* \"Fund.sol\":6144:6156  _description */\n      dup5\n        /* \"Fund.sol\":6119:6129  newRequest */\n      dup2\n        /* \"Fund.sol\":6119:6141  newRequest.description */\n      0x00\n      add\n        /* \"Fund.sol\":6119:6156  newRequest.description = _description */\n      swap1\n      dup2\n      tag_254\n      swap2\n      swap1\n      tag_255\n      jump\t// in\n    tag_254:\n      pop\n        /* \"Fund.sol\":6187:6197  msg.sender */\n      caller\n        /* \"Fund.sol\":6163:6173  newRequest */\n      dup2\n        /* \"Fund.sol\":6163:6184  newRequest.petitioner */\n      0x01\n      add\n      0x00\n        /* \"Fund.sol\":6163:6197  newRequest.petitioner = msg.sender */\n      0x0100\n      exp\n      dup2\n      sload\n      dup2\n      0xffffffffffffffffffffffffffffffffffffffff\n      mul\n      not\n      and\n      swap1\n      dup4\n      0xffffffffffffffffffffffffffffffffffffffff\n      and\n      mul\n      or\n      swap1\n      sstore\n      pop\n        /* \"Fund.sol\":6227:6237  _recipient */\n      dup4\n        /* \"Fund.sol\":6204:6214  newRequest */\n      dup2\n        /* \"Fund.sol\":6204:6224  newRequest.recipient */\n      0x02\n      add\n      0x00\n        /* \"Fund.sol\":6204:6237  newRequest.recipient = _recipient */\n      0x0100\n      exp\n      dup2\n      sload\n      dup2\n      0xffffffffffffffffffffffffffffffffffffffff\n      mul\n      not\n      and\n      swap1\n      dup4\n      0xffffffffffffffffffffffffffffffffffffffff\n      and\n      mul\n      or\n      swap1\n      sstore\n      pop\n        /* \"Fund.sol\":6273:6289  _valueToTransfer */\n      dup3\n        /* \"Fund.sol\":6244:6254  newRequest */\n      dup2\n        /* \"Fund.sol\":6244:6270  newRequest.valueToTransfer */\n      0x03\n      add\n        /* \"Fund.sol\":6244:6289  newRequest.valueToTransfer = _valueToTransfer */\n      dup2\n      swap1\n      sstore\n      pop\n        /* \"Fund.sol\":6380:6390  _recipient */\n      dup4\n        /* \"Fund.sol\":6322:6409  NewRequest(requests.length - 1, _description, msg.sender, _recipient, _valueToTransfer) */\n      0xffffffffffffffffffffffffffffffffffffffff\n      and\n        /* \"Fund.sol\":6368:6378  msg.sender */\n      caller\n        /* \"Fund.sol\":6322:6409  NewRequest(requests.length - 1, _description, msg.sender, _recipient, _valueToTransfer) */\n      0xffffffffffffffffffffffffffffffffffffffff\n      and\n        /* \"Fund.sol\":6351:6352  1 */\n      0x01\n        /* \"Fund.sol\":6333:6341  requests */\n      0x07\n        /* \"Fund.sol\":6333:6348  requests.length */\n      dup1\n      sload\n      swap1\n      pop\n        /* \"Fund.sol\":6333:6352  requests.length - 1 */\n      sub\n        /* \"Fund.sol\":6322:6409  NewRequest(requests.length - 1, _description, msg.sender, _recipient, _valueToTransfer) */\n      0x5951f0e7966a5f08a4c0a5f25718915cc221b5a4fc488a15b2fbf1f12248d5c2\n        /* \"Fund.sol\":6354:6366  _description */\n      dup9\n        /* \"Fund.sol\":6392:6408  _valueToTransfer */\n      dup8\n        /* \"Fund.sol\":6322:6409  NewRequest(requests.length - 1, _description, msg.sender, _recipient, _valueToTransfer) */\n      mload(0x40)\n      tag_256\n      swap3\n      swap2\n      swap1\n      tag_257\n      jump\t// in\n    tag_256:\n      mload(0x40)\n      dup1\n      swap2\n      sub\n      swap1\n      log4\n        /* \"Fund.sol\":5788:6422  {... */\n      pop\n      pop\n        /* \"Fund.sol\":5684:6422  function createRequest(string memory _description, address _recipient, uint256 _valueToTransfer) public {... */\n      pop\n      pop\n      pop\n      jump\t// out\n        /* \"Fund.sol\":3441:3994  function addNewManagers(address[] memory _managers) public {... */\n    tag_70:\n        /* \"Fund.sol\":3515:3542  managersCanBeAddedOrRemoved */\n      immutable(\"0xc47ece0ffae697632ce145a7086cbcf260f7fa60876ff2606761ea2b7581ee76\")\n        /* \"Fund.sol\":3507:3576  require(managersCanBeAddedOrRemoved, \"New managers can not be added\") */\n      tag_259\n      jumpi\n      mload(0x40)\n      0x08c379a000000000000000000000000000000000000000000000000000000000\n      dup2\n      mstore\n      0x04\n      add\n      tag_260\n      swap1\n      tag_261\n      jump\t// in\n    tag_260:\n      mload(0x40)\n      dup1\n      swap2\n      sub\n      swap1\n      revert\n    tag_259:\n        /* \"Fund.sol\":3591:3600  isManager */\n      0x03\n        /* \"Fund.sol\":3591:3612  isManager[msg.sender] */\n      0x00\n        /* \"Fund.sol\":3601:3611  msg.sender */\n      caller\n        /* \"Fund.sol\":3591:3612  isManager[msg.sender] */\n      0xffffffffffffffffffffffffffffffffffffffff\n      and\n      0xffffffffffffffffffffffffffffffffffffffff\n      and\n      dup2\n      mstore\n      0x20\n      add\n      swap1\n      dup2\n      mstore\n      0x20\n      add\n      0x00\n      keccak256\n      0x00\n      swap1\n      sload\n      swap1\n      0x0100\n      exp\n      swap1\n      div\n      0xff\n      and\n        /* \"Fund.sol\":3583:3641  require(isManager[msg.sender], \"Only managers can access\") */\n      tag_262\n      jumpi\n      mload(0x40)\n      0x08c379a000000000000000000000000000000000000000000000000000000000\n      dup2\n      mstore\n      0x04\n      add\n      tag_263\n      swap1\n      tag_264\n      jump\t// in\n    tag_263:\n      mload(0x40)\n      dup1\n      swap2\n      sub\n      swap1\n      revert\n    tag_262:\n        /* \"Fund.sol\":3675:3676  0 */\n      0x00\n        /* \"Fund.sol\":3656:3665  _managers */\n      dup2\n        /* \"Fund.sol\":3656:3672  _managers.length */\n      mload\n        /* \"Fund.sol\":3656:3676  _managers.length > 0 */\n      gt\n        /* \"Fund.sol\":3648:3719  require(_managers.length > 0, \"You have to send one or more addresses\") */\n      tag_265\n      jumpi\n      mload(0x40)\n      0x08c379a000000000000000000000000000000000000000000000000000000000\n      dup2\n      mstore\n      0x04\n      add\n      tag_266\n      swap1\n      tag_267\n      jump\t// in\n    tag_266:\n      mload(0x40)\n      dup1\n      swap2\n      sub\n      swap1\n      revert\n    tag_265:\n        /* \"Fund.sol\":3733:3742  uint256 i */\n      0x00\n        /* \"Fund.sol\":3728:3989  for (uint256 i; i < _managers.length; ) {... */\n    tag_268:\n        /* \"Fund.sol\":3748:3757  _managers */\n      dup2\n        /* \"Fund.sol\":3748:3764  _managers.length */\n      mload\n        /* \"Fund.sol\":3744:3745  i */\n      dup2\n        /* \"Fund.sol\":3744:3764  i < _managers.length */\n      lt\n        /* \"Fund.sol\":3728:3989  for (uint256 i; i < _managers.length; ) {... */\n      iszero\n      tag_269\n      jumpi\n        /* \"Fund.sol\":3782:3791  isManager */\n      0x03\n        /* \"Fund.sol\":3782:3805  isManager[_managers[i]] */\n      0x00\n        /* \"Fund.sol\":3792:3801  _managers */\n      dup4\n        /* \"Fund.sol\":3802:3803  i */\n      dup4\n        /* \"Fund.sol\":3792:3804  _managers[i] */\n      dup2\n      mload\n      dup2\n      lt\n      tag_271\n      jumpi\n      tag_272\n      tag_198\n      jump\t// in\n    tag_272:\n    tag_271:\n      0x20\n      mul\n      0x20\n      add\n      add\n      mload\n        /* \"Fund.sol\":3782:3805  isManager[_managers[i]] */\n      0xffffffffffffffffffffffffffffffffffffffff\n      and\n      0xffffffffffffffffffffffffffffffffffffffff\n      and\n      dup2\n      mstore\n      0x20\n      add\n      swap1\n      dup2\n      mstore\n      0x20\n      add\n      0x00\n      keccak256\n      0x00\n      swap1\n      sload\n      swap1\n      0x0100\n      exp\n      swap1\n      div\n      0xff\n      and\n        /* \"Fund.sol\":3777:3938  if (!isManager[_managers[i]]) {... */\n      tag_273\n      jumpi\n        /* \"Fund.sol\":3818:3826  managers */\n      0x02\n        /* \"Fund.sol\":3832:3841  _managers */\n      dup3\n        /* \"Fund.sol\":3842:3843  i */\n      dup3\n        /* \"Fund.sol\":3832:3844  _managers[i] */\n      dup2\n      mload\n      dup2\n      lt\n      tag_274\n      jumpi\n      tag_275\n      tag_198\n      jump\t// in\n    tag_275:\n    tag_274:\n      0x20\n      mul\n      0x20\n      add\n      add\n      mload\n        /* \"Fund.sol\":3818:3845  managers.push(_managers[i]) */\n      swap1\n      dup1\n      0x01\n      dup2\n      sload\n      add\n      dup1\n      dup3\n      sstore\n      dup1\n      swap2\n      pop\n      pop\n      0x01\n      swap1\n      sub\n      swap1\n      0x00\n      mstore\n      keccak256(0x00, 0x20)\n      add\n      0x00\n      swap1\n      swap2\n      swap1\n      swap2\n      swap1\n      swap2\n      0x0100\n      exp\n      dup2\n      sload\n      dup2\n      0xffffffffffffffffffffffffffffffffffffffff\n      mul\n      not\n      and\n      swap1\n      dup4\n      0xffffffffffffffffffffffffffffffffffffffff\n      and\n      mul\n      or\n      swap1\n      sstore\n      pop\n        /* \"Fund.sol\":3882:3886  true */\n      0x01\n        /* \"Fund.sol\":3856:3865  isManager */\n      0x03\n        /* \"Fund.sol\":3856:3879  isManager[_managers[i]] */\n      0x00\n        /* \"Fund.sol\":3866:3875  _managers */\n      dup5\n        /* \"Fund.sol\":3876:3877  i */\n      dup5\n        /* \"Fund.sol\":3866:3878  _managers[i] */\n      dup2\n      mload\n      dup2\n      lt\n      tag_277\n      jumpi\n      tag_278\n      tag_198\n      jump\t// in\n    tag_278:\n    tag_277:\n      0x20\n      mul\n      0x20\n      add\n      add\n      mload\n        /* \"Fund.sol\":3856:3879  isManager[_managers[i]] */\n      0xffffffffffffffffffffffffffffffffffffffff\n      and\n      0xffffffffffffffffffffffffffffffffffffffff\n      and\n      dup2\n      mstore\n      0x20\n      add\n      swap1\n      dup2\n      mstore\n      0x20\n      add\n      0x00\n      keccak256\n      0x00\n        /* \"Fund.sol\":3856:3886  isManager[_managers[i]] = true */\n      0x0100\n      exp\n      dup2\n      sload\n      dup2\n      0xff\n      mul\n      not\n      and\n      swap1\n      dup4\n      iszero\n      iszero\n      mul\n      or\n      swap1\n      sstore\n      pop\n        /* \"Fund.sol\":3915:3924  _managers */\n      dup2\n        /* \"Fund.sol\":3925:3926  i */\n      dup2\n        /* \"Fund.sol\":3915:3927  _managers[i] */\n      dup2\n      mload\n      dup2\n      lt\n      tag_279\n      jumpi\n      tag_280\n      tag_198\n      jump\t// in\n    tag_280:\n    tag_279:\n      0x20\n      mul\n      0x20\n      add\n      add\n      mload\n        /* \"Fund.sol\":3904:3928  NewManager(_managers[i]) */\n      0xffffffffffffffffffffffffffffffffffffffff\n      and\n      0x5589a1df7a257347b14b97cb6fe06862c960ff64e9a0c2908632929098bb0130\n      mload(0x40)\n      mload(0x40)\n      dup1\n      swap2\n      sub\n      swap1\n      log2\n        /* \"Fund.sol\":3777:3938  if (!isManager[_managers[i]]) {... */\n    tag_273:\n        /* \"Fund.sol\":3969:3972  i++ */\n      dup1\n      dup1\n      0x01\n      add\n      swap2\n      pop\n      pop\n        /* \"Fund.sol\":3728:3989  for (uint256 i; i < _managers.length; ) {... */\n      jump(tag_268)\n    tag_269:\n      pop\n        /* \"Fund.sol\":3441:3994  function addNewManagers(address[] memory _managers) public {... */\n      pop\n      jump\t// out\n        /* \"Fund.sol\":1059:1092  uint256 public totalContributions */\n    tag_73:\n      sload(0x06)\n      dup2\n      jump\t// out\n        /* \"Fund.sol\":972:1001  address[] public contributors */\n    tag_79:\n      0x04\n      dup2\n      dup2\n      sload\n      dup2\n      lt\n      tag_281\n      jumpi\n      0x00\n      dup1\n      revert\n    tag_281:\n      swap1\n      0x00\n      mstore\n      keccak256(0x00, 0x20)\n      add\n      0x00\n      swap2\n      pop\n      sload\n      swap1\n      0x0100\n      exp\n      swap1\n      div\n      0xffffffffffffffffffffffffffffffffffffffff\n      and\n      dup2\n      jump\t// out\n        /* \"Fund.sol\":814:839  address[] public managers */\n    tag_84:\n      0x02\n      dup2\n      dup2\n      sload\n      dup2\n      lt\n      tag_283\n      jumpi\n      0x00\n      dup1\n      revert\n    tag_283:\n      swap1\n      0x00\n      mstore\n      keccak256(0x00, 0x20)\n      add\n      0x00\n      swap2\n      pop\n      sload\n      swap1\n      0x0100\n      exp\n      swap1\n      div\n      0xffffffffffffffffffffffffffffffffffffffff\n      and\n      dup2\n      jump\t// out\n        /* \"Fund.sol\":8911:9204  function getSummary()... */\n    tag_88:\n        /* \"Fund.sol\":8969:8985  address _address */\n      0x00\n        /* \"Fund.sol\":8987:9003  uint256 _balance */\n      dup1\n        /* \"Fund.sol\":9005:9024  string memory _name */\n      0x60\n        /* \"Fund.sol\":9026:9042  address _creator */\n      0x00\n        /* \"Fund.sol\":9044:9062  uint256 _createdAt */\n      dup1\n        /* \"Fund.sol\":9093:9097  this */\n      address\n        /* \"Fund.sol\":9074:9098  _address = address(this) */\n      swap5\n      pop\n        /* \"Fund.sol\":9116:9125  balance() */\n      tag_286\n        /* \"Fund.sol\":9116:9123  balance */\n      tag_149\n        /* \"Fund.sol\":9116:9125  balance() */\n      jump\t// in\n    tag_286:\n        /* \"Fund.sol\":9105:9125  _balance = balance() */\n      swap4\n      pop\n        /* \"Fund.sol\":9140:9144  name */\n      0x01\n        /* \"Fund.sol\":9132:9144  _name = name */\n      dup1\n      sload\n      tag_287\n      swap1\n      tag_236\n      jump\t// in\n    tag_287:\n      dup1\n      0x1f\n      add\n      0x20\n      dup1\n      swap2\n      div\n      mul\n      0x20\n      add\n      mload(0x40)\n      swap1\n      dup2\n      add\n      0x40\n      mstore\n      dup1\n      swap3\n      swap2\n      swap1\n      dup2\n      dup2\n      mstore\n      0x20\n      add\n      dup3\n      dup1\n      sload\n      tag_288\n      swap1\n      tag_236\n      jump\t// in\n    tag_288:\n      dup1\n      iszero\n      tag_289\n      jumpi\n      dup1\n      0x1f\n      lt\n      tag_290\n      jumpi\n      0x0100\n      dup1\n      dup4\n      sload\n      div\n      mul\n      dup4\n      mstore\n      swap2\n      0x20\n      add\n      swap2\n      jump(tag_289)\n    tag_290:\n      dup3\n      add\n      swap2\n      swap1\n      0x00\n      mstore\n      keccak256(0x00, 0x20)\n      swap1\n    tag_291:\n      dup2\n      sload\n      dup2\n      mstore\n      swap1\n      0x01\n      add\n      swap1\n      0x20\n      add\n      dup1\n      dup4\n      gt\n      tag_291\n      jumpi\n      dup3\n      swap1\n      sub\n      0x1f\n      and\n      dup3\n      add\n      swap2\n    tag_289:\n      pop\n      pop\n      pop\n      pop\n      pop\n      swap3\n      pop\n        /* \"Fund.sol\":9162:9169  creator */\n      immutable(\"0xed93c67e1a9b7f09d3b44ee593360f0073603a8e45415e2c3c69afc994a1103d\")\n        /* \"Fund.sol\":9151:9169  _creator = creator */\n      swap2\n      pop\n        /* \"Fund.sol\":9189:9198  createdAt */\n      immutable(\"0x5bc0457d8881b800fd1bc0d6df907345b3bf287e43a5790ded3d08dbacf9c03a\")\n        /* \"Fund.sol\":9176:9198  _createdAt = createdAt */\n      swap1\n      pop\n        /* \"Fund.sol\":8911:9204  function getSummary()... */\n      swap1\n      swap2\n      swap3\n      swap4\n      swap5\n      jump\t// out\n        /* \"Fund.sol\":1006:1054  mapping(address => uint256) public contributions */\n    tag_94:\n      mstore(0x20, 0x05)\n      dup1\n      0x00\n      mstore\n      keccak256(0x00, 0x40)\n      0x00\n      swap2\n      pop\n      swap1\n      pop\n      sload\n      dup2\n      jump\t// out\n        /* \"Fund.sol\":4697:4787  function managersCount() public view returns (uint256) {... */\n    tag_98:\n        /* \"Fund.sol\":4743:4750  uint256 */\n      0x00\n        /* \"Fund.sol\":4766:4774  managers */\n      0x02\n        /* \"Fund.sol\":4766:4781  managers.length */\n      dup1\n      sload\n      swap1\n      pop\n        /* \"Fund.sol\":4759:4781  return managers.length */\n      swap1\n      pop\n        /* \"Fund.sol\":4697:4787  function managersCount() public view returns (uint256) {... */\n      swap1\n      jump\t// out\n        /* \"Fund.sol\":1383:1445  uint256 public immutable minimumContributionPercentageRequired */\n    tag_102:\n      immutable(\"0xdb37925934a3d3177db64e11f5e0156ceb8a756fee58ded16e549afa607ddb1d\")\n      dup2\n      jump\t// out\n        /* \"Fund.sol\":5056:5154  function contributorsCount() public view returns (uint256) {... */\n    tag_106:\n        /* \"Fund.sol\":5106:5113  uint256 */\n      0x00\n        /* \"Fund.sol\":5129:5141  contributors */\n      0x04\n        /* \"Fund.sol\":5129:5148  contributors.length */\n      dup1\n      sload\n      swap1\n      pop\n        /* \"Fund.sol\":5122:5148  return contributors.length */\n      swap1\n      pop\n        /* \"Fund.sol\":5056:5154  function contributorsCount() public view returns (uint256) {... */\n      swap1\n      jump\t// out\n        /* \"Fund.sol\":1121:1182  bool public immutable managersCanTransferMoneyWithoutARequest */\n    tag_110:\n      immutable(\"0xe921da22f871c25c63f06c1365385cbb26397f64f79055cdbab32187a9377d16\")\n      dup2\n      jump\t// out\n        /* \"Fund.sol\":1189:1214  Request[] public requests */\n    tag_116:\n      0x07\n      dup2\n      dup2\n      sload\n      dup2\n      lt\n      tag_294\n      jumpi\n      0x00\n      dup1\n      revert\n    tag_294:\n      swap1\n      0x00\n      mstore\n      keccak256(0x00, 0x20)\n      swap1\n      0x08\n      mul\n      add\n      0x00\n      swap2\n      pop\n      swap1\n      pop\n      dup1\n      0x00\n      add\n      dup1\n      sload\n      tag_296\n      swap1\n      tag_236\n      jump\t// in\n    tag_296:\n      dup1\n      0x1f\n      add\n      0x20\n      dup1\n      swap2\n      div\n      mul\n      0x20\n      add\n      mload(0x40)\n      swap1\n      dup2\n      add\n      0x40\n      mstore\n      dup1\n      swap3\n      swap2\n      swap1\n      dup2\n      dup2\n      mstore\n      0x20\n      add\n      dup3\n      dup1\n      sload\n      tag_297\n      swap1\n      tag_236\n      jump\t// in\n    tag_297:\n      dup1\n      iszero\n      tag_298\n      jumpi\n      dup1\n      0x1f\n      lt\n      tag_299\n      jumpi\n      0x0100\n      dup1\n      dup4\n      sload\n      div\n      mul\n      dup4\n      mstore\n      swap2\n      0x20\n      add\n      swap2\n      jump(tag_298)\n    tag_299:\n      dup3\n      add\n      swap2\n      swap1\n      0x00\n      mstore\n      keccak256(0x00, 0x20)\n      swap1\n    tag_300:\n      dup2\n      sload\n      dup2\n      mstore\n      swap1\n      0x01\n      add\n      swap1\n      0x20\n      add\n      dup1\n      dup4\n      gt\n      tag_300\n      jumpi\n      dup3\n      swap1\n      sub\n      0x1f\n      and\n      dup3\n      add\n      swap2\n    tag_298:\n      pop\n      pop\n      pop\n      pop\n      pop\n      swap1\n      dup1\n      0x01\n      add\n      0x00\n      swap1\n      sload\n      swap1\n      0x0100\n      exp\n      swap1\n      div\n      0xffffffffffffffffffffffffffffffffffffffff\n      and\n      swap1\n      dup1\n      0x02\n      add\n      0x00\n      swap1\n      sload\n      swap1\n      0x0100\n      exp\n      swap1\n      div\n      0xffffffffffffffffffffffffffffffffffffffff\n      and\n      swap1\n      dup1\n      0x03\n      add\n      sload\n      swap1\n      dup1\n      0x04\n      add\n      sload\n      swap1\n      dup1\n      0x05\n      add\n      0x00\n      swap1\n      sload\n      swap1\n      0x0100\n      exp\n      swap1\n      div\n      0xff\n      and\n      swap1\n      dup1\n      0x07\n      add\n      mload(0x40)\n      dup1\n      0x20\n      add\n      0x40\n      mstore\n      swap1\n      dup2\n      0x00\n      dup3\n      add\n      sload\n      dup2\n      mstore\n      pop\n      pop\n      swap1\n      pop\n      dup8\n      jump\t// out\n        /* \"Fund.sol\":1266:1317  bool public immutable onlyManagersCanCreateARequest */\n    tag_121:\n      immutable(\"0x606503ebd6bdca7290248af82fd5a09ca0489398da9f242244210336ae6ece9f\")\n      dup2\n      jump\t// out\n        /* \"Fund.sol\":7561:7708  function getRequestApproval(uint256 _index, address _approver) public view returns (bool) {... */\n    tag_127:\n        /* \"Fund.sol\":7645:7649  bool */\n      0x00\n        /* \"Fund.sol\":7665:7673  requests */\n      0x07\n        /* \"Fund.sol\":7674:7680  _index */\n      dup4\n        /* \"Fund.sol\":7665:7681  requests[_index] */\n      dup2\n      sload\n      dup2\n      lt\n      tag_302\n      jumpi\n      tag_303\n      tag_198\n      jump\t// in\n    tag_303:\n    tag_302:\n      swap1\n      0x00\n      mstore\n      keccak256(0x00, 0x20)\n      swap1\n      0x08\n      mul\n      add\n        /* \"Fund.sol\":7665:7691  requests[_index].approvals */\n      0x06\n      add\n        /* \"Fund.sol\":7665:7702  requests[_index].approvals[_approver] */\n      0x00\n        /* \"Fund.sol\":7692:7701  _approver */\n      dup4\n        /* \"Fund.sol\":7665:7702  requests[_index].approvals[_approver] */\n      0xffffffffffffffffffffffffffffffffffffffff\n      and\n      0xffffffffffffffffffffffffffffffffffffffff\n      and\n      dup2\n      mstore\n      0x20\n      add\n      swap1\n      dup2\n      mstore\n      0x20\n      add\n      0x00\n      keccak256\n      0x00\n      swap1\n      sload\n      swap1\n      0x0100\n      exp\n      swap1\n      div\n      0xff\n      and\n        /* \"Fund.sol\":7658:7702  return requests[_index].approvals[_approver] */\n      swap1\n      pop\n        /* \"Fund.sol\":7561:7708  function getRequestApproval(uint256 _index, address _approver) public view returns (bool) {... */\n      swap3\n      swap2\n      pop\n      pop\n      jump\t// out\n        /* \"Fund.sol\":4793:4883  function getManagers() public view returns (address[] memory) {... */\n    tag_131:\n        /* \"Fund.sol\":4837:4853  address[] memory */\n      0x60\n        /* \"Fund.sol\":4869:4877  managers */\n      0x02\n        /* \"Fund.sol\":4862:4877  return managers */\n      dup1\n      sload\n      dup1\n      0x20\n      mul\n      0x20\n      add\n      mload(0x40)\n      swap1\n      dup2\n      add\n      0x40\n      mstore\n      dup1\n      swap3\n      swap2\n      swap1\n      dup2\n      dup2\n      mstore\n      0x20\n      add\n      dup3\n      dup1\n      sload\n      dup1\n      iszero\n      tag_306\n      jumpi\n      0x20\n      mul\n      dup3\n      add\n      swap2\n      swap1\n      0x00\n      mstore\n      keccak256(0x00, 0x20)\n      swap1\n    tag_307:\n      dup2\n      0x00\n      swap1\n      sload\n      swap1\n      0x0100\n      exp\n      swap1\n      div\n      0xffffffffffffffffffffffffffffffffffffffff\n      and\n      0xffffffffffffffffffffffffffffffffffffffff\n      and\n      dup2\n      mstore\n      0x20\n      add\n      swap1\n      0x01\n      add\n      swap1\n      dup1\n      dup4\n      gt\n      tag_307\n      jumpi\n    tag_306:\n      pop\n      pop\n      pop\n      pop\n      pop\n      swap1\n      pop\n        /* \"Fund.sol\":4793:4883  function getManagers() public view returns (address[] memory) {... */\n      swap1\n      jump\t// out\n        /* \"Fund.sol\":5360:5678  function transfer(address _to, uint256 _value) public {... */\n    tag_138:\n        /* \"Fund.sol\":5429:5468  managersCanTransferMoneyWithoutARequest */\n      immutable(\"0xe921da22f871c25c63f06c1365385cbb26397f64f79055cdbab32187a9377d16\")\n        /* \"Fund.sol\":5421:5522  require(managersCanTransferMoneyWithoutARequest, \"Managers can not transfer money without a request\") */\n      tag_309\n      jumpi\n      mload(0x40)\n      0x08c379a000000000000000000000000000000000000000000000000000000000\n      dup2\n      mstore\n      0x04\n      add\n      tag_310\n      swap1\n      tag_311\n      jump\t// in\n    tag_310:\n      mload(0x40)\n      dup1\n      swap2\n      sub\n      swap1\n      revert\n    tag_309:\n        /* \"Fund.sol\":5537:5546  isManager */\n      0x03\n        /* \"Fund.sol\":5537:5558  isManager[msg.sender] */\n      0x00\n        /* \"Fund.sol\":5547:5557  msg.sender */\n      caller\n        /* \"Fund.sol\":5537:5558  isManager[msg.sender] */\n      0xffffffffffffffffffffffffffffffffffffffff\n      and\n      0xffffffffffffffffffffffffffffffffffffffff\n      and\n      dup2\n      mstore\n      0x20\n      add\n      swap1\n      dup2\n      mstore\n      0x20\n      add\n      0x00\n      keccak256\n      0x00\n      swap1\n      sload\n      swap1\n      0x0100\n      exp\n      swap1\n      div\n      0xff\n      and\n        /* \"Fund.sol\":5529:5587  require(isManager[msg.sender], \"Only managers can access\") */\n      tag_312\n      jumpi\n      mload(0x40)\n      0x08c379a000000000000000000000000000000000000000000000000000000000\n      dup2\n      mstore\n      0x04\n      add\n      tag_313\n      swap1\n      tag_264\n      jump\t// in\n    tag_313:\n      mload(0x40)\n      dup1\n      swap2\n      sub\n      swap1\n      revert\n    tag_312:\n        /* \"Fund.sol\":5604:5607  _to */\n      dup2\n        /* \"Fund.sol\":5596:5617  payable(_to).transfer */\n      0xffffffffffffffffffffffffffffffffffffffff\n      and\n        /* \"Fund.sol\":5596:5625  payable(_to).transfer(_value) */\n      0x08fc\n        /* \"Fund.sol\":5618:5624  _value */\n      dup3\n        /* \"Fund.sol\":5596:5625  payable(_to).transfer(_value) */\n      swap1\n      dup2\n      iszero\n      mul\n      swap1\n      mload(0x40)\n      0x00\n      mload(0x40)\n      dup1\n      dup4\n      sub\n      dup2\n      dup6\n      dup9\n      dup9\n      call\n      swap4\n      pop\n      pop\n      pop\n      pop\n      iszero\n      dup1\n      iszero\n      tag_315\n      jumpi\n      returndatasize\n      0x00\n      dup1\n      returndatacopy\n      revert(0x00, returndatasize)\n    tag_315:\n      pop\n        /* \"Fund.sol\":5660:5663  _to */\n      dup2\n        /* \"Fund.sol\":5639:5672  Transfer(msg.sender, _to, _value) */\n      0xffffffffffffffffffffffffffffffffffffffff\n      and\n        /* \"Fund.sol\":5648:5658  msg.sender */\n      caller\n        /* \"Fund.sol\":5639:5672  Transfer(msg.sender, _to, _value) */\n      0xffffffffffffffffffffffffffffffffffffffff\n      and\n      0xddf252ad1be2c89b69c2b068fc378daa952ba7f163c4a11628f55a4df523b3ef\n        /* \"Fund.sol\":5665:5671  _value */\n      dup4\n        /* \"Fund.sol\":5639:5672  Transfer(msg.sender, _to, _value) */\n      mload(0x40)\n      tag_316\n      swap2\n      swap1\n      tag_75\n      jump\t// in\n    tag_316:\n      mload(0x40)\n      dup1\n      swap2\n      sub\n      swap1\n      log3\n        /* \"Fund.sol\":5360:5678  function transfer(address _to, uint256 _value) public {... */\n      pop\n      pop\n      jump\t// out\n        /* \"Fund.sol\":1219:1261  bool public immutable requestsCanBeCreated */\n    tag_141:\n      immutable(\"0x4569971f3d79dc8da7f8a6820be6cb8dc4a52bb0df6599b2aae7182111b63cd5\")\n      dup2\n      jump\t// out\n        /* \"Fund.sol\":5160:5258  function getContributors() public view returns (address[] memory) {... */\n    tag_145:\n        /* \"Fund.sol\":5208:5224  address[] memory */\n      0x60\n        /* \"Fund.sol\":5240:5252  contributors */\n      0x04\n        /* \"Fund.sol\":5233:5252  return contributors */\n      dup1\n      sload\n      dup1\n      0x20\n      mul\n      0x20\n      add\n      mload(0x40)\n      swap1\n      dup2\n      add\n      0x40\n      mstore\n      dup1\n      swap3\n      swap2\n      swap1\n      dup2\n      dup2\n      mstore\n      0x20\n      add\n      dup3\n      dup1\n      sload\n      dup1\n      iszero\n      tag_318\n      jumpi\n      0x20\n      mul\n      dup3\n      add\n      swap2\n      swap1\n      0x00\n      mstore\n      keccak256(0x00, 0x20)\n      swap1\n    tag_319:\n      dup2\n      0x00\n      swap1\n      sload\n      swap1\n      0x0100\n      exp\n      swap1\n      div\n      0xffffffffffffffffffffffffffffffffffffffff\n      and\n      0xffffffffffffffffffffffffffffffffffffffff\n      and\n      dup2\n      mstore\n      0x20\n      add\n      swap1\n      0x01\n      add\n      swap1\n      dup1\n      dup4\n      gt\n      tag_319\n      jumpi\n    tag_318:\n      pop\n      pop\n      pop\n      pop\n      pop\n      swap1\n      pop\n        /* \"Fund.sol\":5160:5258  function getContributors() public view returns (address[] memory) {... */\n      swap1\n      jump\t// out\n        /* \"Fund.sol\":5264:5354  function balance() public view returns (uint256) {... */\n    tag_149:\n        /* \"Fund.sol\":5304:5311  uint256 */\n      0x00\n        /* \"Fund.sol\":5327:5348  address(this).balance */\n      selfbalance\n        /* \"Fund.sol\":5320:5348  return address(this).balance */\n      swap1\n      pop\n        /* \"Fund.sol\":5264:5354  function balance() public view returns (uint256) {... */\n      swap1\n      jump\t// out\n        /* \"Fund.sol\":733:785  uint256 public immutable createdAt = block.timestamp */\n    tag_153:\n      immutable(\"0x5bc0457d8881b800fd1bc0d6df907345b3bf287e43a5790ded3d08dbacf9c03a\")\n      dup2\n      jump\t// out\n        /* \"Fund.sol\":4889:4962  function contribute() public payable {... */\n    tag_156:\n        /* \"Fund.sol\":4933:4956  _contribute(msg.sender) */\n      tag_322\n        /* \"Fund.sol\":4945:4955  msg.sender */\n      caller\n        /* \"Fund.sol\":4933:4944  _contribute */\n      tag_243\n        /* \"Fund.sol\":4933:4956  _contribute(msg.sender) */\n      jump\t// in\n    tag_322:\n        /* \"Fund.sol\":4889:4962  function contribute() public payable {... */\n      jump\t// out\n        /* \"Fund.sol\":6624:7555  function approveRequest(uint256 _index) public {... */\n    tag_160:\n        /* \"Fund.sol\":6678:6701  Request storage request */\n      0x00\n        /* \"Fund.sol\":6704:6712  requests */\n      0x07\n        /* \"Fund.sol\":6713:6719  _index */\n      dup3\n        /* \"Fund.sol\":6704:6720  requests[_index] */\n      dup2\n      sload\n      dup2\n      lt\n      tag_324\n      jumpi\n      tag_325\n      tag_198\n      jump\t// in\n    tag_325:\n    tag_324:\n      swap1\n      0x00\n      mstore\n      keccak256(0x00, 0x20)\n      swap1\n      0x08\n      mul\n      add\n        /* \"Fund.sol\":6678:6720  Request storage request = requests[_index] */\n      swap1\n      pop\n        /* \"Fund.sol\":6738:6745  request */\n      dup1\n        /* \"Fund.sol\":6738:6754  request.complete */\n      0x05\n      add\n      0x00\n      swap1\n      sload\n      swap1\n      0x0100\n      exp\n      swap1\n      div\n      0xff\n      and\n        /* \"Fund.sol\":6737:6754  !request.complete */\n      iszero\n        /* \"Fund.sol\":6729:6797  require(!request.complete, \"The request has already been completed\") */\n      tag_327\n      jumpi\n      mload(0x40)\n      0x08c379a000000000000000000000000000000000000000000000000000000000\n      dup2\n      mstore\n      0x04\n      add\n      tag_328\n      swap1\n      tag_205\n      jump\t// in\n    tag_328:\n      mload(0x40)\n      dup1\n      swap2\n      sub\n      swap1\n      revert\n    tag_327:\n        /* \"Fund.sol\":6813:6820  request */\n      dup1\n        /* \"Fund.sol\":6813:6830  request.approvals */\n      0x06\n      add\n        /* \"Fund.sol\":6813:6842  request.approvals[msg.sender] */\n      0x00\n        /* \"Fund.sol\":6831:6841  msg.sender */\n      caller\n        /* \"Fund.sol\":6813:6842  request.approvals[msg.sender] */\n      0xffffffffffffffffffffffffffffffffffffffff\n      and\n      0xffffffffffffffffffffffffffffffffffffffff\n      and\n      dup2\n      mstore\n      0x20\n      add\n      swap1\n      dup2\n      mstore\n      0x20\n      add\n      0x00\n      keccak256\n      0x00\n      swap1\n      sload\n      swap1\n      0x0100\n      exp\n      swap1\n      div\n      0xff\n      and\n        /* \"Fund.sol\":6812:6842  !request.approvals[msg.sender] */\n      iszero\n        /* \"Fund.sol\":6804:6885  require(!request.approvals[msg.sender], \"You have already approved this request\") */\n      tag_329\n      jumpi\n      mload(0x40)\n      0x08c379a000000000000000000000000000000000000000000000000000000000\n      dup2\n      mstore\n      0x04\n      add\n      tag_330\n      swap1\n      tag_331\n      jump\t// in\n    tag_330:\n      mload(0x40)\n      dup1\n      swap2\n      sub\n      swap1\n      revert\n    tag_329:\n        /* \"Fund.sol\":6892:6938  uint256 _minimumContributionPercentageRequired */\n      0x00\n        /* \"Fund.sol\":6941:6978  minimumContributionPercentageRequired */\n      immutable(\"0xdb37925934a3d3177db64e11f5e0156ceb8a756fee58ded16e549afa607ddb1d\")\n        /* \"Fund.sol\":6892:6978  uint256 _minimumContributionPercentageRequired = minimumContributionPercentageRequired */\n      swap1\n      pop\n        /* \"Fund.sol\":6985:7012  uint256 _totalContributions */\n      0x00\n        /* \"Fund.sol\":7015:7033  totalContributions */\n      sload(0x06)\n        /* \"Fund.sol\":6985:7033  uint256 _totalContributions = totalContributions */\n      swap1\n      pop\n        /* \"Fund.sol\":7058:7092  onlyContributorsCanApproveARequest */\n      immutable(\"0xeafa31dc210956fc0884ec5660eba9405197797219cbbda41b6aaf7118c651d8\")\n        /* \"Fund.sol\":7057:7092  !onlyContributorsCanApproveARequest */\n      iszero\n        /* \"Fund.sol\":7057:7117  !onlyContributorsCanApproveARequest && isManager[msg.sender] */\n      dup1\n      iszero\n      tag_332\n      jumpi\n      pop\n        /* \"Fund.sol\":7096:7105  isManager */\n      0x03\n        /* \"Fund.sol\":7096:7117  isManager[msg.sender] */\n      0x00\n        /* \"Fund.sol\":7106:7116  msg.sender */\n      caller\n        /* \"Fund.sol\":7096:7117  isManager[msg.sender] */\n      0xffffffffffffffffffffffffffffffffffffffff\n      and\n      0xffffffffffffffffffffffffffffffffffffffff\n      and\n      dup2\n      mstore\n      0x20\n      add\n      swap1\n      dup2\n      mstore\n      0x20\n      add\n      0x00\n      keccak256\n      0x00\n      swap1\n      sload\n      swap1\n      0x0100\n      exp\n      swap1\n      div\n      0xff\n      and\n        /* \"Fund.sol\":7057:7117  !onlyContributorsCanApproveARequest && isManager[msg.sender] */\n    tag_332:\n        /* \"Fund.sol\":7056:7174  (!onlyContributorsCanApproveARequest && isManager[msg.sender]) ||... */\n      dup1\n      tag_333\n      jumpi\n      pop\n        /* \"Fund.sol\":7173:7174  0 */\n      0x00\n        /* \"Fund.sol\":7131:7169  _minimumContributionPercentageRequired */\n      dup3\n        /* \"Fund.sol\":7131:7174  _minimumContributionPercentageRequired == 0 */\n      eq\n        /* \"Fund.sol\":7056:7174  (!onlyContributorsCanApproveARequest && isManager[msg.sender]) ||... */\n    tag_333:\n        /* \"Fund.sol\":7056:7324  (!onlyContributorsCanApproveARequest && isManager[msg.sender]) ||... */\n      dup1\n      tag_334\n      jumpi\n      pop\n        /* \"Fund.sol\":7210:7211  0 */\n      0x00\n        /* \"Fund.sol\":7188:7207  _totalContributions */\n      dup2\n        /* \"Fund.sol\":7188:7211  _totalContributions > 0 */\n      gt\n        /* \"Fund.sol\":7188:7323  _totalContributions > 0 &&... */\n      dup1\n      iszero\n      tag_335\n      jumpi\n      pop\n        /* \"Fund.sol\":7285:7323  _minimumContributionPercentageRequired */\n      dup2\n        /* \"Fund.sol\":7262:7281  _totalContributions */\n      dup2\n        /* \"Fund.sol\":7255:7258  100 */\n      0x64\n        /* \"Fund.sol\":7227:7240  contributions */\n      0x05\n        /* \"Fund.sol\":7227:7252  contributions[msg.sender] */\n      0x00\n        /* \"Fund.sol\":7241:7251  msg.sender */\n      caller\n        /* \"Fund.sol\":7227:7252  contributions[msg.sender] */\n      0xffffffffffffffffffffffffffffffffffffffff\n      and\n      0xffffffffffffffffffffffffffffffffffffffff\n      and\n      dup2\n      mstore\n      0x20\n      add\n      swap1\n      dup2\n      mstore\n      0x20\n      add\n      0x00\n      keccak256\n      sload\n        /* \"Fund.sol\":7227:7258  contributions[msg.sender] * 100 */\n      tag_336\n      swap2\n      swap1\n      tag_223\n      jump\t// in\n    tag_336:\n        /* \"Fund.sol\":7226:7281  (contributions[msg.sender] * 100) / _totalContributions */\n      tag_337\n      swap2\n      swap1\n      tag_225\n      jump\t// in\n    tag_337:\n        /* \"Fund.sol\":7226:7323  (contributions[msg.sender] * 100) / _totalContributions >= _minimumContributionPercentageRequired */\n      lt\n      iszero\n        /* \"Fund.sol\":7188:7323  _totalContributions > 0 &&... */\n    tag_335:\n        /* \"Fund.sol\":7056:7324  (!onlyContributorsCanApproveARequest && isManager[msg.sender]) ||... */\n    tag_334:\n        /* \"Fund.sol\":7040:7415  require(... */\n      tag_338\n      jumpi\n      mload(0x40)\n      0x08c379a000000000000000000000000000000000000000000000000000000000\n      dup2\n      mstore\n      0x04\n      add\n      tag_339\n      swap1\n      tag_340\n      jump\t// in\n    tag_339:\n      mload(0x40)\n      dup1\n      swap2\n      sub\n      swap1\n      revert\n    tag_338:\n        /* \"Fund.sol\":7456:7460  true */\n      0x01\n        /* \"Fund.sol\":7424:7431  request */\n      dup4\n        /* \"Fund.sol\":7424:7441  request.approvals */\n      0x06\n      add\n        /* \"Fund.sol\":7424:7453  request.approvals[msg.sender] */\n      0x00\n        /* \"Fund.sol\":7442:7452  msg.sender */\n      caller\n        /* \"Fund.sol\":7424:7453  request.approvals[msg.sender] */\n      0xffffffffffffffffffffffffffffffffffffffff\n      and\n      0xffffffffffffffffffffffffffffffffffffffff\n      and\n      dup2\n      mstore\n      0x20\n      add\n      swap1\n      dup2\n      mstore\n      0x20\n      add\n      0x00\n      keccak256\n      0x00\n        /* \"Fund.sol\":7424:7460  request.approvals[msg.sender] = true */\n      0x0100\n      exp\n      dup2\n      sload\n      dup2\n      0xff\n      mul\n      not\n      and\n      swap1\n      dup4\n      iszero\n      iszero\n      mul\n      or\n      swap1\n      sstore\n      pop\n        /* \"Fund.sol\":7467:7501  request.approvalsCount.increment() */\n      tag_341\n        /* \"Fund.sol\":7467:7474  request */\n      dup4\n        /* \"Fund.sol\":7467:7489  request.approvalsCount */\n      0x07\n      add\n        /* \"Fund.sol\":7467:7499  request.approvalsCount.increment */\n      tag_342\n        /* \"Fund.sol\":7467:7501  request.approvalsCount.increment() */\n      jump\t// in\n    tag_341:\n        /* \"Fund.sol\":7538:7548  msg.sender */\n      caller\n        /* \"Fund.sol\":7515:7549  ApproveRequest(_index, msg.sender) */\n      0xffffffffffffffffffffffffffffffffffffffff\n      and\n        /* \"Fund.sol\":7530:7536  _index */\n      dup5\n        /* \"Fund.sol\":7515:7549  ApproveRequest(_index, msg.sender) */\n      0x893b9e35d011bbe15567d0f899b775d6e02d49f62378315a6d25759d3bb1dbcc\n      mload(0x40)\n      mload(0x40)\n      dup1\n      swap2\n      sub\n      swap1\n      log3\n        /* \"Fund.sol\":6671:7555  {... */\n      pop\n      pop\n      pop\n        /* \"Fund.sol\":6624:7555  function approveRequest(uint256 _index) public {... */\n      pop\n      jump\t// out\n        /* \"Fund.sol\":4000:4691  function removeManager(uint256 _index) public {... */\n    tag_164:\n        /* \"Fund.sol\":4061:4088  managersCanBeAddedOrRemoved */\n      immutable(\"0xc47ece0ffae697632ce145a7086cbcf260f7fa60876ff2606761ea2b7581ee76\")\n        /* \"Fund.sol\":4053:4120  require(managersCanBeAddedOrRemoved, \"Managers can not be removed\") */\n      tag_344\n      jumpi\n      mload(0x40)\n      0x08c379a000000000000000000000000000000000000000000000000000000000\n      dup2\n      mstore\n      0x04\n      add\n      tag_345\n      swap1\n      tag_346\n      jump\t// in\n    tag_345:\n      mload(0x40)\n      dup1\n      swap2\n      sub\n      swap1\n      revert\n    tag_344:\n        /* \"Fund.sol\":4135:4144  isManager */\n      0x03\n        /* \"Fund.sol\":4135:4156  isManager[msg.sender] */\n      0x00\n        /* \"Fund.sol\":4145:4155  msg.sender */\n      caller\n        /* \"Fund.sol\":4135:4156  isManager[msg.sender] */\n      0xffffffffffffffffffffffffffffffffffffffff\n      and\n      0xffffffffffffffffffffffffffffffffffffffff\n      and\n      dup2\n      mstore\n      0x20\n      add\n      swap1\n      dup2\n      mstore\n      0x20\n      add\n      0x00\n      keccak256\n      0x00\n      swap1\n      sload\n      swap1\n      0x0100\n      exp\n      swap1\n      div\n      0xff\n      and\n        /* \"Fund.sol\":4127:4185  require(isManager[msg.sender], \"Only managers can access\") */\n      tag_347\n      jumpi\n      mload(0x40)\n      0x08c379a000000000000000000000000000000000000000000000000000000000\n      dup2\n      mstore\n      0x04\n      add\n      tag_348\n      swap1\n      tag_264\n      jump\t// in\n    tag_348:\n      mload(0x40)\n      dup1\n      swap2\n      sub\n      swap1\n      revert\n    tag_347:\n        /* \"Fund.sol\":4192:4214  uint256 _managersCount */\n      0x00\n        /* \"Fund.sol\":4217:4232  managersCount() */\n      tag_349\n        /* \"Fund.sol\":4217:4230  managersCount */\n      tag_98\n        /* \"Fund.sol\":4217:4232  managersCount() */\n      jump\t// in\n    tag_349:\n        /* \"Fund.sol\":4192:4232  uint256 _managersCount = managersCount() */\n      swap1\n      pop\n        /* \"Fund.sol\":4272:4273  1 */\n      0x01\n        /* \"Fund.sol\":4255:4269  _managersCount */\n      dup2\n        /* \"Fund.sol\":4255:4273  _managersCount > 1 */\n      gt\n        /* \"Fund.sol\":4255:4333  _managersCount > 1 || (requestsCanBeCreated && !onlyManagersCanCreateARequest) */\n      dup1\n      tag_350\n      jumpi\n      pop\n        /* \"Fund.sol\":4278:4298  requestsCanBeCreated */\n      immutable(\"0x4569971f3d79dc8da7f8a6820be6cb8dc4a52bb0df6599b2aae7182111b63cd5\")\n        /* \"Fund.sol\":4278:4332  requestsCanBeCreated && !onlyManagersCanCreateARequest */\n      dup1\n      iszero\n      tag_351\n      jumpi\n      pop\n        /* \"Fund.sol\":4303:4332  onlyManagersCanCreateARequest */\n      immutable(\"0x606503ebd6bdca7290248af82fd5a09ca0489398da9f242244210336ae6ece9f\")\n        /* \"Fund.sol\":4302:4332  !onlyManagersCanCreateARequest */\n      iszero\n        /* \"Fund.sol\":4278:4332  requestsCanBeCreated && !onlyManagersCanCreateARequest */\n    tag_351:\n        /* \"Fund.sol\":4255:4333  _managersCount > 1 || (requestsCanBeCreated && !onlyManagersCanCreateARequest) */\n    tag_350:\n        /* \"Fund.sol\":4239:4412  require(... */\n      tag_352\n      jumpi\n      mload(0x40)\n      0x08c379a000000000000000000000000000000000000000000000000000000000\n      dup2\n      mstore\n      0x04\n      add\n      tag_353\n      swap1\n      tag_354\n      jump\t// in\n    tag_353:\n      mload(0x40)\n      dup1\n      swap2\n      sub\n      swap1\n      revert\n    tag_352:\n        /* \"Fund.sol\":4421:4437  address _manager */\n      0x00\n        /* \"Fund.sol\":4440:4448  managers */\n      0x02\n        /* \"Fund.sol\":4449:4455  _index */\n      dup4\n        /* \"Fund.sol\":4440:4456  managers[_index] */\n      dup2\n      sload\n      dup2\n      lt\n      tag_355\n      jumpi\n      tag_356\n      tag_198\n      jump\t// in\n    tag_356:\n    tag_355:\n      swap1\n      0x00\n      mstore\n      keccak256(0x00, 0x20)\n      add\n      0x00\n      swap1\n      sload\n      swap1\n      0x0100\n      exp\n      swap1\n      div\n      0xffffffffffffffffffffffffffffffffffffffff\n      and\n        /* \"Fund.sol\":4421:4456  address _manager = managers[_index] */\n      swap1\n      pop\n        /* \"Fund.sol\":4472:4481  isManager */\n      0x03\n        /* \"Fund.sol\":4472:4491  isManager[_manager] */\n      0x00\n        /* \"Fund.sol\":4482:4490  _manager */\n      dup3\n        /* \"Fund.sol\":4472:4491  isManager[_manager] */\n      0xffffffffffffffffffffffffffffffffffffffff\n      and\n      0xffffffffffffffffffffffffffffffffffffffff\n      and\n      dup2\n      mstore\n      0x20\n      add\n      swap1\n      dup2\n      mstore\n      0x20\n      add\n      0x00\n      keccak256\n      0x00\n        /* \"Fund.sol\":4465:4491  delete isManager[_manager] */\n      0x0100\n      exp\n      dup2\n      sload\n      swap1\n      0xff\n      mul\n      not\n      and\n      swap1\n      sstore\n        /* \"Fund.sol\":4522:4531  uint256 i */\n      0x00\n        /* \"Fund.sol\":4534:4540  _index */\n      dup4\n        /* \"Fund.sol\":4522:4540  uint256 i = _index */\n      swap1\n      pop\n        /* \"Fund.sol\":4517:4621  for (uint256 i = _index; i < _managersCount - 1; i++) {... */\n    tag_358:\n        /* \"Fund.sol\":4563:4564  1 */\n      0x01\n        /* \"Fund.sol\":4546:4560  _managersCount */\n      dup4\n        /* \"Fund.sol\":4546:4564  _managersCount - 1 */\n      sub\n        /* \"Fund.sol\":4542:4543  i */\n      dup2\n        /* \"Fund.sol\":4542:4564  i < _managersCount - 1 */\n      lt\n        /* \"Fund.sol\":4517:4621  for (uint256 i = _index; i < _managersCount - 1; i++) {... */\n      iszero\n      tag_359\n      jumpi\n        /* \"Fund.sol\":4596:4604  managers */\n      0x02\n        /* \"Fund.sol\":4609:4610  1 */\n      0x01\n        /* \"Fund.sol\":4605:4606  i */\n      dup3\n        /* \"Fund.sol\":4605:4610  i + 1 */\n      add\n        /* \"Fund.sol\":4596:4611  managers[i + 1] */\n      dup2\n      sload\n      dup2\n      lt\n      tag_361\n      jumpi\n      tag_362\n      tag_198\n      jump\t// in\n    tag_362:\n    tag_361:\n      swap1\n      0x00\n      mstore\n      keccak256(0x00, 0x20)\n      add\n      0x00\n      swap1\n      sload\n      swap1\n      0x0100\n      exp\n      swap1\n      div\n      0xffffffffffffffffffffffffffffffffffffffff\n      and\n        /* \"Fund.sol\":4582:4590  managers */\n      0x02\n        /* \"Fund.sol\":4591:4592  i */\n      dup3\n        /* \"Fund.sol\":4582:4593  managers[i] */\n      dup2\n      sload\n      dup2\n      lt\n      tag_364\n      jumpi\n      tag_365\n      tag_198\n      jump\t// in\n    tag_365:\n    tag_364:\n      swap1\n      0x00\n      mstore\n      keccak256(0x00, 0x20)\n      add\n      0x00\n        /* \"Fund.sol\":4582:4611  managers[i] = managers[i + 1] */\n      0x0100\n      exp\n      dup2\n      sload\n      dup2\n      0xffffffffffffffffffffffffffffffffffffffff\n      mul\n      not\n      and\n      swap1\n      dup4\n      0xffffffffffffffffffffffffffffffffffffffff\n      and\n      mul\n      or\n      swap1\n      sstore\n      pop\n        /* \"Fund.sol\":4566:4569  i++ */\n      dup1\n      dup1\n      0x01\n      add\n      swap2\n      pop\n      pop\n        /* \"Fund.sol\":4517:4621  for (uint256 i = _index; i < _managersCount - 1; i++) {... */\n      jump(tag_358)\n    tag_359:\n      pop\n        /* \"Fund.sol\":4634:4642  managers */\n      0x02\n        /* \"Fund.sol\":4634:4648  managers.pop() */\n      dup1\n      sload\n      dup1\n      tag_367\n      jumpi\n      tag_368\n      tag_369\n      jump\t// in\n    tag_368:\n    tag_367:\n      0x01\n      swap1\n      sub\n      dup2\n      dup2\n      swap1\n      0x00\n      mstore\n      keccak256(0x00, 0x20)\n      add\n      exp(0x0100, 0x00)\n      dup2\n      sload\n      swap1\n      0xffffffffffffffffffffffffffffffffffffffff\n      mul\n      not\n      and\n      swap1\n      sstore\n      swap1\n      sstore\n        /* \"Fund.sol\":4676:4684  _manager */\n      dup1\n        /* \"Fund.sol\":4662:4685  RemoveManager(_manager) */\n      0xffffffffffffffffffffffffffffffffffffffff\n      and\n      0x1e25ed4cabec84d314dc176241019653f237da01f2bdd3a10cb0f38b33da6763\n      mload(0x40)\n      mload(0x40)\n      dup1\n      swap2\n      sub\n      swap1\n      log2\n        /* \"Fund.sol\":4046:4691  {... */\n      pop\n      pop\n        /* \"Fund.sol\":4000:4691  function removeManager(uint256 _index) public {... */\n      pop\n      jump\t// out\n        /* \"Fund.sol\":1450:1509  uint256 public immutable minimumApprovalsPercentageRequired */\n    tag_167:\n      immutable(\"0x2cc0d3dcb20652cd8f106aee76b6a7391771a130885634c0eb2bbe3cde796691\")\n      dup2\n      jump\t// out\n        /* \"Fund.sol\":9210:10356  function getExtraSummary()... */\n    tag_171:\n        /* \"Fund.sol\":9281:9307  address[] memory _managers */\n      0x60\n        /* \"Fund.sol\":9316:9349  bool _managersCanBeAddedOrRemoved */\n      0x00\n        /* \"Fund.sol\":9358:9388  address[] memory _contributors */\n      0x60\n        /* \"Fund.sol\":9397:9424  uint256 _totalContributions */\n      0x00\n        /* \"Fund.sol\":9433:9478  bool _managersCanTransferMoneyWithoutARequest */\n      dup1\n        /* \"Fund.sol\":9487:9513  bool _requestsCanBeCreated */\n      0x00\n        /* \"Fund.sol\":9522:9557  bool _onlyManagersCanCreateARequest */\n      dup1\n        /* \"Fund.sol\":9566:9606  bool _onlyContributorsCanApproveARequest */\n      0x00\n        /* \"Fund.sol\":9615:9661  uint256 _minimumContributionPercentageRequired */\n      dup1\n        /* \"Fund.sol\":9670:9713  uint256 _minimumApprovalsPercentageRequired */\n      0x00\n        /* \"Fund.sol\":9743:9751  managers */\n      0x02\n        /* \"Fund.sol\":9731:9751  _managers = managers */\n      dup1\n      sload\n      dup1\n      0x20\n      mul\n      0x20\n      add\n      mload(0x40)\n      swap1\n      dup2\n      add\n      0x40\n      mstore\n      dup1\n      swap3\n      swap2\n      swap1\n      dup2\n      dup2\n      mstore\n      0x20\n      add\n      dup3\n      dup1\n      sload\n      dup1\n      iszero\n      tag_372\n      jumpi\n      0x20\n      mul\n      dup3\n      add\n      swap2\n      swap1\n      0x00\n      mstore\n      keccak256(0x00, 0x20)\n      swap1\n    tag_373:\n      dup2\n      0x00\n      swap1\n      sload\n      swap1\n      0x0100\n      exp\n      swap1\n      div\n      0xffffffffffffffffffffffffffffffffffffffff\n      and\n      0xffffffffffffffffffffffffffffffffffffffff\n      and\n      dup2\n      mstore\n      0x20\n      add\n      swap1\n      0x01\n      add\n      swap1\n      dup1\n      dup4\n      gt\n      tag_373\n      jumpi\n    tag_372:\n      pop\n      pop\n      pop\n      pop\n      pop\n      swap10\n      pop\n        /* \"Fund.sol\":9789:9816  managersCanBeAddedOrRemoved */\n      immutable(\"0xc47ece0ffae697632ce145a7086cbcf260f7fa60876ff2606761ea2b7581ee76\")\n        /* \"Fund.sol\":9758:9816  _managersCanBeAddedOrRemoved = managersCanBeAddedOrRemoved */\n      swap9\n      pop\n        /* \"Fund.sol\":9839:9851  contributors */\n      0x04\n        /* \"Fund.sol\":9823:9851  _contributors = contributors */\n      dup1\n      sload\n      dup1\n      0x20\n      mul\n      0x20\n      add\n      mload(0x40)\n      swap1\n      dup2\n      add\n      0x40\n      mstore\n      dup1\n      swap3\n      swap2\n      swap1\n      dup2\n      dup2\n      mstore\n      0x20\n      add\n      dup3\n      dup1\n      sload\n      dup1\n      iszero\n      tag_374\n      jumpi\n      0x20\n      mul\n      dup3\n      add\n      swap2\n      swap1\n      0x00\n      mstore\n      keccak256(0x00, 0x20)\n      swap1\n    tag_375:\n      dup2\n      0x00\n      swap1\n      sload\n      swap1\n      0x0100\n      exp\n      swap1\n      div\n      0xffffffffffffffffffffffffffffffffffffffff\n      and\n      0xffffffffffffffffffffffffffffffffffffffff\n      and\n      dup2\n      mstore\n      0x20\n      add\n      swap1\n      0x01\n      add\n      swap1\n      dup1\n      dup4\n      gt\n      tag_375\n      jumpi\n    tag_374:\n      pop\n      pop\n      pop\n      pop\n      pop\n      swap8\n      pop\n        /* \"Fund.sol\":9880:9898  totalContributions */\n      sload(0x06)\n        /* \"Fund.sol\":9858:9898  _totalContributions = totalContributions */\n      swap7\n      pop\n        /* \"Fund.sol\":9948:9987  managersCanTransferMoneyWithoutARequest */\n      immutable(\"0xe921da22f871c25c63f06c1365385cbb26397f64f79055cdbab32187a9377d16\")\n        /* \"Fund.sol\":9905:9987  _managersCanTransferMoneyWithoutARequest = managersCanTransferMoneyWithoutARequest */\n      swap6\n      pop\n        /* \"Fund.sol\":10018:10038  requestsCanBeCreated */\n      immutable(\"0x4569971f3d79dc8da7f8a6820be6cb8dc4a52bb0df6599b2aae7182111b63cd5\")\n        /* \"Fund.sol\":9994:10038  _requestsCanBeCreated = requestsCanBeCreated */\n      swap5\n      pop\n        /* \"Fund.sol\":10078:10107  onlyManagersCanCreateARequest */\n      immutable(\"0x606503ebd6bdca7290248af82fd5a09ca0489398da9f242244210336ae6ece9f\")\n        /* \"Fund.sol\":10045:10107  _onlyManagersCanCreateARequest = onlyManagersCanCreateARequest */\n      swap4\n      pop\n        /* \"Fund.sol\":10152:10186  onlyContributorsCanApproveARequest */\n      immutable(\"0xeafa31dc210956fc0884ec5660eba9405197797219cbbda41b6aaf7118c651d8\")\n        /* \"Fund.sol\":10114:10186  _onlyContributorsCanApproveARequest = onlyContributorsCanApproveARequest */\n      swap3\n      pop\n        /* \"Fund.sol\":10234:10271  minimumContributionPercentageRequired */\n      immutable(\"0xdb37925934a3d3177db64e11f5e0156ceb8a756fee58ded16e549afa607ddb1d\")\n        /* \"Fund.sol\":10193:10271  _minimumContributionPercentageRequired = minimumContributionPercentageRequired */\n      swap2\n      pop\n        /* \"Fund.sol\":10316:10350  minimumApprovalsPercentageRequired */\n      immutable(\"0x2cc0d3dcb20652cd8f106aee76b6a7391771a130885634c0eb2bbe3cde796691\")\n        /* \"Fund.sol\":10278:10350  _minimumApprovalsPercentageRequired = minimumApprovalsPercentageRequired */\n      swap1\n      pop\n        /* \"Fund.sol\":9210:10356  function getExtraSummary()... */\n      swap1\n      swap2\n      swap3\n      swap4\n      swap5\n      swap6\n      swap7\n      swap8\n      swap9\n      swap10\n      jump\t// out\n        /* \"Fund.sol\":1322:1378  bool public immutable onlyContributorsCanApproveARequest */\n    tag_176:\n      immutable(\"0xeafa31dc210956fc0884ec5660eba9405197797219cbbda41b6aaf7118c651d8\")\n      dup2\n      jump\t// out\n        /* \"Fund.sol\":844:885  mapping(address => bool) public isManager */\n    tag_181:\n      mstore(0x20, 0x03)\n      dup1\n      0x00\n      mstore\n      keccak256(0x00, 0x40)\n      0x00\n      swap2\n      pop\n      sload\n      swap1\n      0x0100\n      exp\n      swap1\n      div\n      0xff\n      and\n      dup2\n      jump\t// out\n        /* \"Fund.sol\":890:939  bool public immutable managersCanBeAddedOrRemoved */\n    tag_185:\n      immutable(\"0xc47ece0ffae697632ce145a7086cbcf260f7fa60876ff2606761ea2b7581ee76\")\n      dup2\n      jump\t// out\n        /* \"Fund.sol\":6428:6518  function requestsCount() public view returns (uint256) {... */\n    tag_189:\n        /* \"Fund.sol\":6474:6481  uint256 */\n      0x00\n        /* \"Fund.sol\":6497:6505  requests */\n      0x07\n        /* \"Fund.sol\":6497:6512  requests.length */\n      dup1\n      sload\n      swap1\n      pop\n        /* \"Fund.sol\":6490:6512  return requests.length */\n      swap1\n      pop\n        /* \"Fund.sol\":6428:6518  function requestsCount() public view returns (uint256) {... */\n      swap1\n      jump\t// out\n        /* \"@openzeppelin/contracts/utils/Counters.sol\":827:939   */\n    tag_221:\n        /* \"@openzeppelin/contracts/utils/Counters.sol\":892:899   */\n      0x00\n        /* \"@openzeppelin/contracts/utils/Counters.sol\":918:925   */\n      dup2\n        /* \"@openzeppelin/contracts/utils/Counters.sol\":918:932   */\n      0x00\n      add\n      sload\n        /* \"@openzeppelin/contracts/utils/Counters.sol\":911:932   */\n      swap1\n      pop\n        /* \"@openzeppelin/contracts/utils/Counters.sol\":827:939   */\n      swap2\n      swap1\n      pop\n      jump\t// out\n        /* \"Fund.sol\":10388:10748  function _contribute(address _contributor) private {... */\n    tag_243:\n        /* \"Fund.sol\":10466:10467  0 */\n      0x00\n        /* \"Fund.sol\":10454:10463  msg.value */\n      callvalue\n        /* \"Fund.sol\":10454:10467  msg.value > 0 */\n      gt\n        /* \"Fund.sol\":10446:10514  require(msg.value > 0, \"The contribution must be greater than zero\") */\n      tag_379\n      jumpi\n      mload(0x40)\n      0x08c379a000000000000000000000000000000000000000000000000000000000\n      dup2\n      mstore\n      0x04\n      add\n      tag_380\n      swap1\n      tag_381\n      jump\t// in\n    tag_380:\n      mload(0x40)\n      dup1\n      swap2\n      sub\n      swap1\n      revert\n    tag_379:\n        /* \"Fund.sol\":10558:10559  0 */\n      0x00\n        /* \"Fund.sol\":10527:10540  contributions */\n      0x05\n        /* \"Fund.sol\":10527:10554  contributions[_contributor] */\n      0x00\n        /* \"Fund.sol\":10541:10553  _contributor */\n      dup4\n        /* \"Fund.sol\":10527:10554  contributions[_contributor] */\n      0xffffffffffffffffffffffffffffffffffffffff\n      and\n      0xffffffffffffffffffffffffffffffffffffffff\n      and\n      dup2\n      mstore\n      0x20\n      add\n      swap1\n      dup2\n      mstore\n      0x20\n      add\n      0x00\n      keccak256\n      sload\n        /* \"Fund.sol\":10527:10559  contributions[_contributor] == 0 */\n      sub\n        /* \"Fund.sol\":10523:10609  if (contributions[_contributor] == 0) {... */\n      tag_382\n      jumpi\n        /* \"Fund.sol\":10570:10582  contributors */\n      0x04\n        /* \"Fund.sol\":10588:10600  _contributor */\n      dup2\n        /* \"Fund.sol\":10570:10601  contributors.push(_contributor) */\n      swap1\n      dup1\n      0x01\n      dup2\n      sload\n      add\n      dup1\n      dup3\n      sstore\n      dup1\n      swap2\n      pop\n      pop\n      0x01\n      swap1\n      sub\n      swap1\n      0x00\n      mstore\n      keccak256(0x00, 0x20)\n      add\n      0x00\n      swap1\n      swap2\n      swap1\n      swap2\n      swap1\n      swap2\n      0x0100\n      exp\n      dup2\n      sload\n      dup2\n      0xffffffffffffffffffffffffffffffffffffffff\n      mul\n      not\n      and\n      swap1\n      dup4\n      0xffffffffffffffffffffffffffffffffffffffff\n      and\n      mul\n      or\n      swap1\n      sstore\n      pop\n        /* \"Fund.sol\":10523:10609  if (contributions[_contributor] == 0) {... */\n    tag_382:\n        /* \"Fund.sol\":10646:10655  msg.value */\n      callvalue\n        /* \"Fund.sol\":10615:10628  contributions */\n      0x05\n        /* \"Fund.sol\":10615:10642  contributions[_contributor] */\n      0x00\n        /* \"Fund.sol\":10629:10641  _contributor */\n      dup4\n        /* \"Fund.sol\":10615:10642  contributions[_contributor] */\n      0xffffffffffffffffffffffffffffffffffffffff\n      and\n      0xffffffffffffffffffffffffffffffffffffffff\n      and\n      dup2\n      mstore\n      0x20\n      add\n      swap1\n      dup2\n      mstore\n      0x20\n      add\n      0x00\n      keccak256\n      0x00\n        /* \"Fund.sol\":10615:10655  contributions[_contributor] += msg.value */\n      dup3\n      dup3\n      sload\n      tag_384\n      swap2\n      swap1\n      tag_385\n      jump\t// in\n    tag_384:\n      swap3\n      pop\n      pop\n      dup2\n      swap1\n      sstore\n      pop\n        /* \"Fund.sol\":10684:10693  msg.value */\n      callvalue\n        /* \"Fund.sol\":10662:10680  totalContributions */\n      0x06\n      0x00\n        /* \"Fund.sol\":10662:10693  totalContributions += msg.value */\n      dup3\n      dup3\n      sload\n      tag_386\n      swap2\n      swap1\n      tag_385\n      jump\t// in\n    tag_386:\n      swap3\n      pop\n      pop\n      dup2\n      swap1\n      sstore\n      pop\n        /* \"Fund.sol\":10718:10730  _contributor */\n      dup1\n        /* \"Fund.sol\":10707:10742  Contribute(_contributor, msg.value) */\n      0xffffffffffffffffffffffffffffffffffffffff\n      and\n      0x906faaf913a60f38b5e8f2d6f5b163239bac2d994fa1a5d21751a51587a94057\n        /* \"Fund.sol\":10732:10741  msg.value */\n      callvalue\n        /* \"Fund.sol\":10707:10742  Contribute(_contributor, msg.value) */\n      mload(0x40)\n      tag_387\n      swap2\n      swap1\n      tag_75\n      jump\t// in\n    tag_387:\n      mload(0x40)\n      dup1\n      swap2\n      sub\n      swap1\n      log2\n        /* \"Fund.sol\":10388:10748  function _contribute(address _contributor) private {... */\n      pop\n      jump\t// out\n        /* \"@openzeppelin/contracts/utils/Counters.sol\":945:1068   */\n    tag_342:\n        /* \"@openzeppelin/contracts/utils/Counters.sol\":1050:1051   */\n      0x01\n        /* \"@openzeppelin/contracts/utils/Counters.sol\":1032:1039   */\n      dup2\n        /* \"@openzeppelin/contracts/utils/Counters.sol\":1032:1046   */\n      0x00\n      add\n      0x00\n        /* \"@openzeppelin/contracts/utils/Counters.sol\":1032:1051   */\n      dup3\n      dup3\n      sload\n      add\n      swap3\n      pop\n      pop\n      dup2\n      swap1\n      sstore\n      pop\n        /* \"@openzeppelin/contracts/utils/Counters.sol\":945:1068   */\n      pop\n      jump\t// out\n        /* \"#utility.yul\":7:133   */\n    tag_389:\n        /* \"#utility.yul\":44:51   */\n      0x00\n        /* \"#utility.yul\":84:126   */\n      0xffffffffffffffffffffffffffffffffffffffff\n        /* \"#utility.yul\":77:82   */\n      dup3\n        /* \"#utility.yul\":73:127   */\n      and\n        /* \"#utility.yul\":62:127   */\n      swap1\n      pop\n        /* \"#utility.yul\":7:133   */\n      swap2\n      swap1\n      pop\n      jump\t// out\n        /* \"#utility.yul\":139:235   */\n    tag_390:\n        /* \"#utility.yul\":176:183   */\n      0x00\n        /* \"#utility.yul\":205:229   */\n      tag_481\n        /* \"#utility.yul\":223:228   */\n      dup3\n        /* \"#utility.yul\":205:229   */\n      tag_389\n      jump\t// in\n    tag_481:\n        /* \"#utility.yul\":194:229   */\n      swap1\n      pop\n        /* \"#utility.yul\":139:235   */\n      swap2\n      swap1\n      pop\n      jump\t// out\n        /* \"#utility.yul\":241:359   */\n    tag_391:\n        /* \"#utility.yul\":328:352   */\n      tag_483\n        /* \"#utility.yul\":346:351   */\n      dup2\n        /* \"#utility.yul\":328:352   */\n      tag_390\n      jump\t// in\n    tag_483:\n        /* \"#utility.yul\":323:326   */\n      dup3\n        /* \"#utility.yul\":316:353   */\n      mstore\n        /* \"#utility.yul\":241:359   */\n      pop\n      pop\n      jump\t// out\n        /* \"#utility.yul\":365:587   */\n    tag_46:\n        /* \"#utility.yul\":458:462   */\n      0x00\n        /* \"#utility.yul\":496:498   */\n      0x20\n        /* \"#utility.yul\":485:494   */\n      dup3\n        /* \"#utility.yul\":481:499   */\n      add\n        /* \"#utility.yul\":473:499   */\n      swap1\n      pop\n        /* \"#utility.yul\":509:580   */\n      tag_485\n        /* \"#utility.yul\":577:578   */\n      0x00\n        /* \"#utility.yul\":566:575   */\n      dup4\n        /* \"#utility.yul\":562:579   */\n      add\n        /* \"#utility.yul\":553:559   */\n      dup5\n        /* \"#utility.yul\":509:580   */\n      tag_391\n      jump\t// in\n    tag_485:\n        /* \"#utility.yul\":365:587   */\n      swap3\n      swap2\n      pop\n      pop\n      jump\t// out\n        /* \"#utility.yul\":593:668   */\n    tag_392:\n        /* \"#utility.yul\":626:632   */\n      0x00\n        /* \"#utility.yul\":659:661   */\n      0x40\n        /* \"#utility.yul\":653:662   */\n      mload\n        /* \"#utility.yul\":643:662   */\n      swap1\n      pop\n        /* \"#utility.yul\":593:668   */\n      swap1\n      jump\t// out\n        /* \"#utility.yul\":674:791   */\n    tag_393:\n        /* \"#utility.yul\":783:784   */\n      0x00\n        /* \"#utility.yul\":780:781   */\n      dup1\n        /* \"#utility.yul\":773:785   */\n      revert\n        /* \"#utility.yul\":797:914   */\n    tag_394:\n        /* \"#utility.yul\":906:907   */\n      0x00\n        /* \"#utility.yul\":903:904   */\n      dup1\n        /* \"#utility.yul\":896:908   */\n      revert\n        /* \"#utility.yul\":920:997   */\n    tag_395:\n        /* \"#utility.yul\":957:964   */\n      0x00\n        /* \"#utility.yul\":986:991   */\n      dup2\n        /* \"#utility.yul\":975:991   */\n      swap1\n      pop\n        /* \"#utility.yul\":920:997   */\n      swap2\n      swap1\n      pop\n      jump\t// out\n        /* \"#utility.yul\":1003:1125   */\n    tag_396:\n        /* \"#utility.yul\":1076:1100   */\n      tag_491\n        /* \"#utility.yul\":1094:1099   */\n      dup2\n        /* \"#utility.yul\":1076:1100   */\n      tag_395\n      jump\t// in\n    tag_491:\n        /* \"#utility.yul\":1069:1074   */\n      dup2\n        /* \"#utility.yul\":1066:1101   */\n      eq\n        /* \"#utility.yul\":1056:1119   */\n      tag_492\n      jumpi\n        /* \"#utility.yul\":1115:1116   */\n      0x00\n        /* \"#utility.yul\":1112:1113   */\n      dup1\n        /* \"#utility.yul\":1105:1117   */\n      revert\n        /* \"#utility.yul\":1056:1119   */\n    tag_492:\n        /* \"#utility.yul\":1003:1125   */\n      pop\n      jump\t// out\n        /* \"#utility.yul\":1131:1270   */\n    tag_397:\n        /* \"#utility.yul\":1177:1182   */\n      0x00\n        /* \"#utility.yul\":1215:1221   */\n      dup2\n        /* \"#utility.yul\":1202:1222   */\n      calldataload\n        /* \"#utility.yul\":1193:1222   */\n      swap1\n      pop\n        /* \"#utility.yul\":1231:1264   */\n      tag_494\n        /* \"#utility.yul\":1258:1263   */\n      dup2\n        /* \"#utility.yul\":1231:1264   */\n      tag_396\n      jump\t// in\n    tag_494:\n        /* \"#utility.yul\":1131:1270   */\n      swap3\n      swap2\n      pop\n      pop\n      jump\t// out\n        /* \"#utility.yul\":1276:1605   */\n    tag_50:\n        /* \"#utility.yul\":1335:1341   */\n      0x00\n        /* \"#utility.yul\":1384:1386   */\n      0x20\n        /* \"#utility.yul\":1372:1381   */\n      dup3\n        /* \"#utility.yul\":1363:1370   */\n      dup5\n        /* \"#utility.yul\":1359:1382   */\n      sub\n        /* \"#utility.yul\":1355:1387   */\n      slt\n        /* \"#utility.yul\":1352:1471   */\n      iszero\n      tag_496\n      jumpi\n        /* \"#utility.yul\":1390:1469   */\n      tag_497\n      tag_393\n      jump\t// in\n    tag_497:\n        /* \"#utility.yul\":1352:1471   */\n    tag_496:\n        /* \"#utility.yul\":1510:1511   */\n      0x00\n        /* \"#utility.yul\":1535:1588   */\n      tag_498\n        /* \"#utility.yul\":1580:1587   */\n      dup5\n        /* \"#utility.yul\":1571:1577   */\n      dup3\n        /* \"#utility.yul\":1560:1569   */\n      dup6\n        /* \"#utility.yul\":1556:1578   */\n      add\n        /* \"#utility.yul\":1535:1588   */\n      tag_397\n      jump\t// in\n    tag_498:\n        /* \"#utility.yul\":1525:1588   */\n      swap2\n      pop\n        /* \"#utility.yul\":1481:1598   */\n      pop\n        /* \"#utility.yul\":1276:1605   */\n      swap3\n      swap2\n      pop\n      pop\n      jump\t// out\n        /* \"#utility.yul\":1611:1710   */\n    tag_398:\n        /* \"#utility.yul\":1663:1669   */\n      0x00\n        /* \"#utility.yul\":1697:1702   */\n      dup2\n        /* \"#utility.yul\":1691:1703   */\n      mload\n        /* \"#utility.yul\":1681:1703   */\n      swap1\n      pop\n        /* \"#utility.yul\":1611:1710   */\n      swap2\n      swap1\n      pop\n      jump\t// out\n        /* \"#utility.yul\":1716:1885   */\n    tag_399:\n        /* \"#utility.yul\":1800:1811   */\n      0x00\n        /* \"#utility.yul\":1834:1840   */\n      dup3\n        /* \"#utility.yul\":1829:1832   */\n      dup3\n        /* \"#utility.yul\":1822:1841   */\n      mstore\n        /* \"#utility.yul\":1874:1878   */\n      0x20\n        /* \"#utility.yul\":1869:1872   */\n      dup3\n        /* \"#utility.yul\":1865:1879   */\n      add\n        /* \"#utility.yul\":1850:1879   */\n      swap1\n      pop\n        /* \"#utility.yul\":1716:1885   */\n      swap3\n      swap2\n      pop\n      pop\n      jump\t// out\n        /* \"#utility.yul\":1891:2137   */\n    tag_400:\n        /* \"#utility.yul\":1972:1973   */\n      0x00\n        /* \"#utility.yul\":1982:2095   */\n    tag_502:\n        /* \"#utility.yul\":1996:2002   */\n      dup4\n        /* \"#utility.yul\":1993:1994   */\n      dup2\n        /* \"#utility.yul\":1990:2003   */\n      lt\n        /* \"#utility.yul\":1982:2095   */\n      iszero\n      tag_504\n      jumpi\n        /* \"#utility.yul\":2081:2082   */\n      dup1\n        /* \"#utility.yul\":2076:2079   */\n      dup3\n        /* \"#utility.yul\":2072:2083   */\n      add\n        /* \"#utility.yul\":2066:2084   */\n      mload\n        /* \"#utility.yul\":2062:2063   */\n      dup2\n        /* \"#utility.yul\":2057:2060   */\n      dup5\n        /* \"#utility.yul\":2053:2064   */\n      add\n        /* \"#utility.yul\":2046:2085   */\n      mstore\n        /* \"#utility.yul\":2018:2020   */\n      0x20\n        /* \"#utility.yul\":2015:2016   */\n      dup2\n        /* \"#utility.yul\":2011:2021   */\n      add\n        /* \"#utility.yul\":2006:2021   */\n      swap1\n      pop\n        /* \"#utility.yul\":1982:2095   */\n      jump(tag_502)\n    tag_504:\n        /* \"#utility.yul\":2129:2130   */\n      0x00\n        /* \"#utility.yul\":2120:2126   */\n      dup5\n        /* \"#utility.yul\":2115:2118   */\n      dup5\n        /* \"#utility.yul\":2111:2127   */\n      add\n        /* \"#utility.yul\":2104:2131   */\n      mstore\n        /* \"#utility.yul\":1953:2137   */\n      pop\n        /* \"#utility.yul\":1891:2137   */\n      pop\n      pop\n      pop\n      jump\t// out\n        /* \"#utility.yul\":2143:2245   */\n    tag_401:\n        /* \"#utility.yul\":2184:2190   */\n      0x00\n        /* \"#utility.yul\":2235:2237   */\n      0x1f\n        /* \"#utility.yul\":2231:2238   */\n      not\n        /* \"#utility.yul\":2226:2228   */\n      0x1f\n        /* \"#utility.yul\":2219:2224   */\n      dup4\n        /* \"#utility.yul\":2215:2229   */\n      add\n        /* \"#utility.yul\":2211:2239   */\n      and\n        /* \"#utility.yul\":2201:2239   */\n      swap1\n      pop\n        /* \"#utility.yul\":2143:2245   */\n      swap2\n      swap1\n      pop\n      jump\t// out\n        /* \"#utility.yul\":2251:2628   */\n    tag_402:\n        /* \"#utility.yul\":2339:2342   */\n      0x00\n        /* \"#utility.yul\":2367:2406   */\n      tag_507\n        /* \"#utility.yul\":2400:2405   */\n      dup3\n        /* \"#utility.yul\":2367:2406   */\n      tag_398\n      jump\t// in\n    tag_507:\n        /* \"#utility.yul\":2422:2493   */\n      tag_508\n        /* \"#utility.yul\":2486:2492   */\n      dup2\n        /* \"#utility.yul\":2481:2484   */\n      dup6\n        /* \"#utility.yul\":2422:2493   */\n      tag_399\n      jump\t// in\n    tag_508:\n        /* \"#utility.yul\":2415:2493   */\n      swap4\n      pop\n        /* \"#utility.yul\":2502:2567   */\n      tag_509\n        /* \"#utility.yul\":2560:2566   */\n      dup2\n        /* \"#utility.yul\":2555:2558   */\n      dup6\n        /* \"#utility.yul\":2548:2552   */\n      0x20\n        /* \"#utility.yul\":2541:2546   */\n      dup7\n        /* \"#utility.yul\":2537:2553   */\n      add\n        /* \"#utility.yul\":2502:2567   */\n      tag_400\n      jump\t// in\n    tag_509:\n        /* \"#utility.yul\":2592:2621   */\n      tag_510\n        /* \"#utility.yul\":2614:2620   */\n      dup2\n        /* \"#utility.yul\":2592:2621   */\n      tag_401\n      jump\t// in\n    tag_510:\n        /* \"#utility.yul\":2587:2590   */\n      dup5\n        /* \"#utility.yul\":2583:2622   */\n      add\n        /* \"#utility.yul\":2576:2622   */\n      swap2\n      pop\n        /* \"#utility.yul\":2343:2628   */\n      pop\n        /* \"#utility.yul\":2251:2628   */\n      swap3\n      swap2\n      pop\n      pop\n      jump\t// out\n        /* \"#utility.yul\":2634:2947   */\n    tag_56:\n        /* \"#utility.yul\":2747:2751   */\n      0x00\n        /* \"#utility.yul\":2785:2787   */\n      0x20\n        /* \"#utility.yul\":2774:2783   */\n      dup3\n        /* \"#utility.yul\":2770:2788   */\n      add\n        /* \"#utility.yul\":2762:2788   */\n      swap1\n      pop\n        /* \"#utility.yul\":2834:2843   */\n      dup2\n        /* \"#utility.yul\":2828:2832   */\n      dup2\n        /* \"#utility.yul\":2824:2844   */\n      sub\n        /* \"#utility.yul\":2820:2821   */\n      0x00\n        /* \"#utility.yul\":2809:2818   */\n      dup4\n        /* \"#utility.yul\":2805:2822   */\n      add\n        /* \"#utility.yul\":2798:2845   */\n      mstore\n        /* \"#utility.yul\":2862:2940   */\n      tag_512\n        /* \"#utility.yul\":2935:2939   */\n      dup2\n        /* \"#utility.yul\":2926:2932   */\n      dup5\n        /* \"#utility.yul\":2862:2940   */\n      tag_402\n      jump\t// in\n    tag_512:\n        /* \"#utility.yul\":2854:2940   */\n      swap1\n      pop\n        /* \"#utility.yul\":2634:2947   */\n      swap3\n      swap2\n      pop\n      pop\n      jump\t// out\n        /* \"#utility.yul\":2953:3075   */\n    tag_403:\n        /* \"#utility.yul\":3026:3050   */\n      tag_514\n        /* \"#utility.yul\":3044:3049   */\n      dup2\n        /* \"#utility.yul\":3026:3050   */\n      tag_390\n      jump\t// in\n    tag_514:\n        /* \"#utility.yul\":3019:3024   */\n      dup2\n        /* \"#utility.yul\":3016:3051   */\n      eq\n        /* \"#utility.yul\":3006:3069   */\n      tag_515\n      jumpi\n        /* \"#utility.yul\":3065:3066   */\n      0x00\n        /* \"#utility.yul\":3062:3063   */\n      dup1\n        /* \"#utility.yul\":3055:3067   */\n      revert\n        /* \"#utility.yul\":3006:3069   */\n    tag_515:\n        /* \"#utility.yul\":2953:3075   */\n      pop\n      jump\t// out\n        /* \"#utility.yul\":3081:3220   */\n    tag_404:\n        /* \"#utility.yul\":3127:3132   */\n      0x00\n        /* \"#utility.yul\":3165:3171   */\n      dup2\n        /* \"#utility.yul\":3152:3172   */\n      calldataload\n        /* \"#utility.yul\":3143:3172   */\n      swap1\n      pop\n        /* \"#utility.yul\":3181:3214   */\n      tag_517\n        /* \"#utility.yul\":3208:3213   */\n      dup2\n        /* \"#utility.yul\":3181:3214   */\n      tag_403\n      jump\t// in\n    tag_517:\n        /* \"#utility.yul\":3081:3220   */\n      swap3\n      swap2\n      pop\n      pop\n      jump\t// out\n        /* \"#utility.yul\":3226:3555   */\n    tag_59:\n        /* \"#utility.yul\":3285:3291   */\n      0x00\n        /* \"#utility.yul\":3334:3336   */\n      0x20\n        /* \"#utility.yul\":3322:3331   */\n      dup3\n        /* \"#utility.yul\":3313:3320   */\n      dup5\n        /* \"#utility.yul\":3309:3332   */\n      sub\n        /* \"#utility.yul\":3305:3337   */\n      slt\n        /* \"#utility.yul\":3302:3421   */\n      iszero\n      tag_519\n      jumpi\n        /* \"#utility.yul\":3340:3419   */\n      tag_520\n      tag_393\n      jump\t// in\n    tag_520:\n        /* \"#utility.yul\":3302:3421   */\n    tag_519:\n        /* \"#utility.yul\":3460:3461   */\n      0x00\n        /* \"#utility.yul\":3485:3538   */\n      tag_521\n        /* \"#utility.yul\":3530:3537   */\n      dup5\n        /* \"#utility.yul\":3521:3527   */\n      dup3\n        /* \"#utility.yul\":3510:3519   */\n      dup6\n        /* \"#utility.yul\":3506:3528   */\n      add\n        /* \"#utility.yul\":3485:3538   */\n      tag_404\n      jump\t// in\n    tag_521:\n        /* \"#utility.yul\":3475:3538   */\n      swap2\n      pop\n        /* \"#utility.yul\":3431:3548   */\n      pop\n        /* \"#utility.yul\":3226:3555   */\n      swap3\n      swap2\n      pop\n      pop\n      jump\t// out\n        /* \"#utility.yul\":3561:3678   */\n    tag_405:\n        /* \"#utility.yul\":3670:3671   */\n      0x00\n        /* \"#utility.yul\":3667:3668   */\n      dup1\n        /* \"#utility.yul\":3660:3672   */\n      revert\n        /* \"#utility.yul\":3684:3801   */\n    tag_406:\n        /* \"#utility.yul\":3793:3794   */\n      0x00\n        /* \"#utility.yul\":3790:3791   */\n      dup1\n        /* \"#utility.yul\":3783:3795   */\n      revert\n        /* \"#utility.yul\":3807:3987   */\n    tag_407:\n        /* \"#utility.yul\":3855:3932   */\n      0x4e487b7100000000000000000000000000000000000000000000000000000000\n        /* \"#utility.yul\":3852:3853   */\n      0x00\n        /* \"#utility.yul\":3845:3933   */\n      mstore\n        /* \"#utility.yul\":3952:3956   */\n      0x41\n        /* \"#utility.yul\":3949:3950   */\n      0x04\n        /* \"#utility.yul\":3942:3957   */\n      mstore\n        /* \"#utility.yul\":3976:3980   */\n      0x24\n        /* \"#utility.yul\":3973:3974   */\n      0x00\n        /* \"#utility.yul\":3966:3981   */\n      revert\n        /* \"#utility.yul\":3993:4274   */\n    tag_408:\n        /* \"#utility.yul\":4076:4103   */\n      tag_526\n        /* \"#utility.yul\":4098:4102   */\n      dup3\n        /* \"#utility.yul\":4076:4103   */\n      tag_401\n      jump\t// in\n    tag_526:\n        /* \"#utility.yul\":4068:4074   */\n      dup2\n        /* \"#utility.yul\":4064:4104   */\n      add\n        /* \"#utility.yul\":4206:4212   */\n      dup2\n        /* \"#utility.yul\":4194:4204   */\n      dup2\n        /* \"#utility.yul\":4191:4213   */\n      lt\n        /* \"#utility.yul\":4170:4188   */\n      0xffffffffffffffff\n        /* \"#utility.yul\":4158:4168   */\n      dup3\n        /* \"#utility.yul\":4155:4189   */\n      gt\n        /* \"#utility.yul\":4152:4214   */\n      or\n        /* \"#utility.yul\":4149:4237   */\n      iszero\n      tag_527\n      jumpi\n        /* \"#utility.yul\":4217:4235   */\n      tag_528\n      tag_407\n      jump\t// in\n    tag_528:\n        /* \"#utility.yul\":4149:4237   */\n    tag_527:\n        /* \"#utility.yul\":4257:4267   */\n      dup1\n        /* \"#utility.yul\":4253:4255   */\n      0x40\n        /* \"#utility.yul\":4246:4268   */\n      mstore\n        /* \"#utility.yul\":4036:4274   */\n      pop\n        /* \"#utility.yul\":3993:4274   */\n      pop\n      pop\n      jump\t// out\n        /* \"#utility.yul\":4280:4409   */\n    tag_409:\n        /* \"#utility.yul\":4314:4320   */\n      0x00\n        /* \"#utility.yul\":4341:4361   */\n      tag_530\n      tag_392\n      jump\t// in\n    tag_530:\n        /* \"#utility.yul\":4331:4361   */\n      swap1\n      pop\n        /* \"#utility.yul\":4370:4403   */\n      tag_531\n        /* \"#utility.yul\":4398:4402   */\n      dup3\n        /* \"#utility.yul\":4390:4396   */\n      dup3\n        /* \"#utility.yul\":4370:4403   */\n      tag_408\n      jump\t// in\n    tag_531:\n        /* \"#utility.yul\":4280:4409   */\n      swap2\n      swap1\n      pop\n      jump\t// out\n        /* \"#utility.yul\":4415:4723   */\n    tag_410:\n        /* \"#utility.yul\":4477:4481   */\n      0x00\n        /* \"#utility.yul\":4567:4585   */\n      0xffffffffffffffff\n        /* \"#utility.yul\":4559:4565   */\n      dup3\n        /* \"#utility.yul\":4556:4586   */\n      gt\n        /* \"#utility.yul\":4553:4609   */\n      iszero\n      tag_533\n      jumpi\n        /* \"#utility.yul\":4589:4607   */\n      tag_534\n      tag_407\n      jump\t// in\n    tag_534:\n        /* \"#utility.yul\":4553:4609   */\n    tag_533:\n        /* \"#utility.yul\":4627:4656   */\n      tag_535\n        /* \"#utility.yul\":4649:4655   */\n      dup3\n        /* \"#utility.yul\":4627:4656   */\n      tag_401\n      jump\t// in\n    tag_535:\n        /* \"#utility.yul\":4619:4656   */\n      swap1\n      pop\n        /* \"#utility.yul\":4711:4715   */\n      0x20\n        /* \"#utility.yul\":4705:4709   */\n      dup2\n        /* \"#utility.yul\":4701:4716   */\n      add\n        /* \"#utility.yul\":4693:4716   */\n      swap1\n      pop\n        /* \"#utility.yul\":4415:4723   */\n      swap2\n      swap1\n      pop\n      jump\t// out\n        /* \"#utility.yul\":4729:4875   */\n    tag_411:\n        /* \"#utility.yul\":4826:4832   */\n      dup3\n        /* \"#utility.yul\":4821:4824   */\n      dup2\n        /* \"#utility.yul\":4816:4819   */\n      dup4\n        /* \"#utility.yul\":4803:4833   */\n      calldatacopy\n        /* \"#utility.yul\":4867:4868   */\n      0x00\n        /* \"#utility.yul\":4858:4864   */\n      dup4\n        /* \"#utility.yul\":4853:4856   */\n      dup4\n        /* \"#utility.yul\":4849:4865   */\n      add\n        /* \"#utility.yul\":4842:4869   */\n      mstore\n        /* \"#utility.yul\":4729:4875   */\n      pop\n      pop\n      pop\n      jump\t// out\n        /* \"#utility.yul\":4881:5306   */\n    tag_412:\n        /* \"#utility.yul\":4959:4964   */\n      0x00\n        /* \"#utility.yul\":4984:5050   */\n      tag_538\n        /* \"#utility.yul\":5000:5049   */\n      tag_539\n        /* \"#utility.yul\":5042:5048   */\n      dup5\n        /* \"#utility.yul\":5000:5049   */\n      tag_410\n      jump\t// in\n    tag_539:\n        /* \"#utility.yul\":4984:5050   */\n      tag_409\n      jump\t// in\n    tag_538:\n        /* \"#utility.yul\":4975:5050   */\n      swap1\n      pop\n        /* \"#utility.yul\":5073:5079   */\n      dup3\n        /* \"#utility.yul\":5066:5071   */\n      dup2\n        /* \"#utility.yul\":5059:5080   */\n      mstore\n        /* \"#utility.yul\":5111:5115   */\n      0x20\n        /* \"#utility.yul\":5104:5109   */\n      dup2\n        /* \"#utility.yul\":5100:5116   */\n      add\n        /* \"#utility.yul\":5149:5152   */\n      dup5\n        /* \"#utility.yul\":5140:5146   */\n      dup5\n        /* \"#utility.yul\":5135:5138   */\n      dup5\n        /* \"#utility.yul\":5131:5147   */\n      add\n        /* \"#utility.yul\":5128:5153   */\n      gt\n        /* \"#utility.yul\":5125:5237   */\n      iszero\n      tag_540\n      jumpi\n        /* \"#utility.yul\":5156:5235   */\n      tag_541\n      tag_406\n      jump\t// in\n    tag_541:\n        /* \"#utility.yul\":5125:5237   */\n    tag_540:\n        /* \"#utility.yul\":5246:5300   */\n      tag_542\n        /* \"#utility.yul\":5293:5299   */\n      dup5\n        /* \"#utility.yul\":5288:5291   */\n      dup3\n        /* \"#utility.yul\":5283:5286   */\n      dup6\n        /* \"#utility.yul\":5246:5300   */\n      tag_411\n      jump\t// in\n    tag_542:\n        /* \"#utility.yul\":4965:5306   */\n      pop\n        /* \"#utility.yul\":4881:5306   */\n      swap4\n      swap3\n      pop\n      pop\n      pop\n      jump\t// out\n        /* \"#utility.yul\":5326:5666   */\n    tag_413:\n        /* \"#utility.yul\":5382:5387   */\n      0x00\n        /* \"#utility.yul\":5431:5434   */\n      dup3\n        /* \"#utility.yul\":5424:5428   */\n      0x1f\n        /* \"#utility.yul\":5416:5422   */\n      dup4\n        /* \"#utility.yul\":5412:5429   */\n      add\n        /* \"#utility.yul\":5408:5435   */\n      slt\n        /* \"#utility.yul\":5398:5520   */\n      tag_544\n      jumpi\n        /* \"#utility.yul\":5439:5518   */\n      tag_545\n      tag_405\n      jump\t// in\n    tag_545:\n        /* \"#utility.yul\":5398:5520   */\n    tag_544:\n        /* \"#utility.yul\":5556:5562   */\n      dup2\n        /* \"#utility.yul\":5543:5563   */\n      calldataload\n        /* \"#utility.yul\":5581:5660   */\n      tag_546\n        /* \"#utility.yul\":5656:5659   */\n      dup5\n        /* \"#utility.yul\":5648:5654   */\n      dup3\n        /* \"#utility.yul\":5641:5645   */\n      0x20\n        /* \"#utility.yul\":5633:5639   */\n      dup7\n        /* \"#utility.yul\":5629:5646   */\n      add\n        /* \"#utility.yul\":5581:5660   */\n      tag_412\n      jump\t// in\n    tag_546:\n        /* \"#utility.yul\":5572:5660   */\n      swap2\n      pop\n        /* \"#utility.yul\":5388:5666   */\n      pop\n        /* \"#utility.yul\":5326:5666   */\n      swap3\n      swap2\n      pop\n      pop\n      jump\t// out\n        /* \"#utility.yul\":5672:6471   */\n    tag_64:\n        /* \"#utility.yul\":5759:5765   */\n      0x00\n        /* \"#utility.yul\":5767:5773   */\n      dup1\n        /* \"#utility.yul\":5775:5781   */\n      0x00\n        /* \"#utility.yul\":5824:5826   */\n      0x60\n        /* \"#utility.yul\":5812:5821   */\n      dup5\n        /* \"#utility.yul\":5803:5810   */\n      dup7\n        /* \"#utility.yul\":5799:5822   */\n      sub\n        /* \"#utility.yul\":5795:5827   */\n      slt\n        /* \"#utility.yul\":5792:5911   */\n      iszero\n      tag_548\n      jumpi\n        /* \"#utility.yul\":5830:5909   */\n      tag_549\n      tag_393\n      jump\t// in\n    tag_549:\n        /* \"#utility.yul\":5792:5911   */\n    tag_548:\n        /* \"#utility.yul\":5978:5979   */\n      0x00\n        /* \"#utility.yul\":5967:5976   */\n      dup5\n        /* \"#utility.yul\":5963:5980   */\n      add\n        /* \"#utility.yul\":5950:5981   */\n      calldataload\n        /* \"#utility.yul\":6008:6026   */\n      0xffffffffffffffff\n        /* \"#utility.yul\":6000:6006   */\n      dup2\n        /* \"#utility.yul\":5997:6027   */\n      gt\n        /* \"#utility.yul\":5994:6111   */\n      iszero\n      tag_550\n      jumpi\n        /* \"#utility.yul\":6030:6109   */\n      tag_551\n      tag_394\n      jump\t// in\n    tag_551:\n        /* \"#utility.yul\":5994:6111   */\n    tag_550:\n        /* \"#utility.yul\":6135:6198   */\n      tag_552\n        /* \"#utility.yul\":6190:6197   */\n      dup7\n        /* \"#utility.yul\":6181:6187   */\n      dup3\n        /* \"#utility.yul\":6170:6179   */\n      dup8\n        /* \"#utility.yul\":6166:6188   */\n      add\n        /* \"#utility.yul\":6135:6198   */\n      tag_413\n      jump\t// in\n    tag_552:\n        /* \"#utility.yul\":6125:6198   */\n      swap4\n      pop\n        /* \"#utility.yul\":5921:6208   */\n      pop\n        /* \"#utility.yul\":6247:6249   */\n      0x20\n        /* \"#utility.yul\":6273:6326   */\n      tag_553\n        /* \"#utility.yul\":6318:6325   */\n      dup7\n        /* \"#utility.yul\":6309:6315   */\n      dup3\n        /* \"#utility.yul\":6298:6307   */\n      dup8\n        /* \"#utility.yul\":6294:6316   */\n      add\n        /* \"#utility.yul\":6273:6326   */\n      tag_404\n      jump\t// in\n    tag_553:\n        /* \"#utility.yul\":6263:6326   */\n      swap3\n      pop\n        /* \"#utility.yul\":6218:6336   */\n      pop\n        /* \"#utility.yul\":6375:6377   */\n      0x40\n        /* \"#utility.yul\":6401:6454   */\n      tag_554\n        /* \"#utility.yul\":6446:6453   */\n      dup7\n        /* \"#utility.yul\":6437:6443   */\n      dup3\n        /* \"#utility.yul\":6426:6435   */\n      dup8\n        /* \"#utility.yul\":6422:6444   */\n      add\n        /* \"#utility.yul\":6401:6454   */\n      tag_397\n      jump\t// in\n    tag_554:\n        /* \"#utility.yul\":6391:6454   */\n      swap2\n      pop\n        /* \"#utility.yul\":6346:6464   */\n      pop\n        /* \"#utility.yul\":5672:6471   */\n      swap3\n      pop\n      swap3\n      pop\n      swap3\n      jump\t// out\n        /* \"#utility.yul\":6477:6788   */\n    tag_414:\n        /* \"#utility.yul\":6554:6558   */\n      0x00\n        /* \"#utility.yul\":6644:6662   */\n      0xffffffffffffffff\n        /* \"#utility.yul\":6636:6642   */\n      dup3\n        /* \"#utility.yul\":6633:6663   */\n      gt\n        /* \"#utility.yul\":6630:6686   */\n      iszero\n      tag_556\n      jumpi\n        /* \"#utility.yul\":6666:6684   */\n      tag_557\n      tag_407\n      jump\t// in\n    tag_557:\n        /* \"#utility.yul\":6630:6686   */\n    tag_556:\n        /* \"#utility.yul\":6716:6720   */\n      0x20\n        /* \"#utility.yul\":6708:6714   */\n      dup3\n        /* \"#utility.yul\":6704:6721   */\n      mul\n        /* \"#utility.yul\":6696:6721   */\n      swap1\n      pop\n        /* \"#utility.yul\":6776:6780   */\n      0x20\n        /* \"#utility.yul\":6770:6774   */\n      dup2\n        /* \"#utility.yul\":6766:6781   */\n      add\n        /* \"#utility.yul\":6758:6781   */\n      swap1\n      pop\n        /* \"#utility.yul\":6477:6788   */\n      swap2\n      swap1\n      pop\n      jump\t// out\n        /* \"#utility.yul\":6794:6911   */\n    tag_415:\n        /* \"#utility.yul\":6903:6904   */\n      0x00\n        /* \"#utility.yul\":6900:6901   */\n      dup1\n        /* \"#utility.yul\":6893:6905   */\n      revert\n        /* \"#utility.yul\":6934:7644   */\n    tag_416:\n        /* \"#utility.yul\":7030:7035   */\n      0x00\n        /* \"#utility.yul\":7055:7136   */\n      tag_560\n        /* \"#utility.yul\":7071:7135   */\n      tag_561\n        /* \"#utility.yul\":7128:7134   */\n      dup5\n        /* \"#utility.yul\":7071:7135   */\n      tag_414\n      jump\t// in\n    tag_561:\n        /* \"#utility.yul\":7055:7136   */\n      tag_409\n      jump\t// in\n    tag_560:\n        /* \"#utility.yul\":7046:7136   */\n      swap1\n      pop\n        /* \"#utility.yul\":7156:7161   */\n      dup1\n        /* \"#utility.yul\":7185:7191   */\n      dup4\n        /* \"#utility.yul\":7178:7183   */\n      dup3\n        /* \"#utility.yul\":7171:7192   */\n      mstore\n        /* \"#utility.yul\":7219:7223   */\n      0x20\n        /* \"#utility.yul\":7212:7217   */\n      dup3\n        /* \"#utility.yul\":7208:7224   */\n      add\n        /* \"#utility.yul\":7201:7224   */\n      swap1\n      pop\n        /* \"#utility.yul\":7272:7276   */\n      0x20\n        /* \"#utility.yul\":7264:7270   */\n      dup5\n        /* \"#utility.yul\":7260:7277   */\n      mul\n        /* \"#utility.yul\":7252:7258   */\n      dup4\n        /* \"#utility.yul\":7248:7278   */\n      add\n        /* \"#utility.yul\":7301:7304   */\n      dup6\n        /* \"#utility.yul\":7293:7299   */\n      dup2\n        /* \"#utility.yul\":7290:7305   */\n      gt\n        /* \"#utility.yul\":7287:7409   */\n      iszero\n      tag_562\n      jumpi\n        /* \"#utility.yul\":7320:7399   */\n      tag_563\n      tag_415\n      jump\t// in\n    tag_563:\n        /* \"#utility.yul\":7287:7409   */\n    tag_562:\n        /* \"#utility.yul\":7435:7441   */\n      dup4\n        /* \"#utility.yul\":7418:7638   */\n    tag_564:\n        /* \"#utility.yul\":7452:7458   */\n      dup2\n        /* \"#utility.yul\":7447:7450   */\n      dup2\n        /* \"#utility.yul\":7444:7459   */\n      lt\n        /* \"#utility.yul\":7418:7638   */\n      iszero\n      tag_566\n      jumpi\n        /* \"#utility.yul\":7527:7530   */\n      dup1\n        /* \"#utility.yul\":7556:7593   */\n      tag_567\n        /* \"#utility.yul\":7589:7592   */\n      dup9\n        /* \"#utility.yul\":7577:7587   */\n      dup3\n        /* \"#utility.yul\":7556:7593   */\n      tag_404\n      jump\t// in\n    tag_567:\n        /* \"#utility.yul\":7551:7554   */\n      dup5\n        /* \"#utility.yul\":7544:7594   */\n      mstore\n        /* \"#utility.yul\":7623:7627   */\n      0x20\n        /* \"#utility.yul\":7618:7621   */\n      dup5\n        /* \"#utility.yul\":7614:7628   */\n      add\n        /* \"#utility.yul\":7607:7628   */\n      swap4\n      pop\n        /* \"#utility.yul\":7494:7638   */\n      pop\n        /* \"#utility.yul\":7478:7482   */\n      0x20\n        /* \"#utility.yul\":7473:7476   */\n      dup2\n        /* \"#utility.yul\":7469:7483   */\n      add\n        /* \"#utility.yul\":7462:7483   */\n      swap1\n      pop\n        /* \"#utility.yul\":7418:7638   */\n      jump(tag_564)\n    tag_566:\n        /* \"#utility.yul\":7422:7443   */\n      pop\n        /* \"#utility.yul\":7036:7644   */\n      pop\n      pop\n        /* \"#utility.yul\":6934:7644   */\n      swap4\n      swap3\n      pop\n      pop\n      pop\n      jump\t// out\n        /* \"#utility.yul\":7667:8037   */\n    tag_417:\n        /* \"#utility.yul\":7738:7743   */\n      0x00\n        /* \"#utility.yul\":7787:7790   */\n      dup3\n        /* \"#utility.yul\":7780:7784   */\n      0x1f\n        /* \"#utility.yul\":7772:7778   */\n      dup4\n        /* \"#utility.yul\":7768:7785   */\n      add\n        /* \"#utility.yul\":7764:7791   */\n      slt\n        /* \"#utility.yul\":7754:7876   */\n      tag_569\n      jumpi\n        /* \"#utility.yul\":7795:7874   */\n      tag_570\n      tag_405\n      jump\t// in\n    tag_570:\n        /* \"#utility.yul\":7754:7876   */\n    tag_569:\n        /* \"#utility.yul\":7912:7918   */\n      dup2\n        /* \"#utility.yul\":7899:7919   */\n      calldataload\n        /* \"#utility.yul\":7937:8031   */\n      tag_571\n        /* \"#utility.yul\":8027:8030   */\n      dup5\n        /* \"#utility.yul\":8019:8025   */\n      dup3\n        /* \"#utility.yul\":8012:8016   */\n      0x20\n        /* \"#utility.yul\":8004:8010   */\n      dup7\n        /* \"#utility.yul\":8000:8017   */\n      add\n        /* \"#utility.yul\":7937:8031   */\n      tag_416\n      jump\t// in\n    tag_571:\n        /* \"#utility.yul\":7928:8031   */\n      swap2\n      pop\n        /* \"#utility.yul\":7744:8037   */\n      pop\n        /* \"#utility.yul\":7667:8037   */\n      swap3\n      swap2\n      pop\n      pop\n      jump\t// out\n        /* \"#utility.yul\":8043:8582   */\n    tag_69:\n        /* \"#utility.yul\":8127:8133   */\n      0x00\n        /* \"#utility.yul\":8176:8178   */\n      0x20\n        /* \"#utility.yul\":8164:8173   */\n      dup3\n        /* \"#utility.yul\":8155:8162   */\n      dup5\n        /* \"#utility.yul\":8151:8174   */\n      sub\n        /* \"#utility.yul\":8147:8179   */\n      slt\n        /* \"#utility.yul\":8144:8263   */\n      iszero\n      tag_573\n      jumpi\n        /* \"#utility.yul\":8182:8261   */\n      tag_574\n      tag_393\n      jump\t// in\n    tag_574:\n        /* \"#utility.yul\":8144:8263   */\n    tag_573:\n        /* \"#utility.yul\":8330:8331   */\n      0x00\n        /* \"#utility.yul\":8319:8328   */\n      dup3\n        /* \"#utility.yul\":8315:8332   */\n      add\n        /* \"#utility.yul\":8302:8333   */\n      calldataload\n        /* \"#utility.yul\":8360:8378   */\n      0xffffffffffffffff\n        /* \"#utility.yul\":8352:8358   */\n      dup2\n        /* \"#utility.yul\":8349:8379   */\n      gt\n        /* \"#utility.yul\":8346:8463   */\n      iszero\n      tag_575\n      jumpi\n        /* \"#utility.yul\":8382:8461   */\n      tag_576\n      tag_394\n      jump\t// in\n    tag_576:\n        /* \"#utility.yul\":8346:8463   */\n    tag_575:\n        /* \"#utility.yul\":8487:8565   */\n      tag_577\n        /* \"#utility.yul\":8557:8564   */\n      dup5\n        /* \"#utility.yul\":8548:8554   */\n      dup3\n        /* \"#utility.yul\":8537:8546   */\n      dup6\n        /* \"#utility.yul\":8533:8555   */\n      add\n        /* \"#utility.yul\":8487:8565   */\n      tag_417\n      jump\t// in\n    tag_577:\n        /* \"#utility.yul\":8477:8565   */\n      swap2\n      pop\n        /* \"#utility.yul\":8273:8575   */\n      pop\n        /* \"#utility.yul\":8043:8582   */\n      swap3\n      swap2\n      pop\n      pop\n      jump\t// out\n        /* \"#utility.yul\":8588:8706   */\n    tag_418:\n        /* \"#utility.yul\":8675:8699   */\n      tag_579\n        /* \"#utility.yul\":8693:8698   */\n      dup2\n        /* \"#utility.yul\":8675:8699   */\n      tag_395\n      jump\t// in\n    tag_579:\n        /* \"#utility.yul\":8670:8673   */\n      dup3\n        /* \"#utility.yul\":8663:8700   */\n      mstore\n        /* \"#utility.yul\":8588:8706   */\n      pop\n      pop\n      jump\t// out\n        /* \"#utility.yul\":8712:8934   */\n    tag_75:\n        /* \"#utility.yul\":8805:8809   */\n      0x00\n        /* \"#utility.yul\":8843:8845   */\n      0x20\n        /* \"#utility.yul\":8832:8841   */\n      dup3\n        /* \"#utility.yul\":8828:8846   */\n      add\n        /* \"#utility.yul\":8820:8846   */\n      swap1\n      pop\n        /* \"#utility.yul\":8856:8927   */\n      tag_581\n        /* \"#utility.yul\":8924:8925   */\n      0x00\n        /* \"#utility.yul\":8913:8922   */\n      dup4\n        /* \"#utility.yul\":8909:8926   */\n      add\n        /* \"#utility.yul\":8900:8906   */\n      dup5\n        /* \"#utility.yul\":8856:8927   */\n      tag_418\n      jump\t// in\n    tag_581:\n        /* \"#utility.yul\":8712:8934   */\n      swap3\n      swap2\n      pop\n      pop\n      jump\t// out\n        /* \"#utility.yul\":8940:9695   */\n    tag_90:\n        /* \"#utility.yul\":9165:9169   */\n      0x00\n        /* \"#utility.yul\":9203:9206   */\n      0xa0\n        /* \"#utility.yul\":9192:9201   */\n      dup3\n        /* \"#utility.yul\":9188:9207   */\n      add\n        /* \"#utility.yul\":9180:9207   */\n      swap1\n      pop\n        /* \"#utility.yul\":9217:9288   */\n      tag_583\n        /* \"#utility.yul\":9285:9286   */\n      0x00\n        /* \"#utility.yul\":9274:9283   */\n      dup4\n        /* \"#utility.yul\":9270:9287   */\n      add\n        /* \"#utility.yul\":9261:9267   */\n      dup9\n        /* \"#utility.yul\":9217:9288   */\n      tag_391\n      jump\t// in\n    tag_583:\n        /* \"#utility.yul\":9298:9370   */\n      tag_584\n        /* \"#utility.yul\":9366:9368   */\n      0x20\n        /* \"#utility.yul\":9355:9364   */\n      dup4\n        /* \"#utility.yul\":9351:9369   */\n      add\n        /* \"#utility.yul\":9342:9348   */\n      dup8\n        /* \"#utility.yul\":9298:9370   */\n      tag_418\n      jump\t// in\n    tag_584:\n        /* \"#utility.yul\":9417:9426   */\n      dup2\n        /* \"#utility.yul\":9411:9415   */\n      dup2\n        /* \"#utility.yul\":9407:9427   */\n      sub\n        /* \"#utility.yul\":9402:9404   */\n      0x40\n        /* \"#utility.yul\":9391:9400   */\n      dup4\n        /* \"#utility.yul\":9387:9405   */\n      add\n        /* \"#utility.yul\":9380:9428   */\n      mstore\n        /* \"#utility.yul\":9445:9523   */\n      tag_585\n        /* \"#utility.yul\":9518:9522   */\n      dup2\n        /* \"#utility.yul\":9509:9515   */\n      dup7\n        /* \"#utility.yul\":9445:9523   */\n      tag_402\n      jump\t// in\n    tag_585:\n        /* \"#utility.yul\":9437:9523   */\n      swap1\n      pop\n        /* \"#utility.yul\":9533:9605   */\n      tag_586\n        /* \"#utility.yul\":9601:9603   */\n      0x60\n        /* \"#utility.yul\":9590:9599   */\n      dup4\n        /* \"#utility.yul\":9586:9604   */\n      add\n        /* \"#utility.yul\":9577:9583   */\n      dup6\n        /* \"#utility.yul\":9533:9605   */\n      tag_391\n      jump\t// in\n    tag_586:\n        /* \"#utility.yul\":9615:9688   */\n      tag_587\n        /* \"#utility.yul\":9683:9686   */\n      0x80\n        /* \"#utility.yul\":9672:9681   */\n      dup4\n        /* \"#utility.yul\":9668:9687   */\n      add\n        /* \"#utility.yul\":9659:9665   */\n      dup5\n        /* \"#utility.yul\":9615:9688   */\n      tag_418\n      jump\t// in\n    tag_587:\n        /* \"#utility.yul\":8940:9695   */\n      swap7\n      swap6\n      pop\n      pop\n      pop\n      pop\n      pop\n      pop\n      jump\t// out\n        /* \"#utility.yul\":9701:9791   */\n    tag_419:\n        /* \"#utility.yul\":9735:9742   */\n      0x00\n        /* \"#utility.yul\":9778:9783   */\n      dup2\n        /* \"#utility.yul\":9771:9784   */\n      iszero\n        /* \"#utility.yul\":9764:9785   */\n      iszero\n        /* \"#utility.yul\":9753:9785   */\n      swap1\n      pop\n        /* \"#utility.yul\":9701:9791   */\n      swap2\n      swap1\n      pop\n      jump\t// out\n        /* \"#utility.yul\":9797:9906   */\n    tag_420:\n        /* \"#utility.yul\":9878:9899   */\n      tag_590\n        /* \"#utility.yul\":9893:9898   */\n      dup2\n        /* \"#utility.yul\":9878:9899   */\n      tag_419\n      jump\t// in\n    tag_590:\n        /* \"#utility.yul\":9873:9876   */\n      dup3\n        /* \"#utility.yul\":9866:9900   */\n      mstore\n        /* \"#utility.yul\":9797:9906   */\n      pop\n      pop\n      jump\t// out\n        /* \"#utility.yul\":9912:10122   */\n    tag_112:\n        /* \"#utility.yul\":9999:10003   */\n      0x00\n        /* \"#utility.yul\":10037:10039   */\n      0x20\n        /* \"#utility.yul\":10026:10035   */\n      dup3\n        /* \"#utility.yul\":10022:10040   */\n      add\n        /* \"#utility.yul\":10014:10040   */\n      swap1\n      pop\n        /* \"#utility.yul\":10050:10115   */\n      tag_592\n        /* \"#utility.yul\":10112:10113   */\n      0x00\n        /* \"#utility.yul\":10101:10110   */\n      dup4\n        /* \"#utility.yul\":10097:10114   */\n      add\n        /* \"#utility.yul\":10088:10094   */\n      dup5\n        /* \"#utility.yul\":10050:10115   */\n      tag_420\n      jump\t// in\n    tag_592:\n        /* \"#utility.yul\":9912:10122   */\n      swap3\n      swap2\n      pop\n      pop\n      jump\t// out\n        /* \"#utility.yul\":10128:10236   */\n    tag_421:\n        /* \"#utility.yul\":10205:10229   */\n      tag_594\n        /* \"#utility.yul\":10223:10228   */\n      dup2\n        /* \"#utility.yul\":10205:10229   */\n      tag_395\n      jump\t// in\n    tag_594:\n        /* \"#utility.yul\":10200:10203   */\n      dup3\n        /* \"#utility.yul\":10193:10230   */\n      mstore\n        /* \"#utility.yul\":10128:10236   */\n      pop\n      pop\n      jump\t// out\n        /* \"#utility.yul\":10300:10635   */\n    tag_422:\n        /* \"#utility.yul\":10447:10451   */\n      0x20\n        /* \"#utility.yul\":10442:10445   */\n      dup3\n        /* \"#utility.yul\":10438:10452   */\n      add\n        /* \"#utility.yul\":10536:10540   */\n      0x00\n        /* \"#utility.yul\":10529:10534   */\n      dup3\n        /* \"#utility.yul\":10525:10541   */\n      add\n        /* \"#utility.yul\":10519:10542   */\n      mload\n        /* \"#utility.yul\":10555:10618   */\n      tag_596\n        /* \"#utility.yul\":10612:10616   */\n      0x00\n        /* \"#utility.yul\":10607:10610   */\n      dup6\n        /* \"#utility.yul\":10603:10617   */\n      add\n        /* \"#utility.yul\":10589:10601   */\n      dup3\n        /* \"#utility.yul\":10555:10618   */\n      tag_421\n      jump\t// in\n    tag_596:\n        /* \"#utility.yul\":10462:10628   */\n      pop\n        /* \"#utility.yul\":10416:10635   */\n      pop\n        /* \"#utility.yul\":10300:10635   */\n      pop\n      pop\n      jump\t// out\n        /* \"#utility.yul\":10641:11706   */\n    tag_118:\n        /* \"#utility.yul\":10966:10970   */\n      0x00\n        /* \"#utility.yul\":11004:11007   */\n      0xe0\n        /* \"#utility.yul\":10993:11002   */\n      dup3\n        /* \"#utility.yul\":10989:11008   */\n      add\n        /* \"#utility.yul\":10981:11008   */\n      swap1\n      pop\n        /* \"#utility.yul\":11054:11063   */\n      dup2\n        /* \"#utility.yul\":11048:11052   */\n      dup2\n        /* \"#utility.yul\":11044:11064   */\n      sub\n        /* \"#utility.yul\":11040:11041   */\n      0x00\n        /* \"#utility.yul\":11029:11038   */\n      dup4\n        /* \"#utility.yul\":11025:11042   */\n      add\n        /* \"#utility.yul\":11018:11065   */\n      mstore\n        /* \"#utility.yul\":11082:11160   */\n      tag_598\n        /* \"#utility.yul\":11155:11159   */\n      dup2\n        /* \"#utility.yul\":11146:11152   */\n      dup11\n        /* \"#utility.yul\":11082:11160   */\n      tag_402\n      jump\t// in\n    tag_598:\n        /* \"#utility.yul\":11074:11160   */\n      swap1\n      pop\n        /* \"#utility.yul\":11170:11242   */\n      tag_599\n        /* \"#utility.yul\":11238:11240   */\n      0x20\n        /* \"#utility.yul\":11227:11236   */\n      dup4\n        /* \"#utility.yul\":11223:11241   */\n      add\n        /* \"#utility.yul\":11214:11220   */\n      dup10\n        /* \"#utility.yul\":11170:11242   */\n      tag_391\n      jump\t// in\n    tag_599:\n        /* \"#utility.yul\":11252:11324   */\n      tag_600\n        /* \"#utility.yul\":11320:11322   */\n      0x40\n        /* \"#utility.yul\":11309:11318   */\n      dup4\n        /* \"#utility.yul\":11305:11323   */\n      add\n        /* \"#utility.yul\":11296:11302   */\n      dup9\n        /* \"#utility.yul\":11252:11324   */\n      tag_391\n      jump\t// in\n    tag_600:\n        /* \"#utility.yul\":11334:11406   */\n      tag_601\n        /* \"#utility.yul\":11402:11404   */\n      0x60\n        /* \"#utility.yul\":11391:11400   */\n      dup4\n        /* \"#utility.yul\":11387:11405   */\n      add\n        /* \"#utility.yul\":11378:11384   */\n      dup8\n        /* \"#utility.yul\":11334:11406   */\n      tag_418\n      jump\t// in\n    tag_601:\n        /* \"#utility.yul\":11416:11489   */\n      tag_602\n        /* \"#utility.yul\":11484:11487   */\n      0x80\n        /* \"#utility.yul\":11473:11482   */\n      dup4\n        /* \"#utility.yul\":11469:11488   */\n      add\n        /* \"#utility.yul\":11460:11466   */\n      dup7\n        /* \"#utility.yul\":11416:11489   */\n      tag_418\n      jump\t// in\n    tag_602:\n        /* \"#utility.yul\":11499:11566   */\n      tag_603\n        /* \"#utility.yul\":11561:11564   */\n      0xa0\n        /* \"#utility.yul\":11550:11559   */\n      dup4\n        /* \"#utility.yul\":11546:11565   */\n      add\n        /* \"#utility.yul\":11537:11543   */\n      dup6\n        /* \"#utility.yul\":11499:11566   */\n      tag_420\n      jump\t// in\n    tag_603:\n        /* \"#utility.yul\":11576:11699   */\n      tag_604\n        /* \"#utility.yul\":11694:11697   */\n      0xc0\n        /* \"#utility.yul\":11683:11692   */\n      dup4\n        /* \"#utility.yul\":11679:11698   */\n      add\n        /* \"#utility.yul\":11670:11676   */\n      dup5\n        /* \"#utility.yul\":11576:11699   */\n      tag_422\n      jump\t// in\n    tag_604:\n        /* \"#utility.yul\":10641:11706   */\n      swap9\n      swap8\n      pop\n      pop\n      pop\n      pop\n      pop\n      pop\n      pop\n      pop\n      jump\t// out\n        /* \"#utility.yul\":11712:12186   */\n    tag_126:\n        /* \"#utility.yul\":11780:11786   */\n      0x00\n        /* \"#utility.yul\":11788:11794   */\n      dup1\n        /* \"#utility.yul\":11837:11839   */\n      0x40\n        /* \"#utility.yul\":11825:11834   */\n      dup4\n        /* \"#utility.yul\":11816:11823   */\n      dup6\n        /* \"#utility.yul\":11812:11835   */\n      sub\n        /* \"#utility.yul\":11808:11840   */\n      slt\n        /* \"#utility.yul\":11805:11924   */\n      iszero\n      tag_606\n      jumpi\n        /* \"#utility.yul\":11843:11922   */\n      tag_607\n      tag_393\n      jump\t// in\n    tag_607:\n        /* \"#utility.yul\":11805:11924   */\n    tag_606:\n        /* \"#utility.yul\":11963:11964   */\n      0x00\n        /* \"#utility.yul\":11988:12041   */\n      tag_608\n        /* \"#utility.yul\":12033:12040   */\n      dup6\n        /* \"#utility.yul\":12024:12030   */\n      dup3\n        /* \"#utility.yul\":12013:12022   */\n      dup7\n        /* \"#utility.yul\":12009:12031   */\n      add\n        /* \"#utility.yul\":11988:12041   */\n      tag_397\n      jump\t// in\n    tag_608:\n        /* \"#utility.yul\":11978:12041   */\n      swap3\n      pop\n        /* \"#utility.yul\":11934:12051   */\n      pop\n        /* \"#utility.yul\":12090:12092   */\n      0x20\n        /* \"#utility.yul\":12116:12169   */\n      tag_609\n        /* \"#utility.yul\":12161:12168   */\n      dup6\n        /* \"#utility.yul\":12152:12158   */\n      dup3\n        /* \"#utility.yul\":12141:12150   */\n      dup7\n        /* \"#utility.yul\":12137:12159   */\n      add\n        /* \"#utility.yul\":12116:12169   */\n      tag_404\n      jump\t// in\n    tag_609:\n        /* \"#utility.yul\":12106:12169   */\n      swap2\n      pop\n        /* \"#utility.yul\":12061:12179   */\n      pop\n        /* \"#utility.yul\":11712:12186   */\n      swap3\n      pop\n      swap3\n      swap1\n      pop\n      jump\t// out\n        /* \"#utility.yul\":12192:12306   */\n    tag_423:\n        /* \"#utility.yul\":12259:12265   */\n      0x00\n        /* \"#utility.yul\":12293:12298   */\n      dup2\n        /* \"#utility.yul\":12287:12299   */\n      mload\n        /* \"#utility.yul\":12277:12299   */\n      swap1\n      pop\n        /* \"#utility.yul\":12192:12306   */\n      swap2\n      swap1\n      pop\n      jump\t// out\n        /* \"#utility.yul\":12312:12496   */\n    tag_424:\n        /* \"#utility.yul\":12411:12422   */\n      0x00\n        /* \"#utility.yul\":12445:12451   */\n      dup3\n        /* \"#utility.yul\":12440:12443   */\n      dup3\n        /* \"#utility.yul\":12433:12452   */\n      mstore\n        /* \"#utility.yul\":12485:12489   */\n      0x20\n        /* \"#utility.yul\":12480:12483   */\n      dup3\n        /* \"#utility.yul\":12476:12490   */\n      add\n        /* \"#utility.yul\":12461:12490   */\n      swap1\n      pop\n        /* \"#utility.yul\":12312:12496   */\n      swap3\n      swap2\n      pop\n      pop\n      jump\t// out\n        /* \"#utility.yul\":12502:12634   */\n    tag_425:\n        /* \"#utility.yul\":12569:12573   */\n      0x00\n        /* \"#utility.yul\":12592:12595   */\n      dup2\n        /* \"#utility.yul\":12584:12595   */\n      swap1\n      pop\n        /* \"#utility.yul\":12622:12626   */\n      0x20\n        /* \"#utility.yul\":12617:12620   */\n      dup3\n        /* \"#utility.yul\":12613:12627   */\n      add\n        /* \"#utility.yul\":12605:12627   */\n      swap1\n      pop\n        /* \"#utility.yul\":12502:12634   */\n      swap2\n      swap1\n      pop\n      jump\t// out\n        /* \"#utility.yul\":12640:12748   */\n    tag_426:\n        /* \"#utility.yul\":12717:12741   */\n      tag_614\n        /* \"#utility.yul\":12735:12740   */\n      dup2\n        /* \"#utility.yul\":12717:12741   */\n      tag_390\n      jump\t// in\n    tag_614:\n        /* \"#utility.yul\":12712:12715   */\n      dup3\n        /* \"#utility.yul\":12705:12742   */\n      mstore\n        /* \"#utility.yul\":12640:12748   */\n      pop\n      pop\n      jump\t// out\n        /* \"#utility.yul\":12754:12933   */\n    tag_427:\n        /* \"#utility.yul\":12823:12833   */\n      0x00\n        /* \"#utility.yul\":12844:12890   */\n      tag_616\n        /* \"#utility.yul\":12886:12889   */\n      dup4\n        /* \"#utility.yul\":12878:12884   */\n      dup4\n        /* \"#utility.yul\":12844:12890   */\n      tag_426\n      jump\t// in\n    tag_616:\n        /* \"#utility.yul\":12922:12926   */\n      0x20\n        /* \"#utility.yul\":12917:12920   */\n      dup4\n        /* \"#utility.yul\":12913:12927   */\n      add\n        /* \"#utility.yul\":12899:12927   */\n      swap1\n      pop\n        /* \"#utility.yul\":12754:12933   */\n      swap3\n      swap2\n      pop\n      pop\n      jump\t// out\n        /* \"#utility.yul\":12939:13052   */\n    tag_428:\n        /* \"#utility.yul\":13009:13013   */\n      0x00\n        /* \"#utility.yul\":13041:13045   */\n      0x20\n        /* \"#utility.yul\":13036:13039   */\n      dup3\n        /* \"#utility.yul\":13032:13046   */\n      add\n        /* \"#utility.yul\":13024:13046   */\n      swap1\n      pop\n        /* \"#utility.yul\":12939:13052   */\n      swap2\n      swap1\n      pop\n      jump\t// out\n        /* \"#utility.yul\":13088:13820   */\n    tag_429:\n        /* \"#utility.yul\":13207:13210   */\n      0x00\n        /* \"#utility.yul\":13236:13290   */\n      tag_619\n        /* \"#utility.yul\":13284:13289   */\n      dup3\n        /* \"#utility.yul\":13236:13290   */\n      tag_423\n      jump\t// in\n    tag_619:\n        /* \"#utility.yul\":13306:13392   */\n      tag_620\n        /* \"#utility.yul\":13385:13391   */\n      dup2\n        /* \"#utility.yul\":13380:13383   */\n      dup6\n        /* \"#utility.yul\":13306:13392   */\n      tag_424\n      jump\t// in\n    tag_620:\n        /* \"#utility.yul\":13299:13392   */\n      swap4\n      pop\n        /* \"#utility.yul\":13416:13472   */\n      tag_621\n        /* \"#utility.yul\":13466:13471   */\n      dup4\n        /* \"#utility.yul\":13416:13472   */\n      tag_425\n      jump\t// in\n    tag_621:\n        /* \"#utility.yul\":13495:13502   */\n      dup1\n        /* \"#utility.yul\":13526:13527   */\n      0x00\n        /* \"#utility.yul\":13511:13795   */\n    tag_622:\n        /* \"#utility.yul\":13536:13542   */\n      dup4\n        /* \"#utility.yul\":13533:13534   */\n      dup2\n        /* \"#utility.yul\":13530:13543   */\n      lt\n        /* \"#utility.yul\":13511:13795   */\n      iszero\n      tag_624\n      jumpi\n        /* \"#utility.yul\":13612:13618   */\n      dup2\n        /* \"#utility.yul\":13606:13619   */\n      mload\n        /* \"#utility.yul\":13639:13702   */\n      tag_625\n        /* \"#utility.yul\":13698:13701   */\n      dup9\n        /* \"#utility.yul\":13683:13696   */\n      dup3\n        /* \"#utility.yul\":13639:13702   */\n      tag_427\n      jump\t// in\n    tag_625:\n        /* \"#utility.yul\":13632:13702   */\n      swap8\n      pop\n        /* \"#utility.yul\":13725:13785   */\n      tag_626\n        /* \"#utility.yul\":13778:13784   */\n      dup4\n        /* \"#utility.yul\":13725:13785   */\n      tag_428\n      jump\t// in\n    tag_626:\n        /* \"#utility.yul\":13715:13785   */\n      swap3\n      pop\n        /* \"#utility.yul\":13571:13795   */\n      pop\n        /* \"#utility.yul\":13558:13559   */\n      0x01\n        /* \"#utility.yul\":13555:13556   */\n      dup2\n        /* \"#utility.yul\":13551:13560   */\n      add\n        /* \"#utility.yul\":13546:13560   */\n      swap1\n      pop\n        /* \"#utility.yul\":13511:13795   */\n      jump(tag_622)\n    tag_624:\n        /* \"#utility.yul\":13515:13529   */\n      pop\n        /* \"#utility.yul\":13811:13814   */\n      dup6\n        /* \"#utility.yul\":13804:13814   */\n      swap4\n      pop\n        /* \"#utility.yul\":13212:13820   */\n      pop\n      pop\n      pop\n        /* \"#utility.yul\":13088:13820   */\n      swap3\n      swap2\n      pop\n      pop\n      jump\t// out\n        /* \"#utility.yul\":13826:14199   */\n    tag_133:\n        /* \"#utility.yul\":13969:13973   */\n      0x00\n        /* \"#utility.yul\":14007:14009   */\n      0x20\n        /* \"#utility.yul\":13996:14005   */\n      dup3\n        /* \"#utility.yul\":13992:14010   */\n      add\n        /* \"#utility.yul\":13984:14010   */\n      swap1\n      pop\n        /* \"#utility.yul\":14056:14065   */\n      dup2\n        /* \"#utility.yul\":14050:14054   */\n      dup2\n        /* \"#utility.yul\":14046:14066   */\n      sub\n        /* \"#utility.yul\":14042:14043   */\n      0x00\n        /* \"#utility.yul\":14031:14040   */\n      dup4\n        /* \"#utility.yul\":14027:14044   */\n      add\n        /* \"#utility.yul\":14020:14067   */\n      mstore\n        /* \"#utility.yul\":14084:14192   */\n      tag_628\n        /* \"#utility.yul\":14187:14191   */\n      dup2\n        /* \"#utility.yul\":14178:14184   */\n      dup5\n        /* \"#utility.yul\":14084:14192   */\n      tag_429\n      jump\t// in\n    tag_628:\n        /* \"#utility.yul\":14076:14192   */\n      swap1\n      pop\n        /* \"#utility.yul\":13826:14199   */\n      swap3\n      swap2\n      pop\n      pop\n      jump\t// out\n        /* \"#utility.yul\":14205:14679   */\n    tag_137:\n        /* \"#utility.yul\":14273:14279   */\n      0x00\n        /* \"#utility.yul\":14281:14287   */\n      dup1\n        /* \"#utility.yul\":14330:14332   */\n      0x40\n        /* \"#utility.yul\":14318:14327   */\n      dup4\n        /* \"#utility.yul\":14309:14316   */\n      dup6\n        /* \"#utility.yul\":14305:14328   */\n      sub\n        /* \"#utility.yul\":14301:14333   */\n      slt\n        /* \"#utility.yul\":14298:14417   */\n      iszero\n      tag_630\n      jumpi\n        /* \"#utility.yul\":14336:14415   */\n      tag_631\n      tag_393\n      jump\t// in\n    tag_631:\n        /* \"#utility.yul\":14298:14417   */\n    tag_630:\n        /* \"#utility.yul\":14456:14457   */\n      0x00\n        /* \"#utility.yul\":14481:14534   */\n      tag_632\n        /* \"#utility.yul\":14526:14533   */\n      dup6\n        /* \"#utility.yul\":14517:14523   */\n      dup3\n        /* \"#utility.yul\":14506:14515   */\n      dup7\n        /* \"#utility.yul\":14502:14524   */\n      add\n        /* \"#utility.yul\":14481:14534   */\n      tag_404\n      jump\t// in\n    tag_632:\n        /* \"#utility.yul\":14471:14534   */\n      swap3\n      pop\n        /* \"#utility.yul\":14427:14544   */\n      pop\n        /* \"#utility.yul\":14583:14585   */\n      0x20\n        /* \"#utility.yul\":14609:14662   */\n      tag_633\n        /* \"#utility.yul\":14654:14661   */\n      dup6\n        /* \"#utility.yul\":14645:14651   */\n      dup3\n        /* \"#utility.yul\":14634:14643   */\n      dup7\n        /* \"#utility.yul\":14630:14652   */\n      add\n        /* \"#utility.yul\":14609:14662   */\n      tag_397\n      jump\t// in\n    tag_633:\n        /* \"#utility.yul\":14599:14662   */\n      swap2\n      pop\n        /* \"#utility.yul\":14554:14672   */\n      pop\n        /* \"#utility.yul\":14205:14679   */\n      swap3\n      pop\n      swap3\n      swap1\n      pop\n      jump\t// out\n        /* \"#utility.yul\":14685:16146   */\n    tag_173:\n        /* \"#utility.yul\":15100:15104   */\n      0x00\n        /* \"#utility.yul\":15138:15141   */\n      0x0140\n        /* \"#utility.yul\":15127:15136   */\n      dup3\n        /* \"#utility.yul\":15123:15142   */\n      add\n        /* \"#utility.yul\":15115:15142   */\n      swap1\n      pop\n        /* \"#utility.yul\":15188:15197   */\n      dup2\n        /* \"#utility.yul\":15182:15186   */\n      dup2\n        /* \"#utility.yul\":15178:15198   */\n      sub\n        /* \"#utility.yul\":15174:15175   */\n      0x00\n        /* \"#utility.yul\":15163:15172   */\n      dup4\n        /* \"#utility.yul\":15159:15176   */\n      add\n        /* \"#utility.yul\":15152:15199   */\n      mstore\n        /* \"#utility.yul\":15216:15324   */\n      tag_635\n        /* \"#utility.yul\":15319:15323   */\n      dup2\n        /* \"#utility.yul\":15310:15316   */\n      dup14\n        /* \"#utility.yul\":15216:15324   */\n      tag_429\n      jump\t// in\n    tag_635:\n        /* \"#utility.yul\":15208:15324   */\n      swap1\n      pop\n        /* \"#utility.yul\":15334:15400   */\n      tag_636\n        /* \"#utility.yul\":15396:15398   */\n      0x20\n        /* \"#utility.yul\":15385:15394   */\n      dup4\n        /* \"#utility.yul\":15381:15399   */\n      add\n        /* \"#utility.yul\":15372:15378   */\n      dup13\n        /* \"#utility.yul\":15334:15400   */\n      tag_420\n      jump\t// in\n    tag_636:\n        /* \"#utility.yul\":15447:15456   */\n      dup2\n        /* \"#utility.yul\":15441:15445   */\n      dup2\n        /* \"#utility.yul\":15437:15457   */\n      sub\n        /* \"#utility.yul\":15432:15434   */\n      0x40\n        /* \"#utility.yul\":15421:15430   */\n      dup4\n        /* \"#utility.yul\":15417:15435   */\n      add\n        /* \"#utility.yul\":15410:15458   */\n      mstore\n        /* \"#utility.yul\":15475:15583   */\n      tag_637\n        /* \"#utility.yul\":15578:15582   */\n      dup2\n        /* \"#utility.yul\":15569:15575   */\n      dup12\n        /* \"#utility.yul\":15475:15583   */\n      tag_429\n      jump\t// in\n    tag_637:\n        /* \"#utility.yul\":15467:15583   */\n      swap1\n      pop\n        /* \"#utility.yul\":15593:15665   */\n      tag_638\n        /* \"#utility.yul\":15661:15663   */\n      0x60\n        /* \"#utility.yul\":15650:15659   */\n      dup4\n        /* \"#utility.yul\":15646:15664   */\n      add\n        /* \"#utility.yul\":15637:15643   */\n      dup11\n        /* \"#utility.yul\":15593:15665   */\n      tag_418\n      jump\t// in\n    tag_638:\n        /* \"#utility.yul\":15675:15742   */\n      tag_639\n        /* \"#utility.yul\":15737:15740   */\n      0x80\n        /* \"#utility.yul\":15726:15735   */\n      dup4\n        /* \"#utility.yul\":15722:15741   */\n      add\n        /* \"#utility.yul\":15713:15719   */\n      dup10\n        /* \"#utility.yul\":15675:15742   */\n      tag_420\n      jump\t// in\n    tag_639:\n        /* \"#utility.yul\":15752:15819   */\n      tag_640\n        /* \"#utility.yul\":15814:15817   */\n      0xa0\n        /* \"#utility.yul\":15803:15812   */\n      dup4\n        /* \"#utility.yul\":15799:15818   */\n      add\n        /* \"#utility.yul\":15790:15796   */\n      dup9\n        /* \"#utility.yul\":15752:15819   */\n      tag_420\n      jump\t// in\n    tag_640:\n        /* \"#utility.yul\":15829:15896   */\n      tag_641\n        /* \"#utility.yul\":15891:15894   */\n      0xc0\n        /* \"#utility.yul\":15880:15889   */\n      dup4\n        /* \"#utility.yul\":15876:15895   */\n      add\n        /* \"#utility.yul\":15867:15873   */\n      dup8\n        /* \"#utility.yul\":15829:15896   */\n      tag_420\n      jump\t// in\n    tag_641:\n        /* \"#utility.yul\":15906:15973   */\n      tag_642\n        /* \"#utility.yul\":15968:15971   */\n      0xe0\n        /* \"#utility.yul\":15957:15966   */\n      dup4\n        /* \"#utility.yul\":15953:15972   */\n      add\n        /* \"#utility.yul\":15944:15950   */\n      dup7\n        /* \"#utility.yul\":15906:15973   */\n      tag_420\n      jump\t// in\n    tag_642:\n        /* \"#utility.yul\":15983:16056   */\n      tag_643\n        /* \"#utility.yul\":16051:16054   */\n      0x0100\n        /* \"#utility.yul\":16040:16049   */\n      dup4\n        /* \"#utility.yul\":16036:16055   */\n      add\n        /* \"#utility.yul\":16027:16033   */\n      dup6\n        /* \"#utility.yul\":15983:16056   */\n      tag_418\n      jump\t// in\n    tag_643:\n        /* \"#utility.yul\":16066:16139   */\n      tag_644\n        /* \"#utility.yul\":16134:16137   */\n      0x0120\n        /* \"#utility.yul\":16123:16132   */\n      dup4\n        /* \"#utility.yul\":16119:16138   */\n      add\n        /* \"#utility.yul\":16110:16116   */\n      dup5\n        /* \"#utility.yul\":16066:16139   */\n      tag_418\n      jump\t// in\n    tag_644:\n        /* \"#utility.yul\":14685:16146   */\n      swap12\n      swap11\n      pop\n      pop\n      pop\n      pop\n      pop\n      pop\n      pop\n      pop\n      pop\n      pop\n      pop\n      jump\t// out\n        /* \"#utility.yul\":16152:16333   */\n    tag_430:\n        /* \"#utility.yul\":16292:16325   */\n      0x5265656e7472616e637947756172643a207265656e7472616e742063616c6c00\n        /* \"#utility.yul\":16288:16289   */\n      0x00\n        /* \"#utility.yul\":16280:16286   */\n      dup3\n        /* \"#utility.yul\":16276:16290   */\n      add\n        /* \"#utility.yul\":16269:16326   */\n      mstore\n        /* \"#utility.yul\":16152:16333   */\n      pop\n      jump\t// out\n        /* \"#utility.yul\":16339:16705   */\n    tag_431:\n        /* \"#utility.yul\":16481:16484   */\n      0x00\n        /* \"#utility.yul\":16502:16569   */\n      tag_647\n        /* \"#utility.yul\":16566:16568   */\n      0x1f\n        /* \"#utility.yul\":16561:16564   */\n      dup4\n        /* \"#utility.yul\":16502:16569   */\n      tag_399\n      jump\t// in\n    tag_647:\n        /* \"#utility.yul\":16495:16569   */\n      swap2\n      pop\n        /* \"#utility.yul\":16578:16671   */\n      tag_648\n        /* \"#utility.yul\":16667:16670   */\n      dup3\n        /* \"#utility.yul\":16578:16671   */\n      tag_430\n      jump\t// in\n    tag_648:\n        /* \"#utility.yul\":16696:16698   */\n      0x20\n        /* \"#utility.yul\":16691:16694   */\n      dup3\n        /* \"#utility.yul\":16687:16699   */\n      add\n        /* \"#utility.yul\":16680:16699   */\n      swap1\n      pop\n        /* \"#utility.yul\":16339:16705   */\n      swap2\n      swap1\n      pop\n      jump\t// out\n        /* \"#utility.yul\":16711:17130   */\n    tag_194:\n        /* \"#utility.yul\":16877:16881   */\n      0x00\n        /* \"#utility.yul\":16915:16917   */\n      0x20\n        /* \"#utility.yul\":16904:16913   */\n      dup3\n        /* \"#utility.yul\":16900:16918   */\n      add\n        /* \"#utility.yul\":16892:16918   */\n      swap1\n      pop\n        /* \"#utility.yul\":16964:16973   */\n      dup2\n        /* \"#utility.yul\":16958:16962   */\n      dup2\n        /* \"#utility.yul\":16954:16974   */\n      sub\n        /* \"#utility.yul\":16950:16951   */\n      0x00\n        /* \"#utility.yul\":16939:16948   */\n      dup4\n        /* \"#utility.yul\":16935:16952   */\n      add\n        /* \"#utility.yul\":16928:16975   */\n      mstore\n        /* \"#utility.yul\":16992:17123   */\n      tag_650\n        /* \"#utility.yul\":17118:17122   */\n      dup2\n        /* \"#utility.yul\":16992:17123   */\n      tag_431\n      jump\t// in\n    tag_650:\n        /* \"#utility.yul\":16984:17123   */\n      swap1\n      pop\n        /* \"#utility.yul\":16711:17130   */\n      swap2\n      swap1\n      pop\n      jump\t// out\n        /* \"#utility.yul\":17136:17316   */\n    tag_198:\n        /* \"#utility.yul\":17184:17261   */\n      0x4e487b7100000000000000000000000000000000000000000000000000000000\n        /* \"#utility.yul\":17181:17182   */\n      0x00\n        /* \"#utility.yul\":17174:17262   */\n      mstore\n        /* \"#utility.yul\":17281:17285   */\n      0x32\n        /* \"#utility.yul\":17278:17279   */\n      0x04\n        /* \"#utility.yul\":17271:17286   */\n      mstore\n        /* \"#utility.yul\":17305:17309   */\n      0x24\n        /* \"#utility.yul\":17302:17303   */\n      0x00\n        /* \"#utility.yul\":17295:17310   */\n      revert\n        /* \"#utility.yul\":17322:17550   */\n    tag_432:\n        /* \"#utility.yul\":17462:17496   */\n      0x596f7520617265206e6f7420746865207065746974696f6e6572206f66207468\n        /* \"#utility.yul\":17458:17459   */\n      0x00\n        /* \"#utility.yul\":17450:17456   */\n      dup3\n        /* \"#utility.yul\":17446:17460   */\n      add\n        /* \"#utility.yul\":17439:17497   */\n      mstore\n        /* \"#utility.yul\":17531:17542   */\n      0x6520726571756573740000000000000000000000000000000000000000000000\n        /* \"#utility.yul\":17526:17528   */\n      0x20\n        /* \"#utility.yul\":17518:17524   */\n      dup3\n        /* \"#utility.yul\":17514:17529   */\n      add\n        /* \"#utility.yul\":17507:17543   */\n      mstore\n        /* \"#utility.yul\":17322:17550   */\n      pop\n      jump\t// out\n        /* \"#utility.yul\":17556:17922   */\n    tag_433:\n        /* \"#utility.yul\":17698:17701   */\n      0x00\n        /* \"#utility.yul\":17719:17786   */\n      tag_654\n        /* \"#utility.yul\":17783:17785   */\n      0x29\n        /* \"#utility.yul\":17778:17781   */\n      dup4\n        /* \"#utility.yul\":17719:17786   */\n      tag_399\n      jump\t// in\n    tag_654:\n        /* \"#utility.yul\":17712:17786   */\n      swap2\n      pop\n        /* \"#utility.yul\":17795:17888   */\n      tag_655\n        /* \"#utility.yul\":17884:17887   */\n      dup3\n        /* \"#utility.yul\":17795:17888   */\n      tag_432\n      jump\t// in\n    tag_655:\n        /* \"#utility.yul\":17913:17915   */\n      0x40\n        /* \"#utility.yul\":17908:17911   */\n      dup3\n        /* \"#utility.yul\":17904:17916   */\n      add\n        /* \"#utility.yul\":17897:17916   */\n      swap1\n      pop\n        /* \"#utility.yul\":17556:17922   */\n      swap2\n      swap1\n      pop\n      jump\t// out\n        /* \"#utility.yul\":17928:18347   */\n    tag_202:\n        /* \"#utility.yul\":18094:18098   */\n      0x00\n        /* \"#utility.yul\":18132:18134   */\n      0x20\n        /* \"#utility.yul\":18121:18130   */\n      dup3\n        /* \"#utility.yul\":18117:18135   */\n      add\n        /* \"#utility.yul\":18109:18135   */\n      swap1\n      pop\n        /* \"#utility.yul\":18181:18190   */\n      dup2\n        /* \"#utility.yul\":18175:18179   */\n      dup2\n        /* \"#utility.yul\":18171:18191   */\n      sub\n        /* \"#utility.yul\":18167:18168   */\n      0x00\n        /* \"#utility.yul\":18156:18165   */\n      dup4\n        /* \"#utility.yul\":18152:18169   */\n      add\n        /* \"#utility.yul\":18145:18192   */\n      mstore\n        /* \"#utility.yul\":18209:18340   */\n      tag_657\n        /* \"#utility.yul\":18335:18339   */\n      dup2\n        /* \"#utility.yul\":18209:18340   */\n      tag_433\n      jump\t// in\n    tag_657:\n        /* \"#utility.yul\":18201:18340   */\n      swap1\n      pop\n        /* \"#utility.yul\":17928:18347   */\n      swap2\n      swap1\n      pop\n      jump\t// out\n        /* \"#utility.yul\":18353:18578   */\n    tag_434:\n        /* \"#utility.yul\":18493:18527   */\n      0x54686520726571756573742068617320616c7265616479206265656e20636f6d\n        /* \"#utility.yul\":18489:18490   */\n      0x00\n        /* \"#utility.yul\":18481:18487   */\n      dup3\n        /* \"#utility.yul\":18477:18491   */\n      add\n        /* \"#utility.yul\":18470:18528   */\n      mstore\n        /* \"#utility.yul\":18562:18570   */\n      0x706c657465640000000000000000000000000000000000000000000000000000\n        /* \"#utility.yul\":18557:18559   */\n      0x20\n        /* \"#utility.yul\":18549:18555   */\n      dup3\n        /* \"#utility.yul\":18545:18560   */\n      add\n        /* \"#utility.yul\":18538:18571   */\n      mstore\n        /* \"#utility.yul\":18353:18578   */\n      pop\n      jump\t// out\n        /* \"#utility.yul\":18584:18950   */\n    tag_435:\n        /* \"#utility.yul\":18726:18729   */\n      0x00\n        /* \"#utility.yul\":18747:18814   */\n      tag_660\n        /* \"#utility.yul\":18811:18813   */\n      0x26\n        /* \"#utility.yul\":18806:18809   */\n      dup4\n        /* \"#utility.yul\":18747:18814   */\n      tag_399\n      jump\t// in\n    tag_660:\n        /* \"#utility.yul\":18740:18814   */\n      swap2\n      pop\n        /* \"#utility.yul\":18823:18916   */\n      tag_661\n        /* \"#utility.yul\":18912:18915   */\n      dup3\n        /* \"#utility.yul\":18823:18916   */\n      tag_434\n      jump\t// in\n    tag_661:\n        /* \"#utility.yul\":18941:18943   */\n      0x40\n        /* \"#utility.yul\":18936:18939   */\n      dup3\n        /* \"#utility.yul\":18932:18944   */\n      add\n        /* \"#utility.yul\":18925:18944   */\n      swap1\n      pop\n        /* \"#utility.yul\":18584:18950   */\n      swap2\n      swap1\n      pop\n      jump\t// out\n        /* \"#utility.yul\":18956:19375   */\n    tag_205:\n        /* \"#utility.yul\":19122:19126   */\n      0x00\n        /* \"#utility.yul\":19160:19162   */\n      0x20\n        /* \"#utility.yul\":19149:19158   */\n      dup3\n        /* \"#utility.yul\":19145:19163   */\n      add\n        /* \"#utility.yul\":19137:19163   */\n      swap1\n      pop\n        /* \"#utility.yul\":19209:19218   */\n      dup2\n        /* \"#utility.yul\":19203:19207   */\n      dup2\n        /* \"#utility.yul\":19199:19219   */\n      sub\n        /* \"#utility.yul\":19195:19196   */\n      0x00\n        /* \"#utility.yul\":19184:19193   */\n      dup4\n        /* \"#utility.yul\":19180:19197   */\n      add\n        /* \"#utility.yul\":19173:19220   */\n      mstore\n        /* \"#utility.yul\":19237:19368   */\n      tag_663\n        /* \"#utility.yul\":19363:19367   */\n      dup2\n        /* \"#utility.yul\":19237:19368   */\n      tag_435\n      jump\t// in\n    tag_663:\n        /* \"#utility.yul\":19229:19368   */\n      swap1\n      pop\n        /* \"#utility.yul\":18956:19375   */\n      swap2\n      swap1\n      pop\n      jump\t// out\n        /* \"#utility.yul\":19381:19561   */\n    tag_436:\n        /* \"#utility.yul\":19429:19506   */\n      0x4e487b7100000000000000000000000000000000000000000000000000000000\n        /* \"#utility.yul\":19426:19427   */\n      0x00\n        /* \"#utility.yul\":19419:19507   */\n      mstore\n        /* \"#utility.yul\":19526:19530   */\n      0x11\n        /* \"#utility.yul\":19523:19524   */\n      0x04\n        /* \"#utility.yul\":19516:19531   */\n      mstore\n        /* \"#utility.yul\":19550:19554   */\n      0x24\n        /* \"#utility.yul\":19547:19548   */\n      0x00\n        /* \"#utility.yul\":19540:19555   */\n      revert\n        /* \"#utility.yul\":19567:19800   */\n    tag_218:\n        /* \"#utility.yul\":19606:19609   */\n      0x00\n        /* \"#utility.yul\":19629:19653   */\n      tag_666\n        /* \"#utility.yul\":19647:19652   */\n      dup3\n        /* \"#utility.yul\":19629:19653   */\n      tag_395\n      jump\t// in\n    tag_666:\n        /* \"#utility.yul\":19620:19653   */\n      swap2\n      pop\n        /* \"#utility.yul\":19675:19741   */\n      0xffffffffffffffffffffffffffffffffffffffffffffffffffffffffffffffff\n        /* \"#utility.yul\":19668:19673   */\n      dup3\n        /* \"#utility.yul\":19665:19742   */\n      sub\n        /* \"#utility.yul\":19662:19765   */\n      tag_667\n      jumpi\n        /* \"#utility.yul\":19745:19763   */\n      tag_668\n      tag_436\n      jump\t// in\n    tag_668:\n        /* \"#utility.yul\":19662:19765   */\n    tag_667:\n        /* \"#utility.yul\":19792:19793   */\n      0x01\n        /* \"#utility.yul\":19785:19790   */\n      dup3\n        /* \"#utility.yul\":19781:19794   */\n      add\n        /* \"#utility.yul\":19774:19794   */\n      swap1\n      pop\n        /* \"#utility.yul\":19567:19800   */\n      swap2\n      swap1\n      pop\n      jump\t// out\n        /* \"#utility.yul\":19806:20154   */\n    tag_223:\n        /* \"#utility.yul\":19846:19853   */\n      0x00\n        /* \"#utility.yul\":19869:19889   */\n      tag_670\n        /* \"#utility.yul\":19887:19888   */\n      dup3\n        /* \"#utility.yul\":19869:19889   */\n      tag_395\n      jump\t// in\n    tag_670:\n        /* \"#utility.yul\":19864:19889   */\n      swap2\n      pop\n        /* \"#utility.yul\":19903:19923   */\n      tag_671\n        /* \"#utility.yul\":19921:19922   */\n      dup4\n        /* \"#utility.yul\":19903:19923   */\n      tag_395\n      jump\t// in\n    tag_671:\n        /* \"#utility.yul\":19898:19923   */\n      swap3\n      pop\n        /* \"#utility.yul\":20091:20092   */\n      dup2\n        /* \"#utility.yul\":20023:20089   */\n      0xffffffffffffffffffffffffffffffffffffffffffffffffffffffffffffffff\n        /* \"#utility.yul\":20019:20093   */\n      div\n        /* \"#utility.yul\":20016:20017   */\n      dup4\n        /* \"#utility.yul\":20013:20094   */\n      gt\n        /* \"#utility.yul\":20008:20009   */\n      dup3\n        /* \"#utility.yul\":20001:20010   */\n      iszero\n        /* \"#utility.yul\":19994:20011   */\n      iszero\n        /* \"#utility.yul\":19990:20095   */\n      and\n        /* \"#utility.yul\":19987:20118   */\n      iszero\n      tag_672\n      jumpi\n        /* \"#utility.yul\":20098:20116   */\n      tag_673\n      tag_436\n      jump\t// in\n    tag_673:\n        /* \"#utility.yul\":19987:20118   */\n    tag_672:\n        /* \"#utility.yul\":20146:20147   */\n      dup3\n        /* \"#utility.yul\":20143:20144   */\n      dup3\n        /* \"#utility.yul\":20139:20148   */\n      mul\n        /* \"#utility.yul\":20128:20148   */\n      swap1\n      pop\n        /* \"#utility.yul\":19806:20154   */\n      swap3\n      swap2\n      pop\n      pop\n      jump\t// out\n        /* \"#utility.yul\":20160:20340   */\n    tag_437:\n        /* \"#utility.yul\":20208:20285   */\n      0x4e487b7100000000000000000000000000000000000000000000000000000000\n        /* \"#utility.yul\":20205:20206   */\n      0x00\n        /* \"#utility.yul\":20198:20286   */\n      mstore\n        /* \"#utility.yul\":20305:20309   */\n      0x12\n        /* \"#utility.yul\":20302:20303   */\n      0x04\n        /* \"#utility.yul\":20295:20310   */\n      mstore\n        /* \"#utility.yul\":20329:20333   */\n      0x24\n        /* \"#utility.yul\":20326:20327   */\n      0x00\n        /* \"#utility.yul\":20319:20334   */\n      revert\n        /* \"#utility.yul\":20346:20531   */\n    tag_225:\n        /* \"#utility.yul\":20386:20387   */\n      0x00\n        /* \"#utility.yul\":20403:20423   */\n      tag_676\n        /* \"#utility.yul\":20421:20422   */\n      dup3\n        /* \"#utility.yul\":20403:20423   */\n      tag_395\n      jump\t// in\n    tag_676:\n        /* \"#utility.yul\":20398:20423   */\n      swap2\n      pop\n        /* \"#utility.yul\":20437:20457   */\n      tag_677\n        /* \"#utility.yul\":20455:20456   */\n      dup4\n        /* \"#utility.yul\":20437:20457   */\n      tag_395\n      jump\t// in\n    tag_677:\n        /* \"#utility.yul\":20432:20457   */\n      swap3\n      pop\n        /* \"#utility.yul\":20476:20477   */\n      dup3\n        /* \"#utility.yul\":20466:20501   */\n      tag_678\n      jumpi\n        /* \"#utility.yul\":20481:20499   */\n      tag_679\n      tag_437\n      jump\t// in\n    tag_679:\n        /* \"#utility.yul\":20466:20501   */\n    tag_678:\n        /* \"#utility.yul\":20523:20524   */\n      dup3\n        /* \"#utility.yul\":20520:20521   */\n      dup3\n        /* \"#utility.yul\":20516:20525   */\n      div\n        /* \"#utility.yul\":20511:20525   */\n      swap1\n      pop\n        /* \"#utility.yul\":20346:20531   */\n      swap3\n      swap2\n      pop\n      pop\n      jump\t// out\n        /* \"#utility.yul\":20537:20761   */\n    tag_438:\n        /* \"#utility.yul\":20677:20711   */\n      0x546865207265717565737420686173206e6f74206265656e20617070726f7665\n        /* \"#utility.yul\":20673:20674   */\n      0x00\n        /* \"#utility.yul\":20665:20671   */\n      dup3\n        /* \"#utility.yul\":20661:20675   */\n      add\n        /* \"#utility.yul\":20654:20712   */\n      mstore\n        /* \"#utility.yul\":20746:20753   */\n      0x6420796574000000000000000000000000000000000000000000000000000000\n        /* \"#utility.yul\":20741:20743   */\n      0x20\n        /* \"#utility.yul\":20733:20739   */\n      dup3\n        /* \"#utility.yul\":20729:20744   */\n      add\n        /* \"#utility.yul\":20722:20754   */\n      mstore\n        /* \"#utility.yul\":20537:20761   */\n      pop\n      jump\t// out\n        /* \"#utility.yul\":20767:21133   */\n    tag_439:\n        /* \"#utility.yul\":20909:20912   */\n      0x00\n        /* \"#utility.yul\":20930:20997   */\n      tag_682\n        /* \"#utility.yul\":20994:20996   */\n      0x25\n        /* \"#utility.yul\":20989:20992   */\n      dup4\n        /* \"#utility.yul\":20930:20997   */\n      tag_399\n      jump\t// in\n    tag_682:\n        /* \"#utility.yul\":20923:20997   */\n      swap2\n      pop\n        /* \"#utility.yul\":21006:21099   */\n      tag_683\n        /* \"#utility.yul\":21095:21098   */\n      dup3\n        /* \"#utility.yul\":21006:21099   */\n      tag_438\n      jump\t// in\n    tag_683:\n        /* \"#utility.yul\":21124:21126   */\n      0x40\n        /* \"#utility.yul\":21119:21122   */\n      dup3\n        /* \"#utility.yul\":21115:21127   */\n      add\n        /* \"#utility.yul\":21108:21127   */\n      swap1\n      pop\n        /* \"#utility.yul\":20767:21133   */\n      swap2\n      swap1\n      pop\n      jump\t// out\n        /* \"#utility.yul\":21139:21558   */\n    tag_228:\n        /* \"#utility.yul\":21305:21309   */\n      0x00\n        /* \"#utility.yul\":21343:21345   */\n      0x20\n        /* \"#utility.yul\":21332:21341   */\n      dup3\n        /* \"#utility.yul\":21328:21346   */\n      add\n        /* \"#utility.yul\":21320:21346   */\n      swap1\n      pop\n        /* \"#utility.yul\":21392:21401   */\n      dup2\n        /* \"#utility.yul\":21386:21390   */\n      dup2\n        /* \"#utility.yul\":21382:21402   */\n      sub\n        /* \"#utility.yul\":21378:21379   */\n      0x00\n        /* \"#utility.yul\":21367:21376   */\n      dup4\n        /* \"#utility.yul\":21363:21380   */\n      add\n        /* \"#utility.yul\":21356:21403   */\n      mstore\n        /* \"#utility.yul\":21420:21551   */\n      tag_685\n        /* \"#utility.yul\":21546:21550   */\n      dup2\n        /* \"#utility.yul\":21420:21551   */\n      tag_439\n      jump\t// in\n    tag_685:\n        /* \"#utility.yul\":21412:21551   */\n      swap1\n      pop\n        /* \"#utility.yul\":21139:21558   */\n      swap2\n      swap1\n      pop\n      jump\t// out\n        /* \"#utility.yul\":21564:21744   */\n    tag_440:\n        /* \"#utility.yul\":21612:21689   */\n      0x4e487b7100000000000000000000000000000000000000000000000000000000\n        /* \"#utility.yul\":21609:21610   */\n      0x00\n        /* \"#utility.yul\":21602:21690   */\n      mstore\n        /* \"#utility.yul\":21709:21713   */\n      0x22\n        /* \"#utility.yul\":21706:21707   */\n      0x04\n        /* \"#utility.yul\":21699:21714   */\n      mstore\n        /* \"#utility.yul\":21733:21737   */\n      0x24\n        /* \"#utility.yul\":21730:21731   */\n      0x00\n        /* \"#utility.yul\":21723:21738   */\n      revert\n        /* \"#utility.yul\":21750:22070   */\n    tag_236:\n        /* \"#utility.yul\":21794:21800   */\n      0x00\n        /* \"#utility.yul\":21831:21832   */\n      0x02\n        /* \"#utility.yul\":21825:21829   */\n      dup3\n        /* \"#utility.yul\":21821:21833   */\n      div\n        /* \"#utility.yul\":21811:21833   */\n      swap1\n      pop\n        /* \"#utility.yul\":21878:21879   */\n      0x01\n        /* \"#utility.yul\":21872:21876   */\n      dup3\n        /* \"#utility.yul\":21868:21880   */\n      and\n        /* \"#utility.yul\":21899:21917   */\n      dup1\n        /* \"#utility.yul\":21889:21970   */\n      tag_688\n      jumpi\n        /* \"#utility.yul\":21955:21959   */\n      0x7f\n        /* \"#utility.yul\":21947:21953   */\n      dup3\n        /* \"#utility.yul\":21943:21960   */\n      and\n        /* \"#utility.yul\":21933:21960   */\n      swap2\n      pop\n        /* \"#utility.yul\":21889:21970   */\n    tag_688:\n        /* \"#utility.yul\":22017:22019   */\n      0x20\n        /* \"#utility.yul\":22009:22015   */\n      dup3\n        /* \"#utility.yul\":22006:22020   */\n      lt\n        /* \"#utility.yul\":21986:22004   */\n      dup2\n        /* \"#utility.yul\":21983:22021   */\n      sub\n        /* \"#utility.yul\":21980:22064   */\n      tag_689\n      jumpi\n        /* \"#utility.yul\":22036:22054   */\n      tag_690\n      tag_440\n      jump\t// in\n    tag_690:\n        /* \"#utility.yul\":21980:22064   */\n    tag_689:\n        /* \"#utility.yul\":21801:22070   */\n      pop\n        /* \"#utility.yul\":21750:22070   */\n      swap2\n      swap1\n      pop\n      jump\t// out\n        /* \"#utility.yul\":22076:22253   */\n    tag_441:\n        /* \"#utility.yul\":22216:22245   */\n      0x52657175657374732063616e206e6f7420626520637265617465640000000000\n        /* \"#utility.yul\":22212:22213   */\n      0x00\n        /* \"#utility.yul\":22204:22210   */\n      dup3\n        /* \"#utility.yul\":22200:22214   */\n      add\n        /* \"#utility.yul\":22193:22246   */\n      mstore\n        /* \"#utility.yul\":22076:22253   */\n      pop\n      jump\t// out\n        /* \"#utility.yul\":22259:22625   */\n    tag_442:\n        /* \"#utility.yul\":22401:22404   */\n      0x00\n        /* \"#utility.yul\":22422:22489   */\n      tag_693\n        /* \"#utility.yul\":22486:22488   */\n      0x1b\n        /* \"#utility.yul\":22481:22484   */\n      dup4\n        /* \"#utility.yul\":22422:22489   */\n      tag_399\n      jump\t// in\n    tag_693:\n        /* \"#utility.yul\":22415:22489   */\n      swap2\n      pop\n        /* \"#utility.yul\":22498:22591   */\n      tag_694\n        /* \"#utility.yul\":22587:22590   */\n      dup3\n        /* \"#utility.yul\":22498:22591   */\n      tag_441\n      jump\t// in\n    tag_694:\n        /* \"#utility.yul\":22616:22618   */\n      0x20\n        /* \"#utility.yul\":22611:22614   */\n      dup3\n        /* \"#utility.yul\":22607:22619   */\n      add\n        /* \"#utility.yul\":22600:22619   */\n      swap1\n      pop\n        /* \"#utility.yul\":22259:22625   */\n      swap2\n      swap1\n      pop\n      jump\t// out\n        /* \"#utility.yul\":22631:23050   */\n    tag_247:\n        /* \"#utility.yul\":22797:22801   */\n      0x00\n        /* \"#utility.yul\":22835:22837   */\n      0x20\n        /* \"#utility.yul\":22824:22833   */\n      dup3\n        /* \"#utility.yul\":22820:22838   */\n      add\n        /* \"#utility.yul\":22812:22838   */\n      swap1\n      pop\n        /* \"#utility.yul\":22884:22893   */\n      dup2\n        /* \"#utility.yul\":22878:22882   */\n      dup2\n        /* \"#utility.yul\":22874:22894   */\n      sub\n        /* \"#utility.yul\":22870:22871   */\n      0x00\n        /* \"#utility.yul\":22859:22868   */\n      dup4\n        /* \"#utility.yul\":22855:22872   */\n      add\n        /* \"#utility.yul\":22848:22895   */\n      mstore\n        /* \"#utility.yul\":22912:23043   */\n      tag_696\n        /* \"#utility.yul\":23038:23042   */\n      dup2\n        /* \"#utility.yul\":22912:23043   */\n      tag_442\n      jump\t// in\n    tag_696:\n        /* \"#utility.yul\":22904:23043   */\n      swap1\n      pop\n        /* \"#utility.yul\":22631:23050   */\n      swap2\n      swap1\n      pop\n      jump\t// out\n        /* \"#utility.yul\":23056:23277   */\n    tag_443:\n        /* \"#utility.yul\":23196:23230   */\n      0x4f6e6c79206d616e61676572732063616e206372656174652061207265717565\n        /* \"#utility.yul\":23192:23193   */\n      0x00\n        /* \"#utility.yul\":23184:23190   */\n      dup3\n        /* \"#utility.yul\":23180:23194   */\n      add\n        /* \"#utility.yul\":23173:23231   */\n      mstore\n        /* \"#utility.yul\":23265:23269   */\n      0x7374000000000000000000000000000000000000000000000000000000000000\n        /* \"#utility.yul\":23260:23262   */\n      0x20\n        /* \"#utility.yul\":23252:23258   */\n      dup3\n        /* \"#utility.yul\":23248:23263   */\n      add\n        /* \"#utility.yul\":23241:23270   */\n      mstore\n        /* \"#utility.yul\":23056:23277   */\n      pop\n      jump\t// out\n        /* \"#utility.yul\":23283:23649   */\n    tag_444:\n        /* \"#utility.yul\":23425:23428   */\n      0x00\n        /* \"#utility.yul\":23446:23513   */\n      tag_699\n        /* \"#utility.yul\":23510:23512   */\n      0x22\n        /* \"#utility.yul\":23505:23508   */\n      dup4\n        /* \"#utility.yul\":23446:23513   */\n      tag_399\n      jump\t// in\n    tag_699:\n        /* \"#utility.yul\":23439:23513   */\n      swap2\n      pop\n        /* \"#utility.yul\":23522:23615   */\n      tag_700\n        /* \"#utility.yul\":23611:23614   */\n      dup3\n        /* \"#utility.yul\":23522:23615   */\n      tag_443\n      jump\t// in\n    tag_700:\n        /* \"#utility.yul\":23640:23642   */\n      0x40\n        /* \"#utility.yul\":23635:23638   */\n      dup3\n        /* \"#utility.yul\":23631:23643   */\n      add\n        /* \"#utility.yul\":23624:23643   */\n      swap1\n      pop\n        /* \"#utility.yul\":23283:23649   */\n      swap2\n      swap1\n      pop\n      jump\t// out\n        /* \"#utility.yul\":23655:24074   */\n    tag_252:\n        /* \"#utility.yul\":23821:23825   */\n      0x00\n        /* \"#utility.yul\":23859:23861   */\n      0x20\n        /* \"#utility.yul\":23848:23857   */\n      dup3\n        /* \"#utility.yul\":23844:23862   */\n      add\n        /* \"#utility.yul\":23836:23862   */\n      swap1\n      pop\n        /* \"#utility.yul\":23908:23917   */\n      dup2\n        /* \"#utility.yul\":23902:23906   */\n      dup2\n        /* \"#utility.yul\":23898:23918   */\n      sub\n        /* \"#utility.yul\":23894:23895   */\n      0x00\n        /* \"#utility.yul\":23883:23892   */\n      dup4\n        /* \"#utility.yul\":23879:23896   */\n      add\n        /* \"#utility.yul\":23872:23919   */\n      mstore\n        /* \"#utility.yul\":23936:24067   */\n      tag_702\n        /* \"#utility.yul\":24062:24066   */\n      dup2\n        /* \"#utility.yul\":23936:24067   */\n      tag_444\n      jump\t// in\n    tag_702:\n        /* \"#utility.yul\":23928:24067   */\n      swap1\n      pop\n        /* \"#utility.yul\":23655:24074   */\n      swap2\n      swap1\n      pop\n      jump\t// out\n        /* \"#utility.yul\":24080:24221   */\n    tag_445:\n        /* \"#utility.yul\":24129:24133   */\n      0x00\n        /* \"#utility.yul\":24152:24155   */\n      dup2\n        /* \"#utility.yul\":24144:24155   */\n      swap1\n      pop\n        /* \"#utility.yul\":24175:24178   */\n      dup2\n        /* \"#utility.yul\":24172:24173   */\n      0x00\n        /* \"#utility.yul\":24165:24179   */\n      mstore\n        /* \"#utility.yul\":24209:24213   */\n      0x20\n        /* \"#utility.yul\":24206:24207   */\n      0x00\n        /* \"#utility.yul\":24196:24214   */\n      keccak256\n        /* \"#utility.yul\":24188:24214   */\n      swap1\n      pop\n        /* \"#utility.yul\":24080:24221   */\n      swap2\n      swap1\n      pop\n      jump\t// out\n        /* \"#utility.yul\":24227:24320   */\n    tag_446:\n        /* \"#utility.yul\":24264:24270   */\n      0x00\n        /* \"#utility.yul\":24311:24313   */\n      0x20\n        /* \"#utility.yul\":24306:24308   */\n      0x1f\n        /* \"#utility.yul\":24299:24304   */\n      dup4\n        /* \"#utility.yul\":24295:24309   */\n      add\n        /* \"#utility.yul\":24291:24314   */\n      div\n        /* \"#utility.yul\":24281:24314   */\n      swap1\n      pop\n        /* \"#utility.yul\":24227:24320   */\n      swap2\n      swap1\n      pop\n      jump\t// out\n        /* \"#utility.yul\":24326:24433   */\n    tag_447:\n        /* \"#utility.yul\":24370:24378   */\n      0x00\n        /* \"#utility.yul\":24420:24425   */\n      dup3\n        /* \"#utility.yul\":24414:24418   */\n      dup3\n        /* \"#utility.yul\":24410:24426   */\n      shl\n        /* \"#utility.yul\":24389:24426   */\n      swap1\n      pop\n        /* \"#utility.yul\":24326:24433   */\n      swap3\n      swap2\n      pop\n      pop\n      jump\t// out\n        /* \"#utility.yul\":24439:24832   */\n    tag_448:\n        /* \"#utility.yul\":24508:24514   */\n      0x00\n        /* \"#utility.yul\":24558:24559   */\n      0x08\n        /* \"#utility.yul\":24546:24556   */\n      dup4\n        /* \"#utility.yul\":24542:24560   */\n      mul\n        /* \"#utility.yul\":24581:24678   */\n      tag_707\n        /* \"#utility.yul\":24611:24677   */\n      0xffffffffffffffffffffffffffffffffffffffffffffffffffffffffffffffff\n        /* \"#utility.yul\":24600:24609   */\n      dup3\n        /* \"#utility.yul\":24581:24678   */\n      tag_447\n      jump\t// in\n    tag_707:\n        /* \"#utility.yul\":24699:24738   */\n      tag_708\n        /* \"#utility.yul\":24729:24737   */\n      dup7\n        /* \"#utility.yul\":24718:24727   */\n      dup4\n        /* \"#utility.yul\":24699:24738   */\n      tag_447\n      jump\t// in\n    tag_708:\n        /* \"#utility.yul\":24687:24738   */\n      swap6\n      pop\n        /* \"#utility.yul\":24771:24775   */\n      dup1\n        /* \"#utility.yul\":24767:24776   */\n      not\n        /* \"#utility.yul\":24760:24765   */\n      dup5\n        /* \"#utility.yul\":24756:24777   */\n      and\n        /* \"#utility.yul\":24747:24777   */\n      swap4\n      pop\n        /* \"#utility.yul\":24820:24824   */\n      dup1\n        /* \"#utility.yul\":24810:24818   */\n      dup7\n        /* \"#utility.yul\":24806:24825   */\n      and\n        /* \"#utility.yul\":24799:24804   */\n      dup5\n        /* \"#utility.yul\":24796:24826   */\n      or\n        /* \"#utility.yul\":24786:24826   */\n      swap3\n      pop\n        /* \"#utility.yul\":24515:24832   */\n      pop\n      pop\n        /* \"#utility.yul\":24439:24832   */\n      swap4\n      swap3\n      pop\n      pop\n      pop\n      jump\t// out\n        /* \"#utility.yul\":24838:24898   */\n    tag_449:\n        /* \"#utility.yul\":24866:24869   */\n      0x00\n        /* \"#utility.yul\":24887:24892   */\n      dup2\n        /* \"#utility.yul\":24880:24892   */\n      swap1\n      pop\n        /* \"#utility.yul\":24838:24898   */\n      swap2\n      swap1\n      pop\n      jump\t// out\n        /* \"#utility.yul\":24904:25046   */\n    tag_450:\n        /* \"#utility.yul\":24954:24963   */\n      0x00\n        /* \"#utility.yul\":24987:25040   */\n      tag_711\n        /* \"#utility.yul\":25005:25039   */\n      tag_712\n        /* \"#utility.yul\":25014:25038   */\n      tag_713\n        /* \"#utility.yul\":25032:25037   */\n      dup5\n        /* \"#utility.yul\":25014:25038   */\n      tag_395\n      jump\t// in\n    tag_713:\n        /* \"#utility.yul\":25005:25039   */\n      tag_449\n      jump\t// in\n    tag_712:\n        /* \"#utility.yul\":24987:25040   */\n      tag_395\n      jump\t// in\n    tag_711:\n        /* \"#utility.yul\":24974:25040   */\n      swap1\n      pop\n        /* \"#utility.yul\":24904:25046   */\n      swap2\n      swap1\n      pop\n      jump\t// out\n        /* \"#utility.yul\":25052:25127   */\n    tag_451:\n        /* \"#utility.yul\":25095:25098   */\n      0x00\n        /* \"#utility.yul\":25116:25121   */\n      dup2\n        /* \"#utility.yul\":25109:25121   */\n      swap1\n      pop\n        /* \"#utility.yul\":25052:25127   */\n      swap2\n      swap1\n      pop\n      jump\t// out\n        /* \"#utility.yul\":25133:25402   */\n    tag_452:\n        /* \"#utility.yul\":25243:25282   */\n      tag_716\n        /* \"#utility.yul\":25274:25281   */\n      dup4\n        /* \"#utility.yul\":25243:25282   */\n      tag_450\n      jump\t// in\n    tag_716:\n        /* \"#utility.yul\":25304:25395   */\n      tag_717\n        /* \"#utility.yul\":25353:25394   */\n      tag_718\n        /* \"#utility.yul\":25377:25393   */\n      dup3\n        /* \"#utility.yul\":25353:25394   */\n      tag_451\n      jump\t// in\n    tag_718:\n        /* \"#utility.yul\":25345:25351   */\n      dup5\n        /* \"#utility.yul\":25338:25342   */\n      dup5\n        /* \"#utility.yul\":25332:25343   */\n      sload\n        /* \"#utility.yul\":25304:25395   */\n      tag_448\n      jump\t// in\n    tag_717:\n        /* \"#utility.yul\":25298:25302   */\n      dup3\n        /* \"#utility.yul\":25291:25396   */\n      sstore\n        /* \"#utility.yul\":25209:25402   */\n      pop\n        /* \"#utility.yul\":25133:25402   */\n      pop\n      pop\n      pop\n      jump\t// out\n        /* \"#utility.yul\":25408:25481   */\n    tag_453:\n        /* \"#utility.yul\":25453:25456   */\n      0x00\n        /* \"#utility.yul\":25408:25481   */\n      swap1\n      jump\t// out\n        /* \"#utility.yul\":25487:25676   */\n    tag_454:\n        /* \"#utility.yul\":25564:25596   */\n      tag_721\n      tag_453\n      jump\t// in\n    tag_721:\n        /* \"#utility.yul\":25605:25670   */\n      tag_722\n        /* \"#utility.yul\":25663:25669   */\n      dup2\n        /* \"#utility.yul\":25655:25661   */\n      dup5\n        /* \"#utility.yul\":25649:25653   */\n      dup5\n        /* \"#utility.yul\":25605:25670   */\n      tag_452\n      jump\t// in\n    tag_722:\n        /* \"#utility.yul\":25540:25676   */\n      pop\n        /* \"#utility.yul\":25487:25676   */\n      pop\n      pop\n      jump\t// out\n        /* \"#utility.yul\":25682:25868   */\n    tag_455:\n        /* \"#utility.yul\":25742:25862   */\n    tag_724:\n        /* \"#utility.yul\":25759:25762   */\n      dup2\n        /* \"#utility.yul\":25752:25757   */\n      dup2\n        /* \"#utility.yul\":25749:25763   */\n      lt\n        /* \"#utility.yul\":25742:25862   */\n      iszero\n      tag_726\n      jumpi\n        /* \"#utility.yul\":25813:25852   */\n      tag_727\n        /* \"#utility.yul\":25850:25851   */\n      0x00\n        /* \"#utility.yul\":25843:25848   */\n      dup3\n        /* \"#utility.yul\":25813:25852   */\n      tag_454\n      jump\t// in\n    tag_727:\n        /* \"#utility.yul\":25786:25787   */\n      0x01\n        /* \"#utility.yul\":25779:25784   */\n      dup2\n        /* \"#utility.yul\":25775:25788   */\n      add\n        /* \"#utility.yul\":25766:25788   */\n      swap1\n      pop\n        /* \"#utility.yul\":25742:25862   */\n      jump(tag_724)\n    tag_726:\n        /* \"#utility.yul\":25682:25868   */\n      pop\n      pop\n      jump\t// out\n        /* \"#utility.yul\":25874:26417   */\n    tag_456:\n        /* \"#utility.yul\":25975:25977   */\n      0x1f\n        /* \"#utility.yul\":25970:25973   */\n      dup3\n        /* \"#utility.yul\":25967:25978   */\n      gt\n        /* \"#utility.yul\":25964:26410   */\n      iszero\n      tag_729\n      jumpi\n        /* \"#utility.yul\":26009:26047   */\n      tag_730\n        /* \"#utility.yul\":26041:26046   */\n      dup2\n        /* \"#utility.yul\":26009:26047   */\n      tag_445\n      jump\t// in\n    tag_730:\n        /* \"#utility.yul\":26093:26122   */\n      tag_731\n        /* \"#utility.yul\":26111:26121   */\n      dup5\n        /* \"#utility.yul\":26093:26122   */\n      tag_446\n      jump\t// in\n    tag_731:\n        /* \"#utility.yul\":26083:26091   */\n      dup2\n        /* \"#utility.yul\":26079:26123   */\n      add\n        /* \"#utility.yul\":26276:26278   */\n      0x20\n        /* \"#utility.yul\":26264:26274   */\n      dup6\n        /* \"#utility.yul\":26261:26279   */\n      lt\n        /* \"#utility.yul\":26258:26307   */\n      iszero\n      tag_732\n      jumpi\n        /* \"#utility.yul\":26297:26305   */\n      dup2\n        /* \"#utility.yul\":26282:26305   */\n      swap1\n      pop\n        /* \"#utility.yul\":26258:26307   */\n    tag_732:\n        /* \"#utility.yul\":26320:26400   */\n      tag_733\n        /* \"#utility.yul\":26376:26398   */\n      tag_734\n        /* \"#utility.yul\":26394:26397   */\n      dup6\n        /* \"#utility.yul\":26376:26398   */\n      tag_446\n      jump\t// in\n    tag_734:\n        /* \"#utility.yul\":26366:26374   */\n      dup4\n        /* \"#utility.yul\":26362:26399   */\n      add\n        /* \"#utility.yul\":26349:26360   */\n      dup3\n        /* \"#utility.yul\":26320:26400   */\n      tag_455\n      jump\t// in\n    tag_733:\n        /* \"#utility.yul\":25979:26410   */\n      pop\n      pop\n        /* \"#utility.yul\":25964:26410   */\n    tag_729:\n        /* \"#utility.yul\":25874:26417   */\n      pop\n      pop\n      pop\n      jump\t// out\n        /* \"#utility.yul\":26423:26540   */\n    tag_457:\n        /* \"#utility.yul\":26477:26485   */\n      0x00\n        /* \"#utility.yul\":26527:26532   */\n      dup3\n        /* \"#utility.yul\":26521:26525   */\n      dup3\n        /* \"#utility.yul\":26517:26533   */\n      shr\n        /* \"#utility.yul\":26496:26533   */\n      swap1\n      pop\n        /* \"#utility.yul\":26423:26540   */\n      swap3\n      swap2\n      pop\n      pop\n      jump\t// out\n        /* \"#utility.yul\":26546:26715   */\n    tag_458:\n        /* \"#utility.yul\":26590:26596   */\n      0x00\n        /* \"#utility.yul\":26623:26674   */\n      tag_737\n        /* \"#utility.yul\":26671:26672   */\n      0x00\n        /* \"#utility.yul\":26667:26673   */\n      not\n        /* \"#utility.yul\":26659:26664   */\n      dup5\n        /* \"#utility.yul\":26656:26657   */\n      0x08\n        /* \"#utility.yul\":26652:26665   */\n      mul\n        /* \"#utility.yul\":26623:26674   */\n      tag_457\n      jump\t// in\n    tag_737:\n        /* \"#utility.yul\":26619:26675   */\n      not\n        /* \"#utility.yul\":26704:26708   */\n      dup1\n        /* \"#utility.yul\":26698:26702   */\n      dup4\n        /* \"#utility.yul\":26694:26709   */\n      and\n        /* \"#utility.yul\":26684:26709   */\n      swap2\n      pop\n        /* \"#utility.yul\":26597:26715   */\n      pop\n        /* \"#utility.yul\":26546:26715   */\n      swap3\n      swap2\n      pop\n      pop\n      jump\t// out\n        /* \"#utility.yul\":26720:27015   */\n    tag_459:\n        /* \"#utility.yul\":26796:26800   */\n      0x00\n        /* \"#utility.yul\":26942:26971   */\n      tag_739\n        /* \"#utility.yul\":26967:26970   */\n      dup4\n        /* \"#utility.yul\":26961:26965   */\n      dup4\n        /* \"#utility.yul\":26942:26971   */\n      tag_458\n      jump\t// in\n    tag_739:\n        /* \"#utility.yul\":26934:26971   */\n      swap2\n      pop\n        /* \"#utility.yul\":27004:27007   */\n      dup3\n        /* \"#utility.yul\":27001:27002   */\n      0x02\n        /* \"#utility.yul\":26997:27008   */\n      mul\n        /* \"#utility.yul\":26991:26995   */\n      dup3\n        /* \"#utility.yul\":26988:27009   */\n      or\n        /* \"#utility.yul\":26980:27009   */\n      swap1\n      pop\n        /* \"#utility.yul\":26720:27015   */\n      swap3\n      swap2\n      pop\n      pop\n      jump\t// out\n        /* \"#utility.yul\":27020:28415   */\n    tag_255:\n        /* \"#utility.yul\":27137:27174   */\n      tag_741\n        /* \"#utility.yul\":27170:27173   */\n      dup3\n        /* \"#utility.yul\":27137:27174   */\n      tag_398\n      jump\t// in\n    tag_741:\n        /* \"#utility.yul\":27239:27257   */\n      0xffffffffffffffff\n        /* \"#utility.yul\":27231:27237   */\n      dup2\n        /* \"#utility.yul\":27228:27258   */\n      gt\n        /* \"#utility.yul\":27225:27281   */\n      iszero\n      tag_742\n      jumpi\n        /* \"#utility.yul\":27261:27279   */\n      tag_743\n      tag_407\n      jump\t// in\n    tag_743:\n        /* \"#utility.yul\":27225:27281   */\n    tag_742:\n        /* \"#utility.yul\":27305:27343   */\n      tag_744\n        /* \"#utility.yul\":27337:27341   */\n      dup3\n        /* \"#utility.yul\":27331:27342   */\n      sload\n        /* \"#utility.yul\":27305:27343   */\n      tag_236\n      jump\t// in\n    tag_744:\n        /* \"#utility.yul\":27390:27457   */\n      tag_745\n        /* \"#utility.yul\":27450:27456   */\n      dup3\n        /* \"#utility.yul\":27442:27448   */\n      dup3\n        /* \"#utility.yul\":27436:27440   */\n      dup6\n        /* \"#utility.yul\":27390:27457   */\n      tag_456\n      jump\t// in\n    tag_745:\n        /* \"#utility.yul\":27484:27485   */\n      0x00\n        /* \"#utility.yul\":27508:27512   */\n      0x20\n        /* \"#utility.yul\":27495:27512   */\n      swap1\n      pop\n        /* \"#utility.yul\":27540:27542   */\n      0x1f\n        /* \"#utility.yul\":27532:27538   */\n      dup4\n        /* \"#utility.yul\":27529:27543   */\n      gt\n        /* \"#utility.yul\":27557:27558   */\n      0x01\n        /* \"#utility.yul\":27552:28170   */\n      dup2\n      eq\n      tag_747\n      jumpi\n        /* \"#utility.yul\":28214:28215   */\n      0x00\n        /* \"#utility.yul\":28231:28237   */\n      dup5\n        /* \"#utility.yul\":28228:28305   */\n      iszero\n      tag_748\n      jumpi\n        /* \"#utility.yul\":28280:28289   */\n      dup3\n        /* \"#utility.yul\":28275:28278   */\n      dup8\n        /* \"#utility.yul\":28271:28290   */\n      add\n        /* \"#utility.yul\":28265:28291   */\n      mload\n        /* \"#utility.yul\":28256:28291   */\n      swap1\n      pop\n        /* \"#utility.yul\":28228:28305   */\n    tag_748:\n        /* \"#utility.yul\":28331:28398   */\n      tag_749\n        /* \"#utility.yul\":28391:28397   */\n      dup6\n        /* \"#utility.yul\":28384:28389   */\n      dup3\n        /* \"#utility.yul\":28331:28398   */\n      tag_459\n      jump\t// in\n    tag_749:\n        /* \"#utility.yul\":28325:28329   */\n      dup7\n        /* \"#utility.yul\":28318:28399   */\n      sstore\n        /* \"#utility.yul\":28187:28409   */\n      pop\n        /* \"#utility.yul\":27522:28409   */\n      jump(tag_746)\n        /* \"#utility.yul\":27552:28170   */\n    tag_747:\n        /* \"#utility.yul\":27604:27608   */\n      0x1f\n        /* \"#utility.yul\":27600:27609   */\n      not\n        /* \"#utility.yul\":27592:27598   */\n      dup5\n        /* \"#utility.yul\":27588:27610   */\n      and\n        /* \"#utility.yul\":27638:27675   */\n      tag_750\n        /* \"#utility.yul\":27670:27674   */\n      dup7\n        /* \"#utility.yul\":27638:27675   */\n      tag_445\n      jump\t// in\n    tag_750:\n        /* \"#utility.yul\":27697:27698   */\n      0x00\n        /* \"#utility.yul\":27711:27919   */\n    tag_751:\n        /* \"#utility.yul\":27725:27732   */\n      dup3\n        /* \"#utility.yul\":27722:27723   */\n      dup2\n        /* \"#utility.yul\":27719:27733   */\n      lt\n        /* \"#utility.yul\":27711:27919   */\n      iszero\n      tag_753\n      jumpi\n        /* \"#utility.yul\":27804:27813   */\n      dup5\n        /* \"#utility.yul\":27799:27802   */\n      dup10\n        /* \"#utility.yul\":27795:27814   */\n      add\n        /* \"#utility.yul\":27789:27815   */\n      mload\n        /* \"#utility.yul\":27781:27787   */\n      dup3\n        /* \"#utility.yul\":27774:27816   */\n      sstore\n        /* \"#utility.yul\":27855:27856   */\n      0x01\n        /* \"#utility.yul\":27847:27853   */\n      dup3\n        /* \"#utility.yul\":27843:27857   */\n      add\n        /* \"#utility.yul\":27833:27857   */\n      swap2\n      pop\n        /* \"#utility.yul\":27902:27904   */\n      0x20\n        /* \"#utility.yul\":27891:27900   */\n      dup6\n        /* \"#utility.yul\":27887:27905   */\n      add\n        /* \"#utility.yul\":27874:27905   */\n      swap5\n      pop\n        /* \"#utility.yul\":27748:27752   */\n      0x20\n        /* \"#utility.yul\":27745:27746   */\n      dup2\n        /* \"#utility.yul\":27741:27753   */\n      add\n        /* \"#utility.yul\":27736:27753   */\n      swap1\n      pop\n        /* \"#utility.yul\":27711:27919   */\n      jump(tag_751)\n    tag_753:\n        /* \"#utility.yul\":27947:27953   */\n      dup7\n        /* \"#utility.yul\":27938:27945   */\n      dup4\n        /* \"#utility.yul\":27935:27954   */\n      lt\n        /* \"#utility.yul\":27932:28111   */\n      iszero\n      tag_754\n      jumpi\n        /* \"#utility.yul\":28005:28014   */\n      dup5\n        /* \"#utility.yul\":28000:28003   */\n      dup10\n        /* \"#utility.yul\":27996:28015   */\n      add\n        /* \"#utility.yul\":27990:28016   */\n      mload\n        /* \"#utility.yul\":28048:28096   */\n      tag_755\n        /* \"#utility.yul\":28090:28094   */\n      0x1f\n        /* \"#utility.yul\":28082:28088   */\n      dup10\n        /* \"#utility.yul\":28078:28095   */\n      and\n        /* \"#utility.yul\":28067:28076   */\n      dup3\n        /* \"#utility.yul\":28048:28096   */\n      tag_458\n      jump\t// in\n    tag_755:\n        /* \"#utility.yul\":28040:28046   */\n      dup4\n        /* \"#utility.yul\":28033:28097   */\n      sstore\n        /* \"#utility.yul\":27955:28111   */\n      pop\n        /* \"#utility.yul\":27932:28111   */\n    tag_754:\n        /* \"#utility.yul\":28157:28158   */\n      0x01\n        /* \"#utility.yul\":28153:28154   */\n      0x02\n        /* \"#utility.yul\":28145:28151   */\n      dup9\n        /* \"#utility.yul\":28141:28155   */\n      mul\n        /* \"#utility.yul\":28137:28159   */\n      add\n        /* \"#utility.yul\":28131:28135   */\n      dup9\n        /* \"#utility.yul\":28124:28160   */\n      sstore\n        /* \"#utility.yul\":27559:28170   */\n      pop\n      pop\n      pop\n        /* \"#utility.yul\":27522:28409   */\n    tag_746:\n      pop\n        /* \"#utility.yul\":27112:28415   */\n      pop\n      pop\n      pop\n        /* \"#utility.yul\":27020:28415   */\n      pop\n      pop\n      jump\t// out\n        /* \"#utility.yul\":28421:28844   */\n    tag_257:\n        /* \"#utility.yul\":28562:28566   */\n      0x00\n        /* \"#utility.yul\":28600:28602   */\n      0x40\n        /* \"#utility.yul\":28589:28598   */\n      dup3\n        /* \"#utility.yul\":28585:28603   */\n      add\n        /* \"#utility.yul\":28577:28603   */\n      swap1\n      pop\n        /* \"#utility.yul\":28649:28658   */\n      dup2\n        /* \"#utility.yul\":28643:28647   */\n      dup2\n        /* \"#utility.yul\":28639:28659   */\n      sub\n        /* \"#utility.yul\":28635:28636   */\n      0x00\n        /* \"#utility.yul\":28624:28633   */\n      dup4\n        /* \"#utility.yul\":28620:28637   */\n      add\n        /* \"#utility.yul\":28613:28660   */\n      mstore\n        /* \"#utility.yul\":28677:28755   */\n      tag_757\n        /* \"#utility.yul\":28750:28754   */\n      dup2\n        /* \"#utility.yul\":28741:28747   */\n      dup6\n        /* \"#utility.yul\":28677:28755   */\n      tag_402\n      jump\t// in\n    tag_757:\n        /* \"#utility.yul\":28669:28755   */\n      swap1\n      pop\n        /* \"#utility.yul\":28765:28837   */\n      tag_758\n        /* \"#utility.yul\":28833:28835   */\n      0x20\n        /* \"#utility.yul\":28822:28831   */\n      dup4\n        /* \"#utility.yul\":28818:28836   */\n      add\n        /* \"#utility.yul\":28809:28815   */\n      dup5\n        /* \"#utility.yul\":28765:28837   */\n      tag_418\n      jump\t// in\n    tag_758:\n        /* \"#utility.yul\":28421:28844   */\n      swap4\n      swap3\n      pop\n      pop\n      pop\n      jump\t// out\n        /* \"#utility.yul\":28850:29029   */\n    tag_460:\n        /* \"#utility.yul\":28990:29021   */\n      0x4e6577206d616e61676572732063616e206e6f74206265206164646564000000\n        /* \"#utility.yul\":28986:28987   */\n      0x00\n        /* \"#utility.yul\":28978:28984   */\n      dup3\n        /* \"#utility.yul\":28974:28988   */\n      add\n        /* \"#utility.yul\":28967:29022   */\n      mstore\n        /* \"#utility.yul\":28850:29029   */\n      pop\n      jump\t// out\n        /* \"#utility.yul\":29035:29401   */\n    tag_461:\n        /* \"#utility.yul\":29177:29180   */\n      0x00\n        /* \"#utility.yul\":29198:29265   */\n      tag_761\n        /* \"#utility.yul\":29262:29264   */\n      0x1d\n        /* \"#utility.yul\":29257:29260   */\n      dup4\n        /* \"#utility.yul\":29198:29265   */\n      tag_399\n      jump\t// in\n    tag_761:\n        /* \"#utility.yul\":29191:29265   */\n      swap2\n      pop\n        /* \"#utility.yul\":29274:29367   */\n      tag_762\n        /* \"#utility.yul\":29363:29366   */\n      dup3\n        /* \"#utility.yul\":29274:29367   */\n      tag_460\n      jump\t// in\n    tag_762:\n        /* \"#utility.yul\":29392:29394   */\n      0x20\n        /* \"#utility.yul\":29387:29390   */\n      dup3\n        /* \"#utility.yul\":29383:29395   */\n      add\n        /* \"#utility.yul\":29376:29395   */\n      swap1\n      pop\n        /* \"#utility.yul\":29035:29401   */\n      swap2\n      swap1\n      pop\n      jump\t// out\n        /* \"#utility.yul\":29407:29826   */\n    tag_261:\n        /* \"#utility.yul\":29573:29577   */\n      0x00\n        /* \"#utility.yul\":29611:29613   */\n      0x20\n        /* \"#utility.yul\":29600:29609   */\n      dup3\n        /* \"#utility.yul\":29596:29614   */\n      add\n        /* \"#utility.yul\":29588:29614   */\n      swap1\n      pop\n        /* \"#utility.yul\":29660:29669   */\n      dup2\n        /* \"#utility.yul\":29654:29658   */\n      dup2\n        /* \"#utility.yul\":29650:29670   */\n      sub\n        /* \"#utility.yul\":29646:29647   */\n      0x00\n        /* \"#utility.yul\":29635:29644   */\n      dup4\n        /* \"#utility.yul\":29631:29648   */\n      add\n        /* \"#utility.yul\":29624:29671   */\n      mstore\n        /* \"#utility.yul\":29688:29819   */\n      tag_764\n        /* \"#utility.yul\":29814:29818   */\n      dup2\n        /* \"#utility.yul\":29688:29819   */\n      tag_461\n      jump\t// in\n    tag_764:\n        /* \"#utility.yul\":29680:29819   */\n      swap1\n      pop\n        /* \"#utility.yul\":29407:29826   */\n      swap2\n      swap1\n      pop\n      jump\t// out\n        /* \"#utility.yul\":29832:30006   */\n    tag_462:\n        /* \"#utility.yul\":29972:29998   */\n      0x4f6e6c79206d616e61676572732063616e206163636573730000000000000000\n        /* \"#utility.yul\":29968:29969   */\n      0x00\n        /* \"#utility.yul\":29960:29966   */\n      dup3\n        /* \"#utility.yul\":29956:29970   */\n      add\n        /* \"#utility.yul\":29949:29999   */\n      mstore\n        /* \"#utility.yul\":29832:30006   */\n      pop\n      jump\t// out\n        /* \"#utility.yul\":30012:30378   */\n    tag_463:\n        /* \"#utility.yul\":30154:30157   */\n      0x00\n        /* \"#utility.yul\":30175:30242   */\n      tag_767\n        /* \"#utility.yul\":30239:30241   */\n      0x18\n        /* \"#utility.yul\":30234:30237   */\n      dup4\n        /* \"#utility.yul\":30175:30242   */\n      tag_399\n      jump\t// in\n    tag_767:\n        /* \"#utility.yul\":30168:30242   */\n      swap2\n      pop\n        /* \"#utility.yul\":30251:30344   */\n      tag_768\n        /* \"#utility.yul\":30340:30343   */\n      dup3\n        /* \"#utility.yul\":30251:30344   */\n      tag_462\n      jump\t// in\n    tag_768:\n        /* \"#utility.yul\":30369:30371   */\n      0x20\n        /* \"#utility.yul\":30364:30367   */\n      dup3\n        /* \"#utility.yul\":30360:30372   */\n      add\n        /* \"#utility.yul\":30353:30372   */\n      swap1\n      pop\n        /* \"#utility.yul\":30012:30378   */\n      swap2\n      swap1\n      pop\n      jump\t// out\n        /* \"#utility.yul\":30384:30803   */\n    tag_264:\n        /* \"#utility.yul\":30550:30554   */\n      0x00\n        /* \"#utility.yul\":30588:30590   */\n      0x20\n        /* \"#utility.yul\":30577:30586   */\n      dup3\n        /* \"#utility.yul\":30573:30591   */\n      add\n        /* \"#utility.yul\":30565:30591   */\n      swap1\n      pop\n        /* \"#utility.yul\":30637:30646   */\n      dup2\n        /* \"#utility.yul\":30631:30635   */\n      dup2\n        /* \"#utility.yul\":30627:30647   */\n      sub\n        /* \"#utility.yul\":30623:30624   */\n      0x00\n        /* \"#utility.yul\":30612:30621   */\n      dup4\n        /* \"#utility.yul\":30608:30625   */\n      add\n        /* \"#utility.yul\":30601:30648   */\n      mstore\n        /* \"#utility.yul\":30665:30796   */\n      tag_770\n        /* \"#utility.yul\":30791:30795   */\n      dup2\n        /* \"#utility.yul\":30665:30796   */\n      tag_463\n      jump\t// in\n    tag_770:\n        /* \"#utility.yul\":30657:30796   */\n      swap1\n      pop\n        /* \"#utility.yul\":30384:30803   */\n      swap2\n      swap1\n      pop\n      jump\t// out\n        /* \"#utility.yul\":30809:31034   */\n    tag_464:\n        /* \"#utility.yul\":30949:30983   */\n      0x596f75206861766520746f2073656e64206f6e65206f72206d6f726520616464\n        /* \"#utility.yul\":30945:30946   */\n      0x00\n        /* \"#utility.yul\":30937:30943   */\n      dup3\n        /* \"#utility.yul\":30933:30947   */\n      add\n        /* \"#utility.yul\":30926:30984   */\n      mstore\n        /* \"#utility.yul\":31018:31026   */\n      0x7265737365730000000000000000000000000000000000000000000000000000\n        /* \"#utility.yul\":31013:31015   */\n      0x20\n        /* \"#utility.yul\":31005:31011   */\n      dup3\n        /* \"#utility.yul\":31001:31016   */\n      add\n        /* \"#utility.yul\":30994:31027   */\n      mstore\n        /* \"#utility.yul\":30809:31034   */\n      pop\n      jump\t// out\n        /* \"#utility.yul\":31040:31406   */\n    tag_465:\n        /* \"#utility.yul\":31182:31185   */\n      0x00\n        /* \"#utility.yul\":31203:31270   */\n      tag_773\n        /* \"#utility.yul\":31267:31269   */\n      0x26\n        /* \"#utility.yul\":31262:31265   */\n      dup4\n        /* \"#utility.yul\":31203:31270   */\n      tag_399\n      jump\t// in\n    tag_773:\n        /* \"#utility.yul\":31196:31270   */\n      swap2\n      pop\n        /* \"#utility.yul\":31279:31372   */\n      tag_774\n        /* \"#utility.yul\":31368:31371   */\n      dup3\n        /* \"#utility.yul\":31279:31372   */\n      tag_464\n      jump\t// in\n    tag_774:\n        /* \"#utility.yul\":31397:31399   */\n      0x40\n        /* \"#utility.yul\":31392:31395   */\n      dup3\n        /* \"#utility.yul\":31388:31400   */\n      add\n        /* \"#utility.yul\":31381:31400   */\n      swap1\n      pop\n        /* \"#utility.yul\":31040:31406   */\n      swap2\n      swap1\n      pop\n      jump\t// out\n        /* \"#utility.yul\":31412:31831   */\n    tag_267:\n        /* \"#utility.yul\":31578:31582   */\n      0x00\n        /* \"#utility.yul\":31616:31618   */\n      0x20\n        /* \"#utility.yul\":31605:31614   */\n      dup3\n        /* \"#utility.yul\":31601:31619   */\n      add\n        /* \"#utility.yul\":31593:31619   */\n      swap1\n      pop\n        /* \"#utility.yul\":31665:31674   */\n      dup2\n        /* \"#utility.yul\":31659:31663   */\n      dup2\n        /* \"#utility.yul\":31655:31675   */\n      sub\n        /* \"#utility.yul\":31651:31652   */\n      0x00\n        /* \"#utility.yul\":31640:31649   */\n      dup4\n        /* \"#utility.yul\":31636:31653   */\n      add\n        /* \"#utility.yul\":31629:31676   */\n      mstore\n        /* \"#utility.yul\":31693:31824   */\n      tag_776\n        /* \"#utility.yul\":31819:31823   */\n      dup2\n        /* \"#utility.yul\":31693:31824   */\n      tag_465\n      jump\t// in\n    tag_776:\n        /* \"#utility.yul\":31685:31824   */\n      swap1\n      pop\n        /* \"#utility.yul\":31412:31831   */\n      swap2\n      swap1\n      pop\n      jump\t// out\n        /* \"#utility.yul\":31837:32073   */\n    tag_466:\n        /* \"#utility.yul\":31977:32011   */\n      0x4d616e61676572732063616e206e6f74207472616e73666572206d6f6e657920\n        /* \"#utility.yul\":31973:31974   */\n      0x00\n        /* \"#utility.yul\":31965:31971   */\n      dup3\n        /* \"#utility.yul\":31961:31975   */\n      add\n        /* \"#utility.yul\":31954:32012   */\n      mstore\n        /* \"#utility.yul\":32046:32065   */\n      0x776974686f757420612072657175657374000000000000000000000000000000\n        /* \"#utility.yul\":32041:32043   */\n      0x20\n        /* \"#utility.yul\":32033:32039   */\n      dup3\n        /* \"#utility.yul\":32029:32044   */\n      add\n        /* \"#utility.yul\":32022:32066   */\n      mstore\n        /* \"#utility.yul\":31837:32073   */\n      pop\n      jump\t// out\n        /* \"#utility.yul\":32079:32445   */\n    tag_467:\n        /* \"#utility.yul\":32221:32224   */\n      0x00\n        /* \"#utility.yul\":32242:32309   */\n      tag_779\n        /* \"#utility.yul\":32306:32308   */\n      0x31\n        /* \"#utility.yul\":32301:32304   */\n      dup4\n        /* \"#utility.yul\":32242:32309   */\n      tag_399\n      jump\t// in\n    tag_779:\n        /* \"#utility.yul\":32235:32309   */\n      swap2\n      pop\n        /* \"#utility.yul\":32318:32411   */\n      tag_780\n        /* \"#utility.yul\":32407:32410   */\n      dup3\n        /* \"#utility.yul\":32318:32411   */\n      tag_466\n      jump\t// in\n    tag_780:\n        /* \"#utility.yul\":32436:32438   */\n      0x40\n        /* \"#utility.yul\":32431:32434   */\n      dup3\n        /* \"#utility.yul\":32427:32439   */\n      add\n        /* \"#utility.yul\":32420:32439   */\n      swap1\n      pop\n        /* \"#utility.yul\":32079:32445   */\n      swap2\n      swap1\n      pop\n      jump\t// out\n        /* \"#utility.yul\":32451:32870   */\n    tag_311:\n        /* \"#utility.yul\":32617:32621   */\n      0x00\n        /* \"#utility.yul\":32655:32657   */\n      0x20\n        /* \"#utility.yul\":32644:32653   */\n      dup3\n        /* \"#utility.yul\":32640:32658   */\n      add\n        /* \"#utility.yul\":32632:32658   */\n      swap1\n      pop\n        /* \"#utility.yul\":32704:32713   */\n      dup2\n        /* \"#utility.yul\":32698:32702   */\n      dup2\n        /* \"#utility.yul\":32694:32714   */\n      sub\n        /* \"#utility.yul\":32690:32691   */\n      0x00\n        /* \"#utility.yul\":32679:32688   */\n      dup4\n        /* \"#utility.yul\":32675:32692   */\n      add\n        /* \"#utility.yul\":32668:32715   */\n      mstore\n        /* \"#utility.yul\":32732:32863   */\n      tag_782\n        /* \"#utility.yul\":32858:32862   */\n      dup2\n        /* \"#utility.yul\":32732:32863   */\n      tag_467\n      jump\t// in\n    tag_782:\n        /* \"#utility.yul\":32724:32863   */\n      swap1\n      pop\n        /* \"#utility.yul\":32451:32870   */\n      swap2\n      swap1\n      pop\n      jump\t// out\n        /* \"#utility.yul\":32876:33101   */\n    tag_468:\n        /* \"#utility.yul\":33016:33050   */\n      0x596f75206861766520616c726561647920617070726f76656420746869732072\n        /* \"#utility.yul\":33012:33013   */\n      0x00\n        /* \"#utility.yul\":33004:33010   */\n      dup3\n        /* \"#utility.yul\":33000:33014   */\n      add\n        /* \"#utility.yul\":32993:33051   */\n      mstore\n        /* \"#utility.yul\":33085:33093   */\n      0x6571756573740000000000000000000000000000000000000000000000000000\n        /* \"#utility.yul\":33080:33082   */\n      0x20\n        /* \"#utility.yul\":33072:33078   */\n      dup3\n        /* \"#utility.yul\":33068:33083   */\n      add\n        /* \"#utility.yul\":33061:33094   */\n      mstore\n        /* \"#utility.yul\":32876:33101   */\n      pop\n      jump\t// out\n        /* \"#utility.yul\":33107:33473   */\n    tag_469:\n        /* \"#utility.yul\":33249:33252   */\n      0x00\n        /* \"#utility.yul\":33270:33337   */\n      tag_785\n        /* \"#utility.yul\":33334:33336   */\n      0x26\n        /* \"#utility.yul\":33329:33332   */\n      dup4\n        /* \"#utility.yul\":33270:33337   */\n      tag_399\n      jump\t// in\n    tag_785:\n        /* \"#utility.yul\":33263:33337   */\n      swap2\n      pop\n        /* \"#utility.yul\":33346:33439   */\n      tag_786\n        /* \"#utility.yul\":33435:33438   */\n      dup3\n        /* \"#utility.yul\":33346:33439   */\n      tag_468\n      jump\t// in\n    tag_786:\n        /* \"#utility.yul\":33464:33466   */\n      0x40\n        /* \"#utility.yul\":33459:33462   */\n      dup3\n        /* \"#utility.yul\":33455:33467   */\n      add\n        /* \"#utility.yul\":33448:33467   */\n      swap1\n      pop\n        /* \"#utility.yul\":33107:33473   */\n      swap2\n      swap1\n      pop\n      jump\t// out\n        /* \"#utility.yul\":33479:33898   */\n    tag_331:\n        /* \"#utility.yul\":33645:33649   */\n      0x00\n        /* \"#utility.yul\":33683:33685   */\n      0x20\n        /* \"#utility.yul\":33672:33681   */\n      dup3\n        /* \"#utility.yul\":33668:33686   */\n      add\n        /* \"#utility.yul\":33660:33686   */\n      swap1\n      pop\n        /* \"#utility.yul\":33732:33741   */\n      dup2\n        /* \"#utility.yul\":33726:33730   */\n      dup2\n        /* \"#utility.yul\":33722:33742   */\n      sub\n        /* \"#utility.yul\":33718:33719   */\n      0x00\n        /* \"#utility.yul\":33707:33716   */\n      dup4\n        /* \"#utility.yul\":33703:33720   */\n      add\n        /* \"#utility.yul\":33696:33743   */\n      mstore\n        /* \"#utility.yul\":33760:33891   */\n      tag_788\n        /* \"#utility.yul\":33886:33890   */\n      dup2\n        /* \"#utility.yul\":33760:33891   */\n      tag_469\n      jump\t// in\n    tag_788:\n        /* \"#utility.yul\":33752:33891   */\n      swap1\n      pop\n        /* \"#utility.yul\":33479:33898   */\n      swap2\n      swap1\n      pop\n      jump\t// out\n        /* \"#utility.yul\":33904:34201   */\n    tag_470:\n        /* \"#utility.yul\":34044:34078   */\n      0x446f206e6f7420726561636820746865206d696e696d756d20636f6e74726962\n        /* \"#utility.yul\":34040:34041   */\n      0x00\n        /* \"#utility.yul\":34032:34038   */\n      dup3\n        /* \"#utility.yul\":34028:34042   */\n      add\n        /* \"#utility.yul\":34021:34079   */\n      mstore\n        /* \"#utility.yul\":34113:34147   */\n      0x7574696f6e2070657263656e74616765206f7220796f7520617265206e6f7420\n        /* \"#utility.yul\":34108:34110   */\n      0x20\n        /* \"#utility.yul\":34100:34106   */\n      dup3\n        /* \"#utility.yul\":34096:34111   */\n      add\n        /* \"#utility.yul\":34089:34148   */\n      mstore\n        /* \"#utility.yul\":34182:34193   */\n      0x61206d616e616765720000000000000000000000000000000000000000000000\n        /* \"#utility.yul\":34177:34179   */\n      0x40\n        /* \"#utility.yul\":34169:34175   */\n      dup3\n        /* \"#utility.yul\":34165:34180   */\n      add\n        /* \"#utility.yul\":34158:34194   */\n      mstore\n        /* \"#utility.yul\":33904:34201   */\n      pop\n      jump\t// out\n        /* \"#utility.yul\":34207:34573   */\n    tag_471:\n        /* \"#utility.yul\":34349:34352   */\n      0x00\n        /* \"#utility.yul\":34370:34437   */\n      tag_791\n        /* \"#utility.yul\":34434:34436   */\n      0x49\n        /* \"#utility.yul\":34429:34432   */\n      dup4\n        /* \"#utility.yul\":34370:34437   */\n      tag_399\n      jump\t// in\n    tag_791:\n        /* \"#utility.yul\":34363:34437   */\n      swap2\n      pop\n        /* \"#utility.yul\":34446:34539   */\n      tag_792\n        /* \"#utility.yul\":34535:34538   */\n      dup3\n        /* \"#utility.yul\":34446:34539   */\n      tag_470\n      jump\t// in\n    tag_792:\n        /* \"#utility.yul\":34564:34566   */\n      0x60\n        /* \"#utility.yul\":34559:34562   */\n      dup3\n        /* \"#utility.yul\":34555:34567   */\n      add\n        /* \"#utility.yul\":34548:34567   */\n      swap1\n      pop\n        /* \"#utility.yul\":34207:34573   */\n      swap2\n      swap1\n      pop\n      jump\t// out\n        /* \"#utility.yul\":34579:34998   */\n    tag_340:\n        /* \"#utility.yul\":34745:34749   */\n      0x00\n        /* \"#utility.yul\":34783:34785   */\n      0x20\n        /* \"#utility.yul\":34772:34781   */\n      dup3\n        /* \"#utility.yul\":34768:34786   */\n      add\n        /* \"#utility.yul\":34760:34786   */\n      swap1\n      pop\n        /* \"#utility.yul\":34832:34841   */\n      dup2\n        /* \"#utility.yul\":34826:34830   */\n      dup2\n        /* \"#utility.yul\":34822:34842   */\n      sub\n        /* \"#utility.yul\":34818:34819   */\n      0x00\n        /* \"#utility.yul\":34807:34816   */\n      dup4\n        /* \"#utility.yul\":34803:34820   */\n      add\n        /* \"#utility.yul\":34796:34843   */\n      mstore\n        /* \"#utility.yul\":34860:34991   */\n      tag_794\n        /* \"#utility.yul\":34986:34990   */\n      dup2\n        /* \"#utility.yul\":34860:34991   */\n      tag_471\n      jump\t// in\n    tag_794:\n        /* \"#utility.yul\":34852:34991   */\n      swap1\n      pop\n        /* \"#utility.yul\":34579:34998   */\n      swap2\n      swap1\n      pop\n      jump\t// out\n        /* \"#utility.yul\":35004:35181   */\n    tag_472:\n        /* \"#utility.yul\":35144:35173   */\n      0x4d616e61676572732063616e206e6f742062652072656d6f7665640000000000\n        /* \"#utility.yul\":35140:35141   */\n      0x00\n        /* \"#utility.yul\":35132:35138   */\n      dup3\n        /* \"#utility.yul\":35128:35142   */\n      add\n        /* \"#utility.yul\":35121:35174   */\n      mstore\n        /* \"#utility.yul\":35004:35181   */\n      pop\n      jump\t// out\n        /* \"#utility.yul\":35187:35553   */\n    tag_473:\n        /* \"#utility.yul\":35329:35332   */\n      0x00\n        /* \"#utility.yul\":35350:35417   */\n      tag_797\n        /* \"#utility.yul\":35414:35416   */\n      0x1b\n        /* \"#utility.yul\":35409:35412   */\n      dup4\n        /* \"#utility.yul\":35350:35417   */\n      tag_399\n      jump\t// in\n    tag_797:\n        /* \"#utility.yul\":35343:35417   */\n      swap2\n      pop\n        /* \"#utility.yul\":35426:35519   */\n      tag_798\n        /* \"#utility.yul\":35515:35518   */\n      dup3\n        /* \"#utility.yul\":35426:35519   */\n      tag_472\n      jump\t// in\n    tag_798:\n        /* \"#utility.yul\":35544:35546   */\n      0x20\n        /* \"#utility.yul\":35539:35542   */\n      dup3\n        /* \"#utility.yul\":35535:35547   */\n      add\n        /* \"#utility.yul\":35528:35547   */\n      swap1\n      pop\n        /* \"#utility.yul\":35187:35553   */\n      swap2\n      swap1\n      pop\n      jump\t// out\n        /* \"#utility.yul\":35559:35978   */\n    tag_346:\n        /* \"#utility.yul\":35725:35729   */\n      0x00\n        /* \"#utility.yul\":35763:35765   */\n      0x20\n        /* \"#utility.yul\":35752:35761   */\n      dup3\n        /* \"#utility.yul\":35748:35766   */\n      add\n        /* \"#utility.yul\":35740:35766   */\n      swap1\n      pop\n        /* \"#utility.yul\":35812:35821   */\n      dup2\n        /* \"#utility.yul\":35806:35810   */\n      dup2\n        /* \"#utility.yul\":35802:35822   */\n      sub\n        /* \"#utility.yul\":35798:35799   */\n      0x00\n        /* \"#utility.yul\":35787:35796   */\n      dup4\n        /* \"#utility.yul\":35783:35800   */\n      add\n        /* \"#utility.yul\":35776:35823   */\n      mstore\n        /* \"#utility.yul\":35840:35971   */\n      tag_800\n        /* \"#utility.yul\":35966:35970   */\n      dup2\n        /* \"#utility.yul\":35840:35971   */\n      tag_473\n      jump\t// in\n    tag_800:\n        /* \"#utility.yul\":35832:35971   */\n      swap1\n      pop\n        /* \"#utility.yul\":35559:35978   */\n      swap2\n      swap1\n      pop\n      jump\t// out\n        /* \"#utility.yul\":35984:36232   */\n    tag_474:\n        /* \"#utility.yul\":36124:36158   */\n      0x546865726520776f756c64206265206e6f2077617920746f2077697468647261\n        /* \"#utility.yul\":36120:36121   */\n      0x00\n        /* \"#utility.yul\":36112:36118   */\n      dup3\n        /* \"#utility.yul\":36108:36122   */\n      add\n        /* \"#utility.yul\":36101:36159   */\n      mstore\n        /* \"#utility.yul\":36193:36224   */\n      0x7720746865206d6f6e65792066726f6d2074686520636f6e7472616374000000\n        /* \"#utility.yul\":36188:36190   */\n      0x20\n        /* \"#utility.yul\":36180:36186   */\n      dup3\n        /* \"#utility.yul\":36176:36191   */\n      add\n        /* \"#utility.yul\":36169:36225   */\n      mstore\n        /* \"#utility.yul\":35984:36232   */\n      pop\n      jump\t// out\n        /* \"#utility.yul\":36238:36604   */\n    tag_475:\n        /* \"#utility.yul\":36380:36383   */\n      0x00\n        /* \"#utility.yul\":36401:36468   */\n      tag_803\n        /* \"#utility.yul\":36465:36467   */\n      0x3d\n        /* \"#utility.yul\":36460:36463   */\n      dup4\n        /* \"#utility.yul\":36401:36468   */\n      tag_399\n      jump\t// in\n    tag_803:\n        /* \"#utility.yul\":36394:36468   */\n      swap2\n      pop\n        /* \"#utility.yul\":36477:36570   */\n      tag_804\n        /* \"#utility.yul\":36566:36569   */\n      dup3\n        /* \"#utility.yul\":36477:36570   */\n      tag_474\n      jump\t// in\n    tag_804:\n        /* \"#utility.yul\":36595:36597   */\n      0x40\n        /* \"#utility.yul\":36590:36593   */\n      dup3\n        /* \"#utility.yul\":36586:36598   */\n      add\n        /* \"#utility.yul\":36579:36598   */\n      swap1\n      pop\n        /* \"#utility.yul\":36238:36604   */\n      swap2\n      swap1\n      pop\n      jump\t// out\n        /* \"#utility.yul\":36610:37029   */\n    tag_354:\n        /* \"#utility.yul\":36776:36780   */\n      0x00\n        /* \"#utility.yul\":36814:36816   */\n      0x20\n        /* \"#utility.yul\":36803:36812   */\n      dup3\n        /* \"#utility.yul\":36799:36817   */\n      add\n        /* \"#utility.yul\":36791:36817   */\n      swap1\n      pop\n        /* \"#utility.yul\":36863:36872   */\n      dup2\n        /* \"#utility.yul\":36857:36861   */\n      dup2\n        /* \"#utility.yul\":36853:36873   */\n      sub\n        /* \"#utility.yul\":36849:36850   */\n      0x00\n        /* \"#utility.yul\":36838:36847   */\n      dup4\n        /* \"#utility.yul\":36834:36851   */\n      add\n        /* \"#utility.yul\":36827:36874   */\n      mstore\n        /* \"#utility.yul\":36891:37022   */\n      tag_806\n        /* \"#utility.yul\":37017:37021   */\n      dup2\n        /* \"#utility.yul\":36891:37022   */\n      tag_475\n      jump\t// in\n    tag_806:\n        /* \"#utility.yul\":36883:37022   */\n      swap1\n      pop\n        /* \"#utility.yul\":36610:37029   */\n      swap2\n      swap1\n      pop\n      jump\t// out\n        /* \"#utility.yul\":37035:37215   */\n    tag_369:\n        /* \"#utility.yul\":37083:37160   */\n      0x4e487b7100000000000000000000000000000000000000000000000000000000\n        /* \"#utility.yul\":37080:37081   */\n      0x00\n        /* \"#utility.yul\":37073:37161   */\n      mstore\n        /* \"#utility.yul\":37180:37184   */\n      0x31\n        /* \"#utility.yul\":37177:37178   */\n      0x04\n        /* \"#utility.yul\":37170:37185   */\n      mstore\n        /* \"#utility.yul\":37204:37208   */\n      0x24\n        /* \"#utility.yul\":37201:37202   */\n      0x00\n        /* \"#utility.yul\":37194:37209   */\n      revert\n        /* \"#utility.yul\":37221:37450   */\n    tag_476:\n        /* \"#utility.yul\":37361:37395   */\n      0x54686520636f6e747269627574696f6e206d7573742062652067726561746572\n        /* \"#utility.yul\":37357:37358   */\n      0x00\n        /* \"#utility.yul\":37349:37355   */\n      dup3\n        /* \"#utility.yul\":37345:37359   */\n      add\n        /* \"#utility.yul\":37338:37396   */\n      mstore\n        /* \"#utility.yul\":37430:37442   */\n      0x207468616e207a65726f00000000000000000000000000000000000000000000\n        /* \"#utility.yul\":37425:37427   */\n      0x20\n        /* \"#utility.yul\":37417:37423   */\n      dup3\n        /* \"#utility.yul\":37413:37428   */\n      add\n        /* \"#utility.yul\":37406:37443   */\n      mstore\n        /* \"#utility.yul\":37221:37450   */\n      pop\n      jump\t// out\n        /* \"#utility.yul\":37456:37822   */\n    tag_477:\n        /* \"#utility.yul\":37598:37601   */\n      0x00\n        /* \"#utility.yul\":37619:37686   */\n      tag_810\n        /* \"#utility.yul\":37683:37685   */\n      0x2a\n        /* \"#utility.yul\":37678:37681   */\n      dup4\n        /* \"#utility.yul\":37619:37686   */\n      tag_399\n      jump\t// in\n    tag_810:\n        /* \"#utility.yul\":37612:37686   */\n      swap2\n      pop\n        /* \"#utility.yul\":37695:37788   */\n      tag_811\n        /* \"#utility.yul\":37784:37787   */\n      dup3\n        /* \"#utility.yul\":37695:37788   */\n      tag_476\n      jump\t// in\n    tag_811:\n        /* \"#utility.yul\":37813:37815   */\n      0x40\n        /* \"#utility.yul\":37808:37811   */\n      dup3\n        /* \"#utility.yul\":37804:37816   */\n      add\n        /* \"#utility.yul\":37797:37816   */\n      swap1\n      pop\n        /* \"#utility.yul\":37456:37822   */\n      swap2\n      swap1\n      pop\n      jump\t// out\n        /* \"#utility.yul\":37828:38247   */\n    tag_381:\n        /* \"#utility.yul\":37994:37998   */\n      0x00\n        /* \"#utility.yul\":38032:38034   */\n      0x20\n        /* \"#utility.yul\":38021:38030   */\n      dup3\n        /* \"#utility.yul\":38017:38035   */\n      add\n        /* \"#utility.yul\":38009:38035   */\n      swap1\n      pop\n        /* \"#utility.yul\":38081:38090   */\n      dup2\n        /* \"#utility.yul\":38075:38079   */\n      dup2\n        /* \"#utility.yul\":38071:38091   */\n      sub\n        /* \"#utility.yul\":38067:38068   */\n      0x00\n        /* \"#utility.yul\":38056:38065   */\n      dup4\n        /* \"#utility.yul\":38052:38069   */\n      add\n        /* \"#utility.yul\":38045:38092   */\n      mstore\n        /* \"#utility.yul\":38109:38240   */\n      tag_813\n        /* \"#utility.yul\":38235:38239   */\n      dup2\n        /* \"#utility.yul\":38109:38240   */\n      tag_477\n      jump\t// in\n    tag_813:\n        /* \"#utility.yul\":38101:38240   */\n      swap1\n      pop\n        /* \"#utility.yul\":37828:38247   */\n      swap2\n      swap1\n      pop\n      jump\t// out\n        /* \"#utility.yul\":38253:38444   */\n    tag_385:\n        /* \"#utility.yul\":38293:38296   */\n      0x00\n        /* \"#utility.yul\":38312:38332   */\n      tag_815\n        /* \"#utility.yul\":38330:38331   */\n      dup3\n        /* \"#utility.yul\":38312:38332   */\n      tag_395\n      jump\t// in\n    tag_815:\n        /* \"#utility.yul\":38307:38332   */\n      swap2\n      pop\n        /* \"#utility.yul\":38346:38366   */\n      tag_816\n        /* \"#utility.yul\":38364:38365   */\n      dup4\n        /* \"#utility.yul\":38346:38366   */\n      tag_395\n      jump\t// in\n    tag_816:\n        /* \"#utility.yul\":38341:38366   */\n      swap3\n      pop\n        /* \"#utility.yul\":38389:38390   */\n      dup3\n        /* \"#utility.yul\":38386:38387   */\n      dup3\n        /* \"#utility.yul\":38382:38391   */\n      add\n        /* \"#utility.yul\":38375:38391   */\n      swap1\n      pop\n        /* \"#utility.yul\":38410:38413   */\n      dup1\n        /* \"#utility.yul\":38407:38408   */\n      dup3\n        /* \"#utility.yul\":38404:38414   */\n      gt\n        /* \"#utility.yul\":38401:38437   */\n      iszero\n      tag_817\n      jumpi\n        /* \"#utility.yul\":38417:38435   */\n      tag_818\n      tag_436\n      jump\t// in\n    tag_818:\n        /* \"#utility.yul\":38401:38437   */\n    tag_817:\n        /* \"#utility.yul\":38253:38444   */\n      swap3\n      swap2\n      pop\n      pop\n      jump\t// out\n\n    auxdata: 0xa26469706673582212204285d5a39e5f2b05a25fab6c82165bcc7d9155015771cdc59bbc906fda6d0f2e64736f6c63430008100033\n}\n","bytecode":{"linkReferences":{},"object":"6101a06040524260a0908152503480156200001957600080fd5b506040516200438f3803806200438f83398181016040528101906200003f91906200054a565b60016000819055508960019081620000589190620008bf565b508873ffffffffffffffffffffffffffffffffffffffff1660808173ffffffffffffffffffffffffffffffffffffffff168152505060005b88518110156200019d576002898281518110620000b257620000b1620009a6565b5b60200260200101519080600181540180825580915050600190039060005260206000200160009091909190916101000a81548173ffffffffffffffffffffffffffffffffffffffff021916908373ffffffffffffffffffffffffffffffffffffffff1602179055506001600360008b8481518110620001365762000135620009a6565b5b602002602001015173ffffffffffffffffffffffffffffffffffffffff1673ffffffffffffffffffffffffffffffffffffffff16815260200190815260200160002060006101000a81548160ff021916908315150217905550808060010191505062000090565b5086151560c08115158152505085151560e08115158152505084151561010081151581525050831515610120811515815250508215156101408115158152505081610160818152505080610180818152505050505050505050505050620009d5565b6000604051905090565b600080fd5b600080fd5b600080fd5b600080fd5b6000601f19601f8301169050919050565b7f4e487b7100000000000000000000000000000000000000000000000000000000600052604160045260246000fd5b62000268826200021d565b810181811067ffffffffffffffff821117156200028a57620002896200022e565b5b80604052505050565b60006200029f620001ff565b9050620002ad82826200025d565b919050565b600067ffffffffffffffff821115620002d057620002cf6200022e565b5b620002db826200021d565b9050602081019050919050565b60005b8381101562000308578082015181840152602081019050620002eb565b60008484015250505050565b60006200032b6200032584620002b2565b62000293565b9050828152602081018484840111156200034a576200034962000218565b5b62000357848285620002e8565b509392505050565b600082601f83011262000377576200037662000213565b5b81516200038984826020860162000314565b91505092915050565b600073ffffffffffffffffffffffffffffffffffffffff82169050919050565b6000620003bf8262000392565b9050919050565b620003d181620003b2565b8114620003dd57600080fd5b50565b600081519050620003f181620003c6565b92915050565b600067ffffffffffffffff8211156200041557620004146200022e565b5b602082029050602081019050919050565b600080fd5b6000620004426200043c84620003f7565b62000293565b9050808382526020820190506020840283018581111562000468576200046762000426565b5b835b81811015620004955780620004808882620003e0565b8452602084019350506020810190506200046a565b5050509392505050565b600082601f830112620004b757620004b662000213565b5b8151620004c98482602086016200042b565b91505092915050565b60008115159050919050565b620004e981620004d2565b8114620004f557600080fd5b50565b6000815190506200050981620004de565b92915050565b6000819050919050565b62000524816200050f565b81146200053057600080fd5b50565b600081519050620005448162000519565b92915050565b6000806000806000806000806000806101408b8d03121562000571576200057062000209565b5b60008b015167ffffffffffffffff8111156200059257620005916200020e565b5b620005a08d828e016200035f565b9a50506020620005b38d828e01620003e0565b99505060408b015167ffffffffffffffff811115620005d757620005d66200020e565b5b620005e58d828e016200049f565b9850506060620005f88d828e01620004f8565b97505060806200060b8d828e01620004f8565b96505060a06200061e8d828e01620004f8565b95505060c0620006318d828e01620004f8565b94505060e0620006448d828e01620004f8565b935050610100620006588d828e0162000533565b9250506101206200066c8d828e0162000533565b9150509295989b9194979a5092959850565b600081519050919050565b7f4e487b7100000000000000000000000000000000000000000000000000000000600052602260045260246000fd5b60006002820490506001821680620006d157607f821691505b602082108103620006e757620006e662000689565b5b50919050565b60008190508160005260206000209050919050565b60006020601f8301049050919050565b600082821b905092915050565b600060088302620007517fffffffffffffffffffffffffffffffffffffffffffffffffffffffffffffffff8262000712565b6200075d868362000712565b95508019841693508086168417925050509392505050565b6000819050919050565b6000620007a06200079a62000794846200050f565b62000775565b6200050f565b9050919050565b6000819050919050565b620007bc836200077f565b620007d4620007cb82620007a7565b8484546200071f565b825550505050565b600090565b620007eb620007dc565b620007f8818484620007b1565b505050565b5b81811015620008205762000814600082620007e1565b600181019050620007fe565b5050565b601f8211156200086f576200083981620006ed565b620008448462000702565b8101602085101562000854578190505b6200086c620008638562000702565b830182620007fd565b50505b505050565b600082821c905092915050565b6000620008946000198460080262000874565b1980831691505092915050565b6000620008af838362000881565b9150826002028217905092915050565b620008ca826200067e565b67ffffffffffffffff811115620008e657620008e56200022e565b5b620008f28254620006b8565b620008ff82828562000824565b600060209050601f83116001811462000937576000841562000922578287015190505b6200092e8582620008a1565b8655506200099e565b601f1984166200094786620006ed565b60005b8281101562000971578489015182556001820191506020850194506020810190506200094a565b868310156200099157848901516200098d601f89168262000881565b8355505b6001600288020188555050505b505050505050565b7f4e487b7100000000000000000000000000000000000000000000000000000000600052603260045260246000fd5b60805160a05160c05160e05161010051610120516101405161016051610180516138b662000ad960003960008181610a3c01528181611f2f015261214d015260008181611372015281816119bc015261212a015260008181610940015281816119e601528181612107015261217c015260008181610d0701528181610d2f0152818161150201528181611cee01526120e4015260008181610c56015281816117ca01528181611cc601526120c10152600081816113a30152818161162e015261209e015260008181610ed501528181611bc401528181611fed01526121c001526000818161132301526118840152600081816107c3015261130001526138b66000f3fe6080604052600436106101ee5760003560e01c80638a20bc371161010d578063d7bb99ba116100a0578063e557e5dc1161006f578063e557e5dc146106cf578063ecbff6e714610703578063f3ae24151461072e578063fa68b6311461076b578063fbfa4b7f14610796576101ee565b8063d7bb99ba14610648578063d7d1bbdb14610652578063d8247ee71461067b578063db2d78b1146106a4576101ee565b8063aa9cfc50116100dc578063aa9cfc501461059c578063af157c19146105c7578063b69ef8a8146105f2578063cf09e0d01461061d576101ee565b80638a20bc37146104e05780639073fa7e1461050b578063a8d088bb14610548578063a9059cbb14610573576101ee565b80633d39c26011610185578063691c754511610154578063691c75451461041c5780637569b3d7146104475780638175f2c71461047257806381d12c581461049d576101ee565b80633d39c260146103485780634051ddac1461038557806342e94c90146103b45780636308ae65146103f1576101ee565b80631b16bb5c116101c15780631b16bb5c1461028e5780632dde0013146102b757806337c08923146102e05780633cb5d1001461030b576101ee565b806302d05d3f146101f3578063034410061461021e57806306fdde03146102475780631071865514610272575b600080fd5b3480156101ff57600080fd5b506102086107c1565b6040516102159190612402565b60405180910390f35b34801561022a57600080fd5b5061024560048036038101906102409190612467565b6107e5565b005b34801561025357600080fd5b5061025c610bba565b6040516102699190612524565b60405180910390f35b61028c60048036038101906102879190612572565b610c48565b005b34801561029a57600080fd5b506102b560048036038101906102b091906126d4565b610c54565b005b3480156102c357600080fd5b506102de60048036038101906102d9919061280b565b610ed3565b005b3480156102ec57600080fd5b506102f56111d8565b6040516103029190612863565b60405180910390f35b34801561031757600080fd5b50610332600480360381019061032d9190612467565b6111de565b60405161033f9190612402565b60405180910390f35b34801561035457600080fd5b5061036f600480360381019061036a9190612467565b61121d565b60405161037c9190612402565b60405180910390f35b34801561039157600080fd5b5061039a61125c565b6040516103ab95949392919061287e565b60405180910390f35b3480156103c057600080fd5b506103db60048036038101906103d69190612572565b61134b565b6040516103e89190612863565b60405180910390f35b3480156103fd57600080fd5b50610406611363565b6040516104139190612863565b60405180910390f35b34801561042857600080fd5b50610431611370565b60405161043e9190612863565b60405180910390f35b34801561045357600080fd5b5061045c611394565b6040516104699190612863565b60405180910390f35b34801561047e57600080fd5b506104876113a1565b60405161049491906128f3565b60405180910390f35b3480156104a957600080fd5b506104c460048036038101906104bf9190612467565b6113c5565b6040516104d79796959493929190612939565b60405180910390f35b3480156104ec57600080fd5b506104f5611500565b60405161050291906128f3565b60405180910390f35b34801561051757600080fd5b50610532600480360381019061052d91906129af565b611524565b60405161053f91906128f3565b60405180910390f35b34801561055457600080fd5b5061055d61159e565b60405161056a9190612aad565b60405180910390f35b34801561057f57600080fd5b5061059a60048036038101906105959190612acf565b61162c565b005b3480156105a857600080fd5b506105b16117c8565b6040516105be91906128f3565b60405180910390f35b3480156105d357600080fd5b506105dc6117ec565b6040516105e99190612aad565b60405180910390f35b3480156105fe57600080fd5b5061060761187a565b6040516106149190612863565b60405180910390f35b34801561062957600080fd5b50610632611882565b60405161063f9190612863565b60405180910390f35b6106506118a6565b005b34801561065e57600080fd5b5061067960048036038101906106749190612467565b6118b1565b005b34801561068757600080fd5b506106a2600480360381019061069d9190612467565b611bc2565b005b3480156106b057600080fd5b506106b9611f2d565b6040516106c69190612863565b60405180910390f35b3480156106db57600080fd5b506106e4611f51565b6040516106fa9a99989796959493929190612b0f565b60405180910390f35b34801561070f57600080fd5b5061071861217a565b60405161072591906128f3565b60405180910390f35b34801561073a57600080fd5b5061075560048036038101906107509190612572565b61219e565b60405161076291906128f3565b60405180910390f35b34801561077757600080fd5b506107806121be565b60405161078d91906128f3565b60405180910390f35b3480156107a257600080fd5b506107ab6121e2565b6040516107b89190612863565b60405180910390f35b7f000000000000000000000000000000000000000000000000000000000000000081565b60026000540361082a576040517f08c379a000000000000000000000000000000000000000000000000000000000815260040161082190612c05565b60405180910390fd5b600260008190555060006007828154811061084857610847612c25565b5b906000526020600020906008020190503373ffffffffffffffffffffffffffffffffffffffff168160010160009054906101000a900473ffffffffffffffffffffffffffffffffffffffff1673ffffffffffffffffffffffffffffffffffffffff16146108ea576040517f08c379a00000000000000000000000000000000000000000000000000000000081526004016108e190612cc6565b60405180910390fd5b8060050160009054906101000a900460ff161561093c576040517f08c379a000000000000000000000000000000000000000000000000000000000815260040161093390612d58565b60405180910390fd5b60007f0000000000000000000000000000000000000000000000000000000000000000156109735761096c611394565b9050610a30565b61097b611394565b905060005b600280549050811015610a2e57600060056000600284815481106109a7576109a6612c25565b5b9060005260206000200160009054906101000a900473ffffffffffffffffffffffffffffffffffffffff1673ffffffffffffffffffffffffffffffffffffffff1673ffffffffffffffffffffffffffffffffffffffff1681526020019081526020016000205411610a21578180610a1d90612da7565b9250505b8080600101915050610980565b505b6000811480610a8157507f0000000000000000000000000000000000000000000000000000000000000000816064610a6a856007016121ef565b610a749190612def565b610a7e9190612e78565b10155b610ac0576040517f08c379a0000000000000000000000000000000000000000000000000000000008152600401610ab790612f1b565b60405180910390fd5b600082600301549050610ad161187a565b811115610ae357610ae061187a565b90505b8260020160009054906101000a900473ffffffffffffffffffffffffffffffffffffffff1673ffffffffffffffffffffffffffffffffffffffff166108fc829081150290604051600060405180830381858888f19350505050158015610b4d573d6000803e3d6000fd5b5080836004018190555060018360050160006101000a81548160ff021916908315150217905550837f2a26d55234ae45d40d3bdfd1893cf58ff7c2bb1c8089d97ed73879054778458c82604051610ba49190612863565b60405180910390a2505050600160008190555050565b60018054610bc790612f6a565b80601f0160208091040260200160405190810160405280929190818152602001828054610bf390612f6a565b8015610c405780601f10610c1557610100808354040283529160200191610c40565b820191906000526020600020905b815481529060010190602001808311610c2357829003601f168201915b505050505081565b610c51816121fd565b50565b7f0000000000000000000000000000000000000000000000000000000000000000610cb4576040517f08c379a0000000000000000000000000000000000000000000000000000000008152600401610cab90612fe7565b60405180910390fd5b6000600360003373ffffffffffffffffffffffffffffffffffffffff1673ffffffffffffffffffffffffffffffffffffffff16815260200190815260200160002060009054906101000a900460ff1690507f00000000000000000000000000000000000000000000000000000000000000001580610d5857507f00000000000000000000000000000000000000000000000000000000000000008015610d575750805b5b610d97576040517f08c379a0000000000000000000000000000000000000000000000000000000008152600401610d8e90613079565b60405180910390fd5b60006007600181600181540180825580915050039060005260206000209060080201905084816000019081610dcc9190613245565b50338160010160006101000a81548173ffffffffffffffffffffffffffffffffffffffff021916908373ffffffffffffffffffffffffffffffffffffffff160217905550838160020160006101000a81548173ffffffffffffffffffffffffffffffffffffffff021916908373ffffffffffffffffffffffffffffffffffffffff1602179055508281600301819055508373ffffffffffffffffffffffffffffffffffffffff163373ffffffffffffffffffffffffffffffffffffffff166001600780549050037f5951f0e7966a5f08a4c0a5f25718915cc221b5a4fc488a15b2fbf1f12248d5c28887604051610ec4929190613317565b60405180910390a45050505050565b7f0000000000000000000000000000000000000000000000000000000000000000610f33576040517f08c379a0000000000000000000000000000000000000000000000000000000008152600401610f2a90613393565b60405180910390fd5b600360003373ffffffffffffffffffffffffffffffffffffffff1673ffffffffffffffffffffffffffffffffffffffff16815260200190815260200160002060009054906101000a900460ff16610fbf576040517f08c379a0000000000000000000000000000000000000000000000000000000008152600401610fb6906133ff565b60405180910390fd5b6000815111611003576040517f08c379a0000000000000000000000000000000000000000000000000000000008152600401610ffa90613491565b60405180910390fd5b60005b81518110156111d4576003600083838151811061102657611025612c25565b5b602002602001015173ffffffffffffffffffffffffffffffffffffffff1673ffffffffffffffffffffffffffffffffffffffff16815260200190815260200160002060009054906101000a900460ff166111c757600282828151811061108f5761108e612c25565b5b60200260200101519080600181540180825580915050600190039060005260206000200160009091909190916101000a81548173ffffffffffffffffffffffffffffffffffffffff021916908373ffffffffffffffffffffffffffffffffffffffff1602179055506001600360008484815181106111105761110f612c25565b5b602002602001015173ffffffffffffffffffffffffffffffffffffffff1673ffffffffffffffffffffffffffffffffffffffff16815260200190815260200160002060006101000a81548160ff02191690831515021790555081818151811061117c5761117b612c25565b5b602002602001015173ffffffffffffffffffffffffffffffffffffffff167f5589a1df7a257347b14b97cb6fe06862c960ff64e9a0c2908632929098bb013060405160405180910390a25b8080600101915050611006565b5050565b60065481565b600481815481106111ee57600080fd5b906000526020600020016000915054906101000a900473ffffffffffffffffffffffffffffffffffffffff1681565b6002818154811061122d57600080fd5b906000526020600020016000915054906101000a900473ffffffffffffffffffffffffffffffffffffffff1681565b600080606060008030945061126f61187a565b93506001805461127e90612f6a565b80601f01602080910402602001604051908101604052809291908181526020018280546112aa90612f6a565b80156112f75780601f106112cc576101008083540402835291602001916112f7565b820191906000526020600020905b8154815290600101906020018083116112da57829003601f168201915b505050505092507f000000000000000000000000000000000000000000000000000000000000000091507f000000000000000000000000000000000000000000000000000000000000000090509091929394565b60056020528060005260406000206000915090505481565b6000600280549050905090565b7f000000000000000000000000000000000000000000000000000000000000000081565b6000600480549050905090565b7f000000000000000000000000000000000000000000000000000000000000000081565b600781815481106113d557600080fd5b90600052602060002090600802016000915090508060000180546113f890612f6a565b80601f016020809104026020016040519081016040528092919081815260200182805461142490612f6a565b80156114715780601f1061144657610100808354040283529160200191611471565b820191906000526020600020905b81548152906001019060200180831161145457829003601f168201915b5050505050908060010160009054906101000a900473ffffffffffffffffffffffffffffffffffffffff16908060020160009054906101000a900473ffffffffffffffffffffffffffffffffffffffff16908060030154908060040154908060050160009054906101000a900460ff169080600701604051806020016040529081600082015481525050905087565b7f000000000000000000000000000000000000000000000000000000000000000081565b60006007838154811061153a57611539612c25565b5b906000526020600020906008020160060160008373ffffffffffffffffffffffffffffffffffffffff1673ffffffffffffffffffffffffffffffffffffffff16815260200190815260200160002060009054906101000a900460ff16905092915050565b6060600280548060200260200160405190810160405280929190818152602001828054801561162257602002820191906000526020600020905b8160009054906101000a900473ffffffffffffffffffffffffffffffffffffffff1673ffffffffffffffffffffffffffffffffffffffff16815260200190600101908083116115d8575b5050505050905090565b7f000000000000000000000000000000000000000000000000000000000000000061168c576040517f08c379a000000000000000000000000000000000000000000000000000000000815260040161168390613523565b60405180910390fd5b600360003373ffffffffffffffffffffffffffffffffffffffff1673ffffffffffffffffffffffffffffffffffffffff16815260200190815260200160002060009054906101000a900460ff16611718576040517f08c379a000000000000000000000000000000000000000000000000000000000815260040161170f906133ff565b60405180910390fd5b8173ffffffffffffffffffffffffffffffffffffffff166108fc829081150290604051600060405180830381858888f1935050505015801561175e573d6000803e3d6000fd5b508173ffffffffffffffffffffffffffffffffffffffff163373ffffffffffffffffffffffffffffffffffffffff167fddf252ad1be2c89b69c2b068fc378daa952ba7f163c4a11628f55a4df523b3ef836040516117bc9190612863565b60405180910390a35050565b7f000000000000000000000000000000000000000000000000000000000000000081565b6060600480548060200260200160405190810160405280929190818152602001828054801561187057602002820191906000526020600020905b8160009054906101000a900473ffffffffffffffffffffffffffffffffffffffff1673ffffffffffffffffffffffffffffffffffffffff1681526020019060010190808311611826575b5050505050905090565b600047905090565b7f000000000000000000000000000000000000000000000000000000000000000081565b6118af336121fd565b565b6000600782815481106118c7576118c6612c25565b5b906000526020600020906008020190508060050160009054906101000a900460ff1615611929576040517f08c379a000000000000000000000000000000000000000000000000000000000815260040161192090612d58565b60405180910390fd5b8060060160003373ffffffffffffffffffffffffffffffffffffffff1673ffffffffffffffffffffffffffffffffffffffff16815260200190815260200160002060009054906101000a900460ff16156119b8576040517f08c379a00000000000000000000000000000000000000000000000000000000081526004016119af906135b5565b60405180910390fd5b60007f00000000000000000000000000000000000000000000000000000000000000009050600060065490507f0000000000000000000000000000000000000000000000000000000000000000158015611a5b5750600360003373ffffffffffffffffffffffffffffffffffffffff1673ffffffffffffffffffffffffffffffffffffffff16815260200190815260200160002060009054906101000a900460ff165b80611a665750600082145b80611ad35750600081118015611ad2575081816064600560003373ffffffffffffffffffffffffffffffffffffffff1673ffffffffffffffffffffffffffffffffffffffff16815260200190815260200160002054611ac59190612def565b611acf9190612e78565b10155b5b611b12576040517f08c379a0000000000000000000000000000000000000000000000000000000008152600401611b099061366d565b60405180910390fd5b60018360060160003373ffffffffffffffffffffffffffffffffffffffff1673ffffffffffffffffffffffffffffffffffffffff16815260200190815260200160002060006101000a81548160ff021916908315150217905550611b78836007016123ab565b3373ffffffffffffffffffffffffffffffffffffffff16847f893b9e35d011bbe15567d0f899b775d6e02d49f62378315a6d25759d3bb1dbcc60405160405180910390a350505050565b7f0000000000000000000000000000000000000000000000000000000000000000611c22576040517f08c379a0000000000000000000000000000000000000000000000000000000008152600401611c19906136d9565b60405180910390fd5b600360003373ffffffffffffffffffffffffffffffffffffffff1673ffffffffffffffffffffffffffffffffffffffff16815260200190815260200160002060009054906101000a900460ff16611cae576040517f08c379a0000000000000000000000000000000000000000000000000000000008152600401611ca5906133ff565b60405180910390fd5b6000611cb8611363565b90506001811180611d1057507f00000000000000000000000000000000000000000000000000000000000000008015611d0f57507f0000000000000000000000000000000000000000000000000000000000000000155b5b611d4f576040517f08c379a0000000000000000000000000000000000000000000000000000000008152600401611d469061376b565b60405180910390fd5b600060028381548110611d6557611d64612c25565b5b9060005260206000200160009054906101000a900473ffffffffffffffffffffffffffffffffffffffff169050600360008273ffffffffffffffffffffffffffffffffffffffff1673ffffffffffffffffffffffffffffffffffffffff16815260200190815260200160002060006101000a81549060ff021916905560008390505b60018303811015611e9d5760026001820181548110611e0957611e08612c25565b5b9060005260206000200160009054906101000a900473ffffffffffffffffffffffffffffffffffffffff1660028281548110611e4857611e47612c25565b5b9060005260206000200160006101000a81548173ffffffffffffffffffffffffffffffffffffffff021916908373ffffffffffffffffffffffffffffffffffffffff1602179055508080600101915050611de7565b506002805480611eb057611eaf61378b565b5b6001900381819060005260206000200160006101000a81549073ffffffffffffffffffffffffffffffffffffffff021916905590558073ffffffffffffffffffffffffffffffffffffffff167f1e25ed4cabec84d314dc176241019653f237da01f2bdd3a10cb0f38b33da676360405160405180910390a2505050565b7f000000000000000000000000000000000000000000000000000000000000000081565b60606000606060008060008060008060006002805480602002602001604051908101604052809291908181526020018280548015611fe457602002820191906000526020600020905b8160009054906101000a900473ffffffffffffffffffffffffffffffffffffffff1673ffffffffffffffffffffffffffffffffffffffff1681526020019060010190808311611f9a575b505050505099507f00000000000000000000000000000000000000000000000000000000000000009850600480548060200260200160405190810160405280929190818152602001828054801561209057602002820191906000526020600020905b8160009054906101000a900473ffffffffffffffffffffffffffffffffffffffff1673ffffffffffffffffffffffffffffffffffffffff1681526020019060010190808311612046575b5050505050975060065496507f000000000000000000000000000000000000000000000000000000000000000095507f000000000000000000000000000000000000000000000000000000000000000094507f000000000000000000000000000000000000000000000000000000000000000093507f000000000000000000000000000000000000000000000000000000000000000092507f000000000000000000000000000000000000000000000000000000000000000091507f0000000000000000000000000000000000000000000000000000000000000000905090919293949596979899565b7f000000000000000000000000000000000000000000000000000000000000000081565b60036020528060005260406000206000915054906101000a900460ff1681565b7f000000000000000000000000000000000000000000000000000000000000000081565b6000600780549050905090565b600081600001549050919050565b60003411612240576040517f08c379a00000000000000000000000000000000000000000000000000000000081526004016122379061382c565b60405180910390fd5b6000600560008373ffffffffffffffffffffffffffffffffffffffff1673ffffffffffffffffffffffffffffffffffffffff16815260200190815260200160002054036122eb576004819080600181540180825580915050600190039060005260206000200160009091909190916101000a81548173ffffffffffffffffffffffffffffffffffffffff021916908373ffffffffffffffffffffffffffffffffffffffff1602179055505b34600560008373ffffffffffffffffffffffffffffffffffffffff1673ffffffffffffffffffffffffffffffffffffffff168152602001908152602001600020600082825461233a919061384c565b925050819055503460066000828254612353919061384c565b925050819055508073ffffffffffffffffffffffffffffffffffffffff167f906faaf913a60f38b5e8f2d6f5b163239bac2d994fa1a5d21751a51587a94057346040516123a09190612863565b60405180910390a250565b6001816000016000828254019250508190555050565b600073ffffffffffffffffffffffffffffffffffffffff82169050919050565b60006123ec826123c1565b9050919050565b6123fc816123e1565b82525050565b600060208201905061241760008301846123f3565b92915050565b6000604051905090565b600080fd5b600080fd5b6000819050919050565b61244481612431565b811461244f57600080fd5b50565b6000813590506124618161243b565b92915050565b60006020828403121561247d5761247c612427565b5b600061248b84828501612452565b91505092915050565b600081519050919050565b600082825260208201905092915050565b60005b838110156124ce5780820151818401526020810190506124b3565b60008484015250505050565b6000601f19601f8301169050919050565b60006124f682612494565b612500818561249f565b93506125108185602086016124b0565b612519816124da565b840191505092915050565b6000602082019050818103600083015261253e81846124eb565b905092915050565b61254f816123e1565b811461255a57600080fd5b50565b60008135905061256c81612546565b92915050565b60006020828403121561258857612587612427565b5b60006125968482850161255d565b91505092915050565b600080fd5b600080fd5b7f4e487b7100000000000000000000000000000000000000000000000000000000600052604160045260246000fd5b6125e1826124da565b810181811067ffffffffffffffff82111715612600576125ff6125a9565b5b80604052505050565b600061261361241d565b905061261f82826125d8565b919050565b600067ffffffffffffffff82111561263f5761263e6125a9565b5b612648826124da565b9050602081019050919050565b82818337600083830152505050565b600061267761267284612624565b612609565b905082815260208101848484011115612693576126926125a4565b5b61269e848285612655565b509392505050565b600082601f8301126126bb576126ba61259f565b5b81356126cb848260208601612664565b91505092915050565b6000806000606084860312156126ed576126ec612427565b5b600084013567ffffffffffffffff81111561270b5761270a61242c565b5b612717868287016126a6565b93505060206127288682870161255d565b925050604061273986828701612452565b9150509250925092565b600067ffffffffffffffff82111561275e5761275d6125a9565b5b602082029050602081019050919050565b600080fd5b600061278761278284612743565b612609565b905080838252602082019050602084028301858111156127aa576127a961276f565b5b835b818110156127d357806127bf888261255d565b8452602084019350506020810190506127ac565b5050509392505050565b600082601f8301126127f2576127f161259f565b5b8135612802848260208601612774565b91505092915050565b60006020828403121561282157612820612427565b5b600082013567ffffffffffffffff81111561283f5761283e61242c565b5b61284b848285016127dd565b91505092915050565b61285d81612431565b82525050565b60006020820190506128786000830184612854565b92915050565b600060a08201905061289360008301886123f3565b6128a06020830187612854565b81810360408301526128b281866124eb565b90506128c160608301856123f3565b6128ce6080830184612854565b9695505050505050565b60008115159050919050565b6128ed816128d8565b82525050565b600060208201905061290860008301846128e4565b92915050565b61291781612431565b82525050565b602082016000820151612933600085018261290e565b50505050565b600060e0820190508181036000830152612953818a6124eb565b905061296260208301896123f3565b61296f60408301886123f3565b61297c6060830187612854565b6129896080830186612854565b61299660a08301856128e4565b6129a360c083018461291d565b98975050505050505050565b600080604083850312156129c6576129c5612427565b5b60006129d485828601612452565b92505060206129e58582860161255d565b9150509250929050565b600081519050919050565b600082825260208201905092915050565b6000819050602082019050919050565b612a24816123e1565b82525050565b6000612a368383612a1b565b60208301905092915050565b6000602082019050919050565b6000612a5a826129ef565b612a6481856129fa565b9350612a6f83612a0b565b8060005b83811015612aa0578151612a878882612a2a565b9750612a9283612a42565b925050600181019050612a73565b5085935050505092915050565b60006020820190508181036000830152612ac78184612a4f565b905092915050565b60008060408385031215612ae657612ae5612427565b5b6000612af48582860161255d565b9250506020612b0585828601612452565b9150509250929050565b6000610140820190508181036000830152612b2a818d612a4f565b9050612b39602083018c6128e4565b8181036040830152612b4b818b612a4f565b9050612b5a606083018a612854565b612b6760808301896128e4565b612b7460a08301886128e4565b612b8160c08301876128e4565b612b8e60e08301866128e4565b612b9c610100830185612854565b612baa610120830184612854565b9b9a5050505050505050505050565b7f5265656e7472616e637947756172643a207265656e7472616e742063616c6c00600082015250565b6000612bef601f8361249f565b9150612bfa82612bb9565b602082019050919050565b60006020820190508181036000830152612c1e81612be2565b9050919050565b7f4e487b7100000000000000000000000000000000000000000000000000000000600052603260045260246000fd5b7f596f7520617265206e6f7420746865207065746974696f6e6572206f6620746860008201527f6520726571756573740000000000000000000000000000000000000000000000602082015250565b6000612cb060298361249f565b9150612cbb82612c54565b604082019050919050565b60006020820190508181036000830152612cdf81612ca3565b9050919050565b7f54686520726571756573742068617320616c7265616479206265656e20636f6d60008201527f706c657465640000000000000000000000000000000000000000000000000000602082015250565b6000612d4260268361249f565b9150612d4d82612ce6565b604082019050919050565b60006020820190508181036000830152612d7181612d35565b9050919050565b7f4e487b7100000000000000000000000000000000000000000000000000000000600052601160045260246000fd5b6000612db282612431565b91507fffffffffffffffffffffffffffffffffffffffffffffffffffffffffffffffff8203612de457612de3612d78565b5b600182019050919050565b6000612dfa82612431565b9150612e0583612431565b9250817fffffffffffffffffffffffffffffffffffffffffffffffffffffffffffffffff0483118215151615612e3e57612e3d612d78565b5b828202905092915050565b7f4e487b7100000000000000000000000000000000000000000000000000000000600052601260045260246000fd5b6000612e8382612431565b9150612e8e83612431565b925082612e9e57612e9d612e49565b5b828204905092915050565b7f546865207265717565737420686173206e6f74206265656e20617070726f766560008201527f6420796574000000000000000000000000000000000000000000000000000000602082015250565b6000612f0560258361249f565b9150612f1082612ea9565b604082019050919050565b60006020820190508181036000830152612f3481612ef8565b9050919050565b7f4e487b7100000000000000000000000000000000000000000000000000000000600052602260045260246000fd5b60006002820490506001821680612f8257607f821691505b602082108103612f9557612f94612f3b565b5b50919050565b7f52657175657374732063616e206e6f7420626520637265617465640000000000600082015250565b6000612fd1601b8361249f565b9150612fdc82612f9b565b602082019050919050565b6000602082019050818103600083015261300081612fc4565b9050919050565b7f4f6e6c79206d616e61676572732063616e20637265617465206120726571756560008201527f7374000000000000000000000000000000000000000000000000000000000000602082015250565b600061306360228361249f565b915061306e82613007565b604082019050919050565b6000602082019050818103600083015261309281613056565b9050919050565b60008190508160005260206000209050919050565b60006020601f8301049050919050565b600082821b905092915050565b6000600883026130fb7fffffffffffffffffffffffffffffffffffffffffffffffffffffffffffffffff826130be565b61310586836130be565b95508019841693508086168417925050509392505050565b6000819050919050565b600061314261313d61313884612431565b61311d565b612431565b9050919050565b6000819050919050565b61315c83613127565b61317061316882613149565b8484546130cb565b825550505050565b600090565b613185613178565b613190818484613153565b505050565b5b818110156131b4576131a960008261317d565b600181019050613196565b5050565b601f8211156131f9576131ca81613099565b6131d3846130ae565b810160208510156131e2578190505b6131f66131ee856130ae565b830182613195565b50505b505050565b600082821c905092915050565b600061321c600019846008026131fe565b1980831691505092915050565b6000613235838361320b565b9150826002028217905092915050565b61324e82612494565b67ffffffffffffffff811115613267576132666125a9565b5b6132718254612f6a565b61327c8282856131b8565b600060209050601f8311600181146132af576000841561329d578287015190505b6132a78582613229565b86555061330f565b601f1984166132bd86613099565b60005b828110156132e5578489015182556001820191506020850194506020810190506132c0565b8683101561330257848901516132fe601f89168261320b565b8355505b6001600288020188555050505b505050505050565b6000604082019050818103600083015261333181856124eb565b90506133406020830184612854565b9392505050565b7f4e6577206d616e61676572732063616e206e6f74206265206164646564000000600082015250565b600061337d601d8361249f565b915061338882613347565b602082019050919050565b600060208201905081810360008301526133ac81613370565b9050919050565b7f4f6e6c79206d616e61676572732063616e206163636573730000000000000000600082015250565b60006133e960188361249f565b91506133f4826133b3565b602082019050919050565b60006020820190508181036000830152613418816133dc565b9050919050565b7f596f75206861766520746f2073656e64206f6e65206f72206d6f72652061646460008201527f7265737365730000000000000000000000000000000000000000000000000000602082015250565b600061347b60268361249f565b91506134868261341f565b604082019050919050565b600060208201905081810360008301526134aa8161346e565b9050919050565b7f4d616e61676572732063616e206e6f74207472616e73666572206d6f6e65792060008201527f776974686f757420612072657175657374000000000000000000000000000000602082015250565b600061350d60318361249f565b9150613518826134b1565b604082019050919050565b6000602082019050818103600083015261353c81613500565b9050919050565b7f596f75206861766520616c726561647920617070726f7665642074686973207260008201527f6571756573740000000000000000000000000000000000000000000000000000602082015250565b600061359f60268361249f565b91506135aa82613543565b604082019050919050565b600060208201905081810360008301526135ce81613592565b9050919050565b7f446f206e6f7420726561636820746865206d696e696d756d20636f6e7472696260008201527f7574696f6e2070657263656e74616765206f7220796f7520617265206e6f742060208201527f61206d616e616765720000000000000000000000000000000000000000000000604082015250565b600061365760498361249f565b9150613662826135d5565b606082019050919050565b600060208201905081810360008301526136868161364a565b9050919050565b7f4d616e61676572732063616e206e6f742062652072656d6f7665640000000000600082015250565b60006136c3601b8361249f565b91506136ce8261368d565b602082019050919050565b600060208201905081810360008301526136f2816136b6565b9050919050565b7f546865726520776f756c64206265206e6f2077617920746f207769746864726160008201527f7720746865206d6f6e65792066726f6d2074686520636f6e7472616374000000602082015250565b6000613755603d8361249f565b9150613760826136f9565b604082019050919050565b6000602082019050818103600083015261378481613748565b9050919050565b7f4e487b7100000000000000000000000000000000000000000000000000000000600052603160045260246000fd5b7f54686520636f6e747269627574696f6e206d757374206265206772656174657260008201527f207468616e207a65726f00000000000000000000000000000000000000000000602082015250565b6000613816602a8361249f565b9150613821826137ba565b604082019050919050565b6000602082019050818103600083015261384581613809565b9050919050565b600061385782612431565b915061386283612431565b925082820190508082111561387a57613879612d78565b5b9291505056fea26469706673582212204285d5a39e5f2b05a25fab6c82165bcc7d9155015771cdc59bbc906fda6d0f2e64736f6c63430008100033","opcodes":"PUSH2 0x1A0 PUSH1 0x40 MSTORE TIMESTAMP PUSH1 0xA0 SWAP1 DUP2 MSTORE POP CALLVALUE DUP1 ISZERO PUSH3 0x19 JUMPI PUSH1 0x0 DUP1 REVERT JUMPDEST POP PUSH1 0x40 MLOAD PUSH3 0x438F CODESIZE SUB DUP1 PUSH3 0x438F DUP4 CODECOPY DUP2 DUP2 ADD PUSH1 0x40 MSTORE DUP2 ADD SWAP1 PUSH3 0x3F SWAP2 SWAP1 PUSH3 0x54A JUMP JUMPDEST PUSH1 0x1 PUSH1 0x0 DUP2 SWAP1 SSTORE POP DUP10 PUSH1 0x1 SWAP1 DUP2 PUSH3 0x58 SWAP2 SWAP1 PUSH3 0x8BF JUMP JUMPDEST POP DUP9 PUSH20 0xFFFFFFFFFFFFFFFFFFFFFFFFFFFFFFFFFFFFFFFF AND PUSH1 0x80 DUP2 PUSH20 0xFFFFFFFFFFFFFFFFFFFFFFFFFFFFFFFFFFFFFFFF AND DUP2 MSTORE POP POP PUSH1 0x0 JUMPDEST DUP9 MLOAD DUP2 LT ISZERO PUSH3 0x19D JUMPI PUSH1 0x2 DUP10 DUP3 DUP2 MLOAD DUP2 LT PUSH3 0xB2 JUMPI PUSH3 0xB1 PUSH3 0x9A6 JUMP JUMPDEST JUMPDEST PUSH1 0x20 MUL PUSH1 0x20 ADD ADD MLOAD SWAP1 DUP1 PUSH1 0x1 DUP2 SLOAD ADD DUP1 DUP3 SSTORE DUP1 SWAP2 POP POP PUSH1 0x1 SWAP1 SUB SWAP1 PUSH1 0x0 MSTORE PUSH1 0x20 PUSH1 0x0 KECCAK256 ADD PUSH1 0x0 SWAP1 SWAP2 SWAP1 SWAP2 SWAP1 SWAP2 PUSH2 0x100 EXP DUP2 SLOAD DUP2 PUSH20 0xFFFFFFFFFFFFFFFFFFFFFFFFFFFFFFFFFFFFFFFF MUL NOT AND SWAP1 DUP4 PUSH20 0xFFFFFFFFFFFFFFFFFFFFFFFFFFFFFFFFFFFFFFFF AND MUL OR SWAP1 SSTORE POP PUSH1 0x1 PUSH1 0x3 PUSH1 0x0 DUP12 DUP5 DUP2 MLOAD DUP2 LT PUSH3 0x136 JUMPI PUSH3 0x135 PUSH3 0x9A6 JUMP JUMPDEST JUMPDEST PUSH1 0x20 MUL PUSH1 0x20 ADD ADD MLOAD PUSH20 0xFFFFFFFFFFFFFFFFFFFFFFFFFFFFFFFFFFFFFFFF AND PUSH20 0xFFFFFFFFFFFFFFFFFFFFFFFFFFFFFFFFFFFFFFFF AND DUP2 MSTORE PUSH1 0x20 ADD SWAP1 DUP2 MSTORE PUSH1 0x20 ADD PUSH1 0x0 KECCAK256 PUSH1 0x0 PUSH2 0x100 EXP DUP2 SLOAD DUP2 PUSH1 0xFF MUL NOT AND SWAP1 DUP4 ISZERO ISZERO MUL OR SWAP1 SSTORE POP DUP1 DUP1 PUSH1 0x1 ADD SWAP2 POP POP PUSH3 0x90 JUMP JUMPDEST POP DUP7 ISZERO ISZERO PUSH1 0xC0 DUP2 ISZERO ISZERO DUP2 MSTORE POP POP DUP6 ISZERO ISZERO PUSH1 0xE0 DUP2 ISZERO ISZERO DUP2 MSTORE POP POP DUP5 ISZERO ISZERO PUSH2 0x100 DUP2 ISZERO ISZERO DUP2 MSTORE POP POP DUP4 ISZERO ISZERO PUSH2 0x120 DUP2 ISZERO ISZERO DUP2 MSTORE POP POP DUP3 ISZERO ISZERO PUSH2 0x140 DUP2 ISZERO ISZERO DUP2 MSTORE POP POP DUP2 PUSH2 0x160 DUP2 DUP2 MSTORE POP POP DUP1 PUSH2 0x180 DUP2 DUP2 MSTORE POP POP POP POP POP POP POP POP POP POP POP POP PUSH3 0x9D5 JUMP JUMPDEST PUSH1 0x0 PUSH1 0x40 MLOAD SWAP1 POP SWAP1 JUMP JUMPDEST PUSH1 0x0 DUP1 REVERT JUMPDEST PUSH1 0x0 DUP1 REVERT JUMPDEST PUSH1 0x0 DUP1 REVERT JUMPDEST PUSH1 0x0 DUP1 REVERT JUMPDEST PUSH1 0x0 PUSH1 0x1F NOT PUSH1 0x1F DUP4 ADD AND SWAP1 POP SWAP2 SWAP1 POP JUMP JUMPDEST PUSH32 0x4E487B7100000000000000000000000000000000000000000000000000000000 PUSH1 0x0 MSTORE PUSH1 0x41 PUSH1 0x4 MSTORE PUSH1 0x24 PUSH1 0x0 REVERT JUMPDEST PUSH3 0x268 DUP3 PUSH3 0x21D JUMP JUMPDEST DUP2 ADD DUP2 DUP2 LT PUSH8 0xFFFFFFFFFFFFFFFF DUP3 GT OR ISZERO PUSH3 0x28A JUMPI PUSH3 0x289 PUSH3 0x22E JUMP JUMPDEST JUMPDEST DUP1 PUSH1 0x40 MSTORE POP POP POP JUMP JUMPDEST PUSH1 0x0 PUSH3 0x29F PUSH3 0x1FF JUMP JUMPDEST SWAP1 POP PUSH3 0x2AD DUP3 DUP3 PUSH3 0x25D JUMP JUMPDEST SWAP2 SWAP1 POP JUMP JUMPDEST PUSH1 0x0 PUSH8 0xFFFFFFFFFFFFFFFF DUP3 GT ISZERO PUSH3 0x2D0 JUMPI PUSH3 0x2CF PUSH3 0x22E JUMP JUMPDEST JUMPDEST PUSH3 0x2DB DUP3 PUSH3 0x21D JUMP JUMPDEST SWAP1 POP PUSH1 0x20 DUP2 ADD SWAP1 POP SWAP2 SWAP1 POP JUMP JUMPDEST PUSH1 0x0 JUMPDEST DUP4 DUP2 LT ISZERO PUSH3 0x308 JUMPI DUP1 DUP3 ADD MLOAD DUP2 DUP5 ADD MSTORE PUSH1 0x20 DUP2 ADD SWAP1 POP PUSH3 0x2EB JUMP JUMPDEST PUSH1 0x0 DUP5 DUP5 ADD MSTORE POP POP POP POP JUMP JUMPDEST PUSH1 0x0 PUSH3 0x32B PUSH3 0x325 DUP5 PUSH3 0x2B2 JUMP JUMPDEST PUSH3 0x293 JUMP JUMPDEST SWAP1 POP DUP3 DUP2 MSTORE PUSH1 0x20 DUP2 ADD DUP5 DUP5 DUP5 ADD GT ISZERO PUSH3 0x34A JUMPI PUSH3 0x349 PUSH3 0x218 JUMP JUMPDEST JUMPDEST PUSH3 0x357 DUP5 DUP3 DUP6 PUSH3 0x2E8 JUMP JUMPDEST POP SWAP4 SWAP3 POP POP POP JUMP JUMPDEST PUSH1 0x0 DUP3 PUSH1 0x1F DUP4 ADD SLT PUSH3 0x377 JUMPI PUSH3 0x376 PUSH3 0x213 JUMP JUMPDEST JUMPDEST DUP2 MLOAD PUSH3 0x389 DUP5 DUP3 PUSH1 0x20 DUP7 ADD PUSH3 0x314 JUMP JUMPDEST SWAP2 POP POP SWAP3 SWAP2 POP POP JUMP JUMPDEST PUSH1 0x0 PUSH20 0xFFFFFFFFFFFFFFFFFFFFFFFFFFFFFFFFFFFFFFFF DUP3 AND SWAP1 POP SWAP2 SWAP1 POP JUMP JUMPDEST PUSH1 0x0 PUSH3 0x3BF DUP3 PUSH3 0x392 JUMP JUMPDEST SWAP1 POP SWAP2 SWAP1 POP JUMP JUMPDEST PUSH3 0x3D1 DUP2 PUSH3 0x3B2 JUMP JUMPDEST DUP2 EQ PUSH3 0x3DD JUMPI PUSH1 0x0 DUP1 REVERT JUMPDEST POP JUMP JUMPDEST PUSH1 0x0 DUP2 MLOAD SWAP1 POP PUSH3 0x3F1 DUP2 PUSH3 0x3C6 JUMP JUMPDEST SWAP3 SWAP2 POP POP JUMP JUMPDEST PUSH1 0x0 PUSH8 0xFFFFFFFFFFFFFFFF DUP3 GT ISZERO PUSH3 0x415 JUMPI PUSH3 0x414 PUSH3 0x22E JUMP JUMPDEST JUMPDEST PUSH1 0x20 DUP3 MUL SWAP1 POP PUSH1 0x20 DUP2 ADD SWAP1 POP SWAP2 SWAP1 POP JUMP JUMPDEST PUSH1 0x0 DUP1 REVERT JUMPDEST PUSH1 0x0 PUSH3 0x442 PUSH3 0x43C DUP5 PUSH3 0x3F7 JUMP JUMPDEST PUSH3 0x293 JUMP JUMPDEST SWAP1 POP DUP1 DUP4 DUP3 MSTORE PUSH1 0x20 DUP3 ADD SWAP1 POP PUSH1 0x20 DUP5 MUL DUP4 ADD DUP6 DUP2 GT ISZERO PUSH3 0x468 JUMPI PUSH3 0x467 PUSH3 0x426 JUMP JUMPDEST JUMPDEST DUP4 JUMPDEST DUP2 DUP2 LT ISZERO PUSH3 0x495 JUMPI DUP1 PUSH3 0x480 DUP9 DUP3 PUSH3 0x3E0 JUMP JUMPDEST DUP5 MSTORE PUSH1 0x20 DUP5 ADD SWAP4 POP POP PUSH1 0x20 DUP2 ADD SWAP1 POP PUSH3 0x46A JUMP JUMPDEST POP POP POP SWAP4 SWAP3 POP POP POP JUMP JUMPDEST PUSH1 0x0 DUP3 PUSH1 0x1F DUP4 ADD SLT PUSH3 0x4B7 JUMPI PUSH3 0x4B6 PUSH3 0x213 JUMP JUMPDEST JUMPDEST DUP2 MLOAD PUSH3 0x4C9 DUP5 DUP3 PUSH1 0x20 DUP7 ADD PUSH3 0x42B JUMP JUMPDEST SWAP2 POP POP SWAP3 SWAP2 POP POP JUMP JUMPDEST PUSH1 0x0 DUP2 ISZERO ISZERO SWAP1 POP SWAP2 SWAP1 POP JUMP JUMPDEST PUSH3 0x4E9 DUP2 PUSH3 0x4D2 JUMP JUMPDEST DUP2 EQ PUSH3 0x4F5 JUMPI PUSH1 0x0 DUP1 REVERT JUMPDEST POP JUMP JUMPDEST PUSH1 0x0 DUP2 MLOAD SWAP1 POP PUSH3 0x509 DUP2 PUSH3 0x4DE JUMP JUMPDEST SWAP3 SWAP2 POP POP JUMP JUMPDEST PUSH1 0x0 DUP2 SWAP1 POP SWAP2 SWAP1 POP JUMP JUMPDEST PUSH3 0x524 DUP2 PUSH3 0x50F JUMP JUMPDEST DUP2 EQ PUSH3 0x530 JUMPI PUSH1 0x0 DUP1 REVERT JUMPDEST POP JUMP JUMPDEST PUSH1 0x0 DUP2 MLOAD SWAP1 POP PUSH3 0x544 DUP2 PUSH3 0x519 JUMP JUMPDEST SWAP3 SWAP2 POP POP JUMP JUMPDEST PUSH1 0x0 DUP1 PUSH1 0x0 DUP1 PUSH1 0x0 DUP1 PUSH1 0x0 DUP1 PUSH1 0x0 DUP1 PUSH2 0x140 DUP12 DUP14 SUB SLT ISZERO PUSH3 0x571 JUMPI PUSH3 0x570 PUSH3 0x209 JUMP JUMPDEST JUMPDEST PUSH1 0x0 DUP12 ADD MLOAD PUSH8 0xFFFFFFFFFFFFFFFF DUP2 GT ISZERO PUSH3 0x592 JUMPI PUSH3 0x591 PUSH3 0x20E JUMP JUMPDEST JUMPDEST PUSH3 0x5A0 DUP14 DUP3 DUP15 ADD PUSH3 0x35F JUMP JUMPDEST SWAP11 POP POP PUSH1 0x20 PUSH3 0x5B3 DUP14 DUP3 DUP15 ADD PUSH3 0x3E0 JUMP JUMPDEST SWAP10 POP POP PUSH1 0x40 DUP12 ADD MLOAD PUSH8 0xFFFFFFFFFFFFFFFF DUP2 GT ISZERO PUSH3 0x5D7 JUMPI PUSH3 0x5D6 PUSH3 0x20E JUMP JUMPDEST JUMPDEST PUSH3 0x5E5 DUP14 DUP3 DUP15 ADD PUSH3 0x49F JUMP JUMPDEST SWAP9 POP POP PUSH1 0x60 PUSH3 0x5F8 DUP14 DUP3 DUP15 ADD PUSH3 0x4F8 JUMP JUMPDEST SWAP8 POP POP PUSH1 0x80 PUSH3 0x60B DUP14 DUP3 DUP15 ADD PUSH3 0x4F8 JUMP JUMPDEST SWAP7 POP POP PUSH1 0xA0 PUSH3 0x61E DUP14 DUP3 DUP15 ADD PUSH3 0x4F8 JUMP JUMPDEST SWAP6 POP POP PUSH1 0xC0 PUSH3 0x631 DUP14 DUP3 DUP15 ADD PUSH3 0x4F8 JUMP JUMPDEST SWAP5 POP POP PUSH1 0xE0 PUSH3 0x644 DUP14 DUP3 DUP15 ADD PUSH3 0x4F8 JUMP JUMPDEST SWAP4 POP POP PUSH2 0x100 PUSH3 0x658 DUP14 DUP3 DUP15 ADD PUSH3 0x533 JUMP JUMPDEST SWAP3 POP POP PUSH2 0x120 PUSH3 0x66C DUP14 DUP3 DUP15 ADD PUSH3 0x533 JUMP JUMPDEST SWAP2 POP POP SWAP3 SWAP6 SWAP9 SWAP12 SWAP2 SWAP5 SWAP8 SWAP11 POP SWAP3 SWAP6 SWAP9 POP JUMP JUMPDEST PUSH1 0x0 DUP2 MLOAD SWAP1 POP SWAP2 SWAP1 POP JUMP JUMPDEST PUSH32 0x4E487B7100000000000000000000000000000000000000000000000000000000 PUSH1 0x0 MSTORE PUSH1 0x22 PUSH1 0x4 MSTORE PUSH1 0x24 PUSH1 0x0 REVERT JUMPDEST PUSH1 0x0 PUSH1 0x2 DUP3 DIV SWAP1 POP PUSH1 0x1 DUP3 AND DUP1 PUSH3 0x6D1 JUMPI PUSH1 0x7F DUP3 AND SWAP2 POP JUMPDEST PUSH1 0x20 DUP3 LT DUP2 SUB PUSH3 0x6E7 JUMPI PUSH3 0x6E6 PUSH3 0x689 JUMP JUMPDEST JUMPDEST POP SWAP2 SWAP1 POP JUMP JUMPDEST PUSH1 0x0 DUP2 SWAP1 POP DUP2 PUSH1 0x0 MSTORE PUSH1 0x20 PUSH1 0x0 KECCAK256 SWAP1 POP SWAP2 SWAP1 POP JUMP JUMPDEST PUSH1 0x0 PUSH1 0x20 PUSH1 0x1F DUP4 ADD DIV SWAP1 POP SWAP2 SWAP1 POP JUMP JUMPDEST PUSH1 0x0 DUP3 DUP3 SHL SWAP1 POP SWAP3 SWAP2 POP POP JUMP JUMPDEST PUSH1 0x0 PUSH1 0x8 DUP4 MUL PUSH3 0x751 PUSH32 0xFFFFFFFFFFFFFFFFFFFFFFFFFFFFFFFFFFFFFFFFFFFFFFFFFFFFFFFFFFFFFFFF DUP3 PUSH3 0x712 JUMP JUMPDEST PUSH3 0x75D DUP7 DUP4 PUSH3 0x712 JUMP JUMPDEST SWAP6 POP DUP1 NOT DUP5 AND SWAP4 POP DUP1 DUP7 AND DUP5 OR SWAP3 POP POP POP SWAP4 SWAP3 POP POP POP JUMP JUMPDEST PUSH1 0x0 DUP2 SWAP1 POP SWAP2 SWAP1 POP JUMP JUMPDEST PUSH1 0x0 PUSH3 0x7A0 PUSH3 0x79A PUSH3 0x794 DUP5 PUSH3 0x50F JUMP JUMPDEST PUSH3 0x775 JUMP JUMPDEST PUSH3 0x50F JUMP JUMPDEST SWAP1 POP SWAP2 SWAP1 POP JUMP JUMPDEST PUSH1 0x0 DUP2 SWAP1 POP SWAP2 SWAP1 POP JUMP JUMPDEST PUSH3 0x7BC DUP4 PUSH3 0x77F JUMP JUMPDEST PUSH3 0x7D4 PUSH3 0x7CB DUP3 PUSH3 0x7A7 JUMP JUMPDEST DUP5 DUP5 SLOAD PUSH3 0x71F JUMP JUMPDEST DUP3 SSTORE POP POP POP POP JUMP JUMPDEST PUSH1 0x0 SWAP1 JUMP JUMPDEST PUSH3 0x7EB PUSH3 0x7DC JUMP JUMPDEST PUSH3 0x7F8 DUP2 DUP5 DUP5 PUSH3 0x7B1 JUMP JUMPDEST POP POP POP JUMP JUMPDEST JUMPDEST DUP2 DUP2 LT ISZERO PUSH3 0x820 JUMPI PUSH3 0x814 PUSH1 0x0 DUP3 PUSH3 0x7E1 JUMP JUMPDEST PUSH1 0x1 DUP2 ADD SWAP1 POP PUSH3 0x7FE JUMP JUMPDEST POP POP JUMP JUMPDEST PUSH1 0x1F DUP3 GT ISZERO PUSH3 0x86F JUMPI PUSH3 0x839 DUP2 PUSH3 0x6ED JUMP JUMPDEST PUSH3 0x844 DUP5 PUSH3 0x702 JUMP JUMPDEST DUP2 ADD PUSH1 0x20 DUP6 LT ISZERO PUSH3 0x854 JUMPI DUP2 SWAP1 POP JUMPDEST PUSH3 0x86C PUSH3 0x863 DUP6 PUSH3 0x702 JUMP JUMPDEST DUP4 ADD DUP3 PUSH3 0x7FD JUMP JUMPDEST POP POP JUMPDEST POP POP POP JUMP JUMPDEST PUSH1 0x0 DUP3 DUP3 SHR SWAP1 POP SWAP3 SWAP2 POP POP JUMP JUMPDEST PUSH1 0x0 PUSH3 0x894 PUSH1 0x0 NOT DUP5 PUSH1 0x8 MUL PUSH3 0x874 JUMP JUMPDEST NOT DUP1 DUP4 AND SWAP2 POP POP SWAP3 SWAP2 POP POP JUMP JUMPDEST PUSH1 0x0 PUSH3 0x8AF DUP4 DUP4 PUSH3 0x881 JUMP JUMPDEST SWAP2 POP DUP3 PUSH1 0x2 MUL DUP3 OR SWAP1 POP SWAP3 SWAP2 POP POP JUMP JUMPDEST PUSH3 0x8CA DUP3 PUSH3 0x67E JUMP JUMPDEST PUSH8 0xFFFFFFFFFFFFFFFF DUP2 GT ISZERO PUSH3 0x8E6 JUMPI PUSH3 0x8E5 PUSH3 0x22E JUMP JUMPDEST JUMPDEST PUSH3 0x8F2 DUP3 SLOAD PUSH3 0x6B8 JUMP JUMPDEST PUSH3 0x8FF DUP3 DUP3 DUP6 PUSH3 0x824 JUMP JUMPDEST PUSH1 0x0 PUSH1 0x20 SWAP1 POP PUSH1 0x1F DUP4 GT PUSH1 0x1 DUP2 EQ PUSH3 0x937 JUMPI PUSH1 0x0 DUP5 ISZERO PUSH3 0x922 JUMPI DUP3 DUP8 ADD MLOAD SWAP1 POP JUMPDEST PUSH3 0x92E DUP6 DUP3 PUSH3 0x8A1 JUMP JUMPDEST DUP7 SSTORE POP PUSH3 0x99E JUMP JUMPDEST PUSH1 0x1F NOT DUP5 AND PUSH3 0x947 DUP7 PUSH3 0x6ED JUMP JUMPDEST PUSH1 0x0 JUMPDEST DUP3 DUP2 LT ISZERO PUSH3 0x971 JUMPI DUP5 DUP10 ADD MLOAD DUP3 SSTORE PUSH1 0x1 DUP3 ADD SWAP2 POP PUSH1 0x20 DUP6 ADD SWAP5 POP PUSH1 0x20 DUP2 ADD SWAP1 POP PUSH3 0x94A JUMP JUMPDEST DUP7 DUP4 LT ISZERO PUSH3 0x991 JUMPI DUP5 DUP10 ADD MLOAD PUSH3 0x98D PUSH1 0x1F DUP10 AND DUP3 PUSH3 0x881 JUMP JUMPDEST DUP4 SSTORE POP JUMPDEST PUSH1 0x1 PUSH1 0x2 DUP9 MUL ADD DUP9 SSTORE POP POP POP JUMPDEST POP POP POP POP POP POP JUMP JUMPDEST PUSH32 0x4E487B7100000000000000000000000000000000000000000000000000000000 PUSH1 0x0 MSTORE PUSH1 0x32 PUSH1 0x4 MSTORE PUSH1 0x24 PUSH1 0x0 REVERT JUMPDEST PUSH1 0x80 MLOAD PUSH1 0xA0 MLOAD PUSH1 0xC0 MLOAD PUSH1 0xE0 MLOAD PUSH2 0x100 MLOAD PUSH2 0x120 MLOAD PUSH2 0x140 MLOAD PUSH2 0x160 MLOAD PUSH2 0x180 MLOAD PUSH2 0x38B6 PUSH3 0xAD9 PUSH1 0x0 CODECOPY PUSH1 0x0 DUP2 DUP2 PUSH2 0xA3C ADD MSTORE DUP2 DUP2 PUSH2 0x1F2F ADD MSTORE PUSH2 0x214D ADD MSTORE PUSH1 0x0 DUP2 DUP2 PUSH2 0x1372 ADD MSTORE DUP2 DUP2 PUSH2 0x19BC ADD MSTORE PUSH2 0x212A ADD MSTORE PUSH1 0x0 DUP2 DUP2 PUSH2 0x940 ADD MSTORE DUP2 DUP2 PUSH2 0x19E6 ADD MSTORE DUP2 DUP2 PUSH2 0x2107 ADD MSTORE PUSH2 0x217C ADD MSTORE PUSH1 0x0 DUP2 DUP2 PUSH2 0xD07 ADD MSTORE DUP2 DUP2 PUSH2 0xD2F ADD MSTORE DUP2 DUP2 PUSH2 0x1502 ADD MSTORE DUP2 DUP2 PUSH2 0x1CEE ADD MSTORE PUSH2 0x20E4 ADD MSTORE PUSH1 0x0 DUP2 DUP2 PUSH2 0xC56 ADD MSTORE DUP2 DUP2 PUSH2 0x17CA ADD MSTORE DUP2 DUP2 PUSH2 0x1CC6 ADD MSTORE PUSH2 0x20C1 ADD MSTORE PUSH1 0x0 DUP2 DUP2 PUSH2 0x13A3 ADD MSTORE DUP2 DUP2 PUSH2 0x162E ADD MSTORE PUSH2 0x209E ADD MSTORE PUSH1 0x0 DUP2 DUP2 PUSH2 0xED5 ADD MSTORE DUP2 DUP2 PUSH2 0x1BC4 ADD MSTORE DUP2 DUP2 PUSH2 0x1FED ADD MSTORE PUSH2 0x21C0 ADD MSTORE PUSH1 0x0 DUP2 DUP2 PUSH2 0x1323 ADD MSTORE PUSH2 0x1884 ADD MSTORE PUSH1 0x0 DUP2 DUP2 PUSH2 0x7C3 ADD MSTORE PUSH2 0x1300 ADD MSTORE PUSH2 0x38B6 PUSH1 0x0 RETURN INVALID PUSH1 0x80 PUSH1 0x40 MSTORE PUSH1 0x4 CALLDATASIZE LT PUSH2 0x1EE JUMPI PUSH1 0x0 CALLDATALOAD PUSH1 0xE0 SHR DUP1 PUSH4 0x8A20BC37 GT PUSH2 0x10D JUMPI DUP1 PUSH4 0xD7BB99BA GT PUSH2 0xA0 JUMPI DUP1 PUSH4 0xE557E5DC GT PUSH2 0x6F JUMPI DUP1 PUSH4 0xE557E5DC EQ PUSH2 0x6CF JUMPI DUP1 PUSH4 0xECBFF6E7 EQ PUSH2 0x703 JUMPI DUP1 PUSH4 0xF3AE2415 EQ PUSH2 0x72E JUMPI DUP1 PUSH4 0xFA68B631 EQ PUSH2 0x76B JUMPI DUP1 PUSH4 0xFBFA4B7F EQ PUSH2 0x796 JUMPI PUSH2 0x1EE JUMP JUMPDEST DUP1 PUSH4 0xD7BB99BA EQ PUSH2 0x648 JUMPI DUP1 PUSH4 0xD7D1BBDB EQ PUSH2 0x652 JUMPI DUP1 PUSH4 0xD8247EE7 EQ PUSH2 0x67B JUMPI DUP1 PUSH4 0xDB2D78B1 EQ PUSH2 0x6A4 JUMPI PUSH2 0x1EE JUMP JUMPDEST DUP1 PUSH4 0xAA9CFC50 GT PUSH2 0xDC JUMPI DUP1 PUSH4 0xAA9CFC50 EQ PUSH2 0x59C JUMPI DUP1 PUSH4 0xAF157C19 EQ PUSH2 0x5C7 JUMPI DUP1 PUSH4 0xB69EF8A8 EQ PUSH2 0x5F2 JUMPI DUP1 PUSH4 0xCF09E0D0 EQ PUSH2 0x61D JUMPI PUSH2 0x1EE JUMP JUMPDEST DUP1 PUSH4 0x8A20BC37 EQ PUSH2 0x4E0 JUMPI DUP1 PUSH4 0x9073FA7E EQ PUSH2 0x50B JUMPI DUP1 PUSH4 0xA8D088BB EQ PUSH2 0x548 JUMPI DUP1 PUSH4 0xA9059CBB EQ PUSH2 0x573 JUMPI PUSH2 0x1EE JUMP JUMPDEST DUP1 PUSH4 0x3D39C260 GT PUSH2 0x185 JUMPI DUP1 PUSH4 0x691C7545 GT PUSH2 0x154 JUMPI DUP1 PUSH4 0x691C7545 EQ PUSH2 0x41C JUMPI DUP1 PUSH4 0x7569B3D7 EQ PUSH2 0x447 JUMPI DUP1 PUSH4 0x8175F2C7 EQ PUSH2 0x472 JUMPI DUP1 PUSH4 0x81D12C58 EQ PUSH2 0x49D JUMPI PUSH2 0x1EE JUMP JUMPDEST DUP1 PUSH4 0x3D39C260 EQ PUSH2 0x348 JUMPI DUP1 PUSH4 0x4051DDAC EQ PUSH2 0x385 JUMPI DUP1 PUSH4 0x42E94C90 EQ PUSH2 0x3B4 JUMPI DUP1 PUSH4 0x6308AE65 EQ PUSH2 0x3F1 JUMPI PUSH2 0x1EE JUMP JUMPDEST DUP1 PUSH4 0x1B16BB5C GT PUSH2 0x1C1 JUMPI DUP1 PUSH4 0x1B16BB5C EQ PUSH2 0x28E JUMPI DUP1 PUSH4 0x2DDE0013 EQ PUSH2 0x2B7 JUMPI DUP1 PUSH4 0x37C08923 EQ PUSH2 0x2E0 JUMPI DUP1 PUSH4 0x3CB5D100 EQ PUSH2 0x30B JUMPI PUSH2 0x1EE JUMP JUMPDEST DUP1 PUSH4 0x2D05D3F EQ PUSH2 0x1F3 JUMPI DUP1 PUSH4 0x3441006 EQ PUSH2 0x21E JUMPI DUP1 PUSH4 0x6FDDE03 EQ PUSH2 0x247 JUMPI DUP1 PUSH4 0x10718655 EQ PUSH2 0x272 JUMPI JUMPDEST PUSH1 0x0 DUP1 REVERT JUMPDEST CALLVALUE DUP1 ISZERO PUSH2 0x1FF JUMPI PUSH1 0x0 DUP1 REVERT JUMPDEST POP PUSH2 0x208 PUSH2 0x7C1 JUMP JUMPDEST PUSH1 0x40 MLOAD PUSH2 0x215 SWAP2 SWAP1 PUSH2 0x2402 JUMP JUMPDEST PUSH1 0x40 MLOAD DUP1 SWAP2 SUB SWAP1 RETURN JUMPDEST CALLVALUE DUP1 ISZERO PUSH2 0x22A JUMPI PUSH1 0x0 DUP1 REVERT JUMPDEST POP PUSH2 0x245 PUSH1 0x4 DUP1 CALLDATASIZE SUB DUP2 ADD SWAP1 PUSH2 0x240 SWAP2 SWAP1 PUSH2 0x2467 JUMP JUMPDEST PUSH2 0x7E5 JUMP JUMPDEST STOP JUMPDEST CALLVALUE DUP1 ISZERO PUSH2 0x253 JUMPI PUSH1 0x0 DUP1 REVERT JUMPDEST POP PUSH2 0x25C PUSH2 0xBBA JUMP JUMPDEST PUSH1 0x40 MLOAD PUSH2 0x269 SWAP2 SWAP1 PUSH2 0x2524 JUMP JUMPDEST PUSH1 0x40 MLOAD DUP1 SWAP2 SUB SWAP1 RETURN JUMPDEST PUSH2 0x28C PUSH1 0x4 DUP1 CALLDATASIZE SUB DUP2 ADD SWAP1 PUSH2 0x287 SWAP2 SWAP1 PUSH2 0x2572 JUMP JUMPDEST PUSH2 0xC48 JUMP JUMPDEST STOP JUMPDEST CALLVALUE DUP1 ISZERO PUSH2 0x29A JUMPI PUSH1 0x0 DUP1 REVERT JUMPDEST POP PUSH2 0x2B5 PUSH1 0x4 DUP1 CALLDATASIZE SUB DUP2 ADD SWAP1 PUSH2 0x2B0 SWAP2 SWAP1 PUSH2 0x26D4 JUMP JUMPDEST PUSH2 0xC54 JUMP JUMPDEST STOP JUMPDEST CALLVALUE DUP1 ISZERO PUSH2 0x2C3 JUMPI PUSH1 0x0 DUP1 REVERT JUMPDEST POP PUSH2 0x2DE PUSH1 0x4 DUP1 CALLDATASIZE SUB DUP2 ADD SWAP1 PUSH2 0x2D9 SWAP2 SWAP1 PUSH2 0x280B JUMP JUMPDEST PUSH2 0xED3 JUMP JUMPDEST STOP JUMPDEST CALLVALUE DUP1 ISZERO PUSH2 0x2EC JUMPI PUSH1 0x0 DUP1 REVERT JUMPDEST POP PUSH2 0x2F5 PUSH2 0x11D8 JUMP JUMPDEST PUSH1 0x40 MLOAD PUSH2 0x302 SWAP2 SWAP1 PUSH2 0x2863 JUMP JUMPDEST PUSH1 0x40 MLOAD DUP1 SWAP2 SUB SWAP1 RETURN JUMPDEST CALLVALUE DUP1 ISZERO PUSH2 0x317 JUMPI PUSH1 0x0 DUP1 REVERT JUMPDEST POP PUSH2 0x332 PUSH1 0x4 DUP1 CALLDATASIZE SUB DUP2 ADD SWAP1 PUSH2 0x32D SWAP2 SWAP1 PUSH2 0x2467 JUMP JUMPDEST PUSH2 0x11DE JUMP JUMPDEST PUSH1 0x40 MLOAD PUSH2 0x33F SWAP2 SWAP1 PUSH2 0x2402 JUMP JUMPDEST PUSH1 0x40 MLOAD DUP1 SWAP2 SUB SWAP1 RETURN JUMPDEST CALLVALUE DUP1 ISZERO PUSH2 0x354 JUMPI PUSH1 0x0 DUP1 REVERT JUMPDEST POP PUSH2 0x36F PUSH1 0x4 DUP1 CALLDATASIZE SUB DUP2 ADD SWAP1 PUSH2 0x36A SWAP2 SWAP1 PUSH2 0x2467 JUMP JUMPDEST PUSH2 0x121D JUMP JUMPDEST PUSH1 0x40 MLOAD PUSH2 0x37C SWAP2 SWAP1 PUSH2 0x2402 JUMP JUMPDEST PUSH1 0x40 MLOAD DUP1 SWAP2 SUB SWAP1 RETURN JUMPDEST CALLVALUE DUP1 ISZERO PUSH2 0x391 JUMPI PUSH1 0x0 DUP1 REVERT JUMPDEST POP PUSH2 0x39A PUSH2 0x125C JUMP JUMPDEST PUSH1 0x40 MLOAD PUSH2 0x3AB SWAP6 SWAP5 SWAP4 SWAP3 SWAP2 SWAP1 PUSH2 0x287E JUMP JUMPDEST PUSH1 0x40 MLOAD DUP1 SWAP2 SUB SWAP1 RETURN JUMPDEST CALLVALUE DUP1 ISZERO PUSH2 0x3C0 JUMPI PUSH1 0x0 DUP1 REVERT JUMPDEST POP PUSH2 0x3DB PUSH1 0x4 DUP1 CALLDATASIZE SUB DUP2 ADD SWAP1 PUSH2 0x3D6 SWAP2 SWAP1 PUSH2 0x2572 JUMP JUMPDEST PUSH2 0x134B JUMP JUMPDEST PUSH1 0x40 MLOAD PUSH2 0x3E8 SWAP2 SWAP1 PUSH2 0x2863 JUMP JUMPDEST PUSH1 0x40 MLOAD DUP1 SWAP2 SUB SWAP1 RETURN JUMPDEST CALLVALUE DUP1 ISZERO PUSH2 0x3FD JUMPI PUSH1 0x0 DUP1 REVERT JUMPDEST POP PUSH2 0x406 PUSH2 0x1363 JUMP JUMPDEST PUSH1 0x40 MLOAD PUSH2 0x413 SWAP2 SWAP1 PUSH2 0x2863 JUMP JUMPDEST PUSH1 0x40 MLOAD DUP1 SWAP2 SUB SWAP1 RETURN JUMPDEST CALLVALUE DUP1 ISZERO PUSH2 0x428 JUMPI PUSH1 0x0 DUP1 REVERT JUMPDEST POP PUSH2 0x431 PUSH2 0x1370 JUMP JUMPDEST PUSH1 0x40 MLOAD PUSH2 0x43E SWAP2 SWAP1 PUSH2 0x2863 JUMP JUMPDEST PUSH1 0x40 MLOAD DUP1 SWAP2 SUB SWAP1 RETURN JUMPDEST CALLVALUE DUP1 ISZERO PUSH2 0x453 JUMPI PUSH1 0x0 DUP1 REVERT JUMPDEST POP PUSH2 0x45C PUSH2 0x1394 JUMP JUMPDEST PUSH1 0x40 MLOAD PUSH2 0x469 SWAP2 SWAP1 PUSH2 0x2863 JUMP JUMPDEST PUSH1 0x40 MLOAD DUP1 SWAP2 SUB SWAP1 RETURN JUMPDEST CALLVALUE DUP1 ISZERO PUSH2 0x47E JUMPI PUSH1 0x0 DUP1 REVERT JUMPDEST POP PUSH2 0x487 PUSH2 0x13A1 JUMP JUMPDEST PUSH1 0x40 MLOAD PUSH2 0x494 SWAP2 SWAP1 PUSH2 0x28F3 JUMP JUMPDEST PUSH1 0x40 MLOAD DUP1 SWAP2 SUB SWAP1 RETURN JUMPDEST CALLVALUE DUP1 ISZERO PUSH2 0x4A9 JUMPI PUSH1 0x0 DUP1 REVERT JUMPDEST POP PUSH2 0x4C4 PUSH1 0x4 DUP1 CALLDATASIZE SUB DUP2 ADD SWAP1 PUSH2 0x4BF SWAP2 SWAP1 PUSH2 0x2467 JUMP JUMPDEST PUSH2 0x13C5 JUMP JUMPDEST PUSH1 0x40 MLOAD PUSH2 0x4D7 SWAP8 SWAP7 SWAP6 SWAP5 SWAP4 SWAP3 SWAP2 SWAP1 PUSH2 0x2939 JUMP JUMPDEST PUSH1 0x40 MLOAD DUP1 SWAP2 SUB SWAP1 RETURN JUMPDEST CALLVALUE DUP1 ISZERO PUSH2 0x4EC JUMPI PUSH1 0x0 DUP1 REVERT JUMPDEST POP PUSH2 0x4F5 PUSH2 0x1500 JUMP JUMPDEST PUSH1 0x40 MLOAD PUSH2 0x502 SWAP2 SWAP1 PUSH2 0x28F3 JUMP JUMPDEST PUSH1 0x40 MLOAD DUP1 SWAP2 SUB SWAP1 RETURN JUMPDEST CALLVALUE DUP1 ISZERO PUSH2 0x517 JUMPI PUSH1 0x0 DUP1 REVERT JUMPDEST POP PUSH2 0x532 PUSH1 0x4 DUP1 CALLDATASIZE SUB DUP2 ADD SWAP1 PUSH2 0x52D SWAP2 SWAP1 PUSH2 0x29AF JUMP JUMPDEST PUSH2 0x1524 JUMP JUMPDEST PUSH1 0x40 MLOAD PUSH2 0x53F SWAP2 SWAP1 PUSH2 0x28F3 JUMP JUMPDEST PUSH1 0x40 MLOAD DUP1 SWAP2 SUB SWAP1 RETURN JUMPDEST CALLVALUE DUP1 ISZERO PUSH2 0x554 JUMPI PUSH1 0x0 DUP1 REVERT JUMPDEST POP PUSH2 0x55D PUSH2 0x159E JUMP JUMPDEST PUSH1 0x40 MLOAD PUSH2 0x56A SWAP2 SWAP1 PUSH2 0x2AAD JUMP JUMPDEST PUSH1 0x40 MLOAD DUP1 SWAP2 SUB SWAP1 RETURN JUMPDEST CALLVALUE DUP1 ISZERO PUSH2 0x57F JUMPI PUSH1 0x0 DUP1 REVERT JUMPDEST POP PUSH2 0x59A PUSH1 0x4 DUP1 CALLDATASIZE SUB DUP2 ADD SWAP1 PUSH2 0x595 SWAP2 SWAP1 PUSH2 0x2ACF JUMP JUMPDEST PUSH2 0x162C JUMP JUMPDEST STOP JUMPDEST CALLVALUE DUP1 ISZERO PUSH2 0x5A8 JUMPI PUSH1 0x0 DUP1 REVERT JUMPDEST POP PUSH2 0x5B1 PUSH2 0x17C8 JUMP JUMPDEST PUSH1 0x40 MLOAD PUSH2 0x5BE SWAP2 SWAP1 PUSH2 0x28F3 JUMP JUMPDEST PUSH1 0x40 MLOAD DUP1 SWAP2 SUB SWAP1 RETURN JUMPDEST CALLVALUE DUP1 ISZERO PUSH2 0x5D3 JUMPI PUSH1 0x0 DUP1 REVERT JUMPDEST POP PUSH2 0x5DC PUSH2 0x17EC JUMP JUMPDEST PUSH1 0x40 MLOAD PUSH2 0x5E9 SWAP2 SWAP1 PUSH2 0x2AAD JUMP JUMPDEST PUSH1 0x40 MLOAD DUP1 SWAP2 SUB SWAP1 RETURN JUMPDEST CALLVALUE DUP1 ISZERO PUSH2 0x5FE JUMPI PUSH1 0x0 DUP1 REVERT JUMPDEST POP PUSH2 0x607 PUSH2 0x187A JUMP JUMPDEST PUSH1 0x40 MLOAD PUSH2 0x614 SWAP2 SWAP1 PUSH2 0x2863 JUMP JUMPDEST PUSH1 0x40 MLOAD DUP1 SWAP2 SUB SWAP1 RETURN JUMPDEST CALLVALUE DUP1 ISZERO PUSH2 0x629 JUMPI PUSH1 0x0 DUP1 REVERT JUMPDEST POP PUSH2 0x632 PUSH2 0x1882 JUMP JUMPDEST PUSH1 0x40 MLOAD PUSH2 0x63F SWAP2 SWAP1 PUSH2 0x2863 JUMP JUMPDEST PUSH1 0x40 MLOAD DUP1 SWAP2 SUB SWAP1 RETURN JUMPDEST PUSH2 0x650 PUSH2 0x18A6 JUMP JUMPDEST STOP JUMPDEST CALLVALUE DUP1 ISZERO PUSH2 0x65E JUMPI PUSH1 0x0 DUP1 REVERT JUMPDEST POP PUSH2 0x679 PUSH1 0x4 DUP1 CALLDATASIZE SUB DUP2 ADD SWAP1 PUSH2 0x674 SWAP2 SWAP1 PUSH2 0x2467 JUMP JUMPDEST PUSH2 0x18B1 JUMP JUMPDEST STOP JUMPDEST CALLVALUE DUP1 ISZERO PUSH2 0x687 JUMPI PUSH1 0x0 DUP1 REVERT JUMPDEST POP PUSH2 0x6A2 PUSH1 0x4 DUP1 CALLDATASIZE SUB DUP2 ADD SWAP1 PUSH2 0x69D SWAP2 SWAP1 PUSH2 0x2467 JUMP JUMPDEST PUSH2 0x1BC2 JUMP JUMPDEST STOP JUMPDEST CALLVALUE DUP1 ISZERO PUSH2 0x6B0 JUMPI PUSH1 0x0 DUP1 REVERT JUMPDEST POP PUSH2 0x6B9 PUSH2 0x1F2D JUMP JUMPDEST PUSH1 0x40 MLOAD PUSH2 0x6C6 SWAP2 SWAP1 PUSH2 0x2863 JUMP JUMPDEST PUSH1 0x40 MLOAD DUP1 SWAP2 SUB SWAP1 RETURN JUMPDEST CALLVALUE DUP1 ISZERO PUSH2 0x6DB JUMPI PUSH1 0x0 DUP1 REVERT JUMPDEST POP PUSH2 0x6E4 PUSH2 0x1F51 JUMP JUMPDEST PUSH1 0x40 MLOAD PUSH2 0x6FA SWAP11 SWAP10 SWAP9 SWAP8 SWAP7 SWAP6 SWAP5 SWAP4 SWAP3 SWAP2 SWAP1 PUSH2 0x2B0F JUMP JUMPDEST PUSH1 0x40 MLOAD DUP1 SWAP2 SUB SWAP1 RETURN JUMPDEST CALLVALUE DUP1 ISZERO PUSH2 0x70F JUMPI PUSH1 0x0 DUP1 REVERT JUMPDEST POP PUSH2 0x718 PUSH2 0x217A JUMP JUMPDEST PUSH1 0x40 MLOAD PUSH2 0x725 SWAP2 SWAP1 PUSH2 0x28F3 JUMP JUMPDEST PUSH1 0x40 MLOAD DUP1 SWAP2 SUB SWAP1 RETURN JUMPDEST CALLVALUE DUP1 ISZERO PUSH2 0x73A JUMPI PUSH1 0x0 DUP1 REVERT JUMPDEST POP PUSH2 0x755 PUSH1 0x4 DUP1 CALLDATASIZE SUB DUP2 ADD SWAP1 PUSH2 0x750 SWAP2 SWAP1 PUSH2 0x2572 JUMP JUMPDEST PUSH2 0x219E JUMP JUMPDEST PUSH1 0x40 MLOAD PUSH2 0x762 SWAP2 SWAP1 PUSH2 0x28F3 JUMP JUMPDEST PUSH1 0x40 MLOAD DUP1 SWAP2 SUB SWAP1 RETURN JUMPDEST CALLVALUE DUP1 ISZERO PUSH2 0x777 JUMPI PUSH1 0x0 DUP1 REVERT JUMPDEST POP PUSH2 0x780 PUSH2 0x21BE JUMP JUMPDEST PUSH1 0x40 MLOAD PUSH2 0x78D SWAP2 SWAP1 PUSH2 0x28F3 JUMP JUMPDEST PUSH1 0x40 MLOAD DUP1 SWAP2 SUB SWAP1 RETURN JUMPDEST CALLVALUE DUP1 ISZERO PUSH2 0x7A2 JUMPI PUSH1 0x0 DUP1 REVERT JUMPDEST POP PUSH2 0x7AB PUSH2 0x21E2 JUMP JUMPDEST PUSH1 0x40 MLOAD PUSH2 0x7B8 SWAP2 SWAP1 PUSH2 0x2863 JUMP JUMPDEST PUSH1 0x40 MLOAD DUP1 SWAP2 SUB SWAP1 RETURN JUMPDEST PUSH32 0x0 DUP2 JUMP JUMPDEST PUSH1 0x2 PUSH1 0x0 SLOAD SUB PUSH2 0x82A JUMPI PUSH1 0x40 MLOAD PUSH32 0x8C379A000000000000000000000000000000000000000000000000000000000 DUP2 MSTORE PUSH1 0x4 ADD PUSH2 0x821 SWAP1 PUSH2 0x2C05 JUMP JUMPDEST PUSH1 0x40 MLOAD DUP1 SWAP2 SUB SWAP1 REVERT JUMPDEST PUSH1 0x2 PUSH1 0x0 DUP2 SWAP1 SSTORE POP PUSH1 0x0 PUSH1 0x7 DUP3 DUP2 SLOAD DUP2 LT PUSH2 0x848 JUMPI PUSH2 0x847 PUSH2 0x2C25 JUMP JUMPDEST JUMPDEST SWAP1 PUSH1 0x0 MSTORE PUSH1 0x20 PUSH1 0x0 KECCAK256 SWAP1 PUSH1 0x8 MUL ADD SWAP1 POP CALLER PUSH20 0xFFFFFFFFFFFFFFFFFFFFFFFFFFFFFFFFFFFFFFFF AND DUP2 PUSH1 0x1 ADD PUSH1 0x0 SWAP1 SLOAD SWAP1 PUSH2 0x100 EXP SWAP1 DIV PUSH20 0xFFFFFFFFFFFFFFFFFFFFFFFFFFFFFFFFFFFFFFFF AND PUSH20 0xFFFFFFFFFFFFFFFFFFFFFFFFFFFFFFFFFFFFFFFF AND EQ PUSH2 0x8EA JUMPI PUSH1 0x40 MLOAD PUSH32 0x8C379A000000000000000000000000000000000000000000000000000000000 DUP2 MSTORE PUSH1 0x4 ADD PUSH2 0x8E1 SWAP1 PUSH2 0x2CC6 JUMP JUMPDEST PUSH1 0x40 MLOAD DUP1 SWAP2 SUB SWAP1 REVERT JUMPDEST DUP1 PUSH1 0x5 ADD PUSH1 0x0 SWAP1 SLOAD SWAP1 PUSH2 0x100 EXP SWAP1 DIV PUSH1 0xFF AND ISZERO PUSH2 0x93C JUMPI PUSH1 0x40 MLOAD PUSH32 0x8C379A000000000000000000000000000000000000000000000000000000000 DUP2 MSTORE PUSH1 0x4 ADD PUSH2 0x933 SWAP1 PUSH2 0x2D58 JUMP JUMPDEST PUSH1 0x40 MLOAD DUP1 SWAP2 SUB SWAP1 REVERT JUMPDEST PUSH1 0x0 PUSH32 0x0 ISZERO PUSH2 0x973 JUMPI PUSH2 0x96C PUSH2 0x1394 JUMP JUMPDEST SWAP1 POP PUSH2 0xA30 JUMP JUMPDEST PUSH2 0x97B PUSH2 0x1394 JUMP JUMPDEST SWAP1 POP PUSH1 0x0 JUMPDEST PUSH1 0x2 DUP1 SLOAD SWAP1 POP DUP2 LT ISZERO PUSH2 0xA2E JUMPI PUSH1 0x0 PUSH1 0x5 PUSH1 0x0 PUSH1 0x2 DUP5 DUP2 SLOAD DUP2 LT PUSH2 0x9A7 JUMPI PUSH2 0x9A6 PUSH2 0x2C25 JUMP JUMPDEST JUMPDEST SWAP1 PUSH1 0x0 MSTORE PUSH1 0x20 PUSH1 0x0 KECCAK256 ADD PUSH1 0x0 SWAP1 SLOAD SWAP1 PUSH2 0x100 EXP SWAP1 DIV PUSH20 0xFFFFFFFFFFFFFFFFFFFFFFFFFFFFFFFFFFFFFFFF AND PUSH20 0xFFFFFFFFFFFFFFFFFFFFFFFFFFFFFFFFFFFFFFFF AND PUSH20 0xFFFFFFFFFFFFFFFFFFFFFFFFFFFFFFFFFFFFFFFF AND DUP2 MSTORE PUSH1 0x20 ADD SWAP1 DUP2 MSTORE PUSH1 0x20 ADD PUSH1 0x0 KECCAK256 SLOAD GT PUSH2 0xA21 JUMPI DUP2 DUP1 PUSH2 0xA1D SWAP1 PUSH2 0x2DA7 JUMP JUMPDEST SWAP3 POP POP JUMPDEST DUP1 DUP1 PUSH1 0x1 ADD SWAP2 POP POP PUSH2 0x980 JUMP JUMPDEST POP JUMPDEST PUSH1 0x0 DUP2 EQ DUP1 PUSH2 0xA81 JUMPI POP PUSH32 0x0 DUP2 PUSH1 0x64 PUSH2 0xA6A DUP6 PUSH1 0x7 ADD PUSH2 0x21EF JUMP JUMPDEST PUSH2 0xA74 SWAP2 SWAP1 PUSH2 0x2DEF JUMP JUMPDEST PUSH2 0xA7E SWAP2 SWAP1 PUSH2 0x2E78 JUMP JUMPDEST LT ISZERO JUMPDEST PUSH2 0xAC0 JUMPI PUSH1 0x40 MLOAD PUSH32 0x8C379A000000000000000000000000000000000000000000000000000000000 DUP2 MSTORE PUSH1 0x4 ADD PUSH2 0xAB7 SWAP1 PUSH2 0x2F1B JUMP JUMPDEST PUSH1 0x40 MLOAD DUP1 SWAP2 SUB SWAP1 REVERT JUMPDEST PUSH1 0x0 DUP3 PUSH1 0x3 ADD SLOAD SWAP1 POP PUSH2 0xAD1 PUSH2 0x187A JUMP JUMPDEST DUP2 GT ISZERO PUSH2 0xAE3 JUMPI PUSH2 0xAE0 PUSH2 0x187A JUMP JUMPDEST SWAP1 POP JUMPDEST DUP3 PUSH1 0x2 ADD PUSH1 0x0 SWAP1 SLOAD SWAP1 PUSH2 0x100 EXP SWAP1 DIV PUSH20 0xFFFFFFFFFFFFFFFFFFFFFFFFFFFFFFFFFFFFFFFF AND PUSH20 0xFFFFFFFFFFFFFFFFFFFFFFFFFFFFFFFFFFFFFFFF AND PUSH2 0x8FC DUP3 SWAP1 DUP2 ISZERO MUL SWAP1 PUSH1 0x40 MLOAD PUSH1 0x0 PUSH1 0x40 MLOAD DUP1 DUP4 SUB DUP2 DUP6 DUP9 DUP9 CALL SWAP4 POP POP POP POP ISZERO DUP1 ISZERO PUSH2 0xB4D JUMPI RETURNDATASIZE PUSH1 0x0 DUP1 RETURNDATACOPY RETURNDATASIZE PUSH1 0x0 REVERT JUMPDEST POP DUP1 DUP4 PUSH1 0x4 ADD DUP2 SWAP1 SSTORE POP PUSH1 0x1 DUP4 PUSH1 0x5 ADD PUSH1 0x0 PUSH2 0x100 EXP DUP2 SLOAD DUP2 PUSH1 0xFF MUL NOT AND SWAP1 DUP4 ISZERO ISZERO MUL OR SWAP1 SSTORE POP DUP4 PUSH32 0x2A26D55234AE45D40D3BDFD1893CF58FF7C2BB1C8089D97ED73879054778458C DUP3 PUSH1 0x40 MLOAD PUSH2 0xBA4 SWAP2 SWAP1 PUSH2 0x2863 JUMP JUMPDEST PUSH1 0x40 MLOAD DUP1 SWAP2 SUB SWAP1 LOG2 POP POP POP PUSH1 0x1 PUSH1 0x0 DUP2 SWAP1 SSTORE POP POP JUMP JUMPDEST PUSH1 0x1 DUP1 SLOAD PUSH2 0xBC7 SWAP1 PUSH2 0x2F6A JUMP JUMPDEST DUP1 PUSH1 0x1F ADD PUSH1 0x20 DUP1 SWAP2 DIV MUL PUSH1 0x20 ADD PUSH1 0x40 MLOAD SWAP1 DUP2 ADD PUSH1 0x40 MSTORE DUP1 SWAP3 SWAP2 SWAP1 DUP2 DUP2 MSTORE PUSH1 0x20 ADD DUP3 DUP1 SLOAD PUSH2 0xBF3 SWAP1 PUSH2 0x2F6A JUMP JUMPDEST DUP1 ISZERO PUSH2 0xC40 JUMPI DUP1 PUSH1 0x1F LT PUSH2 0xC15 JUMPI PUSH2 0x100 DUP1 DUP4 SLOAD DIV MUL DUP4 MSTORE SWAP2 PUSH1 0x20 ADD SWAP2 PUSH2 0xC40 JUMP JUMPDEST DUP3 ADD SWAP2 SWAP1 PUSH1 0x0 MSTORE PUSH1 0x20 PUSH1 0x0 KECCAK256 SWAP1 JUMPDEST DUP2 SLOAD DUP2 MSTORE SWAP1 PUSH1 0x1 ADD SWAP1 PUSH1 0x20 ADD DUP1 DUP4 GT PUSH2 0xC23 JUMPI DUP3 SWAP1 SUB PUSH1 0x1F AND DUP3 ADD SWAP2 JUMPDEST POP POP POP POP POP DUP2 JUMP JUMPDEST PUSH2 0xC51 DUP2 PUSH2 0x21FD JUMP JUMPDEST POP JUMP JUMPDEST PUSH32 0x0 PUSH2 0xCB4 JUMPI PUSH1 0x40 MLOAD PUSH32 0x8C379A000000000000000000000000000000000000000000000000000000000 DUP2 MSTORE PUSH1 0x4 ADD PUSH2 0xCAB SWAP1 PUSH2 0x2FE7 JUMP JUMPDEST PUSH1 0x40 MLOAD DUP1 SWAP2 SUB SWAP1 REVERT JUMPDEST PUSH1 0x0 PUSH1 0x3 PUSH1 0x0 CALLER PUSH20 0xFFFFFFFFFFFFFFFFFFFFFFFFFFFFFFFFFFFFFFFF AND PUSH20 0xFFFFFFFFFFFFFFFFFFFFFFFFFFFFFFFFFFFFFFFF AND DUP2 MSTORE PUSH1 0x20 ADD SWAP1 DUP2 MSTORE PUSH1 0x20 ADD PUSH1 0x0 KECCAK256 PUSH1 0x0 SWAP1 SLOAD SWAP1 PUSH2 0x100 EXP SWAP1 DIV PUSH1 0xFF AND SWAP1 POP PUSH32 0x0 ISZERO DUP1 PUSH2 0xD58 JUMPI POP PUSH32 0x0 DUP1 ISZERO PUSH2 0xD57 JUMPI POP DUP1 JUMPDEST JUMPDEST PUSH2 0xD97 JUMPI PUSH1 0x40 MLOAD PUSH32 0x8C379A000000000000000000000000000000000000000000000000000000000 DUP2 MSTORE PUSH1 0x4 ADD PUSH2 0xD8E SWAP1 PUSH2 0x3079 JUMP JUMPDEST PUSH1 0x40 MLOAD DUP1 SWAP2 SUB SWAP1 REVERT JUMPDEST PUSH1 0x0 PUSH1 0x7 PUSH1 0x1 DUP2 PUSH1 0x1 DUP2 SLOAD ADD DUP1 DUP3 SSTORE DUP1 SWAP2 POP POP SUB SWAP1 PUSH1 0x0 MSTORE PUSH1 0x20 PUSH1 0x0 KECCAK256 SWAP1 PUSH1 0x8 MUL ADD SWAP1 POP DUP5 DUP2 PUSH1 0x0 ADD SWAP1 DUP2 PUSH2 0xDCC SWAP2 SWAP1 PUSH2 0x3245 JUMP JUMPDEST POP CALLER DUP2 PUSH1 0x1 ADD PUSH1 0x0 PUSH2 0x100 EXP DUP2 SLOAD DUP2 PUSH20 0xFFFFFFFFFFFFFFFFFFFFFFFFFFFFFFFFFFFFFFFF MUL NOT AND SWAP1 DUP4 PUSH20 0xFFFFFFFFFFFFFFFFFFFFFFFFFFFFFFFFFFFFFFFF AND MUL OR SWAP1 SSTORE POP DUP4 DUP2 PUSH1 0x2 ADD PUSH1 0x0 PUSH2 0x100 EXP DUP2 SLOAD DUP2 PUSH20 0xFFFFFFFFFFFFFFFFFFFFFFFFFFFFFFFFFFFFFFFF MUL NOT AND SWAP1 DUP4 PUSH20 0xFFFFFFFFFFFFFFFFFFFFFFFFFFFFFFFFFFFFFFFF AND MUL OR SWAP1 SSTORE POP DUP3 DUP2 PUSH1 0x3 ADD DUP2 SWAP1 SSTORE POP DUP4 PUSH20 0xFFFFFFFFFFFFFFFFFFFFFFFFFFFFFFFFFFFFFFFF AND CALLER PUSH20 0xFFFFFFFFFFFFFFFFFFFFFFFFFFFFFFFFFFFFFFFF AND PUSH1 0x1 PUSH1 0x7 DUP1 SLOAD SWAP1 POP SUB PUSH32 0x5951F0E7966A5F08A4C0A5F25718915CC221B5A4FC488A15B2FBF1F12248D5C2 DUP9 DUP8 PUSH1 0x40 MLOAD PUSH2 0xEC4 SWAP3 SWAP2 SWAP1 PUSH2 0x3317 JUMP JUMPDEST PUSH1 0x40 MLOAD DUP1 SWAP2 SUB SWAP1 LOG4 POP POP POP POP POP JUMP JUMPDEST PUSH32 0x0 PUSH2 0xF33 JUMPI PUSH1 0x40 MLOAD PUSH32 0x8C379A000000000000000000000000000000000000000000000000000000000 DUP2 MSTORE PUSH1 0x4 ADD PUSH2 0xF2A SWAP1 PUSH2 0x3393 JUMP JUMPDEST PUSH1 0x40 MLOAD DUP1 SWAP2 SUB SWAP1 REVERT JUMPDEST PUSH1 0x3 PUSH1 0x0 CALLER PUSH20 0xFFFFFFFFFFFFFFFFFFFFFFFFFFFFFFFFFFFFFFFF AND PUSH20 0xFFFFFFFFFFFFFFFFFFFFFFFFFFFFFFFFFFFFFFFF AND DUP2 MSTORE PUSH1 0x20 ADD SWAP1 DUP2 MSTORE PUSH1 0x20 ADD PUSH1 0x0 KECCAK256 PUSH1 0x0 SWAP1 SLOAD SWAP1 PUSH2 0x100 EXP SWAP1 DIV PUSH1 0xFF AND PUSH2 0xFBF JUMPI PUSH1 0x40 MLOAD PUSH32 0x8C379A000000000000000000000000000000000000000000000000000000000 DUP2 MSTORE PUSH1 0x4 ADD PUSH2 0xFB6 SWAP1 PUSH2 0x33FF JUMP JUMPDEST PUSH1 0x40 MLOAD DUP1 SWAP2 SUB SWAP1 REVERT JUMPDEST PUSH1 0x0 DUP2 MLOAD GT PUSH2 0x1003 JUMPI PUSH1 0x40 MLOAD PUSH32 0x8C379A000000000000000000000000000000000000000000000000000000000 DUP2 MSTORE PUSH1 0x4 ADD PUSH2 0xFFA SWAP1 PUSH2 0x3491 JUMP JUMPDEST PUSH1 0x40 MLOAD DUP1 SWAP2 SUB SWAP1 REVERT JUMPDEST PUSH1 0x0 JUMPDEST DUP2 MLOAD DUP2 LT ISZERO PUSH2 0x11D4 JUMPI PUSH1 0x3 PUSH1 0x0 DUP4 DUP4 DUP2 MLOAD DUP2 LT PUSH2 0x1026 JUMPI PUSH2 0x1025 PUSH2 0x2C25 JUMP JUMPDEST JUMPDEST PUSH1 0x20 MUL PUSH1 0x20 ADD ADD MLOAD PUSH20 0xFFFFFFFFFFFFFFFFFFFFFFFFFFFFFFFFFFFFFFFF AND PUSH20 0xFFFFFFFFFFFFFFFFFFFFFFFFFFFFFFFFFFFFFFFF AND DUP2 MSTORE PUSH1 0x20 ADD SWAP1 DUP2 MSTORE PUSH1 0x20 ADD PUSH1 0x0 KECCAK256 PUSH1 0x0 SWAP1 SLOAD SWAP1 PUSH2 0x100 EXP SWAP1 DIV PUSH1 0xFF AND PUSH2 0x11C7 JUMPI PUSH1 0x2 DUP3 DUP3 DUP2 MLOAD DUP2 LT PUSH2 0x108F JUMPI PUSH2 0x108E PUSH2 0x2C25 JUMP JUMPDEST JUMPDEST PUSH1 0x20 MUL PUSH1 0x20 ADD ADD MLOAD SWAP1 DUP1 PUSH1 0x1 DUP2 SLOAD ADD DUP1 DUP3 SSTORE DUP1 SWAP2 POP POP PUSH1 0x1 SWAP1 SUB SWAP1 PUSH1 0x0 MSTORE PUSH1 0x20 PUSH1 0x0 KECCAK256 ADD PUSH1 0x0 SWAP1 SWAP2 SWAP1 SWAP2 SWAP1 SWAP2 PUSH2 0x100 EXP DUP2 SLOAD DUP2 PUSH20 0xFFFFFFFFFFFFFFFFFFFFFFFFFFFFFFFFFFFFFFFF MUL NOT AND SWAP1 DUP4 PUSH20 0xFFFFFFFFFFFFFFFFFFFFFFFFFFFFFFFFFFFFFFFF AND MUL OR SWAP1 SSTORE POP PUSH1 0x1 PUSH1 0x3 PUSH1 0x0 DUP5 DUP5 DUP2 MLOAD DUP2 LT PUSH2 0x1110 JUMPI PUSH2 0x110F PUSH2 0x2C25 JUMP JUMPDEST JUMPDEST PUSH1 0x20 MUL PUSH1 0x20 ADD ADD MLOAD PUSH20 0xFFFFFFFFFFFFFFFFFFFFFFFFFFFFFFFFFFFFFFFF AND PUSH20 0xFFFFFFFFFFFFFFFFFFFFFFFFFFFFFFFFFFFFFFFF AND DUP2 MSTORE PUSH1 0x20 ADD SWAP1 DUP2 MSTORE PUSH1 0x20 ADD PUSH1 0x0 KECCAK256 PUSH1 0x0 PUSH2 0x100 EXP DUP2 SLOAD DUP2 PUSH1 0xFF MUL NOT AND SWAP1 DUP4 ISZERO ISZERO MUL OR SWAP1 SSTORE POP DUP2 DUP2 DUP2 MLOAD DUP2 LT PUSH2 0x117C JUMPI PUSH2 0x117B PUSH2 0x2C25 JUMP JUMPDEST JUMPDEST PUSH1 0x20 MUL PUSH1 0x20 ADD ADD MLOAD PUSH20 0xFFFFFFFFFFFFFFFFFFFFFFFFFFFFFFFFFFFFFFFF AND PUSH32 0x5589A1DF7A257347B14B97CB6FE06862C960FF64E9A0C2908632929098BB0130 PUSH1 0x40 MLOAD PUSH1 0x40 MLOAD DUP1 SWAP2 SUB SWAP1 LOG2 JUMPDEST DUP1 DUP1 PUSH1 0x1 ADD SWAP2 POP POP PUSH2 0x1006 JUMP JUMPDEST POP POP JUMP JUMPDEST PUSH1 0x6 SLOAD DUP2 JUMP JUMPDEST PUSH1 0x4 DUP2 DUP2 SLOAD DUP2 LT PUSH2 0x11EE JUMPI PUSH1 0x0 DUP1 REVERT JUMPDEST SWAP1 PUSH1 0x0 MSTORE PUSH1 0x20 PUSH1 0x0 KECCAK256 ADD PUSH1 0x0 SWAP2 POP SLOAD SWAP1 PUSH2 0x100 EXP SWAP1 DIV PUSH20 0xFFFFFFFFFFFFFFFFFFFFFFFFFFFFFFFFFFFFFFFF AND DUP2 JUMP JUMPDEST PUSH1 0x2 DUP2 DUP2 SLOAD DUP2 LT PUSH2 0x122D JUMPI PUSH1 0x0 DUP1 REVERT JUMPDEST SWAP1 PUSH1 0x0 MSTORE PUSH1 0x20 PUSH1 0x0 KECCAK256 ADD PUSH1 0x0 SWAP2 POP SLOAD SWAP1 PUSH2 0x100 EXP SWAP1 DIV PUSH20 0xFFFFFFFFFFFFFFFFFFFFFFFFFFFFFFFFFFFFFFFF AND DUP2 JUMP JUMPDEST PUSH1 0x0 DUP1 PUSH1 0x60 PUSH1 0x0 DUP1 ADDRESS SWAP5 POP PUSH2 0x126F PUSH2 0x187A JUMP JUMPDEST SWAP4 POP PUSH1 0x1 DUP1 SLOAD PUSH2 0x127E SWAP1 PUSH2 0x2F6A JUMP JUMPDEST DUP1 PUSH1 0x1F ADD PUSH1 0x20 DUP1 SWAP2 DIV MUL PUSH1 0x20 ADD PUSH1 0x40 MLOAD SWAP1 DUP2 ADD PUSH1 0x40 MSTORE DUP1 SWAP3 SWAP2 SWAP1 DUP2 DUP2 MSTORE PUSH1 0x20 ADD DUP3 DUP1 SLOAD PUSH2 0x12AA SWAP1 PUSH2 0x2F6A JUMP JUMPDEST DUP1 ISZERO PUSH2 0x12F7 JUMPI DUP1 PUSH1 0x1F LT PUSH2 0x12CC JUMPI PUSH2 0x100 DUP1 DUP4 SLOAD DIV MUL DUP4 MSTORE SWAP2 PUSH1 0x20 ADD SWAP2 PUSH2 0x12F7 JUMP JUMPDEST DUP3 ADD SWAP2 SWAP1 PUSH1 0x0 MSTORE PUSH1 0x20 PUSH1 0x0 KECCAK256 SWAP1 JUMPDEST DUP2 SLOAD DUP2 MSTORE SWAP1 PUSH1 0x1 ADD SWAP1 PUSH1 0x20 ADD DUP1 DUP4 GT PUSH2 0x12DA JUMPI DUP3 SWAP1 SUB PUSH1 0x1F AND DUP3 ADD SWAP2 JUMPDEST POP POP POP POP POP SWAP3 POP PUSH32 0x0 SWAP2 POP PUSH32 0x0 SWAP1 POP SWAP1 SWAP2 SWAP3 SWAP4 SWAP5 JUMP JUMPDEST PUSH1 0x5 PUSH1 0x20 MSTORE DUP1 PUSH1 0x0 MSTORE PUSH1 0x40 PUSH1 0x0 KECCAK256 PUSH1 0x0 SWAP2 POP SWAP1 POP SLOAD DUP2 JUMP JUMPDEST PUSH1 0x0 PUSH1 0x2 DUP1 SLOAD SWAP1 POP SWAP1 POP SWAP1 JUMP JUMPDEST PUSH32 0x0 DUP2 JUMP JUMPDEST PUSH1 0x0 PUSH1 0x4 DUP1 SLOAD SWAP1 POP SWAP1 POP SWAP1 JUMP JUMPDEST PUSH32 0x0 DUP2 JUMP JUMPDEST PUSH1 0x7 DUP2 DUP2 SLOAD DUP2 LT PUSH2 0x13D5 JUMPI PUSH1 0x0 DUP1 REVERT JUMPDEST SWAP1 PUSH1 0x0 MSTORE PUSH1 0x20 PUSH1 0x0 KECCAK256 SWAP1 PUSH1 0x8 MUL ADD PUSH1 0x0 SWAP2 POP SWAP1 POP DUP1 PUSH1 0x0 ADD DUP1 SLOAD PUSH2 0x13F8 SWAP1 PUSH2 0x2F6A JUMP JUMPDEST DUP1 PUSH1 0x1F ADD PUSH1 0x20 DUP1 SWAP2 DIV MUL PUSH1 0x20 ADD PUSH1 0x40 MLOAD SWAP1 DUP2 ADD PUSH1 0x40 MSTORE DUP1 SWAP3 SWAP2 SWAP1 DUP2 DUP2 MSTORE PUSH1 0x20 ADD DUP3 DUP1 SLOAD PUSH2 0x1424 SWAP1 PUSH2 0x2F6A JUMP JUMPDEST DUP1 ISZERO PUSH2 0x1471 JUMPI DUP1 PUSH1 0x1F LT PUSH2 0x1446 JUMPI PUSH2 0x100 DUP1 DUP4 SLOAD DIV MUL DUP4 MSTORE SWAP2 PUSH1 0x20 ADD SWAP2 PUSH2 0x1471 JUMP JUMPDEST DUP3 ADD SWAP2 SWAP1 PUSH1 0x0 MSTORE PUSH1 0x20 PUSH1 0x0 KECCAK256 SWAP1 JUMPDEST DUP2 SLOAD DUP2 MSTORE SWAP1 PUSH1 0x1 ADD SWAP1 PUSH1 0x20 ADD DUP1 DUP4 GT PUSH2 0x1454 JUMPI DUP3 SWAP1 SUB PUSH1 0x1F AND DUP3 ADD SWAP2 JUMPDEST POP POP POP POP POP SWAP1 DUP1 PUSH1 0x1 ADD PUSH1 0x0 SWAP1 SLOAD SWAP1 PUSH2 0x100 EXP SWAP1 DIV PUSH20 0xFFFFFFFFFFFFFFFFFFFFFFFFFFFFFFFFFFFFFFFF AND SWAP1 DUP1 PUSH1 0x2 ADD PUSH1 0x0 SWAP1 SLOAD SWAP1 PUSH2 0x100 EXP SWAP1 DIV PUSH20 0xFFFFFFFFFFFFFFFFFFFFFFFFFFFFFFFFFFFFFFFF AND SWAP1 DUP1 PUSH1 0x3 ADD SLOAD SWAP1 DUP1 PUSH1 0x4 ADD SLOAD SWAP1 DUP1 PUSH1 0x5 ADD PUSH1 0x0 SWAP1 SLOAD SWAP1 PUSH2 0x100 EXP SWAP1 DIV PUSH1 0xFF AND SWAP1 DUP1 PUSH1 0x7 ADD PUSH1 0x40 MLOAD DUP1 PUSH1 0x20 ADD PUSH1 0x40 MSTORE SWAP1 DUP2 PUSH1 0x0 DUP3 ADD SLOAD DUP2 MSTORE POP POP SWAP1 POP DUP8 JUMP JUMPDEST PUSH32 0x0 DUP2 JUMP JUMPDEST PUSH1 0x0 PUSH1 0x7 DUP4 DUP2 SLOAD DUP2 LT PUSH2 0x153A JUMPI PUSH2 0x1539 PUSH2 0x2C25 JUMP JUMPDEST JUMPDEST SWAP1 PUSH1 0x0 MSTORE PUSH1 0x20 PUSH1 0x0 KECCAK256 SWAP1 PUSH1 0x8 MUL ADD PUSH1 0x6 ADD PUSH1 0x0 DUP4 PUSH20 0xFFFFFFFFFFFFFFFFFFFFFFFFFFFFFFFFFFFFFFFF AND PUSH20 0xFFFFFFFFFFFFFFFFFFFFFFFFFFFFFFFFFFFFFFFF AND DUP2 MSTORE PUSH1 0x20 ADD SWAP1 DUP2 MSTORE PUSH1 0x20 ADD PUSH1 0x0 KECCAK256 PUSH1 0x0 SWAP1 SLOAD SWAP1 PUSH2 0x100 EXP SWAP1 DIV PUSH1 0xFF AND SWAP1 POP SWAP3 SWAP2 POP POP JUMP JUMPDEST PUSH1 0x60 PUSH1 0x2 DUP1 SLOAD DUP1 PUSH1 0x20 MUL PUSH1 0x20 ADD PUSH1 0x40 MLOAD SWAP1 DUP2 ADD PUSH1 0x40 MSTORE DUP1 SWAP3 SWAP2 SWAP1 DUP2 DUP2 MSTORE PUSH1 0x20 ADD DUP3 DUP1 SLOAD DUP1 ISZERO PUSH2 0x1622 JUMPI PUSH1 0x20 MUL DUP3 ADD SWAP2 SWAP1 PUSH1 0x0 MSTORE PUSH1 0x20 PUSH1 0x0 KECCAK256 SWAP1 JUMPDEST DUP2 PUSH1 0x0 SWAP1 SLOAD SWAP1 PUSH2 0x100 EXP SWAP1 DIV PUSH20 0xFFFFFFFFFFFFFFFFFFFFFFFFFFFFFFFFFFFFFFFF AND PUSH20 0xFFFFFFFFFFFFFFFFFFFFFFFFFFFFFFFFFFFFFFFF AND DUP2 MSTORE PUSH1 0x20 ADD SWAP1 PUSH1 0x1 ADD SWAP1 DUP1 DUP4 GT PUSH2 0x15D8 JUMPI JUMPDEST POP POP POP POP POP SWAP1 POP SWAP1 JUMP JUMPDEST PUSH32 0x0 PUSH2 0x168C JUMPI PUSH1 0x40 MLOAD PUSH32 0x8C379A000000000000000000000000000000000000000000000000000000000 DUP2 MSTORE PUSH1 0x4 ADD PUSH2 0x1683 SWAP1 PUSH2 0x3523 JUMP JUMPDEST PUSH1 0x40 MLOAD DUP1 SWAP2 SUB SWAP1 REVERT JUMPDEST PUSH1 0x3 PUSH1 0x0 CALLER PUSH20 0xFFFFFFFFFFFFFFFFFFFFFFFFFFFFFFFFFFFFFFFF AND PUSH20 0xFFFFFFFFFFFFFFFFFFFFFFFFFFFFFFFFFFFFFFFF AND DUP2 MSTORE PUSH1 0x20 ADD SWAP1 DUP2 MSTORE PUSH1 0x20 ADD PUSH1 0x0 KECCAK256 PUSH1 0x0 SWAP1 SLOAD SWAP1 PUSH2 0x100 EXP SWAP1 DIV PUSH1 0xFF AND PUSH2 0x1718 JUMPI PUSH1 0x40 MLOAD PUSH32 0x8C379A000000000000000000000000000000000000000000000000000000000 DUP2 MSTORE PUSH1 0x4 ADD PUSH2 0x170F SWAP1 PUSH2 0x33FF JUMP JUMPDEST PUSH1 0x40 MLOAD DUP1 SWAP2 SUB SWAP1 REVERT JUMPDEST DUP2 PUSH20 0xFFFFFFFFFFFFFFFFFFFFFFFFFFFFFFFFFFFFFFFF AND PUSH2 0x8FC DUP3 SWAP1 DUP2 ISZERO MUL SWAP1 PUSH1 0x40 MLOAD PUSH1 0x0 PUSH1 0x40 MLOAD DUP1 DUP4 SUB DUP2 DUP6 DUP9 DUP9 CALL SWAP4 POP POP POP POP ISZERO DUP1 ISZERO PUSH2 0x175E JUMPI RETURNDATASIZE PUSH1 0x0 DUP1 RETURNDATACOPY RETURNDATASIZE PUSH1 0x0 REVERT JUMPDEST POP DUP2 PUSH20 0xFFFFFFFFFFFFFFFFFFFFFFFFFFFFFFFFFFFFFFFF AND CALLER PUSH20 0xFFFFFFFFFFFFFFFFFFFFFFFFFFFFFFFFFFFFFFFF AND PUSH32 0xDDF252AD1BE2C89B69C2B068FC378DAA952BA7F163C4A11628F55A4DF523B3EF DUP4 PUSH1 0x40 MLOAD PUSH2 0x17BC SWAP2 SWAP1 PUSH2 0x2863 JUMP JUMPDEST PUSH1 0x40 MLOAD DUP1 SWAP2 SUB SWAP1 LOG3 POP POP JUMP JUMPDEST PUSH32 0x0 DUP2 JUMP JUMPDEST PUSH1 0x60 PUSH1 0x4 DUP1 SLOAD DUP1 PUSH1 0x20 MUL PUSH1 0x20 ADD PUSH1 0x40 MLOAD SWAP1 DUP2 ADD PUSH1 0x40 MSTORE DUP1 SWAP3 SWAP2 SWAP1 DUP2 DUP2 MSTORE PUSH1 0x20 ADD DUP3 DUP1 SLOAD DUP1 ISZERO PUSH2 0x1870 JUMPI PUSH1 0x20 MUL DUP3 ADD SWAP2 SWAP1 PUSH1 0x0 MSTORE PUSH1 0x20 PUSH1 0x0 KECCAK256 SWAP1 JUMPDEST DUP2 PUSH1 0x0 SWAP1 SLOAD SWAP1 PUSH2 0x100 EXP SWAP1 DIV PUSH20 0xFFFFFFFFFFFFFFFFFFFFFFFFFFFFFFFFFFFFFFFF AND PUSH20 0xFFFFFFFFFFFFFFFFFFFFFFFFFFFFFFFFFFFFFFFF AND DUP2 MSTORE PUSH1 0x20 ADD SWAP1 PUSH1 0x1 ADD SWAP1 DUP1 DUP4 GT PUSH2 0x1826 JUMPI JUMPDEST POP POP POP POP POP SWAP1 POP SWAP1 JUMP JUMPDEST PUSH1 0x0 SELFBALANCE SWAP1 POP SWAP1 JUMP JUMPDEST PUSH32 0x0 DUP2 JUMP JUMPDEST PUSH2 0x18AF CALLER PUSH2 0x21FD JUMP JUMPDEST JUMP JUMPDEST PUSH1 0x0 PUSH1 0x7 DUP3 DUP2 SLOAD DUP2 LT PUSH2 0x18C7 JUMPI PUSH2 0x18C6 PUSH2 0x2C25 JUMP JUMPDEST JUMPDEST SWAP1 PUSH1 0x0 MSTORE PUSH1 0x20 PUSH1 0x0 KECCAK256 SWAP1 PUSH1 0x8 MUL ADD SWAP1 POP DUP1 PUSH1 0x5 ADD PUSH1 0x0 SWAP1 SLOAD SWAP1 PUSH2 0x100 EXP SWAP1 DIV PUSH1 0xFF AND ISZERO PUSH2 0x1929 JUMPI PUSH1 0x40 MLOAD PUSH32 0x8C379A000000000000000000000000000000000000000000000000000000000 DUP2 MSTORE PUSH1 0x4 ADD PUSH2 0x1920 SWAP1 PUSH2 0x2D58 JUMP JUMPDEST PUSH1 0x40 MLOAD DUP1 SWAP2 SUB SWAP1 REVERT JUMPDEST DUP1 PUSH1 0x6 ADD PUSH1 0x0 CALLER PUSH20 0xFFFFFFFFFFFFFFFFFFFFFFFFFFFFFFFFFFFFFFFF AND PUSH20 0xFFFFFFFFFFFFFFFFFFFFFFFFFFFFFFFFFFFFFFFF AND DUP2 MSTORE PUSH1 0x20 ADD SWAP1 DUP2 MSTORE PUSH1 0x20 ADD PUSH1 0x0 KECCAK256 PUSH1 0x0 SWAP1 SLOAD SWAP1 PUSH2 0x100 EXP SWAP1 DIV PUSH1 0xFF AND ISZERO PUSH2 0x19B8 JUMPI PUSH1 0x40 MLOAD PUSH32 0x8C379A000000000000000000000000000000000000000000000000000000000 DUP2 MSTORE PUSH1 0x4 ADD PUSH2 0x19AF SWAP1 PUSH2 0x35B5 JUMP JUMPDEST PUSH1 0x40 MLOAD DUP1 SWAP2 SUB SWAP1 REVERT JUMPDEST PUSH1 0x0 PUSH32 0x0 SWAP1 POP PUSH1 0x0 PUSH1 0x6 SLOAD SWAP1 POP PUSH32 0x0 ISZERO DUP1 ISZERO PUSH2 0x1A5B JUMPI POP PUSH1 0x3 PUSH1 0x0 CALLER PUSH20 0xFFFFFFFFFFFFFFFFFFFFFFFFFFFFFFFFFFFFFFFF AND PUSH20 0xFFFFFFFFFFFFFFFFFFFFFFFFFFFFFFFFFFFFFFFF AND DUP2 MSTORE PUSH1 0x20 ADD SWAP1 DUP2 MSTORE PUSH1 0x20 ADD PUSH1 0x0 KECCAK256 PUSH1 0x0 SWAP1 SLOAD SWAP1 PUSH2 0x100 EXP SWAP1 DIV PUSH1 0xFF AND JUMPDEST DUP1 PUSH2 0x1A66 JUMPI POP PUSH1 0x0 DUP3 EQ JUMPDEST DUP1 PUSH2 0x1AD3 JUMPI POP PUSH1 0x0 DUP2 GT DUP1 ISZERO PUSH2 0x1AD2 JUMPI POP DUP2 DUP2 PUSH1 0x64 PUSH1 0x5 PUSH1 0x0 CALLER PUSH20 0xFFFFFFFFFFFFFFFFFFFFFFFFFFFFFFFFFFFFFFFF AND PUSH20 0xFFFFFFFFFFFFFFFFFFFFFFFFFFFFFFFFFFFFFFFF AND DUP2 MSTORE PUSH1 0x20 ADD SWAP1 DUP2 MSTORE PUSH1 0x20 ADD PUSH1 0x0 KECCAK256 SLOAD PUSH2 0x1AC5 SWAP2 SWAP1 PUSH2 0x2DEF JUMP JUMPDEST PUSH2 0x1ACF SWAP2 SWAP1 PUSH2 0x2E78 JUMP JUMPDEST LT ISZERO JUMPDEST JUMPDEST PUSH2 0x1B12 JUMPI PUSH1 0x40 MLOAD PUSH32 0x8C379A000000000000000000000000000000000000000000000000000000000 DUP2 MSTORE PUSH1 0x4 ADD PUSH2 0x1B09 SWAP1 PUSH2 0x366D JUMP JUMPDEST PUSH1 0x40 MLOAD DUP1 SWAP2 SUB SWAP1 REVERT JUMPDEST PUSH1 0x1 DUP4 PUSH1 0x6 ADD PUSH1 0x0 CALLER PUSH20 0xFFFFFFFFFFFFFFFFFFFFFFFFFFFFFFFFFFFFFFFF AND PUSH20 0xFFFFFFFFFFFFFFFFFFFFFFFFFFFFFFFFFFFFFFFF AND DUP2 MSTORE PUSH1 0x20 ADD SWAP1 DUP2 MSTORE PUSH1 0x20 ADD PUSH1 0x0 KECCAK256 PUSH1 0x0 PUSH2 0x100 EXP DUP2 SLOAD DUP2 PUSH1 0xFF MUL NOT AND SWAP1 DUP4 ISZERO ISZERO MUL OR SWAP1 SSTORE POP PUSH2 0x1B78 DUP4 PUSH1 0x7 ADD PUSH2 0x23AB JUMP JUMPDEST CALLER PUSH20 0xFFFFFFFFFFFFFFFFFFFFFFFFFFFFFFFFFFFFFFFF AND DUP5 PUSH32 0x893B9E35D011BBE15567D0F899B775D6E02D49F62378315A6D25759D3BB1DBCC PUSH1 0x40 MLOAD PUSH1 0x40 MLOAD DUP1 SWAP2 SUB SWAP1 LOG3 POP POP POP POP JUMP JUMPDEST PUSH32 0x0 PUSH2 0x1C22 JUMPI PUSH1 0x40 MLOAD PUSH32 0x8C379A000000000000000000000000000000000000000000000000000000000 DUP2 MSTORE PUSH1 0x4 ADD PUSH2 0x1C19 SWAP1 PUSH2 0x36D9 JUMP JUMPDEST PUSH1 0x40 MLOAD DUP1 SWAP2 SUB SWAP1 REVERT JUMPDEST PUSH1 0x3 PUSH1 0x0 CALLER PUSH20 0xFFFFFFFFFFFFFFFFFFFFFFFFFFFFFFFFFFFFFFFF AND PUSH20 0xFFFFFFFFFFFFFFFFFFFFFFFFFFFFFFFFFFFFFFFF AND DUP2 MSTORE PUSH1 0x20 ADD SWAP1 DUP2 MSTORE PUSH1 0x20 ADD PUSH1 0x0 KECCAK256 PUSH1 0x0 SWAP1 SLOAD SWAP1 PUSH2 0x100 EXP SWAP1 DIV PUSH1 0xFF AND PUSH2 0x1CAE JUMPI PUSH1 0x40 MLOAD PUSH32 0x8C379A000000000000000000000000000000000000000000000000000000000 DUP2 MSTORE PUSH1 0x4 ADD PUSH2 0x1CA5 SWAP1 PUSH2 0x33FF JUMP JUMPDEST PUSH1 0x40 MLOAD DUP1 SWAP2 SUB SWAP1 REVERT JUMPDEST PUSH1 0x0 PUSH2 0x1CB8 PUSH2 0x1363 JUMP JUMPDEST SWAP1 POP PUSH1 0x1 DUP2 GT DUP1 PUSH2 0x1D10 JUMPI POP PUSH32 0x0 DUP1 ISZERO PUSH2 0x1D0F JUMPI POP PUSH32 0x0 ISZERO JUMPDEST JUMPDEST PUSH2 0x1D4F JUMPI PUSH1 0x40 MLOAD PUSH32 0x8C379A000000000000000000000000000000000000000000000000000000000 DUP2 MSTORE PUSH1 0x4 ADD PUSH2 0x1D46 SWAP1 PUSH2 0x376B JUMP JUMPDEST PUSH1 0x40 MLOAD DUP1 SWAP2 SUB SWAP1 REVERT JUMPDEST PUSH1 0x0 PUSH1 0x2 DUP4 DUP2 SLOAD DUP2 LT PUSH2 0x1D65 JUMPI PUSH2 0x1D64 PUSH2 0x2C25 JUMP JUMPDEST JUMPDEST SWAP1 PUSH1 0x0 MSTORE PUSH1 0x20 PUSH1 0x0 KECCAK256 ADD PUSH1 0x0 SWAP1 SLOAD SWAP1 PUSH2 0x100 EXP SWAP1 DIV PUSH20 0xFFFFFFFFFFFFFFFFFFFFFFFFFFFFFFFFFFFFFFFF AND SWAP1 POP PUSH1 0x3 PUSH1 0x0 DUP3 PUSH20 0xFFFFFFFFFFFFFFFFFFFFFFFFFFFFFFFFFFFFFFFF AND PUSH20 0xFFFFFFFFFFFFFFFFFFFFFFFFFFFFFFFFFFFFFFFF AND DUP2 MSTORE PUSH1 0x20 ADD SWAP1 DUP2 MSTORE PUSH1 0x20 ADD PUSH1 0x0 KECCAK256 PUSH1 0x0 PUSH2 0x100 EXP DUP2 SLOAD SWAP1 PUSH1 0xFF MUL NOT AND SWAP1 SSTORE PUSH1 0x0 DUP4 SWAP1 POP JUMPDEST PUSH1 0x1 DUP4 SUB DUP2 LT ISZERO PUSH2 0x1E9D JUMPI PUSH1 0x2 PUSH1 0x1 DUP3 ADD DUP2 SLOAD DUP2 LT PUSH2 0x1E09 JUMPI PUSH2 0x1E08 PUSH2 0x2C25 JUMP JUMPDEST JUMPDEST SWAP1 PUSH1 0x0 MSTORE PUSH1 0x20 PUSH1 0x0 KECCAK256 ADD PUSH1 0x0 SWAP1 SLOAD SWAP1 PUSH2 0x100 EXP SWAP1 DIV PUSH20 0xFFFFFFFFFFFFFFFFFFFFFFFFFFFFFFFFFFFFFFFF AND PUSH1 0x2 DUP3 DUP2 SLOAD DUP2 LT PUSH2 0x1E48 JUMPI PUSH2 0x1E47 PUSH2 0x2C25 JUMP JUMPDEST JUMPDEST SWAP1 PUSH1 0x0 MSTORE PUSH1 0x20 PUSH1 0x0 KECCAK256 ADD PUSH1 0x0 PUSH2 0x100 EXP DUP2 SLOAD DUP2 PUSH20 0xFFFFFFFFFFFFFFFFFFFFFFFFFFFFFFFFFFFFFFFF MUL NOT AND SWAP1 DUP4 PUSH20 0xFFFFFFFFFFFFFFFFFFFFFFFFFFFFFFFFFFFFFFFF AND MUL OR SWAP1 SSTORE POP DUP1 DUP1 PUSH1 0x1 ADD SWAP2 POP POP PUSH2 0x1DE7 JUMP JUMPDEST POP PUSH1 0x2 DUP1 SLOAD DUP1 PUSH2 0x1EB0 JUMPI PUSH2 0x1EAF PUSH2 0x378B JUMP JUMPDEST JUMPDEST PUSH1 0x1 SWAP1 SUB DUP2 DUP2 SWAP1 PUSH1 0x0 MSTORE PUSH1 0x20 PUSH1 0x0 KECCAK256 ADD PUSH1 0x0 PUSH2 0x100 EXP DUP2 SLOAD SWAP1 PUSH20 0xFFFFFFFFFFFFFFFFFFFFFFFFFFFFFFFFFFFFFFFF MUL NOT AND SWAP1 SSTORE SWAP1 SSTORE DUP1 PUSH20 0xFFFFFFFFFFFFFFFFFFFFFFFFFFFFFFFFFFFFFFFF AND PUSH32 0x1E25ED4CABEC84D314DC176241019653F237DA01F2BDD3A10CB0F38B33DA6763 PUSH1 0x40 MLOAD PUSH1 0x40 MLOAD DUP1 SWAP2 SUB SWAP1 LOG2 POP POP POP JUMP JUMPDEST PUSH32 0x0 DUP2 JUMP JUMPDEST PUSH1 0x60 PUSH1 0x0 PUSH1 0x60 PUSH1 0x0 DUP1 PUSH1 0x0 DUP1 PUSH1 0x0 DUP1 PUSH1 0x0 PUSH1 0x2 DUP1 SLOAD DUP1 PUSH1 0x20 MUL PUSH1 0x20 ADD PUSH1 0x40 MLOAD SWAP1 DUP2 ADD PUSH1 0x40 MSTORE DUP1 SWAP3 SWAP2 SWAP1 DUP2 DUP2 MSTORE PUSH1 0x20 ADD DUP3 DUP1 SLOAD DUP1 ISZERO PUSH2 0x1FE4 JUMPI PUSH1 0x20 MUL DUP3 ADD SWAP2 SWAP1 PUSH1 0x0 MSTORE PUSH1 0x20 PUSH1 0x0 KECCAK256 SWAP1 JUMPDEST DUP2 PUSH1 0x0 SWAP1 SLOAD SWAP1 PUSH2 0x100 EXP SWAP1 DIV PUSH20 0xFFFFFFFFFFFFFFFFFFFFFFFFFFFFFFFFFFFFFFFF AND PUSH20 0xFFFFFFFFFFFFFFFFFFFFFFFFFFFFFFFFFFFFFFFF AND DUP2 MSTORE PUSH1 0x20 ADD SWAP1 PUSH1 0x1 ADD SWAP1 DUP1 DUP4 GT PUSH2 0x1F9A JUMPI JUMPDEST POP POP POP POP POP SWAP10 POP PUSH32 0x0 SWAP9 POP PUSH1 0x4 DUP1 SLOAD DUP1 PUSH1 0x20 MUL PUSH1 0x20 ADD PUSH1 0x40 MLOAD SWAP1 DUP2 ADD PUSH1 0x40 MSTORE DUP1 SWAP3 SWAP2 SWAP1 DUP2 DUP2 MSTORE PUSH1 0x20 ADD DUP3 DUP1 SLOAD DUP1 ISZERO PUSH2 0x2090 JUMPI PUSH1 0x20 MUL DUP3 ADD SWAP2 SWAP1 PUSH1 0x0 MSTORE PUSH1 0x20 PUSH1 0x0 KECCAK256 SWAP1 JUMPDEST DUP2 PUSH1 0x0 SWAP1 SLOAD SWAP1 PUSH2 0x100 EXP SWAP1 DIV PUSH20 0xFFFFFFFFFFFFFFFFFFFFFFFFFFFFFFFFFFFFFFFF AND PUSH20 0xFFFFFFFFFFFFFFFFFFFFFFFFFFFFFFFFFFFFFFFF AND DUP2 MSTORE PUSH1 0x20 ADD SWAP1 PUSH1 0x1 ADD SWAP1 DUP1 DUP4 GT PUSH2 0x2046 JUMPI JUMPDEST POP POP POP POP POP SWAP8 POP PUSH1 0x6 SLOAD SWAP7 POP PUSH32 0x0 SWAP6 POP PUSH32 0x0 SWAP5 POP PUSH32 0x0 SWAP4 POP PUSH32 0x0 SWAP3 POP PUSH32 0x0 SWAP2 POP PUSH32 0x0 SWAP1 POP SWAP1 SWAP2 SWAP3 SWAP4 SWAP5 SWAP6 SWAP7 SWAP8 SWAP9 SWAP10 JUMP JUMPDEST PUSH32 0x0 DUP2 JUMP JUMPDEST PUSH1 0x3 PUSH1 0x20 MSTORE DUP1 PUSH1 0x0 MSTORE PUSH1 0x40 PUSH1 0x0 KECCAK256 PUSH1 0x0 SWAP2 POP SLOAD SWAP1 PUSH2 0x100 EXP SWAP1 DIV PUSH1 0xFF AND DUP2 JUMP JUMPDEST PUSH32 0x0 DUP2 JUMP JUMPDEST PUSH1 0x0 PUSH1 0x7 DUP1 SLOAD SWAP1 POP SWAP1 POP SWAP1 JUMP JUMPDEST PUSH1 0x0 DUP2 PUSH1 0x0 ADD SLOAD SWAP1 POP SWAP2 SWAP1 POP JUMP JUMPDEST PUSH1 0x0 CALLVALUE GT PUSH2 0x2240 JUMPI PUSH1 0x40 MLOAD PUSH32 0x8C379A000000000000000000000000000000000000000000000000000000000 DUP2 MSTORE PUSH1 0x4 ADD PUSH2 0x2237 SWAP1 PUSH2 0x382C JUMP JUMPDEST PUSH1 0x40 MLOAD DUP1 SWAP2 SUB SWAP1 REVERT JUMPDEST PUSH1 0x0 PUSH1 0x5 PUSH1 0x0 DUP4 PUSH20 0xFFFFFFFFFFFFFFFFFFFFFFFFFFFFFFFFFFFFFFFF AND PUSH20 0xFFFFFFFFFFFFFFFFFFFFFFFFFFFFFFFFFFFFFFFF AND DUP2 MSTORE PUSH1 0x20 ADD SWAP1 DUP2 MSTORE PUSH1 0x20 ADD PUSH1 0x0 KECCAK256 SLOAD SUB PUSH2 0x22EB JUMPI PUSH1 0x4 DUP2 SWAP1 DUP1 PUSH1 0x1 DUP2 SLOAD ADD DUP1 DUP3 SSTORE DUP1 SWAP2 POP POP PUSH1 0x1 SWAP1 SUB SWAP1 PUSH1 0x0 MSTORE PUSH1 0x20 PUSH1 0x0 KECCAK256 ADD PUSH1 0x0 SWAP1 SWAP2 SWAP1 SWAP2 SWAP1 SWAP2 PUSH2 0x100 EXP DUP2 SLOAD DUP2 PUSH20 0xFFFFFFFFFFFFFFFFFFFFFFFFFFFFFFFFFFFFFFFF MUL NOT AND SWAP1 DUP4 PUSH20 0xFFFFFFFFFFFFFFFFFFFFFFFFFFFFFFFFFFFFFFFF AND MUL OR SWAP1 SSTORE POP JUMPDEST CALLVALUE PUSH1 0x5 PUSH1 0x0 DUP4 PUSH20 0xFFFFFFFFFFFFFFFFFFFFFFFFFFFFFFFFFFFFFFFF AND PUSH20 0xFFFFFFFFFFFFFFFFFFFFFFFFFFFFFFFFFFFFFFFF AND DUP2 MSTORE PUSH1 0x20 ADD SWAP1 DUP2 MSTORE PUSH1 0x20 ADD PUSH1 0x0 KECCAK256 PUSH1 0x0 DUP3 DUP3 SLOAD PUSH2 0x233A SWAP2 SWAP1 PUSH2 0x384C JUMP JUMPDEST SWAP3 POP POP DUP2 SWAP1 SSTORE POP CALLVALUE PUSH1 0x6 PUSH1 0x0 DUP3 DUP3 SLOAD PUSH2 0x2353 SWAP2 SWAP1 PUSH2 0x384C JUMP JUMPDEST SWAP3 POP POP DUP2 SWAP1 SSTORE POP DUP1 PUSH20 0xFFFFFFFFFFFFFFFFFFFFFFFFFFFFFFFFFFFFFFFF AND PUSH32 0x906FAAF913A60F38B5E8F2D6F5B163239BAC2D994FA1A5D21751A51587A94057 CALLVALUE PUSH1 0x40 MLOAD PUSH2 0x23A0 SWAP2 SWAP1 PUSH2 0x2863 JUMP JUMPDEST PUSH1 0x40 MLOAD DUP1 SWAP2 SUB SWAP1 LOG2 POP JUMP JUMPDEST PUSH1 0x1 DUP2 PUSH1 0x0 ADD PUSH1 0x0 DUP3 DUP3 SLOAD ADD SWAP3 POP POP DUP2 SWAP1 SSTORE POP POP JUMP JUMPDEST PUSH1 0x0 PUSH20 0xFFFFFFFFFFFFFFFFFFFFFFFFFFFFFFFFFFFFFFFF DUP3 AND SWAP1 POP SWAP2 SWAP1 POP JUMP JUMPDEST PUSH1 0x0 PUSH2 0x23EC DUP3 PUSH2 0x23C1 JUMP JUMPDEST SWAP1 POP SWAP2 SWAP1 POP JUMP JUMPDEST PUSH2 0x23FC DUP2 PUSH2 0x23E1 JUMP JUMPDEST DUP3 MSTORE POP POP JUMP JUMPDEST PUSH1 0x0 PUSH1 0x20 DUP3 ADD SWAP1 POP PUSH2 0x2417 PUSH1 0x0 DUP4 ADD DUP5 PUSH2 0x23F3 JUMP JUMPDEST SWAP3 SWAP2 POP POP JUMP JUMPDEST PUSH1 0x0 PUSH1 0x40 MLOAD SWAP1 POP SWAP1 JUMP JUMPDEST PUSH1 0x0 DUP1 REVERT JUMPDEST PUSH1 0x0 DUP1 REVERT JUMPDEST PUSH1 0x0 DUP2 SWAP1 POP SWAP2 SWAP1 POP JUMP JUMPDEST PUSH2 0x2444 DUP2 PUSH2 0x2431 JUMP JUMPDEST DUP2 EQ PUSH2 0x244F JUMPI PUSH1 0x0 DUP1 REVERT JUMPDEST POP JUMP JUMPDEST PUSH1 0x0 DUP2 CALLDATALOAD SWAP1 POP PUSH2 0x2461 DUP2 PUSH2 0x243B JUMP JUMPDEST SWAP3 SWAP2 POP POP JUMP JUMPDEST PUSH1 0x0 PUSH1 0x20 DUP3 DUP5 SUB SLT ISZERO PUSH2 0x247D JUMPI PUSH2 0x247C PUSH2 0x2427 JUMP JUMPDEST JUMPDEST PUSH1 0x0 PUSH2 0x248B DUP5 DUP3 DUP6 ADD PUSH2 0x2452 JUMP JUMPDEST SWAP2 POP POP SWAP3 SWAP2 POP POP JUMP JUMPDEST PUSH1 0x0 DUP2 MLOAD SWAP1 POP SWAP2 SWAP1 POP JUMP JUMPDEST PUSH1 0x0 DUP3 DUP3 MSTORE PUSH1 0x20 DUP3 ADD SWAP1 POP SWAP3 SWAP2 POP POP JUMP JUMPDEST PUSH1 0x0 JUMPDEST DUP4 DUP2 LT ISZERO PUSH2 0x24CE JUMPI DUP1 DUP3 ADD MLOAD DUP2 DUP5 ADD MSTORE PUSH1 0x20 DUP2 ADD SWAP1 POP PUSH2 0x24B3 JUMP JUMPDEST PUSH1 0x0 DUP5 DUP5 ADD MSTORE POP POP POP POP JUMP JUMPDEST PUSH1 0x0 PUSH1 0x1F NOT PUSH1 0x1F DUP4 ADD AND SWAP1 POP SWAP2 SWAP1 POP JUMP JUMPDEST PUSH1 0x0 PUSH2 0x24F6 DUP3 PUSH2 0x2494 JUMP JUMPDEST PUSH2 0x2500 DUP2 DUP6 PUSH2 0x249F JUMP JUMPDEST SWAP4 POP PUSH2 0x2510 DUP2 DUP6 PUSH1 0x20 DUP7 ADD PUSH2 0x24B0 JUMP JUMPDEST PUSH2 0x2519 DUP2 PUSH2 0x24DA JUMP JUMPDEST DUP5 ADD SWAP2 POP POP SWAP3 SWAP2 POP POP JUMP JUMPDEST PUSH1 0x0 PUSH1 0x20 DUP3 ADD SWAP1 POP DUP2 DUP2 SUB PUSH1 0x0 DUP4 ADD MSTORE PUSH2 0x253E DUP2 DUP5 PUSH2 0x24EB JUMP JUMPDEST SWAP1 POP SWAP3 SWAP2 POP POP JUMP JUMPDEST PUSH2 0x254F DUP2 PUSH2 0x23E1 JUMP JUMPDEST DUP2 EQ PUSH2 0x255A JUMPI PUSH1 0x0 DUP1 REVERT JUMPDEST POP JUMP JUMPDEST PUSH1 0x0 DUP2 CALLDATALOAD SWAP1 POP PUSH2 0x256C DUP2 PUSH2 0x2546 JUMP JUMPDEST SWAP3 SWAP2 POP POP JUMP JUMPDEST PUSH1 0x0 PUSH1 0x20 DUP3 DUP5 SUB SLT ISZERO PUSH2 0x2588 JUMPI PUSH2 0x2587 PUSH2 0x2427 JUMP JUMPDEST JUMPDEST PUSH1 0x0 PUSH2 0x2596 DUP5 DUP3 DUP6 ADD PUSH2 0x255D JUMP JUMPDEST SWAP2 POP POP SWAP3 SWAP2 POP POP JUMP JUMPDEST PUSH1 0x0 DUP1 REVERT JUMPDEST PUSH1 0x0 DUP1 REVERT JUMPDEST PUSH32 0x4E487B7100000000000000000000000000000000000000000000000000000000 PUSH1 0x0 MSTORE PUSH1 0x41 PUSH1 0x4 MSTORE PUSH1 0x24 PUSH1 0x0 REVERT JUMPDEST PUSH2 0x25E1 DUP3 PUSH2 0x24DA JUMP JUMPDEST DUP2 ADD DUP2 DUP2 LT PUSH8 0xFFFFFFFFFFFFFFFF DUP3 GT OR ISZERO PUSH2 0x2600 JUMPI PUSH2 0x25FF PUSH2 0x25A9 JUMP JUMPDEST JUMPDEST DUP1 PUSH1 0x40 MSTORE POP POP POP JUMP JUMPDEST PUSH1 0x0 PUSH2 0x2613 PUSH2 0x241D JUMP JUMPDEST SWAP1 POP PUSH2 0x261F DUP3 DUP3 PUSH2 0x25D8 JUMP JUMPDEST SWAP2 SWAP1 POP JUMP JUMPDEST PUSH1 0x0 PUSH8 0xFFFFFFFFFFFFFFFF DUP3 GT ISZERO PUSH2 0x263F JUMPI PUSH2 0x263E PUSH2 0x25A9 JUMP JUMPDEST JUMPDEST PUSH2 0x2648 DUP3 PUSH2 0x24DA JUMP JUMPDEST SWAP1 POP PUSH1 0x20 DUP2 ADD SWAP1 POP SWAP2 SWAP1 POP JUMP JUMPDEST DUP3 DUP2 DUP4 CALLDATACOPY PUSH1 0x0 DUP4 DUP4 ADD MSTORE POP POP POP JUMP JUMPDEST PUSH1 0x0 PUSH2 0x2677 PUSH2 0x2672 DUP5 PUSH2 0x2624 JUMP JUMPDEST PUSH2 0x2609 JUMP JUMPDEST SWAP1 POP DUP3 DUP2 MSTORE PUSH1 0x20 DUP2 ADD DUP5 DUP5 DUP5 ADD GT ISZERO PUSH2 0x2693 JUMPI PUSH2 0x2692 PUSH2 0x25A4 JUMP JUMPDEST JUMPDEST PUSH2 0x269E DUP5 DUP3 DUP6 PUSH2 0x2655 JUMP JUMPDEST POP SWAP4 SWAP3 POP POP POP JUMP JUMPDEST PUSH1 0x0 DUP3 PUSH1 0x1F DUP4 ADD SLT PUSH2 0x26BB JUMPI PUSH2 0x26BA PUSH2 0x259F JUMP JUMPDEST JUMPDEST DUP2 CALLDATALOAD PUSH2 0x26CB DUP5 DUP3 PUSH1 0x20 DUP7 ADD PUSH2 0x2664 JUMP JUMPDEST SWAP2 POP POP SWAP3 SWAP2 POP POP JUMP JUMPDEST PUSH1 0x0 DUP1 PUSH1 0x0 PUSH1 0x60 DUP5 DUP7 SUB SLT ISZERO PUSH2 0x26ED JUMPI PUSH2 0x26EC PUSH2 0x2427 JUMP JUMPDEST JUMPDEST PUSH1 0x0 DUP5 ADD CALLDATALOAD PUSH8 0xFFFFFFFFFFFFFFFF DUP2 GT ISZERO PUSH2 0x270B JUMPI PUSH2 0x270A PUSH2 0x242C JUMP JUMPDEST JUMPDEST PUSH2 0x2717 DUP7 DUP3 DUP8 ADD PUSH2 0x26A6 JUMP JUMPDEST SWAP4 POP POP PUSH1 0x20 PUSH2 0x2728 DUP7 DUP3 DUP8 ADD PUSH2 0x255D JUMP JUMPDEST SWAP3 POP POP PUSH1 0x40 PUSH2 0x2739 DUP7 DUP3 DUP8 ADD PUSH2 0x2452 JUMP JUMPDEST SWAP2 POP POP SWAP3 POP SWAP3 POP SWAP3 JUMP JUMPDEST PUSH1 0x0 PUSH8 0xFFFFFFFFFFFFFFFF DUP3 GT ISZERO PUSH2 0x275E JUMPI PUSH2 0x275D PUSH2 0x25A9 JUMP JUMPDEST JUMPDEST PUSH1 0x20 DUP3 MUL SWAP1 POP PUSH1 0x20 DUP2 ADD SWAP1 POP SWAP2 SWAP1 POP JUMP JUMPDEST PUSH1 0x0 DUP1 REVERT JUMPDEST PUSH1 0x0 PUSH2 0x2787 PUSH2 0x2782 DUP5 PUSH2 0x2743 JUMP JUMPDEST PUSH2 0x2609 JUMP JUMPDEST SWAP1 POP DUP1 DUP4 DUP3 MSTORE PUSH1 0x20 DUP3 ADD SWAP1 POP PUSH1 0x20 DUP5 MUL DUP4 ADD DUP6 DUP2 GT ISZERO PUSH2 0x27AA JUMPI PUSH2 0x27A9 PUSH2 0x276F JUMP JUMPDEST JUMPDEST DUP4 JUMPDEST DUP2 DUP2 LT ISZERO PUSH2 0x27D3 JUMPI DUP1 PUSH2 0x27BF DUP9 DUP3 PUSH2 0x255D JUMP JUMPDEST DUP5 MSTORE PUSH1 0x20 DUP5 ADD SWAP4 POP POP PUSH1 0x20 DUP2 ADD SWAP1 POP PUSH2 0x27AC JUMP JUMPDEST POP POP POP SWAP4 SWAP3 POP POP POP JUMP JUMPDEST PUSH1 0x0 DUP3 PUSH1 0x1F DUP4 ADD SLT PUSH2 0x27F2 JUMPI PUSH2 0x27F1 PUSH2 0x259F JUMP JUMPDEST JUMPDEST DUP2 CALLDATALOAD PUSH2 0x2802 DUP5 DUP3 PUSH1 0x20 DUP7 ADD PUSH2 0x2774 JUMP JUMPDEST SWAP2 POP POP SWAP3 SWAP2 POP POP JUMP JUMPDEST PUSH1 0x0 PUSH1 0x20 DUP3 DUP5 SUB SLT ISZERO PUSH2 0x2821 JUMPI PUSH2 0x2820 PUSH2 0x2427 JUMP JUMPDEST JUMPDEST PUSH1 0x0 DUP3 ADD CALLDATALOAD PUSH8 0xFFFFFFFFFFFFFFFF DUP2 GT ISZERO PUSH2 0x283F JUMPI PUSH2 0x283E PUSH2 0x242C JUMP JUMPDEST JUMPDEST PUSH2 0x284B DUP5 DUP3 DUP6 ADD PUSH2 0x27DD JUMP JUMPDEST SWAP2 POP POP SWAP3 SWAP2 POP POP JUMP JUMPDEST PUSH2 0x285D DUP2 PUSH2 0x2431 JUMP JUMPDEST DUP3 MSTORE POP POP JUMP JUMPDEST PUSH1 0x0 PUSH1 0x20 DUP3 ADD SWAP1 POP PUSH2 0x2878 PUSH1 0x0 DUP4 ADD DUP5 PUSH2 0x2854 JUMP JUMPDEST SWAP3 SWAP2 POP POP JUMP JUMPDEST PUSH1 0x0 PUSH1 0xA0 DUP3 ADD SWAP1 POP PUSH2 0x2893 PUSH1 0x0 DUP4 ADD DUP9 PUSH2 0x23F3 JUMP JUMPDEST PUSH2 0x28A0 PUSH1 0x20 DUP4 ADD DUP8 PUSH2 0x2854 JUMP JUMPDEST DUP2 DUP2 SUB PUSH1 0x40 DUP4 ADD MSTORE PUSH2 0x28B2 DUP2 DUP7 PUSH2 0x24EB JUMP JUMPDEST SWAP1 POP PUSH2 0x28C1 PUSH1 0x60 DUP4 ADD DUP6 PUSH2 0x23F3 JUMP JUMPDEST PUSH2 0x28CE PUSH1 0x80 DUP4 ADD DUP5 PUSH2 0x2854 JUMP JUMPDEST SWAP7 SWAP6 POP POP POP POP POP POP JUMP JUMPDEST PUSH1 0x0 DUP2 ISZERO ISZERO SWAP1 POP SWAP2 SWAP1 POP JUMP JUMPDEST PUSH2 0x28ED DUP2 PUSH2 0x28D8 JUMP JUMPDEST DUP3 MSTORE POP POP JUMP JUMPDEST PUSH1 0x0 PUSH1 0x20 DUP3 ADD SWAP1 POP PUSH2 0x2908 PUSH1 0x0 DUP4 ADD DUP5 PUSH2 0x28E4 JUMP JUMPDEST SWAP3 SWAP2 POP POP JUMP JUMPDEST PUSH2 0x2917 DUP2 PUSH2 0x2431 JUMP JUMPDEST DUP3 MSTORE POP POP JUMP JUMPDEST PUSH1 0x20 DUP3 ADD PUSH1 0x0 DUP3 ADD MLOAD PUSH2 0x2933 PUSH1 0x0 DUP6 ADD DUP3 PUSH2 0x290E JUMP JUMPDEST POP POP POP POP JUMP JUMPDEST PUSH1 0x0 PUSH1 0xE0 DUP3 ADD SWAP1 POP DUP2 DUP2 SUB PUSH1 0x0 DUP4 ADD MSTORE PUSH2 0x2953 DUP2 DUP11 PUSH2 0x24EB JUMP JUMPDEST SWAP1 POP PUSH2 0x2962 PUSH1 0x20 DUP4 ADD DUP10 PUSH2 0x23F3 JUMP JUMPDEST PUSH2 0x296F PUSH1 0x40 DUP4 ADD DUP9 PUSH2 0x23F3 JUMP JUMPDEST PUSH2 0x297C PUSH1 0x60 DUP4 ADD DUP8 PUSH2 0x2854 JUMP JUMPDEST PUSH2 0x2989 PUSH1 0x80 DUP4 ADD DUP7 PUSH2 0x2854 JUMP JUMPDEST PUSH2 0x2996 PUSH1 0xA0 DUP4 ADD DUP6 PUSH2 0x28E4 JUMP JUMPDEST PUSH2 0x29A3 PUSH1 0xC0 DUP4 ADD DUP5 PUSH2 0x291D JUMP JUMPDEST SWAP9 SWAP8 POP POP POP POP POP POP POP POP JUMP JUMPDEST PUSH1 0x0 DUP1 PUSH1 0x40 DUP4 DUP6 SUB SLT ISZERO PUSH2 0x29C6 JUMPI PUSH2 0x29C5 PUSH2 0x2427 JUMP JUMPDEST JUMPDEST PUSH1 0x0 PUSH2 0x29D4 DUP6 DUP3 DUP7 ADD PUSH2 0x2452 JUMP JUMPDEST SWAP3 POP POP PUSH1 0x20 PUSH2 0x29E5 DUP6 DUP3 DUP7 ADD PUSH2 0x255D JUMP JUMPDEST SWAP2 POP POP SWAP3 POP SWAP3 SWAP1 POP JUMP JUMPDEST PUSH1 0x0 DUP2 MLOAD SWAP1 POP SWAP2 SWAP1 POP JUMP JUMPDEST PUSH1 0x0 DUP3 DUP3 MSTORE PUSH1 0x20 DUP3 ADD SWAP1 POP SWAP3 SWAP2 POP POP JUMP JUMPDEST PUSH1 0x0 DUP2 SWAP1 POP PUSH1 0x20 DUP3 ADD SWAP1 POP SWAP2 SWAP1 POP JUMP JUMPDEST PUSH2 0x2A24 DUP2 PUSH2 0x23E1 JUMP JUMPDEST DUP3 MSTORE POP POP JUMP JUMPDEST PUSH1 0x0 PUSH2 0x2A36 DUP4 DUP4 PUSH2 0x2A1B JUMP JUMPDEST PUSH1 0x20 DUP4 ADD SWAP1 POP SWAP3 SWAP2 POP POP JUMP JUMPDEST PUSH1 0x0 PUSH1 0x20 DUP3 ADD SWAP1 POP SWAP2 SWAP1 POP JUMP JUMPDEST PUSH1 0x0 PUSH2 0x2A5A DUP3 PUSH2 0x29EF JUMP JUMPDEST PUSH2 0x2A64 DUP2 DUP6 PUSH2 0x29FA JUMP JUMPDEST SWAP4 POP PUSH2 0x2A6F DUP4 PUSH2 0x2A0B JUMP JUMPDEST DUP1 PUSH1 0x0 JUMPDEST DUP4 DUP2 LT ISZERO PUSH2 0x2AA0 JUMPI DUP2 MLOAD PUSH2 0x2A87 DUP9 DUP3 PUSH2 0x2A2A JUMP JUMPDEST SWAP8 POP PUSH2 0x2A92 DUP4 PUSH2 0x2A42 JUMP JUMPDEST SWAP3 POP POP PUSH1 0x1 DUP2 ADD SWAP1 POP PUSH2 0x2A73 JUMP JUMPDEST POP DUP6 SWAP4 POP POP POP POP SWAP3 SWAP2 POP POP JUMP JUMPDEST PUSH1 0x0 PUSH1 0x20 DUP3 ADD SWAP1 POP DUP2 DUP2 SUB PUSH1 0x0 DUP4 ADD MSTORE PUSH2 0x2AC7 DUP2 DUP5 PUSH2 0x2A4F JUMP JUMPDEST SWAP1 POP SWAP3 SWAP2 POP POP JUMP JUMPDEST PUSH1 0x0 DUP1 PUSH1 0x40 DUP4 DUP6 SUB SLT ISZERO PUSH2 0x2AE6 JUMPI PUSH2 0x2AE5 PUSH2 0x2427 JUMP JUMPDEST JUMPDEST PUSH1 0x0 PUSH2 0x2AF4 DUP6 DUP3 DUP7 ADD PUSH2 0x255D JUMP JUMPDEST SWAP3 POP POP PUSH1 0x20 PUSH2 0x2B05 DUP6 DUP3 DUP7 ADD PUSH2 0x2452 JUMP JUMPDEST SWAP2 POP POP SWAP3 POP SWAP3 SWAP1 POP JUMP JUMPDEST PUSH1 0x0 PUSH2 0x140 DUP3 ADD SWAP1 POP DUP2 DUP2 SUB PUSH1 0x0 DUP4 ADD MSTORE PUSH2 0x2B2A DUP2 DUP14 PUSH2 0x2A4F JUMP JUMPDEST SWAP1 POP PUSH2 0x2B39 PUSH1 0x20 DUP4 ADD DUP13 PUSH2 0x28E4 JUMP JUMPDEST DUP2 DUP2 SUB PUSH1 0x40 DUP4 ADD MSTORE PUSH2 0x2B4B DUP2 DUP12 PUSH2 0x2A4F JUMP JUMPDEST SWAP1 POP PUSH2 0x2B5A PUSH1 0x60 DUP4 ADD DUP11 PUSH2 0x2854 JUMP JUMPDEST PUSH2 0x2B67 PUSH1 0x80 DUP4 ADD DUP10 PUSH2 0x28E4 JUMP JUMPDEST PUSH2 0x2B74 PUSH1 0xA0 DUP4 ADD DUP9 PUSH2 0x28E4 JUMP JUMPDEST PUSH2 0x2B81 PUSH1 0xC0 DUP4 ADD DUP8 PUSH2 0x28E4 JUMP JUMPDEST PUSH2 0x2B8E PUSH1 0xE0 DUP4 ADD DUP7 PUSH2 0x28E4 JUMP JUMPDEST PUSH2 0x2B9C PUSH2 0x100 DUP4 ADD DUP6 PUSH2 0x2854 JUMP JUMPDEST PUSH2 0x2BAA PUSH2 0x120 DUP4 ADD DUP5 PUSH2 0x2854 JUMP JUMPDEST SWAP12 SWAP11 POP POP POP POP POP POP POP POP POP POP POP JUMP JUMPDEST PUSH32 0x5265656E7472616E637947756172643A207265656E7472616E742063616C6C00 PUSH1 0x0 DUP3 ADD MSTORE POP JUMP JUMPDEST PUSH1 0x0 PUSH2 0x2BEF PUSH1 0x1F DUP4 PUSH2 0x249F JUMP JUMPDEST SWAP2 POP PUSH2 0x2BFA DUP3 PUSH2 0x2BB9 JUMP JUMPDEST PUSH1 0x20 DUP3 ADD SWAP1 POP SWAP2 SWAP1 POP JUMP JUMPDEST PUSH1 0x0 PUSH1 0x20 DUP3 ADD SWAP1 POP DUP2 DUP2 SUB PUSH1 0x0 DUP4 ADD MSTORE PUSH2 0x2C1E DUP2 PUSH2 0x2BE2 JUMP JUMPDEST SWAP1 POP SWAP2 SWAP1 POP JUMP JUMPDEST PUSH32 0x4E487B7100000000000000000000000000000000000000000000000000000000 PUSH1 0x0 MSTORE PUSH1 0x32 PUSH1 0x4 MSTORE PUSH1 0x24 PUSH1 0x0 REVERT JUMPDEST PUSH32 0x596F7520617265206E6F7420746865207065746974696F6E6572206F66207468 PUSH1 0x0 DUP3 ADD MSTORE PUSH32 0x6520726571756573740000000000000000000000000000000000000000000000 PUSH1 0x20 DUP3 ADD MSTORE POP JUMP JUMPDEST PUSH1 0x0 PUSH2 0x2CB0 PUSH1 0x29 DUP4 PUSH2 0x249F JUMP JUMPDEST SWAP2 POP PUSH2 0x2CBB DUP3 PUSH2 0x2C54 JUMP JUMPDEST PUSH1 0x40 DUP3 ADD SWAP1 POP SWAP2 SWAP1 POP JUMP JUMPDEST PUSH1 0x0 PUSH1 0x20 DUP3 ADD SWAP1 POP DUP2 DUP2 SUB PUSH1 0x0 DUP4 ADD MSTORE PUSH2 0x2CDF DUP2 PUSH2 0x2CA3 JUMP JUMPDEST SWAP1 POP SWAP2 SWAP1 POP JUMP JUMPDEST PUSH32 0x54686520726571756573742068617320616C7265616479206265656E20636F6D PUSH1 0x0 DUP3 ADD MSTORE PUSH32 0x706C657465640000000000000000000000000000000000000000000000000000 PUSH1 0x20 DUP3 ADD MSTORE POP JUMP JUMPDEST PUSH1 0x0 PUSH2 0x2D42 PUSH1 0x26 DUP4 PUSH2 0x249F JUMP JUMPDEST SWAP2 POP PUSH2 0x2D4D DUP3 PUSH2 0x2CE6 JUMP JUMPDEST PUSH1 0x40 DUP3 ADD SWAP1 POP SWAP2 SWAP1 POP JUMP JUMPDEST PUSH1 0x0 PUSH1 0x20 DUP3 ADD SWAP1 POP DUP2 DUP2 SUB PUSH1 0x0 DUP4 ADD MSTORE PUSH2 0x2D71 DUP2 PUSH2 0x2D35 JUMP JUMPDEST SWAP1 POP SWAP2 SWAP1 POP JUMP JUMPDEST PUSH32 0x4E487B7100000000000000000000000000000000000000000000000000000000 PUSH1 0x0 MSTORE PUSH1 0x11 PUSH1 0x4 MSTORE PUSH1 0x24 PUSH1 0x0 REVERT JUMPDEST PUSH1 0x0 PUSH2 0x2DB2 DUP3 PUSH2 0x2431 JUMP JUMPDEST SWAP2 POP PUSH32 0xFFFFFFFFFFFFFFFFFFFFFFFFFFFFFFFFFFFFFFFFFFFFFFFFFFFFFFFFFFFFFFFF DUP3 SUB PUSH2 0x2DE4 JUMPI PUSH2 0x2DE3 PUSH2 0x2D78 JUMP JUMPDEST JUMPDEST PUSH1 0x1 DUP3 ADD SWAP1 POP SWAP2 SWAP1 POP JUMP JUMPDEST PUSH1 0x0 PUSH2 0x2DFA DUP3 PUSH2 0x2431 JUMP JUMPDEST SWAP2 POP PUSH2 0x2E05 DUP4 PUSH2 0x2431 JUMP JUMPDEST SWAP3 POP DUP2 PUSH32 0xFFFFFFFFFFFFFFFFFFFFFFFFFFFFFFFFFFFFFFFFFFFFFFFFFFFFFFFFFFFFFFFF DIV DUP4 GT DUP3 ISZERO ISZERO AND ISZERO PUSH2 0x2E3E JUMPI PUSH2 0x2E3D PUSH2 0x2D78 JUMP JUMPDEST JUMPDEST DUP3 DUP3 MUL SWAP1 POP SWAP3 SWAP2 POP POP JUMP JUMPDEST PUSH32 0x4E487B7100000000000000000000000000000000000000000000000000000000 PUSH1 0x0 MSTORE PUSH1 0x12 PUSH1 0x4 MSTORE PUSH1 0x24 PUSH1 0x0 REVERT JUMPDEST PUSH1 0x0 PUSH2 0x2E83 DUP3 PUSH2 0x2431 JUMP JUMPDEST SWAP2 POP PUSH2 0x2E8E DUP4 PUSH2 0x2431 JUMP JUMPDEST SWAP3 POP DUP3 PUSH2 0x2E9E JUMPI PUSH2 0x2E9D PUSH2 0x2E49 JUMP JUMPDEST JUMPDEST DUP3 DUP3 DIV SWAP1 POP SWAP3 SWAP2 POP POP JUMP JUMPDEST PUSH32 0x546865207265717565737420686173206E6F74206265656E20617070726F7665 PUSH1 0x0 DUP3 ADD MSTORE PUSH32 0x6420796574000000000000000000000000000000000000000000000000000000 PUSH1 0x20 DUP3 ADD MSTORE POP JUMP JUMPDEST PUSH1 0x0 PUSH2 0x2F05 PUSH1 0x25 DUP4 PUSH2 0x249F JUMP JUMPDEST SWAP2 POP PUSH2 0x2F10 DUP3 PUSH2 0x2EA9 JUMP JUMPDEST PUSH1 0x40 DUP3 ADD SWAP1 POP SWAP2 SWAP1 POP JUMP JUMPDEST PUSH1 0x0 PUSH1 0x20 DUP3 ADD SWAP1 POP DUP2 DUP2 SUB PUSH1 0x0 DUP4 ADD MSTORE PUSH2 0x2F34 DUP2 PUSH2 0x2EF8 JUMP JUMPDEST SWAP1 POP SWAP2 SWAP1 POP JUMP JUMPDEST PUSH32 0x4E487B7100000000000000000000000000000000000000000000000000000000 PUSH1 0x0 MSTORE PUSH1 0x22 PUSH1 0x4 MSTORE PUSH1 0x24 PUSH1 0x0 REVERT JUMPDEST PUSH1 0x0 PUSH1 0x2 DUP3 DIV SWAP1 POP PUSH1 0x1 DUP3 AND DUP1 PUSH2 0x2F82 JUMPI PUSH1 0x7F DUP3 AND SWAP2 POP JUMPDEST PUSH1 0x20 DUP3 LT DUP2 SUB PUSH2 0x2F95 JUMPI PUSH2 0x2F94 PUSH2 0x2F3B JUMP JUMPDEST JUMPDEST POP SWAP2 SWAP1 POP JUMP JUMPDEST PUSH32 0x52657175657374732063616E206E6F7420626520637265617465640000000000 PUSH1 0x0 DUP3 ADD MSTORE POP JUMP JUMPDEST PUSH1 0x0 PUSH2 0x2FD1 PUSH1 0x1B DUP4 PUSH2 0x249F JUMP JUMPDEST SWAP2 POP PUSH2 0x2FDC DUP3 PUSH2 0x2F9B JUMP JUMPDEST PUSH1 0x20 DUP3 ADD SWAP1 POP SWAP2 SWAP1 POP JUMP JUMPDEST PUSH1 0x0 PUSH1 0x20 DUP3 ADD SWAP1 POP DUP2 DUP2 SUB PUSH1 0x0 DUP4 ADD MSTORE PUSH2 0x3000 DUP2 PUSH2 0x2FC4 JUMP JUMPDEST SWAP1 POP SWAP2 SWAP1 POP JUMP JUMPDEST PUSH32 0x4F6E6C79206D616E61676572732063616E206372656174652061207265717565 PUSH1 0x0 DUP3 ADD MSTORE PUSH32 0x7374000000000000000000000000000000000000000000000000000000000000 PUSH1 0x20 DUP3 ADD MSTORE POP JUMP JUMPDEST PUSH1 0x0 PUSH2 0x3063 PUSH1 0x22 DUP4 PUSH2 0x249F JUMP JUMPDEST SWAP2 POP PUSH2 0x306E DUP3 PUSH2 0x3007 JUMP JUMPDEST PUSH1 0x40 DUP3 ADD SWAP1 POP SWAP2 SWAP1 POP JUMP JUMPDEST PUSH1 0x0 PUSH1 0x20 DUP3 ADD SWAP1 POP DUP2 DUP2 SUB PUSH1 0x0 DUP4 ADD MSTORE PUSH2 0x3092 DUP2 PUSH2 0x3056 JUMP JUMPDEST SWAP1 POP SWAP2 SWAP1 POP JUMP JUMPDEST PUSH1 0x0 DUP2 SWAP1 POP DUP2 PUSH1 0x0 MSTORE PUSH1 0x20 PUSH1 0x0 KECCAK256 SWAP1 POP SWAP2 SWAP1 POP JUMP JUMPDEST PUSH1 0x0 PUSH1 0x20 PUSH1 0x1F DUP4 ADD DIV SWAP1 POP SWAP2 SWAP1 POP JUMP JUMPDEST PUSH1 0x0 DUP3 DUP3 SHL SWAP1 POP SWAP3 SWAP2 POP POP JUMP JUMPDEST PUSH1 0x0 PUSH1 0x8 DUP4 MUL PUSH2 0x30FB PUSH32 0xFFFFFFFFFFFFFFFFFFFFFFFFFFFFFFFFFFFFFFFFFFFFFFFFFFFFFFFFFFFFFFFF DUP3 PUSH2 0x30BE JUMP JUMPDEST PUSH2 0x3105 DUP7 DUP4 PUSH2 0x30BE JUMP JUMPDEST SWAP6 POP DUP1 NOT DUP5 AND SWAP4 POP DUP1 DUP7 AND DUP5 OR SWAP3 POP POP POP SWAP4 SWAP3 POP POP POP JUMP JUMPDEST PUSH1 0x0 DUP2 SWAP1 POP SWAP2 SWAP1 POP JUMP JUMPDEST PUSH1 0x0 PUSH2 0x3142 PUSH2 0x313D PUSH2 0x3138 DUP5 PUSH2 0x2431 JUMP JUMPDEST PUSH2 0x311D JUMP JUMPDEST PUSH2 0x2431 JUMP JUMPDEST SWAP1 POP SWAP2 SWAP1 POP JUMP JUMPDEST PUSH1 0x0 DUP2 SWAP1 POP SWAP2 SWAP1 POP JUMP JUMPDEST PUSH2 0x315C DUP4 PUSH2 0x3127 JUMP JUMPDEST PUSH2 0x3170 PUSH2 0x3168 DUP3 PUSH2 0x3149 JUMP JUMPDEST DUP5 DUP5 SLOAD PUSH2 0x30CB JUMP JUMPDEST DUP3 SSTORE POP POP POP POP JUMP JUMPDEST PUSH1 0x0 SWAP1 JUMP JUMPDEST PUSH2 0x3185 PUSH2 0x3178 JUMP JUMPDEST PUSH2 0x3190 DUP2 DUP5 DUP5 PUSH2 0x3153 JUMP JUMPDEST POP POP POP JUMP JUMPDEST JUMPDEST DUP2 DUP2 LT ISZERO PUSH2 0x31B4 JUMPI PUSH2 0x31A9 PUSH1 0x0 DUP3 PUSH2 0x317D JUMP JUMPDEST PUSH1 0x1 DUP2 ADD SWAP1 POP PUSH2 0x3196 JUMP JUMPDEST POP POP JUMP JUMPDEST PUSH1 0x1F DUP3 GT ISZERO PUSH2 0x31F9 JUMPI PUSH2 0x31CA DUP2 PUSH2 0x3099 JUMP JUMPDEST PUSH2 0x31D3 DUP5 PUSH2 0x30AE JUMP JUMPDEST DUP2 ADD PUSH1 0x20 DUP6 LT ISZERO PUSH2 0x31E2 JUMPI DUP2 SWAP1 POP JUMPDEST PUSH2 0x31F6 PUSH2 0x31EE DUP6 PUSH2 0x30AE JUMP JUMPDEST DUP4 ADD DUP3 PUSH2 0x3195 JUMP JUMPDEST POP POP JUMPDEST POP POP POP JUMP JUMPDEST PUSH1 0x0 DUP3 DUP3 SHR SWAP1 POP SWAP3 SWAP2 POP POP JUMP JUMPDEST PUSH1 0x0 PUSH2 0x321C PUSH1 0x0 NOT DUP5 PUSH1 0x8 MUL PUSH2 0x31FE JUMP JUMPDEST NOT DUP1 DUP4 AND SWAP2 POP POP SWAP3 SWAP2 POP POP JUMP JUMPDEST PUSH1 0x0 PUSH2 0x3235 DUP4 DUP4 PUSH2 0x320B JUMP JUMPDEST SWAP2 POP DUP3 PUSH1 0x2 MUL DUP3 OR SWAP1 POP SWAP3 SWAP2 POP POP JUMP JUMPDEST PUSH2 0x324E DUP3 PUSH2 0x2494 JUMP JUMPDEST PUSH8 0xFFFFFFFFFFFFFFFF DUP2 GT ISZERO PUSH2 0x3267 JUMPI PUSH2 0x3266 PUSH2 0x25A9 JUMP JUMPDEST JUMPDEST PUSH2 0x3271 DUP3 SLOAD PUSH2 0x2F6A JUMP JUMPDEST PUSH2 0x327C DUP3 DUP3 DUP6 PUSH2 0x31B8 JUMP JUMPDEST PUSH1 0x0 PUSH1 0x20 SWAP1 POP PUSH1 0x1F DUP4 GT PUSH1 0x1 DUP2 EQ PUSH2 0x32AF JUMPI PUSH1 0x0 DUP5 ISZERO PUSH2 0x329D JUMPI DUP3 DUP8 ADD MLOAD SWAP1 POP JUMPDEST PUSH2 0x32A7 DUP6 DUP3 PUSH2 0x3229 JUMP JUMPDEST DUP7 SSTORE POP PUSH2 0x330F JUMP JUMPDEST PUSH1 0x1F NOT DUP5 AND PUSH2 0x32BD DUP7 PUSH2 0x3099 JUMP JUMPDEST PUSH1 0x0 JUMPDEST DUP3 DUP2 LT ISZERO PUSH2 0x32E5 JUMPI DUP5 DUP10 ADD MLOAD DUP3 SSTORE PUSH1 0x1 DUP3 ADD SWAP2 POP PUSH1 0x20 DUP6 ADD SWAP5 POP PUSH1 0x20 DUP2 ADD SWAP1 POP PUSH2 0x32C0 JUMP JUMPDEST DUP7 DUP4 LT ISZERO PUSH2 0x3302 JUMPI DUP5 DUP10 ADD MLOAD PUSH2 0x32FE PUSH1 0x1F DUP10 AND DUP3 PUSH2 0x320B JUMP JUMPDEST DUP4 SSTORE POP JUMPDEST PUSH1 0x1 PUSH1 0x2 DUP9 MUL ADD DUP9 SSTORE POP POP POP JUMPDEST POP POP POP POP POP POP JUMP JUMPDEST PUSH1 0x0 PUSH1 0x40 DUP3 ADD SWAP1 POP DUP2 DUP2 SUB PUSH1 0x0 DUP4 ADD MSTORE PUSH2 0x3331 DUP2 DUP6 PUSH2 0x24EB JUMP JUMPDEST SWAP1 POP PUSH2 0x3340 PUSH1 0x20 DUP4 ADD DUP5 PUSH2 0x2854 JUMP JUMPDEST SWAP4 SWAP3 POP POP POP JUMP JUMPDEST PUSH32 0x4E6577206D616E61676572732063616E206E6F74206265206164646564000000 PUSH1 0x0 DUP3 ADD MSTORE POP JUMP JUMPDEST PUSH1 0x0 PUSH2 0x337D PUSH1 0x1D DUP4 PUSH2 0x249F JUMP JUMPDEST SWAP2 POP PUSH2 0x3388 DUP3 PUSH2 0x3347 JUMP JUMPDEST PUSH1 0x20 DUP3 ADD SWAP1 POP SWAP2 SWAP1 POP JUMP JUMPDEST PUSH1 0x0 PUSH1 0x20 DUP3 ADD SWAP1 POP DUP2 DUP2 SUB PUSH1 0x0 DUP4 ADD MSTORE PUSH2 0x33AC DUP2 PUSH2 0x3370 JUMP JUMPDEST SWAP1 POP SWAP2 SWAP1 POP JUMP JUMPDEST PUSH32 0x4F6E6C79206D616E61676572732063616E206163636573730000000000000000 PUSH1 0x0 DUP3 ADD MSTORE POP JUMP JUMPDEST PUSH1 0x0 PUSH2 0x33E9 PUSH1 0x18 DUP4 PUSH2 0x249F JUMP JUMPDEST SWAP2 POP PUSH2 0x33F4 DUP3 PUSH2 0x33B3 JUMP JUMPDEST PUSH1 0x20 DUP3 ADD SWAP1 POP SWAP2 SWAP1 POP JUMP JUMPDEST PUSH1 0x0 PUSH1 0x20 DUP3 ADD SWAP1 POP DUP2 DUP2 SUB PUSH1 0x0 DUP4 ADD MSTORE PUSH2 0x3418 DUP2 PUSH2 0x33DC JUMP JUMPDEST SWAP1 POP SWAP2 SWAP1 POP JUMP JUMPDEST PUSH32 0x596F75206861766520746F2073656E64206F6E65206F72206D6F726520616464 PUSH1 0x0 DUP3 ADD MSTORE PUSH32 0x7265737365730000000000000000000000000000000000000000000000000000 PUSH1 0x20 DUP3 ADD MSTORE POP JUMP JUMPDEST PUSH1 0x0 PUSH2 0x347B PUSH1 0x26 DUP4 PUSH2 0x249F JUMP JUMPDEST SWAP2 POP PUSH2 0x3486 DUP3 PUSH2 0x341F JUMP JUMPDEST PUSH1 0x40 DUP3 ADD SWAP1 POP SWAP2 SWAP1 POP JUMP JUMPDEST PUSH1 0x0 PUSH1 0x20 DUP3 ADD SWAP1 POP DUP2 DUP2 SUB PUSH1 0x0 DUP4 ADD MSTORE PUSH2 0x34AA DUP2 PUSH2 0x346E JUMP JUMPDEST SWAP1 POP SWAP2 SWAP1 POP JUMP JUMPDEST PUSH32 0x4D616E61676572732063616E206E6F74207472616E73666572206D6F6E657920 PUSH1 0x0 DUP3 ADD MSTORE PUSH32 0x776974686F757420612072657175657374000000000000000000000000000000 PUSH1 0x20 DUP3 ADD MSTORE POP JUMP JUMPDEST PUSH1 0x0 PUSH2 0x350D PUSH1 0x31 DUP4 PUSH2 0x249F JUMP JUMPDEST SWAP2 POP PUSH2 0x3518 DUP3 PUSH2 0x34B1 JUMP JUMPDEST PUSH1 0x40 DUP3 ADD SWAP1 POP SWAP2 SWAP1 POP JUMP JUMPDEST PUSH1 0x0 PUSH1 0x20 DUP3 ADD SWAP1 POP DUP2 DUP2 SUB PUSH1 0x0 DUP4 ADD MSTORE PUSH2 0x353C DUP2 PUSH2 0x3500 JUMP JUMPDEST SWAP1 POP SWAP2 SWAP1 POP JUMP JUMPDEST PUSH32 0x596F75206861766520616C726561647920617070726F76656420746869732072 PUSH1 0x0 DUP3 ADD MSTORE PUSH32 0x6571756573740000000000000000000000000000000000000000000000000000 PUSH1 0x20 DUP3 ADD MSTORE POP JUMP JUMPDEST PUSH1 0x0 PUSH2 0x359F PUSH1 0x26 DUP4 PUSH2 0x249F JUMP JUMPDEST SWAP2 POP PUSH2 0x35AA DUP3 PUSH2 0x3543 JUMP JUMPDEST PUSH1 0x40 DUP3 ADD SWAP1 POP SWAP2 SWAP1 POP JUMP JUMPDEST PUSH1 0x0 PUSH1 0x20 DUP3 ADD SWAP1 POP DUP2 DUP2 SUB PUSH1 0x0 DUP4 ADD MSTORE PUSH2 0x35CE DUP2 PUSH2 0x3592 JUMP JUMPDEST SWAP1 POP SWAP2 SWAP1 POP JUMP JUMPDEST PUSH32 0x446F206E6F7420726561636820746865206D696E696D756D20636F6E74726962 PUSH1 0x0 DUP3 ADD MSTORE PUSH32 0x7574696F6E2070657263656E74616765206F7220796F7520617265206E6F7420 PUSH1 0x20 DUP3 ADD MSTORE PUSH32 0x61206D616E616765720000000000000000000000000000000000000000000000 PUSH1 0x40 DUP3 ADD MSTORE POP JUMP JUMPDEST PUSH1 0x0 PUSH2 0x3657 PUSH1 0x49 DUP4 PUSH2 0x249F JUMP JUMPDEST SWAP2 POP PUSH2 0x3662 DUP3 PUSH2 0x35D5 JUMP JUMPDEST PUSH1 0x60 DUP3 ADD SWAP1 POP SWAP2 SWAP1 POP JUMP JUMPDEST PUSH1 0x0 PUSH1 0x20 DUP3 ADD SWAP1 POP DUP2 DUP2 SUB PUSH1 0x0 DUP4 ADD MSTORE PUSH2 0x3686 DUP2 PUSH2 0x364A JUMP JUMPDEST SWAP1 POP SWAP2 SWAP1 POP JUMP JUMPDEST PUSH32 0x4D616E61676572732063616E206E6F742062652072656D6F7665640000000000 PUSH1 0x0 DUP3 ADD MSTORE POP JUMP JUMPDEST PUSH1 0x0 PUSH2 0x36C3 PUSH1 0x1B DUP4 PUSH2 0x249F JUMP JUMPDEST SWAP2 POP PUSH2 0x36CE DUP3 PUSH2 0x368D JUMP JUMPDEST PUSH1 0x20 DUP3 ADD SWAP1 POP SWAP2 SWAP1 POP JUMP JUMPDEST PUSH1 0x0 PUSH1 0x20 DUP3 ADD SWAP1 POP DUP2 DUP2 SUB PUSH1 0x0 DUP4 ADD MSTORE PUSH2 0x36F2 DUP2 PUSH2 0x36B6 JUMP JUMPDEST SWAP1 POP SWAP2 SWAP1 POP JUMP JUMPDEST PUSH32 0x546865726520776F756C64206265206E6F2077617920746F2077697468647261 PUSH1 0x0 DUP3 ADD MSTORE PUSH32 0x7720746865206D6F6E65792066726F6D2074686520636F6E7472616374000000 PUSH1 0x20 DUP3 ADD MSTORE POP JUMP JUMPDEST PUSH1 0x0 PUSH2 0x3755 PUSH1 0x3D DUP4 PUSH2 0x249F JUMP JUMPDEST SWAP2 POP PUSH2 0x3760 DUP3 PUSH2 0x36F9 JUMP JUMPDEST PUSH1 0x40 DUP3 ADD SWAP1 POP SWAP2 SWAP1 POP JUMP JUMPDEST PUSH1 0x0 PUSH1 0x20 DUP3 ADD SWAP1 POP DUP2 DUP2 SUB PUSH1 0x0 DUP4 ADD MSTORE PUSH2 0x3784 DUP2 PUSH2 0x3748 JUMP JUMPDEST SWAP1 POP SWAP2 SWAP1 POP JUMP JUMPDEST PUSH32 0x4E487B7100000000000000000000000000000000000000000000000000000000 PUSH1 0x0 MSTORE PUSH1 0x31 PUSH1 0x4 MSTORE PUSH1 0x24 PUSH1 0x0 REVERT JUMPDEST PUSH32 0x54686520636F6E747269627574696F6E206D7573742062652067726561746572 PUSH1 0x0 DUP3 ADD MSTORE PUSH32 0x207468616E207A65726F00000000000000000000000000000000000000000000 PUSH1 0x20 DUP3 ADD MSTORE POP JUMP JUMPDEST PUSH1 0x0 PUSH2 0x3816 PUSH1 0x2A DUP4 PUSH2 0x249F JUMP JUMPDEST SWAP2 POP PUSH2 0x3821 DUP3 PUSH2 0x37BA JUMP JUMPDEST PUSH1 0x40 DUP3 ADD SWAP1 POP SWAP2 SWAP1 POP JUMP JUMPDEST PUSH1 0x0 PUSH1 0x20 DUP3 ADD SWAP1 POP DUP2 DUP2 SUB PUSH1 0x0 DUP4 ADD MSTORE PUSH2 0x3845 DUP2 PUSH2 0x3809 JUMP JUMPDEST SWAP1 POP SWAP2 SWAP1 POP JUMP JUMPDEST PUSH1 0x0 PUSH2 0x3857 DUP3 PUSH2 0x2431 JUMP JUMPDEST SWAP2 POP PUSH2 0x3862 DUP4 PUSH2 0x2431 JUMP JUMPDEST SWAP3 POP DUP3 DUP3 ADD SWAP1 POP DUP1 DUP3 GT ISZERO PUSH2 0x387A JUMPI PUSH2 0x3879 PUSH2 0x2D78 JUMP JUMPDEST JUMPDEST SWAP3 SWAP2 POP POP JUMP INVALID LOG2 PUSH5 0x6970667358 0x22 SLT KECCAK256 TIMESTAMP DUP6 0xD5 LOG3 SWAP15 0x5F 0x2B SDIV LOG2 0x5F 0xAB PUSH13 0x82165BCC7D9155015771CDC59B 0xBC SWAP1 PUSH16 0xDA6D0F2E64736F6C6343000810003300 "},"gasEstimates":{"creation":{"codeDepositCost":"2903600","executionCost":"infinite","totalCost":"infinite"},"external":{"addNewManagers(address[])":"infinite","approveRequest(uint256)":"infinite","balance()":"428","contribute()":"infinite","contributeFor(address)":"infinite","contributions(address)":"2904","contributors(uint256)":"5068","contributorsCount()":"2512","createRequest(string,address,uint256)":"infinite","createdAt()":"infinite","creator()":"infinite","finalizeRequest(uint256)":"infinite","getContributors()":"infinite","getExtraSummary()":"infinite","getManagers()":"infinite","getRequestApproval(uint256,address)":"5321","getSummary()":"infinite","isManager(address)":"2933","managers(uint256)":"5002","managersCanBeAddedOrRemoved()":"infinite","managersCanTransferMoneyWithoutARequest()":"infinite","managersCount()":"2557","minimumApprovalsPercentageRequired()":"infinite","minimumContributionPercentageRequired()":"infinite","name()":"infinite","onlyContributorsCanApproveARequest()":"infinite","onlyManagersCanCreateARequest()":"infinite","removeManager(uint256)":"infinite","requests(uint256)":"infinite","requestsCanBeCreated()":"infinite","requestsCount()":"2577","totalContributions()":"2519","transfer(address,uint256)":"infinite"},"internal":{"_contribute(address)":"infinite"}},"methodIdentifiers":{"addNewManagers(address[])":"2dde0013","approveRequest(uint256)":"d7d1bbdb","balance()":"b69ef8a8","contribute()":"d7bb99ba","contributeFor(address)":"10718655","contributions(address)":"42e94c90","contributors(uint256)":"3cb5d100","contributorsCount()":"7569b3d7","createRequest(string,address,uint256)":"1b16bb5c","createdAt()":"cf09e0d0","creator()":"02d05d3f","finalizeRequest(uint256)":"03441006","getContributors()":"af157c19","getExtraSummary()":"e557e5dc","getManagers()":"a8d088bb","getRequestApproval(uint256,address)":"9073fa7e","getSummary()":"4051ddac","isManager(address)":"f3ae2415","managers(uint256)":"3d39c260","managersCanBeAddedOrRemoved()":"fa68b631","managersCanTransferMoneyWithoutARequest()":"8175f2c7","managersCount()":"6308ae65","minimumApprovalsPercentageRequired()":"db2d78b1","minimumContributionPercentageRequired()":"691c7545","name()":"06fdde03","onlyContributorsCanApproveARequest()":"ecbff6e7","onlyManagersCanCreateARequest()":"8a20bc37","removeManager(uint256)":"d8247ee7","requests(uint256)":"81d12c58","requestsCanBeCreated()":"aa9cfc50","requestsCount()":"fbfa4b7f","totalContributions()":"37c08923","transfer(address,uint256)":"a9059cbb"}},"storageLayout":{"storage":[{"astId":969,"contract":"Fund.sol:Fund","label":"_status","offset":0,"slot":"0","type":"t_uint256"},{"astId":31,"contract":"Fund.sol:Fund","label":"name","offset":0,"slot":"1","type":"t_string_storage"},{"astId":40,"contract":"Fund.sol:Fund","label":"managers","offset":0,"slot":"2","type":"t_array(t_address)dyn_storage"},{"astId":44,"contract":"Fund.sol:Fund","label":"isManager","offset":0,"slot":"3","type":"t_mapping(t_address,t_bool)"},{"astId":49,"contract":"Fund.sol:Fund","label":"contributors","offset":0,"slot":"4","type":"t_array(t_address)dyn_storage"},{"astId":53,"contract":"Fund.sol:Fund","label":"contributions","offset":0,"slot":"5","type":"t_mapping(t_address,t_uint256)"},{"astId":55,"contract":"Fund.sol:Fund","label":"totalContributions","offset":0,"slot":"6","type":"t_uint256"},{"astId":61,"contract":"Fund.sol:Fund","label":"requests","offset":0,"slot":"7","type":"t_array(t_struct(Request)29_storage)dyn_storage"}],"types":{"t_address":{"encoding":"inplace","label":"address","numberOfBytes":"20"},"t_array(t_address)dyn_storage":{"base":"t_address","encoding":"dynamic_array","label":"address[]","numberOfBytes":"32"},"t_array(t_struct(Request)29_storage)dyn_storage":{"base":"t_struct(Request)29_storage","encoding":"dynamic_array","label":"struct Fund.Request[]","numberOfBytes":"32"},"t_bool":{"encoding":"inplace","label":"bool","numberOfBytes":"1"},"t_mapping(t_address,t_bool)":{"encoding":"mapping","key":"t_address","label":"mapping(address => bool)","numberOfBytes":"32","value":"t_bool"},"t_mapping(t_address,t_uint256)":{"encoding":"mapping","key":"t_address","label":"mapping(address => uint256)","numberOfBytes":"32","value":"t_uint256"},"t_string_storage":{"encoding":"bytes","label":"string","numberOfBytes":"32"},"t_struct(Counter)1004_storage":{"encoding":"inplace","label":"struct Counters.Counter","members":[{"astId":1003,"contract":"Fund.sol:Fund","label":"_value","offset":0,"slot":"0","type":"t_uint256"}],"numberOfBytes":"32"},"t_struct(Request)29_storage":{"encoding":"inplace","label":"struct Fund.Request","members":[{"astId":11,"contract":"Fund.sol:Fund","label":"description","offset":0,"slot":"0","type":"t_string_storage"},{"astId":13,"contract":"Fund.sol:Fund","label":"petitioner","offset":0,"slot":"1","type":"t_address"},{"astId":15,"contract":"Fund.sol:Fund","label":"recipient","offset":0,"slot":"2","type":"t_address"},{"astId":17,"contract":"Fund.sol:Fund","label":"valueToTransfer","offset":0,"slot":"3","type":"t_uint256"},{"astId":19,"contract":"Fund.sol:Fund","label":"transferredValue","offset":0,"slot":"4","type":"t_uint256"},{"astId":21,"contract":"Fund.sol:Fund","label":"complete","offset":0,"slot":"5","type":"t_bool"},{"astId":25,"contract":"Fund.sol:Fund","label":"approvals","offset":0,"slot":"6","type":"t_mapping(t_address,t_bool)"},{"astId":28,"contract":"Fund.sol:Fund","label":"approvalsCount","offset":0,"slot":"7","type":"t_struct(Counter)1004_storage"}],"numberOfBytes":"256"},"t_uint256":{"encoding":"inplace","label":"uint256","numberOfBytes":"32"}}},"userdoc":{"kind":"user","methods":{},"version":1}}