{
  "_format": "hh-sol-artifact-1",
  "contractName": "FundFactory",
  "sourceName": "contracts/FundFactory.sol",
  "abi": [
    {
      "anonymous": false,
      "inputs": [
        {
          "indexed": true,
          "internalType": "address",
          "name": "fundAddress",
          "type": "address"
        },
        {
          "indexed": false,
          "internalType": "string",
          "name": "name",
          "type": "string"
        },
        {
          "indexed": false,
          "internalType": "string",
          "name": "description",
          "type": "string"
        },
        {
          "indexed": true,
          "internalType": "address",
          "name": "creator",
          "type": "address"
        },
        {
          "indexed": false,
          "internalType": "uint256",
          "name": "createdAt",
          "type": "uint256"
        }
      ],
      "name": "NewFund",
      "type": "event"
    },
    {
      "inputs": [
        {
          "internalType": "string",
          "name": "_name",
          "type": "string"
        },
        {
          "internalType": "string",
          "name": "_description",
          "type": "string"
        },
        {
          "internalType": "address[]",
          "name": "_managers",
          "type": "address[]"
        },
        {
          "internalType": "bool",
          "name": "_managersCanBeAddedOrRemoved",
          "type": "bool"
        },
        {
          "internalType": "bool",
          "name": "_managersCanTransferMoneyWithoutARequest",
          "type": "bool"
        },
        {
          "internalType": "bool",
          "name": "_requestsCanBeCreated",
          "type": "bool"
        },
        {
          "internalType": "bool",
          "name": "_onlyManagersCanCreateARequest",
          "type": "bool"
        },
        {
          "internalType": "bool",
          "name": "_onlyContributorsCanApproveARequest",
          "type": "bool"
        },
        {
          "internalType": "uint256",
          "name": "_minimumContributionPercentageRequired",
          "type": "uint256"
        },
        {
          "internalType": "uint256",
          "name": "_minimumApprovalsPercentageRequired",
          "type": "uint256"
        }
      ],
      "name": "createFund",
      "outputs": [],
      "stateMutability": "nonpayable",
      "type": "function"
    },
    {
      "inputs": [
        {
          "internalType": "uint256",
          "name": "",
          "type": "uint256"
        }
      ],
      "name": "deployedFunds",
      "outputs": [
        {
          "internalType": "contract Fund",
          "name": "",
          "type": "address"
        }
      ],
      "stateMutability": "view",
      "type": "function"
    },
    {
      "inputs": [],
      "name": "getDeployedFunds",
      "outputs": [
        {
          "internalType": "contract Fund[]",
          "name": "",
          "type": "address[]"
        }
      ],
      "stateMutability": "view",
      "type": "function"
    },
    {
      "inputs": [],
      "name": "getDeployedFundsCount",
      "outputs": [
        {
          "internalType": "uint256",
          "name": "",
          "type": "uint256"
        }
      ],
      "stateMutability": "view",
      "type": "function"
    }
  ],
  "bytecode": "0x608060405234801561001057600080fd5b50614bd4806100206000396000f3fe60806040523480156200001157600080fd5b5060043610620000525760003560e01c806354d8a5bd14620000575780639a068bd61462000079578063e1a3db1514620000af578063e700c76f14620000d1575b600080fd5b62000061620000f1565b6040516200007091906200054d565b60405180910390f35b620000976004803603810190620000919190620005c0565b62000181565b604051620000a6919062000603565b60405180910390f35b620000b9620001c1565b604051620000c8919062000631565b60405180910390f35b620000ef6004803603810190620000e991906200090d565b620001cd565b005b606060008054806020026020016040519081016040528092919081815260200182805480156200017757602002820191906000526020600020905b8160009054906101000a900473ffffffffffffffffffffffffffffffffffffffff1673ffffffffffffffffffffffffffffffffffffffff16815260200190600101908083116200012c575b5050505050905090565b600081815481106200019257600080fd5b906000526020600020016000915054906101000a900473ffffffffffffffffffffffffffffffffffffffff1681565b60008080549050905090565b858015620001dc575060008851115b80620001fd5750848015620001fc5750831580620001fb575060008851115b5b5b6200023f576040517f08c379a0000000000000000000000000000000000000000000000000000000008152600401620002369062000ae7565b60405180910390fd5b6065821062000285576040517f08c379a00000000000000000000000000000000000000000000000000000000081526004016200027c9062000b7f565b60405180910390fd5b60658110620002cb576040517f08c379a0000000000000000000000000000000000000000000000000000000008152600401620002c29062000bf1565b60405180910390fd5b60008a8a338b8b8b8b8b8b8b8b604051620002e690620003f7565b620002fc9b9a9998979695949392919062000d6a565b604051809103906000f08015801562000319573d6000803e3d6000fd5b5090506000819080600181540180825580915050600190039060005260206000200160009091909190916101000a81548173ffffffffffffffffffffffffffffffffffffffff021916908373ffffffffffffffffffffffffffffffffffffffff1602179055503373ffffffffffffffffffffffffffffffffffffffff168173ffffffffffffffffffffffffffffffffffffffff167f975acefdd82f1279538413ef162fe63aa946d55a2a85f35b27c3e01cb9b9fb6e8d8d42604051620003e29392919062000e40565b60405180910390a35050505050505050505050565b613d138062000e8c83390190565b600081519050919050565b600082825260208201905092915050565b6000819050602082019050919050565b600073ffffffffffffffffffffffffffffffffffffffff82169050919050565b6000819050919050565b60006200047c62000476620004708462000431565b62000451565b62000431565b9050919050565b600062000490826200045b565b9050919050565b6000620004a48262000483565b9050919050565b620004b68162000497565b82525050565b6000620004ca8383620004ab565b60208301905092915050565b6000602082019050919050565b6000620004f08262000405565b620004fc818562000410565b9350620005098362000421565b8060005b8381101562000540578151620005248882620004bc565b97506200053183620004d6565b9250506001810190506200050d565b5085935050505092915050565b60006020820190508181036000830152620005698184620004e3565b905092915050565b6000604051905090565b600080fd5b600080fd5b6000819050919050565b6200059a8162000585565b8114620005a657600080fd5b50565b600081359050620005ba816200058f565b92915050565b600060208284031215620005d957620005d86200057b565b5b6000620005e984828501620005a9565b91505092915050565b620005fd8162000497565b82525050565b60006020820190506200061a6000830184620005f2565b92915050565b6200062b8162000585565b82525050565b600060208201905062000648600083018462000620565b92915050565b600080fd5b600080fd5b6000601f19601f8301169050919050565b7f4e487b7100000000000000000000000000000000000000000000000000000000600052604160045260246000fd5b620006a38262000658565b810181811067ffffffffffffffff82111715620006c557620006c462000669565b5b80604052505050565b6000620006da62000571565b9050620006e8828262000698565b919050565b600067ffffffffffffffff8211156200070b576200070a62000669565b5b620007168262000658565b9050602081019050919050565b82818337600083830152505050565b6000620007496200074384620006ed565b620006ce565b90508281526020810184848401111562000768576200076762000653565b5b6200077584828562000723565b509392505050565b600082601f8301126200079557620007946200064e565b5b8135620007a784826020860162000732565b91505092915050565b600067ffffffffffffffff821115620007ce57620007cd62000669565b5b602082029050602081019050919050565b600080fd5b6000620007f18262000431565b9050919050565b6200080381620007e4565b81146200080f57600080fd5b50565b6000813590506200082381620007f8565b92915050565b6000620008406200083a84620007b0565b620006ce565b90508083825260208201905060208402830185811115620008665762000865620007df565b5b835b818110156200089357806200087e888262000812565b84526020840193505060208101905062000868565b5050509392505050565b600082601f830112620008b557620008b46200064e565b5b8135620008c784826020860162000829565b91505092915050565b60008115159050919050565b620008e781620008d0565b8114620008f357600080fd5b50565b6000813590506200090781620008dc565b92915050565b6000806000806000806000806000806101408b8d0312156200093457620009336200057b565b5b60008b013567ffffffffffffffff81111562000955576200095462000580565b5b620009638d828e016200077d565b9a505060208b013567ffffffffffffffff81111562000987576200098662000580565b5b620009958d828e016200077d565b99505060408b013567ffffffffffffffff811115620009b957620009b862000580565b5b620009c78d828e016200089d565b9850506060620009da8d828e01620008f6565b9750506080620009ed8d828e01620008f6565b96505060a062000a008d828e01620008f6565b95505060c062000a138d828e01620008f6565b94505060e062000a268d828e01620008f6565b93505061010062000a3a8d828e01620005a9565b92505061012062000a4e8d828e01620005a9565b9150509295989b9194979a5092959850565b600082825260208201905092915050565b7f546865726520776f756c64206265206e6f2077617920746f207769746864726160008201527f7720746865206d6f6e65792066726f6d2074686520636f6e7472616374000000602082015250565b600062000acf603d8362000a60565b915062000adc8262000a71565b604082019050919050565b6000602082019050818103600083015262000b028162000ac0565b9050919050565b7f496e636f727265637420636f6e747269627574696f6e2070657263656e74616760008201527f6500000000000000000000000000000000000000000000000000000000000000602082015250565b600062000b6760218362000a60565b915062000b748262000b09565b604082019050919050565b6000602082019050818103600083015262000b9a8162000b58565b9050919050565b7f496e636f727265637420617070726f76616c732070657263656e746167650000600082015250565b600062000bd9601e8362000a60565b915062000be68262000ba1565b602082019050919050565b6000602082019050818103600083015262000c0c8162000bca565b9050919050565b600081519050919050565b60005b8381101562000c3e57808201518184015260208101905062000c21565b60008484015250505050565b600062000c578262000c13565b62000c63818562000a60565b935062000c7581856020860162000c1e565b62000c808162000658565b840191505092915050565b62000c9681620007e4565b82525050565b600081519050919050565b6000819050602082019050919050565b62000cc281620007e4565b82525050565b600062000cd6838362000cb7565b60208301905092915050565b6000602082019050919050565b600062000cfc8262000c9c565b62000d08818562000410565b935062000d158362000ca7565b8060005b8381101562000d4c57815162000d30888262000cc8565b975062000d3d8362000ce2565b92505060018101905062000d19565b5085935050505092915050565b62000d6481620008d0565b82525050565b600061016082019050818103600083015262000d87818e62000c4a565b9050818103602083015262000d9d818d62000c4a565b905062000dae604083018c62000c8b565b818103606083015262000dc2818b62000cef565b905062000dd3608083018a62000d59565b62000de260a083018962000d59565b62000df160c083018862000d59565b62000e0060e083018762000d59565b62000e1061010083018662000d59565b62000e2061012083018562000620565b62000e3061014083018462000620565b9c9b505050505050505050505050565b6000606082019050818103600083015262000e5c818662000c4a565b9050818103602083015262000e72818562000c4a565b905062000e83604083018462000620565b94935050505056fe6080604052426004553480156200001557600080fd5b5060405162003d1338038062003d1383398181016040528101906200003b919062000689565b60016000819055508a6001908162000054919062000a34565b50896002908162000066919062000a34565b5088600360006101000a81548173ffffffffffffffffffffffffffffffffffffffff021916908373ffffffffffffffffffffffffffffffffffffffff160217905550620000b9886200015a60201b60201c565b86600760006101000a81548160ff02191690831515021790555085600b60006101000a81548160ff02191690831515021790555084600d60006101000a81548160ff02191690831515021790555083600d60016101000a81548160ff02191690831515021790555082600d60026101000a81548160ff02191690831515021790555081600e8190555080600f81905550505050505050505050505062000b4a565b60005b81518110156200033a576006600083838151811062000181576200018062000b1b565b5b602002602001015173ffffffffffffffffffffffffffffffffffffffff1673ffffffffffffffffffffffffffffffffffffffff16815260200190815260200160002060009054906101000a900460ff166200032c576005828281518110620001ee57620001ed62000b1b565b5b60200260200101519080600181540180825580915050600190039060005260206000200160009091909190916101000a81548173ffffffffffffffffffffffffffffffffffffffff021916908373ffffffffffffffffffffffffffffffffffffffff16021790555060016006600084848151811062000272576200027162000b1b565b5b602002602001015173ffffffffffffffffffffffffffffffffffffffff1673ffffffffffffffffffffffffffffffffffffffff16815260200190815260200160002060006101000a81548160ff021916908315150217905550818181518110620002e157620002e062000b1b565b5b602002602001015173ffffffffffffffffffffffffffffffffffffffff167f5589a1df7a257347b14b97cb6fe06862c960ff64e9a0c2908632929098bb013060405160405180910390a25b80806001019150506200015d565b5050565b6000604051905090565b600080fd5b600080fd5b600080fd5b600080fd5b6000601f19601f8301169050919050565b7f4e487b7100000000000000000000000000000000000000000000000000000000600052604160045260246000fd5b620003a7826200035c565b810181811067ffffffffffffffff82111715620003c957620003c86200036d565b5b80604052505050565b6000620003de6200033e565b9050620003ec82826200039c565b919050565b600067ffffffffffffffff8211156200040f576200040e6200036d565b5b6200041a826200035c565b9050602081019050919050565b60005b83811015620004475780820151818401526020810190506200042a565b60008484015250505050565b60006200046a6200046484620003f1565b620003d2565b90508281526020810184848401111562000489576200048862000357565b5b6200049684828562000427565b509392505050565b600082601f830112620004b657620004b562000352565b5b8151620004c884826020860162000453565b91505092915050565b600073ffffffffffffffffffffffffffffffffffffffff82169050919050565b6000620004fe82620004d1565b9050919050565b6200051081620004f1565b81146200051c57600080fd5b50565b600081519050620005308162000505565b92915050565b600067ffffffffffffffff8211156200055457620005536200036d565b5b602082029050602081019050919050565b600080fd5b6000620005816200057b8462000536565b620003d2565b90508083825260208201905060208402830185811115620005a757620005a662000565565b5b835b81811015620005d45780620005bf88826200051f565b845260208401935050602081019050620005a9565b5050509392505050565b600082601f830112620005f657620005f562000352565b5b8151620006088482602086016200056a565b91505092915050565b60008115159050919050565b620006288162000611565b81146200063457600080fd5b50565b60008151905062000648816200061d565b92915050565b6000819050919050565b62000663816200064e565b81146200066f57600080fd5b50565b600081519050620006838162000658565b92915050565b60008060008060008060008060008060006101608c8e031215620006b257620006b162000348565b5b60008c015167ffffffffffffffff811115620006d357620006d26200034d565b5b620006e18e828f016200049e565b9b505060208c015167ffffffffffffffff8111156200070557620007046200034d565b5b620007138e828f016200049e565b9a50506040620007268e828f016200051f565b99505060608c015167ffffffffffffffff8111156200074a57620007496200034d565b5b620007588e828f01620005de565b98505060806200076b8e828f0162000637565b97505060a06200077e8e828f0162000637565b96505060c0620007918e828f0162000637565b95505060e0620007a48e828f0162000637565b945050610100620007b88e828f0162000637565b935050610120620007cc8e828f0162000672565b925050610140620007e08e828f0162000672565b9150509295989b509295989b9093969950565b600081519050919050565b7f4e487b7100000000000000000000000000000000000000000000000000000000600052602260045260246000fd5b600060028204905060018216806200084657607f821691505b6020821081036200085c576200085b620007fe565b5b50919050565b60008190508160005260206000209050919050565b60006020601f8301049050919050565b600082821b905092915050565b600060088302620008c67fffffffffffffffffffffffffffffffffffffffffffffffffffffffffffffffff8262000887565b620008d2868362000887565b95508019841693508086168417925050509392505050565b6000819050919050565b6000620009156200090f62000909846200064e565b620008ea565b6200064e565b9050919050565b6000819050919050565b6200093183620008f4565b6200094962000940826200091c565b84845462000894565b825550505050565b600090565b6200096062000951565b6200096d81848462000926565b505050565b5b8181101562000995576200098960008262000956565b60018101905062000973565b5050565b601f821115620009e457620009ae8162000862565b620009b98462000877565b81016020851015620009c9578190505b620009e1620009d88562000877565b83018262000972565b50505b505050565b600082821c905092915050565b600062000a0960001984600802620009e9565b1980831691505092915050565b600062000a248383620009f6565b9150826002028217905092915050565b62000a3f82620007f3565b67ffffffffffffffff81111562000a5b5762000a5a6200036d565b5b62000a6782546200082d565b62000a7482828562000999565b600060209050601f83116001811462000aac576000841562000a97578287015190505b62000aa3858262000a16565b86555062000b13565b601f19841662000abc8662000862565b60005b8281101562000ae65784890151825560018201915060208501945060208101905062000abf565b8683101562000b06578489015162000b02601f891682620009f6565b8355505b6001600288020188555050505b505050505050565b7f4e487b7100000000000000000000000000000000000000000000000000000000600052603260045260246000fd5b6131b98062000b5a6000396000f3fe6080604052600436106101d85760003560e01c806381d12c5811610102578063d7bb99ba11610095578063ecbff6e711610064578063ecbff6e714610678578063f3ae2415146106a3578063fa68b631146106e0578063fbfa4b7f1461070b576101d8565b8063d7bb99ba146105f1578063d7d1bbdb146105fb578063d8247ee714610624578063db2d78b11461064d576101d8565b8063aa9cfc50116100d1578063aa9cfc5014610545578063af157c1914610570578063b69ef8a81461059b578063cf09e0d0146105c6576101d8565b806381d12c58146104835780638a20bc37146104c6578063a8d088bb146104f1578063a9059cbb1461051c576101d8565b80633cb5d1001161017a578063691c754511610149578063691c7545146103d75780637284e416146104025780637569b3d71461042d5780638175f2c714610458576101d8565b80633cb5d100146102f55780633d39c2601461033257806342e94c901461036f5780636308ae65146103ac576101d8565b806310718655116101b6578063107186551461025c5780631b16bb5c146102785780632dde0013146102a157806337c08923146102ca576101d8565b806302d05d3f146101dd578063034410061461020857806306fdde0314610231575b600080fd5b3480156101e957600080fd5b506101f2610736565b6040516101ff9190611edd565b60405180910390f35b34801561021457600080fd5b5061022f600480360381019061022a9190611f42565b61075c565b005b34801561023d57600080fd5b50610246610abc565b6040516102539190611fff565b60405180910390f35b6102766004803603810190610271919061204d565b610b4a565b005b34801561028457600080fd5b5061029f600480360381019061029a91906121af565b610b56565b005b3480156102ad57600080fd5b506102c860048036038101906102c391906122e6565b610dae565b005b3480156102d657600080fd5b506102df610ee0565b6040516102ec919061233e565b60405180910390f35b34801561030157600080fd5b5061031c60048036038101906103179190611f42565b610ee6565b6040516103299190611edd565b60405180910390f35b34801561033e57600080fd5b5061035960048036038101906103549190611f42565b610f25565b6040516103669190611edd565b60405180910390f35b34801561037b57600080fd5b506103966004803603810190610391919061204d565b610f64565b6040516103a3919061233e565b60405180910390f35b3480156103b857600080fd5b506103c1610f7c565b6040516103ce919061233e565b60405180910390f35b3480156103e357600080fd5b506103ec610f89565b6040516103f9919061233e565b60405180910390f35b34801561040e57600080fd5b50610417610f8f565b6040516104249190611fff565b60405180910390f35b34801561043957600080fd5b5061044261101d565b60405161044f919061233e565b60405180910390f35b34801561046457600080fd5b5061046d61102a565b60405161047a9190612374565b60405180910390f35b34801561048f57600080fd5b506104aa60048036038101906104a59190611f42565b61103d565b6040516104bd97969594939291906123ba565b60405180910390f35b3480156104d257600080fd5b506104db611178565b6040516104e89190612374565b60405180910390f35b3480156104fd57600080fd5b5061050661118b565b60405161051391906124ee565b60405180910390f35b34801561052857600080fd5b50610543600480360381019061053e9190612510565b611219565b005b34801561055157600080fd5b5061055a6113b2565b6040516105679190612374565b60405180910390f35b34801561057c57600080fd5b506105856113c5565b60405161059291906124ee565b60405180910390f35b3480156105a757600080fd5b506105b0611453565b6040516105bd919061233e565b60405180910390f35b3480156105d257600080fd5b506105db61145b565b6040516105e8919061233e565b60405180910390f35b6105f9611461565b005b34801561060757600080fd5b50610622600480360381019061061d9190611f42565b611473565b005b34801561063057600080fd5b5061064b60048036038101906106469190611f42565b611755565b005b34801561065957600080fd5b50610662611a94565b60405161066f919061233e565b60405180910390f35b34801561068457600080fd5b5061068d611a9a565b60405161069a9190612374565b60405180910390f35b3480156106af57600080fd5b506106ca60048036038101906106c5919061204d565b611aad565b6040516106d79190612374565b60405180910390f35b3480156106ec57600080fd5b506106f5611acd565b6040516107029190612374565b60405180910390f35b34801561071757600080fd5b50610720611ae0565b60405161072d919061233e565b60405180910390f35b600360009054906101000a900473ffffffffffffffffffffffffffffffffffffffff1681565b6002600054036107a1576040517f08c379a00000000000000000000000000000000000000000000000000000000081526004016107989061259c565b60405180910390fd5b60026000819055506000600c82815481106107bf576107be6125bc565b5b906000526020600020906008020190506107d7611aed565b73ffffffffffffffffffffffffffffffffffffffff168160010160009054906101000a900473ffffffffffffffffffffffffffffffffffffffff1673ffffffffffffffffffffffffffffffffffffffff1614610868576040517f08c379a000000000000000000000000000000000000000000000000000000000815260040161085f9061265d565b60405180910390fd5b8060050160009054906101000a900460ff16156108ba576040517f08c379a00000000000000000000000000000000000000000000000000000000081526004016108b1906126ef565b60405180910390fd5b600d60029054906101000a900460ff161561094257600f5460646108dc61101d565b6108e884600701611af5565b6108f2919061276d565b6108fc919061279e565b101561093d576040517f08c379a00000000000000000000000000000000000000000000000000000000081526004016109349061286a565b60405180910390fd5b6109c3565b600f54606461094f61101d565b610957610f7c565b610961919061288a565b61096d84600701611af5565b610977919061276d565b610981919061279e565b10156109c2576040517f08c379a00000000000000000000000000000000000000000000000000000000081526004016109b99061286a565b60405180910390fd5b5b6000816003015490506109d4611453565b8111156109e6576109e3611453565b90505b8160020160009054906101000a900473ffffffffffffffffffffffffffffffffffffffff1673ffffffffffffffffffffffffffffffffffffffff166108fc829081150290604051600060405180830381858888f19350505050158015610a50573d6000803e3d6000fd5b5080826004018190555060018260050160006101000a81548160ff021916908315150217905550827f2a26d55234ae45d40d3bdfd1893cf58ff7c2bb1c8089d97ed73879054778458c82604051610aa7919061233e565b60405180910390a25050600160008190555050565b60018054610ac9906128ed565b80601f0160208091040260200160405190810160405280929190818152602001828054610af5906128ed565b8015610b425780601f10610b1757610100808354040283529160200191610b42565b820191906000526020600020905b815481529060010190602001808311610b2557829003601f168201915b505050505081565b610b5381611b03565b50565b600d60009054906101000a900460ff16610ba5576040517f08c379a0000000000000000000000000000000000000000000000000000000008152600401610b9c9061296a565b60405180910390fd5b600060066000610bb3611aed565b73ffffffffffffffffffffffffffffffffffffffff1673ffffffffffffffffffffffffffffffffffffffff16815260200190815260200160002060009054906101000a900460ff169050600d60019054906101000a900460ff161580610c2e5750600d60019054906101000a900460ff168015610c2d5750805b5b610c6d576040517f08c379a0000000000000000000000000000000000000000000000000000000008152600401610c64906129fc565b60405180910390fd5b6000600c600181600181540180825580915050039060005260206000209060080201905084816000019081610ca29190612bc8565b50610cab611aed565b8160010160006101000a81548173ffffffffffffffffffffffffffffffffffffffff021916908373ffffffffffffffffffffffffffffffffffffffff160217905550838160020160006101000a81548173ffffffffffffffffffffffffffffffffffffffff021916908373ffffffffffffffffffffffffffffffffffffffff1602179055508281600301819055508373ffffffffffffffffffffffffffffffffffffffff16610d58611aed565b73ffffffffffffffffffffffffffffffffffffffff167f74e74d59220b5b4ab0e8d3683d844955d6fb15b01748aa6f3db944d1bdd447318786604051610d9f929190612c9a565b60405180910390a35050505050565b600760009054906101000a900460ff16610dfd576040517f08c379a0000000000000000000000000000000000000000000000000000000008152600401610df490612d16565b60405180910390fd5b60066000610e09611aed565b73ffffffffffffffffffffffffffffffffffffffff1673ffffffffffffffffffffffffffffffffffffffff16815260200190815260200160002060009054906101000a900460ff16610e90576040517f08c379a0000000000000000000000000000000000000000000000000000000008152600401610e8790612d82565b60405180910390fd5b6000815111610ed4576040517f08c379a0000000000000000000000000000000000000000000000000000000008152600401610ecb90612e14565b60405180910390fd5b610edd81611cb1565b50565b600a5481565b60088181548110610ef657600080fd5b906000526020600020016000915054906101000a900473ffffffffffffffffffffffffffffffffffffffff1681565b60058181548110610f3557600080fd5b906000526020600020016000915054906101000a900473ffffffffffffffffffffffffffffffffffffffff1681565b60096020528060005260406000206000915090505481565b6000600580549050905090565b600e5481565b60028054610f9c906128ed565b80601f0160208091040260200160405190810160405280929190818152602001828054610fc8906128ed565b80156110155780601f10610fea57610100808354040283529160200191611015565b820191906000526020600020905b815481529060010190602001808311610ff857829003601f168201915b505050505081565b6000600880549050905090565b600b60009054906101000a900460ff1681565b600c818154811061104d57600080fd5b9060005260206000209060080201600091509050806000018054611070906128ed565b80601f016020809104026020016040519081016040528092919081815260200182805461109c906128ed565b80156110e95780601f106110be576101008083540402835291602001916110e9565b820191906000526020600020905b8154815290600101906020018083116110cc57829003601f168201915b5050505050908060010160009054906101000a900473ffffffffffffffffffffffffffffffffffffffff16908060020160009054906101000a900473ffffffffffffffffffffffffffffffffffffffff16908060030154908060040154908060050160009054906101000a900460ff169080600701604051806020016040529081600082015481525050905087565b600d60019054906101000a900460ff1681565b6060600580548060200260200160405190810160405280929190818152602001828054801561120f57602002820191906000526020600020905b8160009054906101000a900473ffffffffffffffffffffffffffffffffffffffff1673ffffffffffffffffffffffffffffffffffffffff16815260200190600101908083116111c5575b5050505050905090565b600b60009054906101000a900460ff16611268576040517f08c379a000000000000000000000000000000000000000000000000000000000815260040161125f90612ea6565b60405180910390fd5b60066000611274611aed565b73ffffffffffffffffffffffffffffffffffffffff1673ffffffffffffffffffffffffffffffffffffffff16815260200190815260200160002060009054906101000a900460ff166112fb576040517f08c379a00000000000000000000000000000000000000000000000000000000081526004016112f290612d82565b60405180910390fd5b8173ffffffffffffffffffffffffffffffffffffffff166108fc829081150290604051600060405180830381858888f19350505050158015611341573d6000803e3d6000fd5b508173ffffffffffffffffffffffffffffffffffffffff16611361611aed565b73ffffffffffffffffffffffffffffffffffffffff167fddf252ad1be2c89b69c2b068fc378daa952ba7f163c4a11628f55a4df523b3ef836040516113a6919061233e565b60405180910390a35050565b600d60009054906101000a900460ff1681565b6060600880548060200260200160405190810160405280929190818152602001828054801561144957602002820191906000526020600020905b8160009054906101000a900473ffffffffffffffffffffffffffffffffffffffff1673ffffffffffffffffffffffffffffffffffffffff16815260200190600101908083116113ff575b5050505050905090565b600047905090565b60045481565b61147161146c611aed565b611b03565b565b6000600c8281548110611489576114886125bc565b5b906000526020600020906008020190508060050160009054906101000a900460ff16156114eb576040517f08c379a00000000000000000000000000000000000000000000000000000000081526004016114e2906126ef565b60405180910390fd5b600e546064600a54600960006114ff611aed565b73ffffffffffffffffffffffffffffffffffffffff1673ffffffffffffffffffffffffffffffffffffffff16815260200190815260200160002054611544919061276d565b61154e919061279e565b1015806115c45750600d60029054906101000a900460ff161580156115c357506006600061157a611aed565b73ffffffffffffffffffffffffffffffffffffffff1673ffffffffffffffffffffffffffffffffffffffff16815260200190815260200160002060009054906101000a900460ff165b5b611603576040517f08c379a00000000000000000000000000000000000000000000000000000000081526004016115fa90612f12565b60405180910390fd5b806006016000611611611aed565b73ffffffffffffffffffffffffffffffffffffffff1673ffffffffffffffffffffffffffffffffffffffff16815260200190815260200160002060009054906101000a900460ff1615611699576040517f08c379a000000000000000000000000000000000000000000000000000000000815260040161169090612fa4565b60405180910390fd5b60018160060160006116a9611aed565b73ffffffffffffffffffffffffffffffffffffffff1673ffffffffffffffffffffffffffffffffffffffff16815260200190815260200160002060006101000a81548160ff02191690831515021790555061170681600701611e86565b61170e611aed565b73ffffffffffffffffffffffffffffffffffffffff16827f893b9e35d011bbe15567d0f899b775d6e02d49f62378315a6d25759d3bb1dbcc60405160405180910390a35050565b600760009054906101000a900460ff166117a4576040517f08c379a000000000000000000000000000000000000000000000000000000000815260040161179b90613010565b60405180910390fd5b600660006117b0611aed565b73ffffffffffffffffffffffffffffffffffffffff1673ffffffffffffffffffffffffffffffffffffffff16815260200190815260200160002060009054906101000a900460ff16611837576040517f08c379a000000000000000000000000000000000000000000000000000000000815260040161182e90612d82565b60405180910390fd5b6000611841610f7c565b905060018111806118775750600d60009054906101000a900460ff1680156118765750600d60019054906101000a900460ff16155b5b6118b6576040517f08c379a00000000000000000000000000000000000000000000000000000000081526004016118ad906130a2565b60405180910390fd5b6000600583815481106118cc576118cb6125bc565b5b9060005260206000200160009054906101000a900473ffffffffffffffffffffffffffffffffffffffff169050600660008273ffffffffffffffffffffffffffffffffffffffff1673ffffffffffffffffffffffffffffffffffffffff16815260200190815260200160002060006101000a81549060ff021916905560008390505b60018303811015611a0457600560018201815481106119705761196f6125bc565b5b9060005260206000200160009054906101000a900473ffffffffffffffffffffffffffffffffffffffff16600582815481106119af576119ae6125bc565b5b9060005260206000200160006101000a81548173ffffffffffffffffffffffffffffffffffffffff021916908373ffffffffffffffffffffffffffffffffffffffff160217905550808060010191505061194e565b506005805480611a1757611a166130c2565b5b6001900381819060005260206000200160006101000a81549073ffffffffffffffffffffffffffffffffffffffff021916905590558073ffffffffffffffffffffffffffffffffffffffff167f1e25ed4cabec84d314dc176241019653f237da01f2bdd3a10cb0f38b33da676360405160405180910390a2505050565b600f5481565b600d60029054906101000a900460ff1681565b60066020528060005260406000206000915054906101000a900460ff1681565b600760009054906101000a900460ff1681565b6000600c80549050905090565b600033905090565b600081600001549050919050565b60003411611b46576040517f08c379a0000000000000000000000000000000000000000000000000000000008152600401611b3d90613163565b60405180910390fd5b6000600960008373ffffffffffffffffffffffffffffffffffffffff1673ffffffffffffffffffffffffffffffffffffffff1681526020019081526020016000205403611bf1576008819080600181540180825580915050600190039060005260206000200160009091909190916101000a81548173ffffffffffffffffffffffffffffffffffffffff021916908373ffffffffffffffffffffffffffffffffffffffff1602179055505b34600960008373ffffffffffffffffffffffffffffffffffffffff1673ffffffffffffffffffffffffffffffffffffffff1681526020019081526020016000206000828254611c40919061288a565b9250508190555034600a6000828254611c59919061288a565b925050819055508073ffffffffffffffffffffffffffffffffffffffff167f906faaf913a60f38b5e8f2d6f5b163239bac2d994fa1a5d21751a51587a9405734604051611ca6919061233e565b60405180910390a250565b60005b8151811015611e825760066000838381518110611cd457611cd36125bc565b5b602002602001015173ffffffffffffffffffffffffffffffffffffffff1673ffffffffffffffffffffffffffffffffffffffff16815260200190815260200160002060009054906101000a900460ff16611e75576005828281518110611d3d57611d3c6125bc565b5b60200260200101519080600181540180825580915050600190039060005260206000200160009091909190916101000a81548173ffffffffffffffffffffffffffffffffffffffff021916908373ffffffffffffffffffffffffffffffffffffffff160217905550600160066000848481518110611dbe57611dbd6125bc565b5b602002602001015173ffffffffffffffffffffffffffffffffffffffff1673ffffffffffffffffffffffffffffffffffffffff16815260200190815260200160002060006101000a81548160ff021916908315150217905550818181518110611e2a57611e296125bc565b5b602002602001015173ffffffffffffffffffffffffffffffffffffffff167f5589a1df7a257347b14b97cb6fe06862c960ff64e9a0c2908632929098bb013060405160405180910390a25b8080600101915050611cb4565b5050565b6001816000016000828254019250508190555050565b600073ffffffffffffffffffffffffffffffffffffffff82169050919050565b6000611ec782611e9c565b9050919050565b611ed781611ebc565b82525050565b6000602082019050611ef26000830184611ece565b92915050565b6000604051905090565b600080fd5b600080fd5b6000819050919050565b611f1f81611f0c565b8114611f2a57600080fd5b50565b600081359050611f3c81611f16565b92915050565b600060208284031215611f5857611f57611f02565b5b6000611f6684828501611f2d565b91505092915050565b600081519050919050565b600082825260208201905092915050565b60005b83811015611fa9578082015181840152602081019050611f8e565b60008484015250505050565b6000601f19601f8301169050919050565b6000611fd182611f6f565b611fdb8185611f7a565b9350611feb818560208601611f8b565b611ff481611fb5565b840191505092915050565b600060208201905081810360008301526120198184611fc6565b905092915050565b61202a81611ebc565b811461203557600080fd5b50565b60008135905061204781612021565b92915050565b60006020828403121561206357612062611f02565b5b600061207184828501612038565b91505092915050565b600080fd5b600080fd5b7f4e487b7100000000000000000000000000000000000000000000000000000000600052604160045260246000fd5b6120bc82611fb5565b810181811067ffffffffffffffff821117156120db576120da612084565b5b80604052505050565b60006120ee611ef8565b90506120fa82826120b3565b919050565b600067ffffffffffffffff82111561211a57612119612084565b5b61212382611fb5565b9050602081019050919050565b82818337600083830152505050565b600061215261214d846120ff565b6120e4565b90508281526020810184848401111561216e5761216d61207f565b5b612179848285612130565b509392505050565b600082601f8301126121965761219561207a565b5b81356121a684826020860161213f565b91505092915050565b6000806000606084860312156121c8576121c7611f02565b5b600084013567ffffffffffffffff8111156121e6576121e5611f07565b5b6121f286828701612181565b935050602061220386828701612038565b925050604061221486828701611f2d565b9150509250925092565b600067ffffffffffffffff82111561223957612238612084565b5b602082029050602081019050919050565b600080fd5b600061226261225d8461221e565b6120e4565b905080838252602082019050602084028301858111156122855761228461224a565b5b835b818110156122ae578061229a8882612038565b845260208401935050602081019050612287565b5050509392505050565b600082601f8301126122cd576122cc61207a565b5b81356122dd84826020860161224f565b91505092915050565b6000602082840312156122fc576122fb611f02565b5b600082013567ffffffffffffffff81111561231a57612319611f07565b5b612326848285016122b8565b91505092915050565b61233881611f0c565b82525050565b6000602082019050612353600083018461232f565b92915050565b60008115159050919050565b61236e81612359565b82525050565b60006020820190506123896000830184612365565b92915050565b61239881611f0c565b82525050565b6020820160008201516123b4600085018261238f565b50505050565b600060e08201905081810360008301526123d4818a611fc6565b90506123e36020830189611ece565b6123f06040830188611ece565b6123fd606083018761232f565b61240a608083018661232f565b61241760a0830185612365565b61242460c083018461239e565b98975050505050505050565b600081519050919050565b600082825260208201905092915050565b6000819050602082019050919050565b61246581611ebc565b82525050565b6000612477838361245c565b60208301905092915050565b6000602082019050919050565b600061249b82612430565b6124a5818561243b565b93506124b08361244c565b8060005b838110156124e15781516124c8888261246b565b97506124d383612483565b9250506001810190506124b4565b5085935050505092915050565b600060208201905081810360008301526125088184612490565b905092915050565b6000806040838503121561252757612526611f02565b5b600061253585828601612038565b925050602061254685828601611f2d565b9150509250929050565b7f5265656e7472616e637947756172643a207265656e7472616e742063616c6c00600082015250565b6000612586601f83611f7a565b915061259182612550565b602082019050919050565b600060208201905081810360008301526125b581612579565b9050919050565b7f4e487b7100000000000000000000000000000000000000000000000000000000600052603260045260246000fd5b7f596f7520617265206e6f7420746865207065746974696f6e6572206f6620746860008201527f6520726571756573740000000000000000000000000000000000000000000000602082015250565b6000612647602983611f7a565b9150612652826125eb565b604082019050919050565b600060208201905081810360008301526126768161263a565b9050919050565b7f54686520726571756573742068617320616c7265616479206265656e20636f6d60008201527f706c657465640000000000000000000000000000000000000000000000000000602082015250565b60006126d9602683611f7a565b91506126e48261267d565b604082019050919050565b60006020820190508181036000830152612708816126cc565b9050919050565b7f4e487b7100000000000000000000000000000000000000000000000000000000600052601260045260246000fd5b7f4e487b7100000000000000000000000000000000000000000000000000000000600052601160045260246000fd5b600061277882611f0c565b915061278383611f0c565b9250826127935761279261270f565b5b828204905092915050565b60006127a982611f0c565b91506127b483611f0c565b9250817fffffffffffffffffffffffffffffffffffffffffffffffffffffffffffffffff04831182151516156127ed576127ec61273e565b5b828202905092915050565b7f546865207265717565737420686173206e6f74206265656e20617070726f766560008201527f6420796574000000000000000000000000000000000000000000000000000000602082015250565b6000612854602583611f7a565b915061285f826127f8565b604082019050919050565b6000602082019050818103600083015261288381612847565b9050919050565b600061289582611f0c565b91506128a083611f0c565b92508282019050808211156128b8576128b761273e565b5b92915050565b7f4e487b7100000000000000000000000000000000000000000000000000000000600052602260045260246000fd5b6000600282049050600182168061290557607f821691505b602082108103612918576129176128be565b5b50919050565b7f52657175657374732063616e206e6f7420626520637265617465640000000000600082015250565b6000612954601b83611f7a565b915061295f8261291e565b602082019050919050565b6000602082019050818103600083015261298381612947565b9050919050565b7f4f6e6c79206d616e61676572732063616e20637265617465206120726571756560008201527f7374000000000000000000000000000000000000000000000000000000000000602082015250565b60006129e6602283611f7a565b91506129f18261298a565b604082019050919050565b60006020820190508181036000830152612a15816129d9565b9050919050565b60008190508160005260206000209050919050565b60006020601f8301049050919050565b600082821b905092915050565b600060088302612a7e7fffffffffffffffffffffffffffffffffffffffffffffffffffffffffffffffff82612a41565b612a888683612a41565b95508019841693508086168417925050509392505050565b6000819050919050565b6000612ac5612ac0612abb84611f0c565b612aa0565b611f0c565b9050919050565b6000819050919050565b612adf83612aaa565b612af3612aeb82612acc565b848454612a4e565b825550505050565b600090565b612b08612afb565b612b13818484612ad6565b505050565b5b81811015612b3757612b2c600082612b00565b600181019050612b19565b5050565b601f821115612b7c57612b4d81612a1c565b612b5684612a31565b81016020851015612b65578190505b612b79612b7185612a31565b830182612b18565b50505b505050565b600082821c905092915050565b6000612b9f60001984600802612b81565b1980831691505092915050565b6000612bb88383612b8e565b9150826002028217905092915050565b612bd182611f6f565b67ffffffffffffffff811115612bea57612be9612084565b5b612bf482546128ed565b612bff828285612b3b565b600060209050601f831160018114612c325760008415612c20578287015190505b612c2a8582612bac565b865550612c92565b601f198416612c4086612a1c565b60005b82811015612c6857848901518255600182019150602085019450602081019050612c43565b86831015612c855784890151612c81601f891682612b8e565b8355505b6001600288020188555050505b505050505050565b60006040820190508181036000830152612cb48185611fc6565b9050612cc3602083018461232f565b9392505050565b7f4e6577206d616e61676572732063616e206e6f74206265206164646564000000600082015250565b6000612d00601d83611f7a565b9150612d0b82612cca565b602082019050919050565b60006020820190508181036000830152612d2f81612cf3565b9050919050565b7f4f6e6c79206d616e61676572732063616e206163636573730000000000000000600082015250565b6000612d6c601883611f7a565b9150612d7782612d36565b602082019050919050565b60006020820190508181036000830152612d9b81612d5f565b9050919050565b7f596f75206861766520746f2073656e64206f6e65206f72206d6f72652061646460008201527f7265737365730000000000000000000000000000000000000000000000000000602082015250565b6000612dfe602683611f7a565b9150612e0982612da2565b604082019050919050565b60006020820190508181036000830152612e2d81612df1565b9050919050565b7f4d616e61676572732063616e206e6f74207472616e73666572206d6f6e65792060008201527f776974686f757420612072657175657374000000000000000000000000000000602082015250565b6000612e90603183611f7a565b9150612e9b82612e34565b604082019050919050565b60006020820190508181036000830152612ebf81612e83565b9050919050565b7f596f752063616e206e6f7420617070726f766520612072657175657374000000600082015250565b6000612efc601d83611f7a565b9150612f0782612ec6565b602082019050919050565b60006020820190508181036000830152612f2b81612eef565b9050919050565b7f596f75206861766520616c726561647920617070726f7665642074686973207260008201527f6571756573740000000000000000000000000000000000000000000000000000602082015250565b6000612f8e602683611f7a565b9150612f9982612f32565b604082019050919050565b60006020820190508181036000830152612fbd81612f81565b9050919050565b7f4d616e61676572732063616e206e6f742062652072656d6f7665640000000000600082015250565b6000612ffa601b83611f7a565b915061300582612fc4565b602082019050919050565b6000602082019050818103600083015261302981612fed565b9050919050565b7f546865726520776f756c64206265206e6f2077617920746f207769746864726160008201527f7720746865206d6f6e65792066726f6d2074686520636f6e7472616374000000602082015250565b600061308c603d83611f7a565b915061309782613030565b604082019050919050565b600060208201905081810360008301526130bb8161307f565b9050919050565b7f4e487b7100000000000000000000000000000000000000000000000000000000600052603160045260246000fd5b7f54686520636f6e747269627574696f6e206d757374206265206772656174657260008201527f207468616e207a65726f00000000000000000000000000000000000000000000602082015250565b600061314d602a83611f7a565b9150613158826130f1565b604082019050919050565b6000602082019050818103600083015261317c81613140565b905091905056fea2646970667358221220d8179c7301abd91375ae60febb24001333a3792b5ffd18b77fa2c450477086fe64736f6c63430008100033a26469706673582212205ab401893e02511eb5e26ea2fb51ac216a55535136b3e3ab03c2ff759fb9e37664736f6c63430008100033",
  "linkReferences": {},
  "deployedLinkReferences": {}
}