{
  "_format": "hh-sol-artifact-1",
  "contractName": "FundFactory",
  "sourceName": "contracts/FundFactory.sol",
  "abi": [
    {
      "anonymous": false,
      "inputs": [
        {
          "indexed": true,
          "internalType": "address",
          "name": "fundAddress",
          "type": "address"
        },
        {
          "indexed": false,
          "internalType": "string",
          "name": "name",
          "type": "string"
        },
        {
          "indexed": false,
          "internalType": "string",
          "name": "description",
          "type": "string"
        },
        {
          "indexed": true,
          "internalType": "address",
          "name": "creator",
          "type": "address"
        },
        {
          "indexed": false,
          "internalType": "uint256",
          "name": "createdAt",
          "type": "uint256"
        }
      ],
      "name": "NewFund",
      "type": "event"
    },
    {
      "inputs": [
        {
          "internalType": "string",
          "name": "_name",
          "type": "string"
        },
        {
          "internalType": "string",
          "name": "_description",
          "type": "string"
        },
        {
          "internalType": "address[]",
          "name": "_managers",
          "type": "address[]"
        },
        {
          "internalType": "bool",
          "name": "_managersCanBeAddedOrRemoved",
          "type": "bool"
        },
        {
          "internalType": "bool",
          "name": "_managersCanTransferMoneyWithoutARequest",
          "type": "bool"
        },
        {
          "internalType": "bool",
          "name": "_requestsCanBeCreated",
          "type": "bool"
        },
        {
          "internalType": "bool",
          "name": "_onlyManagersCanCreateARequest",
          "type": "bool"
        },
        {
          "internalType": "bool",
          "name": "_onlyContributorsCanApproveARequest",
          "type": "bool"
        },
        {
          "internalType": "uint256",
          "name": "_minimumContributionPercentageRequired",
          "type": "uint256"
        },
        {
          "internalType": "uint256",
          "name": "_minimumApprovalsPercentageRequired",
          "type": "uint256"
        }
      ],
      "name": "createFund",
      "outputs": [],
      "stateMutability": "nonpayable",
      "type": "function"
    },
    {
      "inputs": [
        {
          "internalType": "uint256",
          "name": "",
          "type": "uint256"
        }
      ],
      "name": "deployedFunds",
      "outputs": [
        {
          "internalType": "contract Fund",
          "name": "",
          "type": "address"
        }
      ],
      "stateMutability": "view",
      "type": "function"
    },
    {
      "inputs": [],
      "name": "getDeployedFunds",
      "outputs": [
        {
          "internalType": "contract Fund[]",
          "name": "",
          "type": "address[]"
        }
      ],
      "stateMutability": "view",
      "type": "function"
    },
    {
      "inputs": [],
      "name": "getDeployedFundsCount",
      "outputs": [
        {
          "internalType": "uint256",
          "name": "",
          "type": "uint256"
        }
      ],
      "stateMutability": "view",
      "type": "function"
    }
  ],
  "bytecode": "0x608060405234801561001057600080fd5b50614a6b806100206000396000f3fe60806040523480156200001157600080fd5b5060043610620000525760003560e01c806354d8a5bd14620000575780639a068bd61462000079578063e1a3db1514620000af578063e700c76f14620000d1575b600080fd5b62000061620000f1565b6040516200007091906200054d565b60405180910390f35b620000976004803603810190620000919190620005c0565b62000181565b604051620000a6919062000603565b60405180910390f35b620000b9620001c1565b604051620000c8919062000631565b60405180910390f35b620000ef6004803603810190620000e991906200090d565b620001cd565b005b606060008054806020026020016040519081016040528092919081815260200182805480156200017757602002820191906000526020600020905b8160009054906101000a900473ffffffffffffffffffffffffffffffffffffffff1673ffffffffffffffffffffffffffffffffffffffff16815260200190600101908083116200012c575b5050505050905090565b600081815481106200019257600080fd5b906000526020600020016000915054906101000a900473ffffffffffffffffffffffffffffffffffffffff1681565b60008080549050905090565b858015620001dc575060008851115b80620001fd5750848015620001fc5750831580620001fb575060008851115b5b5b6200023f576040517f08c379a0000000000000000000000000000000000000000000000000000000008152600401620002369062000ae7565b60405180910390fd5b6065821062000285576040517f08c379a00000000000000000000000000000000000000000000000000000000081526004016200027c9062000b7f565b60405180910390fd5b60658110620002cb576040517f08c379a0000000000000000000000000000000000000000000000000000000008152600401620002c29062000bf1565b60405180910390fd5b60008a8a338b8b8b8b8b8b8b8b604051620002e690620003f7565b620002fc9b9a9998979695949392919062000d6a565b604051809103906000f08015801562000319573d6000803e3d6000fd5b5090506000819080600181540180825580915050600190039060005260206000200160009091909190916101000a81548173ffffffffffffffffffffffffffffffffffffffff021916908373ffffffffffffffffffffffffffffffffffffffff1602179055503373ffffffffffffffffffffffffffffffffffffffff168173ffffffffffffffffffffffffffffffffffffffff167f975acefdd82f1279538413ef162fe63aa946d55a2a85f35b27c3e01cb9b9fb6e8d8d42604051620003e29392919062000e40565b60405180910390a35050505050505050505050565b613baa8062000e8c83390190565b600081519050919050565b600082825260208201905092915050565b6000819050602082019050919050565b600073ffffffffffffffffffffffffffffffffffffffff82169050919050565b6000819050919050565b60006200047c62000476620004708462000431565b62000451565b62000431565b9050919050565b600062000490826200045b565b9050919050565b6000620004a48262000483565b9050919050565b620004b68162000497565b82525050565b6000620004ca8383620004ab565b60208301905092915050565b6000602082019050919050565b6000620004f08262000405565b620004fc818562000410565b9350620005098362000421565b8060005b8381101562000540578151620005248882620004bc565b97506200053183620004d6565b9250506001810190506200050d565b5085935050505092915050565b60006020820190508181036000830152620005698184620004e3565b905092915050565b6000604051905090565b600080fd5b600080fd5b6000819050919050565b6200059a8162000585565b8114620005a657600080fd5b50565b600081359050620005ba816200058f565b92915050565b600060208284031215620005d957620005d86200057b565b5b6000620005e984828501620005a9565b91505092915050565b620005fd8162000497565b82525050565b60006020820190506200061a6000830184620005f2565b92915050565b6200062b8162000585565b82525050565b600060208201905062000648600083018462000620565b92915050565b600080fd5b600080fd5b6000601f19601f8301169050919050565b7f4e487b7100000000000000000000000000000000000000000000000000000000600052604160045260246000fd5b620006a38262000658565b810181811067ffffffffffffffff82111715620006c557620006c462000669565b5b80604052505050565b6000620006da62000571565b9050620006e8828262000698565b919050565b600067ffffffffffffffff8211156200070b576200070a62000669565b5b620007168262000658565b9050602081019050919050565b82818337600083830152505050565b6000620007496200074384620006ed565b620006ce565b90508281526020810184848401111562000768576200076762000653565b5b6200077584828562000723565b509392505050565b600082601f8301126200079557620007946200064e565b5b8135620007a784826020860162000732565b91505092915050565b600067ffffffffffffffff821115620007ce57620007cd62000669565b5b602082029050602081019050919050565b600080fd5b6000620007f18262000431565b9050919050565b6200080381620007e4565b81146200080f57600080fd5b50565b6000813590506200082381620007f8565b92915050565b6000620008406200083a84620007b0565b620006ce565b90508083825260208201905060208402830185811115620008665762000865620007df565b5b835b818110156200089357806200087e888262000812565b84526020840193505060208101905062000868565b5050509392505050565b600082601f830112620008b557620008b46200064e565b5b8135620008c784826020860162000829565b91505092915050565b60008115159050919050565b620008e781620008d0565b8114620008f357600080fd5b50565b6000813590506200090781620008dc565b92915050565b6000806000806000806000806000806101408b8d0312156200093457620009336200057b565b5b60008b013567ffffffffffffffff81111562000955576200095462000580565b5b620009638d828e016200077d565b9a505060208b013567ffffffffffffffff81111562000987576200098662000580565b5b620009958d828e016200077d565b99505060408b013567ffffffffffffffff811115620009b957620009b862000580565b5b620009c78d828e016200089d565b9850506060620009da8d828e01620008f6565b9750506080620009ed8d828e01620008f6565b96505060a062000a008d828e01620008f6565b95505060c062000a138d828e01620008f6565b94505060e062000a268d828e01620008f6565b93505061010062000a3a8d828e01620005a9565b92505061012062000a4e8d828e01620005a9565b9150509295989b9194979a5092959850565b600082825260208201905092915050565b7f546865726520776f756c64206265206e6f2077617920746f207769746864726160008201527f7720746865206d6f6e65792066726f6d2074686520636f6e7472616374000000602082015250565b600062000acf603d8362000a60565b915062000adc8262000a71565b604082019050919050565b6000602082019050818103600083015262000b028162000ac0565b9050919050565b7f496e636f727265637420636f6e747269627574696f6e2070657263656e74616760008201527f6500000000000000000000000000000000000000000000000000000000000000602082015250565b600062000b6760218362000a60565b915062000b748262000b09565b604082019050919050565b6000602082019050818103600083015262000b9a8162000b58565b9050919050565b7f496e636f727265637420617070726f76616c732070657263656e746167650000600082015250565b600062000bd9601e8362000a60565b915062000be68262000ba1565b602082019050919050565b6000602082019050818103600083015262000c0c8162000bca565b9050919050565b600081519050919050565b60005b8381101562000c3e57808201518184015260208101905062000c21565b60008484015250505050565b600062000c578262000c13565b62000c63818562000a60565b935062000c7581856020860162000c1e565b62000c808162000658565b840191505092915050565b62000c9681620007e4565b82525050565b600081519050919050565b6000819050602082019050919050565b62000cc281620007e4565b82525050565b600062000cd6838362000cb7565b60208301905092915050565b6000602082019050919050565b600062000cfc8262000c9c565b62000d08818562000410565b935062000d158362000ca7565b8060005b8381101562000d4c57815162000d30888262000cc8565b975062000d3d8362000ce2565b92505060018101905062000d19565b5085935050505092915050565b62000d6481620008d0565b82525050565b600061016082019050818103600083015262000d87818e62000c4a565b9050818103602083015262000d9d818d62000c4a565b905062000dae604083018c62000c8b565b818103606083015262000dc2818b62000cef565b905062000dd3608083018a62000d59565b62000de260a083018962000d59565b62000df160c083018862000d59565b62000e0060e083018762000d59565b62000e1061010083018662000d59565b62000e2061012083018562000620565b62000e3061014083018462000620565b9c9b505050505050505050505050565b6000606082019050818103600083015262000e5c818662000c4a565b9050818103602083015262000e72818562000c4a565b905062000e83604083018462000620565b94935050505056fe6080604052426004553480156200001557600080fd5b5060405162003baa38038062003baa83398181016040528101906200003b91906200055b565b60016000819055508a6001908162000054919062000906565b50896002908162000066919062000906565b5088600360006101000a81548173ffffffffffffffffffffffffffffffffffffffff021916908373ffffffffffffffffffffffffffffffffffffffff1602179055508760059080519060200190620000c092919062000162565b5086600760006101000a81548160ff02191690831515021790555085600b60006101000a81548160ff02191690831515021790555084600d60006101000a81548160ff02191690831515021790555083600d60016101000a81548160ff02191690831515021790555082600d60026101000a81548160ff02191690831515021790555081600e8190555080600f819055505050505050505050505050620009ed565b828054828255906000526020600020908101928215620001de579160200282015b82811115620001dd5782518260006101000a81548173ffffffffffffffffffffffffffffffffffffffff021916908373ffffffffffffffffffffffffffffffffffffffff1602179055509160200191906001019062000183565b5b509050620001ed9190620001f1565b5090565b5b808211156200020c576000816000905550600101620001f2565b5090565b6000604051905090565b600080fd5b600080fd5b600080fd5b600080fd5b6000601f19601f8301169050919050565b7f4e487b7100000000000000000000000000000000000000000000000000000000600052604160045260246000fd5b62000279826200022e565b810181811067ffffffffffffffff821117156200029b576200029a6200023f565b5b80604052505050565b6000620002b062000210565b9050620002be82826200026e565b919050565b600067ffffffffffffffff821115620002e157620002e06200023f565b5b620002ec826200022e565b9050602081019050919050565b60005b8381101562000319578082015181840152602081019050620002fc565b60008484015250505050565b60006200033c6200033684620002c3565b620002a4565b9050828152602081018484840111156200035b576200035a62000229565b5b62000368848285620002f9565b509392505050565b600082601f83011262000388576200038762000224565b5b81516200039a84826020860162000325565b91505092915050565b600073ffffffffffffffffffffffffffffffffffffffff82169050919050565b6000620003d082620003a3565b9050919050565b620003e281620003c3565b8114620003ee57600080fd5b50565b6000815190506200040281620003d7565b92915050565b600067ffffffffffffffff8211156200042657620004256200023f565b5b602082029050602081019050919050565b600080fd5b6000620004536200044d8462000408565b620002a4565b9050808382526020820190506020840283018581111562000479576200047862000437565b5b835b81811015620004a65780620004918882620003f1565b8452602084019350506020810190506200047b565b5050509392505050565b600082601f830112620004c857620004c762000224565b5b8151620004da8482602086016200043c565b91505092915050565b60008115159050919050565b620004fa81620004e3565b81146200050657600080fd5b50565b6000815190506200051a81620004ef565b92915050565b6000819050919050565b620005358162000520565b81146200054157600080fd5b50565b60008151905062000555816200052a565b92915050565b60008060008060008060008060008060006101608c8e0312156200058457620005836200021a565b5b60008c015167ffffffffffffffff811115620005a557620005a46200021f565b5b620005b38e828f0162000370565b9b505060208c015167ffffffffffffffff811115620005d757620005d66200021f565b5b620005e58e828f0162000370565b9a50506040620005f88e828f01620003f1565b99505060608c015167ffffffffffffffff8111156200061c576200061b6200021f565b5b6200062a8e828f01620004b0565b98505060806200063d8e828f0162000509565b97505060a0620006508e828f0162000509565b96505060c0620006638e828f0162000509565b95505060e0620006768e828f0162000509565b9450506101006200068a8e828f0162000509565b9350506101206200069e8e828f0162000544565b925050610140620006b28e828f0162000544565b9150509295989b509295989b9093969950565b600081519050919050565b7f4e487b7100000000000000000000000000000000000000000000000000000000600052602260045260246000fd5b600060028204905060018216806200071857607f821691505b6020821081036200072e576200072d620006d0565b5b50919050565b60008190508160005260206000209050919050565b60006020601f8301049050919050565b600082821b905092915050565b600060088302620007987fffffffffffffffffffffffffffffffffffffffffffffffffffffffffffffffff8262000759565b620007a4868362000759565b95508019841693508086168417925050509392505050565b6000819050919050565b6000620007e7620007e1620007db8462000520565b620007bc565b62000520565b9050919050565b6000819050919050565b6200080383620007c6565b6200081b6200081282620007ee565b84845462000766565b825550505050565b600090565b6200083262000823565b6200083f818484620007f8565b505050565b5b8181101562000867576200085b60008262000828565b60018101905062000845565b5050565b601f821115620008b657620008808162000734565b6200088b8462000749565b810160208510156200089b578190505b620008b3620008aa8562000749565b83018262000844565b50505b505050565b600082821c905092915050565b6000620008db60001984600802620008bb565b1980831691505092915050565b6000620008f68383620008c8565b9150826002028217905092915050565b6200091182620006c5565b67ffffffffffffffff8111156200092d576200092c6200023f565b5b620009398254620006ff565b620009468282856200086b565b600060209050601f8311600181146200097e576000841562000969578287015190505b620009758582620008e8565b865550620009e5565b601f1984166200098e8662000734565b60005b82811015620009b85784890151825560018201915060208501945060208101905062000991565b86831015620009d85784890151620009d4601f891682620008c8565b8355505b6001600288020188555050505b505050505050565b6131ad80620009fd6000396000f3fe6080604052600436106101d85760003560e01c806381d12c5811610102578063d7bb99ba11610095578063ecbff6e711610064578063ecbff6e714610678578063f3ae2415146106a3578063fa68b631146106e0578063fbfa4b7f1461070b576101d8565b8063d7bb99ba146105f1578063d7d1bbdb146105fb578063d8247ee714610624578063db2d78b11461064d576101d8565b8063aa9cfc50116100d1578063aa9cfc5014610545578063af157c1914610570578063b69ef8a81461059b578063cf09e0d0146105c6576101d8565b806381d12c58146104835780638a20bc37146104c6578063a8d088bb146104f1578063a9059cbb1461051c576101d8565b80633cb5d1001161017a578063691c754511610149578063691c7545146103d75780637284e416146104025780637569b3d71461042d5780638175f2c714610458576101d8565b80633cb5d100146102f55780633d39c2601461033257806342e94c901461036f5780636308ae65146103ac576101d8565b806310718655116101b6578063107186551461025c5780631b16bb5c146102785780632dde0013146102a157806337c08923146102ca576101d8565b806302d05d3f146101dd578063034410061461020857806306fdde0314610231575b600080fd5b3480156101e957600080fd5b506101f2610736565b6040516101ff9190611ed1565b60405180910390f35b34801561021457600080fd5b5061022f600480360381019061022a9190611f36565b61075c565b005b34801561023d57600080fd5b50610246610abc565b6040516102539190611ff3565b60405180910390f35b61027660048036038101906102719190612041565b610b4a565b005b34801561028457600080fd5b5061029f600480360381019061029a91906121a3565b610b56565b005b3480156102ad57600080fd5b506102c860048036038101906102c391906122da565b610dae565b005b3480156102d657600080fd5b506102df6110a9565b6040516102ec9190612332565b60405180910390f35b34801561030157600080fd5b5061031c60048036038101906103179190611f36565b6110af565b6040516103299190611ed1565b60405180910390f35b34801561033e57600080fd5b5061035960048036038101906103549190611f36565b6110ee565b6040516103669190611ed1565b60405180910390f35b34801561037b57600080fd5b5061039660048036038101906103919190612041565b61112d565b6040516103a39190612332565b60405180910390f35b3480156103b857600080fd5b506103c1611145565b6040516103ce9190612332565b60405180910390f35b3480156103e357600080fd5b506103ec611152565b6040516103f99190612332565b60405180910390f35b34801561040e57600080fd5b50610417611158565b6040516104249190611ff3565b60405180910390f35b34801561043957600080fd5b506104426111e6565b60405161044f9190612332565b60405180910390f35b34801561046457600080fd5b5061046d6111f3565b60405161047a9190612368565b60405180910390f35b34801561048f57600080fd5b506104aa60048036038101906104a59190611f36565b611206565b6040516104bd97969594939291906123ae565b60405180910390f35b3480156104d257600080fd5b506104db611341565b6040516104e89190612368565b60405180910390f35b3480156104fd57600080fd5b50610506611354565b60405161051391906124e2565b60405180910390f35b34801561052857600080fd5b50610543600480360381019061053e9190612504565b6113e2565b005b34801561055157600080fd5b5061055a61157b565b6040516105679190612368565b60405180910390f35b34801561057c57600080fd5b5061058561158e565b60405161059291906124e2565b60405180910390f35b3480156105a757600080fd5b506105b061161c565b6040516105bd9190612332565b60405180910390f35b3480156105d257600080fd5b506105db611624565b6040516105e89190612332565b60405180910390f35b6105f961162a565b005b34801561060757600080fd5b50610622600480360381019061061d9190611f36565b61163c565b005b34801561063057600080fd5b5061064b60048036038101906106469190611f36565b61191e565b005b34801561065957600080fd5b50610662611c5d565b60405161066f9190612332565b60405180910390f35b34801561068457600080fd5b5061068d611c63565b60405161069a9190612368565b60405180910390f35b3480156106af57600080fd5b506106ca60048036038101906106c59190612041565b611c76565b6040516106d79190612368565b60405180910390f35b3480156106ec57600080fd5b506106f5611c96565b6040516107029190612368565b60405180910390f35b34801561071757600080fd5b50610720611ca9565b60405161072d9190612332565b60405180910390f35b600360009054906101000a900473ffffffffffffffffffffffffffffffffffffffff1681565b6002600054036107a1576040517f08c379a000000000000000000000000000000000000000000000000000000000815260040161079890612590565b60405180910390fd5b60026000819055506000600c82815481106107bf576107be6125b0565b5b906000526020600020906008020190506107d7611cb6565b73ffffffffffffffffffffffffffffffffffffffff168160010160009054906101000a900473ffffffffffffffffffffffffffffffffffffffff1673ffffffffffffffffffffffffffffffffffffffff1614610868576040517f08c379a000000000000000000000000000000000000000000000000000000000815260040161085f90612651565b60405180910390fd5b8060050160009054906101000a900460ff16156108ba576040517f08c379a00000000000000000000000000000000000000000000000000000000081526004016108b1906126e3565b60405180910390fd5b600d60029054906101000a900460ff161561094257600f5460646108dc6111e6565b6108e884600701611cbe565b6108f29190612761565b6108fc9190612792565b101561093d576040517f08c379a00000000000000000000000000000000000000000000000000000000081526004016109349061285e565b60405180910390fd5b6109c3565b600f54606461094f6111e6565b610957611145565b610961919061287e565b61096d84600701611cbe565b6109779190612761565b6109819190612792565b10156109c2576040517f08c379a00000000000000000000000000000000000000000000000000000000081526004016109b99061285e565b60405180910390fd5b5b6000816003015490506109d461161c565b8111156109e6576109e361161c565b90505b8160020160009054906101000a900473ffffffffffffffffffffffffffffffffffffffff1673ffffffffffffffffffffffffffffffffffffffff166108fc829081150290604051600060405180830381858888f19350505050158015610a50573d6000803e3d6000fd5b5080826004018190555060018260050160006101000a81548160ff021916908315150217905550827f2a26d55234ae45d40d3bdfd1893cf58ff7c2bb1c8089d97ed73879054778458c82604051610aa79190612332565b60405180910390a25050600160008190555050565b60018054610ac9906128e1565b80601f0160208091040260200160405190810160405280929190818152602001828054610af5906128e1565b8015610b425780601f10610b1757610100808354040283529160200191610b42565b820191906000526020600020905b815481529060010190602001808311610b2557829003601f168201915b505050505081565b610b5381611ccc565b50565b600d60009054906101000a900460ff16610ba5576040517f08c379a0000000000000000000000000000000000000000000000000000000008152600401610b9c9061295e565b60405180910390fd5b600060066000610bb3611cb6565b73ffffffffffffffffffffffffffffffffffffffff1673ffffffffffffffffffffffffffffffffffffffff16815260200190815260200160002060009054906101000a900460ff169050600d60019054906101000a900460ff161580610c2e5750600d60019054906101000a900460ff168015610c2d5750805b5b610c6d576040517f08c379a0000000000000000000000000000000000000000000000000000000008152600401610c64906129f0565b60405180910390fd5b6000600c600181600181540180825580915050039060005260206000209060080201905084816000019081610ca29190612bbc565b50610cab611cb6565b8160010160006101000a81548173ffffffffffffffffffffffffffffffffffffffff021916908373ffffffffffffffffffffffffffffffffffffffff160217905550838160020160006101000a81548173ffffffffffffffffffffffffffffffffffffffff021916908373ffffffffffffffffffffffffffffffffffffffff1602179055508281600301819055508373ffffffffffffffffffffffffffffffffffffffff16610d58611cb6565b73ffffffffffffffffffffffffffffffffffffffff167f74e74d59220b5b4ab0e8d3683d844955d6fb15b01748aa6f3db944d1bdd447318786604051610d9f929190612c8e565b60405180910390a35050505050565b600760009054906101000a900460ff16610dfd576040517f08c379a0000000000000000000000000000000000000000000000000000000008152600401610df490612d0a565b60405180910390fd5b60066000610e09611cb6565b73ffffffffffffffffffffffffffffffffffffffff1673ffffffffffffffffffffffffffffffffffffffff16815260200190815260200160002060009054906101000a900460ff16610e90576040517f08c379a0000000000000000000000000000000000000000000000000000000008152600401610e8790612d76565b60405180910390fd5b6000815111610ed4576040517f08c379a0000000000000000000000000000000000000000000000000000000008152600401610ecb90612e08565b60405180910390fd5b60005b81518110156110a55760066000838381518110610ef757610ef66125b0565b5b602002602001015173ffffffffffffffffffffffffffffffffffffffff1673ffffffffffffffffffffffffffffffffffffffff16815260200190815260200160002060009054906101000a900460ff16611098576005828281518110610f6057610f5f6125b0565b5b60200260200101519080600181540180825580915050600190039060005260206000200160009091909190916101000a81548173ffffffffffffffffffffffffffffffffffffffff021916908373ffffffffffffffffffffffffffffffffffffffff160217905550600160066000848481518110610fe157610fe06125b0565b5b602002602001015173ffffffffffffffffffffffffffffffffffffffff1673ffffffffffffffffffffffffffffffffffffffff16815260200190815260200160002060006101000a81548160ff02191690831515021790555081818151811061104d5761104c6125b0565b5b602002602001015173ffffffffffffffffffffffffffffffffffffffff167f5589a1df7a257347b14b97cb6fe06862c960ff64e9a0c2908632929098bb013060405160405180910390a25b8080600101915050610ed7565b5050565b600a5481565b600881815481106110bf57600080fd5b906000526020600020016000915054906101000a900473ffffffffffffffffffffffffffffffffffffffff1681565b600581815481106110fe57600080fd5b906000526020600020016000915054906101000a900473ffffffffffffffffffffffffffffffffffffffff1681565b60096020528060005260406000206000915090505481565b6000600580549050905090565b600e5481565b60028054611165906128e1565b80601f0160208091040260200160405190810160405280929190818152602001828054611191906128e1565b80156111de5780601f106111b3576101008083540402835291602001916111de565b820191906000526020600020905b8154815290600101906020018083116111c157829003601f168201915b505050505081565b6000600880549050905090565b600b60009054906101000a900460ff1681565b600c818154811061121657600080fd5b9060005260206000209060080201600091509050806000018054611239906128e1565b80601f0160208091040260200160405190810160405280929190818152602001828054611265906128e1565b80156112b25780601f10611287576101008083540402835291602001916112b2565b820191906000526020600020905b81548152906001019060200180831161129557829003601f168201915b5050505050908060010160009054906101000a900473ffffffffffffffffffffffffffffffffffffffff16908060020160009054906101000a900473ffffffffffffffffffffffffffffffffffffffff16908060030154908060040154908060050160009054906101000a900460ff169080600701604051806020016040529081600082015481525050905087565b600d60019054906101000a900460ff1681565b606060058054806020026020016040519081016040528092919081815260200182805480156113d857602002820191906000526020600020905b8160009054906101000a900473ffffffffffffffffffffffffffffffffffffffff1673ffffffffffffffffffffffffffffffffffffffff168152602001906001019080831161138e575b5050505050905090565b600b60009054906101000a900460ff16611431576040517f08c379a000000000000000000000000000000000000000000000000000000000815260040161142890612e9a565b60405180910390fd5b6006600061143d611cb6565b73ffffffffffffffffffffffffffffffffffffffff1673ffffffffffffffffffffffffffffffffffffffff16815260200190815260200160002060009054906101000a900460ff166114c4576040517f08c379a00000000000000000000000000000000000000000000000000000000081526004016114bb90612d76565b60405180910390fd5b8173ffffffffffffffffffffffffffffffffffffffff166108fc829081150290604051600060405180830381858888f1935050505015801561150a573d6000803e3d6000fd5b508173ffffffffffffffffffffffffffffffffffffffff1661152a611cb6565b73ffffffffffffffffffffffffffffffffffffffff167fddf252ad1be2c89b69c2b068fc378daa952ba7f163c4a11628f55a4df523b3ef8360405161156f9190612332565b60405180910390a35050565b600d60009054906101000a900460ff1681565b6060600880548060200260200160405190810160405280929190818152602001828054801561161257602002820191906000526020600020905b8160009054906101000a900473ffffffffffffffffffffffffffffffffffffffff1673ffffffffffffffffffffffffffffffffffffffff16815260200190600101908083116115c8575b5050505050905090565b600047905090565b60045481565b61163a611635611cb6565b611ccc565b565b6000600c8281548110611652576116516125b0565b5b906000526020600020906008020190508060050160009054906101000a900460ff16156116b4576040517f08c379a00000000000000000000000000000000000000000000000000000000081526004016116ab906126e3565b60405180910390fd5b600e546064600a54600960006116c8611cb6565b73ffffffffffffffffffffffffffffffffffffffff1673ffffffffffffffffffffffffffffffffffffffff1681526020019081526020016000205461170d9190612761565b6117179190612792565b10158061178d5750600d60029054906101000a900460ff1615801561178c575060066000611743611cb6565b73ffffffffffffffffffffffffffffffffffffffff1673ffffffffffffffffffffffffffffffffffffffff16815260200190815260200160002060009054906101000a900460ff165b5b6117cc576040517f08c379a00000000000000000000000000000000000000000000000000000000081526004016117c390612f06565b60405180910390fd5b8060060160006117da611cb6565b73ffffffffffffffffffffffffffffffffffffffff1673ffffffffffffffffffffffffffffffffffffffff16815260200190815260200160002060009054906101000a900460ff1615611862576040517f08c379a000000000000000000000000000000000000000000000000000000000815260040161185990612f98565b60405180910390fd5b6001816006016000611872611cb6565b73ffffffffffffffffffffffffffffffffffffffff1673ffffffffffffffffffffffffffffffffffffffff16815260200190815260200160002060006101000a81548160ff0219169083151502179055506118cf81600701611e7a565b6118d7611cb6565b73ffffffffffffffffffffffffffffffffffffffff16827f893b9e35d011bbe15567d0f899b775d6e02d49f62378315a6d25759d3bb1dbcc60405160405180910390a35050565b600760009054906101000a900460ff1661196d576040517f08c379a000000000000000000000000000000000000000000000000000000000815260040161196490613004565b60405180910390fd5b60066000611979611cb6565b73ffffffffffffffffffffffffffffffffffffffff1673ffffffffffffffffffffffffffffffffffffffff16815260200190815260200160002060009054906101000a900460ff16611a00576040517f08c379a00000000000000000000000000000000000000000000000000000000081526004016119f790612d76565b60405180910390fd5b6000611a0a611145565b90506001811180611a405750600d60009054906101000a900460ff168015611a3f5750600d60019054906101000a900460ff16155b5b611a7f576040517f08c379a0000000000000000000000000000000000000000000000000000000008152600401611a7690613096565b60405180910390fd5b600060058381548110611a9557611a946125b0565b5b9060005260206000200160009054906101000a900473ffffffffffffffffffffffffffffffffffffffff169050600660008273ffffffffffffffffffffffffffffffffffffffff1673ffffffffffffffffffffffffffffffffffffffff16815260200190815260200160002060006101000a81549060ff021916905560008390505b60018303811015611bcd5760056001820181548110611b3957611b386125b0565b5b9060005260206000200160009054906101000a900473ffffffffffffffffffffffffffffffffffffffff1660058281548110611b7857611b776125b0565b5b9060005260206000200160006101000a81548173ffffffffffffffffffffffffffffffffffffffff021916908373ffffffffffffffffffffffffffffffffffffffff1602179055508080600101915050611b17565b506005805480611be057611bdf6130b6565b5b6001900381819060005260206000200160006101000a81549073ffffffffffffffffffffffffffffffffffffffff021916905590558073ffffffffffffffffffffffffffffffffffffffff167f1e25ed4cabec84d314dc176241019653f237da01f2bdd3a10cb0f38b33da676360405160405180910390a2505050565b600f5481565b600d60029054906101000a900460ff1681565b60066020528060005260406000206000915054906101000a900460ff1681565b600760009054906101000a900460ff1681565b6000600c80549050905090565b600033905090565b600081600001549050919050565b60003411611d0f576040517f08c379a0000000000000000000000000000000000000000000000000000000008152600401611d0690613157565b60405180910390fd5b6000600960008373ffffffffffffffffffffffffffffffffffffffff1673ffffffffffffffffffffffffffffffffffffffff1681526020019081526020016000205403611dba576008819080600181540180825580915050600190039060005260206000200160009091909190916101000a81548173ffffffffffffffffffffffffffffffffffffffff021916908373ffffffffffffffffffffffffffffffffffffffff1602179055505b34600960008373ffffffffffffffffffffffffffffffffffffffff1673ffffffffffffffffffffffffffffffffffffffff1681526020019081526020016000206000828254611e09919061287e565b9250508190555034600a6000828254611e22919061287e565b925050819055508073ffffffffffffffffffffffffffffffffffffffff167f906faaf913a60f38b5e8f2d6f5b163239bac2d994fa1a5d21751a51587a9405734604051611e6f9190612332565b60405180910390a250565b6001816000016000828254019250508190555050565b600073ffffffffffffffffffffffffffffffffffffffff82169050919050565b6000611ebb82611e90565b9050919050565b611ecb81611eb0565b82525050565b6000602082019050611ee66000830184611ec2565b92915050565b6000604051905090565b600080fd5b600080fd5b6000819050919050565b611f1381611f00565b8114611f1e57600080fd5b50565b600081359050611f3081611f0a565b92915050565b600060208284031215611f4c57611f4b611ef6565b5b6000611f5a84828501611f21565b91505092915050565b600081519050919050565b600082825260208201905092915050565b60005b83811015611f9d578082015181840152602081019050611f82565b60008484015250505050565b6000601f19601f8301169050919050565b6000611fc582611f63565b611fcf8185611f6e565b9350611fdf818560208601611f7f565b611fe881611fa9565b840191505092915050565b6000602082019050818103600083015261200d8184611fba565b905092915050565b61201e81611eb0565b811461202957600080fd5b50565b60008135905061203b81612015565b92915050565b60006020828403121561205757612056611ef6565b5b60006120658482850161202c565b91505092915050565b600080fd5b600080fd5b7f4e487b7100000000000000000000000000000000000000000000000000000000600052604160045260246000fd5b6120b082611fa9565b810181811067ffffffffffffffff821117156120cf576120ce612078565b5b80604052505050565b60006120e2611eec565b90506120ee82826120a7565b919050565b600067ffffffffffffffff82111561210e5761210d612078565b5b61211782611fa9565b9050602081019050919050565b82818337600083830152505050565b6000612146612141846120f3565b6120d8565b90508281526020810184848401111561216257612161612073565b5b61216d848285612124565b509392505050565b600082601f83011261218a5761218961206e565b5b813561219a848260208601612133565b91505092915050565b6000806000606084860312156121bc576121bb611ef6565b5b600084013567ffffffffffffffff8111156121da576121d9611efb565b5b6121e686828701612175565b93505060206121f78682870161202c565b925050604061220886828701611f21565b9150509250925092565b600067ffffffffffffffff82111561222d5761222c612078565b5b602082029050602081019050919050565b600080fd5b600061225661225184612212565b6120d8565b905080838252602082019050602084028301858111156122795761227861223e565b5b835b818110156122a2578061228e888261202c565b84526020840193505060208101905061227b565b5050509392505050565b600082601f8301126122c1576122c061206e565b5b81356122d1848260208601612243565b91505092915050565b6000602082840312156122f0576122ef611ef6565b5b600082013567ffffffffffffffff81111561230e5761230d611efb565b5b61231a848285016122ac565b91505092915050565b61232c81611f00565b82525050565b60006020820190506123476000830184612323565b92915050565b60008115159050919050565b6123628161234d565b82525050565b600060208201905061237d6000830184612359565b92915050565b61238c81611f00565b82525050565b6020820160008201516123a86000850182612383565b50505050565b600060e08201905081810360008301526123c8818a611fba565b90506123d76020830189611ec2565b6123e46040830188611ec2565b6123f16060830187612323565b6123fe6080830186612323565b61240b60a0830185612359565b61241860c0830184612392565b98975050505050505050565b600081519050919050565b600082825260208201905092915050565b6000819050602082019050919050565b61245981611eb0565b82525050565b600061246b8383612450565b60208301905092915050565b6000602082019050919050565b600061248f82612424565b612499818561242f565b93506124a483612440565b8060005b838110156124d55781516124bc888261245f565b97506124c783612477565b9250506001810190506124a8565b5085935050505092915050565b600060208201905081810360008301526124fc8184612484565b905092915050565b6000806040838503121561251b5761251a611ef6565b5b60006125298582860161202c565b925050602061253a85828601611f21565b9150509250929050565b7f5265656e7472616e637947756172643a207265656e7472616e742063616c6c00600082015250565b600061257a601f83611f6e565b915061258582612544565b602082019050919050565b600060208201905081810360008301526125a98161256d565b9050919050565b7f4e487b7100000000000000000000000000000000000000000000000000000000600052603260045260246000fd5b7f596f7520617265206e6f7420746865207065746974696f6e6572206f6620746860008201527f6520726571756573740000000000000000000000000000000000000000000000602082015250565b600061263b602983611f6e565b9150612646826125df565b604082019050919050565b6000602082019050818103600083015261266a8161262e565b9050919050565b7f54686520726571756573742068617320616c7265616479206265656e20636f6d60008201527f706c657465640000000000000000000000000000000000000000000000000000602082015250565b60006126cd602683611f6e565b91506126d882612671565b604082019050919050565b600060208201905081810360008301526126fc816126c0565b9050919050565b7f4e487b7100000000000000000000000000000000000000000000000000000000600052601260045260246000fd5b7f4e487b7100000000000000000000000000000000000000000000000000000000600052601160045260246000fd5b600061276c82611f00565b915061277783611f00565b92508261278757612786612703565b5b828204905092915050565b600061279d82611f00565b91506127a883611f00565b9250817fffffffffffffffffffffffffffffffffffffffffffffffffffffffffffffffff04831182151516156127e1576127e0612732565b5b828202905092915050565b7f546865207265717565737420686173206e6f74206265656e20617070726f766560008201527f6420796574000000000000000000000000000000000000000000000000000000602082015250565b6000612848602583611f6e565b9150612853826127ec565b604082019050919050565b600060208201905081810360008301526128778161283b565b9050919050565b600061288982611f00565b915061289483611f00565b92508282019050808211156128ac576128ab612732565b5b92915050565b7f4e487b7100000000000000000000000000000000000000000000000000000000600052602260045260246000fd5b600060028204905060018216806128f957607f821691505b60208210810361290c5761290b6128b2565b5b50919050565b7f52657175657374732063616e206e6f7420626520637265617465640000000000600082015250565b6000612948601b83611f6e565b915061295382612912565b602082019050919050565b600060208201905081810360008301526129778161293b565b9050919050565b7f4f6e6c79206d616e61676572732063616e20637265617465206120726571756560008201527f7374000000000000000000000000000000000000000000000000000000000000602082015250565b60006129da602283611f6e565b91506129e58261297e565b604082019050919050565b60006020820190508181036000830152612a09816129cd565b9050919050565b60008190508160005260206000209050919050565b60006020601f8301049050919050565b600082821b905092915050565b600060088302612a727fffffffffffffffffffffffffffffffffffffffffffffffffffffffffffffffff82612a35565b612a7c8683612a35565b95508019841693508086168417925050509392505050565b6000819050919050565b6000612ab9612ab4612aaf84611f00565b612a94565b611f00565b9050919050565b6000819050919050565b612ad383612a9e565b612ae7612adf82612ac0565b848454612a42565b825550505050565b600090565b612afc612aef565b612b07818484612aca565b505050565b5b81811015612b2b57612b20600082612af4565b600181019050612b0d565b5050565b601f821115612b7057612b4181612a10565b612b4a84612a25565b81016020851015612b59578190505b612b6d612b6585612a25565b830182612b0c565b50505b505050565b600082821c905092915050565b6000612b9360001984600802612b75565b1980831691505092915050565b6000612bac8383612b82565b9150826002028217905092915050565b612bc582611f63565b67ffffffffffffffff811115612bde57612bdd612078565b5b612be882546128e1565b612bf3828285612b2f565b600060209050601f831160018114612c265760008415612c14578287015190505b612c1e8582612ba0565b865550612c86565b601f198416612c3486612a10565b60005b82811015612c5c57848901518255600182019150602085019450602081019050612c37565b86831015612c795784890151612c75601f891682612b82565b8355505b6001600288020188555050505b505050505050565b60006040820190508181036000830152612ca88185611fba565b9050612cb76020830184612323565b9392505050565b7f4e6577206d616e61676572732063616e206e6f74206265206164646564000000600082015250565b6000612cf4601d83611f6e565b9150612cff82612cbe565b602082019050919050565b60006020820190508181036000830152612d2381612ce7565b9050919050565b7f4f6e6c79206d616e61676572732063616e206163636573730000000000000000600082015250565b6000612d60601883611f6e565b9150612d6b82612d2a565b602082019050919050565b60006020820190508181036000830152612d8f81612d53565b9050919050565b7f596f75206861766520746f2073656e64206f6e65206f72206d6f72652061646460008201527f7265737365730000000000000000000000000000000000000000000000000000602082015250565b6000612df2602683611f6e565b9150612dfd82612d96565b604082019050919050565b60006020820190508181036000830152612e2181612de5565b9050919050565b7f4d616e61676572732063616e206e6f74207472616e73666572206d6f6e65792060008201527f776974686f757420612072657175657374000000000000000000000000000000602082015250565b6000612e84603183611f6e565b9150612e8f82612e28565b604082019050919050565b60006020820190508181036000830152612eb381612e77565b9050919050565b7f596f752063616e206e6f7420617070726f766520612072657175657374000000600082015250565b6000612ef0601d83611f6e565b9150612efb82612eba565b602082019050919050565b60006020820190508181036000830152612f1f81612ee3565b9050919050565b7f596f75206861766520616c726561647920617070726f7665642074686973207260008201527f6571756573740000000000000000000000000000000000000000000000000000602082015250565b6000612f82602683611f6e565b9150612f8d82612f26565b604082019050919050565b60006020820190508181036000830152612fb181612f75565b9050919050565b7f4d616e61676572732063616e206e6f742062652072656d6f7665640000000000600082015250565b6000612fee601b83611f6e565b9150612ff982612fb8565b602082019050919050565b6000602082019050818103600083015261301d81612fe1565b9050919050565b7f546865726520776f756c64206265206e6f2077617920746f207769746864726160008201527f7720746865206d6f6e65792066726f6d2074686520636f6e7472616374000000602082015250565b6000613080603d83611f6e565b915061308b82613024565b604082019050919050565b600060208201905081810360008301526130af81613073565b9050919050565b7f4e487b7100000000000000000000000000000000000000000000000000000000600052603160045260246000fd5b7f54686520636f6e747269627574696f6e206d757374206265206772656174657260008201527f207468616e207a65726f00000000000000000000000000000000000000000000602082015250565b6000613141602a83611f6e565b915061314c826130e5565b604082019050919050565b6000602082019050818103600083015261317081613134565b905091905056fea264697066735822122033d4db27ac570b556a238f2a6fd6563db45493f9f3f9c68cf0b6838623ef635064736f6c63430008100033a264697066735822122096a8c7b0291b238d5db330afc2ee7c2de0b8326ca64cc814c6b5ea02734de2bf64736f6c63430008100033",
  "linkReferences": {},
  "deployedLinkReferences": {}
}