{
  "_format": "hh-sol-artifact-1",
  "contractName": "FundFactory",
  "sourceName": "contracts/FundFactory.sol",
  "abi": [
    {
      "inputs": [
        {
          "internalType": "uint256",
          "name": "_fundTokenPrice",
          "type": "uint256"
        }
      ],
      "stateMutability": "payable",
      "type": "constructor"
    },
    {
      "anonymous": false,
      "inputs": [
        {
          "indexed": true,
          "internalType": "address",
          "name": "buyer",
          "type": "address"
        },
        {
          "indexed": false,
          "internalType": "uint256",
          "name": "fundTokensBuyed",
          "type": "uint256"
        }
      ],
      "name": "FundTokensBuyed",
      "type": "event"
    },
    {
      "anonymous": false,
      "inputs": [
        {
          "indexed": false,
          "internalType": "address",
          "name": "fundAddress",
          "type": "address"
        },
        {
          "indexed": false,
          "internalType": "string",
          "name": "name",
          "type": "string"
        },
        {
          "indexed": false,
          "internalType": "string",
          "name": "description",
          "type": "string"
        },
        {
          "indexed": true,
          "internalType": "address",
          "name": "creator",
          "type": "address"
        },
        {
          "indexed": false,
          "internalType": "uint256",
          "name": "createdAt",
          "type": "uint256"
        }
      ],
      "name": "NewFund",
      "type": "event"
    },
    {
      "anonymous": false,
      "inputs": [
        {
          "indexed": false,
          "internalType": "uint256",
          "name": "fundTokenPrice",
          "type": "uint256"
        }
      ],
      "name": "NewFundTokenPrice",
      "type": "event"
    },
    {
      "anonymous": false,
      "inputs": [
        {
          "indexed": true,
          "internalType": "address",
          "name": "previousOwner",
          "type": "address"
        },
        {
          "indexed": true,
          "internalType": "address",
          "name": "newOwner",
          "type": "address"
        }
      ],
      "name": "OwnershipTransferred",
      "type": "event"
    },
    {
      "inputs": [
        {
          "internalType": "uint256",
          "name": "_fundTokens",
          "type": "uint256"
        }
      ],
      "name": "buyFundTokens",
      "outputs": [],
      "stateMutability": "payable",
      "type": "function"
    },
    {
      "inputs": [
        {
          "internalType": "uint256",
          "name": "_newFundTokenPrice",
          "type": "uint256"
        }
      ],
      "name": "changeFundTokenPrice",
      "outputs": [],
      "stateMutability": "nonpayable",
      "type": "function"
    },
    {
      "inputs": [
        {
          "internalType": "string",
          "name": "_name",
          "type": "string"
        },
        {
          "internalType": "string",
          "name": "_description",
          "type": "string"
        },
        {
          "internalType": "address[]",
          "name": "_managers",
          "type": "address[]"
        },
        {
          "internalType": "bool",
          "name": "_managersCanBeAddedOrRemoved",
          "type": "bool"
        },
        {
          "internalType": "bool",
          "name": "_managersCanTransferMoneyWithoutARequest",
          "type": "bool"
        },
        {
          "internalType": "bool",
          "name": "_requestsCanBeCreated",
          "type": "bool"
        },
        {
          "internalType": "bool",
          "name": "_onlyManagersCanCreateARequest",
          "type": "bool"
        },
        {
          "internalType": "bool",
          "name": "_onlyContributorsCanApproveARequest",
          "type": "bool"
        },
        {
          "internalType": "uint256",
          "name": "_minimumContributionPercentageRequired",
          "type": "uint256"
        },
        {
          "internalType": "uint256",
          "name": "_minimumApprovalsPercentageRequired",
          "type": "uint256"
        }
      ],
      "name": "createFund",
      "outputs": [],
      "stateMutability": "nonpayable",
      "type": "function"
    },
    {
      "inputs": [],
      "name": "createFundPrice",
      "outputs": [
        {
          "internalType": "uint256",
          "name": "",
          "type": "uint256"
        }
      ],
      "stateMutability": "view",
      "type": "function"
    },
    {
      "inputs": [
        {
          "internalType": "uint256",
          "name": "",
          "type": "uint256"
        }
      ],
      "name": "deployedFunds",
      "outputs": [
        {
          "internalType": "contract Fund",
          "name": "",
          "type": "address"
        }
      ],
      "stateMutability": "view",
      "type": "function"
    },
    {
      "inputs": [],
      "name": "fundToken",
      "outputs": [
        {
          "internalType": "contract FundToken",
          "name": "",
          "type": "address"
        }
      ],
      "stateMutability": "view",
      "type": "function"
    },
    {
      "inputs": [],
      "name": "fundTokenPrice",
      "outputs": [
        {
          "internalType": "uint256",
          "name": "",
          "type": "uint256"
        }
      ],
      "stateMutability": "view",
      "type": "function"
    },
    {
      "inputs": [],
      "name": "getDeployedFunds",
      "outputs": [
        {
          "internalType": "contract Fund[]",
          "name": "",
          "type": "address[]"
        }
      ],
      "stateMutability": "view",
      "type": "function"
    },
    {
      "inputs": [],
      "name": "getDeployedFundsCount",
      "outputs": [
        {
          "internalType": "uint256",
          "name": "",
          "type": "uint256"
        }
      ],
      "stateMutability": "view",
      "type": "function"
    },
    {
      "inputs": [],
      "name": "owner",
      "outputs": [
        {
          "internalType": "address",
          "name": "",
          "type": "address"
        }
      ],
      "stateMutability": "view",
      "type": "function"
    },
    {
      "inputs": [],
      "name": "renounceOwnership",
      "outputs": [],
      "stateMutability": "nonpayable",
      "type": "function"
    },
    {
      "inputs": [
        {
          "internalType": "address",
          "name": "newOwner",
          "type": "address"
        }
      ],
      "name": "transferOwnership",
      "outputs": [],
      "stateMutability": "nonpayable",
      "type": "function"
    },
    {
      "inputs": [],
      "name": "withdrawMoney",
      "outputs": [],
      "stateMutability": "nonpayable",
      "type": "function"
    }
  ],
  "bytecode": "0x60a0604052604051620077c1380380620077c18339818101604052810190620000299190620001d0565b620000496200003d620000b660201b60201c565b620000be60201b60201c565b604051620000579062000182565b604051809103906000f08015801562000074573d6000803e3d6000fd5b5073ffffffffffffffffffffffffffffffffffffffff1660808173ffffffffffffffffffffffffffffffffffffffff1681525050806001819055505062000202565b600033905090565b60008060009054906101000a900473ffffffffffffffffffffffffffffffffffffffff169050816000806101000a81548173ffffffffffffffffffffffffffffffffffffffff021916908373ffffffffffffffffffffffffffffffffffffffff1602179055508173ffffffffffffffffffffffffffffffffffffffff168173ffffffffffffffffffffffffffffffffffffffff167f8be0079c531659141344cd1fd0a4f28419497f9722a3daafe3b4186f6b6457e060405160405180910390a35050565b612064806200575d83390190565b600080fd5b6000819050919050565b620001aa8162000195565b8114620001b657600080fd5b50565b600081519050620001ca816200019f565b92915050565b600060208284031215620001e957620001e862000190565b5b6000620001f984828501620001b9565b91505092915050565b6080516155316200022c6000396000818161032201528181610612015261086301526155316000f3fe608060405260043610620000d45760003560e01c80639a068bd6116200008b578063e1a3db151162000061578063e1a3db15146200026f578063e700c76f146200029f578063f2fde38b14620002cd578063fd62a55f14620002fb57620000d4565b80639a068bd614620001e3578063ac4460021462000227578063cfb35b3b146200024157620000d4565b8063027d3f3514620000d957806350adcdb7146200010957806354d8a5bd1462000139578063578007361462000169578063715018a614620001995780638da5cb5b14620001b3575b600080fd5b348015620000e657600080fd5b50620000f16200031b565b60405162000100919062000ac3565b60405180910390f35b3480156200011657600080fd5b506200012162000320565b60405162000130919062000b6b565b60405180910390f35b3480156200014657600080fd5b506200015162000344565b60405162000160919062000c6a565b60405180910390f35b3480156200017657600080fd5b5062000181620003d4565b60405162000190919062000ac3565b60405180910390f35b348015620001a657600080fd5b50620001b1620003da565b005b348015620001c057600080fd5b50620001cb620003f2565b604051620001da919062000cb3565b60405180910390f35b348015620001f057600080fd5b506200020f600480360381019062000209919062000d15565b6200041b565b6040516200021e919062000d58565b60405180910390f35b3480156200023457600080fd5b506200023f6200045b565b005b3480156200024e57600080fd5b506200026d600480360381019062000267919062000d15565b620004b8565b005b3480156200027c57600080fd5b506200028762000505565b60405162000296919062000ac3565b60405180910390f35b348015620002ac57600080fd5b50620002cb6004803603810190620002c5919062001020565b62000512565b005b348015620002da57600080fd5b50620002f96004803603810190620002f3919062001173565b620007b9565b005b62000319600480360381019062000313919062000d15565b62000843565b005b600181565b7f000000000000000000000000000000000000000000000000000000000000000081565b60606002805480602002602001604051908101604052809291908181526020018280548015620003ca57602002820191906000526020600020905b8160009054906101000a900473ffffffffffffffffffffffffffffffffffffffff1673ffffffffffffffffffffffffffffffffffffffff16815260200190600101908083116200037f575b5050505050905090565b60015481565b620003e462000949565b620003f06000620009ce565b565b60008060009054906101000a900473ffffffffffffffffffffffffffffffffffffffff16905090565b600281815481106200042c57600080fd5b906000526020600020016000915054906101000a900473ffffffffffffffffffffffffffffffffffffffff1681565b6200046562000949565b6200046f620003f2565b73ffffffffffffffffffffffffffffffffffffffff166108fc479081150290604051600060405180830381858888f19350505050158015620004b5573d6000803e3d6000fd5b50565b620004c262000949565b806001819055507f6fa7d30ebcf61d14f9af3a7c1bac55aa0088eb2e6a1f966a94c413305a6ece3881604051620004fa919062000ac3565b60405180910390a150565b6000600280549050905090565b85801562000521575060008851115b8062000542575084801562000541575083158062000540575060008851115b5b5b62000584576040517f08c379a00000000000000000000000000000000000000000000000000000000081526004016200057b906200122c565b60405180910390fd5b60658210620005ca576040517f08c379a0000000000000000000000000000000000000000000000000000000008152600401620005c190620012c4565b60405180910390fd5b6065811062000610576040517f08c379a0000000000000000000000000000000000000000000000000000000008152600401620006079062001336565b60405180910390fd5b7f000000000000000000000000000000000000000000000000000000000000000073ffffffffffffffffffffffffffffffffffffffff16639dc29fac3360016040518363ffffffff1660e01b81526004016200066e92919062001358565b600060405180830381600087803b1580156200068957600080fd5b505af11580156200069e573d6000803e3d6000fd5b5050505060008a8a338b8b8b8b8b8b8b8b604051620006bd9062000a9a565b620006d39b9a99989796959493929190620014cb565b604051809103906000f080158015620006f0573d6000803e3d6000fd5b5090506002819080600181540180825580915050600190039060005260206000200160009091909190916101000a81548173ffffffffffffffffffffffffffffffffffffffff021916908373ffffffffffffffffffffffffffffffffffffffff1602179055503373ffffffffffffffffffffffffffffffffffffffff167f975acefdd82f1279538413ef162fe63aa946d55a2a85f35b27c3e01cb9b9fb6e828d8d42604051620007a49493929190620015a1565b60405180910390a25050505050505050505050565b620007c362000949565b600073ffffffffffffffffffffffffffffffffffffffff168173ffffffffffffffffffffffffffffffffffffffff160362000835576040517f08c379a00000000000000000000000000000000000000000000000000000000081526004016200082c9062001672565b60405180910390fd5b6200084081620009ce565b50565b60015481620008539190620016c3565b34146200085f57600080fd5b60007f000000000000000000000000000000000000000000000000000000000000000090508073ffffffffffffffffffffffffffffffffffffffff166340c10f1933846040518363ffffffff1660e01b8152600401620008c192919062001358565b600060405180830381600087803b158015620008dc57600080fd5b505af1158015620008f1573d6000803e3d6000fd5b505050503373ffffffffffffffffffffffffffffffffffffffff167f01207270c71c4b235b841cf2c801085b37fde1f88d272f5bbe17f821cbb5179d836040516200093d919062000ac3565b60405180910390a25050565b6200095362000a92565b73ffffffffffffffffffffffffffffffffffffffff1662000973620003f2565b73ffffffffffffffffffffffffffffffffffffffff1614620009cc576040517f08c379a0000000000000000000000000000000000000000000000000000000008152600401620009c39062001774565b60405180910390fd5b565b60008060009054906101000a900473ffffffffffffffffffffffffffffffffffffffff169050816000806101000a81548173ffffffffffffffffffffffffffffffffffffffff021916908373ffffffffffffffffffffffffffffffffffffffff1602179055508173ffffffffffffffffffffffffffffffffffffffff168173ffffffffffffffffffffffffffffffffffffffff167f8be0079c531659141344cd1fd0a4f28419497f9722a3daafe3b4186f6b6457e060405160405180910390a35050565b600033905090565b613d65806200179783390190565b6000819050919050565b62000abd8162000aa8565b82525050565b600060208201905062000ada600083018462000ab2565b92915050565b600073ffffffffffffffffffffffffffffffffffffffff82169050919050565b6000819050919050565b600062000b2b62000b2562000b1f8462000ae0565b62000b00565b62000ae0565b9050919050565b600062000b3f8262000b0a565b9050919050565b600062000b538262000b32565b9050919050565b62000b658162000b46565b82525050565b600060208201905062000b82600083018462000b5a565b92915050565b600081519050919050565b600082825260208201905092915050565b6000819050602082019050919050565b600062000bc18262000b32565b9050919050565b62000bd38162000bb4565b82525050565b600062000be7838362000bc8565b60208301905092915050565b6000602082019050919050565b600062000c0d8262000b88565b62000c19818562000b93565b935062000c268362000ba4565b8060005b8381101562000c5d57815162000c41888262000bd9565b975062000c4e8362000bf3565b92505060018101905062000c2a565b5085935050505092915050565b6000602082019050818103600083015262000c86818462000c00565b905092915050565b600062000c9b8262000ae0565b9050919050565b62000cad8162000c8e565b82525050565b600060208201905062000cca600083018462000ca2565b92915050565b6000604051905090565b600080fd5b600080fd5b62000cef8162000aa8565b811462000cfb57600080fd5b50565b60008135905062000d0f8162000ce4565b92915050565b60006020828403121562000d2e5762000d2d62000cda565b5b600062000d3e8482850162000cfe565b91505092915050565b62000d528162000bb4565b82525050565b600060208201905062000d6f600083018462000d47565b92915050565b600080fd5b600080fd5b6000601f19601f8301169050919050565b7f4e487b7100000000000000000000000000000000000000000000000000000000600052604160045260246000fd5b62000dca8262000d7f565b810181811067ffffffffffffffff8211171562000dec5762000deb62000d90565b5b80604052505050565b600062000e0162000cd0565b905062000e0f828262000dbf565b919050565b600067ffffffffffffffff82111562000e325762000e3162000d90565b5b62000e3d8262000d7f565b9050602081019050919050565b82818337600083830152505050565b600062000e7062000e6a8462000e14565b62000df5565b90508281526020810184848401111562000e8f5762000e8e62000d7a565b5b62000e9c84828562000e4a565b509392505050565b600082601f83011262000ebc5762000ebb62000d75565b5b813562000ece84826020860162000e59565b91505092915050565b600067ffffffffffffffff82111562000ef55762000ef462000d90565b5b602082029050602081019050919050565b600080fd5b62000f168162000c8e565b811462000f2257600080fd5b50565b60008135905062000f368162000f0b565b92915050565b600062000f5362000f4d8462000ed7565b62000df5565b9050808382526020820190506020840283018581111562000f795762000f7862000f06565b5b835b8181101562000fa6578062000f91888262000f25565b84526020840193505060208101905062000f7b565b5050509392505050565b600082601f83011262000fc85762000fc762000d75565b5b813562000fda84826020860162000f3c565b91505092915050565b60008115159050919050565b62000ffa8162000fe3565b81146200100657600080fd5b50565b6000813590506200101a8162000fef565b92915050565b6000806000806000806000806000806101408b8d03121562001047576200104662000cda565b5b60008b013567ffffffffffffffff81111562001068576200106762000cdf565b5b620010768d828e0162000ea4565b9a505060208b013567ffffffffffffffff8111156200109a576200109962000cdf565b5b620010a88d828e0162000ea4565b99505060408b013567ffffffffffffffff811115620010cc57620010cb62000cdf565b5b620010da8d828e0162000fb0565b9850506060620010ed8d828e0162001009565b9750506080620011008d828e0162001009565b96505060a0620011138d828e0162001009565b95505060c0620011268d828e0162001009565b94505060e0620011398d828e0162001009565b9350506101006200114d8d828e0162000cfe565b925050610120620011618d828e0162000cfe565b9150509295989b9194979a5092959850565b6000602082840312156200118c576200118b62000cda565b5b60006200119c8482850162000f25565b91505092915050565b600082825260208201905092915050565b7f546865726520776f756c64206265206e6f2077617920746f207769746864726160008201527f7720746865206d6f6e65792066726f6d2074686520636f6e7472616374000000602082015250565b600062001214603d83620011a5565b91506200122182620011b6565b604082019050919050565b60006020820190508181036000830152620012478162001205565b9050919050565b7f496e636f727265637420636f6e747269627574696f6e2070657263656e74616760008201527f6500000000000000000000000000000000000000000000000000000000000000602082015250565b6000620012ac602183620011a5565b9150620012b9826200124e565b604082019050919050565b60006020820190508181036000830152620012df816200129d565b9050919050565b7f496e636f727265637420617070726f76616c732070657263656e746167650000600082015250565b60006200131e601e83620011a5565b91506200132b82620012e6565b602082019050919050565b6000602082019050818103600083015262001351816200130f565b9050919050565b60006040820190506200136f600083018562000ca2565b6200137e602083018462000ab2565b9392505050565b600081519050919050565b60005b83811015620013b057808201518184015260208101905062001393565b60008484015250505050565b6000620013c98262001385565b620013d58185620011a5565b9350620013e781856020860162001390565b620013f28162000d7f565b840191505092915050565b600081519050919050565b6000819050602082019050919050565b620014238162000c8e565b82525050565b600062001437838362001418565b60208301905092915050565b6000602082019050919050565b60006200145d82620013fd565b62001469818562000b93565b9350620014768362001408565b8060005b83811015620014ad57815162001491888262001429565b97506200149e8362001443565b9250506001810190506200147a565b5085935050505092915050565b620014c58162000fe3565b82525050565b6000610160820190508181036000830152620014e8818e620013bc565b90508181036020830152620014fe818d620013bc565b90506200150f604083018c62000ca2565b818103606083015262001523818b62001450565b905062001534608083018a620014ba565b6200154360a0830189620014ba565b6200155260c0830188620014ba565b6200156160e0830187620014ba565b62001571610100830186620014ba565b6200158161012083018562000ab2565b6200159161014083018462000ab2565b9c9b505050505050505050505050565b6000608082019050620015b8600083018762000ca2565b8181036020830152620015cc8186620013bc565b90508181036040830152620015e28185620013bc565b9050620015f3606083018462000ab2565b95945050505050565b7f4f776e61626c653a206e6577206f776e657220697320746865207a65726f206160008201527f6464726573730000000000000000000000000000000000000000000000000000602082015250565b60006200165a602683620011a5565b91506200166782620015fc565b604082019050919050565b600060208201905081810360008301526200168d816200164b565b9050919050565b7f4e487b7100000000000000000000000000000000000000000000000000000000600052601160045260246000fd5b6000620016d08262000aa8565b9150620016dd8362000aa8565b9250817fffffffffffffffffffffffffffffffffffffffffffffffffffffffffffffffff048311821515161562001719576200171862001694565b5b828202905092915050565b7f4f776e61626c653a2063616c6c6572206973206e6f7420746865206f776e6572600082015250565b60006200175c602083620011a5565b9150620017698262001724565b602082019050919050565b600060208201905081810360008301526200178f816200174d565b905091905056fe6101a06040524260a0908152503480156200001957600080fd5b5060405162003d6538038062003d6583398181016040528101906200003f919062000513565b60016000819055508a60019081620000589190620008be565b5089600290816200006a9190620008be565b508873ffffffffffffffffffffffffffffffffffffffff1660808173ffffffffffffffffffffffffffffffffffffffff16815250508760039080519060200190620000b79291906200011a565b5086151560c08115158152505085151560e0811515815250508415156101008115158152505083151561012081151581525050821515610140811515815250508161016081815250508061018081815250505050505050505050505050620009a5565b82805482825590600052602060002090810192821562000196579160200282015b82811115620001955782518260006101000a81548173ffffffffffffffffffffffffffffffffffffffff021916908373ffffffffffffffffffffffffffffffffffffffff160217905550916020019190600101906200013b565b5b509050620001a59190620001a9565b5090565b5b80821115620001c4576000816000905550600101620001aa565b5090565b6000604051905090565b600080fd5b600080fd5b600080fd5b600080fd5b6000601f19601f8301169050919050565b7f4e487b7100000000000000000000000000000000000000000000000000000000600052604160045260246000fd5b6200023182620001e6565b810181811067ffffffffffffffff82111715620002535762000252620001f7565b5b80604052505050565b600062000268620001c8565b905062000276828262000226565b919050565b600067ffffffffffffffff821115620002995762000298620001f7565b5b620002a482620001e6565b9050602081019050919050565b60005b83811015620002d1578082015181840152602081019050620002b4565b60008484015250505050565b6000620002f4620002ee846200027b565b6200025c565b905082815260208101848484011115620003135762000312620001e1565b5b62000320848285620002b1565b509392505050565b600082601f83011262000340576200033f620001dc565b5b815162000352848260208601620002dd565b91505092915050565b600073ffffffffffffffffffffffffffffffffffffffff82169050919050565b600062000388826200035b565b9050919050565b6200039a816200037b565b8114620003a657600080fd5b50565b600081519050620003ba816200038f565b92915050565b600067ffffffffffffffff821115620003de57620003dd620001f7565b5b602082029050602081019050919050565b600080fd5b60006200040b6200040584620003c0565b6200025c565b90508083825260208201905060208402830185811115620004315762000430620003ef565b5b835b818110156200045e5780620004498882620003a9565b84526020840193505060208101905062000433565b5050509392505050565b600082601f83011262000480576200047f620001dc565b5b815162000492848260208601620003f4565b91505092915050565b60008115159050919050565b620004b2816200049b565b8114620004be57600080fd5b50565b600081519050620004d281620004a7565b92915050565b6000819050919050565b620004ed81620004d8565b8114620004f957600080fd5b50565b6000815190506200050d81620004e2565b92915050565b60008060008060008060008060008060006101608c8e0312156200053c576200053b620001d2565b5b60008c015167ffffffffffffffff8111156200055d576200055c620001d7565b5b6200056b8e828f0162000328565b9b505060208c015167ffffffffffffffff8111156200058f576200058e620001d7565b5b6200059d8e828f0162000328565b9a50506040620005b08e828f01620003a9565b99505060608c015167ffffffffffffffff811115620005d457620005d3620001d7565b5b620005e28e828f0162000468565b9850506080620005f58e828f01620004c1565b97505060a0620006088e828f01620004c1565b96505060c06200061b8e828f01620004c1565b95505060e06200062e8e828f01620004c1565b945050610100620006428e828f01620004c1565b935050610120620006568e828f01620004fc565b9250506101406200066a8e828f01620004fc565b9150509295989b509295989b9093969950565b600081519050919050565b7f4e487b7100000000000000000000000000000000000000000000000000000000600052602260045260246000fd5b60006002820490506001821680620006d057607f821691505b602082108103620006e657620006e562000688565b5b50919050565b60008190508160005260206000209050919050565b60006020601f8301049050919050565b600082821b905092915050565b600060088302620007507fffffffffffffffffffffffffffffffffffffffffffffffffffffffffffffffff8262000711565b6200075c868362000711565b95508019841693508086168417925050509392505050565b6000819050919050565b60006200079f620007996200079384620004d8565b62000774565b620004d8565b9050919050565b6000819050919050565b620007bb836200077e565b620007d3620007ca82620007a6565b8484546200071e565b825550505050565b600090565b620007ea620007db565b620007f7818484620007b0565b505050565b5b818110156200081f5762000813600082620007e0565b600181019050620007fd565b5050565b601f8211156200086e576200083881620006ec565b620008438462000701565b8101602085101562000853578190505b6200086b620008628562000701565b830182620007fc565b50505b505050565b600082821c905092915050565b6000620008936000198460080262000873565b1980831691505092915050565b6000620008ae838362000880565b9150826002028217905092915050565b620008c9826200067d565b67ffffffffffffffff811115620008e557620008e4620001f7565b5b620008f18254620006b7565b620008fe82828562000823565b600060209050601f83116001811462000936576000841562000921578287015190505b6200092d8582620008a0565b8655506200099d565b601f1984166200094686620006ec565b60005b82811015620009705784890151825560018201915060208501945060208101905062000949565b868310156200099057848901516200098c601f89168262000880565b8355505b6001600288020188555050505b505050505050565b60805160a05160c05160e05161010051610120516101405161016051610180516132f462000a71600039600081816108d90152818161096a0152611d6e0152600081816111c0015261178d0152600081816108b30152818161180f0152611d92015260008181610c4d01528181610c75015281816113de0152611b2d015260008181610b9c0152818161162c0152611b0501526000818161127f0152611490015260008181610e1201528181611a030152611dd6015260006116e60152600061073801526132f46000f3fe6080604052600436106101d85760003560e01c806381d12c5811610102578063d7bb99ba11610095578063ecbff6e711610064578063ecbff6e714610678578063f3ae2415146106a3578063fa68b631146106e0578063fbfa4b7f1461070b576101d8565b8063d7bb99ba146105f1578063d7d1bbdb146105fb578063d8247ee714610624578063db2d78b11461064d576101d8565b8063aa9cfc50116100d1578063aa9cfc5014610545578063af157c1914610570578063b69ef8a81461059b578063cf09e0d0146105c6576101d8565b806381d12c58146104835780638a20bc37146104c6578063a8d088bb146104f1578063a9059cbb1461051c576101d8565b80633cb5d1001161017a578063691c754511610149578063691c7545146103d75780637284e416146104025780637569b3d71461042d5780638175f2c714610458576101d8565b80633cb5d100146102f55780633d39c2601461033257806342e94c901461036f5780636308ae65146103ac576101d8565b806310718655116101b6578063107186551461025c5780631b16bb5c146102785780632dde0013146102a157806337c08923146102ca576101d8565b806302d05d3f146101dd578063034410061461020857806306fdde0314610231575b600080fd5b3480156101e957600080fd5b506101f2610736565b6040516101ff9190612018565b60405180910390f35b34801561021457600080fd5b5061022f600480360381019061022a919061207d565b61075a565b005b34801561023d57600080fd5b50610246610b00565b604051610253919061213a565b60405180910390f35b61027660048036038101906102719190612188565b610b8e565b005b34801561028457600080fd5b5061029f600480360381019061029a91906122ea565b610b9a565b005b3480156102ad57600080fd5b506102c860048036038101906102c39190612421565b610e10565b005b3480156102d657600080fd5b506102df611115565b6040516102ec9190612479565b60405180910390f35b34801561030157600080fd5b5061031c6004803603810190610317919061207d565b61111b565b6040516103299190612018565b60405180910390f35b34801561033e57600080fd5b506103596004803603810190610354919061207d565b61115a565b6040516103669190612018565b60405180910390f35b34801561037b57600080fd5b5061039660048036038101906103919190612188565b611199565b6040516103a39190612479565b60405180910390f35b3480156103b857600080fd5b506103c16111b1565b6040516103ce9190612479565b60405180910390f35b3480156103e357600080fd5b506103ec6111be565b6040516103f99190612479565b60405180910390f35b34801561040e57600080fd5b506104176111e2565b604051610424919061213a565b60405180910390f35b34801561043957600080fd5b50610442611270565b60405161044f9190612479565b60405180910390f35b34801561046457600080fd5b5061046d61127d565b60405161047a91906124af565b60405180910390f35b34801561048f57600080fd5b506104aa60048036038101906104a5919061207d565b6112a1565b6040516104bd97969594939291906124f5565b60405180910390f35b3480156104d257600080fd5b506104db6113dc565b6040516104e891906124af565b60405180910390f35b3480156104fd57600080fd5b50610506611400565b6040516105139190612629565b60405180910390f35b34801561052857600080fd5b50610543600480360381019061053e919061264b565b61148e565b005b34801561055157600080fd5b5061055a61162a565b60405161056791906124af565b60405180910390f35b34801561057c57600080fd5b5061058561164e565b6040516105929190612629565b60405180910390f35b3480156105a757600080fd5b506105b06116dc565b6040516105bd9190612479565b60405180910390f35b3480156105d257600080fd5b506105db6116e4565b6040516105e89190612479565b60405180910390f35b6105f9611708565b005b34801561060757600080fd5b50610622600480360381019061061d919061207d565b611713565b005b34801561063057600080fd5b5061064b6004803603810190610646919061207d565b611a01565b005b34801561065957600080fd5b50610662611d6c565b60405161066f9190612479565b60405180910390f35b34801561068457600080fd5b5061068d611d90565b60405161069a91906124af565b60405180910390f35b3480156106af57600080fd5b506106ca60048036038101906106c59190612188565b611db4565b6040516106d791906124af565b60405180910390f35b3480156106ec57600080fd5b506106f5611dd4565b60405161070291906124af565b60405180910390f35b34801561071757600080fd5b50610720611df8565b60405161072d9190612479565b60405180910390f35b7f000000000000000000000000000000000000000000000000000000000000000081565b60026000540361079f576040517f08c379a0000000000000000000000000000000000000000000000000000000008152600401610796906126d7565b60405180910390fd5b60026000819055506000600882815481106107bd576107bc6126f7565b5b906000526020600020906008020190503373ffffffffffffffffffffffffffffffffffffffff168160010160009054906101000a900473ffffffffffffffffffffffffffffffffffffffff1673ffffffffffffffffffffffffffffffffffffffff161461085f576040517f08c379a000000000000000000000000000000000000000000000000000000000815260040161085690612798565b60405180910390fd5b8060050160009054906101000a900460ff16156108b1576040517f08c379a00000000000000000000000000000000000000000000000000000000081526004016108a89061282a565b60405180910390fd5b7f000000000000000000000000000000000000000000000000000000000000000015610968577f00000000000000000000000000000000000000000000000000000000000000006064610902611270565b61090e84600701611e05565b61091891906128a8565b61092291906128d9565b1015610963576040517f08c379a000000000000000000000000000000000000000000000000000000000815260040161095a906129a5565b60405180910390fd5b610a07565b7f00000000000000000000000000000000000000000000000000000000000000006064610993611270565b61099b6111b1565b6109a591906129c5565b6109b184600701611e05565b6109bb91906128a8565b6109c591906128d9565b1015610a06576040517f08c379a00000000000000000000000000000000000000000000000000000000081526004016109fd906129a5565b60405180910390fd5b5b600081600301549050610a186116dc565b811115610a2a57610a276116dc565b90505b8160020160009054906101000a900473ffffffffffffffffffffffffffffffffffffffff1673ffffffffffffffffffffffffffffffffffffffff166108fc829081150290604051600060405180830381858888f19350505050158015610a94573d6000803e3d6000fd5b5080826004018190555060018260050160006101000a81548160ff021916908315150217905550827f2a26d55234ae45d40d3bdfd1893cf58ff7c2bb1c8089d97ed73879054778458c82604051610aeb9190612479565b60405180910390a25050600160008190555050565b60018054610b0d90612a28565b80601f0160208091040260200160405190810160405280929190818152602001828054610b3990612a28565b8015610b865780601f10610b5b57610100808354040283529160200191610b86565b820191906000526020600020905b815481529060010190602001808311610b6957829003601f168201915b505050505081565b610b9781611e13565b50565b7f0000000000000000000000000000000000000000000000000000000000000000610bfa576040517f08c379a0000000000000000000000000000000000000000000000000000000008152600401610bf190612aa5565b60405180910390fd5b6000600460003373ffffffffffffffffffffffffffffffffffffffff1673ffffffffffffffffffffffffffffffffffffffff16815260200190815260200160002060009054906101000a900460ff1690507f00000000000000000000000000000000000000000000000000000000000000001580610c9e57507f00000000000000000000000000000000000000000000000000000000000000008015610c9d5750805b5b610cdd576040517f08c379a0000000000000000000000000000000000000000000000000000000008152600401610cd490612b37565b60405180910390fd5b60006008600181600181540180825580915050039060005260206000209060080201905084816000019081610d129190612d03565b50338160010160006101000a81548173ffffffffffffffffffffffffffffffffffffffff021916908373ffffffffffffffffffffffffffffffffffffffff160217905550838160020160006101000a81548173ffffffffffffffffffffffffffffffffffffffff021916908373ffffffffffffffffffffffffffffffffffffffff1602179055508281600301819055508373ffffffffffffffffffffffffffffffffffffffff163373ffffffffffffffffffffffffffffffffffffffff167f74e74d59220b5b4ab0e8d3683d844955d6fb15b01748aa6f3db944d1bdd447318786604051610e01929190612dd5565b60405180910390a35050505050565b7f0000000000000000000000000000000000000000000000000000000000000000610e70576040517f08c379a0000000000000000000000000000000000000000000000000000000008152600401610e6790612e51565b60405180910390fd5b600460003373ffffffffffffffffffffffffffffffffffffffff1673ffffffffffffffffffffffffffffffffffffffff16815260200190815260200160002060009054906101000a900460ff16610efc576040517f08c379a0000000000000000000000000000000000000000000000000000000008152600401610ef390612ebd565b60405180910390fd5b6000815111610f40576040517f08c379a0000000000000000000000000000000000000000000000000000000008152600401610f3790612f4f565b60405180910390fd5b60005b81518110156111115760046000838381518110610f6357610f626126f7565b5b602002602001015173ffffffffffffffffffffffffffffffffffffffff1673ffffffffffffffffffffffffffffffffffffffff16815260200190815260200160002060009054906101000a900460ff16611104576003828281518110610fcc57610fcb6126f7565b5b60200260200101519080600181540180825580915050600190039060005260206000200160009091909190916101000a81548173ffffffffffffffffffffffffffffffffffffffff021916908373ffffffffffffffffffffffffffffffffffffffff16021790555060016004600084848151811061104d5761104c6126f7565b5b602002602001015173ffffffffffffffffffffffffffffffffffffffff1673ffffffffffffffffffffffffffffffffffffffff16815260200190815260200160002060006101000a81548160ff0219169083151502179055508181815181106110b9576110b86126f7565b5b602002602001015173ffffffffffffffffffffffffffffffffffffffff167f5589a1df7a257347b14b97cb6fe06862c960ff64e9a0c2908632929098bb013060405160405180910390a25b8080600101915050610f43565b5050565b60075481565b6005818154811061112b57600080fd5b906000526020600020016000915054906101000a900473ffffffffffffffffffffffffffffffffffffffff1681565b6003818154811061116a57600080fd5b906000526020600020016000915054906101000a900473ffffffffffffffffffffffffffffffffffffffff1681565b60066020528060005260406000206000915090505481565b6000600380549050905090565b7f000000000000000000000000000000000000000000000000000000000000000081565b600280546111ef90612a28565b80601f016020809104026020016040519081016040528092919081815260200182805461121b90612a28565b80156112685780601f1061123d57610100808354040283529160200191611268565b820191906000526020600020905b81548152906001019060200180831161124b57829003601f168201915b505050505081565b6000600580549050905090565b7f000000000000000000000000000000000000000000000000000000000000000081565b600881815481106112b157600080fd5b90600052602060002090600802016000915090508060000180546112d490612a28565b80601f016020809104026020016040519081016040528092919081815260200182805461130090612a28565b801561134d5780601f106113225761010080835404028352916020019161134d565b820191906000526020600020905b81548152906001019060200180831161133057829003601f168201915b5050505050908060010160009054906101000a900473ffffffffffffffffffffffffffffffffffffffff16908060020160009054906101000a900473ffffffffffffffffffffffffffffffffffffffff16908060030154908060040154908060050160009054906101000a900460ff169080600701604051806020016040529081600082015481525050905087565b7f000000000000000000000000000000000000000000000000000000000000000081565b6060600380548060200260200160405190810160405280929190818152602001828054801561148457602002820191906000526020600020905b8160009054906101000a900473ffffffffffffffffffffffffffffffffffffffff1673ffffffffffffffffffffffffffffffffffffffff168152602001906001019080831161143a575b5050505050905090565b7f00000000000000000000000000000000000000000000000000000000000000006114ee576040517f08c379a00000000000000000000000000000000000000000000000000000000081526004016114e590612fe1565b60405180910390fd5b600460003373ffffffffffffffffffffffffffffffffffffffff1673ffffffffffffffffffffffffffffffffffffffff16815260200190815260200160002060009054906101000a900460ff1661157a576040517f08c379a000000000000000000000000000000000000000000000000000000000815260040161157190612ebd565b60405180910390fd5b8173ffffffffffffffffffffffffffffffffffffffff166108fc829081150290604051600060405180830381858888f193505050501580156115c0573d6000803e3d6000fd5b508173ffffffffffffffffffffffffffffffffffffffff163373ffffffffffffffffffffffffffffffffffffffff167fddf252ad1be2c89b69c2b068fc378daa952ba7f163c4a11628f55a4df523b3ef8360405161161e9190612479565b60405180910390a35050565b7f000000000000000000000000000000000000000000000000000000000000000081565b606060058054806020026020016040519081016040528092919081815260200182805480156116d257602002820191906000526020600020905b8160009054906101000a900473ffffffffffffffffffffffffffffffffffffffff1673ffffffffffffffffffffffffffffffffffffffff1681526020019060010190808311611688575b5050505050905090565b600047905090565b7f000000000000000000000000000000000000000000000000000000000000000081565b61171133611e13565b565b600060088281548110611729576117286126f7565b5b906000526020600020906008020190508060050160009054906101000a900460ff161561178b576040517f08c379a00000000000000000000000000000000000000000000000000000000081526004016117829061282a565b60405180910390fd5b7f00000000000000000000000000000000000000000000000000000000000000006064600754600660003373ffffffffffffffffffffffffffffffffffffffff1673ffffffffffffffffffffffffffffffffffffffff168152602001908152602001600020546117fb91906128a8565b61180591906128d9565b10158061188557507f00000000000000000000000000000000000000000000000000000000000000001580156118845750600460003373ffffffffffffffffffffffffffffffffffffffff1673ffffffffffffffffffffffffffffffffffffffff16815260200190815260200160002060009054906101000a900460ff165b5b6118c4576040517f08c379a00000000000000000000000000000000000000000000000000000000081526004016118bb9061304d565b60405180910390fd5b8060060160003373ffffffffffffffffffffffffffffffffffffffff1673ffffffffffffffffffffffffffffffffffffffff16815260200190815260200160002060009054906101000a900460ff1615611953576040517f08c379a000000000000000000000000000000000000000000000000000000000815260040161194a906130df565b60405180910390fd5b60018160060160003373ffffffffffffffffffffffffffffffffffffffff1673ffffffffffffffffffffffffffffffffffffffff16815260200190815260200160002060006101000a81548160ff0219169083151502179055506119b981600701611fc1565b3373ffffffffffffffffffffffffffffffffffffffff16827f893b9e35d011bbe15567d0f899b775d6e02d49f62378315a6d25759d3bb1dbcc60405160405180910390a35050565b7f0000000000000000000000000000000000000000000000000000000000000000611a61576040517f08c379a0000000000000000000000000000000000000000000000000000000008152600401611a589061314b565b60405180910390fd5b600460003373ffffffffffffffffffffffffffffffffffffffff1673ffffffffffffffffffffffffffffffffffffffff16815260200190815260200160002060009054906101000a900460ff16611aed576040517f08c379a0000000000000000000000000000000000000000000000000000000008152600401611ae490612ebd565b60405180910390fd5b6000611af76111b1565b90506001811180611b4f57507f00000000000000000000000000000000000000000000000000000000000000008015611b4e57507f0000000000000000000000000000000000000000000000000000000000000000155b5b611b8e576040517f08c379a0000000000000000000000000000000000000000000000000000000008152600401611b85906131dd565b60405180910390fd5b600060038381548110611ba457611ba36126f7565b5b9060005260206000200160009054906101000a900473ffffffffffffffffffffffffffffffffffffffff169050600460008273ffffffffffffffffffffffffffffffffffffffff1673ffffffffffffffffffffffffffffffffffffffff16815260200190815260200160002060006101000a81549060ff021916905560008390505b60018303811015611cdc5760036001820181548110611c4857611c476126f7565b5b9060005260206000200160009054906101000a900473ffffffffffffffffffffffffffffffffffffffff1660038281548110611c8757611c866126f7565b5b9060005260206000200160006101000a81548173ffffffffffffffffffffffffffffffffffffffff021916908373ffffffffffffffffffffffffffffffffffffffff1602179055508080600101915050611c26565b506003805480611cef57611cee6131fd565b5b6001900381819060005260206000200160006101000a81549073ffffffffffffffffffffffffffffffffffffffff021916905590558073ffffffffffffffffffffffffffffffffffffffff167f1e25ed4cabec84d314dc176241019653f237da01f2bdd3a10cb0f38b33da676360405160405180910390a2505050565b7f000000000000000000000000000000000000000000000000000000000000000081565b7f000000000000000000000000000000000000000000000000000000000000000081565b60046020528060005260406000206000915054906101000a900460ff1681565b7f000000000000000000000000000000000000000000000000000000000000000081565b6000600880549050905090565b600081600001549050919050565b60003411611e56576040517f08c379a0000000000000000000000000000000000000000000000000000000008152600401611e4d9061329e565b60405180910390fd5b6000600660008373ffffffffffffffffffffffffffffffffffffffff1673ffffffffffffffffffffffffffffffffffffffff1681526020019081526020016000205403611f01576005819080600181540180825580915050600190039060005260206000200160009091909190916101000a81548173ffffffffffffffffffffffffffffffffffffffff021916908373ffffffffffffffffffffffffffffffffffffffff1602179055505b34600660008373ffffffffffffffffffffffffffffffffffffffff1673ffffffffffffffffffffffffffffffffffffffff1681526020019081526020016000206000828254611f5091906129c5565b925050819055503460076000828254611f6991906129c5565b925050819055508073ffffffffffffffffffffffffffffffffffffffff167f906faaf913a60f38b5e8f2d6f5b163239bac2d994fa1a5d21751a51587a9405734604051611fb69190612479565b60405180910390a250565b6001816000016000828254019250508190555050565b600073ffffffffffffffffffffffffffffffffffffffff82169050919050565b600061200282611fd7565b9050919050565b61201281611ff7565b82525050565b600060208201905061202d6000830184612009565b92915050565b6000604051905090565b600080fd5b600080fd5b6000819050919050565b61205a81612047565b811461206557600080fd5b50565b60008135905061207781612051565b92915050565b6000602082840312156120935761209261203d565b5b60006120a184828501612068565b91505092915050565b600081519050919050565b600082825260208201905092915050565b60005b838110156120e45780820151818401526020810190506120c9565b60008484015250505050565b6000601f19601f8301169050919050565b600061210c826120aa565b61211681856120b5565b93506121268185602086016120c6565b61212f816120f0565b840191505092915050565b600060208201905081810360008301526121548184612101565b905092915050565b61216581611ff7565b811461217057600080fd5b50565b6000813590506121828161215c565b92915050565b60006020828403121561219e5761219d61203d565b5b60006121ac84828501612173565b91505092915050565b600080fd5b600080fd5b7f4e487b7100000000000000000000000000000000000000000000000000000000600052604160045260246000fd5b6121f7826120f0565b810181811067ffffffffffffffff82111715612216576122156121bf565b5b80604052505050565b6000612229612033565b905061223582826121ee565b919050565b600067ffffffffffffffff821115612255576122546121bf565b5b61225e826120f0565b9050602081019050919050565b82818337600083830152505050565b600061228d6122888461223a565b61221f565b9050828152602081018484840111156122a9576122a86121ba565b5b6122b484828561226b565b509392505050565b600082601f8301126122d1576122d06121b5565b5b81356122e184826020860161227a565b91505092915050565b6000806000606084860312156123035761230261203d565b5b600084013567ffffffffffffffff81111561232157612320612042565b5b61232d868287016122bc565b935050602061233e86828701612173565b925050604061234f86828701612068565b9150509250925092565b600067ffffffffffffffff821115612374576123736121bf565b5b602082029050602081019050919050565b600080fd5b600061239d61239884612359565b61221f565b905080838252602082019050602084028301858111156123c0576123bf612385565b5b835b818110156123e957806123d58882612173565b8452602084019350506020810190506123c2565b5050509392505050565b600082601f830112612408576124076121b5565b5b813561241884826020860161238a565b91505092915050565b6000602082840312156124375761243661203d565b5b600082013567ffffffffffffffff81111561245557612454612042565b5b612461848285016123f3565b91505092915050565b61247381612047565b82525050565b600060208201905061248e600083018461246a565b92915050565b60008115159050919050565b6124a981612494565b82525050565b60006020820190506124c460008301846124a0565b92915050565b6124d381612047565b82525050565b6020820160008201516124ef60008501826124ca565b50505050565b600060e082019050818103600083015261250f818a612101565b905061251e6020830189612009565b61252b6040830188612009565b612538606083018761246a565b612545608083018661246a565b61255260a08301856124a0565b61255f60c08301846124d9565b98975050505050505050565b600081519050919050565b600082825260208201905092915050565b6000819050602082019050919050565b6125a081611ff7565b82525050565b60006125b28383612597565b60208301905092915050565b6000602082019050919050565b60006125d68261256b565b6125e08185612576565b93506125eb83612587565b8060005b8381101561261c57815161260388826125a6565b975061260e836125be565b9250506001810190506125ef565b5085935050505092915050565b6000602082019050818103600083015261264381846125cb565b905092915050565b600080604083850312156126625761266161203d565b5b600061267085828601612173565b925050602061268185828601612068565b9150509250929050565b7f5265656e7472616e637947756172643a207265656e7472616e742063616c6c00600082015250565b60006126c1601f836120b5565b91506126cc8261268b565b602082019050919050565b600060208201905081810360008301526126f0816126b4565b9050919050565b7f4e487b7100000000000000000000000000000000000000000000000000000000600052603260045260246000fd5b7f596f7520617265206e6f7420746865207065746974696f6e6572206f6620746860008201527f6520726571756573740000000000000000000000000000000000000000000000602082015250565b60006127826029836120b5565b915061278d82612726565b604082019050919050565b600060208201905081810360008301526127b181612775565b9050919050565b7f54686520726571756573742068617320616c7265616479206265656e20636f6d60008201527f706c657465640000000000000000000000000000000000000000000000000000602082015250565b60006128146026836120b5565b915061281f826127b8565b604082019050919050565b6000602082019050818103600083015261284381612807565b9050919050565b7f4e487b7100000000000000000000000000000000000000000000000000000000600052601260045260246000fd5b7f4e487b7100000000000000000000000000000000000000000000000000000000600052601160045260246000fd5b60006128b382612047565b91506128be83612047565b9250826128ce576128cd61284a565b5b828204905092915050565b60006128e482612047565b91506128ef83612047565b9250817fffffffffffffffffffffffffffffffffffffffffffffffffffffffffffffffff048311821515161561292857612927612879565b5b828202905092915050565b7f546865207265717565737420686173206e6f74206265656e20617070726f766560008201527f6420796574000000000000000000000000000000000000000000000000000000602082015250565b600061298f6025836120b5565b915061299a82612933565b604082019050919050565b600060208201905081810360008301526129be81612982565b9050919050565b60006129d082612047565b91506129db83612047565b92508282019050808211156129f3576129f2612879565b5b92915050565b7f4e487b7100000000000000000000000000000000000000000000000000000000600052602260045260246000fd5b60006002820490506001821680612a4057607f821691505b602082108103612a5357612a526129f9565b5b50919050565b7f52657175657374732063616e206e6f7420626520637265617465640000000000600082015250565b6000612a8f601b836120b5565b9150612a9a82612a59565b602082019050919050565b60006020820190508181036000830152612abe81612a82565b9050919050565b7f4f6e6c79206d616e61676572732063616e20637265617465206120726571756560008201527f7374000000000000000000000000000000000000000000000000000000000000602082015250565b6000612b216022836120b5565b9150612b2c82612ac5565b604082019050919050565b60006020820190508181036000830152612b5081612b14565b9050919050565b60008190508160005260206000209050919050565b60006020601f8301049050919050565b600082821b905092915050565b600060088302612bb97fffffffffffffffffffffffffffffffffffffffffffffffffffffffffffffffff82612b7c565b612bc38683612b7c565b95508019841693508086168417925050509392505050565b6000819050919050565b6000612c00612bfb612bf684612047565b612bdb565b612047565b9050919050565b6000819050919050565b612c1a83612be5565b612c2e612c2682612c07565b848454612b89565b825550505050565b600090565b612c43612c36565b612c4e818484612c11565b505050565b5b81811015612c7257612c67600082612c3b565b600181019050612c54565b5050565b601f821115612cb757612c8881612b57565b612c9184612b6c565b81016020851015612ca0578190505b612cb4612cac85612b6c565b830182612c53565b50505b505050565b600082821c905092915050565b6000612cda60001984600802612cbc565b1980831691505092915050565b6000612cf38383612cc9565b9150826002028217905092915050565b612d0c826120aa565b67ffffffffffffffff811115612d2557612d246121bf565b5b612d2f8254612a28565b612d3a828285612c76565b600060209050601f831160018114612d6d5760008415612d5b578287015190505b612d658582612ce7565b865550612dcd565b601f198416612d7b86612b57565b60005b82811015612da357848901518255600182019150602085019450602081019050612d7e565b86831015612dc05784890151612dbc601f891682612cc9565b8355505b6001600288020188555050505b505050505050565b60006040820190508181036000830152612def8185612101565b9050612dfe602083018461246a565b9392505050565b7f4e6577206d616e61676572732063616e206e6f74206265206164646564000000600082015250565b6000612e3b601d836120b5565b9150612e4682612e05565b602082019050919050565b60006020820190508181036000830152612e6a81612e2e565b9050919050565b7f4f6e6c79206d616e61676572732063616e206163636573730000000000000000600082015250565b6000612ea76018836120b5565b9150612eb282612e71565b602082019050919050565b60006020820190508181036000830152612ed681612e9a565b9050919050565b7f596f75206861766520746f2073656e64206f6e65206f72206d6f72652061646460008201527f7265737365730000000000000000000000000000000000000000000000000000602082015250565b6000612f396026836120b5565b9150612f4482612edd565b604082019050919050565b60006020820190508181036000830152612f6881612f2c565b9050919050565b7f4d616e61676572732063616e206e6f74207472616e73666572206d6f6e65792060008201527f776974686f757420612072657175657374000000000000000000000000000000602082015250565b6000612fcb6031836120b5565b9150612fd682612f6f565b604082019050919050565b60006020820190508181036000830152612ffa81612fbe565b9050919050565b7f596f752063616e206e6f7420617070726f766520612072657175657374000000600082015250565b6000613037601d836120b5565b915061304282613001565b602082019050919050565b600060208201905081810360008301526130668161302a565b9050919050565b7f596f75206861766520616c726561647920617070726f7665642074686973207260008201527f6571756573740000000000000000000000000000000000000000000000000000602082015250565b60006130c96026836120b5565b91506130d48261306d565b604082019050919050565b600060208201905081810360008301526130f8816130bc565b9050919050565b7f4d616e61676572732063616e206e6f742062652072656d6f7665640000000000600082015250565b6000613135601b836120b5565b9150613140826130ff565b602082019050919050565b6000602082019050818103600083015261316481613128565b9050919050565b7f546865726520776f756c64206265206e6f2077617920746f207769746864726160008201527f7720746865206d6f6e65792066726f6d2074686520636f6e7472616374000000602082015250565b60006131c7603d836120b5565b91506131d28261316b565b604082019050919050565b600060208201905081810360008301526131f6816131ba565b9050919050565b7f4e487b7100000000000000000000000000000000000000000000000000000000600052603160045260246000fd5b7f54686520636f6e747269627574696f6e206d757374206265206772656174657260008201527f207468616e207a65726f00000000000000000000000000000000000000000000602082015250565b6000613288602a836120b5565b91506132938261322c565b604082019050919050565b600060208201905081810360008301526132b78161327b565b905091905056fea2646970667358221220716f5eba36d594395cfe19be45deed20d5abf3c5513754aa78cafe900c12291064736f6c63430008100033a264697066735822122056c7a19088d614b6bc2463fe4ce1d67341e1ba52daa16849768f9deadb9f188764736f6c6343000810003360806040523480156200001157600080fd5b506040518060400160405280600a81526020017f46756e6420546f6b656e000000000000000000000000000000000000000000008152506040518060400160405280600281526020017f46540000000000000000000000000000000000000000000000000000000000008152506200009e62000092620000ca60201b60201c565b620000d260201b60201c565b8160049081620000af919062000410565b508060059081620000c1919062000410565b505050620004f7565b600033905090565b60008060009054906101000a900473ffffffffffffffffffffffffffffffffffffffff169050816000806101000a81548173ffffffffffffffffffffffffffffffffffffffff021916908373ffffffffffffffffffffffffffffffffffffffff1602179055508173ffffffffffffffffffffffffffffffffffffffff168173ffffffffffffffffffffffffffffffffffffffff167f8be0079c531659141344cd1fd0a4f28419497f9722a3daafe3b4186f6b6457e060405160405180910390a35050565b600081519050919050565b7f4e487b7100000000000000000000000000000000000000000000000000000000600052604160045260246000fd5b7f4e487b7100000000000000000000000000000000000000000000000000000000600052602260045260246000fd5b600060028204905060018216806200021857607f821691505b6020821081036200022e576200022d620001d0565b5b50919050565b60008190508160005260206000209050919050565b60006020601f8301049050919050565b600082821b905092915050565b600060088302620002987fffffffffffffffffffffffffffffffffffffffffffffffffffffffffffffffff8262000259565b620002a4868362000259565b95508019841693508086168417925050509392505050565b6000819050919050565b6000819050919050565b6000620002f1620002eb620002e584620002bc565b620002c6565b620002bc565b9050919050565b6000819050919050565b6200030d83620002d0565b620003256200031c82620002f8565b84845462000266565b825550505050565b600090565b6200033c6200032d565b6200034981848462000302565b505050565b5b8181101562000371576200036560008262000332565b6001810190506200034f565b5050565b601f821115620003c0576200038a8162000234565b620003958462000249565b81016020851015620003a5578190505b620003bd620003b48562000249565b8301826200034e565b50505b505050565b600082821c905092915050565b6000620003e560001984600802620003c5565b1980831691505092915050565b6000620004008383620003d2565b9150826002028217905092915050565b6200041b8262000196565b67ffffffffffffffff811115620004375762000436620001a1565b5b620004438254620001ff565b6200045082828562000375565b600060209050601f83116001811462000488576000841562000473578287015190505b6200047f8582620003f2565b865550620004ef565b601f198416620004988662000234565b60005b82811015620004c2578489015182556001820191506020850194506020810190506200049b565b86831015620004e25784890151620004de601f891682620003d2565b8355505b6001600288020188555050505b505050505050565b611b5d80620005076000396000f3fe608060405234801561001057600080fd5b50600436106101005760003560e01c8063715018a611610097578063a457c2d711610066578063a457c2d71461029d578063a9059cbb146102cd578063dd62ed3e146102fd578063f2fde38b1461032d57610100565b8063715018a61461023b5780638da5cb5b1461024557806395d89b41146102635780639dc29fac1461028157610100565b8063313ce567116100d3578063313ce567146101a157806339509351146101bf57806340c10f19146101ef57806370a082311461020b57610100565b806306fdde0314610105578063095ea7b31461012357806318160ddd1461015357806323b872dd14610171575b600080fd5b61010d610349565b60405161011a919061114e565b60405180910390f35b61013d60048036038101906101389190611209565b6103db565b60405161014a9190611264565b60405180910390f35b61015b6103fe565b604051610168919061128e565b60405180910390f35b61018b600480360381019061018691906112a9565b610408565b6040516101989190611264565b60405180910390f35b6101a9610437565b6040516101b69190611318565b60405180910390f35b6101d960048036038101906101d49190611209565b61043c565b6040516101e69190611264565b60405180910390f35b61020960048036038101906102049190611209565b610473565b005b61022560048036038101906102209190611333565b610489565b604051610232919061128e565b60405180910390f35b6102436104d2565b005b61024d6104e6565b60405161025a919061136f565b60405180910390f35b61026b61050f565b604051610278919061114e565b60405180910390f35b61029b60048036038101906102969190611209565b6105a1565b005b6102b760048036038101906102b29190611209565b6105b7565b6040516102c49190611264565b60405180910390f35b6102e760048036038101906102e29190611209565b61062e565b6040516102f49190611264565b60405180910390f35b6103176004803603810190610312919061138a565b610651565b604051610324919061128e565b60405180910390f35b61034760048036038101906103429190611333565b6106d8565b005b606060048054610358906113f9565b80601f0160208091040260200160405190810160405280929190818152602001828054610384906113f9565b80156103d15780601f106103a6576101008083540402835291602001916103d1565b820191906000526020600020905b8154815290600101906020018083116103b457829003601f168201915b5050505050905090565b6000806103e661075b565b90506103f3818585610763565b600191505092915050565b6000600354905090565b60008061041361075b565b905061042085828561092c565b61042b8585856109b8565b60019150509392505050565b600090565b60008061044761075b565b90506104688185856104598589610651565b6104639190611459565b610763565b600191505092915050565b61047b610c3a565b6104858282610cb8565b5050565b6000600160008373ffffffffffffffffffffffffffffffffffffffff1673ffffffffffffffffffffffffffffffffffffffff168152602001908152602001600020549050919050565b6104da610c3a565b6104e46000610e18565b565b60008060009054906101000a900473ffffffffffffffffffffffffffffffffffffffff16905090565b60606005805461051e906113f9565b80601f016020809104026020016040519081016040528092919081815260200182805461054a906113f9565b80156105975780601f1061056c57610100808354040283529160200191610597565b820191906000526020600020905b81548152906001019060200180831161057a57829003601f168201915b5050505050905090565b6105a9610c3a565b6105b38282610edc565b5050565b6000806105c261075b565b905060006105d08286610651565b905083811015610615576040517f08c379a000000000000000000000000000000000000000000000000000000000815260040161060c906114ff565b60405180910390fd5b6106228286868403610763565b60019250505092915050565b60008061063961075b565b90506106468185856109b8565b600191505092915050565b6000600260008473ffffffffffffffffffffffffffffffffffffffff1673ffffffffffffffffffffffffffffffffffffffff16815260200190815260200160002060008373ffffffffffffffffffffffffffffffffffffffff1673ffffffffffffffffffffffffffffffffffffffff16815260200190815260200160002054905092915050565b6106e0610c3a565b600073ffffffffffffffffffffffffffffffffffffffff168173ffffffffffffffffffffffffffffffffffffffff160361074f576040517f08c379a000000000000000000000000000000000000000000000000000000000815260040161074690611591565b60405180910390fd5b61075881610e18565b50565b600033905090565b600073ffffffffffffffffffffffffffffffffffffffff168373ffffffffffffffffffffffffffffffffffffffff16036107d2576040517f08c379a00000000000000000000000000000000000000000000000000000000081526004016107c990611623565b60405180910390fd5b600073ffffffffffffffffffffffffffffffffffffffff168273ffffffffffffffffffffffffffffffffffffffff1603610841576040517f08c379a0000000000000000000000000000000000000000000000000000000008152600401610838906116b5565b60405180910390fd5b80600260008573ffffffffffffffffffffffffffffffffffffffff1673ffffffffffffffffffffffffffffffffffffffff16815260200190815260200160002060008473ffffffffffffffffffffffffffffffffffffffff1673ffffffffffffffffffffffffffffffffffffffff168152602001908152602001600020819055508173ffffffffffffffffffffffffffffffffffffffff168373ffffffffffffffffffffffffffffffffffffffff167f8c5be1e5ebec7d5bd14f71427d1e84f3dd0314c0f7b2291e5b200ac8c7c3b9258360405161091f919061128e565b60405180910390a3505050565b60006109388484610651565b90507fffffffffffffffffffffffffffffffffffffffffffffffffffffffffffffffff81146109b257818110156109a4576040517f08c379a000000000000000000000000000000000000000000000000000000000815260040161099b90611721565b60405180910390fd5b6109b18484848403610763565b5b50505050565b600073ffffffffffffffffffffffffffffffffffffffff168373ffffffffffffffffffffffffffffffffffffffff1603610a27576040517f08c379a0000000000000000000000000000000000000000000000000000000008152600401610a1e906117b3565b60405180910390fd5b600073ffffffffffffffffffffffffffffffffffffffff168273ffffffffffffffffffffffffffffffffffffffff1603610a96576040517f08c379a0000000000000000000000000000000000000000000000000000000008152600401610a8d90611845565b60405180910390fd5b610aa18383836110b4565b6000600160008573ffffffffffffffffffffffffffffffffffffffff1673ffffffffffffffffffffffffffffffffffffffff16815260200190815260200160002054905081811015610b28576040517f08c379a0000000000000000000000000000000000000000000000000000000008152600401610b1f906118d7565b60405180910390fd5b818103600160008673ffffffffffffffffffffffffffffffffffffffff1673ffffffffffffffffffffffffffffffffffffffff1681526020019081526020016000208190555081600160008573ffffffffffffffffffffffffffffffffffffffff1673ffffffffffffffffffffffffffffffffffffffff1681526020019081526020016000206000828254610bbd9190611459565b925050819055508273ffffffffffffffffffffffffffffffffffffffff168473ffffffffffffffffffffffffffffffffffffffff167fddf252ad1be2c89b69c2b068fc378daa952ba7f163c4a11628f55a4df523b3ef84604051610c21919061128e565b60405180910390a3610c348484846110b9565b50505050565b610c4261075b565b73ffffffffffffffffffffffffffffffffffffffff16610c606104e6565b73ffffffffffffffffffffffffffffffffffffffff1614610cb6576040517f08c379a0000000000000000000000000000000000000000000000000000000008152600401610cad90611943565b60405180910390fd5b565b600073ffffffffffffffffffffffffffffffffffffffff168273ffffffffffffffffffffffffffffffffffffffff1603610d27576040517f08c379a0000000000000000000000000000000000000000000000000000000008152600401610d1e906119af565b60405180910390fd5b610d33600083836110b4565b8060036000828254610d459190611459565b9250508190555080600160008473ffffffffffffffffffffffffffffffffffffffff1673ffffffffffffffffffffffffffffffffffffffff1681526020019081526020016000206000828254610d9b9190611459565b925050819055508173ffffffffffffffffffffffffffffffffffffffff16600073ffffffffffffffffffffffffffffffffffffffff167fddf252ad1be2c89b69c2b068fc378daa952ba7f163c4a11628f55a4df523b3ef83604051610e00919061128e565b60405180910390a3610e14600083836110b9565b5050565b60008060009054906101000a900473ffffffffffffffffffffffffffffffffffffffff169050816000806101000a81548173ffffffffffffffffffffffffffffffffffffffff021916908373ffffffffffffffffffffffffffffffffffffffff1602179055508173ffffffffffffffffffffffffffffffffffffffff168173ffffffffffffffffffffffffffffffffffffffff167f8be0079c531659141344cd1fd0a4f28419497f9722a3daafe3b4186f6b6457e060405160405180910390a35050565b600073ffffffffffffffffffffffffffffffffffffffff168273ffffffffffffffffffffffffffffffffffffffff1603610f4b576040517f08c379a0000000000000000000000000000000000000000000000000000000008152600401610f4290611a41565b60405180910390fd5b610f57826000836110b4565b6000600160008473ffffffffffffffffffffffffffffffffffffffff1673ffffffffffffffffffffffffffffffffffffffff16815260200190815260200160002054905081811015610fde576040517f08c379a0000000000000000000000000000000000000000000000000000000008152600401610fd590611ad3565b60405180910390fd5b818103600160008573ffffffffffffffffffffffffffffffffffffffff1673ffffffffffffffffffffffffffffffffffffffff1681526020019081526020016000208190555081600360008282546110369190611af3565b92505081905550600073ffffffffffffffffffffffffffffffffffffffff168373ffffffffffffffffffffffffffffffffffffffff167fddf252ad1be2c89b69c2b068fc378daa952ba7f163c4a11628f55a4df523b3ef8460405161109b919061128e565b60405180910390a36110af836000846110b9565b505050565b505050565b505050565b600081519050919050565b600082825260208201905092915050565b60005b838110156110f85780820151818401526020810190506110dd565b60008484015250505050565b6000601f19601f8301169050919050565b6000611120826110be565b61112a81856110c9565b935061113a8185602086016110da565b61114381611104565b840191505092915050565b600060208201905081810360008301526111688184611115565b905092915050565b600080fd5b600073ffffffffffffffffffffffffffffffffffffffff82169050919050565b60006111a082611175565b9050919050565b6111b081611195565b81146111bb57600080fd5b50565b6000813590506111cd816111a7565b92915050565b6000819050919050565b6111e6816111d3565b81146111f157600080fd5b50565b600081359050611203816111dd565b92915050565b600080604083850312156112205761121f611170565b5b600061122e858286016111be565b925050602061123f858286016111f4565b9150509250929050565b60008115159050919050565b61125e81611249565b82525050565b60006020820190506112796000830184611255565b92915050565b611288816111d3565b82525050565b60006020820190506112a3600083018461127f565b92915050565b6000806000606084860312156112c2576112c1611170565b5b60006112d0868287016111be565b93505060206112e1868287016111be565b92505060406112f2868287016111f4565b9150509250925092565b600060ff82169050919050565b611312816112fc565b82525050565b600060208201905061132d6000830184611309565b92915050565b60006020828403121561134957611348611170565b5b6000611357848285016111be565b91505092915050565b61136981611195565b82525050565b60006020820190506113846000830184611360565b92915050565b600080604083850312156113a1576113a0611170565b5b60006113af858286016111be565b92505060206113c0858286016111be565b9150509250929050565b7f4e487b7100000000000000000000000000000000000000000000000000000000600052602260045260246000fd5b6000600282049050600182168061141157607f821691505b602082108103611424576114236113ca565b5b50919050565b7f4e487b7100000000000000000000000000000000000000000000000000000000600052601160045260246000fd5b6000611464826111d3565b915061146f836111d3565b92508282019050808211156114875761148661142a565b5b92915050565b7f45524332303a2064656372656173656420616c6c6f77616e63652062656c6f7760008201527f207a65726f000000000000000000000000000000000000000000000000000000602082015250565b60006114e96025836110c9565b91506114f48261148d565b604082019050919050565b60006020820190508181036000830152611518816114dc565b9050919050565b7f4f776e61626c653a206e6577206f776e657220697320746865207a65726f206160008201527f6464726573730000000000000000000000000000000000000000000000000000602082015250565b600061157b6026836110c9565b91506115868261151f565b604082019050919050565b600060208201905081810360008301526115aa8161156e565b9050919050565b7f45524332303a20617070726f76652066726f6d20746865207a65726f2061646460008201527f7265737300000000000000000000000000000000000000000000000000000000602082015250565b600061160d6024836110c9565b9150611618826115b1565b604082019050919050565b6000602082019050818103600083015261163c81611600565b9050919050565b7f45524332303a20617070726f766520746f20746865207a65726f20616464726560008201527f7373000000000000000000000000000000000000000000000000000000000000602082015250565b600061169f6022836110c9565b91506116aa82611643565b604082019050919050565b600060208201905081810360008301526116ce81611692565b9050919050565b7f45524332303a20696e73756666696369656e7420616c6c6f77616e6365000000600082015250565b600061170b601d836110c9565b9150611716826116d5565b602082019050919050565b6000602082019050818103600083015261173a816116fe565b9050919050565b7f45524332303a207472616e736665722066726f6d20746865207a65726f20616460008201527f6472657373000000000000000000000000000000000000000000000000000000602082015250565b600061179d6025836110c9565b91506117a882611741565b604082019050919050565b600060208201905081810360008301526117cc81611790565b9050919050565b7f45524332303a207472616e7366657220746f20746865207a65726f206164647260008201527f6573730000000000000000000000000000000000000000000000000000000000602082015250565b600061182f6023836110c9565b915061183a826117d3565b604082019050919050565b6000602082019050818103600083015261185e81611822565b9050919050565b7f45524332303a207472616e7366657220616d6f756e742065786365656473206260008201527f616c616e63650000000000000000000000000000000000000000000000000000602082015250565b60006118c16026836110c9565b91506118cc82611865565b604082019050919050565b600060208201905081810360008301526118f0816118b4565b9050919050565b7f4f776e61626c653a2063616c6c6572206973206e6f7420746865206f776e6572600082015250565b600061192d6020836110c9565b9150611938826118f7565b602082019050919050565b6000602082019050818103600083015261195c81611920565b9050919050565b7f45524332303a206d696e7420746f20746865207a65726f206164647265737300600082015250565b6000611999601f836110c9565b91506119a482611963565b602082019050919050565b600060208201905081810360008301526119c88161198c565b9050919050565b7f45524332303a206275726e2066726f6d20746865207a65726f2061646472657360008201527f7300000000000000000000000000000000000000000000000000000000000000602082015250565b6000611a2b6021836110c9565b9150611a36826119cf565b604082019050919050565b60006020820190508181036000830152611a5a81611a1e565b9050919050565b7f45524332303a206275726e20616d6f756e7420657863656564732062616c616e60008201527f6365000000000000000000000000000000000000000000000000000000000000602082015250565b6000611abd6022836110c9565b9150611ac882611a61565b604082019050919050565b60006020820190508181036000830152611aec81611ab0565b9050919050565b6000611afe826111d3565b9150611b09836111d3565b9250828203905081811115611b2157611b2061142a565b5b9291505056fea2646970667358221220a8f8a2f883edfb84a816438256f32cc4a3e0137188d771c32d15e7ac85cc0bdd64736f6c63430008100033",
  "linkReferences": {},
  "deployedLinkReferences": {}
}