{
  "_format": "hh-sol-artifact-1",
  "contractName": "Fund",
  "sourceName": "contracts/Fund.sol",
  "abi": [
    {
      "inputs": [
        {
          "internalType": "string",
          "name": "_name",
          "type": "string"
        },
        {
          "internalType": "string",
          "name": "_description",
          "type": "string"
        },
        {
          "internalType": "address",
          "name": "_creator",
          "type": "address"
        },
        {
          "internalType": "address[]",
          "name": "_managers",
          "type": "address[]"
        },
        {
          "internalType": "bool",
          "name": "_managersCanBeAddedOrRemoved",
          "type": "bool"
        },
        {
          "internalType": "bool",
          "name": "_managersCanTransferMoneyWithoutARequest",
          "type": "bool"
        },
        {
          "internalType": "bool",
          "name": "_requestsCanBeCreated",
          "type": "bool"
        },
        {
          "internalType": "bool",
          "name": "_onlyManagersCanCreateARequest",
          "type": "bool"
        },
        {
          "internalType": "bool",
          "name": "_onlyContributorsCanApproveARequest",
          "type": "bool"
        },
        {
          "internalType": "uint256",
          "name": "_minimumContributionPercentageRequired",
          "type": "uint256"
        },
        {
          "internalType": "uint256",
          "name": "_minimumApprovalsPercentageRequired",
          "type": "uint256"
        }
      ],
      "stateMutability": "nonpayable",
      "type": "constructor"
    },
    {
      "anonymous": false,
      "inputs": [
        {
          "indexed": true,
          "internalType": "uint256",
          "name": "requestIndex",
          "type": "uint256"
        },
        {
          "indexed": true,
          "internalType": "address",
          "name": "approver",
          "type": "address"
        }
      ],
      "name": "ApproveRequest",
      "type": "event"
    },
    {
      "anonymous": false,
      "inputs": [
        {
          "indexed": true,
          "internalType": "address",
          "name": "contributor",
          "type": "address"
        },
        {
          "indexed": false,
          "internalType": "uint256",
          "name": "value",
          "type": "uint256"
        }
      ],
      "name": "Contribute",
      "type": "event"
    },
    {
      "anonymous": false,
      "inputs": [
        {
          "indexed": true,
          "internalType": "uint256",
          "name": "requestIndex",
          "type": "uint256"
        },
        {
          "indexed": false,
          "internalType": "uint256",
          "name": "transferredValue",
          "type": "uint256"
        }
      ],
      "name": "FinalizeRequest",
      "type": "event"
    },
    {
      "anonymous": false,
      "inputs": [
        {
          "indexed": true,
          "internalType": "address",
          "name": "manager",
          "type": "address"
        }
      ],
      "name": "NewManager",
      "type": "event"
    },
    {
      "anonymous": false,
      "inputs": [
        {
          "indexed": false,
          "internalType": "string",
          "name": "description",
          "type": "string"
        },
        {
          "indexed": true,
          "internalType": "address",
          "name": "petitioner",
          "type": "address"
        },
        {
          "indexed": true,
          "internalType": "address",
          "name": "recipient",
          "type": "address"
        },
        {
          "indexed": false,
          "internalType": "uint256",
          "name": "valueToTransfer",
          "type": "uint256"
        }
      ],
      "name": "NewRequest",
      "type": "event"
    },
    {
      "anonymous": false,
      "inputs": [
        {
          "indexed": true,
          "internalType": "address",
          "name": "manager",
          "type": "address"
        }
      ],
      "name": "RemoveManager",
      "type": "event"
    },
    {
      "anonymous": false,
      "inputs": [
        {
          "indexed": true,
          "internalType": "address",
          "name": "sender",
          "type": "address"
        },
        {
          "indexed": true,
          "internalType": "address",
          "name": "to",
          "type": "address"
        },
        {
          "indexed": false,
          "internalType": "uint256",
          "name": "value",
          "type": "uint256"
        }
      ],
      "name": "Transfer",
      "type": "event"
    },
    {
      "inputs": [
        {
          "internalType": "address[]",
          "name": "_managers",
          "type": "address[]"
        }
      ],
      "name": "addNewManagers",
      "outputs": [],
      "stateMutability": "nonpayable",
      "type": "function"
    },
    {
      "inputs": [
        {
          "internalType": "uint256",
          "name": "_index",
          "type": "uint256"
        }
      ],
      "name": "approveRequest",
      "outputs": [],
      "stateMutability": "nonpayable",
      "type": "function"
    },
    {
      "inputs": [],
      "name": "balance",
      "outputs": [
        {
          "internalType": "uint256",
          "name": "",
          "type": "uint256"
        }
      ],
      "stateMutability": "view",
      "type": "function"
    },
    {
      "inputs": [],
      "name": "contribute",
      "outputs": [],
      "stateMutability": "payable",
      "type": "function"
    },
    {
      "inputs": [
        {
          "internalType": "address",
          "name": "_for",
          "type": "address"
        }
      ],
      "name": "contributeFor",
      "outputs": [],
      "stateMutability": "payable",
      "type": "function"
    },
    {
      "inputs": [
        {
          "internalType": "address",
          "name": "",
          "type": "address"
        }
      ],
      "name": "contributions",
      "outputs": [
        {
          "internalType": "uint256",
          "name": "",
          "type": "uint256"
        }
      ],
      "stateMutability": "view",
      "type": "function"
    },
    {
      "inputs": [
        {
          "internalType": "uint256",
          "name": "",
          "type": "uint256"
        }
      ],
      "name": "contributors",
      "outputs": [
        {
          "internalType": "address",
          "name": "",
          "type": "address"
        }
      ],
      "stateMutability": "view",
      "type": "function"
    },
    {
      "inputs": [],
      "name": "contributorsCount",
      "outputs": [
        {
          "internalType": "uint256",
          "name": "",
          "type": "uint256"
        }
      ],
      "stateMutability": "view",
      "type": "function"
    },
    {
      "inputs": [
        {
          "internalType": "string",
          "name": "_description",
          "type": "string"
        },
        {
          "internalType": "address",
          "name": "_recipient",
          "type": "address"
        },
        {
          "internalType": "uint256",
          "name": "_valueToTransfer",
          "type": "uint256"
        }
      ],
      "name": "createRequest",
      "outputs": [],
      "stateMutability": "nonpayable",
      "type": "function"
    },
    {
      "inputs": [],
      "name": "createdAt",
      "outputs": [
        {
          "internalType": "uint256",
          "name": "",
          "type": "uint256"
        }
      ],
      "stateMutability": "view",
      "type": "function"
    },
    {
      "inputs": [],
      "name": "creator",
      "outputs": [
        {
          "internalType": "address",
          "name": "",
          "type": "address"
        }
      ],
      "stateMutability": "view",
      "type": "function"
    },
    {
      "inputs": [],
      "name": "description",
      "outputs": [
        {
          "internalType": "string",
          "name": "",
          "type": "string"
        }
      ],
      "stateMutability": "view",
      "type": "function"
    },
    {
      "inputs": [
        {
          "internalType": "uint256",
          "name": "_index",
          "type": "uint256"
        }
      ],
      "name": "finalizeRequest",
      "outputs": [],
      "stateMutability": "nonpayable",
      "type": "function"
    },
    {
      "inputs": [],
      "name": "getContributors",
      "outputs": [
        {
          "internalType": "address[]",
          "name": "",
          "type": "address[]"
        }
      ],
      "stateMutability": "view",
      "type": "function"
    },
    {
      "inputs": [],
      "name": "getManagers",
      "outputs": [
        {
          "internalType": "address[]",
          "name": "",
          "type": "address[]"
        }
      ],
      "stateMutability": "view",
      "type": "function"
    },
    {
      "inputs": [
        {
          "internalType": "address",
          "name": "",
          "type": "address"
        }
      ],
      "name": "isManager",
      "outputs": [
        {
          "internalType": "bool",
          "name": "",
          "type": "bool"
        }
      ],
      "stateMutability": "view",
      "type": "function"
    },
    {
      "inputs": [
        {
          "internalType": "uint256",
          "name": "",
          "type": "uint256"
        }
      ],
      "name": "managers",
      "outputs": [
        {
          "internalType": "address",
          "name": "",
          "type": "address"
        }
      ],
      "stateMutability": "view",
      "type": "function"
    },
    {
      "inputs": [],
      "name": "managersCanBeAddedOrRemoved",
      "outputs": [
        {
          "internalType": "bool",
          "name": "",
          "type": "bool"
        }
      ],
      "stateMutability": "view",
      "type": "function"
    },
    {
      "inputs": [],
      "name": "managersCanTransferMoneyWithoutARequest",
      "outputs": [
        {
          "internalType": "bool",
          "name": "",
          "type": "bool"
        }
      ],
      "stateMutability": "view",
      "type": "function"
    },
    {
      "inputs": [],
      "name": "managersCount",
      "outputs": [
        {
          "internalType": "uint256",
          "name": "",
          "type": "uint256"
        }
      ],
      "stateMutability": "view",
      "type": "function"
    },
    {
      "inputs": [],
      "name": "minimumApprovalsPercentageRequired",
      "outputs": [
        {
          "internalType": "uint256",
          "name": "",
          "type": "uint256"
        }
      ],
      "stateMutability": "view",
      "type": "function"
    },
    {
      "inputs": [],
      "name": "minimumContributionPercentageRequired",
      "outputs": [
        {
          "internalType": "uint256",
          "name": "",
          "type": "uint256"
        }
      ],
      "stateMutability": "view",
      "type": "function"
    },
    {
      "inputs": [],
      "name": "name",
      "outputs": [
        {
          "internalType": "string",
          "name": "",
          "type": "string"
        }
      ],
      "stateMutability": "view",
      "type": "function"
    },
    {
      "inputs": [],
      "name": "onlyContributorsCanApproveARequest",
      "outputs": [
        {
          "internalType": "bool",
          "name": "",
          "type": "bool"
        }
      ],
      "stateMutability": "view",
      "type": "function"
    },
    {
      "inputs": [],
      "name": "onlyManagersCanCreateARequest",
      "outputs": [
        {
          "internalType": "bool",
          "name": "",
          "type": "bool"
        }
      ],
      "stateMutability": "view",
      "type": "function"
    },
    {
      "inputs": [
        {
          "internalType": "uint256",
          "name": "_index",
          "type": "uint256"
        }
      ],
      "name": "removeManager",
      "outputs": [],
      "stateMutability": "nonpayable",
      "type": "function"
    },
    {
      "inputs": [
        {
          "internalType": "uint256",
          "name": "",
          "type": "uint256"
        }
      ],
      "name": "requests",
      "outputs": [
        {
          "internalType": "string",
          "name": "description",
          "type": "string"
        },
        {
          "internalType": "address",
          "name": "petitioner",
          "type": "address"
        },
        {
          "internalType": "address",
          "name": "recipient",
          "type": "address"
        },
        {
          "internalType": "uint256",
          "name": "valueToTransfer",
          "type": "uint256"
        },
        {
          "internalType": "uint256",
          "name": "transferredValue",
          "type": "uint256"
        },
        {
          "internalType": "bool",
          "name": "complete",
          "type": "bool"
        },
        {
          "components": [
            {
              "internalType": "uint256",
              "name": "_value",
              "type": "uint256"
            }
          ],
          "internalType": "struct Counters.Counter",
          "name": "approvalsCount",
          "type": "tuple"
        }
      ],
      "stateMutability": "view",
      "type": "function"
    },
    {
      "inputs": [],
      "name": "requestsCanBeCreated",
      "outputs": [
        {
          "internalType": "bool",
          "name": "",
          "type": "bool"
        }
      ],
      "stateMutability": "view",
      "type": "function"
    },
    {
      "inputs": [],
      "name": "requestsCount",
      "outputs": [
        {
          "internalType": "uint256",
          "name": "",
          "type": "uint256"
        }
      ],
      "stateMutability": "view",
      "type": "function"
    },
    {
      "inputs": [],
      "name": "totalContributions",
      "outputs": [
        {
          "internalType": "uint256",
          "name": "",
          "type": "uint256"
        }
      ],
      "stateMutability": "view",
      "type": "function"
    },
    {
      "inputs": [
        {
          "internalType": "address",
          "name": "_to",
          "type": "address"
        },
        {
          "internalType": "uint256",
          "name": "_value",
          "type": "uint256"
        }
      ],
      "name": "transfer",
      "outputs": [],
      "stateMutability": "nonpayable",
      "type": "function"
    }
  ],
  "bytecode": "0x6101a06040524260a0908152503480156200001957600080fd5b5060405162003d6538038062003d6583398181016040528101906200003f919062000513565b60016000819055508a60019081620000589190620008be565b5089600290816200006a9190620008be565b508873ffffffffffffffffffffffffffffffffffffffff1660808173ffffffffffffffffffffffffffffffffffffffff16815250508760039080519060200190620000b79291906200011a565b5086151560c08115158152505085151560e0811515815250508415156101008115158152505083151561012081151581525050821515610140811515815250508161016081815250508061018081815250505050505050505050505050620009a5565b82805482825590600052602060002090810192821562000196579160200282015b82811115620001955782518260006101000a81548173ffffffffffffffffffffffffffffffffffffffff021916908373ffffffffffffffffffffffffffffffffffffffff160217905550916020019190600101906200013b565b5b509050620001a59190620001a9565b5090565b5b80821115620001c4576000816000905550600101620001aa565b5090565b6000604051905090565b600080fd5b600080fd5b600080fd5b600080fd5b6000601f19601f8301169050919050565b7f4e487b7100000000000000000000000000000000000000000000000000000000600052604160045260246000fd5b6200023182620001e6565b810181811067ffffffffffffffff82111715620002535762000252620001f7565b5b80604052505050565b600062000268620001c8565b905062000276828262000226565b919050565b600067ffffffffffffffff821115620002995762000298620001f7565b5b620002a482620001e6565b9050602081019050919050565b60005b83811015620002d1578082015181840152602081019050620002b4565b60008484015250505050565b6000620002f4620002ee846200027b565b6200025c565b905082815260208101848484011115620003135762000312620001e1565b5b62000320848285620002b1565b509392505050565b600082601f83011262000340576200033f620001dc565b5b815162000352848260208601620002dd565b91505092915050565b600073ffffffffffffffffffffffffffffffffffffffff82169050919050565b600062000388826200035b565b9050919050565b6200039a816200037b565b8114620003a657600080fd5b50565b600081519050620003ba816200038f565b92915050565b600067ffffffffffffffff821115620003de57620003dd620001f7565b5b602082029050602081019050919050565b600080fd5b60006200040b6200040584620003c0565b6200025c565b90508083825260208201905060208402830185811115620004315762000430620003ef565b5b835b818110156200045e5780620004498882620003a9565b84526020840193505060208101905062000433565b5050509392505050565b600082601f83011262000480576200047f620001dc565b5b815162000492848260208601620003f4565b91505092915050565b60008115159050919050565b620004b2816200049b565b8114620004be57600080fd5b50565b600081519050620004d281620004a7565b92915050565b6000819050919050565b620004ed81620004d8565b8114620004f957600080fd5b50565b6000815190506200050d81620004e2565b92915050565b60008060008060008060008060008060006101608c8e0312156200053c576200053b620001d2565b5b60008c015167ffffffffffffffff8111156200055d576200055c620001d7565b5b6200056b8e828f0162000328565b9b505060208c015167ffffffffffffffff8111156200058f576200058e620001d7565b5b6200059d8e828f0162000328565b9a50506040620005b08e828f01620003a9565b99505060608c015167ffffffffffffffff811115620005d457620005d3620001d7565b5b620005e28e828f0162000468565b9850506080620005f58e828f01620004c1565b97505060a0620006088e828f01620004c1565b96505060c06200061b8e828f01620004c1565b95505060e06200062e8e828f01620004c1565b945050610100620006428e828f01620004c1565b935050610120620006568e828f01620004fc565b9250506101406200066a8e828f01620004fc565b9150509295989b509295989b9093969950565b600081519050919050565b7f4e487b7100000000000000000000000000000000000000000000000000000000600052602260045260246000fd5b60006002820490506001821680620006d057607f821691505b602082108103620006e657620006e562000688565b5b50919050565b60008190508160005260206000209050919050565b60006020601f8301049050919050565b600082821b905092915050565b600060088302620007507fffffffffffffffffffffffffffffffffffffffffffffffffffffffffffffffff8262000711565b6200075c868362000711565b95508019841693508086168417925050509392505050565b6000819050919050565b60006200079f620007996200079384620004d8565b62000774565b620004d8565b9050919050565b6000819050919050565b620007bb836200077e565b620007d3620007ca82620007a6565b8484546200071e565b825550505050565b600090565b620007ea620007db565b620007f7818484620007b0565b505050565b5b818110156200081f5762000813600082620007e0565b600181019050620007fd565b5050565b601f8211156200086e576200083881620006ec565b620008438462000701565b8101602085101562000853578190505b6200086b620008628562000701565b830182620007fc565b50505b505050565b600082821c905092915050565b6000620008936000198460080262000873565b1980831691505092915050565b6000620008ae838362000880565b9150826002028217905092915050565b620008c9826200067d565b67ffffffffffffffff811115620008e557620008e4620001f7565b5b620008f18254620006b7565b620008fe82828562000823565b600060209050601f83116001811462000936576000841562000921578287015190505b6200092d8582620008a0565b8655506200099d565b601f1984166200094686620006ec565b60005b82811015620009705784890151825560018201915060208501945060208101905062000949565b868310156200099057848901516200098c601f89168262000880565b8355505b6001600288020188555050505b505050505050565b60805160a05160c05160e05161010051610120516101405161016051610180516132f462000a71600039600081816108d90152818161096a0152611d6e0152600081816111c0015261178d0152600081816108b30152818161180f0152611d92015260008181610c4d01528181610c75015281816113de0152611b2d015260008181610b9c0152818161162c0152611b0501526000818161127f0152611490015260008181610e1201528181611a030152611dd6015260006116e60152600061073801526132f46000f3fe6080604052600436106101d85760003560e01c806381d12c5811610102578063d7bb99ba11610095578063ecbff6e711610064578063ecbff6e714610678578063f3ae2415146106a3578063fa68b631146106e0578063fbfa4b7f1461070b576101d8565b8063d7bb99ba146105f1578063d7d1bbdb146105fb578063d8247ee714610624578063db2d78b11461064d576101d8565b8063aa9cfc50116100d1578063aa9cfc5014610545578063af157c1914610570578063b69ef8a81461059b578063cf09e0d0146105c6576101d8565b806381d12c58146104835780638a20bc37146104c6578063a8d088bb146104f1578063a9059cbb1461051c576101d8565b80633cb5d1001161017a578063691c754511610149578063691c7545146103d75780637284e416146104025780637569b3d71461042d5780638175f2c714610458576101d8565b80633cb5d100146102f55780633d39c2601461033257806342e94c901461036f5780636308ae65146103ac576101d8565b806310718655116101b6578063107186551461025c5780631b16bb5c146102785780632dde0013146102a157806337c08923146102ca576101d8565b806302d05d3f146101dd578063034410061461020857806306fdde0314610231575b600080fd5b3480156101e957600080fd5b506101f2610736565b6040516101ff9190612018565b60405180910390f35b34801561021457600080fd5b5061022f600480360381019061022a919061207d565b61075a565b005b34801561023d57600080fd5b50610246610b00565b604051610253919061213a565b60405180910390f35b61027660048036038101906102719190612188565b610b8e565b005b34801561028457600080fd5b5061029f600480360381019061029a91906122ea565b610b9a565b005b3480156102ad57600080fd5b506102c860048036038101906102c39190612421565b610e10565b005b3480156102d657600080fd5b506102df611115565b6040516102ec9190612479565b60405180910390f35b34801561030157600080fd5b5061031c6004803603810190610317919061207d565b61111b565b6040516103299190612018565b60405180910390f35b34801561033e57600080fd5b506103596004803603810190610354919061207d565b61115a565b6040516103669190612018565b60405180910390f35b34801561037b57600080fd5b5061039660048036038101906103919190612188565b611199565b6040516103a39190612479565b60405180910390f35b3480156103b857600080fd5b506103c16111b1565b6040516103ce9190612479565b60405180910390f35b3480156103e357600080fd5b506103ec6111be565b6040516103f99190612479565b60405180910390f35b34801561040e57600080fd5b506104176111e2565b604051610424919061213a565b60405180910390f35b34801561043957600080fd5b50610442611270565b60405161044f9190612479565b60405180910390f35b34801561046457600080fd5b5061046d61127d565b60405161047a91906124af565b60405180910390f35b34801561048f57600080fd5b506104aa60048036038101906104a5919061207d565b6112a1565b6040516104bd97969594939291906124f5565b60405180910390f35b3480156104d257600080fd5b506104db6113dc565b6040516104e891906124af565b60405180910390f35b3480156104fd57600080fd5b50610506611400565b6040516105139190612629565b60405180910390f35b34801561052857600080fd5b50610543600480360381019061053e919061264b565b61148e565b005b34801561055157600080fd5b5061055a61162a565b60405161056791906124af565b60405180910390f35b34801561057c57600080fd5b5061058561164e565b6040516105929190612629565b60405180910390f35b3480156105a757600080fd5b506105b06116dc565b6040516105bd9190612479565b60405180910390f35b3480156105d257600080fd5b506105db6116e4565b6040516105e89190612479565b60405180910390f35b6105f9611708565b005b34801561060757600080fd5b50610622600480360381019061061d919061207d565b611713565b005b34801561063057600080fd5b5061064b6004803603810190610646919061207d565b611a01565b005b34801561065957600080fd5b50610662611d6c565b60405161066f9190612479565b60405180910390f35b34801561068457600080fd5b5061068d611d90565b60405161069a91906124af565b60405180910390f35b3480156106af57600080fd5b506106ca60048036038101906106c59190612188565b611db4565b6040516106d791906124af565b60405180910390f35b3480156106ec57600080fd5b506106f5611dd4565b60405161070291906124af565b60405180910390f35b34801561071757600080fd5b50610720611df8565b60405161072d9190612479565b60405180910390f35b7f000000000000000000000000000000000000000000000000000000000000000081565b60026000540361079f576040517f08c379a0000000000000000000000000000000000000000000000000000000008152600401610796906126d7565b60405180910390fd5b60026000819055506000600882815481106107bd576107bc6126f7565b5b906000526020600020906008020190503373ffffffffffffffffffffffffffffffffffffffff168160010160009054906101000a900473ffffffffffffffffffffffffffffffffffffffff1673ffffffffffffffffffffffffffffffffffffffff161461085f576040517f08c379a000000000000000000000000000000000000000000000000000000000815260040161085690612798565b60405180910390fd5b8060050160009054906101000a900460ff16156108b1576040517f08c379a00000000000000000000000000000000000000000000000000000000081526004016108a89061282a565b60405180910390fd5b7f000000000000000000000000000000000000000000000000000000000000000015610968577f00000000000000000000000000000000000000000000000000000000000000006064610902611270565b61090e84600701611e05565b61091891906128a8565b61092291906128d9565b1015610963576040517f08c379a000000000000000000000000000000000000000000000000000000000815260040161095a906129a5565b60405180910390fd5b610a07565b7f00000000000000000000000000000000000000000000000000000000000000006064610993611270565b61099b6111b1565b6109a591906129c5565b6109b184600701611e05565b6109bb91906128a8565b6109c591906128d9565b1015610a06576040517f08c379a00000000000000000000000000000000000000000000000000000000081526004016109fd906129a5565b60405180910390fd5b5b600081600301549050610a186116dc565b811115610a2a57610a276116dc565b90505b8160020160009054906101000a900473ffffffffffffffffffffffffffffffffffffffff1673ffffffffffffffffffffffffffffffffffffffff166108fc829081150290604051600060405180830381858888f19350505050158015610a94573d6000803e3d6000fd5b5080826004018190555060018260050160006101000a81548160ff021916908315150217905550827f2a26d55234ae45d40d3bdfd1893cf58ff7c2bb1c8089d97ed73879054778458c82604051610aeb9190612479565b60405180910390a25050600160008190555050565b60018054610b0d90612a28565b80601f0160208091040260200160405190810160405280929190818152602001828054610b3990612a28565b8015610b865780601f10610b5b57610100808354040283529160200191610b86565b820191906000526020600020905b815481529060010190602001808311610b6957829003601f168201915b505050505081565b610b9781611e13565b50565b7f0000000000000000000000000000000000000000000000000000000000000000610bfa576040517f08c379a0000000000000000000000000000000000000000000000000000000008152600401610bf190612aa5565b60405180910390fd5b6000600460003373ffffffffffffffffffffffffffffffffffffffff1673ffffffffffffffffffffffffffffffffffffffff16815260200190815260200160002060009054906101000a900460ff1690507f00000000000000000000000000000000000000000000000000000000000000001580610c9e57507f00000000000000000000000000000000000000000000000000000000000000008015610c9d5750805b5b610cdd576040517f08c379a0000000000000000000000000000000000000000000000000000000008152600401610cd490612b37565b60405180910390fd5b60006008600181600181540180825580915050039060005260206000209060080201905084816000019081610d129190612d03565b50338160010160006101000a81548173ffffffffffffffffffffffffffffffffffffffff021916908373ffffffffffffffffffffffffffffffffffffffff160217905550838160020160006101000a81548173ffffffffffffffffffffffffffffffffffffffff021916908373ffffffffffffffffffffffffffffffffffffffff1602179055508281600301819055508373ffffffffffffffffffffffffffffffffffffffff163373ffffffffffffffffffffffffffffffffffffffff167f74e74d59220b5b4ab0e8d3683d844955d6fb15b01748aa6f3db944d1bdd447318786604051610e01929190612dd5565b60405180910390a35050505050565b7f0000000000000000000000000000000000000000000000000000000000000000610e70576040517f08c379a0000000000000000000000000000000000000000000000000000000008152600401610e6790612e51565b60405180910390fd5b600460003373ffffffffffffffffffffffffffffffffffffffff1673ffffffffffffffffffffffffffffffffffffffff16815260200190815260200160002060009054906101000a900460ff16610efc576040517f08c379a0000000000000000000000000000000000000000000000000000000008152600401610ef390612ebd565b60405180910390fd5b6000815111610f40576040517f08c379a0000000000000000000000000000000000000000000000000000000008152600401610f3790612f4f565b60405180910390fd5b60005b81518110156111115760046000838381518110610f6357610f626126f7565b5b602002602001015173ffffffffffffffffffffffffffffffffffffffff1673ffffffffffffffffffffffffffffffffffffffff16815260200190815260200160002060009054906101000a900460ff16611104576003828281518110610fcc57610fcb6126f7565b5b60200260200101519080600181540180825580915050600190039060005260206000200160009091909190916101000a81548173ffffffffffffffffffffffffffffffffffffffff021916908373ffffffffffffffffffffffffffffffffffffffff16021790555060016004600084848151811061104d5761104c6126f7565b5b602002602001015173ffffffffffffffffffffffffffffffffffffffff1673ffffffffffffffffffffffffffffffffffffffff16815260200190815260200160002060006101000a81548160ff0219169083151502179055508181815181106110b9576110b86126f7565b5b602002602001015173ffffffffffffffffffffffffffffffffffffffff167f5589a1df7a257347b14b97cb6fe06862c960ff64e9a0c2908632929098bb013060405160405180910390a25b8080600101915050610f43565b5050565b60075481565b6005818154811061112b57600080fd5b906000526020600020016000915054906101000a900473ffffffffffffffffffffffffffffffffffffffff1681565b6003818154811061116a57600080fd5b906000526020600020016000915054906101000a900473ffffffffffffffffffffffffffffffffffffffff1681565b60066020528060005260406000206000915090505481565b6000600380549050905090565b7f000000000000000000000000000000000000000000000000000000000000000081565b600280546111ef90612a28565b80601f016020809104026020016040519081016040528092919081815260200182805461121b90612a28565b80156112685780601f1061123d57610100808354040283529160200191611268565b820191906000526020600020905b81548152906001019060200180831161124b57829003601f168201915b505050505081565b6000600580549050905090565b7f000000000000000000000000000000000000000000000000000000000000000081565b600881815481106112b157600080fd5b90600052602060002090600802016000915090508060000180546112d490612a28565b80601f016020809104026020016040519081016040528092919081815260200182805461130090612a28565b801561134d5780601f106113225761010080835404028352916020019161134d565b820191906000526020600020905b81548152906001019060200180831161133057829003601f168201915b5050505050908060010160009054906101000a900473ffffffffffffffffffffffffffffffffffffffff16908060020160009054906101000a900473ffffffffffffffffffffffffffffffffffffffff16908060030154908060040154908060050160009054906101000a900460ff169080600701604051806020016040529081600082015481525050905087565b7f000000000000000000000000000000000000000000000000000000000000000081565b6060600380548060200260200160405190810160405280929190818152602001828054801561148457602002820191906000526020600020905b8160009054906101000a900473ffffffffffffffffffffffffffffffffffffffff1673ffffffffffffffffffffffffffffffffffffffff168152602001906001019080831161143a575b5050505050905090565b7f00000000000000000000000000000000000000000000000000000000000000006114ee576040517f08c379a00000000000000000000000000000000000000000000000000000000081526004016114e590612fe1565b60405180910390fd5b600460003373ffffffffffffffffffffffffffffffffffffffff1673ffffffffffffffffffffffffffffffffffffffff16815260200190815260200160002060009054906101000a900460ff1661157a576040517f08c379a000000000000000000000000000000000000000000000000000000000815260040161157190612ebd565b60405180910390fd5b8173ffffffffffffffffffffffffffffffffffffffff166108fc829081150290604051600060405180830381858888f193505050501580156115c0573d6000803e3d6000fd5b508173ffffffffffffffffffffffffffffffffffffffff163373ffffffffffffffffffffffffffffffffffffffff167fddf252ad1be2c89b69c2b068fc378daa952ba7f163c4a11628f55a4df523b3ef8360405161161e9190612479565b60405180910390a35050565b7f000000000000000000000000000000000000000000000000000000000000000081565b606060058054806020026020016040519081016040528092919081815260200182805480156116d257602002820191906000526020600020905b8160009054906101000a900473ffffffffffffffffffffffffffffffffffffffff1673ffffffffffffffffffffffffffffffffffffffff1681526020019060010190808311611688575b5050505050905090565b600047905090565b7f000000000000000000000000000000000000000000000000000000000000000081565b61171133611e13565b565b600060088281548110611729576117286126f7565b5b906000526020600020906008020190508060050160009054906101000a900460ff161561178b576040517f08c379a00000000000000000000000000000000000000000000000000000000081526004016117829061282a565b60405180910390fd5b7f00000000000000000000000000000000000000000000000000000000000000006064600754600660003373ffffffffffffffffffffffffffffffffffffffff1673ffffffffffffffffffffffffffffffffffffffff168152602001908152602001600020546117fb91906128a8565b61180591906128d9565b10158061188557507f00000000000000000000000000000000000000000000000000000000000000001580156118845750600460003373ffffffffffffffffffffffffffffffffffffffff1673ffffffffffffffffffffffffffffffffffffffff16815260200190815260200160002060009054906101000a900460ff165b5b6118c4576040517f08c379a00000000000000000000000000000000000000000000000000000000081526004016118bb9061304d565b60405180910390fd5b8060060160003373ffffffffffffffffffffffffffffffffffffffff1673ffffffffffffffffffffffffffffffffffffffff16815260200190815260200160002060009054906101000a900460ff1615611953576040517f08c379a000000000000000000000000000000000000000000000000000000000815260040161194a906130df565b60405180910390fd5b60018160060160003373ffffffffffffffffffffffffffffffffffffffff1673ffffffffffffffffffffffffffffffffffffffff16815260200190815260200160002060006101000a81548160ff0219169083151502179055506119b981600701611fc1565b3373ffffffffffffffffffffffffffffffffffffffff16827f893b9e35d011bbe15567d0f899b775d6e02d49f62378315a6d25759d3bb1dbcc60405160405180910390a35050565b7f0000000000000000000000000000000000000000000000000000000000000000611a61576040517f08c379a0000000000000000000000000000000000000000000000000000000008152600401611a589061314b565b60405180910390fd5b600460003373ffffffffffffffffffffffffffffffffffffffff1673ffffffffffffffffffffffffffffffffffffffff16815260200190815260200160002060009054906101000a900460ff16611aed576040517f08c379a0000000000000000000000000000000000000000000000000000000008152600401611ae490612ebd565b60405180910390fd5b6000611af76111b1565b90506001811180611b4f57507f00000000000000000000000000000000000000000000000000000000000000008015611b4e57507f0000000000000000000000000000000000000000000000000000000000000000155b5b611b8e576040517f08c379a0000000000000000000000000000000000000000000000000000000008152600401611b85906131dd565b60405180910390fd5b600060038381548110611ba457611ba36126f7565b5b9060005260206000200160009054906101000a900473ffffffffffffffffffffffffffffffffffffffff169050600460008273ffffffffffffffffffffffffffffffffffffffff1673ffffffffffffffffffffffffffffffffffffffff16815260200190815260200160002060006101000a81549060ff021916905560008390505b60018303811015611cdc5760036001820181548110611c4857611c476126f7565b5b9060005260206000200160009054906101000a900473ffffffffffffffffffffffffffffffffffffffff1660038281548110611c8757611c866126f7565b5b9060005260206000200160006101000a81548173ffffffffffffffffffffffffffffffffffffffff021916908373ffffffffffffffffffffffffffffffffffffffff1602179055508080600101915050611c26565b506003805480611cef57611cee6131fd565b5b6001900381819060005260206000200160006101000a81549073ffffffffffffffffffffffffffffffffffffffff021916905590558073ffffffffffffffffffffffffffffffffffffffff167f1e25ed4cabec84d314dc176241019653f237da01f2bdd3a10cb0f38b33da676360405160405180910390a2505050565b7f000000000000000000000000000000000000000000000000000000000000000081565b7f000000000000000000000000000000000000000000000000000000000000000081565b60046020528060005260406000206000915054906101000a900460ff1681565b7f000000000000000000000000000000000000000000000000000000000000000081565b6000600880549050905090565b600081600001549050919050565b60003411611e56576040517f08c379a0000000000000000000000000000000000000000000000000000000008152600401611e4d9061329e565b60405180910390fd5b6000600660008373ffffffffffffffffffffffffffffffffffffffff1673ffffffffffffffffffffffffffffffffffffffff1681526020019081526020016000205403611f01576005819080600181540180825580915050600190039060005260206000200160009091909190916101000a81548173ffffffffffffffffffffffffffffffffffffffff021916908373ffffffffffffffffffffffffffffffffffffffff1602179055505b34600660008373ffffffffffffffffffffffffffffffffffffffff1673ffffffffffffffffffffffffffffffffffffffff1681526020019081526020016000206000828254611f5091906129c5565b925050819055503460076000828254611f6991906129c5565b925050819055508073ffffffffffffffffffffffffffffffffffffffff167f906faaf913a60f38b5e8f2d6f5b163239bac2d994fa1a5d21751a51587a9405734604051611fb69190612479565b60405180910390a250565b6001816000016000828254019250508190555050565b600073ffffffffffffffffffffffffffffffffffffffff82169050919050565b600061200282611fd7565b9050919050565b61201281611ff7565b82525050565b600060208201905061202d6000830184612009565b92915050565b6000604051905090565b600080fd5b600080fd5b6000819050919050565b61205a81612047565b811461206557600080fd5b50565b60008135905061207781612051565b92915050565b6000602082840312156120935761209261203d565b5b60006120a184828501612068565b91505092915050565b600081519050919050565b600082825260208201905092915050565b60005b838110156120e45780820151818401526020810190506120c9565b60008484015250505050565b6000601f19601f8301169050919050565b600061210c826120aa565b61211681856120b5565b93506121268185602086016120c6565b61212f816120f0565b840191505092915050565b600060208201905081810360008301526121548184612101565b905092915050565b61216581611ff7565b811461217057600080fd5b50565b6000813590506121828161215c565b92915050565b60006020828403121561219e5761219d61203d565b5b60006121ac84828501612173565b91505092915050565b600080fd5b600080fd5b7f4e487b7100000000000000000000000000000000000000000000000000000000600052604160045260246000fd5b6121f7826120f0565b810181811067ffffffffffffffff82111715612216576122156121bf565b5b80604052505050565b6000612229612033565b905061223582826121ee565b919050565b600067ffffffffffffffff821115612255576122546121bf565b5b61225e826120f0565b9050602081019050919050565b82818337600083830152505050565b600061228d6122888461223a565b61221f565b9050828152602081018484840111156122a9576122a86121ba565b5b6122b484828561226b565b509392505050565b600082601f8301126122d1576122d06121b5565b5b81356122e184826020860161227a565b91505092915050565b6000806000606084860312156123035761230261203d565b5b600084013567ffffffffffffffff81111561232157612320612042565b5b61232d868287016122bc565b935050602061233e86828701612173565b925050604061234f86828701612068565b9150509250925092565b600067ffffffffffffffff821115612374576123736121bf565b5b602082029050602081019050919050565b600080fd5b600061239d61239884612359565b61221f565b905080838252602082019050602084028301858111156123c0576123bf612385565b5b835b818110156123e957806123d58882612173565b8452602084019350506020810190506123c2565b5050509392505050565b600082601f830112612408576124076121b5565b5b813561241884826020860161238a565b91505092915050565b6000602082840312156124375761243661203d565b5b600082013567ffffffffffffffff81111561245557612454612042565b5b612461848285016123f3565b91505092915050565b61247381612047565b82525050565b600060208201905061248e600083018461246a565b92915050565b60008115159050919050565b6124a981612494565b82525050565b60006020820190506124c460008301846124a0565b92915050565b6124d381612047565b82525050565b6020820160008201516124ef60008501826124ca565b50505050565b600060e082019050818103600083015261250f818a612101565b905061251e6020830189612009565b61252b6040830188612009565b612538606083018761246a565b612545608083018661246a565b61255260a08301856124a0565b61255f60c08301846124d9565b98975050505050505050565b600081519050919050565b600082825260208201905092915050565b6000819050602082019050919050565b6125a081611ff7565b82525050565b60006125b28383612597565b60208301905092915050565b6000602082019050919050565b60006125d68261256b565b6125e08185612576565b93506125eb83612587565b8060005b8381101561261c57815161260388826125a6565b975061260e836125be565b9250506001810190506125ef565b5085935050505092915050565b6000602082019050818103600083015261264381846125cb565b905092915050565b600080604083850312156126625761266161203d565b5b600061267085828601612173565b925050602061268185828601612068565b9150509250929050565b7f5265656e7472616e637947756172643a207265656e7472616e742063616c6c00600082015250565b60006126c1601f836120b5565b91506126cc8261268b565b602082019050919050565b600060208201905081810360008301526126f0816126b4565b9050919050565b7f4e487b7100000000000000000000000000000000000000000000000000000000600052603260045260246000fd5b7f596f7520617265206e6f7420746865207065746974696f6e6572206f6620746860008201527f6520726571756573740000000000000000000000000000000000000000000000602082015250565b60006127826029836120b5565b915061278d82612726565b604082019050919050565b600060208201905081810360008301526127b181612775565b9050919050565b7f54686520726571756573742068617320616c7265616479206265656e20636f6d60008201527f706c657465640000000000000000000000000000000000000000000000000000602082015250565b60006128146026836120b5565b915061281f826127b8565b604082019050919050565b6000602082019050818103600083015261284381612807565b9050919050565b7f4e487b7100000000000000000000000000000000000000000000000000000000600052601260045260246000fd5b7f4e487b7100000000000000000000000000000000000000000000000000000000600052601160045260246000fd5b60006128b382612047565b91506128be83612047565b9250826128ce576128cd61284a565b5b828204905092915050565b60006128e482612047565b91506128ef83612047565b9250817fffffffffffffffffffffffffffffffffffffffffffffffffffffffffffffffff048311821515161561292857612927612879565b5b828202905092915050565b7f546865207265717565737420686173206e6f74206265656e20617070726f766560008201527f6420796574000000000000000000000000000000000000000000000000000000602082015250565b600061298f6025836120b5565b915061299a82612933565b604082019050919050565b600060208201905081810360008301526129be81612982565b9050919050565b60006129d082612047565b91506129db83612047565b92508282019050808211156129f3576129f2612879565b5b92915050565b7f4e487b7100000000000000000000000000000000000000000000000000000000600052602260045260246000fd5b60006002820490506001821680612a4057607f821691505b602082108103612a5357612a526129f9565b5b50919050565b7f52657175657374732063616e206e6f7420626520637265617465640000000000600082015250565b6000612a8f601b836120b5565b9150612a9a82612a59565b602082019050919050565b60006020820190508181036000830152612abe81612a82565b9050919050565b7f4f6e6c79206d616e61676572732063616e20637265617465206120726571756560008201527f7374000000000000000000000000000000000000000000000000000000000000602082015250565b6000612b216022836120b5565b9150612b2c82612ac5565b604082019050919050565b60006020820190508181036000830152612b5081612b14565b9050919050565b60008190508160005260206000209050919050565b60006020601f8301049050919050565b600082821b905092915050565b600060088302612bb97fffffffffffffffffffffffffffffffffffffffffffffffffffffffffffffffff82612b7c565b612bc38683612b7c565b95508019841693508086168417925050509392505050565b6000819050919050565b6000612c00612bfb612bf684612047565b612bdb565b612047565b9050919050565b6000819050919050565b612c1a83612be5565b612c2e612c2682612c07565b848454612b89565b825550505050565b600090565b612c43612c36565b612c4e818484612c11565b505050565b5b81811015612c7257612c67600082612c3b565b600181019050612c54565b5050565b601f821115612cb757612c8881612b57565b612c9184612b6c565b81016020851015612ca0578190505b612cb4612cac85612b6c565b830182612c53565b50505b505050565b600082821c905092915050565b6000612cda60001984600802612cbc565b1980831691505092915050565b6000612cf38383612cc9565b9150826002028217905092915050565b612d0c826120aa565b67ffffffffffffffff811115612d2557612d246121bf565b5b612d2f8254612a28565b612d3a828285612c76565b600060209050601f831160018114612d6d5760008415612d5b578287015190505b612d658582612ce7565b865550612dcd565b601f198416612d7b86612b57565b60005b82811015612da357848901518255600182019150602085019450602081019050612d7e565b86831015612dc05784890151612dbc601f891682612cc9565b8355505b6001600288020188555050505b505050505050565b60006040820190508181036000830152612def8185612101565b9050612dfe602083018461246a565b9392505050565b7f4e6577206d616e61676572732063616e206e6f74206265206164646564000000600082015250565b6000612e3b601d836120b5565b9150612e4682612e05565b602082019050919050565b60006020820190508181036000830152612e6a81612e2e565b9050919050565b7f4f6e6c79206d616e61676572732063616e206163636573730000000000000000600082015250565b6000612ea76018836120b5565b9150612eb282612e71565b602082019050919050565b60006020820190508181036000830152612ed681612e9a565b9050919050565b7f596f75206861766520746f2073656e64206f6e65206f72206d6f72652061646460008201527f7265737365730000000000000000000000000000000000000000000000000000602082015250565b6000612f396026836120b5565b9150612f4482612edd565b604082019050919050565b60006020820190508181036000830152612f6881612f2c565b9050919050565b7f4d616e61676572732063616e206e6f74207472616e73666572206d6f6e65792060008201527f776974686f757420612072657175657374000000000000000000000000000000602082015250565b6000612fcb6031836120b5565b9150612fd682612f6f565b604082019050919050565b60006020820190508181036000830152612ffa81612fbe565b9050919050565b7f596f752063616e206e6f7420617070726f766520612072657175657374000000600082015250565b6000613037601d836120b5565b915061304282613001565b602082019050919050565b600060208201905081810360008301526130668161302a565b9050919050565b7f596f75206861766520616c726561647920617070726f7665642074686973207260008201527f6571756573740000000000000000000000000000000000000000000000000000602082015250565b60006130c96026836120b5565b91506130d48261306d565b604082019050919050565b600060208201905081810360008301526130f8816130bc565b9050919050565b7f4d616e61676572732063616e206e6f742062652072656d6f7665640000000000600082015250565b6000613135601b836120b5565b9150613140826130ff565b602082019050919050565b6000602082019050818103600083015261316481613128565b9050919050565b7f546865726520776f756c64206265206e6f2077617920746f207769746864726160008201527f7720746865206d6f6e65792066726f6d2074686520636f6e7472616374000000602082015250565b60006131c7603d836120b5565b91506131d28261316b565b604082019050919050565b600060208201905081810360008301526131f6816131ba565b9050919050565b7f4e487b7100000000000000000000000000000000000000000000000000000000600052603160045260246000fd5b7f54686520636f6e747269627574696f6e206d757374206265206772656174657260008201527f207468616e207a65726f00000000000000000000000000000000000000000000602082015250565b6000613288602a836120b5565b91506132938261322c565b604082019050919050565b600060208201905081810360008301526132b78161327b565b905091905056fea2646970667358221220716f5eba36d594395cfe19be45deed20d5abf3c5513754aa78cafe900c12291064736f6c63430008100033",
  "linkReferences": {},
  "deployedLinkReferences": {}
}